:020000040800F2
:100000000040002041020008490200085102000897
:1000100000000000000000000000000000000000E0
:10002000000000000000000000000000770200084F
:1000300000000000000000007F020008AD5C000826
:10004000870200088702000887020008870200086C
:10005000870200088702000887020008870200085C
:10006000870200088702000887020008870200084C
:10007000870200088702000887020008870200083C
:10008000870200088702000887020008870200082C
:10009000870200088702000887020008856E0008B2
:1000A000996E00088702000887020008870200088E
:1000B00087020008870200088702000887020008FC
:1000C0005FF808F180B58EB000AF00F031F94A4B0F
:1000D0004A4A1A604A4B494A1A604A4B3B634A4BA8
:1000E000FB624A4BBB62FB6A7B6207E03A6B131D03
:1000F0003B637B6A191D796212681A60BA6A7B6A6F
:100100009A42F3D83C4B1B68414A934204D13C4B82
:100110001B68404A934200D0FEE73F4B374A1A60C3
:100120003E4B364A1A603E4B3B623E4BFB613B6A9C
:10013000BB6104E0BB691A1DBA6100221A60FA694A
:10014000BB699A42F6D8344B1B68002B03D1334B62
:100150001B68002B00D0FEE700F0F0F83A003B1DD2
:100160001100180000F0D4F82F4A304BD31A9B101E
:10017000FB600023BB6007E02C4BBA689200D358A9
:100180009847BB680133BB60FA68BB689A42F3DCEE
:10019000274A284BD31A9B10FB600023BB6007E063
:1001A000244BBA689200D3589847BB680133BB60B0
:1001B000FA68BB689A42F3DC7B683A681100180061
:1001C00005F0EAF903007B631B4A1C4BD31A9B1012
:1001D0007B617B693B6108E03B695A1E174B9200CB
:1001E000D35898473B69013B3B613B69002BF3DCEB
:1001F0007B6B180000F07CF800000020BABADECA61
:10020000B4000020787B000800000020B800002027
:100210007856341232547698B800002050050020E9
:10022000B800002054050020BC020008BC020008F1
:10023000D4020008BC020008DC020008D402000856
:1002400080B500AFFFF73EFF80B500AF00BEFEE710
:1002500004207146084202D0EFF3098001E0EFF379
:10026000088071460A4A104780B582B000AF7860B6
:10027000396000BEFEE780B500AF00BEFEE780B586
:1002800000AF00BEFEE780B500AF00BEFEE7000095
:0402900069020008F7
:10029400787B000800000020B8000020787B00086C
:1002A4000000000000000000B800002054050020F9
:1002B4000000000000000000DD1A0008591F0008BB
:1002C4007941000831590008F16E000835750008BD
:0802D400495900084D750008AE
:1002DC0080B582B000AF024B7B6000F009F8C046DD
:1002EC005877000880B582B000AF7860FEE7000058
:1002FC0080B582B000AF024B7B600120FFF7F2FFAC
:10030C006C77000880B582B000AF786039607B688C
:10031C0001221A603B68024A1A60BD4602B080BDD9
:10032C000400002080B500AF00F008F8BD4680BD89
:10033C0080B500AF00F048F8BD4680BD80B500AF79
:10034C001B4B1A681A4B01210A431A60184B5A6846
:10035C00174B18490A405A60154B1A68144B16492A
:10036C000A401A60124B1A68114B14490A401A6061
:10037C000F4B5A680E4B12490A405A600C4BDA6A02
:10038C000B4B0F218A43DA62094B1A6B084B0D4950
:10039C000A401A63064B5A6B054B01218A435A6378
:1003AC00034B00229A6000F07DF8BD4680BDC0462C
:1003BC00001002400CB8FF08FFFFF6FEFFFFFBFF2A
:1003CC00FFFFC0FFACFEFFFF80B584B000AF002381
:1003DC00FB600023BB6000237B6000233B602D4B44
:1003EC005B680C221340FB60FB68042B07D0082BC6
:1003FC0009D0002B38D1284B284A1A6037E0264BFD
:10040C00264A1A6033E0234B5A68F0239B031340AF
:10041C00BB60204B5A68C0235B0213407B60BB68F7
:10042C009B0C0233BB607B68002B0CD1B9680A00B3
:10043C005201521A93019B1ADB005B181B021A0023
:10044C00154B1A6013E0134BDB6A0F221340013378
:10045C003B603968114807F0E5F803001A00BB68E7
:10046C005A430D4B1A6002E00B4B0C4A1A60094BB5
:10047C005B681B090F221340094AD35CDBB2FB609B
:10048C00054B1A68FB68DA40034B1A60BD4604B092
:10049C0080BDC046001002400C00002000127A0003
:1004AC001000002080B582B000AF00237B600023D9
:1004BC003B60304B1A682F4B802149020A431A606B
:1004CC002C4B1A6880239B0213403B607B680133E2
:1004DC007B603B68002B04D17A68A023DB019A4235
:1004EC00EED1244B1A6880239B02134002D00123C7
:1004FC003B6001E000233B603B68012B36D11E4B77
:10050C0011221A601B4A1B4B52685A60194A194B2C
:10051C0052685A60174B5A68164B18490A405A6071
:10052C00144B5A68134B882149030A435A60114BE8
:10053C001A68104B802149040A431A600D4B1A6843
:10054C0080239B041340F9D00A4B5A68094B0321B2
:10055C008A435A60074B5A68064B02210A435A6079
:10056C00044B5B680C221340082BF9D1BD4602B03A
:10057C0080BDC0460010024000200240FF7FC0FF3B
:10058C0080B582B000AF78600A00FB1C1A707B68E3
:10059C001B8A9BB21A00FB1C1B781A411300012208
:1005AC0013405A1E9341DBB21800BD4602B080BD09
:1005BC0080B582B000AF78607B681A687B681B7965
:1005CC0019001000FFF7DCFF03001800BD4602B055
:1005DC0080BD80B582B000AF78607B68180000F0F9
:1005EC0038F803001A0001235340DBB2002B01D072
:1005FC0000232AE07B681B681800FFF7D9FF030073
:10060C001A0001235340DBB2002B01D001231CE064
:10061C007B689B681800FFF7CBFF03001A000123CF
:10062C005340DBB2002B01D002230EE07B685B68E9
:10063C001800FFF7BDFF03001A0001235340DBB283
:10064C00002B01D0032300E004231800BD4602B0A8
:10065C0080BD80B582B000AF78607B68DB68180025
:10066C00FFF7A6FF03001A0001235340DBB218006A
:10067C00BD4602B080BD80B582B000AF78607B68AB
:10068C00DB68B8331800FFF793FF03001800BD4672
:10069C0002B080BD80B582B000AF78607B68DB684B
:1006AC00B0331800FFF784FF03001800BD4602B0FA
:1006BC0080BD80B582B000AF78607B68DB68E833C2
:1006CC001800FFF775FF03001A0001235340DBB23B
:1006DC001800BD4602B080BD80B582B000AF786016
:1006EC007B68DB68F0331800FFF762FF03001A0029
:1006FC0001235340DBB21800BD4602B080BD80B56B
:10070C0082B000AF78607B681800FFF7D2FF031E41
:10071C0005D17B681800FFF7DFFF031E01D0012312
:10072C0000E000231800BD4602B080BDB0B584B017
:10073C0000AF7860344B1B681800FFF7E0FF031E16
:10074C0003D07B6800221A745AE00F257C197B6851
:10075C001800FFF73EFF030023707B191B78042B56
:10076C004ED89A00294BD3181B689F46264B1B6802
:10077C001800FFF780FF031E01D0032202E00F23B5
:10078C00FB181A787B681A743AE01F4B1B68180028
:10079C00FFF780FF031E01D0032202E00F23FB189A
:1007AC001A787B681A742BE07B680F22BA181278BF
:1007BC001A7425E07B681B7C012B04D0022B0DD016
:1007CC00002B16D01CE0104B1B681800FFF753FFD2
:1007DC00031E12D07B6803221A7411E00A4B1B68AB
:1007EC001800FFF757FF031E09D07B6803221A7409
:1007FC0006E07B6803221A7402E0C04600E0C046A3
:10080C00BD4604B0B0BDC04634000020807700085F
:10081C0080B582B000AF786008001100FB1C021C90
:10082C001A70BB1C0A1C1A707B681B68FA1C1278A5
:10083C005200032191400A00D2431A407B681A608F
:10084C007B681A68BB1C1978FB1C1B785B009940F1
:10085C000B001A437B681A60BD4602B080BD80B5A0
:10086C0082B000AF786008001100FB1C021C1A70EB
:10087C00BB1C0A1C1A707B689B68FA1C127852000D
:10088C00032191400A00D2431A407B689A607B682E
:10089C009A68BB1C1B781900FB1C1B785B009940E9
:1008AC000B001A437B689A60BD4602B080BD80B5D0
:1008BC0082B000AF786008001100FB1C021C1A709B
:1008CC00BB1C0A1C1A707B68DB68FA1C127852007D
:1008DC00032191400A00D2431A407B68DA607B689E
:1008EC00DA68BB1C1978FB1C1B785B0099400B0069
:1008FC001A437B68DA60BD4602B080BD80B582B019
:10090C0000AF786008001100FB1C021C1A70BB1CA5
:10091C000A1C1A707B689B889BB2FA1C1278110017
:10092C0001228A4092B2D24392B213409AB27B68AF
:10093C009A807B689B889AB2BB1C1B78F91C09783F
:10094C008B409BB213439AB27B689A80BD4602B02F
:10095C0080BD90B583B000AF78600C00100019001A
:10096C00FB1C221C1A70BB1C021C1A707B1C0A1C60
:10097C001A70BB1C1A78FB1C19787B681800FFF7DF
:10098C0047FF7B1C1A78FB1C19787B681800FFF753
:10099C00B5FF1823FB181A78FB1C19787B68180014
:1009AC00FFF785FF1C23FB181A78FB1C19787B6852
:1009BC001800FFF754FFBD4603B090BD80B582B060
:1009CC0000AF78600A00FB1C1A70FB1C1B7801221C
:1009DC009A4013001A007B689A61BD4602B080BD34
:1009EC0080B582B000AF78600A00FB1C1A70FB1C4B
:1009FC001B78103301229A4013001A007B689A610D
:100A0C00BD4602B080BD80B582B000AF78600800F2
:100A1C001100FB1C021C1A70BB1C0A1C1A70BB1C9C
:100A2C001B78002B07D0FB1C1A787B681100180070
:100A3C00FFF7C4FF06E0FB1C1A787B681100180056
:100A4C00FFF7CEFFBD4602B080BD80B582B000AFCF
:100A5C0078600A00FB1C1A707B689B8A9BB21A0098
:100A6C00FB1C1B781A411300012213405A1E9341A0
:100A7C00DBB21800BD4602B080BD80B588B000AFB7
:100A8C00786008001100FB1C021C1A70BB1C0A1CAD
:100A9C001A70BB1C1B78072B01D900234DE00723D0
:100AAC00FB61BB1C1B78BB61FB1C1B78072B1CD888
:100ABC0017217B18FA1C127892001A707B681B6A3B
:100ACC003B617B181B7807229A401300DA433B6981
:100ADC0013403B617B181B78BA699A4013003A6942
:100AEC0013433B617B683A691A62FB1C1B78072B2A
:100AFC0022D9FB1C1B780F2B1ED8FB1C1B78383300
:100B0C00DAB20F217B1892001A707B685B6ABB60AB
:100B1C007B181B7807229A401300DA43BB681340FA
:100B2C00BB607B181B78BA699A401300BA681343F0
:100B3C00BB607B68BA685A6201231800BD4608B0D6
:100B4C0080BD80B582B000AF78600A00FB1C1A70C3
:100B5C007B6818687B681979FB1C1B781A00FFF7F7
:100B6C0057FEBD4602B080BD80B582B000AF786044
:100B7C000A00FB1C1A707B6818687B681979FB1CCF
:100B8C001B781A00FFF76BFEBD4602B080BD80B526
:100B9C0082B000AF78600A00FB1C1A707B68186882
:100BAC007B681979FB1C1B781A00FFF780FEBD4689
:100BBC0002B080BD80B582B000AF78600A00FB1C2B
:100BCC001A707B6818687B681979FB1C1B781A00F3
:100BDC00FFF794FEBD4602B080BD80B582B000AF79
:100BEC0078600A00FB1C1A707B6818687B6819799E
:100BFC00FB1C1B781A00FFF706FFBD4602B080BD38
:100C0C0080B582B000AF78607B681A687B681B790E
:100C1C0019001000FFF719FF03001800BD4602B0C1
:100C2C0080BD90B583B000AF78600C001000190047
:100C3C00FB1C221C1A70BB1C021C1A707B1C0A1C8D
:100C4C001A70FB1C1A787B6811001800FFF779FFEB
:100C5C00BB1C1A787B6811001800FFF7ABFF7B1CDC
:100C6C001A787B6811001800FFF791FF1823FB1806
:100C7C001A787B6811001800FFF776FFBD4603B0A9
:100C8C0090BD000080B582B000AF7860034A7B68ED
:100C9C001A607B681800BD4602B080BDD077000892
:100CAC0080B500AF024B1B681800BD4680BDC04626
:100CBC000C00002080B582B000AF124B5B681B09A2
:100CCC000F2213407B607B680822134013D07B6893
:100CDC00072213407B607B6801337B607B68032BAE
:100CEC0002D97B6801337B60FFF7DAFF02007B6877
:100CFC00DA40130002E0FFF7D3FF03001800BD46F3
:100D0C0002B080BD0010024080B582B000AF0F4B26
:100D1C005B681B0A072213407B607B68042213402C
:100D2C000DD07B68032213407B607B6801337B60B2
:100D3C00FFF7C0FF02007B68DA40130002E0FFF708
:100D4C00B9FF03001800BD4602B080BD0010024080
:100D5C0080B584B002AF78601A4803230193002356
:100D6C000093002302220821FFF7F3FD7868032388
:100D7C000093002300220121FFF753FF11480323A6
:100D8C00019300230093002302220A21FFF7E1FDC7
:100D9C007B680833180003230093002300220121F1
:100DAC00FFF73FFF074B002208211800FFF765FEF5
:100DBC00044B00220A211800FFF75FFEBD4602B06B
:100DCC0080BDC0460010004880B584B000AF78608C
:100DDC002A4B9A69294B802109010A439A61284BB5
:100DEC00FB60FFF791FF03002649180006F01AFC80
:100DFC000300013BBB60BB689AB2FB681A85FB68B9
:100E0C00C822DA62FB6800225A63FB6800229A63EC
:100E1C00FB681B8B9BB21C4A13439AB2FB681A8368
:100E2C00FB681B8C9BB2112213439AB2FB681A8489
:100E3C00FB681B8C9BB2CC2213439AB2FB681A84BE
:100E4C00FB6844229B5A9BB2104A134399B2FB682D
:100E5C0044229952FB681B889BB2612213439AB2BD
:100E6C00FB681A80FB689B8A9BB2012213439AB2DF
:100E7C00FB689A82BD4604B080BDC046001002409B
:100E8C00002C014000093D00686800000080FFFF55
:100E9C0080B582B000AF78607B681800FFF794FFD4
:100EAC007B681800FFF754FFBD4602B080BD80B5CB
:100EBC0082B000AF78607B681800FFF7A1FE0300DA
:100ECC001800BD4602B080BD80B582B000AF78601E
:100EDC007B6808331800FFF793FE03001800BD462B
:100EEC0002B080BD80B584B000AF786039603B68DB
:100EFC00FB603B68002B07D07B681800FFF7D7FF1F
:100F0C00031E01D0012300E00023002B01D000239D
:100F1C00FB60074BFA685A63054B9B8A9BB2044AE9
:100F2C0002210B439BB29382BD4604B080BDC046E8
:100F3C00002C014080B582B000AF7860024B5B6B37
:100F4C001800BD4602B080BD002C014080B584B0B5
:100F5C0000AF786039603B68FB603B68002B07D0C2
:100F6C007B681800FFF7B0FF031E01D0012300E0DF
:100F7C000023002B01D00023FB60074BFA689A6317
:100F8C00054B9B8A9BB2044A04210B439BB2938270
:100F9C00BD4604B080BDC046002C014080B582B077
:100FAC0000AF7860024B9B6B1800BD4602B080BD51
:100FBC00002C014080B584B000AF78600A00FB1CA7
:100FCC001A700F23FB18FA1C12781A70FB1C1B7872
:100FDC00002B07D07B681800FFF769FF031E01D0B8
:100FEC00012300E00023002B03D00F23FB18002269
:100FFC001A700F23FB181B78002B01D0C92300E0BB
:10100C0000237A6819001000FFF76CFFBD4604B08E
:10101C0080BD80B584B000AF78600A00FB1C1A70EC
:10102C000F23FB18FA1C12781A70FB1C1B78002B70
:10103C0007D07B681800FFF747FF031E01D0012380
:10104C0000E00023002B03D00F23FB1800221A70A2
:10105C000F23FB181B78002B01D0C92300E00023C1
:10106C007A6819001000FFF771FFBD4604B080BD0F
:10107C0080B582B000AF78600A00FB1C1A70FB1CB4
:10108C001B78002B07D07B681800FFF753FF031E5B
:10109C0001D0012300E00023002B05D07B68002148
:1010AC001800FFF79AFD06E07A68FB1C1B78190004
:1010BC001000FFF792FDBD4602B080BD80B582B036
:1010CC0000AF78600A00FB1C1A70FB1C1B78002B0D
:1010DC0007D07B681800FFF761FF031E01D00123C6
:1010EC0000E00023002B06D07B6808330021180099
:1010FC00FFF773FD08E07B6808331A00FB1C1B78B4
:10110C0019001000FFF769FDBD4602B080BD80B527
:10111C0082B000AF78607B68180000F00AF803001A
:10112C00052B01D1012300E000231800BD4602B0BD
:10113C0080BD80B582B000AF78607B681B7C1800E6
:10114C00BD4602B080BD80B582B000AF78600A00A9
:10115C00FB1C1A707B68FA1C292112785A547B6884
:10116C0029229B5C022B05D0032B55D0012B00D1DF
:10117C007DE089E07B6828229B5C012B3AD0032B15
:10118C0002D0002B24D093E07B6804331800FFF7C7
:10119C00D1FE03005A425341DBB2002B05D07B68D1
:1011AC00043301211800FFF763FF7B680433180038
:1011BC00FFF7F4FE03005A425341DBB2002B00D17F
:1011CC006FE07B68043301211800FFF777FF6FE0B5
:1011DC007B6804331800FFF7ADFE03005A425341FD
:1011EC00DBB2002B5FD07B68043301211800FFF7C2
:1011FC003FFF5DE07B6804331800FFF7CFFE030070
:10120C005A425341DBB2002B4FD07B68043301218F
:10121C001800FFF753FF4BE07B6828229B5C042BE4
:10122C0000D045E07B6804331800FFF740FE030054
:10123C001A0001235340DBB2002B05D07B6804332A
:10124C0001211800FFF7B6FE7B6804331800FFF786
:10125C003BFE03001A0001235340DBB2002B26D0C7
:10126C007B68043301211800FFF7D3FE20E07B6874
:10127C00043300211800FFF7FBFE7B6804330021C8
:10128C001800FFF71BFF13E07B68043300211800E4
:10129C00FFF790FE7B68043300211800FFF7B9FEBE
:1012AC0006E0C04604E0C04602E0C04600E0C0468E
:1012BC00BD4602B080BD80B584B002AF78607B685B
:1012CC001433180003230093002301220021FFF79D
:1012DC00A8FC7B6804331800FFF7DAFD7B681B68F9
:1012EC0008331B687A680221100098477B6800213C
:1012FC001800FFF728FFBD4602B080BD80B582B054
:10130C0000AF78607B6814331800FFF751F90300C5
:10131C001A0001235340DBB21800BD4602B080BD59
:10132C0080B582B000AF78600A00FB1C1A707B6835
:10133C0028229B5CFA1C12789A420CD07B68FA1C0F
:10134C00282112785A547B6800211800FFF7FBFE05
:10135C007B6800225A62BD4602B080BD80B582B067
:10136C0000AF78607B6828229B5C1800BD4602B0F9
:10137C0080BD000080B584B000AF78607B685B6A8C
:10138C005A1C7B685A620D203B187A682921525CE2
:10139C001A703B181B78012B16D002DC002B05D0E1
:1013AC00D5E0022B1ED0032B30D0D0E07B685B6ADB
:1013BC00042B00D8D4E07B6801211800FFF7C3FE92
:1013CC007B6800225A62D4E07B685B6A042B00D8ED
:1013DC00C8E07B6802211800FFF7B5FE7B6800228D
:1013EC005A62C6E07B685B6A042B00D8BCE07B6861
:1013FC0003211800FFF7A7FE7B6800225A627B6866
:10140C0000229A837B6800221A62B2E07B68282251
:10141C009B5C042B00D9A9E09A00574BD3181B688E
:10142C009F467B680433C9211800FFF75BFD7B687E
:10143C000433C9211800FFF789FD97E04F4B1B6857
:10144C001800FFF764FE031E00D167E07B689B8BDE
:10145C00C72B00D98AE07B681B6A5A1C7B681A620E
:10146C007B685A6AFA231B019A4208D97B681B686D
:10147C0008331B687A6802211000984776E00E2327
:10148C00FB187A68928B1A800523BB607B68180066
:10149C00FFF734FF031E0CD00E23FB181B889AB2E7
:1014AC00022A00D202239AB20E23FB18023A1A80A7
:1014BC000EE07B681B6A042B0AD97B681B6A5A1FD7
:1014CC007B681A620E217B181A887B1801321A80ED
:1014DC007B689B8B0E22BA1812889A4235D07B6897
:1014EC000E22BA1812889A837B6828229B5C002BE8
:1014FC0002D0012B09D028E07B681A1D7B689B8BDE
:10150C0019001000FFF722FD1FE07B681A1D7B6895
:10151C009B8B19001000FFF7E5FC16E07B68282276
:10152C009B5C002B02D0012B07D022E07B6804339C
:10153C00C9211800FFF70AFD1BE07B680433C921A1
:10154C001800FFF7CFFCC04613E0C0460EE07B68E6
:10155C001B6808331B687A6802211000984708E062
:10156C00C04606E0C04604E0C04602E0C04600E0CB
:10157C00C046BD4604B080BD9477000834000020FE
:10158C0080B582B000AF7860054A7B681A607B68D2
:10159C001800FFF777FB7B681800BD4602B080BDD2
:1015AC00B077000880B582B000AF78607B68180017
:1015BC00FFF7E6FF7B683021180005F0CDFF7B6854
:1015CC001800BD4602B080BD80B582B000AF786017
:1015DC007B681A687B681B7919001000FFF7EEF91D
:1015EC00BD4602B080BD80B582B000AF78607B682C
:1015FC001A687B681B7919001000FFF7F1F9BD46DA
:10160C0002B080BD80B582B000AF78600A00FB1CD0
:10161C001A707B68FA1C12781A73BD4602B080BD32
:10162C0090B585B000AF786039607B689A683B688C
:10163C00D2187B689A607B689B68404A934209D9B0
:10164C007B689B686421180006F072F80B001A0086
:10165C007B689A607B689B686421180005F0E2FF48
:10166C0003001A000F23FB181A707B681B7B062BD8
:10167C005ED89A00324BD3181B689F467B681800C3
:10168C00FFF7A2FF57E07B681800FFF7ACFF52E0B2
:10169C0078680F23FB181A780421002391425B41D0
:1016AC00DBB21900FFF799FA45E07A680F23FB18B3
:1016BC001B785B10190001230B40591E8B41DBB2C8
:1016CC0019001000FFF789FA35E078680F23FB1832
:1016DC001B78012213405A1E9341DBB21900FFF70D
:1016EC007CFA28E07A680F23FB181B7859424B418F
:1016FC00DBB219001000FFF770FA1CE07C680F23B6
:10170C00FB181B78032213400AD00F23FB181B78FD
:10171C000321180006F00CF80B00DBB2002B01D1F2
:10172C00012300E0002319002000FFF756FA02E025
:10173C007B6803221A73BD4605B090BDE703000019
:10174C00E877000880B582B000AF78600A00FB1C17
:10175C001A70FB1C1B78002B07D07B681A1DFB1C16
:10176C001B781900100004F015F9BD4602B080BDBD
:10177C0080B584B000AF78600F23FB1800221A707C
:10178C007B685B6A1800FEF713FF03001A00012345
:10179C005340DBB2002B03D00F23FB1803221A702B
:1017AC007B689B6A1800FEF703FF03001A000123F5
:1017BC005340DBB2002B03D00F23FB1801221A700D
:1017CC007B68DB691800FEF7F3FE03001A000123A7
:1017DC005340DBB2002B03D00F23FB1802221A70EC
:1017EC007B681B6A1800FEF7E3FE03001A00012356
:1017FC005340DBB2002B03D00F23FB1804221A70CA
:10180C007B685B6A1800FEF7D3FE03001A00012305
:10181C005340DBB2002B0DD07B681B6A1800FEF71F
:10182C00C7FE03001A0001235340DBB2002B01D08A
:10183C00012300E00023002B03D00F23FB1806220A
:10184C001A707B689B6A1800FEF7B2FE03001A0040
:10185C0001235340DBB2002B0DD07B68DB691800F1
:10186C00FEF7A6FE03001A0001235340DBB2002B47
:10187C0001D0012300E00023002B03D00F23FB1821
:10188C0005221A700F23FB181B781800BD4604B0F4
:10189C0080BD0000B0B584B000AF78600F257C1916
:1018AC007B68180000F01EF8030023700C4B1B78AB
:1018BC007A1912789A4210D0094B0F217A181278A3
:1018CC001A707B181B78002B07D00F23FB181A7883
:1018DC007B6811001800FFF735FFBD4604B0B0BDA2
:1018EC00BD00002080B582B000AF78607B68180026
:1018FC00FFF73EFF03001800BD4602B080BD80B567
:10190C0082B000AF78607B6800221A607B6800228E
:10191C005A607B6800229A607B680022DA607B68E0
:10192C0000221A617B6800229A617B680022DA61CE
:10193C007B6800221A627B6800225A627B68002254
:10194C009A627B681800BD4602B080BD80B582B03B
:10195C0000AF78600A00FB1C1A707B689A6AFB1C4B
:10196C001B7819001000FFF738F9BD4602B080BD96
:10197C0080B582B000AF78607B68180000F062F828
:10198C00031E16D07B681B685A1D7B681A607B6827
:10199C00DB6906211800FFF735FE7B681B6A062100
:1019AC001800FFF72FFE7B685B6A06211800FFF713
:1019BC0029FE7B681B691800FFF794FF03005A1E71
:1019CC009341DBB2002B02D07B6800225A607B680B
:1019DC005B681B4A93420AD87B685B685A1D7B681C
:1019EC005A607B6801211800FFF7B0FF04E07B68A8
:1019FC0000211800FFF7AAFF7B68DB69052118009E
:101A0C00FFF70EFE7B681B6A05211800FFF708FE26
:101A1C007B685B6A05211800FFF702FE7B681B6977
:101A2C001800FFF737FF7B685B691800FEF77EFE36
:101A3C007B689B69180001F0EDF9BD4602B080BDD2
:101A4C00BFD4010080B582B000AF78607B681A68A3
:101A5C000449002391425B41DBB21800BD4602B041
:101A6C0080BDC0468713000080B500AF024B180044
:101A7C00FFF77EFFBD4680BDC000002080B500AFE3
:101A8C00014B1800BD4680BDC000002080B582B05F
:101A9C0000AF786039607B68012B0DD13B68084A38
:101AAC00934209D1074B1800FFF729FF064A074854
:101ABC000523022104F0AAF8BD4602B080BDC04641
:101ACC00FFFF0000C0000020751A0008EC00002089
:101ADC0080B500AF034B19000120FFF7D7FFBD46BF
:101AEC0080BDC046FFFF000090B583B000AF020080
:101AFC003960FB1D1A70FB1D1B785BB2002B36DAAC
:101B0C00314AFB1D1B785BB219000F230B40083BBD
:101B1C009B0806339B00D31804331B68FA1D1278FC
:101B2C0052B2110003220A40D200FF2191400A0058
:101B3C00D2431A4011003B689B01FF221A40FB1D47
:101B4C001B785BB2180003230340DB009A401E484D
:101B5C00FB1D1B785BB21C000F232340083B9B082A
:101B6C000A4306339B00C31804331A6029E0174A52
:101B7C00FB1D1B785BB29B08C0339B009B58FA1D66
:101B8C00127852B2110003220A40D200FF21914078
:101B9C000A00D2431A4011003B689B01FF221A40F5
:101BAC00FB1D1B785BB2180003230340DB009A403B
:101BBC000648FB1D1B785BB29B080A43C0339B0095
:101BCC001A50BD4603B090BD00ED00E000E100E00E
:101BDC0080B582B000AF78607B68013B0C4A9342C1
:101BEC0001D9012310E00B4B7A68013A5A600123AA
:101BFC005B4203211800FFF777FF064B00229A6027
:101C0C00044B07221A6000231800BD4602B080BDA9
:101C1C00FFFFFF0010E000E080B584B000AFF8607B
:101C2C00B960FB1D1A70FB68BA681A60FB68FA1D74
:101C3C0012781A71FB6803211800FEF782FFFB680B
:101C4C0000211800FEF7A3FFFB6800211800FEF727
:101C5C008BFFFB6801211800FEF7ACFFFB68180036
:101C6C00BD4604B080BD000080B582B000AF02005C
:101C7C00FB1D1A70FB1D1B78042B0CD89A00074B0C
:101C8C00D3181B689F46FEE7054B01221A7002E031
:101C9C00034B01221A70BD4602B080BD04780008C7
:101CAC001001002080B500AF024B1B681800BD4628
:101CBC0080BDC0460804002080B584B000AF7860B9
:101CCC00FFF7F0FF0300FB60FFF7ECFF0200FB687F
:101CDC00D21A7B689A429B415B42DBB2002BF3D158
:101CEC00BD4604B080BD000080B584B000AF786004
:101CFC007B68084A9A429B415B42DBB2FB60064B15
:101D0C00FA681A60044BFA6810210A431A60BD463F
:101D1C0004B080BD00366E010020024080B582B058
:101D2C0000AF786039603A4B1A68394B01210A438D
:101D3C001A60374B1B68022213405A425341DBB2E4
:101D4C00002BF6D1324B5A68314B03218A435A602F
:101D5C002F4B5B680C2213405A1E9341DBB2002BB5
:101D6C00F6D12B4B1A682A4B802149020A431A6080
:101D7C00274B1A6880239B0213405A425341DBB213
:101D8C00002BF5D13B681800FFF7AEFF204B214A22
:101D9C005A601F4B0022DA621D4B1A681C4B8021C3
:101DAC0049040A431A601A4B1A6880239B04134097
:101DBC005A425341DBB2002BF5D1154B5A68144BE8
:101DCC0002210A435A60124B5B680C221340083BF9
:101DDC005A1E9341DBB2002BF5D10D4B5A680C4BBC
:101DEC0002210A435A600A4B5B680C221340083BE1
:101DFC005A1E9341DBB2002BF5D1054B5A68044BAC
:101E0C0001210A405A6001231800BD4602B080BD72
:101E1C00001002400000118080B582B000AF00239A
:101E2C007B60154B5A69144BFC21C9030A435A6158
:101E3C00114B5B697B607B680F4BDA690E4B802121
:101E4C0089030A43DA610C4BDA6980239B03134044
:101E5C007B607B68084B9A69074B802189000A4399
:101E6C009A61054B9A6980239B0013407B607B68C9
:101E7C00BD4602B080BDC0460010024080B500AF28
:101E8C00114A124B11001800FFF748FFFEF79CFA9D
:101E9C00FFF7C2FF0E4B1A68FA239900100005F0E9
:101EAC00C1FB03001800FFF793FE03005A1E934179
:101EBC00DBB2002B02D00220FFF7D6FE00F012F8A6
:101ECC0000F008F8BD4680BD0048E80100127A0019
:101EDC000C00002080B500AFBD4680BD80B500AFC2
:101EEC00BD4680BD80B500AFBD4680BD80B582B01B
:101EFC0000AF78607B681800FFF7DEFEBD4602B0CD
:101F0C0080BD000080B582B000AF786039607B681E
:101F1C00012B0FD13B68094A93420BD10849094B5D
:101F2C0000221800FFF778FE0549074B0122180024
:101F3C00FFF772FEBD4602B080BDC046FFFF000039
:101F4C0000080048000100200801002080B500AF07
:101F5C00034B19000120FFF7D5FFBD4680BDC046DD
:101F6C00FFFF0000B0B584B000AF0200FB1D1A707B
:101F7C003B1D0A1C1A80FB1D1B780A2B01D9002360
:101F8C0016E004F0A1FBFB1D1B789AB20E257C1900
:101F9C003B1D1B881900100004F0D8F803002380A7
:101FAC0004F0A8FB7B191B88043B5A425341DBB25B
:101FBC001800BD4604B0B0BDB0B584B000AF02008F
:101FCC003960FB1D1A70FB1D1B780A2B01D90023ED
:101FDC0024E0FB1D1B789BB20E257C193A6811007E
:101FEC00180004F04FF8030023807B191B88002B8A
:101FFC0001D1012312E00E23FB181B88012B0CD1FD
:10200C003B6800221A803B681A88FB1D1B78110064
:10201C001800FFF7A7FF030000E000231800BD46DF
:10202C0004B0B0BD80B584B000AF0200FB1D1A70C7
:10203C000E23FA18FB1D1B7811001800FFF7BCFFCC
:10204C00031E03D00E23FB181B8801E001235B4207
:10205C001800BD4604B080BD80B582B000AF78607A
:10206C007B685A687B689B68D31A5A425341DBB22F
:10207C001800BD4602B080BD80B582B000AF78605C
:10208C007B681800FFF7E8FF03001A000123534098
:10209C00DBB21800BD4602B080BD80B584B000AF85
:1020AC0078607B6804331800FFF7E6FF031E11D03D
:1020BC007B680433180003F0A4FC03001A000F2102
:1020CC007B181A707B181B78002BEAD00F23FB1897
:1020DC001B7800E000231800BD4604B080BD80B51D
:1020EC0082B000AF78607B681800FFF7D6FF030062
:1020FC001800BD4602B080BD80B582B000AF7860DC
:10210C007B6801225A76BD4602B080BD80B584B092
:10211C0000AF78607B685B68FB607B685A687B68A3
:10212C001B691900100005F003FB0B001A007B68FB
:10213C005A607B685B68FA689A4203D07B68180027
:10214C00FFF7DAFFBD4604B080BD80B582B000AFAA
:10215C0078607B68DB681800BD4602B080BD80B536
:10216C0082B000AF78607B689B681800BD4602B0F7
:10217C0080BD80B582B000AF78607B681800FFF737
:10218C00BBFF7B685B685A1C7B685A607B6859682C
:10219C007B681A69002391425B41DBB2002B02D0B1
:1021AC007B6800225A60BD4602B080BD80B586B007
:1021BC0000AFF860B9607A60FB68DB687A689A42B5
:1021CC0001D300231BE0FB689B68BA689A4201D3D9
:1021DC00002314E0FB685B687B61FB689B687A6892
:1021EC005A43BB68D218FB685A60FB685B687A6913
:1021FC009A4203D0FB681800FFF77EFF01231800FA
:10220C00BD4606B080BD80B582B000AF78600A00D4
:10221C00FB1C1A707B681800FFF778FF7B685A6903
:10222C007B685B68D318FA1C12781A707B681800EC
:10223C00FFF79FFF7B681800FFF75EFFBD4602B0FB
:10224C0080BD80B582B000AF786039603B681B7888
:10225C005BB2002B0AD03B685A1C3A6000229A569B
:10226C007B6811001800FFF7CEFFEFE7BD4602B008
:10227C0080BD80B584B000AFF860B9607A603B6017
:10228C007A68B968FB681800FFF790FF3A68FB683A
:10229C0011001800FFF7D5FFBD4604B080BD90B506
:1022AC0085B000AF78600A00BB1C1A80BB1C1C8870
:1022BC007B681800FFF749FF0200002394425B4142
:1022CC00DBB2002B26D1BB1C1C887B681800FFF7E7
:1022DC0046FF03006343BB600023FB607B68180070
:1022EC00FFF73DFF0100FA68002391425B41DBB22E
:1022FC00002B0BD07B685A69F968BB68CB18D318D4
:10230C0020221A70FB680133FB60E7E77B6818003A
:10231C00FFF7F2FEBD4605B090BD80B582B000AFB0
:10232C0078600A00FB1C1A707B68FA1C12781A760B
:10233C00BD4602B080BDF0B59FB000AFF860B9608B
:10234C007A60BB68180005F063F9020063239342BE
:10235C009B415B42DBB2002B01D0002312E07725BE
:10236C007C191026BA197968BB68180004F095F925
:10237C0003002370BA19FB6811001800FFF761FF06
:10238C007B191B781800BD461FB0F0BD80B586B018
:10239C0000AFF860B9607A601A00FB1C1A70002359
:1023AC007B61BB681B785BB2002B22D013217B189E
:1023BC00BA6812781A707A18FB1C127852B21B7811
:1023CC005BB29A4208D17B695A1C7A617A68D2183E
:1023DC001323FB1812781A701323FB1800229A5639
:1023EC00FB6811001800FFF70EFFBB680133BB60E0
:1023FC00D7E701231800BD4606B080BD80B582B07A
:10240C0000AF78600A00FB1C1A707B68FA1C12780B
:10241C001A74BD4602B080BD80B582B000AF786042
:10242C000A00FB1C1A707B68FA1C12785A717B68C4
:10243C005B79002B04D07B680221180000F006F8B1
:10244C007B685B791800BD4602B080BD80B582B058
:10245C0000AF78600A00FB1C1A707B68FA1C1278BB
:10246C009A717B689B79022B09D17B681A687B680F
:10247C001B681B6808331B68022110009847BD4677
:10248C0002B080BD80B582B000AF7860080011004A
:10249C00FB1C021C1A70BB1C0A1C1A70FB1C1A7841
:1024AC007B6811001800FFF7D1FFBB1C1A787B6802
:1024BC001100180000F003F8BD4602B080BD80B5D5
:1024CC0084B000AF78600A00FB1C1A707B68FA1CA1
:1024DC0012781A710F23FB187A6892791A707B683C
:1024EC005B79002B03D00F23FB1802221A700F23E9
:1024FC00FB181B78012B1DD0022B35D0002B34D1AF
:10250C007B681B79002B0AD07B681A687B681B6878
:10251C001B6808331B6800211000984725E07B6876
:10252C001A687B681B681B6808331B680421100041
:10253C0098471AE07B681B79002B0AD07B681A68D5
:10254C007B681B681B6808331B68042110009847C4
:10255C000BE07B681A687B681B681B6808331B6878
:10256C0000211000984700E0C046BD4604B080BD75
:10257C0080B584B000AF78607B68180000F046F935
:10258C00031E03D07B685B68FB6002E07B681B6802
:10259C00FB60FB681800BD4604B080BDB0B582B0CE
:1025AC0000AF78607B685B7C032B03D17B680122D6
:1025BC00DA7402E07B680022DA747B681800FFF79B
:1025CC00D7FF0400236808331D687B68180000F0EF
:1025DC004EF9030019002000A847BD4602B0B0BD5B
:1025EC0080B582B000AF78607B681800FEF743F8C6
:1025FC00031E07D07B681800FEF74CF8031E01D0B1
:10260C00012300E00023002B03D07B6803225A74C3
:10261C0016E07B681800FEF72EF8031E03D07B68CB
:10262C0001225A740CE07B681800FEF733F8031E85
:10263C0003D07B6802225A7402E07B6800225A7431
:10264C007B681800FFF7AAFF7B685B7C1800BD460F
:10265C0002B080BD80B582B000AF78607B68180096
:10266C00FFF7BEFF7B689B7C012B02D0022B28D08E
:10267C004FE07B68180000F004F9031E10D07B6853
:10268C009B6800211800FFF71AFF7B681800FFF702
:10269C006FFF020013681B680021100098474BE085
:1026AC007B681800FFF764FF020013681B680421A5
:1026BC00100098477B689B6801211800FFF7FFFE0C
:1026CC003AE07B68180000F008F9031E10D07B6814
:1026DC009B6800211800FFF7F2FE7B681800FFF7DB
:1026EC0047FF020013681B6801211000984723E084
:1026FC007B681800FFF73CFF020013681B6804217D
:10270C00100098477B689B6801211800FFF7D7FEE3
:10271C0012E07B6800229A747B681800FFF728FF90
:10272C00020013681B680421100098477B689B68A3
:10273C0001211800FFF7C3FEBD4602B080BD0000AA
:10274C0080B582B000AF78607B681B7C052B4AD8C3
:10275C009A002D4BD3181B689F467B681B68002181
:10276C001800FFF74BFE7B689B68002200211800C5
:10277C00FFF788FE44E07B681B6800211800FFF718
:10278C003DFE7B689B68002202211800FFF77AFE51
:10279C0036E07B681B6800211800FFF72FFE7B6872
:1027AC009B68002201211800FFF76CFE28E07B6873
:1027BC009B68002202211800FFF764FE7B681B68EF
:1027CC0001211800FFF71AFE1AE07B689B680022B3
:1027DC0002211800FFF756FE7B681B6800211800C9
:1027EC00FFF70CFE0CE07B681B6800211800FFF75C
:1027FC0005FE7B689B68002202211800FFF742FE51
:10280C00BD4602B080BDC0461878000880B582B0C5
:10281C0000AF78607B681800FEF78BFC0300013B6F
:10282C00012B01D8012300E000231800BD4602B0A3
:10283C0080BD80B582B000AF78607B68DB68C83340
:10284C001800FDF7B5FE03001800BD4602B080BDB0
:10285C0080B582B000AF78607B68DB68C03318004D
:10286C00FDF7A6FE03001800BD4602B080BD80B582
:10287C0082B000AF78607B68DB7C1800BD4602B08C
:10288C0080BD80B582B000AF78607B681800FDF722
:10289C00F2FE03001A0001235340DBB2002B17D0C9
:1028AC007B681800FFF7C5FF03001A000123534093
:1028BC00DBB2002B0CD07B681800FDF720FF030067
:1028CC001A0001235340DBB2002B01D0012300E09E
:1028DC0000231800BD4602B080BD80B582B000AFA9
:1028EC0078607B681800FDF7D5FE03001A00012301
:1028FC005340DBB2002B0CD07B681800FFF7A8FF0D
:10290C0003001A0001235340DBB2002B01D001233A
:10291C0000E000231800BD4602B080BD80B582B037
:10292C0000AF78607B6800229A747B681800FFF710
:10293C0091FE7B685B7C1800BD4602B080BD80B503
:10294C0082B000AF78600A00FB1C1A707B6818001C
:10295C00FFF7E4FF7B68FA1C12781A747B681B7C07
:10296C009BB219000320FFF7FDFA7B681800FFF7F4
:10297C00E7FEBD4602B080BD80B584B000AF02005A
:10298C00FB1D1A700F217B18FA1D12781A707B1818
:10299C007A181278013A1A707B181B785A425341F4
:1029AC00DBB2002B03D00F23FB1805221A700F2368
:1029BC00FB181B781800BD4604B080BD80B584B0F0
:1029CC0000AF0200FB1D1A700F217B18FA1D127844
:1029DC001A707B187A18127801321A707B181B78CF
:1029EC0005229A429B415B42DBB2002B03D00F23A2
:1029FC00FB1801221A700F23FB181B781800BD4618
:102A0C0004B080BD80B582B000AF78607B681B7C61
:102A1C00180000F005F803001800BD4602B080BD98
:102A2C0080B582B000AF0200FB1D1A70FB1D1B7835
:102A3C00052B0ED89A00094BD3181B689F46084BE0
:102A4C0008E0084B06E0084B04E0084B02E0084B9A
:102A5C0000E0084B1800BD4602B080BD7C78000831
:102A6C00307800083C780008487800085478000852
:102A7C00607800086C78000880B582B000AF786090
:102A8C000A00FB1C1A707B681B6818007B681B68AB
:102A9C001B6808331B68FA1C1278110098477B6876
:102AAC005B6818007B685B681B6808331B68FA1C42
:102ABC001278110098477B689A68FB1C1B781900E8
:102ACC001000FFF7A9FCFB1C1B78002B06D07B68C1
:102ADC001A7C7B6811001800FFF731FF01231800E6
:102AEC00BD4602B080BD80B584B000AF78600A00EE
:102AFC00FB1C1A707B681B791A007B681B889A4236
:102B0C002BDA7B681B790F203A18191C0B1CDB186D
:102B1C005B1813707B685B883A1812780721914018
:102B2C000A0092B2D24392B213409AB27B685A8096
:102B3C007B685A88FB1C1B78072119403B181B78B3
:102B4C0099400B009BB213439AB27B685A807B6806
:102B5C001B790133DAB27B681A71BD4604B080BDB3
:102B6C0080B584B000AF78600A00FB1C1A70FB1CA7
:102B7C001B787A681288934201DB2D232AE00F2000
:102B8C003918FB1C1B781A1C9218D3180B707B6815
:102B9C005B881A003B181B781A411300DAB20E201E
:102BAC003B1807210A401A703B181B78022B0AD0DD
:102BBC0002DC012B05D00CE0032B08D0042B04D035
:102BCC0007E0452306E0422304E03C2302E03E23D9
:102BDC0000E02D231800BD4604B080BD80B582B046
:102BEC0000AF78607B681B791A007B681B88D01754
:102BFC00D90F9A4248410300DBB21800BD4602B01F
:102C0C0080BD80B584B000AF78607B681800FFF79A
:102C1C00E5FF03001A0001235340DBB2002B01D067
:102C2C0000230CE00420FFF7FDF90300FB607B6838
:102C3C005A88FB689BB2D31A5A425341DBB2180034
:102C4C00BD4604B080BD80B582B000AF0200BB1D94
:102C5C001A80BB1D1B8819000420FFF783F9BD46A1
:102C6C0002B080BD80B582B000AF78607B68002276
:102C7C005A807B6800221A71BD4602B080BD80B5B7
:102C8C0082B000AF78607B685B881800FFF7DBFFD1
:102C9C00BD4602B080BD80B582B000AF78607B6865
:102CAC001800FFF79BFF031E09D07B681800FFF785
:102CBC00A8FF031E01D0022302E0012300E0002341
:102CCC001800BD4602B080BD80B582B000AF786000
:102CDC000A00FB1C1A70FB1C1B78002B06D0FB1C7B
:102CEC001A787B6811001800FFF7FDFE7B6818004E
:102CFC00FFF7D1FF03001800BD4602B080BDB0B590
:102D0C0084B000AF786039600F23FB1800221A7072
:102D1C000F23FB181B787A681288934213DA0F255D
:102D2C007B191B783A68D4187B191A787B681100C8
:102D3C001800FFF715FF030023707B191A787B1915
:102D4C0001321A70E4E7BD4604B0B0BD80B500AFE7
:102D5C0002231800BD4680BD80B500AF01231800CA
:102D6C00BD4680BD80B582B000AF78600A00FB1C08
:102D7C001A707B68FA1C12781A777B681B7F002B01
:102D8C0005D10D4B1B6800211800FFF775FE7B6801
:102D9C001B7F062B05D1084B1B6801211800FFF780
:102DAC006BFE7B682022002199547B68180000F090
:102DBC00C5FABD4602B080BD3400002080B582B09B
:102DCC0000AF78607B689B6A1800FDF719FF030061
:102DDC001800BD4602B080BD80B582B000AF7860EF
:102DEC007B681B68F8331800FDF7E2FB03001A0040
:102DFC0001235340DBB21800BD4602B080BD80B544
:102E0C0082B000AF78607B681B791800BD4602B0B9
:102E1C0080BD0000B0B584B000AF78607B685B68A3
:102E2C000F257C191800FFF75AF9030023707B1942
:102E3C001B78002B12D1FEF721FE03001800FFF7C0
:102E4C00BDFF03001A0001235340DBB2002B05D059
:102E5C007B681B7F012B01D0012300E00023002B9A
:102E6C0004D07B6801211800FFF77CFF7B681B7F77
:102E7C000E2B00D93DE29A00BF4BD3181B689F461E
:102E8C000F23FB181B78002B04D07B680121180042
:102E9C00FFF768FFFEF7F2FD03001800FEF7D2FD06
:102EAC0003001A0001235340DBB2002B00D119E2BE
:102EBC007B6801211800FFF755FF1AE20F23FB185E
:102ECC001B78032B0FD0042B13D0012B00D010E256
:102EDC007B680C331800FFF7C5FE7B6805211800D2
:102EEC00FFF740FF05E27B6802211800FFF73AFF6D
:102EFC00FFE17B6804211800FFF734FFF9E10F2391
:102F0C00FB181B78032B04D0042B08D0022B0CD0FD
:102F1C00EFE17B6803211800FFF724FFE9E17B68F0
:102F2C0001211800FFF71EFFE3E17B680121180067
:102F3C00FFF718FFDDE10F23FB181B78032B04D0E0
:102F4C00042B08D0022B0CD0D3E17B680421180091
:102F5C00FFF708FFCDE17B6802211800FFF702FFA5
:102F6C00C7E17B6801211800FFF7FCFEC1E10F23CC
:102F7C00FB181B78032B04D0042B08D0022B0CD08D
:102F8C00B7E17B6801211800FFF7ECFEB1E17B682B
:102F9C0003211800FFF7E6FEABE17B680121180066
:102FAC00FFF7E0FEA5E10F23FB181B78002B00D1E7
:102FBC009FE17B680C331A000C257C190F23FB183E
:102FCC001B7819001000FFF77FFE030023707B199C
:102FDC001B78012B08D0022B00D08AE17B680621DC
:102FEC001800FFF7BFFE84E17B6801211800FFF792
:102FFC00B9FE7EE10F23FB181B78022B17D002DCE5
:10300C00012B05D075E1032B1DD0042B15D070E1DD
:10301C005A4B1B681800FEF78CF803001A007B68EB
:10302C005A617B6807211800FFF79CFE61E17B6801
:10303C0001211800FFF796FE5BE17B680D2118005B
:10304C00FFF790FE55E17B6808211800FFF78AFE18
:10305C004FE10F23FB181B78022B1BD002DC012B3A
:10306C0005D046E1032B26D0042B19D041E17B6817
:10307C005A690D217B181A70404B1A687B181B7803
:10308C0019001000FFF75BFC7B6801211800FFF7AB
:10309C0069FE2EE17B6801211800FFF763FE28E131
:1030AC007B685B69DBB21800FFF766FC03001A0053
:1030BC007B685A611DE17B685B69DBB21800FFF726
:1030CC007DFC03001A007B685A6112E10F23FB1888
:1030DC001B78022B12D002DC012B05D009E1032B4B
:1030EC0018D0042B10D004E100210220FEF73AFF87
:1030FC007B6801211800FFF735FEFAE07B6801219F
:10310C001800FFF72FFEF4E07B6806211800FFF78C
:10311C0029FEEEE07B6809211800FFF723FEE8E0AA
:10312C000F23FB181B78022B0ED002DC012B05D0D1
:10313C00DFE0032B14D0042B0CD0DAE07B680A21DF
:10314C001800FFF70FFED4E07B6801211800FFF791
:10315C0009FECEE07B6808211800FFF703FEC8E0EB
:10316C007B680B211800FFF7FDFDC2E07B68012195
:10317C001800FFF7F7FDBCE094780008340000203D
:10318C000F23FB181B78022B13D002DC012B05D06C
:10319C00AFE0032B19D0042B11D0AAE07B680C33C1
:1031AC001800FFF75FFD7B680C211800FFF7DAFDB4
:1031BC009FE07B6801211800FFF7D4FD99E07B6844
:1031CC0009211800FFF7CEFD93E07B680D21180054
:1031DC00FFF7C8FD8DE07B680C331A000E257C19B7
:1031EC000F23FB181B7819001000FFF76DFD03006F
:1031FC0023707B191B78013B012B00D974E07B6891
:10320C000C331800FFF73BFD7B6801211800FFF71A
:10321C00A9FD69E00F23FB181B78022B1BD002DCE5
:10322C00012B05D065E0032B21D0042B19D060E0D5
:10323C000720FEF7F7FE02007B685A617B685B692A
:10324C00782B02D97B6801225A617B680E21180009
:10325C00FFF788FD4DE07B6801211800FFF782FD28
:10326C0047E07B680B211800FFF77CFD41E07B6891
:10327C0006211800FFF776FD3BE00F23FB181B78A7
:10328C00022B15D002DC012B05D032E0032B1FD012
:10329C00042B13D02DE07B685B699BB219000720CF
:1032AC00FEF760FE7B6801211800FFF75BFD20E054
:1032BC007B6801211800FFF755FD1AE07B685B69FC
:1032CC00002B13D07B685B695A1E7B685A6110E037
:1032DC007B685B69772B0BD87B685B695A1C7B68B6
:1032EC005A6106E0C04604E0C04602E0C04600E079
:1032FC00C0467B68180000F021F8BD4604B0B0BD94
:10330C0090B583B000AF0C4B1B68FC1D1800FFF789
:10331C0076FD03002370FB1D1B78012B02D0022BC2
:10332C0002D003E04F2302E05A2300E02D231800C3
:10333C00BD4603B090BDC0464800002090B587B094
:10334C0000AF78607B681B7F0E2B01D900F0B0FBBF
:10335C009A00D24BD3181B689F467B689868D04B59
:10336C0000220021FEF785FF7B689B68012200216B
:10337C001800FEF71BFF7B689C68FFF7E7FC030057
:10338C001A00C84B19002000FEF7D5FF7B689C681B
:10339C00FFF7E2FC03001A00C34B19002000FEF7F4
:1033AC00CAFF85E37B689B68002200211800FEF7AA
:1033BC00FDFE7B689C680220FEF734FE0200BB4BCE
:1033CC0019002000FEF7B7FF7B689B6801211800ED
:1033DC00FEF765FF7B689868B54B01220021FEF76C
:1033EC0048FF7B689C68B34B1B681800FFF70AFB0F
:1033FC00030019002000FEF724FF7B689B68AE4A8F
:10340C0011001800FEF71DFF7B689B6801220B2141
:10341C001800FEF7CBFE7B689C68FFF771FF03007A
:10342C0019002000FEF7EFFE7B689C68A14B1B681F
:10343C001800FDF73EF9031E01D0502300E02D23A8
:10344C0019002000FEF7DFFE7B689C68994B1B6817
:10345C001800FDF741F9031E01D0532300E02D2382
:10346C0019002000FEF7CFFE7B689C68914B1B680F
:10347C001800FFF7FCF9031E01D0412300E02D23B7
:10348C0019002000FEF7BFFE7B689C688B4B1B6805
:10349C001800FFF7A1FC031E01D0562300E02D23DA
:1034AC0019002000FEF7AFFE02E37B689868844B9E
:1034BC0000220021FEF7DDFE7B689B6801220021C3
:1034CC001800FEF773FE7B689B687E4A110018009B
:1034DC00FEF7B7FE7B689C687B4B1B68B03318000B
:1034EC00FDF766F8031E01D02D2300E02A231900F6
:1034FC002000FEF788FE7B689C68734B1B68B83312
:10350C001800FDF755F8031E01D02D2300E02A23E7
:10351C0019002000FEF777FE7B689C686A4B1B68DD
:10352C00C0331800FDF744F8031E01D02D2300E032
:10353C002A2319002000FEF766FE7B689C68624B0C
:10354C001B68C8331800FDF733F8031E01D02D2378
:10355C0000E02A2319002000FEF755FE7B689B68CB
:10356C00584A11001800FEF76CFE7B689C68564B9D
:10357C001B68D0331800FDF71BF8031E01D02D2358
:10358C0000E02A2319002000FEF73DFE7B689C68B2
:10359C004D4B1B68D8331800FDF70AF8031E01D0F9
:1035AC002D2300E02A2319002000FEF72CFE7B6857
:1035BC009C68454B1B68E0331800FCF7F9FF031EB1
:1035CC0001D02D2300E02A2319002000FEF71BFE5A
:1035DC007B689C683C4B1B68E8331800FCF7E8FFE1
:1035EC00031E01D02D2300E02A2319002000FEF732
:1035FC000AFE7B689B68334A11001800FEF721FE17
:10360C007B689C68304B1B68F0331800FCF7D0FFCC
:10361C00031E01D02D2300E02A2319002000FEF701
:10362C00F2FD7B689C68284B1B68F8331800FCF78C
:10363C00BFFF031E01D02D2300E02A231900200018
:10364C00FEF7E1FD7B689C681F4B1B680133FF3361
:10365C001800FCF7ADFF031E01D02D2300E02A2338
:10366C0019002000FEF7CFFD7B689C68164B1B6889
:10367C000933FF331800FCF79BFF031E01D02D23E9
:10368C0000E02A2319002000FEF7BDFD7B689B6833
:10369C000C4A11001800FEF7D4FD09E27C7A0008F0
:1036AC00D0780008E478000800790008F478000865
:1036BC0008790008340000200C790008480000202C
:1036CC001079000824790008200000207B68986895
:1036DC00D34B00220021FEF7CCFD7B689B680122B6
:1036EC0000211800FEF762FD7B689B68CD4A110033
:1036FC001800FEF7A6FD7B689C68CB4B1B68083353
:10370C001800FDF77DFA031E01D02D2300E02A23BB
:10371C0019002000FEF777FD7B689C68C24B1B6884
:10372C0010331800FDF76CFA031E01D02D2300E0B6
:10373C002A2319002000FEF766FD7B689C68BA4BB3
:10374C001B681800FDF75CFA031E01D02D2300E066
:10375C002A2319002000FEF756FD7B689C68B24BAB
:10376C001B6818331800FDF74BFA031E01D02D23EC
:10377C0000E02A2319002000FEF745FD7B689B68BA
:10378C00AA4A11001800FEF75CFD7B689C68A64BEA
:10379C001B6820331800FDF733FA031E01D02D23CC
:1037AC0000E02A2319002000FEF72DFD7B689B68A2
:1037BC009F4A11001800FEF744FD79E17B68986878
:1037CC009C4B00220021FEF754FD7B689B68012274
:1037DC0000211800FEF7EAFC7B689B68964A1100F2
:1037EC001800FEF72EFD7B689C688F4B1B6891338D
:1037FC00FF331800FCF7DCFE031E01D02D2300E084
:10380C002A2319002000FEF7FEFC7B689B688B4A7C
:10381C0011001800FEF715FD7B689C68824B1B6835
:10382C00A933FF331800FCF7C3FE031E01D02D2370
:10383C0000E02A2319002000FEF7E5FC7B689B685A
:10384C007F4A11001800FEF7FCFC7B689C68764BE5
:10385C001B68A133FF331800FCF7AAFE031E01D02E
:10386C002D2300E02A2319002000FEF7CCFC7B68F6
:10387C009B68744A11001800FEF7E3FC7B689C6897
:10388C00694B1B689933FF331800FCF791FE031E3C
:10389C0001D02D2300E02A2319002000FEF7B3FCF1
:1038AC0006E17B689868684B00220021FEF7E1FC7A
:1038BC007B680C3308243A1911001800FFF71FFA23
:1038CC007B689B68012200211800FEF76FFC7B6867
:1038DC0098683A195D492D23FEF758FDE8E07B689E
:1038EC0098685B4B00220021FEF7C3FC7B6898684C
:1038FC00584B01220021FEF7BCFCD9E07B6898688C
:10390C00554B00220021FEF7B4FC7B689B6801211B
:10391C001800FEF7C4FC7B689868504B012200210C
:10392C00FEF7A7FC7B689C687B685B69DBB21800C0
:10393C00FFF776F8030019002000FEF782FC7B6885
:10394C009B68474A11001800FEF77BFCB0E07B68CF
:10395C009868444B00220021FEF78BFC7B689B6827
:10396C00012200211800FEF721FC7B689B683E4A6F
:10397C0011001800FEF765FC9AE07B6898683B4BD9
:10398C0000220021FEF775FC7B689B680122002158
:10399C001800FEF70BFC7B689B68354A1100180079
:1039AC00FEF74FFC84E07B689868324B00220021C4
:1039BC00FEF75FFC7B6898682D4B01220021FEF717
:1039CC0058FC75E07B6898682B4B00220021FEF7B1
:1039DC0050FC7B680C3310243A1911001800FFF7C7
:1039EC008EF97B689B68012200211800FEF7DEFB34
:1039FC007B6898683A1915492D23FEF7C7FC57E0E8
:103A0C007B6898681D4B00220021FEF732FC7B6816
:103A1C009868174B01220021FEF72BFC48E0C046AA
:103A2C00287900083C79000820000020447900081F
:103A3C00247900084C790008607900086479000842
:103A4C00687900086C79000870790008847900089E
:103A5C0098790008AC790008C0790008D47900087E
:103A6C00D8790008DC790008F0790008047A00089D
:103A7C00187A00082C7A0008407A0008547A00085A
:103A8C007B6898680C4B00220021FEF7F2FB7B68E8
:103A9C009B68012200211800FEF788FB7B68986860
:103AAC007B685B691B041A0C044B1900FEF743FC82
:103ABC00BD4607B090BDC046547A0008687A00082D
:103ACC0080B584B000AF0200FB1D1A703B1D0A1CB0
:103ADC001A800E23FA18FB1D1B7811001800FEF734
:103AEC006BFA03001A0001235340DBB2002B01D008
:103AFC00002316E00E23FB181A883B1D1B88D318D5
:103B0C009AB2FB1D1B7811001800FEF72BFA03006C
:103B1C001A0001235340DBB2002B01D0002300E03C
:103B2C0001231800BD4604B080BD90B585B000AF30
:103B3C0078607B68DB6810331C007B681800FCF72E
:103B4C009AFD03001A0001235340DBB21900200038
:103B5C00FDF743F87B68DB6808331C007B681800B2
:103B6C00FCF798FD03001A0001235340DBB2190047
:103B7C002000FDF732F87B68DB6818331C007B688B
:103B8C001800FEF774FE03001A0001235340DBB249
:103B9C0019002000FDF721F87B68DB681C007B68AE
:103BAC00DB68E8331800FCF703FD03001900200064
:103BBC00FDF713F80F23FB1800221A707B6818000E
:103BCC00FCF777FD031E03D00F23FB1801221A709C
:103BDC007B681800FCF780FD031E0CD07B68180076
:103BEC00FCF758FD03001A0001235340DBB2002BF5
:103BFC0001D0012300E00023002B03D00F23FB187E
:103C0C0001221A707B68DB6820331A000F23FB1823
:103C1C001B7819001000FCF7E0FFBD4605B090BD05
:103C2C0080B582B000AF78600A00FB1C1A707B680C
:103C3C00DB6828331A00FB1C1B7819001000FCF7FA
:103C4C00CCFFBD4602B080BDB0B584B000AF78608B
:103C5C007B681800FEF78CFC0200136804331B68A9
:103C6C000F257C1910009847030023707B191B78D3
:103C7C00012B04D00F23FB181B78002B01D101233F
:103C8C0000E000231800BD4604B0B0BD80B582B082
:103C9C0000AF78607B689B7C012B03D00121022054
:103CAC00FFF70EFF7B6801229A747B681800FEF701
:103CBC00D1FC7B685B7C1800BD4602B080BD80B532
:103CCC0082B000AF78607B689B7C022B03D0012113
:103CDC000220FFF7F5FE7B6802229A747B681800BD
:103CEC00FEF7B8FC7B685B7C1800BD4602B080BD5B
:103CFC0080B582B000AF78607B681800FEF7AAFC34
:103D0C007B681800FFF711FFBD4602B080BD80B57F
:103D1C0082B000AF78607B681B7C1800BD4602B097
:103D2C0080BD000080B582B000AF78601C4B1B6872
:103D3C001800FEF7A6FD03001A0001235340DBB266
:103D4C00002B01D0002326E07B681B68D0331800C1
:103D5C00FCF72EFC03001A0001235340DBB2002BAE
:103D6C0016D17B681B68E0331800FCF721FC0300BC
:103D7C001A0001235340DBB2002B09D1FDF77EFE64
:103D8C0003005B691800FFF7C2FF0300012B01D190
:103D9C00012300E000231800BD4602B080BDC046E0
:103DAC003400002080B582B000AF7860194B1B68DE
:103DBC001800FEF792FD03001A0001235340DBB2FA
:103DCC00002B01D0002320E07B681B68D83318003F
:103DDC00FCF7EEFB03001A0001235340DBB2002B6F
:103DEC0010D10C4B1B681800FCF789FC031E09D181
:103DFC00FDF744FE03005B691800FFF788FF030022
:103E0C00022B01D1012300E000231800BD4602B0B3
:103E1C0080BDC0463400002090B585B000AF7860FE
:103E2C00844B1B681800FFF763FF7B681800FFF7D3
:103E3C0079FF031E05D17B681800FFF7B3FF031E43
:103E4C0001D0012200E000220E23FB181A707B68BF
:103E5C001800FEF7C1FF03001A0001235340DBB228
:103E6C00002B02D07B6800221A73724B1B6818005F
:103E7C00FEF7CCFC031E0CD07B681800FEF7ACFFE1
:103E8C00031E06D00E23FB181B78002B01D0012239
:103E9C0000E000220D243B191A707B681B68483324
:103EAC001A003B191B7819001000FCF796FE7B6872
:103EBC001B6840331A003B191B7819001000FCF7E3
:103ECC008CFE0F23FB1800221A700E23FB181B7894
:103EDC00002B00D187E07B689B68352B00D2352303
:103EEC00353B1A007B689A607B689B68002B00D07E
:103EFC0085E07B681800FFF755FF031E2FD07B6809
:103F0C001B79022B21D07B6802221A71494B1B684A
:103F1C001800FCF7F4FB031E0DD00720FEF782F807
:103F2C00020013005B019B1A9B009B18DB00F5330E
:103F3C00FF331A0001E0FA235A007B689A603D4B6C
:103F4C001B681800FEF7EAFC59E03A4B1B68180096
:103F5C00FFF7B5FE0F23FB1801221A704FE07B68A8
:103F6C001800FFF7DFFE031E30D07B681B79012B96
:103F7C0022D07B681800FEF72FFF031E0ED07B6843
:103F8C001B7B002B03D07B6800221A7109E07B6835
:103F9C0001221A737B6801221A7102E07B680122EC
:103FAC001A717B68FA2252009A60224B1B68180027
:103FBC00FEF7B4FCC04622E01E4B1B681800FFF74E
:103FCC0065FE0F23FB1801221A7018E07B68002293
:103FDC001A71184B1B681800FEF7A0FC7B68FA22BC
:103FEC0052009A600BE07B6800221A71114B1B681F
:103FFC001800FEF793FC7B68FA2252009A600E4B75
:10400C00BB607B689B680C4A934202D97B680A4A66
:10401C009A60084B1A680F23FB181B7819001000C4
:10402C00FFF7FEFD7B68180000F008F8BD4605B0F0
:10403C0090BDC04634000020B4D6010080B582B0DB
:10404C0000AF7860344B1B681800FCF732FB031E82
:10405C0008D07B681B686133FF3304211800FDF71F
:10406C00D1FA17E02C4B1B681800FCF735FB031E2C
:10407C0008D07B681B686133FF3302211800FDF701
:10408C00C1FA07E07B681B686133FF33012118001C
:10409C00FDF7B8FA204B1B681800FEF7E8FB031E6F
:1040AC0008D07B681B687133FF3302211800FDF7C1
:1040BC00A9FA07E07B681B687133FF3301211800F4
:1040CC00FDF7A0FA7B681800FEF786FE031E08D0E9
:1040DC007B681B688133FF3305211800FDF792FACA
:1040EC0017E00D4B1B681800FFF7AEFD031E08D040
:1040FC007B681B688133FF3302211800FDF782FABD
:10410C0007E07B681B688133FF3300211800FDF743
:10411C0079FABD4602B080BD3400002080B500AFF6
:10412C00034B1B681800FFF777FEBD4680BDC046E9
:10413C004800002080B582B000AF786039607B68A1
:10414C00012B09D13B68064A934205D1054A064822
:10415C003523022101F05AFDBD4602B080BDC04698
:10416C00FFFF0000294100081401002080B500AFBA
:10417C00034B19000120FFF7DDFFBD4680BDC04693
:10418C00FFFF000080B582B000AF0200FB1D1A706B
:10419C00034BFA1D12781A70BD4602B080BDC046A2
:1041AC004C00002080B582B000AF7860034A7B6879
:1041BC001A607B681800BD4602B080BD487B0008C1
:1041CC0080B584B000AF78600A00FB1C1A707B6865
:1041DC001A68FB1C1B785B00DA401300FB60FB6861
:1041EC00DBB203221340DBB21800BD4604B080BD25
:1041FC0080B584B000AF78600A00FB1C1A707B6835
:10420C00DA68FB1C1B785B00DA401300FB60FB6870
:10421C00DBB203221340DBB21800BD4604B080BDF4
:10422C0080B584B000AF78600A00FB1C1A707B6804
:10423C009A68FB1C1B785B00DA401300FB60FB6880
:10424C00DBB203221340DBB21800BD4604B080BDC4
:10425C0080B584B000AF78600A00FB1C1A707B68D4
:10426C009B889BB21A00FB1C1B781A411300FB6045
:10427C00FB68DBB201221340DBB21800BD4604B070
:10428C0080BDB0B584B000AFF86008007A6019004A
:10429C000B243B19021C1A700A257B190A1C1A7074
:1042AC007B191A787B6811001800FFF789FF03004F
:1042BC001A003B191978FB681800FCF7A9FA7B194E
:1042CC001A787B6811001800FFF7C2FF03001A0070
:1042DC003B191978FB681800FCF710FB7B191A784E
:1042EC007B6811001800FFF783FF03001A003B19CD
:1042FC001978FB681800FCF7DAFA7B191A787B68D6
:10430C0011001800FFF78CFF03001A003B191978F5
:10431C00FB681800FCF7A3FABD4604B0B0BD80B52D
:10432C0082B000AF786039607B6818687B68197957
:10433C003B681A683B681B79FFF7A3FFBD4602B0C8
:10434C0080BD80B582B000AF02F0BEF901F0B0FCC8
:10435C0003001A00FB1D043A51424A411A7002F044
:10436C00C9F9FB1D1B781800BD4602B080BD80B595
:10437C0082B000AF78607B685B791800BD4602B0F4
:10438C0080BD80B582B000AF78600A00FB1C1A704B
:10439C007B68FA1C12781A717B681B79002B06D08B
:1043AC007B681B681B687A68022110009847012300
:1043BC001800BD4602B080BD80B582B000AF7860F9
:1043CC00034A7B681A607B681800BD4602B080BD4A
:1043DC002C7B000880B582B000AF7860064A7B6801
:1043EC001A607B6801221A717B6802225A717B6801
:1043FC001800BD4602B080BD2C7B000880B584B08F
:10440C0000AFF860B9607A60FB681800FFF7E2FF54
:10441C00064AFB681A60FB68BA689A60FB687A689F
:10442C00DA60FB681800BD4604B080BD107B000844
:10443C0080B582B000AF78607B689B681800FDF790
:10444C00D2F87B68DB681800FDF7CDF8BD4602B0EA
:10445C0080BD80B582B000AF78600A00FB1C1A707A
:10446C007B681B79002B02D0FB1C02221A707B6824
:10447C00FA1C12785A717B685B79002B02D0012BE5
:10448C000BD015E07B689B681800FDF7ACF87B68D7
:10449C00DB681800FDF798F814E07B68DB681800FF
:1044AC00FDF7A1F87B689B681800FDF78DF809E013
:1044BC007B689B681800FDF796F87B68DB68180032
:1044CC00FDF791F8BD4602B080BD000080B582B00A
:1044DC0000AF78607B68084909221800FDF79CFB47
:1044EC007B68083304490B221800FDF795FB7B68A9
:1044FC001800BD4602B080BD0010004880B582B0E7
:10450C0000AF7860034A7B681A607B681800BD4670
:10451C0002B080BDD077000880B582B000AF786063
:10452C007B681800FFF7EAFF184A7B681A607B6803
:10453C00043310220021180003F000F97B680433C7
:10454C001800FFF7C3FF7B68143318009023DB05BA
:10455C000F221900FDF760FB7B6800229A837B68B1
:10456C0000221A627B6800225A627B682822022190
:10457C0099547B682922002199547B680022DA62C5
:10458C007B681800BD4602B080BDC046B0770008FD
:10459C0080B582B000AF78600A00FB1C1A707B6893
:1045AC00FA1C12785A757B685B7D022B05D0032BA5
:1045BC0056D0012B00D1A3E0ADE07B681B7D012B15
:1045CC003BD0032B02D0002B24D0BAE07B689B6835
:1045DC001800FCF715FB03001A0001235340DBB253
:1045EC00002B04D07B685B681800FCF7EDFF7B6840
:1045FC001B691800FCF704FB03001A00012353404D
:10460C00DBB2002B00D191E07B68DB681800FCF773
:10461C00DBFF96E07B689B681800FCF7F1FA03005F
:10462C001A0001235340DBB2002B00D180E07B68E1
:10463C005B681800FCF7C8FF83E07B681B691800F7
:10464C00FCF7DEFA03001A0001235340DBB2002B07
:10465C0000D16FE07B68DB681800FCF7B5FF70E0F9
:10466C007B681B7D012B39D0042B02D0002B23D06F
:10467C0067E07B685B681800FCF7C2FA03001A005D
:10468C0001235340DBB2002B04D07B689B681800DD
:10469C00FCF79AFF7B68DB681800FCF7B1FA0300A3
:1046AC001A0001235340DBB2002B45D07B681B69F9
:1046BC001800FCF789FF44E07B68DB681800FCF706
:1046CC009FFA03001A0001235340DBB2002B35D0B4
:1046DC007B681B691800FCF777FF32E07B685B682E
:1046EC001800FCF78DFA03001A0001235340DBB2CB
:1046FC00002B25D07B689B681800FCF765FF20E039
:10470C007B685B681800FCF76EFF7B68DB68180041
:10471C00FCF769FF15E07B689B681800FCF763FFEA
:10472C007B681B691800FCF75EFF0AE0C04608E0D6
:10473C00C04606E0C04604E0C04602E0C04600E0C9
:10474C00C046BD4602B080BD80B584B000AFF860F5
:10475C00B9607A603B60FB681800FFF7CFFE0E4A29
:10476C00FB681A60FB6804221A75FB6800225A75F4
:10477C00FB6800229A61FB68BA685A60FB687A6829
:10478C009A60FB683A68DA60FB68BA691A61FB6880
:10479C001800BD4604B080BDF07A000880B584B026
:1047AC0002AF78607B6858680223009300230022D4
:1047BC000121FCF736FA7B685B681800FCF713FFE5
:1047CC007B689A687B685B6819001000FFF7A7FD8F
:1047DC007B689B681800FCF706FF7B68DA687B68CF
:1047EC005B6819001000FFF79AFD7B68DB68180006
:1047FC00FCF7F9FE7B681A697B685B68190010008E
:10480C00FFF78DFD7B681B691800FCF7ECFE7B68DD
:10481C001B6808331B687A680221100098477B6874
:10482C0000211800FFF7B4FEBD4602B080BD80B574
:10483C0082B000AF78600A00FB1C1A707B681B7D8D
:10484C00FA1C12789A4208D07B68FA1C12781A75F6
:10485C007B6800211800FFF79BFEBD4602B080BDAF
:10486C0080B582B000AF78607B681B7D1800BD46B8
:10487C0002B080BD80B584B000AF78607B689B6966
:10488C005A1C7B689A617B689B69042B30D97B68C6
:10489C0000229A610F217B187A68527D1A707B185E
:1048AC001B78012B0ED002DC002B05D016E0022B5E
:1048BC000ED0032B1BD011E07B6801211800FFF7F1
:1048CC0067FE15E07B6802211800FFF761FE0FE020
:1048DC007B6803211800FFF75BFE09E07B681B680F
:1048EC0008331B687A6802211000984700E0C04624
:1048FC00BD4604B080BD000080B584B000AFF86048
:10490C00B9607A60FB681800FFF764FD084AFB6821
:10491C001A60FB6800221A74FB68BA689A60FB681C
:10492C007A68DA60FB681800BD4604B080BDC046EA
:10493C00D47A000880B582B000AF78607B689A6842
:10494C007B689B681B6814331B68100098477B6856
:10495C00DA687B68DB681B6814331B6810009847A7
:10496C00BD4602B080BD80B582B000AF78600A0051
:10497C00FB1C1A707B681B79002B02D0FB1C0222DB
:10498C001A707B68FA1C12785A717B681B7C002B9E
:10499C0045D07B685B79002B02D0012B15D029E028
:1049AC007B689A687B689B681B6808331B680021CE
:1049BC00100098477B68DA687B68DB681B680833F3
:1049CC001B680121100098476CE07B689A687B6833
:1049DC009B681B6808331B680121100098477B6893
:1049EC00DA687B68DB681B6808331B6801211000E0
:1049FC00984757E07B689A687B689B681B6808330C
:104A0C001B680421100098477B68DA687B68DB68B8
:104A1C001B6808331B6804211000984742E07B6830
:104A2C005B79012B13D002DC002B05D030E0032B7B
:104A3C0018D0042B21D02BE07B68DA687B68DB680C
:104A4C001B6808331B680021100098472AE07B681C
:104A5C00DA687B68DB681B6808331B68012110006F
:104A6C0098471FE07B68DA687B68DB681B68083353
:104A7C001B6803211000984714E07B68DA687B6898
:104A8C00DB681B6808331B6804211000984709E099
:104A9C007B68DA687B68DB681B6808331B6802215B
:104AAC0010009847BD4602B080BD80B582B000AF03
:104ABC00786039607B6800221A717B6801225A7118
:104ACC007B6802229A717B683A681A607B681800CE
:104ADC00BD4602B080BD80B582B000AF78607B6807
:104AEC001A687B681B681B6814331B681000984796
:104AFC007B6801211800FDF78FFCBD4602B080BD1C
:104B0C0080B582B000AF78607B6800225A737B68F6
:104B1C0001221A737B6800229A60BD4602B080BDE8
:104B2C0080B584B000AFF860B960FB1D1A70F868EE
:104B3C00FB1D1A78BB681900FDF76EF8FB681800AE
:104B4C00FFF7DEFFFB681800BD4604B080BD80B5E2
:104B5C0084B002AF786008001100FB1C021C1A70B4
:104B6C00BB1C0A1C1A707B68FA1C12785A737B687F
:104B7C00BA1C12781A737B6800229A60786800233A
:104B8C000093002300220121FCF74BF8BD4602B034
:104B9C0080BD000080B586B002AF78608C4B5A693E
:104BAC008B4BFC21C9030A435A61894B5B69FB603F
:104BBC00FB68786800230093002300220121FCF796
:104BCC0030F87B6808337A6811001800FFF7A7FBF0
:104BDC007B6810337A6811001800FFF7A0FB7B6824
:104BEC0018337A6811001800FFF799FB7B682033A3
:104BFC007A6811001800FFF792FB7B6828337A68FB
:104C0C0011001800FFF78BFB7B6830337A681100BA
:104C1C001800FFF784FB7B6838337A6811001800A2
:104C2C00FFF77DFB7B6840337A6811001800FFF7B3
:104C3C0076FB7B6848337A6811001800FFF76FFB2E
:104C4C007B6890331800002300930123012200217C
:104C5C00FBF7E7FF7B6898331A007B6890331900E9
:104C6C001000FFF75CFB7B68A0331A007B68903365
:104C7C0019001000FFF753FB7B68A8331A007B6800
:104C8C00903319001000FFF74AFB7B68B0331A0011
:104C9C007B68903319001000FFF741FB7B68B83339
:104CAC001A007B68903319001000FFF738FB7B6803
:104CBC00C0331A007B68903319001000FFF72FFBEC
:104CCC007B68C8331A007B68903319001000FFF71B
:104CDC0026FB7B68D0331A007B68903319001000D8
:104CEC00FFF71DFB7B68D8331A007B6890331900E3
:104CFC001000FFF714FB7B68E0331A007B689033DD
:104D0C0019001000FFF70BFB7B68E8331A007B6877
:104D1C00903319001000FFF702FB7B68F0331A0088
:104D2C007B68903319001000FFF7F9FA7B68F833B1
:104D3C001A007B68903319001000FFF7F0FA7B68BB
:104D4C005A1CFF327B68903319001000FFF7E7FA0A
:104D5C007B680933FF331A007B689033190010000D
:104D6C00FFF7DDFA7B689133FF331A007B689033D1
:104D7C0019001000FFF7D3FA7B689933FF331A0040
:104D8C007B68903319001000FFF7C9FA7B68A133D8
:104D9C00FF331A007B68903319001000FFF7BFFA3D
:104DAC007B68A933FF331A007B689033190010001D
:104DBC00FFF7B5FA7B68B133FF3318000323009378
:104DCC00012301220021FBF72CFFBD4604B080BD5E
:104DDC000010024080B584B000AFF860B9607A6012
:104DEC003B60FB680022DA60FB6800221A74FB68E7
:104DFC0000225A74FB6800229A74FB680022DA7451
:104E0C00FB68BA681A60FB687A685A60FB683A6893
:104E1C009A60FB681800BD4604B080BD80B582B0B6
:104E2C0000AF7860114B1A687B68DA607B681B688E
:104E3C001800FFF77FFD7B685B681800FFF7F8FA36
:104E4C007B689B681800FFF746FE0320FDF7EAF825
:104E5C000300DAB27B681A747B681800FDF770FCEB
:104E6C0001231800BD4602B080BDC04620000020C2
:104E7C0080B586B000AFF860B9607A603B60FB68C3
:104E8C000433F9680422180000F064FDFB68BA686A
:104E9C00DA61FB687A681A62FB683A685A62FB68E6
:104EAC003A6A9A621623FB1800221A801623FB1802
:104EBC001B88032B0BD816203B181B88FA68002183
:104ECC00D1543B181A883B1801321A80EEE7FB6864
:104EDC001800BD4606B080BD80B584B002AF7860C6
:104EEC007B68D86900230093012301220021FBF782
:104EFC0098FE7B681A6A7B68DB6919001000FFF763
:104F0C000EFA7B685A6A7B68DB6919001000FFF7A0
:104F1C0006FA7B689A6A7B68DB6919001000FFF758
:104F2C00FEF9BD4602B080BD80B584B000AF78609C
:104F3C000023FB607B681B69FA689A4209D87B687E
:104F4C005A69FB68D31820221A70FB680133FB6086
:104F5C00F0E77B681800FDF7CFF8BD4604B080BDC4
:104F6C0080B582B000AF78607B6800225A807B6885
:104F7C0005221A807B6800221A717B681800BD46D6
:104F8C0002B080BD80B584B000AF78600420FDF71E
:104F9C0049F802000E217B181A807B181B88002B05
:104FAC0005D00E23FB181B88064A934203D1064BEF
:104FBC001800FDF748FE7B681800FDF753FEBD4650
:104FCC0004B080BDFFFF00001915000080B584B04F
:104FDC0000AFF860B9607A603B60FB68BA681A6031
:104FEC00FB687A685A60FB683A689A60FB680C3315
:104FFC001800FFF7C7FFFB6800221A77BD4604B004
:10500C0080BD000080B582B000AF7860034A7B6839
:10501C001A607B681800BD4602B080BD487B000852
:10502C0080B582B000AF78607B681800FFF7EAFFAC
:10503C000C4A7B681A607B6800225A607B680022ED
:10504C009A607B680022DA607B6800221A617B68B8
:10505C0000225A617B6800221A767B681800BD46D4
:10506C0002B080BDC07A000880B582B000AF786015
:10507C00054A7B681A607B681800FFF793F87B6819
:10508C001800BD4602B080BDC07A000880B582B061
:10509C0000AF78607B681800FFF7E6FF7B681C2187
:1050AC00180002F059FA7B681800BD4602B080BDAA
:1050BC0080B582B000AF7860BD4602B080BD80B5CF
:1050CC0082B000AF78607B685B681800BD4602B0A8
:1050DC0080BD80B582B000AF78607B681B6918001A
:1050EC00BD4602B080BD80B584B000AFF860B96039
:1050FC007A603B60FB68BA681A60FB687A685A6031
:10510C00FB683A689A60FB68BA69DA60FB6804224B
:10511C001A74FB681800BD4604B080BD80B584B01D
:10512C0000AFF860B9607A603B60FB68BA689A605F
:10513C00BB691800FFF7C3FF0200FB68DA60FB686D
:10514C007A681A61FB683A685A61BB691800FFF704
:10515C00C0FF0200FB689A62FB683A6ADA61FB687E
:10516C007A6A1A62FB68BA6A5A62FB681B69180091
:10517C00FFF7B2FEFB68FA699A61FB689869FB68F5
:10518C009968FB681A69FB68DB68FFF71FFFFB680F
:10519C00DB69002200211800FFF7D9FCFB681B6AB1
:1051AC00002200211800FFF7D2FCFB685B6A00228A
:1051BC0000211800FFF7CBFCBD4604B080BD0000F9
:1051CC0080B582B000AF7860064B1A687B681A60B5
:1051DC00054B1B6800211800FDF74EFCBD4602B0C4
:1051EC0080BDC046200000203400002080B582B075
:1051FC0000AF78607B68CC4909221800FCF70CFDE5
:10520C007B680833C84903221800FCF705FD7B684E
:10521C001033C54902221800FCF7FEFC7B681833DA
:10522C00C24905221800FCF7F7FC7B682033BF4904
:10523C0004221800FCF7F0FC7B682833180090233C
:10524C00DB050B221900FCF7E7FC7B683033B8490F
:10525C0006221800FCF7E0FC7B683833B4490922BD
:10526C001800FCF7D9FC7B684033B14907221800C1
:10527C00FCF7D2FC7B68483318009023DB0508222E
:10528C001900FCF7C9FC7B685033AA490F2218009F
:10529C00FCF7C2FC7B685833A6490E221800FCF7B9
:1052AC00BBFC7B686033A14909221800FCF7B4FCF5
:1052BC007B6868339D490B221800FCF7ADFC7B68BA
:1052CC0070339C490D221800FCF7A6FC7B687833E0
:1052DC0098490C221800FCF79FFC7B68803393499B
:1052EC0008221800FCF798FC7B6888338F490A2247
:1052FC001800FCF791FC7B6890338D490422180050
:10530C00FCF78AFC7B6898338B4900221800FCF769
:10531C0083FC7B68A033884901221800FCF77CFCD5
:10532C007B68A833844902221800FCF775FC7B6863
:10533C00B03381490F221800FCF76EFC7B68B83340
:10534C007D490E221800FCF767FC7B68C0337A4954
:10535C000D221800FCF760FC7B68C83376490C22E0
:10536C001800FCF759FC7B68D03370490F221800E9
:10537C00FCF752FC7B68D8336C490E221800FCF702
:10538C004BFC7B68E03369490D221800FCF744FCA8
:10539C007B68E83365490C221800FCF73DFC7B6800
:1053AC00F03318009023DB0507221900FCF734FCBE
:1053BC007B68F83318009023DB0506221900FCF7F4
:1053CC002BFC7B68581CFF309023DB050522190051
:1053DC00FCF722FC7B680933FF3318009023DB05B4
:1053EC0004221900FCF718FC7B681133FF33504979
:1053FC0005221800FCF710FC7B681933FF334B496E
:10540C0002221800FCF708FC7B682133FF331800DC
:10541C009023DB050C221900FCF7FEFB7B6829337B
:10542C00FF33454906221800FCF7F6FB7B68313345
:10543C00FF33414907221800FCF7EEFB7B68393338
:10544C00FF333C4904221800FCF7E6FB7B68413330
:10545C00FF33384905221800FCF7DEFB7B68493323
:10546C00FF33344906221800FCF7D6FB7B68513316
:10547C00FF3331490A221800FCF7CEFB7B68593305
:10548C00FF332D490B221800FCF7C6FB7B686133F8
:10549C00FF3318009023DB0500221900FFF740FBB7
:1054AC007B687133FF3318009023DB050122190050
:1054BC00FFF736FB7B688133FF3318009023DB0545
:1054CC0002221900FFF72CFB7B689133FF3319493B
:1054DC0008221800FCF7A0FB7B689933FF331549B1
:1054EC0009221800FCF798FB7B68A133FF331149A4
:1054FC000A221800FCF790FB7B68A933FF330D4997
:10550C000B221800FCF788FB7B68B133FF331800C3
:10551C009023DB050F221900FCF77EFB7B6818003B
:10552C00BD4602B080BDC0460014004800100048C3
:10553C0000080048000C00480004004880B582B008
:10554C0000AF78607B680C331800FFF709FD7B68AF
:10555C0000225A617B680022DA837B6820220021BA
:10556C0099547B681800BD4602B080BD80B500AF71
:10557C00044B1800FFF77EF9034B1800FBF7FAFEFB
:10558C00BD4680BD200300203C030020F0B589B04F
:10559C0006AF0120FEF7F6FDFCF770FC3C4B1B68D8
:1055AC001800FFF7F7FA6420FCF786FBFEF7C9FE3C
:1055BC00384B394A1A60374B6422DA60344B1B681B
:1055CC005933FF331A00334B5A60314B1B6851333C
:1055DC00FF331A002F4B9A60304B1B682D4A110079
:1055EC00180001F069FA2D4B1968294B1B68193307
:1055FC00FF331A00264B1B681133FF33284801F088
:10560C00B5FDFCF73BFA03007B60264B1C68204B76
:10561C001B686133FF331A001D4B1B687133FF335A
:10562C0019001B4B1B688133FF331F4E1F4D7868CD
:10563C000493039102921E4B0193194B0093330078
:10564C002A002100FFF76AFD7B68DB681800FFF772
:10565C006BFC7B68DB6800211800FCF75EFE114BCD
:10566C001B681800FFF7DAFB124B1B681800FFF7DA
:10567C00A7FD7B689B6900211800FDF773FB0020D8
:10568C00FEF780FDFCF72AFC00F08CFAFAE7C04626
:10569C002000002024000020005800409803002027
:1056AC009C030020340000200C030020E0020020AA
:1056BC00CC0300204800002080B582B000AF786099
:1056CC00054A7B681A607B681800FEF775FE7B68DC
:1056DC001800BD4602B080BDD47A000880B582B0F7
:1056EC0000AF78607B681800FFF7E6FF7B68142139
:1056FC00180001F031FF7B681800BD4602B080BD78
:10570C0080B582B000AF7860054A7B681A607B6810
:10571C001800FBF7B7FA7B681800BD4602B080BDD5
:10572C00F07A000880B582B000AF78607B68180012
:10573C00FFF7E6FF7B681C21180001F00DFF7B686A
:10574C001800BD4602B080BD80B582B000AF786055
:10575C00054A7B681A607B681800FEF72DFE7B6893
:10576C001800BD4602B080BD107B000880B582B029
:10577C0000AF78607B681800FFF7E6FF7B681021AC
:10578C00180001F0E9FE7B681800BD4602B080BD30
:10579C0090B585B002AF786039607B68012B6FD112
:1057AC003B68464A93426BD1454B1800DC235B00A7
:1057BC001A00002101F0C2FF414B1800FFF716FD43
:1057CC00404C414A41494248424B00932300FFF769
:1057DC004FFB414B1B68A933FF3319003E4B1B6831
:1057EC00A133FF331A003C4B1B689933FF331C0069
:1057FC00394B1B689133FF33384800932300FFF774
:10580C0072FC374C374A38493848394B00932300DF
:10581C00FEF79AFF374B1800FEF77EFE334A364BE5
:10582C0011001800FFF741F9324A3049334B180088
:10583C00FFF762F8324A3349334B1800FEF7DEFDAE
:10584C0001F032F90200314B1A60314B1800FFF7AE
:10585C00E7FB294B2C4A29492E48FFF7BBFA2E4B64
:10586C00180024231A00002101F068FF2A4B1800AD
:10587C00FFF764FE294A2A480123022100F0C6F9E9
:10588C007B68002B17D13B680C4A934213D1204BF9
:10589C001800FFF7E9FB1C4B1800FFF755FF174BDF
:1058AC001800FFF709FF134B1800FBF769FE0F4BAD
:1058BC001800FFF725FFBD4603B090BDFFFF0000A9
:1058CC0028010020C8010020C0010020B8010020E0
:1058DC00E0020020D0010020200000200C0300205A
:1058EC008001002098010020780100202003002076
:1058FC00A00100203C0300206C0300207403002056
:10590C00580100206001002088030020980300202B
:10591C009C030020B8030020CC030020795500081C
:10592C00F003002080B500AF034B19000120FFF7F6
:10593C002FFFBD4680BDC046FFFF000080B500AF05
:10594C00034B19000020FFF723FFBD4680BDC04666
:10595C00FFFF000080B584B000AFF860B9607A60DA
:10596C00FB680B4A1A61FB68094A9A82FB687A68E1
:10597C001A60FB68BA68DA60FB6800229A60FB6800
:10598C0000225A60FB681800BD4604B080BDC046BA
:10599C0000FFFFFF80B584B000AF78600A00FB1CED
:1059AC001A707B685B68FB607B689B68BB60FB68FC
:1059BC000133BA689A4201D100231EE0BB68002B68
:1059CC0007D17B681B68013BFA689A4201D100231E
:1059DC0013E07B68DA68FB68591CF960D318FA1C71
:1059EC0012781A707B681B68FA689A4201D2FA68BE
:1059FC0000E000227B685A6001231800BD4604B009
:105A0C0080BD80B586B000AF78607B689B687B6199
:105A1C007B685B683B617A693B699A4202D17B681F
:105A2C009B8A17E07B68DA687B69591C7961D2180C
:105A3C000F23FB1812781A707B681B687A699A42DC
:105A4C0001D27A6900E000227B689A600F23FB1870
:105A5C001B789BB21800BD4606B080BD80B584B0E3
:105A6C0000AF786039603B68002B01D1002323E044
:105A7C000F23FB1801221A703B681800FCF7FCFA84
:105A8C00031E16D03B681800FFF7BBFF0300DAB209
:105A9C007B6811001800FFF77DFF03001A0001233B
:105AAC005340DBB2002BE7D00F23FB1800221A70F7
:105ABC00E2E70F23FB181B781800BD4604B080BD2D
:105ACC0080B584B000AF78607B689B68FB607B68B6
