:020000040800F2
:100000000040002041020008490200085102000897
:1000100000000000000000000000000000000000E0
:10002000000000000000000000000000770200084F
:1000300000000000000000007F020008615F00086F
:10004000870200088702000887020008870200086C
:10005000870200088702000887020008870200085C
:10006000870200088702000887020008870200084C
:10007000870200088702000887020008870200083C
:10008000870200088702000887020008870200082C
:1000900087020008870200088702000839710008FB
:1000A0004D710008870200088702000887020008D7
:1000B00087020008870200088702000887020008FC
:1000C0005FF808F180B58EB000AF00F031F94A4B0F
:1000D0004A4A1A604A4B494A1A604A4B3B634A4BA8
:1000E000FB624A4BBB62FB6A7B6207E03A6B131D03
:1000F0003B637B6A191D796212681A60BA6A7B6A6F
:100100009A42F3D83C4B1B68414A934204D13C4B82
:100110001B68404A934200D0FEE73F4B374A1A60C3
:100120003E4B364A1A603E4B3B623E4BFB613B6A9C
:10013000BB6104E0BB691A1DBA6100221A60FA694A
:10014000BB699A42F6D8344B1B68002B03D1334B62
:100150001B68002B00D0FEE700F0F0F83A003B1DD2
:100160001100180000F0D4F82F4A304BD31A9B101E
:10017000FB600023BB6007E02C4BBA689200D358A9
:100180009847BB680133BB60FA68BB689A42F3DCEE
:10019000274A284BD31A9B10FB600023BB6007E063
:1001A000244BBA689200D3589847BB680133BB60B0
:1001B000FA68BB689A42F3DC7B683A681100180061
:1001C00005F044FB03007B631B4A1C4BD31A9B10B6
:1001D0007B617B693B6108E03B695A1E174B9200CB
:1001E000D35898473B69013B3B613B69002BF3DCEB
:1001F0007B6B180000F07CF800000020BABADECA61
:10020000B4000020647E000800000020B800002038
:100210007856341232547698B800002058050020E1
:10022000B80000205C050020BC020008BC020008E9
:10023000D4020008BC020008DC020008D402000856
:1002400080B500AFFFF73EFF80B500AF00BEFEE710
:1002500004207146084202D0EFF3098001E0EFF379
:10026000088071460A4A104780B582B000AF7860B6
:10027000396000BEFEE780B500AF00BEFEE780B586
:1002800000AF00BEFEE780B500AF00BEFEE7000095
:0402900069020008F7
:10029400647E000800000020B8000020647E00088E
:1002A4000000000000000000B80000205C050020F1
:1002B4000000000000000000191B0008951F000842
:1002C4002D440008E55B0008A5710008E9770008E3
:0802D400FD5B00080178000841
:1002DC0080B582B000AF024B7B6000F009F8C046DD
:1002EC000C7A000880B582B000AF7860FEE70000A1
:1002FC0080B582B000AF024B7B600120FFF7F2FFAC
:10030C00207A000880B582B000AF786039607B68D5
:10031C0001221A603B68024A1A60BD4602B080BDD9
:10032C000400002080B500AF00F008F8BD4680BD89
:10033C0080B500AF00F048F8BD4680BD80B500AF79
:10034C001B4B1A681A4B01210A431A60184B5A6846
:10035C00174B18490A405A60154B1A68144B16492A
:10036C000A401A60124B1A68114B14490A401A6061
:10037C000F4B5A680E4B12490A405A600C4BDA6A02
:10038C000B4B0F218A43DA62094B1A6B084B0D4950
:10039C000A401A63064B5A6B054B01218A435A6378
:1003AC00034B00229A6000F07DF8BD4680BDC0462C
:1003BC00001002400CB8FF08FFFFF6FEFFFFFBFF2A
:1003CC00FFFFC0FFACFEFFFF80B584B000AF002381
:1003DC00FB600023BB6000237B6000233B602D4B44
:1003EC005B680C221340FB60FB68042B07D0082BC6
:1003FC0009D0002B38D1284B284A1A6037E0264BFD
:10040C00264A1A6033E0234B5A68F0239B031340AF
:10041C00BB60204B5A68C0235B0213407B60BB68F7
:10042C009B0C0233BB607B68002B0CD1B9680A00B3
:10043C005201521A93019B1ADB005B181B021A0023
:10044C00154B1A6013E0134BDB6A0F221340013378
:10045C003B603968114807F03FFA03001A00BB688B
:10046C005A430D4B1A6002E00B4B0C4A1A60094BB5
:10047C005B681B090F221340094AD35CDBB2FB609B
:10048C00054B1A68FB68DA40034B1A60BD4604B092
:10049C0080BDC046001002400C00002000127A0003
:1004AC001000002080B582B000AF00237B600023D9
:1004BC003B60304B1A682F4B802149020A431A606B
:1004CC002C4B1A6880239B0213403B607B680133E2
:1004DC007B603B68002B04D17A68A023DB019A4235
:1004EC00EED1244B1A6880239B02134002D00123C7
:1004FC003B6001E000233B603B68012B36D11E4B77
:10050C0011221A601B4A1B4B52685A60194A194B2C
:10051C0052685A60174B5A68164B18490A405A6071
:10052C00144B5A68134B882149030A435A60114BE8
:10053C001A68104B802149040A431A600D4B1A6843
:10054C0080239B041340F9D00A4B5A68094B0321B2
:10055C008A435A60074B5A68064B02210A435A6079
:10056C00044B5B680C221340082BF9D1BD4602B03A
:10057C0080BDC0460010024000200240FF7FC0FF3B
:10058C0080B582B000AF78600A00FB1C1A707B68E3
:10059C001B8A9BB21A00FB1C1B781A411300012208
:1005AC0013405A1E9341DBB21800BD4602B080BD09
:1005BC0080B582B000AF78607B681A687B681B7965
:1005CC0019001000FFF7DCFF03001800BD4602B055
:1005DC0080BD80B582B000AF78607B68180000F0F9
:1005EC0038F803001A0001235340DBB2002B01D072
:1005FC0000232AE07B681B681800FFF7D9FF030073
:10060C001A0001235340DBB2002B01D001231CE064
:10061C007B689B681800FFF7CBFF03001A000123CF
:10062C005340DBB2002B01D002230EE07B685B68E9
:10063C001800FFF7BDFF03001A0001235340DBB283
:10064C00002B01D0032300E004231800BD4602B0A8
:10065C0080BD80B582B000AF78607B68DB68180025
:10066C00FFF7A6FF03001A0001235340DBB218006A
:10067C00BD4602B080BD80B582B000AF78607B68AB
:10068C00DB68B8331800FFF793FF03001800BD4672
:10069C0002B080BD80B582B000AF78607B68DB684B
:1006AC00B0331800FFF784FF03001800BD4602B0FA
:1006BC0080BD80B582B000AF78607B68DB68E833C2
:1006CC001800FFF775FF03001A0001235340DBB23B
:1006DC001800BD4602B080BD80B582B000AF786016
:1006EC007B68DB68F0331800FFF762FF03001A0029
:1006FC0001235340DBB21800BD4602B080BD80B56B
:10070C0082B000AF78607B681800FFF7D2FF031E41
:10071C0005D17B681800FFF7DFFF031E01D0012312
:10072C0000E000231800BD4602B080BDB0B584B017
:10073C0000AF7860344B1B681800FFF7E0FF031E16
:10074C0003D07B6800221A745AE00F257C197B6851
:10075C001800FFF73EFF030023707B191B78042B56
:10076C004ED89A00294BD3181B689F46264B1B6802
:10077C001800FFF780FF031E01D0032202E00F23B5
:10078C00FB181A787B681A743AE01F4B1B68180028
:10079C00FFF780FF031E01D0032202E00F23FB189A
:1007AC001A787B681A742BE07B680F22BA181278BF
:1007BC001A7425E07B681B7C012B04D0022B0DD016
:1007CC00002B16D01CE0104B1B681800FFF753FFD2
:1007DC00031E12D07B6803221A7411E00A4B1B68AB
:1007EC001800FFF757FF031E09D07B6803221A7409
:1007FC0006E07B6803221A7402E0C04600E0C046A3
:10080C00BD4604B0B0BDC04634000020347A0008A8
:10081C0080B582B000AF786008001100FB1C021C90
:10082C001A70BB1C0A1C1A707B681B68FA1C1278A5
:10083C005200032191400A00D2431A407B681A608F
:10084C007B681A68BB1C1978FB1C1B785B009940F1
:10085C000B001A437B681A60BD4602B080BD80B5A0
:10086C0082B000AF786008001100FB1C021C1A70EB
:10087C00BB1C0A1C1A707B689B68FA1C127852000D
:10088C00032191400A00D2431A407B689A607B682E
:10089C009A68BB1C1B781900FB1C1B785B009940E9
:1008AC000B001A437B689A60BD4602B080BD80B5D0
:1008BC0082B000AF786008001100FB1C021C1A709B
:1008CC00BB1C0A1C1A707B68DB68FA1C127852007D
:1008DC00032191400A00D2431A407B68DA607B689E
:1008EC00DA68BB1C1978FB1C1B785B0099400B0069
:1008FC001A437B68DA60BD4602B080BD80B582B019
:10090C0000AF786008001100FB1C021C1A70BB1CA5
:10091C000A1C1A707B689B889BB2FA1C1278110017
:10092C0001228A4092B2D24392B213409AB27B68AF
:10093C009A807B689B889AB2BB1C1B78F91C09783F
:10094C008B409BB213439AB27B689A80BD4602B02F
:10095C0080BD90B583B000AF78600C00100019001A
:10096C00FB1C221C1A70BB1C021C1A707B1C0A1C60
:10097C001A70BB1C1A78FB1C19787B681800FFF7DF
:10098C0047FF7B1C1A78FB1C19787B681800FFF753
:10099C00B5FF1823FB181A78FB1C19787B68180014
:1009AC00FFF785FF1C23FB181A78FB1C19787B6852
:1009BC001800FFF754FFBD4603B090BD80B582B060
:1009CC0000AF78600A00FB1C1A70FB1C1B7801221C
:1009DC009A4013001A007B689A61BD4602B080BD34
:1009EC0080B582B000AF78600A00FB1C1A70FB1C4B
:1009FC001B78103301229A4013001A007B689A610D
:100A0C00BD4602B080BD80B582B000AF78600800F2
:100A1C001100FB1C021C1A70BB1C0A1C1A70BB1C9C
:100A2C001B78002B07D0FB1C1A787B681100180070
:100A3C00FFF7C4FF06E0FB1C1A787B681100180056
:100A4C00FFF7CEFFBD4602B080BD80B582B000AFCF
:100A5C0078600A00FB1C1A707B689B8A9BB21A0098
:100A6C00FB1C1B781A411300012213405A1E9341A0
:100A7C00DBB21800BD4602B080BD80B588B000AFB7
:100A8C00786008001100FB1C021C1A70BB1C0A1CAD
:100A9C001A70BB1C1B78072B01D900234DE00723D0
:100AAC00FB61BB1C1B78BB61FB1C1B78072B1CD888
:100ABC0017217B18FA1C127892001A707B681B6A3B
:100ACC003B617B181B7807229A401300DA433B6981
:100ADC0013403B617B181B78BA699A4013003A6942
:100AEC0013433B617B683A691A62FB1C1B78072B2A
:100AFC0022D9FB1C1B780F2B1ED8FB1C1B78383300
:100B0C00DAB20F217B1892001A707B685B6ABB60AB
:100B1C007B181B7807229A401300DA43BB681340FA
:100B2C00BB607B181B78BA699A401300BA681343F0
:100B3C00BB607B68BA685A6201231800BD4608B0D6
:100B4C0080BD80B582B000AF78600A00FB1C1A70C3
:100B5C007B6818687B681979FB1C1B781A00FFF7F7
:100B6C0057FEBD4602B080BD80B582B000AF786044
:100B7C000A00FB1C1A707B6818687B681979FB1CCF
:100B8C001B781A00FFF76BFEBD4602B080BD80B526
:100B9C0082B000AF78600A00FB1C1A707B68186882
:100BAC007B681979FB1C1B781A00FFF780FEBD4689
:100BBC0002B080BD80B582B000AF78600A00FB1C2B
:100BCC001A707B6818687B681979FB1C1B781A00F3
:100BDC00FFF794FEBD4602B080BD80B582B000AF79
:100BEC0078600A00FB1C1A707B6818687B6819799E
:100BFC00FB1C1B781A00FFF706FFBD4602B080BD38
:100C0C0080B582B000AF78607B681A687B681B790E
:100C1C0019001000FFF719FF03001800BD4602B0C1
:100C2C0080BD90B583B000AF78600C001000190047
:100C3C00FB1C221C1A70BB1C021C1A707B1C0A1C8D
:100C4C001A70FB1C1A787B6811001800FFF779FFEB
:100C5C00BB1C1A787B6811001800FFF7ABFF7B1CDC
:100C6C001A787B6811001800FFF791FF1823FB1806
:100C7C001A787B6811001800FFF776FFBD4603B0A9
:100C8C0090BD000080B582B000AF7860034A7B68ED
:100C9C001A607B681800BD4602B080BD847A0008DB
:100CAC0080B500AF024B1B681800BD4680BDC04626
:100CBC000C00002080B582B000AF124B5B681B09A2
:100CCC000F2213407B607B680822134013D07B6893
:100CDC00072213407B607B6801337B607B68032BAE
:100CEC0002D97B6801337B60FFF7DAFF02007B6877
:100CFC00DA40130002E0FFF7D3FF03001800BD46F3
:100D0C0002B080BD0010024080B582B000AF0F4B26
:100D1C005B681B0A072213407B607B68042213402C
:100D2C000DD07B68032213407B607B6801337B60B2
:100D3C00FFF7C0FF02007B68DA40130002E0FFF708
:100D4C00B9FF03001800BD4602B080BD0010024080
:100D5C0080B584B002AF78601A4803230193002356
:100D6C000093002302220821FFF7F3FD7868032388
:100D7C000093002300220121FFF753FF11480323A6
:100D8C00019300230093002302220A21FFF7E1FDC7
:100D9C007B680833180003230093002300220121F1
:100DAC00FFF73FFF074B002208211800FFF765FEF5
:100DBC00044B00220A211800FFF75FFEBD4602B06B
:100DCC0080BDC0460010004880B584B000AF78608C
:100DDC002A4B9A69294B802109010A439A61284BB5
:100DEC00FB60FFF791FF03002649180006F074FD25
:100DFC000300013BBB60BB689AB2FB681A85FB68B9
:100E0C00C822DA62FB6800225A63FB6800229A63EC
:100E1C00FB681B8B9BB21C4A13439AB2FB681A8368
:100E2C00FB681B8C9BB2112213439AB2FB681A8489
:100E3C00FB681B8C9BB2CC2213439AB2FB681A84BE
:100E4C00FB6844229B5A9BB2104A134399B2FB682D
:100E5C0044229952FB681B889BB2612213439AB2BD
:100E6C00FB681A80FB689B8A9BB2012213439AB2DF
:100E7C00FB689A82BD4604B080BDC046001002409B
:100E8C00002C014000093D00686800000080FFFF55
:100E9C0080B582B000AF78607B681800FFF794FFD4
:100EAC007B681800FFF754FFBD4602B080BD80B5CB
:100EBC0082B000AF78607B681800FFF7A1FE0300DA
:100ECC001800BD4602B080BD80B582B000AF78601E
:100EDC007B6808331800FFF793FE03001800BD462B
:100EEC0002B080BD80B584B000AF786039603B68DB
:100EFC00FB603B68002B07D07B681800FFF7D7FF1F
:100F0C00031E01D0012300E00023002B01D000239D
:100F1C00FB60074BFA685A63054B9B8A9BB2044AE9
:100F2C0002210B439BB29382BD4604B080BDC046E8
:100F3C00002C014080B582B000AF7860024B5B6B37
:100F4C001800BD4602B080BD002C014080B584B0B5
:100F5C0000AF786039603B68FB603B68002B07D0C2
:100F6C007B681800FFF7B0FF031E01D0012300E0DF
:100F7C000023002B01D00023FB60074BFA689A6317
:100F8C00054B9B8A9BB2044A04210B439BB2938270
:100F9C00BD4604B080BDC046002C014080B582B077
:100FAC0000AF7860024B9B6B1800BD4602B080BD51
:100FBC00002C014080B584B000AF78600A00FB1CA7
:100FCC001A700F23FB18FA1C12781A70FB1C1B7872
:100FDC00002B07D07B681800FFF769FF031E01D0B8
:100FEC00012300E00023002B03D00F23FB18002269
:100FFC001A700F23FB181B78002B01D0C92300E0BB
:10100C0000237A6819001000FFF76CFFBD4604B08E
:10101C0080BD80B584B000AF78600A00FB1C1A70EC
:10102C000F23FB18FA1C12781A70FB1C1B78002B70
:10103C0007D07B681800FFF747FF031E01D0012380
:10104C0000E00023002B03D00F23FB1800221A70A2
:10105C000F23FB181B78002B01D0C92300E00023C1
:10106C007A6819001000FFF771FFBD4604B080BD0F
:10107C0080B582B000AF78600A00FB1C1A70FB1CB4
:10108C001B78002B07D07B681800FFF753FF031E5B
:10109C0001D0012300E00023002B05D07B68002148
:1010AC001800FFF79AFD06E07A68FB1C1B78190004
:1010BC001000FFF792FDBD4602B080BD80B582B036
:1010CC0000AF78600A00FB1C1A70FB1C1B78002B0D
:1010DC0007D07B681800FFF761FF031E01D00123C6
:1010EC0000E00023002B06D07B6808330021180099
:1010FC00FFF773FD08E07B6808331A00FB1C1B78B4
:10110C0019001000FFF769FDBD4602B080BD80B527
:10111C0082B000AF78607B68180000F00AF803001A
:10112C00052B01D1012300E000231800BD4602B0BD
:10113C0080BD80B582B000AF78607B681B7C1800E6
:10114C00BD4602B080BD80B582B000AF78600A00A9
:10115C00FB1C1A707B68FA1C292112785A547B6884
:10116C0029229B5C022B05D0032B55D0012B00D1DF
:10117C007DE089E07B6828229B5C012B3AD0032B15
:10118C0002D0002B24D093E07B6804331800FFF7C7
:10119C00D1FE03005A425341DBB2002B05D07B68D1
:1011AC00043301211800FFF763FF7B680433180038
:1011BC00FFF7F4FE03005A425341DBB2002B00D17F
:1011CC006FE07B68043301211800FFF777FF6FE0B5
:1011DC007B6804331800FFF7ADFE03005A425341FD
:1011EC00DBB2002B5FD07B68043301211800FFF7C2
:1011FC003FFF5DE07B6804331800FFF7CFFE030070
:10120C005A425341DBB2002B4FD07B68043301218F
:10121C001800FFF753FF4BE07B6828229B5C042BE4
:10122C0000D045E07B6804331800FFF740FE030054
:10123C001A0001235340DBB2002B05D07B6804332A
:10124C0001211800FFF7B6FE7B6804331800FFF786
:10125C003BFE03001A0001235340DBB2002B26D0C7
:10126C007B68043301211800FFF7D3FE20E07B6874
:10127C00043300211800FFF7FBFE7B6804330021C8
:10128C001800FFF71BFF13E07B68043300211800E4
:10129C00FFF790FE7B68043300211800FFF7B9FEBE
:1012AC0006E0C04604E0C04602E0C04600E0C0468E
:1012BC00BD4602B080BD80B584B002AF78607B685B
:1012CC001433180003230093002301220021FFF79D
:1012DC00A8FC7B6804331800FFF7DAFD7B681B68F9
:1012EC0008331B687A680221100098477B6800213C
:1012FC001800FFF728FFBD4602B080BD80B582B054
:10130C0000AF78607B6814331800FFF751F90300C5
:10131C001A0001235340DBB21800BD4602B080BD59
:10132C0080B582B000AF78600A00FB1C1A707B6835
:10133C0028229B5CFA1C12789A420CD07B68FA1C0F
:10134C00282112785A547B6800211800FFF7FBFE05
:10135C007B6800225A62BD4602B080BD80B582B067
:10136C0000AF78607B6828229B5C1800BD4602B0F9
:10137C0080BD000080B584B000AF78607B685B6A8C
:10138C005A1C7B685A620D203B187A682921525CE2
:10139C001A703B181B78012B16D002DC002B05D0E1
:1013AC00D5E0022B1ED0032B30D0D0E07B685B6ADB
:1013BC00042B00D8D4E07B6801211800FFF7C3FE92
:1013CC007B6800225A62D4E07B685B6A042B00D8ED
:1013DC00C8E07B6802211800FFF7B5FE7B6800228D
:1013EC005A62C6E07B685B6A042B00D8BCE07B6861
:1013FC0003211800FFF7A7FE7B6800225A627B6866
:10140C0000229A837B6800221A62B2E07B68282251
:10141C009B5C042B00D9A9E09A00574BD3181B688E
:10142C009F467B680433C9211800FFF75BFD7B687E
:10143C000433C9211800FFF789FD97E04F4B1B6857
:10144C001800FFF764FE031E00D167E07B689B8BDE
:10145C00C72B00D98AE07B681B6A5A1C7B681A620E
:10146C007B685A6AFA231B019A4208D97B681B686D
:10147C0008331B687A6802211000984776E00E2327
:10148C00FB187A68928B1A800523BB607B68180066
:10149C00FFF734FF031E0CD00E23FB181B889AB2E7
:1014AC00022A00D202239AB20E23FB18023A1A80A7
:1014BC000EE07B681B6A042B0AD97B681B6A5A1FD7
:1014CC007B681A620E217B181A887B1801321A80ED
:1014DC007B689B8B0E22BA1812889A4235D07B6897
:1014EC000E22BA1812889A837B6828229B5C002BE8
:1014FC0002D0012B09D028E07B681A1D7B689B8BDE
:10150C0019001000FFF722FD1FE07B681A1D7B6895
:10151C009B8B19001000FFF7E5FC16E07B68282276
:10152C009B5C002B02D0012B07D022E07B6804339C
:10153C00C9211800FFF70AFD1BE07B680433C921A1
:10154C001800FFF7CFFCC04613E0C0460EE07B68E6
:10155C001B6808331B687A6802211000984708E062
:10156C00C04606E0C04604E0C04602E0C04600E0CB
:10157C00C046BD4604B080BD487A00083400002047
:10158C0080B582B000AF7860054A7B681A607B68D2
:10159C001800FFF777FB7B681800BD4602B080BDD2
:1015AC00647A000880B582B000AF78607B68180060
:1015BC00FFF7E6FF7B683021180006F027F97B68FF
:1015CC001800BD4602B080BD80B582B000AF786017
:1015DC007B681A687B681B7919001000FFF7EEF91D
:1015EC00BD4602B080BD80B582B000AF78607B682C
:1015FC001A687B681B7919001000FFF7F1F9BD46DA
:10160C0002B080BD80B582B000AF78600A00FB1CD0
:10161C001A707B68FA1C12781A73BD4602B080BD32
:10162C0090B585B000AF786039607B689A683B688C
:10163C00D2187B689A607B689B68404A934209D9B0
:10164C007B689B686421180006F0CCF90B001A002B
:10165C007B689A607B689B686421180006F03CF9F3
:10166C0003001A000F23FB181A707B681B7B062BD8
:10167C005ED89A00324BD3181B689F467B681800C3
:10168C00FFF7A2FF57E07B681800FFF7ACFF52E0B2
:10169C0078680F23FB181A780421002391425B41D0
:1016AC00DBB21900FFF799FA45E07A680F23FB18B3
:1016BC001B785B10190001230B40591E8B41DBB2C8
:1016CC0019001000FFF789FA35E078680F23FB1832
:1016DC001B78012213405A1E9341DBB21900FFF70D
:1016EC007CFA28E07A680F23FB181B7859424B418F
:1016FC00DBB219001000FFF770FA1CE07C680F23B6
:10170C00FB181B78032213400AD00F23FB181B78FD
:10171C000321180006F066F90B00DBB2002B01D197
:10172C00012300E0002319002000FFF756FA02E025
:10173C007B6803221A73BD4605B090BDE703000019
:10174C009C7A000880B582B000AF78600A00FB1C60
:10175C001A70FB1C1B78002B07D07B681A1DFB1C16
:10176C001B781900100004F06FFABD4602B080BD62
:10177C0080B584B000AF78600F23FB1800221A707C
:10178C007B685B6A1800FEF713FF03001A00012345
:10179C005340DBB2002B03D00F23FB1803221A702B
:1017AC007B689B6A1800FEF703FF03001A000123F5
:1017BC005340DBB2002B03D00F23FB1801221A700D
:1017CC007B68DB691800FEF7F3FE03001A000123A7
:1017DC005340DBB2002B03D00F23FB1802221A70EC
:1017EC007B681B6A1800FEF7E3FE03001A00012356
:1017FC005340DBB2002B03D00F23FB1804221A70CA
:10180C007B685B6A1800FEF7D3FE03001A00012305
:10181C005340DBB2002B0DD07B681B6A1800FEF71F
:10182C00C7FE03001A0001235340DBB2002B01D08A
:10183C00012300E00023002B03D00F23FB1806220A
:10184C001A707B689B6A1800FEF7B2FE03001A0040
:10185C0001235340DBB2002B0DD07B68DB691800F1
:10186C00FEF7A6FE03001A0001235340DBB2002B47
:10187C0001D0012300E00023002B03D00F23FB1821
:10188C0005221A700F23FB181B781800BD4604B0F4
:10189C0080BD0000B0B584B000AF78600F257C1916
:1018AC007B68180000F03CF8030023701B4B1B787E
:1018BC007A1912789A422DD0184B1B78052B09D126
:1018CC000F23FB181B78012B1FD00F23FB181B7841
:1018DC00022B1AD0114B1B78062B09D10F23FB18A6
:1018EC001B78042B11D00F23FB181B78032B0CD067
:1018FC000F23FB181B78002B07D00F23FB181A782B
:10190C007B6811001800FFF71DFF044B0F22BA185B
:10191C0012781A70BD4604B0B0BDC046BD000020A0
:10192C0080B582B000AF78607B681800FFF720FFAD
:10193C0003001800BD4602B080BD80B582B000AF78
:10194C0078607B6800221A607B6800225A607B6892
:10195C0000229A607B680022DA607B6800221A61A0
:10196C007B6800229A617B680022DA617B68002226
:10197C001A627B6800225A627B6800229A627B683A
:10198C001800BD4602B080BD80B582B000AF786053
:10199C000A00FB1C1A707B689A6AFB1C1B781900E6
:1019AC001000FFF71AF9BD4602B080BD80B582B0B9
:1019BC0000AF78607B68180000F062F8031E16D048
:1019CC007B681B685A1D7B681A607B68DB69062183
:1019DC001800FFF717FE7B681B6A06211800FFF73B
:1019EC0011FE7B685B6A06211800FFF70BFE7B6813
:1019FC001B691800FFF794FF03005A1E9341DBB2DA
:101A0C00002B02D07B6800225A607B685B681B4A03
:101A1C0093420AD87B685B685A1D7B685A607B6866
:101A2C0001211800FFF7B0FF04E07B6800211800CB
:101A3C00FFF7AAFF7B68DB6905211800FFF7F0FDB3
:101A4C007B681B6A05211800FFF7EAFD7B685B6A5F
:101A5C0005211800FFF7E4FD7B681B691800FFF7F0
:101A6C0019FF7B685B691800FEF760FE7B689B6959
:101A7C00180001F0AFFABD4602B080BDBFD4010022
:101A8C0080B582B000AF78607B681A680449002387
:101A9C0091425B41DBB21800BD4602B080BDC0462E
:101AAC008713000080B500AF024B1800FFF77EFFD4
:101ABC00BD4680BDC000002080B500AF014B1800B2
:101ACC00BD4680BDC000002080B582B000AF7860FC
:101ADC0039607B68012B0DD13B68084A934209D1D0
:101AEC00074B1800FFF729FF064A07480523022178
:101AFC0004F0E6F9BD4602B080BDC046FFFF000011
:101B0C00C0000020B11A0008EC00002080B500AF26
:101B1C00034B19000120FFF7D7FFBD4680BDC0461F
:101B2C00FFFF000090B583B000AF02003960FB1DD1
:101B3C001A70FB1D1B785BB2002B36DA314AFB1D89
:101B4C001B785BB219000F230B40083B9B08063334
:101B5C009B00D31804331B68FA1D127852B2110083
:101B6C0003220A40D200FF2191400A00D2431A40BE
:101B7C0011003B689B01FF221A40FB1D1B785BB2D6
:101B8C00180003230340DB009A401E48FB1D1B7802
:101B9C005BB21C000F232340083B9B080A4306330F
:101BAC009B00C31804331A6029E0174AFB1D1B78ED
:101BBC005BB29B08C0339B009B58FA1D127852B243
:101BCC00110003220A40D200FF2191400A00D243A7
:101BDC001A4011003B689B01FF221A40FB1D1B7829
:101BEC005BB2180003230340DB009A400648FB1D40
:101BFC001B785BB29B080A43C0339B001A50BD464E
:101C0C0003B090BD00ED00E000E100E080B582B0D3
:101C1C0000AF78607B68013B0C4A934201D90123E9
:101C2C0010E00B4B7A68013A5A6001235B420321A6
:101C3C001800FFF777FF064B00229A60044B07222F
:101C4C001A6000231800BD4602B080BDFFFFFF00E4
:101C5C0010E000E080B584B000AFF860B960FB1D07
:101C6C001A70FB68BA681A60FB68FA1D12781A7150
:101C7C00FB6803211800FEF764FFFB6800211800C5
:101C8C00FEF785FFFB6800211800FEF76DFFFB686F
:101C9C0001211800FEF78EFFFB681800BD4604B04A
:101CAC0080BD000080B582B000AF0200FB1D1A7031
:101CBC00FB1D1B78042B0CD89A00074BD3181B6800
:101CCC009F46FEE7054B01221A7002E0034B0122EE
:101CDC001A70BD4602B080BDB87A00081001002011
:101CEC0080B500AF024B1B681800BD4680BDC046D6
:101CFC001004002080B584B000AF7860FFF7F0FFCF
:101D0C000300FB60FFF7ECFF0200FB68D21A7B6854
:101D1C009A429B415B42DBB2002BF3D1BD4604B02F
:101D2C0080BD000080B584B000AF78607B68084A45
:101D3C009A429B415B42DBB2FB60064BFA681A602D
:101D4C00044BFA6810210A431A60BD4604B080BDEA
:101D5C0000366E010020024080B582B000AF786082
:101D6C0039603A4B1A68394B01210A431A60374BD8
:101D7C001B68022213405A425341DBB2002BF6D1AE
:101D8C00324B5A68314B03218A435A602F4B5B68A4
:101D9C000C2213405A1E9341DBB2002BF6D12B4B75
:101DAC001A682A4B802149020A431A60274B1A6889
:101DBC0080239B0213405A425341DBB2002BF5D1D6
:101DCC003B681800FFF7AEFF204B214A5A601F4BAF
:101DDC000022DA621D4B1A681C4B802149040A430D
:101DEC001A601A4B1A6880239B0413405A425341C1
:101DFC00DBB2002BF5D1154B5A68144B02210A4368
:101E0C005A60124B5B680C221340083B5A1E9341DC
:101E1C00DBB2002BF5D10D4B5A680C4B02210A4357
:101E2C005A600A4B5B680C221340083B5A1E9341C4
:101E3C00DBB2002BF5D1054B5A68044B01210A404B
:101E4C005A6001231800BD4602B080BD001002404C
:101E5C000000118080B582B000AF00237B60154B71
:101E6C005A69144BFC21C9030A435A61114B5B6933
:101E7C007B607B680F4BDA690E4B802189030A4328
:101E8C00DA610C4BDA6980239B0313407B607B681F
:101E9C00084B9A69074B802189000A439A61054BCC
:101EAC009A6980239B0013407B607B68BD4602B01F
:101EBC0080BDC0460010024080B500AF114A124BE5
:101ECC0011001800FFF748FFFEF77EFAFFF7C2FF7C
:101EDC000E4B1A68FA239900100005F0FDFC030064
:101EEC001800FFF793FE03005A1E9341DBB2002B40
:101EFC0002D00220FFF7D6FE00F012F800F008F82E
:101F0C00BD4680BD0048E80100127A000C0000209C
:101F1C0080B500AFBD4680BD80B500AFBD4680BD6D
:101F2C0080B500AFBD4680BD80B582B000AF786093
:101F3C007B681800FFF7DEFEBD4602B080BD0000D6
:101F4C0080B582B000AF786039607B68012B0FD10F
:101F5C003B68094A93420BD10849094B00221800EF
:101F6C00FFF778FE0549074B01221800FFF772FEB8
:101F7C00BD4602B080BDC046FFFF0000000800480F
:101F8C00000100200801002080B500AF034B1900B0
:101F9C000120FFF7D5FFBD4680BDC046FFFF000006
:101FAC00B0B584B000AF0200FB1D1A703B1D0A1CBB
:101FBC001A80FB1D1B780A2B01D9002316E004F0B4
:101FCC00DDFCFB1D1B789AB20E257C193B1D1B8872
:101FDC001900100004F014FA0300238004F0E4FC50
:101FEC007B191B88043B5A425341DBB21800BD4697
:101FFC0004B0B0BDB0B584B000AF02003960FB1DB9
:10200C001A70FB1D1B780A2B01D9002324E0FB1D41
:10201C001B789BB20E257C193A681100180004F04D
:10202C008BF9030023807B191B88002B01D1012322
:10203C0012E00E23FB181B88012B0CD13B680022ED
:10204C001A803B681A88FB1D1B7811001800FFF7DB
:10205C00A7FF030000E000231800BD4604B0B0BD8C
:10206C0080B584B000AF0200FB1D1A700E23FA1865
:10207C00FB1D1B7811001800FFF7BCFF031E03D0DB
:10208C000E23FB181B8801E001235B421800BD46A0
:10209C0004B080BD80B582B000AF78607B685A68B0
:1020AC007B689B68D31A5A425341DBB21800BD4679
:1020BC0002B080BD80B582B000AF78607B6818003C
:1020CC00FFF7E8FF03001A0001235340DBB21800AE
:1020DC00BD4602B080BD80B584B000AF78607B682F
:1020EC0004331800FFF7E6FF031E11D07B6804339E
:1020FC00180003F0E0FD03001A000F217B181A7082
:10210C007B181B78002BEAD00F23FB181B7800E000
:10211C0000231800BD4604B080BD80B582B000AF6E
:10212C0078607B681800FFF7D6FF03001800BD46E7
:10213C0002B080BD80B582B000AF78607B680122B0
:10214C005A76BD4602B080BD80B584B000AF7860D1
:10215C007B685B68FB607B685A687B681B6919004D
:10216C00100005F03FFC0B001A007B685A607B687E
:10217C005B68FA689A4203D07B681800FFF7DAFFB5
:10218C00BD4604B080BD80B582B000AF78607B687E
:10219C00DB681800BD4602B080BD80B582B000AFD0
:1021AC0078607B689B681800BD4602B080BD80B526
:1021BC0082B000AF78607B681800FFF7BBFF7B68CC
:1021CC005B685A1C7B685A607B6859687B681A6923
:1021DC00002391425B41DBB2002B02D07B680022D2
:1021EC005A60BD4602B080BD80B586B000AFF860C5
:1021FC00B9607A60FB68DB687A689A4201D3002385
:10220C001BE0FB689B68BA689A4201D3002314E078
:10221C00FB685B687B61FB689B687A685A43BB68A8
:10222C00D218FB685A60FB685B687A699A4203D0E3
:10223C00FB681800FFF77EFF01231800BD4606B0AF
:10224C0080BD80B582B000AF78600A00FB1C1A70AC
:10225C007B681800FFF778FF7B685A697B685B68BE
:10226C00D318FA1C12781A707B681800FFF79FFFBE
:10227C007B681800FFF75EFFBD4602B080BD80B5DD
:10228C0082B000AF786039603B681B785BB2002B82
:10229C000AD03B685A1C3A6000229A567B6811009F
:1022AC001800FFF7CEFFEFE7BD4602B080BD80B54A
:1022BC0084B000AFF860B9607A603B607A68B96846
:1022CC00FB681800FFF790FF3A68FB6811001800D4
:1022DC00FFF7D5FFBD4604B080BD90B585B000AF0B
:1022EC0078600A00BB1C1A80BB1C1C887B68180019
:1022FC00FFF749FF0200002394425B41DBB2002B45
:10230C0026D1BB1C1C887B681800FFF746FF030016
:10231C006343BB600023FB607B681800FFF73DFF45
:10232C000100FA68002391425B41DBB2002B0BD019
:10233C007B685A69F968BB68CB18D31820221A70CD
:10234C00FB680133FB60E7E77B681800FFF7F2FEE0
:10235C00BD4605B090BD80B582B000AF78600A0074
:10236C00FB1C1A707B68FA1C12781A76BD4602B0F8
:10237C0080BDF0B59FB000AFF860B9607A60BB6803
:10238C00180005F09FFA0200632393429B415B42C5
:10239C00DBB2002B01D0002312E077257C1910262C
:1023AC00BA197968BB68180004F0D1FA03002370DD
:1023BC00BA19FB6811001800FFF761FF7B191B7835
:1023CC001800BD461FB0F0BD80B586B000AFF860F8
:1023DC00B9607A601A00FB1C1A7000237B61BB6821
:1023EC001B785BB2002B22D013217B18BA681278B1
:1023FC001A707A18FB1C127852B21B785BB29A4294
:10240C0008D17B695A1C7A617A68D2181323FB189D
:10241C0012781A701323FB1800229A56FB681100CD
:10242C001800FFF70EFFBB680133BB60D7E7012331
:10243C001800BD4606B080BD80B582B000AF786094
:10244C000A00FB1C1A707B68FA1C12781A74BD46C1
:10245C0002B080BD80B582B000AF78600A00FB1C72
:10246C001A707B68FA1C12785A717B685B79002BA6
:10247C0004D07B680221180000F006F87B685B79B9
:10248C001800BD4602B080BD80B582B000AF786048
:10249C000A00FB1C1A707B68FA1C12789A717B6814
:1024AC009B79022B09D17B681A687B681B681B68B7
:1024BC0008331B68022110009847BD4602B080BD4E
:1024CC0080B582B000AF786008001100FB1C021CC4
:1024DC001A70BB1C0A1C1A70FB1C1A787B68110042
:1024EC001800FFF7D1FFBB1C1A787B68110018008D
:1024FC0000F003F8BD4602B080BD80B584B000AFDB
:10250C0078600A00FB1C1A707B68FA1C12781A712E
:10251C000F23FB187A6892791A707B685B79002B11
:10252C0003D00F23FB1802221A700F23FB181B7801
:10253C00012B1DD0022B35D0002B34D17B681B799D
:10254C00002B0AD07B681A687B681B681B680833F1
:10255C001B6800211000984725E07B681A687B688F
:10256C001B681B6808331B680421100098471AE08D
:10257C007B681B79002B0AD07B681A687B681B6808
:10258C001B6808331B680421100098470BE07B681C
:10259C001A687B681B681B6808331B6800211000D5
:1025AC00984700E0C046BD4604B080BD80B584B0FD
:1025BC0000AF78607B68180000F052F9031E03D05E
:1025CC007B685B68FB6002E07B681B68FB60FB68F8
:1025DC001800BD4604B080BDB0B584B000AF7860C3
:1025EC007B685B7C032B03D17B680122DA7402E0ED
:1025FC007B680022DA740F257C197B68180000F0C8
:10260C0060F9030023707B681800FFF7CFFF02000E
:10261C00136808331B6879190978100098477B6890
:10262C009A687B191B7819001000FFF713FFBD4641
:10263C0004B0B0BD80B582B000AF78607B68180084
:10264C00FEF719F8031E07D07B681800FEF722F876
:10265C00031E01D0012300E00023002B03D07B6874
:10266C0003225A7416E07B681800FEF704F8031E68
:10267C0003D07B6801225A740CE07B681800FEF7CB
:10268C0009F8031E03D07B6802225A7402E07B68AF
:10269C0000225A747B681800FFF79EFF7B685B7CF6
:1026AC001800BD4602B080BD80B582B000AF786026
:1026BC007B681800FFF7BEFF7B689B7C012B02D068
:1026CC00022B28D04FE07B68180000F004F9031EA1
:1026DC0010D07B689B6800211800FFF70EFF7B6809
:1026EC001800FFF763FF020013681B68002110003D
:1026FC0098474BE07B681800FFF758FF02001368FF
:10270C001B680421100098477B689B680121180006
:10271C00FFF7F3FE3AE07B68180000F008F9031E9F
:10272C0010D07B689B6800211800FFF7E6FE7B68E1
:10273C001800FFF73BFF020013681B680121100013
:10274C00984723E07B681800FFF730FF02001368FE
:10275C001B680421100098477B689B6801211800B6
:10276C00FFF7CBFE12E07B6800229A747B6818009E
:10277C00FFF71CFF020013681B6804211000984728
:10278C007B689B6801211800FFF7B7FEBD4602B0BD
:10279C0080BD000080B582B000AF78607B681B7C88
:1027AC00052B4AD89A002D4BD3181B689F467B6883
:1027BC001B6800211800FFF73FFE7B689B68002216
:1027CC0000211800FFF77CFE44E07B681B680021A9
:1027DC001800FFF731FE7B689B680022022118006D
:1027EC00FFF76EFE36E07B681B6800211800FFF7D0
:1027FC0023FE7B689B68002201211800FFF760FE16
:10280C0028E07B689B68002202211800FFF758FE25
:10281C007B681B6801211800FFF70EFE1AE07B682D
:10282C009B68002202211800FFF74AFE7B681B6898
:10283C0000211800FFF700FE0CE07B681B680021EC
:10284C001800FFF7F9FD7B689B6800220221180035
:10285C00FFF736FEBD4602B080BDC046CC7A0008FC
:10286C0080B582B000AF78607B681800FEF761FC21
:10287C000300013B012B01D8012300E000231800C9
:10288C00BD4602B080BD80B582B000AF78607B6879
:10289C00DB68C8331800FDF78BFE03001800BD463B
:1028AC0002B080BD80B582B000AF78607B68DB6819
:1028BC00C0331800FDF77CFE03001800BD4602B0C3
:1028CC0080BD80B582B000AF78607B68DB7C18007F
:1028DC00BD4602B080BD80B582B000AF78607B6829
:1028EC001800FDF7C8FE03001A0001235340DBB2A9
:1028FC00002B17D07B681800FFF7C5FF03001A00E8
:10290C0001235340DBB2002B0CD07B681800FDF781
:10291C00F6FE03001A0001235340DBB2002B01D05A
:10292C00012300E000231800BD4602B080BD80B535
:10293C0082B000AF78607B681800FDF7ABFE030037
:10294C001A0001235340DBB2002B0CD07B6818001B
:10295C00FFF7A8FF03001A0001235340DBB2002B42
:10296C0001D0012300E000231800BD4602B080BD59
:10297C0080B582B000AF78607B6800229A747B6867
:10298C001800FFF791FE7B685B7C1800BD4602B017
:10299C0080BD80B582B000AF78600A00FB1C1A7055
:1029AC007B681800FFF7E4FF7B68FA1C12781A7436
:1029BC007B681B7C9BB219000320FFF7F1FA7B6844
:1029CC001800FFF7E7FEBD4602B080BD80B584B0AD
:1029DC0000AF0200FB1D1A700F217B18FA1D127834
:1029EC001A707B187A181278013A1A707B181B78B7
:1029FC005A425341DBB2002B03D00F23FB180522A4
:102A0C001A700F23FB181B781800BD4604B080BD4C
:102A1C0080B584B000AF0200FB1D1A700F217B182B
:102A2C00FA1D12781A707B187A18127801321A7003
:102A3C007B181B7805229A429B415B42DBB2002B30
:102A4C0003D00F23FB1801221A700F23FB181B78DD
:102A5C001800BD4604B080BD80B582B000AF786070
:102A6C007B681B7C180000F005F803001800BD46BD
:102A7C0002B080BD80B582B000AF0200FB1D1A70A1
:102A8C00FB1D1B78052B0ED89A00094BD3181B681D
:102A9C009F46084B08E0084B06E0084B04E0084B47
:102AAC0002E0084B00E0084B1800BD4602B080BDA8
:102ABC00307B0008E47A0008F07A0008FC7A000801
:102ACC00087B0008147B0008207B000880B582B0CE
:102ADC0000AF78600A00FB1C1A707B681B6818003A
:102AEC007B681B681B6808331B68FA1C1278110082
:102AFC0098477B685B6818007B685B681B680833C9
:102B0C001B68FA1C1278110098477B689A68FB1CAA
:102B1C001B7819001000FFF79DFCFB1C1B78002B89
:102B2C0006D07B681A7C7B6811001800FFF731FF18
:102B3C0001231800BD4602B080BD80B584B000AF43
:102B4C0078600A00FB1C1A707B681B791A007B6882
:102B5C001B889A422BDA7B681B790F203A18191CB8
:102B6C000B1CDB185B1813707B685B883A181278A7
:102B7C00072191400A0092B2D24392B213409AB20A
:102B8C007B685A807B685A88FB1C1B78072119408C
:102B9C003B181B7899400B009BB213439AB27B688D
:102BAC005A807B681B790133DAB27B681A71BD4697
:102BBC0004B080BD80B582B000AF78600A00FB1C09
:102BCC001A707B685B7B072B0BD87B685B7B5A1C72
:102BDC00D1B27A6851731A007B689B18FA1C127870
:102BEC005A71BD4602B080BD80B582B000AF78602E
:102BFC000A00FB1C1A70FB1C1B78022B0AD002DC8F
:102C0C00012B05D00CE0032B08D0042B04D007E0DB
:102C1C00452306E0422304E03C2302E03E2300E08F
:102C2C002D231800BD4602B080BD80B584B000AF26
:102C3C0078600A00FB1C1A70FB1C1B787A681288DF
:102C4C00934201DB2D231CE00F203918FB1C1B7851
:102C5C001A1C9218D3180B707B685B881A003B18EF
:102C6C001B781A411300DAB20E203B1807210A40D8
:102C7C001A703B181A787B6811001800FFF7B4FF24
:102C8C0003001800BD4604B080BD80B582B000AF13
:102C9C0078607B681B791A007B681B88D017D90F6A
:102CAC009A4248410300DBB21800BD4602B080BD19
:102CBC0080B584B000AF78607B681800FFF7E5FF43
:102CCC0003001A0001235340DBB2002B01D0002378
:102CDC000CE00420FFF7C4F90300FB607B685A8802
:102CEC00FB689BB2D31A5A425341DBB21800BD4663
:102CFC0004B080BD80B582B000AF0200BB1D1A804D
:102D0C00BB1D1B8819000420FFF74AF9BD4602B011
:102D1C0080BD80B582B000AF78607B6800225A809D
:102D2C007B6800221A71BD4602B080BD80B582B0AE
:102D3C0000AF78607B685B881800FFF7DBFFBD464F
:102D4C0002B080BD80B582B000AF78607B6818009F
:102D5C00FFF79BFF031E09D07B681800FFF7A8FF45
:102D6C00031E01D0022302E0012300E0002318001F
:102D7C00BD4602B080BD80B582B000AF78600A005D
:102D8C00FB1C1A70FB1C1B78002B06D0FB1C1A7842
:102D9C007B6811001800FFF7D0FE7B681800FFF766
:102DAC00D1FF03001800BD4602B080BDB0B584B0A1
:102DBC0000AF786039600F23FB1800221A700F23C4
:102DCC00FB181B787A681288934213DA0F257B194B
:102DDC001B783A68D4187B191A787B681100180094
:102DEC00FFF723FF030023707B191A787B1901323C
:102DFC001A70E4E7BD4604B0B0BDB0B584B000AF06
:102E0C00786039600F23FB1800221A700F23FB180F
:102E1C001B78072B15D80F257B191B787A68D318CC
:102E2C0059797B191B783A68D4187B681800FFF71E
:102E3C00DBFE030023707B191A787B1901321A70A0
:102E4C00E4E7BD4604B0B0BD80B584B000AF786097
:102E5C000023FB60FB68072B09DC7A68FB68D3183E
:102E6C00053300221A70FB680133FB60F2E77B68C4
:102E7C0000225A73BD4604B080BD000080B584B0FA
:102E8C0000AF78607B685B7B072B17D90023FB6056
:102E9C00FB68072B10DC0C4AFB68D3181A7879688E
:102EAC00FB68CB1805331B789A4201D0012306E04E
:102EBC00FB680133FB60EBE7022300E00023180002
:102ECC00BD4604B080BDC046487E000880B582B0C7
:102EDC0000AF78600A00FB1C1A70FB1C1B78002BDF
:102EEC0006D0FB1C1A787B6811001800FFF762FEF5
:102EFC007B681800FFF7C2FF03001800BD4602B044
:102F0C0080BD80B500AF02231800BD4680BD80B5E2
:102F1C0000AF01231800BD4680BD000080B582B013
:102F2C0000AF78600A00FB1C1A707B68FA1C242125
:102F3C0012785A547B6824229B5C002B05D10E4BD3
:102F4C001B6800211800FFF7C1FD7B6824229B5CE5
:102F5C00072B05D1084B1B6801211800FFF7B6FDA4
:102F6C007B682822002199547B68180000F006FB2E
:102F7C00BD4602B080BDC0463400002080B582B092
:102F8C0000AF78607B689B6A1800FDF739FE030080
:102F9C001800BD4602B080BD80B582B000AF78602D
:102FAC007B681B68F8331800FDF702FB03001A005E
:102FBC0001235340DBB21800BD4602B080BD80B582
:102FCC0082B000AF78607B681B791800BD4602B0F8
:102FDC0080BD0000B0B584B000AF78607B685B68E2
:102FEC000F257C191800FFF798F8030023707B1944
:102FFC001B78002B13D1FEF75FFD03001800FFF7C1
:10300C00BDFF03001A0001235340DBB2002B06D096
:10301C007B6824229B5C012B01D0012300E0002360
:10302C00002B04D07B6801211800FFF777FF7B6829
:10303C0024229B5C0F2B00D97BE29A00C04BD31847
:10304C001B689F460F23FB181B78002B04D07B6852
:10305C0001211800FFF762FFFEF72EFD0300180098
:10306C00FEF70EFD03001A0001235340DBB2002BC8
:10307C0000D153E27B6801211800FFF74FFF58E2A3
:10308C000F23FB181B78032B1ED002DC012B05D061
:10309C004FE2042B1ED0052B0BD04AE27B680C337D
:1030AC001800FFF736FE7B6805211800FFF736FF86
:1030BC003FE27B680C331800FFF7C6FE7B680621E5
:1030CC001800FFF72BFF34E27B6802211800FFF792
:1030DC0025FF2EE27B6804211800FFF71FFF28E272
:1030EC000F23FB181B78032B04D0042B08D0022BC6
:1030FC000CD01EE27B6803211800FFF70FFF18E2CB
:10310C007B6801211800FFF709FF12E27B6801219F
:10311C001800FFF703FF0CE20F23FB181B78032B9F
:10312C0004D0042B08D0022B0CD002E27B680421C3
:10313C001800FFF7F3FEFCE17B6802211800FFF793
:10314C00EDFEF6E17B6801211800FFF7E7FEF0E1E8
:10315C000F23FB181B78032B04D0042B08D0022B55
:10316C000CD0E6E17B6801211800FFF7D7FEE0E107
:10317C007B6803211800FFF7D1FEDAE17B6801219F
:10318C001800FFF7CBFED4E10F23FB181B78013B93
:10319C00032B00D9C4E17B680C331A000B257C1976
:1031AC000F23FB181B7819001000FFF7E4FD030038
:1031BC0023707B191B78012B08D0022B00D0B8E1AF
:1031CC007B6807211800FFF7A9FEB2E17B6801219B
:1031DC001800FFF7A3FEC046ABE10F23FB181B78CA
:1031EC00013B032B00D99DE17B680C331A000C25A5
:1031FC007C190F23FB181B7819001000FFF766FED3
:10320C00030023707B191B78012B08D0022B00D0F4
:10321C008FE17B680C211800FFF780FE89E17B6849
:10322C0001211800FFF77AFEC04682E10F23FB183C
:10323C001B78022B17D002DC012B05D079E1032B74
:10324C001DD0042B15D074E13E4B1B681800FDF704
:10325C0070FF03001A007B68DA617B680821180094
:10326C00FFF75CFE65E17B6801211800FFF756FE55
:10327C005FE17B680E211800FFF750FE59E17B6877
:10328C0009211800FFF74AFE53E10F23FB181B78A6
:10329C00022B1BD002DC012B05D04AE1032B26D0DC
:1032AC00042B19D045E17B68DA690D217B181A7063
:1032BC00244B1A687B181B7819001000FFF769FB68
:1032CC007B6801211800FFF729FE32E17B680121A0
:1032DC001800FFF723FE2CE17B68DB69DBB21800DA
:1032EC00FFF774FB03001A007B68DA6121E17B684D
:1032FC00DB69DBB21800FFF78BFB03001A007B685D
:10330C00DA6116E10F23FB181B78022B12D002DCBA
:10331C00012B05D00DE1032B1CD0042B14D008E19C
:10332C0000210220FEF73CFE7B6801211800FFF70C
:10333C00F5FDFEE07B6801211800FFF7EFFDF8E0DA
:10334C00487B0008340000207B6807211800FFF739
:10335C00E5FDEEE07B680A211800FFF7DFFDE8E0F1
:10336C000F23FB181B78022B0ED002DC012B05D08F
:10337C00DFE0032B14D0042B0CD0DAE07B680B219C
:10338C001800FFF7CBFDD4E07B6801211800FFF794
:10339C00C5FDCEE07B6809211800FFF7BFFDC8E032
:1033AC007B680C211800FFF7B9FDC2E07B68012196
:1033BC001800FFF7B3FDBCE00F23FB181B78022BA2
:1033CC0013D002DC012B05D0B3E0032B19D0042B56
:1033DC0011D0AEE07B680C331800FFF79AFC7B68C9
:1033EC000D211800FFF79AFDA3E07B68012118005E
:1033FC00FFF794FD9DE07B680A211800FFF78EFD16
:10340C0097E07B680E211800FFF788FD91E07B6840
:10341C000C331A000E257C190F23FB181B7819008E
:10342C001000FFF7A8FC030023707B191B78013BED
:10343C00012B00D978E07B680C331800FFF776FC81
:10344C007B6801211800FFF769FD6DE00F23FB1865
:10345C001B78022B1BD002DC012B05D069E0032B5F
:10346C0021D0042B19D064E00720FEF7F9FD0200EF
:10347C007B68DA617B68DB69782B02D97B68012277
:10348C00DA617B680F211800FFF748FD51E07B687B
:10349C0001211800FFF742FD4BE07B680C2118005E
:1034AC00FFF73CFD45E07B6807211800FFF736FD70
:1034BC003FE00F23FB181B78022B15D002DC012BED
:1034CC0005D036E0032B1FD0042B13D031E07B68E2
:1034DC00DB699BB219000720FEF762FD7B680121B6
:1034EC001800FFF71BFD24E07B6801211800FFF793
:1034FC0015FD1EE07B68DB69002B17D07B68DB6950
:10350C005A1E7B68DA6114E07B68DB69772B0FD875
:10351C007B68DB695A1C7B68DA610AE0C04608E00C
:10352C00C04606E0C04604E0C04602E0C04600E0EB
:10353C00C0467B68180000F021F8BD4604B0B0BD51
:10354C0090B583B000AF0C4B1B68FC1D1800FFF747
:10355C0036FD03002370FB1D1B78012B02D0022BC0
:10356C0002D003E04F2302E05A2300E02D23180081
:10357C00BD4603B090BDC0464800002090B589B050
:10358C0000AF78607B6824229B5C0F2B01D900F084
:10359C00D3FB9A00D24BD3181B689F467B68986864
:1035AC00D04B00220021FEF782FE7B689B68012233
:1035BC0000211800FEF718FE7B689C68FFF7A1FC41
:1035CC0003001A00C84B19002000FEF7D2FE7B68DE
:1035DC009C68FFF79CFC03001A00C44B19002000E8
:1035EC00FEF7C7FE00F0A8FB7B689B680022002159
:1035FC001800FEF7F9FD7B689C680220FEF730FD91
:10360C000200BB4B19002000FEF7B3FE7B689B68E1
:10361C0001211800FEF761FE7B689868B54B01220A
:10362C000021FEF744FE7B689C68B34B1B681800B6
:10363C00FFF712FA030019002000FEF720FE7B684A
:10364C009B68AE4A11001800FEF719FE7B689B6858
:10365C0001220B211800FEF7C7FD7B689C68FFF761
:10366C006FFF030019002000FEF7EBFD7B689C68E0
:10367C00A14B1B681800FDF71CF8031E01D050234A
:10368C0000E02D2319002000FEF7DBFD7B689C6811
:10369C00994B1B681800FDF71FF8031E01D053232C
:1036AC0000E02D2319002000FEF7CBFD7B689C6801
:1036BC00914B1B681800FFF704F9031E01D041233E
:1036CC0000E02D2319002000FEF7BBFD7B689C68F1
:1036DC008B4B1B681800FFF75FFC031E01D05623B1
:1036EC0000E02D2319002000FEF7ABFD24E37B68DE
:1036FC009868844B00220021FEF7D9FD7B689B68FB
:10370C00012200211800FEF76FFD7B689B687E4A42
:10371C0011001800FEF7B3FD7B689C687B4B1B689F
:10372C00B0331800FCF744FF031E01D02D2300E03A
:10373C002A2319002000FEF784FD7B689C68734BDC
:10374C001B68B8331800FCF733FF031E01D02D2380
:10375C0000E02A2319002000FEF773FD7B689C68AB
:10376C006A4B1B68C0331800FCF722FF031E01D004
:10377C002D2300E02A2319002000FEF762FD7B6850
:10378C009C68624B1B68C8331800FCF711FF031EC2
:10379C0001D02D2300E02A2319002000FEF751FD53
:1037AC007B689B68584A11001800FEF768FD7B681F
:1037BC009C68564B1B68D0331800FCF7F9FE031EAF
:1037CC0001D02D2300E02A2319002000FEF739FD3B
:1037DC007B689C684D4B1B68D8331800FCF7E8FEDF
:1037EC00031E01D02D2300E02A2319002000FEF730
:1037FC0028FD7B689C68454B1B68E0331800FCF780
:10380C00D7FE031E01D02D2300E02A23190020002F
:10381C00FEF717FD7B689C683C4B1B68E83318006F
:10382C00FCF7C6FE031E01D02D2300E02A2319004D
:10383C002000FEF706FD7B689B68334A11001800D8
:10384C00FEF71DFD7B689C68304B1B68F03318003D
:10385C00FCF7AEFE031E01D02D2300E02A23190035
:10386C002000FEF7EEFC7B689C68284B1B68F83345
:10387C001800FCF79DFE031E01D02D2300E02A2327
:10388C0019002000FEF7DDFC7B689C681F4B1B6851
:10389C000133FF331800FCF78BFE031E01D02D23E0
:1038AC0000E02A2319002000FEF7CBFC7B689C6803
:1038BC00164B1B680933FF331800FCF779FE031E07
:1038CC0001D02D2300E02A2319002000FEF7B9FCBB
:1038DC007B689B680C4A11001800FEF7D0FC2BE2A9
:1038EC005C7D0008887B00089C7B0008B87B000886
:1038FC00AC7B0008C07B000834000020C47B0008AF
:10390C0048000020C87B0008DC7B00082000002059
:10391C007B689868E24B00220021FEF7C8FC7B68AC
:10392C009B68012200211800FEF75EFC7B689B68F7
:10393C00DC4A11001800FEF7A2FC7B689C68DA4B8D
:10394C001B6808331800FDF75BF9031E01D04F23E9
:10395C0000E05A2319002000FEF773FC7B689C687A
:10396C00D14B1B6810331800FDF74AF9031E01D028
:10397C004F2300E05A2319002000FEF762FC7B68FD
:10398C009C68C94B1B681800FDF73AF9031E01D05F
:10399C004F2300E05A2319002000FEF752FC7B68ED
:1039AC009C68C14B1B6818331800FDF729F9031EDE
:1039BC0001D05A2300E04F2319002000FEF741FCF0
:1039CC007B689B68B94A11001800FEF758FC7B68AD
:1039DC009C68B54B1B6820331800FDF711F9031ECA
:1039EC0001D02A2300E02D2319002000FEF729FC2A
:1039FC007B689B68AE4A11001800FEF740FC9BE107
:103A0C007B689868AB4B00220021FEF750FC7B686A
:103A1C009B68012200211800FEF7E6FB7B689B687F
:103A2C00A54A11001800FEF72AFC7B689C689E4B87
:103A3C001B689133FF331800FCF7BAFD031E01D04D
:103A4C002D2300E02A2319002000FEF7FAFB7B68E7
:103A5C009B689A4A11001800FEF711FC7B689C6861
:103A6C00914B1B68A933FF331800FCF7A1FD031E13
:103A7C0001D02D2300E02A2319002000FEF7E1FBE2
:103A8C007B689B688E4A11001800FEF7F8FB7B6878
:103A9C009C68854B1B68A133FF331800FCF788FD2D
:103AAC00031E01D02D2300E02A2319002000FEF76D
:103ABC00C8FB7B689B68834A11001800FEF7DFFB8C
:103ACC007B689C68784B1B689933FF331800FCF7B4
:103ADC006FFD031E01D02D2300E02A2319002000C6
:103AEC00FEF7AFFB28E17B689868774B002200213A
:103AFC00FEF7DDFB7B680C3308243A191100180023
:103B0C00FFF754F97B689B68012200211800FEF72F
:103B1C006BFB7B6898683A196C492D23FEF754FCB3
:103B2C000AE17B6898686A4B00220021FEF7BFFB14
:103B3C007B680C3310243A1911001800FFF75DF95B
:103B4C007B689B68012200211800FEF74DFB7B6807
:103B5C0098683A195F492D23FEF736FCECE07B6838
:103B6C0098685D4B00220021FEF7A1FB7B689868EA
:103B7C005A4B01220021FEF79AFBDDE07B68986826
:103B8C00574B00220021FEF792FB7B689B680121BA
:103B9C001800FEF7A2FB7B689868524B01220021AB
:103BAC00FEF785FB7B689C687B68DB69DBB21800E1
:103BBC00FEF760FF030019002000FEF760FB7B6836
:103BCC009B68494A11001800FEF759FBB4E07B686A
:103BDC009868464B00220021FEF769FB7B689B68C6
:103BEC00012200211800FEF7FFFA7B689B68404A0F
:103BFC0011001800FEF743FB9EE07B6898683D4B74
:103C0C0000220021FEF753FB7B689B6801220021F8
:103C1C001800FEF7E9FA7B689B68374A1100180018
:103C2C00FEF72DFB88E07B689868344B002200215E
:103C3C00FEF73DFB7B6898682F4B01220021FEF7B5
:103C4C0036FB79E07B6898682D4B00220021FEF74B
:103C5C002EFB7B680C3318243A1911001800FFF75F
:103C6C00A5F87B689B68012200211800FEF7BCFABE
:103C7C007B6898683A1915492D23FEF7A5FB5BE084
:103C8C007B6898681F4B00220021FEF710FB7B68B5
:103C9C009868194B01220021FEF709FB4CE0C04645
:103CAC00E07B0008F47B000820000020FC7B00086F
:103CBC00DC7B0008047C0008187C00081C7C0008D5
:103CCC00207C0008247C0008287C00083C7C000830
:103CDC00507C0008647C0008787C00088C7C000810
:103CEC00A07C0008B47C0008B87C0008BC7C0008F0
:103CFC00D07C0008E47C0008F87C00080C7D0008EF
:103D0C00207D0008347D00087B6898680C4B0022ED
:103D1C000021FEF7CCFA7B689B6801220021180079
:103D2C00FEF762FA7B6898687B68DB691B041A0CE7
:103D3C00044B1900FEF71DFBBD4609B090BDC046F3
:103D4C00347D0008487D000880B584B000AF0200C7
:103D5C00FB1D1A703B1D0A1C1A800E23FA18FB1D42
:103D6C001B7811001800FEF745F903001A00012317
:103D7C005340DBB2002B01D0002316E00E23FB18BE
:103D8C001A883B1D1B88D3189AB2FB1D1B78110097
:103D9C001800FEF705F903001A0001235340DBB2AB
:103DAC00002B01D0002300E001231800BD4604B015
:103DBC0080BD90B585B000AF78607B68DB68103350
:103DCC001C007B681800FCF756FC03001A0001234A
:103DDC005340DBB219002000FCF7FFFE7B68DB6868
:103DEC0008331C007B681800FCF754FC03001A0015
:103DFC0001235340DBB219002000FCF7EEFE7B6878
:103E0C00DB6818331C007B681800FEF75AFD0300B2
:103E1C001A0001235340DBB219002000FCF7DDFE31
:103E2C007B68DB681C007B68DB68E8331800FCF7F8
:103E3C00BFFB030019002000FCF7CFFE0F23FB187B
:103E4C0000221A707B681800FCF733FC031E03D0A9
:103E5C000F23FB1801221A707B681800FCF73CFC3E
:103E6C00031E0CD07B681800FCF714FC03001A002E
:103E7C0001235340DBB2002B01D0012300E00023CF
:103E8C00002B03D00F23FB1801221A707B68DB6810
:103E9C0020331A000F23FB181B7819001000FCF7B5
:103EAC009CFEBD4605B090BD80B582B000AF786079
:103EBC000A00FB1C1A707B68DB6828331A00FB1C99
:103ECC001B7819001000FCF788FEBD4602B080BDBF
:103EDC00B0B584B000AF78607B681800FEF766FB65
:103EEC000200136804331B680F257C1910009847D7
:103EFC00030023707B191B78012B04D00F23FB18B4
:103F0C001B78002B01D1012300E000231800BD46D3
:103F1C0004B0B0BD80B582B000AF78607B689B7C8C
:103F2C00012B03D001210220FFF70EFF7B68012239
:103F3C009A747B681800FEF7B7FB7B685B7C1800F3
:103F4C00BD4602B080BD80B582B000AF78607B68A2
:103F5C009B7C022B03D001210220FFF7F5FE7B682E
:103F6C0002229A747B681800FEF79EFB7B685B7CD0
:103F7C001800BD4602B080BD80B582B000AF78603D
:103F8C007B681800FEF790FB7B681800FFF711FFA9
:103F9C00BD4602B080BD80B582B000AF78607B6852
:103FAC001B7C1800BD4602B080BD000080B582B0FD
:103FBC0000AF78601C4B1B681800FEF78CFC0300EC
:103FCC001A0001235340DBB2002B01D0002326E062
:103FDC007B681B68D0331800FCF7EAFA03001A0060
:103FEC0001235340DBB2002B16D17B681B68E033F6
:103FFC001800FCF7DDFA03001A0001235340DBB272
:10400C00002B09D1FDF758FD03005B691800FFF781
:10401C00C2FF0300012B01D1012300E00023180093
:10402C00BD4602B080BDC0463400002080B582B0D1
:10403C0000AF7860194B1B681800FEF778FC030082
:10404C001A0001235340DBB2002B01D0002320E0E7
:10405C007B681B68D8331800FCF7AAFA03001A0017
:10406C0001235340DBB2002B10D10C4B1B68180002
:10407C00FCF745FB031E09D1FDF71EFD03005B6930
:10408C001800FFF788FF0300022B01D1012300E089
:10409C0000231800BD4602B080BDC046340000208D
:1040AC0090B585B000AF78608F4B1B681800FFF798
:1040BC0063FF7B681800FFF779FF031E05D17B684F
:1040CC001800FFF7B3FF031E01D0012200E000220D
:1040DC000E23FB181A707B681800FEF75DFF0300B7
:1040EC001A0001235340DBB2002B02D07B68002264
:1040FC001A737D4B1B681800FEF7B2FB031E0CD025
:10410C007B681800FEF748FF031E06D00E23FB1831
:10411C001B78002B01D0012200E000220D23FB189C
:10412C001A700F23FB1800221A700E23FB181B7831
:10413C00002B00D1B1E07B689B68352B00D2352376
:10414C00353B1A007B689A607B689B68002B00D01B
:10415C00AFE07B681800FFF769FF031E44D07B6853
:10416C001B79022B21D07B6802221A715E4B1B68D3
:10417C001800FCF7C4FA031E0DD00720FDF770FFE2
:10418C00020013005B019B1A9B009B18DB00F533AC
:10419C00FF331A0001E0FA235A007B689A60524BF5
:1041AC001B681800FEF7E4FB83E07B681B68483350
:1041BC001A000D243B191B7819001000FCF70DFD9B
:1041CC007B681B6840331A003B191B7819001000E0
:1041DC00FCF703FD444B1B681800FFF7B4FE0F23DC
:1041EC00FB1801221A7064E07B681800FFF7DEFEF2
:1041FC00031E45D07B681B79012B22D07B681800ED
:10420C00FEF7CAFE031E0ED07B681B7B002B03D06F
:10421C007B6800221A7109E07B6801221A737B68A3
:10422C0001221A7102E07B6801221A717B68FA2262
:10423C0052009A602C4B1B681800FEF799FBC04685
:10424C0037E07B681B6848331A000D243B191B7838
:10425C0019001000FCF7C1FC7B681B6840331A0086
:10426C003B191B7819001000FCF7B7FC1E4B1B68A0
:10427C001800FFF74FFE0F23FB1801221A7018E0ED
:10428C007B6800221A71184B1B681800FEF770FB34
:10429C007B68FA2252009A600BE07B6800221A714C
:1042AC00114B1B681800FEF763FB7B68FA22520067
:1042BC009A600E4BBB607B689B680C4A934202D998
:1042CC007B680A4A9A60084B1A680F23FB181B7804
:1042DC0019001000FFF7E8FD7B68180000F008F8E3
:1042EC00BD4605B090BDC04634000020B4D60100D8
:1042FC0080B582B000AF7860344B1B681800FCF7B7
:10430C00D8F9031E08D07B681B686133FF33042186
:10431C001800FDF777F917E02C4B1B681800FCF719
:10432C00DBF9031E08D07B681B686133FF33022165
:10433C001800FDF767F907E07B681B686133FF33F2
:10434C0001211800FDF75EF9204B1B681800FEF7E1
:10435C00B8FA031E08D07B681B687133FF33022147
:10436C001800FDF74FF907E07B681B687133FF33CA
:10437C0001211800FDF746F97B681800FEF70CFECA
:10438C00031E08D07B681B688133FF33052118009E
:10439C00FDF738F917E00D4B1B681800FFF798FD77
:1043AC00031E08D07B681B688133FF330221180081
:1043BC00FDF728F907E07B681B688133FF33002188
:1043CC001800FDF71FF9BD4602B080BD3400002077
:1043DC0080B500AF034B1B681800FFF761FEBD46AC
:1043EC0080BDC0464800002080B582B000AF786028
:1043FC0039607B68012B09D13B68064A934205D191
:10440C00054A06483523022101F05AFDBD4602B08B
:10441C0080BDC046FFFF0000DD43000814010020F2
:10442C0080B500AF034B19000120FFF7DDFFBD463F
:10443C0080BDC046FFFF000080B582B000AF020017
:10444C00FB1D1A70034BFA1D12781A70BD4602B090
:10445C0080BDC0464C00002080B582B000AF7860B3
:10446C00034A7B681A607B681800BD4602B080BDA9
:10447C002C7E000880B584B000AF78600A00FB1C6D
:10448C001A707B681A68FB1C1B785B00DA401300FF
:10449C00FB60FB68DBB203221340DBB21800BD46A5
:1044AC0004B080BD80B584B000AF78600A00FB1CFE
:1044BC001A707B68DA68FB1C1B785B00DA4013000F
:1044CC00FB60FB68DBB203221340DBB21800BD4675
:1044DC0004B080BD80B584B000AF78600A00FB1CCE
:1044EC001A707B689A68FB1C1B785B00DA4013001F
:1044FC00FB60FB68DBB203221340DBB21800BD4645
:10450C0004B080BD80B584B000AF78600A00FB1C9D
:10451C001A707B689B889BB21A00FB1C1B781A4193
:10452C001300FB60FB68DBB201221340DBB2180006
:10453C00BD4604B080BDB0B584B000AFF8600800D3
:10454C007A6019000B243B19021C1A700A257B197E
:10455C000A1C1A707B191A787B6811001800FFF777
:10456C0089FF03001A003B191978FB681800FCF747
:10457C004FF97B191A787B6811001800FFF7C2FFFE
:10458C0003001A003B191978FB681800FCF7B6F900
:10459C007B191A787B6811001800FFF783FF030062
:1045AC001A003B191978FB681800FCF780F97B1985
:1045BC001A787B6811001800FFF78CFF03001A00B3
:1045CC003B191978FB681800FCF749F9BD4604B093
:1045DC00B0BD80B582B000AF786039607B68186878
:1045EC007B6819793B681A683B681B79FFF7A3FF56
:1045FC00BD4602B080BD80B582B000AF02F0BEF9FE
:10460C0001F0B0FC03001A00FB1D043A51424A4170
:10461C001A7002F0C9F9FB1D1B781800BD4602B0D8
:10462C0080BD80B582B000AF78607B685B79180084
:10463C00BD4602B080BD80B582B000AF78600A0084
:10464C00FB1C1A707B68FA1C12781A717B681B7938
:10465C00002B06D07B681B681B687A68022110004F
:10466C00984701231800BD4602B080BD80B582B0CA
:10467C0000AF7860034A7B681A607B681800BD46FF
:10468C0002B080BD107E000880B582B000AF7860AB
:10469C00064A7B681A607B6801221A717B680222C9
:1046AC005A717B681800BD4602B080BD107E0008B0
:1046BC0080B584B000AFF860B9607A60FB68180010
:1046CC00FFF7E2FF064AFB681A60FB68BA689A605B
:1046DC00FB687A68DA60FB681800BD4604B080BDE0
:1046EC00F47D000880B582B000AF78607B689B6871
:1046FC001800FCF778FF7B68DB681800FCF773FF89
:10470C00BD4602B080BD80B582B000AF78600A00B3
:10471C00FB1C1A707B681B79002B02D0FB1C02223D
:10472C001A707B68FA1C12785A717B685B79002BC3
:10473C0002D0012B0BD015E07B689B681800FCF7AE
:10474C0052FF7B68DB681800FCF73EFF14E07B68C7
:10475C00DB681800FCF747FF7B689B681800FCF7C8
:10476C0033FF09E07B689B681800FCF73CFF7B6813
:10477C00DB681800FCF737FFBD4602B080BD0000B7
:10478C0080B582B000AF78607B68084909221800B8
:10479C00FDF760FA7B68083304490B221800FDF71B
:1047AC0059FA7B681800BD4602B080BD0010004865
:1047BC0080B582B000AF7860034A7B681A607B6872
:1047CC001800BD4602B080BD847A000880B582B066
:1047DC0000AF78607B681800FFF7EAFF184A7B6827
:1047EC001A607B68043310220021180003F000F9D2
:1047FC007B6804331800FFF7C3FF7B681433180081
:10480C009023DB050F221900FDF724FA7B680022A8
:10481C009A837B6800221A627B6800225A627B684A
:10482C002822022199547B682922002199547B6803
:10483C000022DA627B681800BD4602B080BDC0461B
:10484C00647A000880B582B000AF78600A00FB1C67
:10485C001A707B68FA1C12785A757B685B7D022B88
:10486C0005D0032B56D0012B00D1A3E0ADE07B6823
:10487C001B7D012B3BD0032B02D0002B24D0BAE0A4
:10488C007B689B681800FCF7BBF903001A00012336
:10489C005340DBB2002B04D07B685B681800FCF73C
:1048AC0093FE7B681B691800FCF7AAF903001A0039
:1048BC0001235340DBB2002B00D191E07B68DB6815
:1048CC001800FCF781FE96E07B689B681800FCF7EB
:1048DC0097F903001A0001235340DBB2002B00D1DF
:1048EC0080E07B685B681800FCF76EFE83E07B68F9
:1048FC001B691800FCF784F903001A0001235340CC
:10490C00DBB2002B00D16FE07B68DB681800FCF792
:10491C005BFE70E07B681B7D012B39D0042B02D031
:10492C00002B23D067E07B685B681800FCF768F904
:10493C0003001A0001235340DBB2002B04D07B6828
:10494C009B681800FCF740FE7B68DB681800FCF7DE
:10495C0057F903001A0001235340DBB2002B45D05A
:10496C007B681B691800FCF72FFE44E07B68DB6852
:10497C001800FCF745F903001A0001235340DBB281
:10498C00002B35D07B681B691800FCF71DFE32E04C
:10499C007B685B681800FCF733F903001A000123ED
:1049AC005340DBB2002B25D07B689B681800FCF7CA
:1049BC000BFE20E07B685B681800FCF714FE7B683C
:1049CC00DB681800FCF70FFE15E07B689B6818008D
:1049DC00FCF709FE7B681B691800FCF704FE0AE073
:1049EC00C04608E0C04606E0C04604E0C04602E00F
:1049FC00C04600E0C046BD4602B080BD80B584B064
:104A0C0000AFF860B9607A603B60FB681800FFF794
:104A1C00CFFE0E4AFB681A60FB6804221A75FB680D
:104A2C0000225A75FB6800229A61FB68BA685A60CA
:104A3C00FB687A689A60FB683A68DA60FB68BA6966
:104A4C001A61FB681800BD4604B080BDD47D000817
:104A5C0080B584B002AF78607B68586802230093FD
:104A6C00002300220121FCF7DCF87B685B6818004E
:104A7C00FCF7B9FD7B689A687B685B6819001000CD
:104A8C00FFF7A7FD7B689B681800FCF7ACFD7B6803
:104A9C00DA687B685B6819001000FFF79AFD7B6889
:104AAC00DB681800FCF79FFD7B681A697B685B6804
:104ABC0019001000FFF78DFD7B681B691800FCF7CF
:104ACC0092FD7B681B6808331B687A680221100012
:104ADC0098477B6800211800FFF7B4FEBD4602B072
:104AEC0080BD80B582B000AF78600A00FB1C1A70E4
:104AFC007B681B7DFA1C12789A4208D07B68FA1CE2
:104B0C0012781A757B6800211800FFF79BFEBD46D2
:104B1C0002B080BD80B582B000AF78607B681B7D31
:104B2C001800BD4602B080BD80B584B000AF78607F
:104B3C007B689B695A1C7B689A617B689B69042B18
:104B4C0030D97B6800229A610F217B187A68527DDC
:104B5C001A707B181B78012B0ED002DC002B05D0B1
:104B6C0016E0022B0ED0032B1BD011E07B68012129
:104B7C001800FFF767FE15E07B6802211800FFF7AD
:104B8C0061FE0FE07B6803211800FFF75BFE09E074
:104B9C007B681B6808331B687A68022110009847F1
:104BAC0000E0C046BD4604B080BD000080B584B0B6
:104BBC0000AFF860B9607A60FB681800FFF764FD1D
:104BCC00084AFB681A60FB6800221A74FB68BA6812
:104BDC009A60FB687A68DA60FB681800BD4604B01E
:104BEC0080BDC046B87D000880B582B000AF78604B
:104BFC007B689A687B689B681B6814331B68100081
:104C0C0098477B68DA687B68DB681B6814331B6821
:104C1C0010009847BD4602B080BD80B582B000AF91
:104C2C0078600A00FB1C1A707B681B79002B02D081
:104C3C00FB1C02221A707B68FA1C12785A717B6872
:104C4C001B7C002B45D07B685B79002B02D0012BA1
:104C5C0015D029E07B689A687B689B681B680833D1
:104C6C001B680021100098477B68DA687B68DB685A
:104C7C001B6808331B680121100098476CE07B68A7
:104C8C009A687B689B681B6808331B6801211000BD
:104C9C0098477B68DA687B68DB681B6808331B689D
:104CAC0001211000984757E07B689A687B689B68E5
:104CBC001B6808331B680421100098477B68DA686E
:104CCC007B68DB681B6808331B680421100098475D
:104CDC0042E07B685B79012B13D002DC002B05D002
:104CEC0030E0032B18D0042B21D02BE07B68DA6842
:104CFC007B68DB681B6808331B6800211000984731
:104D0C002AE07B68DA687B68DB681B6808331B6801
:104D1C000121100098471FE07B68DA687B68DB682C
:104D2C001B6808331B6803211000984714E07B684C
:104D3C00DA687B68DB681B6808331B680421100089
:104D4C00984709E07B68DA687B68DB681B68083386
:104D5C001B68022110009847BD4602B080BD80B58B
:104D6C0082B000AF786039607B6800221A717B6872
:104D7C0001225A717B6802229A717B683A681A6028
:104D8C007B681800BD4602B080BD80B582B000AF14
:104D9C0078607B681A687B681B681B6814331B6817
:104DAC00100098477B6801211800FDF753FBBD46A6
:104DBC0002B080BD80B582B000AF78607B68002205
:104DCC005A737B6801221A737B6800229A60BD4675
:104DDC0002B080BD80B584B000AFF860B960FB1D37
:104DEC001A70F868FB1D1A78BB681900FCF732FFC3
:104DFC00FB681800FFF7DEFFFB681800BD4604B027
:104E0C0080BD80B584B002AF786008001100FB1C37
:104E1C00021C1A70BB1C0A1C1A707B68FA1C1278D4
:104E2C005A737B68BA1C12781A737B6800229A60DA
:104E3C00786800230093002300220121FBF7F1FE88
:104E4C00BD4602B080BD000080B586B002AF786070
:104E5C008C4B5A698B4BFC21C9030A435A61894B11
:104E6C005B69FB60FB6878680023009300230022D9
:104E7C000121FBF7D6FE7B6808337A681100180015
:104E8C00FFF7A7FB7B6810337A6811001800FFF757
:104E9C00A0FB7B6818337A6811001800FFF799FBA8
:104EAC007B6820337A6811001800FFF792FB7B684F
:104EBC0028337A6811001800FFF78BFB7B683033BE
:104ECC007A6811001800FFF784FB7B6838337A6826
:104EDC0011001800FFF77DFB7B6840337A681100E6
:104EEC001800FFF776FB7B6848337A6811001800CE
:104EFC00FFF76FFB7B6890331800002300930123AE
:104F0C0001220021FBF78DFE7B6898331A007B6829
:104F1C00903319001000FFF75CFB7B68A0331A007C
:104F2C007B68903319001000FFF753FB7B68A833A4
:104F3C001A007B68903319001000FFF74AFB7B685E
:104F4C00B0331A007B68903319001000FFF741FB57
:104F5C007B68B8331A007B68903319001000FFF798
:104F6C0038FB7B68C0331A007B6890331900100043
:104F7C00FFF72FFB7B68C8331A007B68903319004E
:104F8C001000FFF726FB7B68D0331A007B68903348
:104F9C0019001000FFF71DFB7B68D8331A007B68E3
:104FAC00903319001000FFF714FB7B68E0331A00F4
:104FBC007B68903319001000FFF70BFB7B68E8331C
:104FCC001A007B68903319001000FFF702FB7B6816
:104FDC00F0331A007B68903319001000FFF7F9FAD0
:104FEC007B68F8331A007B68903319001000FFF7C8
:104FFC00F0FA7B685A1CFF327B6890331900100062
:10500C00FFF7E7FA7B680933FF331A007B689033AC
:10501C0019001000FFF7DDFA7B689133FF331A009B
:10502C007B68903319001000FFF7D3FA7B68993333
:10503C00FF331A007B68903319001000FFF7C9FA90
:10504C007B68A133FF331A007B6890331900100082
:10505C00FFF7BFFA7B68A933FF331A007B689033E4
:10506C0019001000FFF7B5FA7B68B133FF33180055
:10507C0003230093012301220021FBF7D2FDBD463F
:10508C0004B080BD0010024080B584B000AFF86061
:10509C00B9607A603B60FB680022DA60FB68002232
:1050AC001A74FB6800225A74FB6800229A74FB681D
:1050BC000022DA74FB68BA681A60FB687A685A6076
:1050CC00FB683A689A60FB681800BD4604B080BD66
:1050DC0080B582B000AF7860114B1A687B68DA60DB
:1050EC007B681B681800FFF77FFD7B685B68180006
:1050FC00FFF7F8FA7B689B681800FFF746FE032061
:10510C00FCF7AEFF0300DAB27B681A747B681800F8
:10511C00FDF740FB01231800BD4602B080BDC04620
:10512C002000002080B586B000AFF860B9607A60CE
:10513C003B60FB680433F9680422180000F064FD3E
:10514C00FB68BA68DA61FB687A681A62FB683A68CD
:10515C005A62FB683A6A9A621623FB1800221A807C
:10516C001623FB181B88032B0BD816203B181B8807
:10517C00FA680021D1543B181A883B1801321A8066
:10518C00EEE7FB681800BD4606B080BD80B584B064
:10519C0002AF78607B68D869002300930123012259
:1051AC000021FBF73EFD7B681A6A7B68DB691900FE
:1051BC001000FFF70EFA7B685A6A7B68DB691900EE
:1051CC001000FFF706FA7B689A6A7B68DB691900A6
:1051DC001000FFF7FEF9BD4602B080BD80B584B06B
:1051EC0000AF78600023FB607B681B69FA689A4209
:1051FC0009D87B685A69FB68D31820221A70FB689F
:10520C000133FB60F0E77B681800FCF793FFBD46A9
:10521C0004B080BD80B582B000AF78607B6800229E
:10522C005A807B6805221A807B6800221A717B6881
:10523C001800BD4602B080BD80B584B000AF786068
:10524C000420FCF70DFF02000E217B181A807B183E
:10525C001B88002B05D00E23FB181B88064A934293
:10526C0003D1064B1800FDF745FD7B681800FDF7D0
:10527C0050FDBD4604B080BDFFFF000019150000B5
:10528C0080B584B000AFF860B9607A603B60FB68B1
:10529C00BA681A60FB687A685A60FB683A689A6068
:1052AC00FB680C331800FFF7C7FFFB6824220021B2
:1052BC009954BD4604B080BD80B582B000AF786013
:1052CC00034A7B681A607B681800BD4602B080BD3B
:1052DC002C7E000880B582B000AF78607B68180027
:1052EC00FFF7EAFF0C4A7B681A607B6800225A6061
:1052FC007B6800229A607B680022DA607B6800225F
:10530C001A617B6800225A617B6800221A767B68DE
:10531C001800BD4602B080BDA47D000880B582B0E7
:10532C0000AF7860054A7B681A607B681800FFF74D
:10533C0093F87B681800BD4602B080BDA47D0008C0
:10534C0080B582B000AF78607B681800FFF7E6FF8D
:10535C007B681C21180002F059FA7B681800BD46C6
:10536C0002B080BD80B582B000AF7860BD4602B09F
:10537C0080BD80B582B000AF78607B685B68180038
:10538C00BD4602B080BD80B582B000AF78607B684E
:10539C001B691800BD4602B080BD80B584B000AF5B
:1053AC00F860B9607A603B60FB68BA681A60FB68A9
:1053BC007A685A60FB683A689A60FB68BA69DA6086
:1053CC00FB6804221A74FB681800BD4604B080BD4B
:1053DC0080B584B000AFF860B9607A603B60FB6860
:1053EC00BA689A60BB691800FFF7C3FF0200FB683C
:1053FC00DA60FB687A681A61FB683A685A61BB69C3
:10540C001800FFF7C0FF0200FB689A62FB683A6A5B
:10541C00DA61FB687A6A1A62FB68BA6A5A62FB68DC
:10542C001B691800FFF7B2FEFB68FA699A61FB680A
:10543C009869FB689968FB681A69FB68DB68FFF779
:10544C001FFFFB68DB69002200211800FFF7D9FC65
:10545C00FB681B6A002200211800FFF7D2FCFB68D6
:10546C005B6A002200211800FFF7CBFCBD4604B09C
:10547C0080BD000080B582B000AF7860064B1A6822
:10548C007B681A60054B1B6800211800FDF71EFB9A
:10549C00BD4602B080BDC046200000203400002074
:1054AC0080B582B000AF78607B68CC4909221800C7
:1054BC00FCF7D0FB7B680833C84903221800FCF7C3
:1054CC00C9FB7B681033C54902221800FCF7C2FBEC
:1054DC007B681833C24905221800FCF7BBFB7B68BC
:1054EC002033BF4904221800FCF7B4FB7B68283337
:1054FC0018009023DB050B221900FCF7ABFB7B6833
:10550C003033B84906221800FCF7A4FB7B6838330B
:10551C00B44909221800FCF79DFB7B684033B14964
:10552C0007221800FCF796FB7B6848331800902381
:10553C00DB0508221900FCF78DFB7B685033AA4968
:10554C000F221800FCF786FB7B685833A6490E2205
:10555C001800FCF77FFB7B686033A1490922180017
:10556C00FCF778FB7B6868339D490B221800FCF72D
:10557C0071FB7B6870339C490D221800FCF76AFBA9
:10558C007B68783398490C221800FCF763FB7B6826
:10559C008033934908221800FCF75CFB7B68883346
:1055AC008F490A221800FCF755FB7B6890338D4914
:1055BC0004221800FCF74EFB7B6898338B490022C1
:1055CC001800FCF747FB7B68A033884901221800C0
:1055DC00FCF740FB7B68A833844902221800FCF7D7
:1055EC0039FB7B68B03381490F221800FCF732FB82
:1055FC007B68B8337D490E221800FCF72BFB7B68C7
:10560C00C0337A490D221800FCF724FB7B68C833A1
:10561C0076490C221800FCF71DFB7B68D0337049CF
:10562C000F221800FCF716FB7B68D8336C490E224E
:10563C001800FCF70FFB7B68E03369490D2218005A
:10564C00FCF708FB7B68E83365490C221800FCF773
:10565C0001FB7B68F03318009023DB05072219004F
:10566C00FCF7F8FA7B68F83318009023DB05062268
:10567C001900FCF7EFFA7B68581CFF309023DB0510
:10568C0005221900FCF7E6FA7B680933FF33180092
:10569C009023DB0504221900FCF7DCFA7B6811333C
:1056AC00FF33504905221800FCF7D4FA7B681933F4
:1056BC00FF334B4902221800FCF7CCFA7B682133EC
:1056CC00FF3318009023DB050C221900FCF7C2FAFB
:1056DC007B682933FF33454906221800FCF7BAFAD8
:1056EC007B683133FF33414907221800FCF7B2FACB
:1056FC007B683933FF333C4904221800FCF7AAFAC3
:10570C007B684133FF33384905221800FCF7A2FAB5
:10571C007B684933FF33344906221800FCF79AFAA8
:10572C007B685133FF3331490A221800FCF792FA97
:10573C007B685933FF332D490B221800FCF78AFA8A
:10574C007B686133FF3318009023DB0500221900BE
:10575C00FFF740FB7B687133FF3318009023DB05A8
:10576C0001221900FFF736FB7B688133FF331800E9
:10577C009023DB0502221900FFF72CFB7B68913389
:10578C00FF33194908221800FCF764FA7B68993337
:10579C00FF33154909221800FCF75CFA7B68A1332A
:1057AC00FF3311490A221800FCF754FA7B68A9331D
:1057BC00FF330D490B221800FCF74CFA7B68B13310
:1057CC00FF3318009023DB050F221900FCF742FA77
:1057DC007B681800BD4602B080BDC046001400486E
:1057EC000010004800080048000C00480004004865
:1057FC0080B582B000AF78607B680C331800FFF77F
:10580C0009FD7B680022DA617B680022DA847B6800
:10581C002822002199547B681800BD4602B080BD37
:10582C0080B500AF044B1800FFF77EF9034B18004E
:10583C00FBF7A0FDBD4680BD200300203C030020EB
:10584C00F0B589B006AF0120FEF7F6FDFCF734FB8E
:10585C003C4B1B681800FFF7F7FA6420FCF74AFA78
:10586C00FEF7C9FE384B394A1A60374B6422DA60AE
:10587C00344B1B685933FF331A00334B5A60314B8E
:10588C001B685133FF331A002F4B9A60304B1B6847
:10589C002D4A1100180001F069FA2D4B1968294B9B
:1058AC001B681933FF331A00264B1B681133FF3367
:1058BC00284801F0B5FDFCF7FFF803007B60264B90
:1058CC001C68204B1B686133FF331A001D4B1B688F
:1058DC007133FF3319001B4B1B688133FF331F4E91
:1058EC001F4D78680493039102921E4B0193194B40
:1058FC00009333002A002100FFF76AFD7B68DB6808
:10590C001800FFF76BFC7B68DB6800211800FCF7C4
:10591C0022FD114B1B681800FFF7DAFB124B1B68BA
:10592C001800FFF7A7FD7B689B6900211800FDF7A5
:10593C00F5FA0020FEF780FDFCF7EEFA00F08CFA89
:10594C00FAE7C04620000020240000200058004048
:10595C00980300209C030020340000200C0300203E
:10596C00E0020020CC0300204800002080B582B06B
:10597C0000AF7860054A7B681A607B681800FEF7F8
:10598C0075FE7B681800BD4602B080BDB87D00086E
:10599C0080B582B000AF78607B681800FFF7E6FF37
:1059AC007B681421180001F031FF7B681800BD469C
:1059BC0002B080BD80B582B000AF7860054A7B68CC
:1059CC001A607B681800FBF75DF97B681800BD4610
:1059DC0002B080BDD47D000880B582B000AF786085
:1059EC007B681800FFF7E6FF7B681C21180001F0AC
:1059FC000DFF7B681800BD4602B080BD80B582B03B
:105A0C0000AF7860054A7B681A607B681800FEF767
:105A1C002DFE7B681800BD4602B080BDF47D0008E9
:105A2C0080B582B000AF78607B681800FFF7E6FFA6
:105A3C007B681021180001F0E9FE7B681800BD4658
:105A4C0002B080BD90B585B002AF786039607B68DC
:105A5C00012B6FD13B68464A93426BD1454B1800E2
:105A6C00DC235B001A00002101F0C2FF414B18003F
:105A7C00FFF716FD404C414A41494248424B0093C6
:105A8C002300FFF74FFB414B1B68A933FF33190071
:105A9C003E4B1B68A133FF331A003C4B1B689933F8
:105AAC00FF331C00394B1B689133FF33384800938C
:105ABC002300FFF772FC374C374A38493848394BCA
:105ACC0000932300FEF79AFF374B1800FEF77EFE7B
