:020000040800F2
:100000000040002041020008490200085102000897
:1000100000000000000000000000000000000000E0
:10002000000000000000000000000000770200084F
:1000300000000000000000007F020008D159000805
:10004000870200088702000887020008870200086C
:10005000870200088702000887020008870200085C
:10006000870200088702000887020008870200084C
:10007000870200088702000887020008870200083C
:10008000870200088702000887020008870200082C
:10009000870200088702000887020008A96B000891
:1000A000BD6B00088702000887020008870200086D
:1000B00087020008870200088702000887020008FC
:1000C0005FF808F180B58EB000AF00F031F94A4B0F
:1000D0004A4A1A604A4B494A1A604A4B3B634A4BA8
:1000E000FB624A4BBB62FB6A7B6207E03A6B131D03
:1000F0003B637B6A191D796212681A60BA6A7B6A6F
:100100009A42F3D83C4B1B68414A934204D13C4B82
:100110001B68404A934200D0FEE73F4B374A1A60C3
:100120003E4B364A1A603E4B3B623E4BFB613B6A9C
:10013000BB6104E0BB691A1DBA6100221A60FA694A
:10014000BB699A42F6D8344B1B68002B03D1334B62
:100150001B68002B00D0FEE700F0F0F83A003B1DD2
:100160001100180000F0D4F82F4A304BD31A9B101E
:10017000FB600023BB6007E02C4BBA689200D358A9
:100180009847BB680133BB60FA68BB689A42F3DCEE
:10019000274A284BD31A9B10FB600023BB6007E063
:1001A000244BBA689200D3589847BB680133BB60B0
:1001B000FA68BB689A42F3DC7B683A681100180061
:1001C00005F058F803007B631B4A1C4BD31A9B10A5
:1001D0007B617B693B6108E03B695A1E174B9200CB
:1001E000D35898473B69013B3B613B69002BF3DCEB
:1001F0007B6B180000F07CF800000020BABADECA61
:10020000B40000208078000800000020B800002022
:100210007856341232547698B800002050050020E9
:10022000B800002054050020BC020008BC020008F1
:10023000D4020008BC020008DC020008D402000856
:1002400080B500AFFFF73EFF80B500AF00BEFEE710
:1002500004207146084202D0EFF3098001E0EFF379
:10026000088071460A4A104780B582B000AF7860B6
:10027000396000BEFEE780B500AF00BEFEE780B586
:1002800000AF00BEFEE780B500AF00BEFEE7000095
:0402900069020008F7
:100294008078000800000020B80000208078000862
:1002A4000000000000000000B800002054050020F9
:1002B4000000000000000000D90D00082D14000803
:1002C400D536000855560008156C00085972000808
:0802D4006D560008717200086C
:1002DC0080B582B000AF024B7B6000F009F8C046DD
:1002EC007C74000880B582B000AF7860FEE7000037
:1002FC0080B582B000AF024B7B600120FFF7F2FFAC
:10030C009074000880B582B000AF786039607B686B
:10031C0001221A603B68024A1A60BD4602B080BDD9
:10032C000400002080B500AF00F008F8BD4680BD89
:10033C0080B500AF00F048F8BD4680BD80B500AF79
:10034C001B4B1A681A4B01210A431A60184B5A6846
:10035C00174B18490A405A60154B1A68144B16492A
:10036C000A401A60124B1A68114B14490A401A6061
:10037C000F4B5A680E4B12490A405A600C4BDA6A02
:10038C000B4B0F218A43DA62094B1A6B084B0D4950
:10039C000A401A63064B5A6B054B01218A435A6378
:1003AC00034B00229A6000F07DF8BD4680BDC0462C
:1003BC00001002400CB8FF08FFFFF6FEFFFFFBFF2A
:1003CC00FFFFC0FFACFEFFFF80B584B000AF002381
:1003DC00FB600023BB6000237B6000233B602D4B44
:1003EC005B680C221340FB60FB68042B07D0082BC6
:1003FC0009D0002B38D1284B284A1A6037E0264BFD
:10040C00264A1A6033E0234B5A68F0239B031340AF
:10041C00BB60204B5A68C0235B0213407B60BB68F7
:10042C009B0C0233BB607B68002B0CD1B9680A00B3
:10043C005201521A93019B1ADB005B181B021A0023
:10044C00154B1A6013E0134BDB6A0F221340013378
:10045C003B603968114806F077FF03001A00BB684F
:10046C005A430D4B1A6002E00B4B0C4A1A60094BB5
:10047C005B681B090F221340094AD35CDBB2FB609B
:10048C00054B1A68FB68DA40034B1A60BD4604B092
:10049C0080BDC046001002400C00002000127A0003
:1004AC001000002080B582B000AF00237B600023D9
:1004BC003B60304B1A682F4B802149020A431A606B
:1004CC002C4B1A6880239B0213403B607B680133E2
:1004DC007B603B68002B04D17A68A023DB019A4235
:1004EC00EED1244B1A6880239B02134002D00123C7
:1004FC003B6001E000233B603B68012B36D11E4B77
:10050C0011221A601B4A1B4B52685A60194A194B2C
:10051C0052685A60174B5A68164B18490A405A6071
:10052C00144B5A68134B882149030A435A60114BE8
:10053C001A68104B802149040A431A600D4B1A6843
:10054C0080239B041340F9D00A4B5A68094B0321B2
:10055C008A435A60074B5A68064B02210A435A6079
:10056C00044B5B680C221340082BF9D1BD4602B03A
:10057C0080BDC0460010024000200240FF7FC0FF3B
:10058C0080B582B000AF78600A00FB1C1A707B68E3
:10059C001B8A9BB21A00FB1C1B781A411300012208
:1005AC0013405A1E9341DBB21800BD4602B080BD09
:1005BC0080B582B000AF78607B681A687B681B7965
:1005CC0019001000FFF7DCFF03001800BD4602B055
:1005DC0080BD80B582B000AF78607B68180000F0F9
:1005EC0038F803001A0001235340DBB2002B01D072
:1005FC0000232AE07B681B681800FFF7D9FF030073
:10060C001A0001235340DBB2002B01D001231CE064
:10061C007B689B681800FFF7CBFF03001A000123CF
:10062C005340DBB2002B01D002230EE07B685B68E9
:10063C001800FFF7BDFF03001A0001235340DBB283
:10064C00002B01D0032300E004231800BD4602B0A8
:10065C0080BD80B582B000AF78607B68DB68180025
:10066C00FFF7A6FF03001A0001235340DBB218006A
:10067C00BD4602B080BD80B582B000AF78607B68AB
:10068C00DB68B8331800FFF793FF03001800BD4672
:10069C0002B080BD80B582B000AF78607B68DB684B
:1006AC00B0331800FFF784FF03001800BD4602B0FA
:1006BC0080BD80B582B000AF78607B68DB68E833C2
:1006CC001800FFF775FF03001A0001235340DBB23B
:1006DC001800BD4602B080BD80B582B000AF786016
:1006EC007B68DB68F0331800FFF762FF03001A0029
:1006FC0001235340DBB21800BD4602B080BD80B56B
:10070C0082B000AF78607B681800FFF7D2FF031E41
:10071C0005D17B681800FFF7DFFF031E01D0012312
:10072C0000E000231800BD4602B080BDB0B584B017
:10073C0000AF7860344B1B681800FFF7E0FF031E16
:10074C0003D07B6800221A745AE00F257C197B6851
:10075C001800FFF73EFF030023707B191B78042B56
:10076C004ED89A00294BD3181B689F46264B1B6802
:10077C001800FFF780FF031E01D0032202E00F23B5
:10078C00FB181A787B681A743AE01F4B1B68180028
:10079C00FFF780FF031E01D0032202E00F23FB189A
:1007AC001A787B681A742BE07B680F22BA181278BF
:1007BC001A7425E07B681B7C012B04D0022B0DD016
:1007CC00002B16D01CE0104B1B681800FFF753FFD2
:1007DC00031E12D07B6803221A7411E00A4B1B68AB
:1007EC001800FFF757FF031E09D07B6803221A7409
:1007FC0006E07B6803221A7402E0C04600E0C046A3
:10080C00BD4604B0B0BDC04634000020A47400083E
:10081C0080B582B000AF78600A00FB1C1A70FB1C1C
:10082C001B7801229A4013001A007B689A61BD461E
:10083C0002B080BD80B582B000AF78600A00FB1CAE
:10084C001A70FB1C1B78103301229A4013001A00FB
:10085C007B689A61BD4602B080BD80B582B000AFA6
:10086C00786008001100FB1C021C1A70BB1C0A1CCF
:10087C001A70BB1C1B78002B07D0FB1C1A787B68EA
:10088C0011001800FFF7C4FF06E0FB1C1A787B6808
:10089C0011001800FFF7CEFFBD4602B080BD80B539
:1008AC0082B000AF78607B681A687B681B7919008E
:1008BC001000FFF7ADFFBD4602B080BD80B582B021
:1008CC0000AF78607B681A687B681B791900100090
:1008DC00FFF7B0FFBD4602B080BD80B582B000AF5F
:1008EC0078600A00FB1C1A707B6818687B681979A1
:1008FC00FB1C1B781A00FFF7B0FFBD4602B080BD91
:10090C0080B582B000AF78600A00FB1C1A707B685F
:10091C00FA1C12781A73BD4602B080BD90B585B032
:10092C0000AF786039607B689A683B68D2187B6846
:10093C009A607B689B68404A934209D97B689B68A4
:10094C006421180006F086FD0B001A007B689A6083
:10095C007B689B686421180006F0F6FC03001A0003
:10096C000F23FB181A707B681B7B062B5ED89A0032
:10097C00324BD3181B689F467B681800FFF78FFF1C
:10098C0057E07B681800FFF799FF52E078680F2357
:10099C00FB181A780421002391425B41DBB2190049
:1009AC00FFF79BFF45E07A680F23FB181B785B1061
:1009BC00190001230B40591E8B41DBB219001000AA
:1009CC00FFF78BFF35E078680F23FB181B780122AB
:1009DC0013405A1E9341DBB21900FFF77EFF28E04B
:1009EC007A680F23FB181B7859424B41DBB2190074
:1009FC001000FFF772FF1CE07C680F23FB181B78BC
:100A0C00032213400AD00F23FB181B780321180074
:100A1C0006F020FD0B00DBB2002B01D1012300E01E
:100A2C00002319002000FFF758FF02E07B68032227
:100A3C001A73BD4605B090BDE7030000B8740008FA
:100A4C0080B582B000AF78600A00FB1C1A70FB1CEA
:100A5C001B78002B07D07B681A1DFB1C1B78190018
:100A6C00100004F029FEBD4602B080BD80B584B0F4
:100A7C0000AF78600F23FB1800221A707B685B6A4A
:100A8C001800FFF795FD03001A0001235340DBB259
:100A9C00002B03D00F23FB1803221A707B689B6A70
:100AAC001800FFF785FD03001A0001235340DBB249
:100ABC00002B03D00F23FB1801221A707B68DB6913
:100ACC001800FFF775FD03001A0001235340DBB239
:100ADC00002B03D00F23FB1802221A707B681B6AB1
:100AEC001800FFF765FD03001A0001235340DBB229
:100AFC00002B03D00F23FB1804221A707B685B6A4F
:100B0C001800FFF755FD03001A0001235340DBB218
:100B1C00002B0DD07B681B6A1800FFF749FD030002
:100B2C001A0001235340DBB2002B01D0012300E05B
:100B3C000023002B03D00F23FB1806221A707B68AE
:100B4C009B6A1800FFF734FD03001A000123534081
:100B5C00DBB2002B0DD07B68DB691800FFF728FD9A
:100B6C0003001A0001235340DBB2002B01D00123F8
:100B7C0000E00023002B03D00F23FB1805221A7072
:100B8C000F23FB181B781800BD4604B080BD000075
:100B9C00B0B584B000AF78600F257C197B68180065
:100BAC0000F01EF8030023700C4B1B787A19127896
:100BBC009A4210D0094B0F217A1812781A707B18B0
:100BCC001B78002B07D00F23FB181A787B681100B9
:100BDC001800FFF735FFBD4604B0B0BDBD000020C6
:100BEC0080B582B000AF78607B681800FFF73EFFDD
:100BFC0003001800BD4602B080BD80B582B000AFC6
:100C0C0078607B6800221A607B6800225A607B68DF
:100C1C0000229A607B680022DA607B6800221A61ED
:100C2C007B6800229A617B680022DA617B68002273
:100C3C001A627B6800225A627B6800229A627B6887
:100C4C001800BD4602B080BD80B582B000AF7860A0
:100C5C000A00FB1C1A707B689A6AFB1C1B78190033
:100C6C001000FFF73AFEBD4602B080BD80B582B0E1
:100C7C0000AF78607B68180000F062F8031E16D095
:100C8C007B681B685A1D7B681A607B68DB690621D0
:100C9C001800FFF735FE7B681B6A06211800FFF76A
:100CAC002FFE7B685B6A06211800FFF729FE7B6824
:100CBC001B691800FFF794FF03005A1E9341DBB227
:100CCC00002B02D07B6800225A607B685B681B4A51
:100CDC0093420AD87B685B685A1D7B685A607B68B4
:100CEC0001211800FFF7B0FF04E07B680021180019
:100CFC00FFF7AAFF7B68DB6905211800FFF70EFEE2
:100D0C007B681B6A05211800FFF708FE7B685B6A8D
:100D1C0005211800FFF702FE7B681B691800FFF71E
:100D2C0037FF7B685B691800FFF700FD7B689B69E8
:100D3C00180001F0F9FABD4602B080BDBFD4010025
:100D4C0080B582B000AF78607B681A6804490023D4
:100D5C0091425B41DBB21800BD4602B080BDC0467B
:100D6C008713000080B500AF024B1800FFF77EFF21
:100D7C00BD4680BDC000002080B500AF014B1800FF
:100D8C00BD4680BDC000002080B582B000AF786049
:100D9C0039607B68012B0DD13B68084A934209D11D
:100DAC00074B1800FFF729FF064A074805230221C5
:100DBC0004F0BEFDBD4602B080BDC046FFFF000082
:100DCC00C0000020710D0008EC00002080B500AFC1
:100DDC00034B19000120FFF7D7FFBD4680BDC0466D
:100DEC00FFFF000090B583B000AF02003960FB1D1F
:100DFC001A70FB1D1B785BB2002B36DA314AFB1DD7
:100E0C001B785BB219000F230B40083B9B08063381
:100E1C009B00D31804331B68FA1D127852B21100D0
:100E2C0003220A40D200FF2191400A00D2431A400B
:100E3C0011003B689B01FF221A40FB1D1B785BB223
:100E4C00180003230340DB009A401E48FB1D1B784F
:100E5C005BB21C000F232340083B9B080A4306335C
:100E6C009B00C31804331A6029E0174AFB1D1B783A
:100E7C005BB29B08C0339B009B58FA1D127852B290
:100E8C00110003220A40D200FF2191400A00D243F4
:100E9C001A4011003B689B01FF221A40FB1D1B7876
:100EAC005BB2180003230340DB009A400648FB1D8D
:100EBC001B785BB29B080A43C0339B001A50BD469B
:100ECC0003B090BD00ED00E000E100E080B582B021
:100EDC0000AF78607B68013B0C4A934201D9012337
:100EEC0010E00B4B7A68013A5A6001235B420321F4
:100EFC001800FFF777FF064B00229A60044B07227D
:100F0C001A6000231800BD4602B080BDFFFFFF0031
:100F1C0010E000E080B582B000AF786008001100EE
:100F2C00FB1C021C1A70BB1C0A1C1A707B681B6809
:100F3C00FA1C12785200032191400A00D2431A4045
:100F4C007B681A607B681A68BB1C1978FB1C1B78C1
:100F5C005B0099400B001A437B681A60BD4602B0D7
:100F6C0080BD80B582B000AF786008001100FB1C1A
:100F7C00021C1A70BB1C0A1C1A707B689B68FA1C3A
:100F8C0012785200032191400A00D2431A407B6828
:100F9C009A607B689A68BB1C1B781900FB1C1B7839
:100FAC005B0099400B001A437B689A60BD4602B007
:100FBC0080BD80B582B000AF786008001100FB1CCA
:100FCC00021C1A70BB1C0A1C1A707B68DB68FA1CAA
:100FDC0012785200032191400A00D2431A407B68D8
:100FEC00DA607B68DA68BB1C1978FB1C1B785B0029
:100FFC0099400B001A437B68DA60BD4602B080BD95
:10100C0080B582B000AF786008001100FB1C021C98
:10101C001A70BB1C0A1C1A707B689B889BB2FA1C4A
:10102C001278110001228A4092B2D24392B213403C
:10103C009AB27B689A807B689B889AB2BB1C1B789F
:10104C00F91C09788B409BB213439AB27B689A8047
:10105C00BD4602B080BD80B582B000AF78600A009A
:10106C00FB1C1A707B6818687B681979FB1C1B7851
:10107C001A00FFF74FFFBD4602B080BD80B582B0AD
:10108C0000AF78600A00FB1C1A707B6818687B68DC
:10109C001979FB1C1B781A00FFF763FFBD4602B0E1
:1010AC0080BD80B582B000AF78600A00FB1C1A705E
:1010BC007B6818687B681979FB1C1B781A00FFF792
:1010CC0078FFBD4602B080BD80B582B000AF7860BD
:1010DC000A00FB1C1A707B6818687B681979FB1C6A
:1010EC001B781A00FFF78CFFBD4602B080BD80B59F
:1010FC0084B000AFF860B960FB1D1A70FB68BA6869
:10110C001A60FB68FA1D12781A71FB68032118002B
:10111C00FFF7A1FFFB6800211800FFF7C2FFFB6877
:10112C0000211800FFF7AAFFFB6801211800FFF748
:10113C00CBFFFB681800BD4604B080BD80B582B003
:10114C0000AF0200FB1D1A70FB1D1B78042B0CD882
:10115C009A00074BD3181B689F46FEE7054B0122EC
:10116C001A7002E0034B01221A70BD4602B080BD1A
:10117C00D47400081001002080B500AF024B1B682E
:10118C001800BD4680BDC0460804002080B584B060
:10119C0000AF7860FFF7F0FF0300FB60FFF7ECFF98
:1011AC000200FB68D21A7B689A429B415B42DBB21D
:1011BC00002BF3D1BD4604B080BD000080B584B0D7
:1011CC0000AF78607B68084A9A429B415B42DBB275
:1011DC00FB60064BFA681A60044BFA6810210A434C
:1011EC001A60BD4604B080BD00366E01002002407E
:1011FC0080B582B000AF786039603A4B1A68394BD1
:10120C0001210A431A60374B1B68022213405A42D1
:10121C005341DBB2002BF6D1324B5A68314B0321D0
:10122C008A435A602F4B5B680C2213405A1E934121
:10123C00DBB2002BF6D12B4B1A682A4B80214902CA
:10124C000A431A60274B1A6880239B0213405A42A8
:10125C005341DBB2002BF5D13B681800FFF7AEFF12
:10126C00204B214A5A601F4B0022DA621D4B1A6830
:10127C001C4B802149040A431A601A4B1A688023BC
:10128C009B0413405A425341DBB2002BF5D1154B52
:10129C005A68144B02210A435A60124B5B680C22A9
:1012AC001340083B5A1E9341DBB2002BF5D10D4B7A
:1012BC005A680C4B02210A435A600A4B5B680C2299
:1012CC001340083B5A1E9341DBB2002BF5D1054B62
:1012DC005A68044B01210A405A6001231800BD468C
:1012EC0002B080BD001002400000118080B582B0B9
:1012FC0000AF00237B60154B5A69144BFC21C903CA
:10130C000A435A61114B5B697B607B680F4BDA694E
:10131C000E4B802189030A43DA610C4BDA69802376
:10132C009B0313407B607B68084B9A69074B8021B9
:10133C0089000A439A61054B9A6980239B001340EC
:10134C007B607B68BD4602B080BDC0460010024089
:10135C0080B500AF114A124B11001800FFF748FF7F
:10136C00FFF732F8FFF7C2FF0E4B1A68FA23990009
:10137C00100005F0E9FF03001800FFF7A7FD0300BC
:10138C005A1E9341DBB2002B02D00220FFF7D6FE8F
:10139C0000F012F800F008F8BD4680BD0048E801E6
:1013AC0000127A000C00002080B500AFBD4680BD55
:1013BC0080B500AFBD4680BD80B500AFBD4680BDD9
:1013CC0080B582B000AF78607B681800FFF7DEFE56
:1013DC00BD4602B080BD000080B582B000AF786021
:1013EC0039607B68012B0FD13B68094A93420BD1C2
:1013FC000849094B00221800FFF779FE0549074BF5
:10140C0001221800FFF773FEBD4602B080BDC04636
:10141C00FFFF000000080048000100200801002028
:10142C0080B500AF034B19000120FFF7D5FFBD4677
:10143C0080BDC046FFFF0000B0B584B000AF020015
:10144C00FB1D1A703B1D0A1C1A80FB1D1B780A2BF6
:10145C0001D9002316E004F0C9FFFB1D1B789AB2DA
:10146C000E257C193B1D1B881900100004F000FD93
:10147C000300238004F0D0FF7B191B88043B5A42E5
:10148C005341DBB21800BD4604B0B0BDB0B584B05A
:10149C0000AF02003960FB1D1A70FB1D1B780A2B74
:1014AC0001D9002324E0FB1D1B789BB20E257C196F
:1014BC003A681100180004F077FC030023807B19B4
:1014CC001B88002B01D1012312E00E23FB181B8873
:1014DC00012B0CD13B6800221A803B681A88FB1D3B
:1014EC001B7811001800FFF7A7FF030000E0002392
:1014FC001800BD4604B0B0BD80B584B000AF02008A
:10150C00FB1D1A700E23FA18FB1D1B781100180016
:10151C00FFF7BCFF031E03D00E23FB181B8801E052
:10152C0001235B421800BD4604B080BD80B582B07B
:10153C0000AF78600A00FB1C1A707B689B8A9BB218
:10154C001A00FB1C1B781A411300012213405A1E6F
:10155C009341DBB21800BD4602B080BD80B582B0AD
:10156C0000AF78607B681A687B681B7919001000E3
:10157C00FFF7DCFF03001800BD4602B080BD80B54C
:10158C0082B000AF78607B685A687B689B68D31A1E
:10159C005A425341DBB21800BD4602B080BD80B543
:1015AC0082B000AF78607B681800FFF7E8FF03009B
:1015BC001A0001235340DBB21800BD4602B080BDB7
:1015CC0080B584B000AF78607B6804331800FFF7F7
:1015DC00E6FF031E11D07B680433180004F0A3F857
:1015EC0003001A000F217B181A707B181B78002B34
:1015FC00EAD00F23FB181B7800E000231800BD462F
:10160C0004B080BD80B582B000AF78607B681800F4
:10161C00FFF7D6FF03001800BD4602B080BD80B5B1
:10162C0082B000AF78607B6801225A76BD4602B06A
:10163C0080BD80B584B000AF78607B685B68FB6070
:10164C007B685A687B681B691900100005F002FF63
:10165C000B001A007B685A607B685B68FA689A42D8
:10166C0003D07B681800FFF7DAFFBD4604B080BDDD
:10167C0080B582B000AF78607B68DB681800BD462F
:10168C0002B080BD80B582B000AF78607B689B688B
:10169C001800BD4602B080BD80B582B000AF786046
:1016AC007B681800FFF7BBFF7B685B685A1C7B6884
:1016BC005A607B6859687B681A69002391425B41C8
:1016CC00DBB2002B02D07B6800225A60BD4602B010
:1016DC0080BD80B586B000AFF860B9607A60FB68F9
:1016EC00DB687A689A4201D300231BE0FB689B6895
:1016FC00BA689A4201D3002314E0FB685B687B61F3
:10170C00FB689B687A685A43BB68D218FB685A60BE
:10171C00FB685B687A699A4203D0FB681800FFF794
:10172C007EFF01231800BD4606B080BD80B582B097
:10173C0000AF78600A00FB1C1A707B681800FFF77A
:10174C0078FF7B685A697B685B68D318FA1C12783F
:10175C001A707B681800FFF79FFF7B681800FFF773
:10176C005EFFBD4602B080BD80B582B000AF786030
:10177C0039603B681B785BB2002B0AD03B685A1C63
:10178C003A6000229A567B6811001800FFF7CEFFD2
:10179C00EFE7BD4602B080BD80B584B000AFF86005
:1017AC00B9607A603B607A68B968FB681800FFF72B
:1017BC0090FF3A68FB6811001800FFF7D5FFBD4693
:1017CC0004B080BD90B585B000AF78600A00BB1C3A
:1017DC001A80BB1C1C887B681800FFF749FF0200AD
:1017EC00002394425B41DBB2002B26D1BB1C1C882E
:1017FC007B681800FFF746FF03006343BB600023C0
:10180C00FB607B681800FFF73DFF0100FA680023BE
:10181C0091425B41DBB2002B0BD07B685A69F968B3
:10182C00BB68CB18D31820221A70FB680133FB60FD
:10183C00E7E77B681800FFF7F2FEBD4605B090BDE8
:10184C0080B582B000AF78600A00FB1C1A707B6810
:10185C00FA1C12781A76BD4602B080BDF0B59FB066
:10186C0000AFF860B9607A60BB68180005F062FDE3
:10187C000200632393429B415B42DBB2002B01D0FD
:10188C00002312E077257C191026BA197968BB68F9
:10189C00180004F094FD03002370BA19FB681100C2
:1018AC001800FFF761FF7B191B781800BD461FB0AD
:1018BC00F0BD80B586B000AFF860B9607A601A00F0
:1018CC00FB1C1A7000237B61BB681B785BB2002B7E
:1018DC0022D013217B18BA6812781A707A18FB1C64
:1018EC00127852B21B785BB29A4208D17B695A1CAF
:1018FC007A617A68D2181323FB1812781A701323A2
:10190C00FB1800229A56FB6811001800FFF70EFF17
:10191C00BB680133BB60D7E701231800BD4606B096
:10192C0080BD80B582B000AF78600A00FB1C1A70D5
:10193C007B68FA1C12785A74BD4602B080BD80B523
:10194C0082B000AF78600A00FB1C1A707B68FA1C2E
:10195C0012785A717B685B79002B04D07B6802216A
:10196C00180000F006F87B685B791800BD4602B0E1
:10197C0080BD80B582B000AF78600A00FB1C1A7085
:10198C007B68FA1C12789A717B689B79022B09D1BF
:10199C007B681A687B681B681B6808331B6802210C
:1019AC0010009847BD4602B080BD80B582B000AF34
:1019BC00786008001100FB1C021C1A70BB1C0A1C6E
:1019CC001A70FB1C1A787B6811001800FFF7D1FF06
:1019DC00BB1C1A787B681100180000F003F8BD4698
:1019EC0002B080BD80B584B000AF78600A00FB1CEB
:1019FC001A707B68FA1C12781A710F23FB187A681C
:101A0C0092791A707B685B79002B03D00F23FB183B
:101A1C0002221A700F23FB181B78012B1DD0022BEE
:101A2C0035D0002B34D17B681B79002B0AD07B6816
:101A3C001A687B681B681B6808331B680021100040
:101A4C00984725E07B681A687B681B681B6808331D
:101A5C001B680421100098471AE07B681B79002B47
:101A6C000AD07B681A687B681B681B6808331B6884
:101A7C000421100098470BE07B681A687B681B6890
:101A8C001B6808331B6800211000984700E0C04613
:101A9C00BD4604B080BD80B584B000AF78607B6873
:101AAC00180000F035F9031E03D07B685B68FB60FF
:101ABC0002E07B681B68FB60FB681800BD4604B045
:101ACC0080BD80B582B000AF78607B685B7C032BF7
:101ADC0003D17B680122DA7402E07B680022DA749D
:101AEC00BD4602B080BD80B582B000AF78607B6827
:101AFC001800FEF7C0FD031E07D07B681800FEF728
:101B0C00C9FD031E01D0012300E00023002B03D0EC
:101B1C007B6803225A7416E07B681800FEF7ABFD55
:101B2C00031E03D07B6801225A740CE07B681800FA
:101B3C00FEF7B0FD031E03D07B6802225A7402E04C
:101B4C007B6800225A747B681800FFF7BAFF7B6829
:101B5C005B7C1800BD4602B080BD80B582B000AF82
:101B6C0078607B681800FFF7BEFF7B689B7C012BBD
:101B7C0002D0022B28D04FE07B68180000F00DF942
:101B8C00031E10D07B689B6800211800FFF72AFF0A
:101B9C007B681800FFF77FFF020013681B680021A9
:101BAC00100098474BE07B681800FFF774FF0200A9
:101BBC0013681B680421100098477B689B680121FF
:101BCC001800FFF70FFF3AE07B68180000F011F9DE
:101BDC00031E10D07B689B6800211800FFF702FFE2
:101BEC007B681800FFF757FF020013681B68012180
:101BFC001000984723E07B681800FFF74CFF0200A9
:101C0C0013681B680421100098477B689B680121AE
:101C1C001800FFF7E7FE12E07B6800229A747B68DD
:101C2C001800FFF738FF020013681B68042110002E
:101C3C0098477B689B6801211800FFF7D3FEBD46CF
:101C4C0002B080BD80B582B000AF78607B681B7C31
:101C5C00052B4AD89A002D4BD3181B689F467B68DE
:101C6C001B6800211800FFF75CFE7B689B68002254
:101C7C0000211800FFF799FE44E07B681B680021E7
:101C8C001800FFF74EFE7B689B68002202211800AB
:101C9C00FFF78BFE36E07B681B6800211800FFF70E
:101CAC0040FE7B689B68002201211800FFF77DFE37
:101CBC0028E07B689B68002202211800FFF775FE64
:101CCC007B681B6801211800FFF72BFE1AE07B686C
:101CDC009B68002202211800FFF767FE7B681B68D7
:101CEC0000211800FFF71DFE0CE07B681B6800212B
:101CFC001800FFF716FE7B689B6800220221180073
:101D0C00FFF753FEBD4602B080BDC046E874000824
:101D1C0080B582B000AF78607B68180000F00BF8DB
:101D2C000300013B012B01D8012300E00023180024
:101D3C00BD4602B080BD80B582B000AF78607B68D4
:101D4C001B7C1800BD4602B080BD80B582B000AFD0
:101D5C0078607B68DB68C8331800FEF729FC030049
:101D6C001800BD4602B080BD80B582B000AF78606F
:101D7C007B68DB68C0331800FEF71AFC0300180000
:101D8C00BD4602B080BD80B582B000AF78607B6884
:101D9C00DB7C1800BD4602B080BD80B582B000AFC0
:101DAC0078607B681800FEF766FC03001A000123BC
:101DBC005340DBB2002B17D07B681800FFF7C5FF30
:101DCC0003001A0001235340DBB2002B0CD07B68BC
:101DDC001800FEF794FC03001A0001235340DBB2F9
:101DEC00002B01D0012300E000231800BD4602B0F7
:101DFC0080BD80B582B000AF78607B681800FEF7BC
:101E0C0049FC03001A0001235340DBB2002B0CD019
:101E1C007B681800FFF7A8FF03001A00012353404A
:101E2C00DBB2002B01D0012300E000231800BD46DB
:101E3C0002B080BD80B582B000AF78607B680022B4
:101E4C009A747B681800FFF788FE7B685B7C18002F
:101E5C00BD4602B080BD80B582B000AF78600A008C
:101E6C00FB1C1A707B681800FFF7E4FF7B68FA1CF8
:101E7C0012781A747B681B7C9BB219000320FFF745
:101E8C00DBFA7B681800FFF7DDFEBD4602B080BDB3
:101E9C0080B584B000AF0200FB1D1A700F217B18B7
:101EAC00FA1D12781A707B187A181278013A1A7087
:101EBC007B181B785A425341DBB2002B03D00F2303
:101ECC00FB1805221A700F23FB181B781800BD464F
:101EDC0004B080BD80B584B000AF0200FB1D1A7049
:101EEC000F217B18FA1D12781A707B187A18127849
:101EFC0001321A707B181B7805229A429B415B4277
:101F0C00DBB2002B03D00F23FB1801221A700F2316
:101F1C00FB181B781800BD4604B080BD80B582B09C
:101F2C0000AF78607B681B7C180000F005F803009C
:101F3C001800BD4602B080BD80B582B000AF020073
:101F4C00FB1D1A70FB1D1B78052B0ED89A00094B34
:101F5C00D3181B689F46084B08E0084B06E0084B5B
:101F6C0004E0084B02E0084B00E0084B1800BD46AB
:101F7C0002B080BD4C750008007500080C75000897
:101F8C001875000824750008307500083C750008A9
:101F9C0080B582B000AF78600A00FB1C1A707B68B9
:101FAC0018687B681B681B6808331B68FA1C12785E
:101FBC00110098477B6858687B685B681B6808331E
:101FCC001B68FA1C1278110098477B689A68FB1CF6
:101FDC001B7819001000FFF7B2FCFB1C1B78002BC0
:101FEC0006D07B681A7C7B6811001800FFF733FF62
:101FFC0001231800BD4602B080BD80B584B000AF8F
:10200C0078600A00FB1C1A707B681B791A007B68CD
:10201C001B889A422BDA7B681B790F203A18191C03
:10202C000B1CDB185B1813707B685B883A181278F2
:10203C00072191400A0092B2D24392B213409AB255
:10204C007B685A807B685A88FB1C1B7807211940D7
:10205C003B181B7899400B009BB213439AB27B68D8
:10206C005A807B681B790133DAB27B681A71BD46E2
:10207C0004B080BD80B584B000AF78600A00FB1C52
:10208C001A70FB1C1B787A681288934201DB2D2393
:10209C002AE00F203918FB1C1B781A1C9218D31835
:1020AC000B707B685B881A003B181B781A41130075
:1020BC00DAB20E203B1807210A401A703B181B7825
:1020CC00022B0AD002DC012B05D00CE0032B08D02C
:1020DC00042B04D007E0452306E0422304E03C2314
:1020EC0002E03E2300E02D231800BD4604B080BD65
:1020FC0080B582B000AF78607B681B791A007B6872
:10210C001B88D017D90F9A4248410300DBB2180044
:10211C00BD4602B080BD80B584B000AF78607B68EE
:10212C001800FFF7E5FF03001A0001235340DBB250
:10213C00002B01D000230CE00420FFF7DDF9030095
:10214C00FB607B685A88FB689BB2D31A5A42534196
:10215C00DBB21800BD4604B080BD80B582B000AFC4
:10216C000200BB1D1A80BB1D1B8819000420FFF741
:10217C0063F9BD4602B080BD80B582B000AF786017
:10218C007B6800225A807B6800221A71BD4602B01F
:10219C0080BD80B582B000AF78607B685B8818002A
:1021AC00FFF7DBFFBD4602B080BD80B582B000AF4B
:1021BC0078607B681800FFF79BFF031E09D07B68D3
:1021CC001800FFF7A8FF031E01D0022302E0012331
:1021DC0000E000231800BD4602B080BD80B582B07F
:1021EC0000AF78600A00FB1C1A70FB1C1B78002BDC
:1021FC0006D0FB1C1A787B6811001800FFF7FDFE57
:10220C007B681800FFF7D1FF03001800BD4602B031
:10221C0080BDB0B584B000AF786039600F23FB1877
:10222C0000221A700F23FB181B787A6812889342CD
:10223C0013DA0F257B191B783A68D4187B191A7896
:10224C007B6811001800FFF715FF030023707B1942
:10225C001A787B1901321A70E4E7BD4604B0B0BDA0
:10226C0080B500AF02231800BD4680BD80B500AF1D
:10227C0001231800BD4680BD80B582B000AF7860E8
:10228C000A00FB1C1A707B68FA1C12781A777B68A0
:10229C001B7F002B05D10D4B1B6800211800FFF78D
:1022AC0077FE7B681B7F062B05D1084B1B68012131
:1022BC001800FFF76DFE7B682022002199547B6883
:1022CC00180000F0C5FABD4602B080BD34000020F5
:1022DC0080B582B000AF78607B689B6A1800FFF70E
:1022EC003DF903001800BD4602B080BD80B582B038
:1022FC0000AF78607B681B68F8331800FEF758F95C
:10230C0003001A0001235340DBB21800BD4602B093
:10231C0080BD80B582B000AF78607B681B791800F7
:10232C00BD4602B080BD0000B0B584B000AF78608F
:10233C007B685B680F257C191800FFF763F90300B5
:10234C0023707B191B78002B12D1FEF715FD0300AF
:10235C001800FFF7BDFF03001A0001235340DBB246
:10236C00002B05D07B681B7F012B01D0012300E0E3
:10237C000023002B04D07B6801211800FFF77CFFA1
:10238C007B681B7F0E2B00D93DE29A00BF4BD31804
:10239C001B689F460F23FB181B78002B04D07B680F
:1023AC0001211800FFF768FFFEF7E6FC0300180098
:1023BC00FEF7C6FC03001A0001235340DBB2002BCE
:1023CC0000D119E27B6801211800FFF755FF1AE2D2
:1023DC000F23FB181B78032B0FD0042B13D0012BCE
:1023EC0000D010E27B680C331800FFF7C5FE7B6849
:1023FC0005211800FFF740FF05E27B680221180059
:10240C00FFF73AFFFFE17B6804211800FFF734FF68
:10241C00F9E10F23FB181B78032B04D0042B08D0F5
:10242C00022B0CD0EFE17B6803211800FFF724FF8F
:10243C00E9E17B6801211800FFF71EFFE3E17B68EF
:10244C0001211800FFF718FFDDE10F23FB181B78A3
:10245C00032B04D0042B08D0022B0CD0D3E17B68C7
:10246C0004211800FFF708FFCDE17B68022118005A
:10247C00FFF702FFC7E17B6801211800FFF7FCFEA4
:10248C00C1E10F23FB181B78032B04D0042B08D0BD
:10249C00022B0CD0B7E17B6801211800FFF7ECFE92
:1024AC00B1E17B6803211800FFF7E6FEABE17B6826
:1024BC0001211800FFF7E0FEA5E10F23FB181B78A4
:1024CC00002B00D19FE17B680C331A000C257C1982
:1024DC000F23FB181B7819001000FFF77FFE030079
:1024EC0023707B191B78012B08D0022B00D08AE1BA
:1024FC007B6806211800FFF7BFFE84E17B68012191
:10250C001800FFF7B9FE7EE10F23FB181B78022B96
:10251C0017D002DC012B05D075E1032B1DD0042B49
:10252C0015D070E15A4B1B681800FFF704FC030030
:10253C001A007B685A617B6807211800FFF79CFE24
:10254C0061E17B6801211800FFF796FE5BE17B6877
:10255C000D211800FFF790FE55E17B68082118004B
:10256C00FFF78AFE4FE10F23FB181B78022B1BD0C1
:10257C0002DC012B05D046E1032B26D0042B19D00D
:10258C0041E17B685A690D217B181A70404B1A681F
:10259C007B181B7819001000FFF75DFC7B6801218C
:1025AC001800FFF769FE2EE17B6801211800FFF788
:1025BC0063FE28E17B685B69DBB21800FFF768FCFF
:1025CC0003001A007B685A611DE17B685B69DBB212
:1025DC001800FFF77FFC03001A007B685A6112E1B8
:1025EC000F23FB181B78022B12D002DC012B05D019
:1025FC0009E1032B18D0042B10D004E10021022098
:10260C00FEF71AFF7B6801211800FFF735FEFAE090
:10261C007B6801211800FFF72FFEF4E07B68062190
:10262C001800FFF729FEEEE07B6809211800FFF780
:10263C0023FEE8E00F23FB181B78022B0ED002DCE4
:10264C00012B05D0DFE0032B14D0042B0CD0DAE0E7
:10265C007B680A211800FFF70FFED4E07B6801218C
:10266C001800FFF709FECEE07B6808211800FFF781
:10267C0003FEC8E07B680B211800FFF7FDFDC2E0EC
:10268C007B6801211800FFF7F7FDBCE064750008BA
:10269C00340000200F23FB181B78022B13D002DC14
:1026AC00012B05D0AFE0032B19D0042B11D0AAE0DD
:1026BC007B680C331800FFF75FFD7B680C2118005A
:1026CC00FFF7DAFD9FE07B6801211800FFF7D4FDCE
:1026DC0099E07B6809211800FFF7CEFD93E07B6839
:1026EC000D211800FFF7C8FD8DE07B680C331A0034
:1026FC000E257C190F23FB181B7819001000FFF70F
:10270C006DFD030023707B191B78013B012B00D955
:10271C0074E07B680C331800FFF73BFD7B680121EC
:10272C001800FFF7A9FD69E00F23FB181B78022B9B
:10273C001BD002DC012B05D065E0032B21D0042B30
:10274C0019D060E00720FEF7D7FE02007B685A61C3
:10275C007B685B69782B02D97B6801225A617B68A4
:10276C000E211800FFF788FD4DE07B680121180051
:10277C00FFF782FD47E07B680B211800FFF77CFD1B
:10278C0041E07B6806211800FFF776FD3BE00F2344
:10279C00FB181B78022B15D002DC012B05D032E084
:1027AC00032B1FD0042B13D02DE07B685B699BB2ED
:1027BC0019000720FEF740FE7B6801211800FFF787
:1027CC005BFD20E07B6801211800FFF755FD1AE046
:1027DC007B685B69002B13D07B685B695A1E7B6836
:1027EC005A6110E07B685B69772B0BD87B685B695F
:1027FC005A1C7B685A6106E0C04604E0C04602E001
:10280C00C04600E0C0467B68180000F021F8BD46C9
:10281C0004B0B0BD90B583B000AF0C4B1B68FC1D71
:10282C001800FFF776FD03002370FB1D1B78012BAE
:10283C0002D0022B02D003E04F2302E05A2300E027
:10284C002D231800BD4603B090BDC04648000020A3
:10285C0090B587B000AF78607B681B7F0E2B01D9D9
:10286C0000F0B0FB9A00D24BD3181B689F467B68D4
:10287C009868D04B00220021FEF78EFF7B689B6886
:10288C00012200211800FEF724FF7B689C68FFF7EB
:10289C00E7FC03001A00C84B19002000FEF7DEFF0E
:1028AC007B689C68FFF7E2FC03001A00C34B19001D
:1028BC002000FEF7D3FF85E37B689B680022002194
:1028CC001800FEF706FF7B689C680220FEF714FEDA
:1028DC000200BB4B19002000FEF7C0FF7B689B6811
:1028EC0001211800FEF76EFF7B689868B54B01223A
:1028FC000021FEF751FF7B689C68B34B1B681800E6
:10290C00FFF70CFB030019002000FEF72DFF7B687E
:10291C009B68AE4A11001800FEF726FF7B689B6887
:10292C0001220B211800FEF7D4FE7B689C68FFF790
:10293C0071FF030019002000FEF7F8FE7B689C680D
:10294C00A14B1B681800FDF7B4FE031E01D05023E9
:10295C0000E02D2319002000FEF7E8FE7B689C6840
:10296C00994B1B681800FDF7B7FE031E01D05323CB
:10297C0000E02D2319002000FEF7D8FE7B689C6830
:10298C00914B1B681800FFF7FEF9031E01D0412381
:10299C0000E02D2319002000FEF7C8FE7B689C6820
:1029AC008B4B1B681800FFF7A1FC031E01D05623AC
:1029BC0000E02D2319002000FEF7B8FE02E37B682F
:1029CC009868844B00220021FEF7E6FE7B689B682A
:1029DC00012200211800FEF77CFE7B689B687E4A72
:1029EC0011001800FEF7C0FE7B689C687B4B1B68CF
:1029FC00B0331800FDF7DCFD031E01D02D2300E0E1
:102A0C002A2319002000FEF791FE7B689C68734B0B
:102A1C001B68B8331800FDF7CBFD031E01D02D2326
:102A2C0000E02A2319002000FEF780FE7B689C68DA
:102A3C006A4B1B68C0331800FDF7BAFD031E01D0AA
:102A4C002D2300E02A2319002000FEF76FFE7B687F
:102A5C009C68624B1B68C8331800FDF7A9FD031E68
:102A6C0001D02D2300E02A2319002000FEF75EFE82
:102A7C007B689B68584A11001800FEF775FE7B684E
:102A8C009C68564B1B68D0331800FDF791FD031E54
:102A9C0001D02D2300E02A2319002000FEF746FE6A
:102AAC007B689C684D4B1B68D8331800FDF780FD84
:102ABC00031E01D02D2300E02A2319002000FEF76D
:102ACC0035FE7B689C68454B1B68E0331800FDF7AE
:102ADC006FFD031E01D02D2300E02A2319002000D6
:102AEC00FEF724FE7B689C683C4B1B68E83318009F
:102AFC00FDF75EFD031E01D02D2300E02A231900F3
:102B0C002000FEF713FE7B689B68334A1100180007
:102B1C00FEF72AFE7B689C68304B1B68F03318006C
:102B2C00FDF746FD031E01D02D2300E02A231900DA
:102B3C002000FEF7FBFD7B689C68284B1B68F83374
:102B4C001800FDF735FD031E01D02D2300E02A23CC
:102B5C0019002000FEF7EAFD7B689C681F4B1B6880
:102B6C000133FF331800FDF723FD031E01D02D2385
:102B7C0000E02A2319002000FEF7D8FD7B689C6832
:102B8C00164B1B680933FF331800FDF711FD031EAC
:102B9C0001D02D2300E02A2319002000FEF7C6FDEA
:102BAC007B689B680C4A11001800FEF7DDFD09E2FA
:102BBC004C770008A0750008B4750008D0750008A3
:102BCC00C4750008D875000834000020DC750008B6
:102BDC0048000020E0750008F47500082000002073
:102BEC007B689868D34B00220021FEF7D5FD7B68EB
:102BFC009B68012200211800FEF76BFD7B689B6827
:102C0C00CD4A11001800FEF7AFFD7B689C68CB4BDA
:102C1C001B6808331800FEF7A1FC031E01D02D23FE
:102C2C0000E02A2319002000FEF780FD7B689C68D9
:102C3C00C24B1B6810331800FEF790FC031E01D02A
:102C4C002D2300E02A2319002000FEF76FFD7B687E
:102C5C009C68BA4B1B681800FEF780FC031E01D061
:102C6C002D2300E02A2319002000FEF75FFD7B686E
:102C7C009C68B24B1B6818331800FEF76FFC031EE0
:102C8C0001D02D2300E02A2319002000FEF74EFD71
:102C9C007B689B68AA4A11001800FEF765FD7B68EB
:102CAC009C68A64B1B6820331800FEF757FC031ECC
:102CBC0001D02D2300E02A2319002000FEF736FD59
:102CCC007B689B689F4A11001800FEF74DFD79E167
:102CDC007B6898689C4B00220021FEF75DFD7B68A9
:102CEC009B68012200211800FEF7F3FC7B689B68AF
:102CFC00964A11001800FEF737FD7B689C688F4BD5
:102D0C001B689133FF331800FDF752FC031E01D0F2
:102D1C002D2300E02A2319002000FEF707FD7B6815
:102D2C009B688B4A11001800FEF71EFD7B689C689F
:102D3C00824B1B68A933FF331800FDF739FC031EC7
:102D4C0001D02D2300E02A2319002000FEF7EEFC11
:102D5C007B689B687F4A11001800FEF705FD7B68B5
:102D6C009C68764B1B68A133FF331800FDF720FCE1
:102D7C00031E01D02D2300E02A2319002000FEF7AA
:102D8C00D5FC7B689B68744A11001800FEF7ECFCBC
:102D9C007B689C68694B1B689933FF331800FDF7FF
:102DAC0007FC031E01D02D2300E02A23190020006C
:102DBC00FEF7BCFC06E17B689868684B002200219A
:102DCC00FEF7EAFC7B680C3308243A191100180052
:102DDC00FFF71FFA7B689B68012200211800FEF7A1
:102DEC0078FC7B6898683A195D492D23FEF761FDE4
:102DFC00E8E07B6898685B4B00220021FEF7CCFC76
:102E0C007B689868584B01220021FEF7C5FCD9E07D
:102E1C007B689868554B00220021FEF7BDFC7B684F
:102E2C009B6801211800FEF7CDFC7B689868504B1D
:102E3C0001220021FEF7B0FC7B689C687B685B6913
:102E4C00DBB21800FFF778F8030019002000FEF73A
:102E5C008BFC7B689B68474A11001800FEF784FCCA
:102E6C00B0E07B689868444B00220021FEF794FC8C
:102E7C007B689B68012200211800FEF72AFC7B6806
:102E8C009B683E4A11001800FEF76EFC9AE07B68C6
:102E9C0098683B4B00220021FEF77EFC7B689B6808
:102EAC00012200211800FEF714FC7B689B68354A50
:102EBC0011001800FEF758FC84E07B689868324BD0
:102ECC0000220021FEF768FC7B6898682D4B0122DC
:102EDC000021FEF761FC75E07B6898682B4B0022A3
:102EEC000021FEF759FC7B680C3310243A191100B1
:102EFC001800FFF78EF97B689B68012200211800EF
:102F0C00FEF7E7FB7B6898683A1915492D23FEF705
:102F1C00D0FC57E07B6898681D4B00220021FEF71F
:102F2C003BFC7B689868174B01220021FEF734FCB0
:102F3C0048E0C046F87500080C7600082000002018
:102F4C0014760008F47500081C760008307600082A
:102F5C0034760008387600083C7600084076000885
:102F6C0054760008687600087C7600089076000895
:102F7C00A4760008A8760008AC760008C076000895
:102F8C00D4760008E8760008FC7600081077000874
:102F9C00247700087B6898680C4B00220021FEF710
:102FAC00FBFB7B689B68012200211800FEF791FB5C
:102FBC007B6898687B685B691B041A0C044B1900CE
:102FCC00FEF74CFCBD4607B090BDC0462477000808
:102FDC003877000890B583B000AF78600C00100013
:102FEC001900FB1C221C1A70BB1C021C1A707B1CC7
:102FFC000A1C1A70BB1C1A78FB1C19787B68180009
:10300C00FDF788FF7B1C1A78FB1C19787B6818006D
:10301C00FDF7F6FF1823FB181A78FB1C19787B6850
:10302C001800FDF7C6FF1C23FB181A78FB1C197837
:10303C007B681800FDF795FFBD4603B090BD80B5C9
:10304C0084B000AF0200FB1D1A703B1D0A1C1A80D5
:10305C000E23FA18FB1D1B7811001800FEF716FA48
:10306C0003001A0001235340DBB2002B01D00023D4
:10307C0016E00E23FB181A883B1D1B88D3189AB236
:10308C00FB1D1B7811001800FEF7D6F903001A007F
:10309C0001235340DBB2002B01D0002300E00123BD
:1030AC001800BD4604B080BD90B585B000AF786007
:1030BC007B68DB6810331C007B681800FDF7DBFABB
:1030CC0003001A0001235340DBB219002000FDF766
:1030DC0004FC7B68DB6808331C007B681800FDF778
:1030EC00D9FA03001A0001235340DBB21900200067
:1030FC00FDF7F3FB7B68DB6818331C007B6818005A
:10310C00FEF741FE03001A0001235340DBB2190005
:10311C002000FDF7E2FB7B68DB681C007B68DB684A
:10312C00E8331800FDF744FA030019002000FDF7FE
:10313C00D4FB0F23FB1800221A707B681800FDF7D4
:10314C00B8FA031E03D00F23FB1801221A707B68F8
:10315C001800FDF7C1FA031E0CD07B681800FDF7B0
:10316C0099FA03001A0001235340DBB2002B01D063
:10317C00012300E00023002B03D00F23FB180122B6
:10318C001A707B68DB6820331A000F23FB181B783E
:10319C0019001000FDF7A1FBBD4605B090BD80B530
:1031AC0082B000AF78600A00FB1C1A707B68DB6889
:1031BC0028331A00FB1C1B7819001000FDF78DFB3F
:1031CC00BD4602B080BDB0B584B000AF78607B68FE
:1031DC001800FEF760FC0200136804331B680F250F
:1031EC007C1910009847030023707B191B78012B66
:1031FC0004D00F23FB181B78002B01D1012300E016
:10320C0000231800BD4604B0B0BD80B582B000AF3D
:10321C0078607B689B7C012B03D001210220FFF797
:10322C000EFF7B6801229A747B681800FEF795FCF0
:10323C007B685B7C1800BD4602B080BD80B582B057
:10324C0000AF78607B689B7C022B03D001210220AD
:10325C00FFF7F5FE7B6802229A747B681800FEF774
:10326C007CFC7B685B7C1800BD4602B080BD80B5E1
:10327C0082B000AF78607B681800FEF76EFC7B684C
:10328C001800FFF711FFBD4602B080BD80B582B0BB
:10329C0000AF78607B681B7C1800BD4602B080BD17
:1032AC0080B582B000AF78601C4B1B681800FEF72D
:1032BC0074FD03001A0001235340DBB2002B01D034
:1032CC00002326E07B681B68D0331800FDF770F9EB
:1032DC0003001A0001235340DBB2002B16D17B688C
:1032EC001B68E0331800FDF763F903001A00012393
:1032FC005340DBB2002B09D1FDF73EFD03005B69A7
:10330C001800FFF7C3FF0300012B01D1012300E0DC
:10331C0000231800BD4602B080BDC046340000201A
:10332C0080B582B000AF7860194B1B681800FEF7AF
:10333C0060FD03001A0001235340DBB2002B01D0C7
:10334C00002320E07B681B68D8331800FDF730F9A8
:10335C0003001A0001235340DBB2002B10D10C4B9D
:10336C001B681800FDF7CBF9031E09D1FDF704FD0E
:10337C0003005B691800FFF789FF0300022B01D1E2
:10338C00012300E000231800BD4602B080BDC046FA
:10339C003400002090B585B000AF78607C4B1B6882
:1033AC001800FFF764FF7B681800FFF779FF031E16
:1033BC0005D17B681800FFF7B3FF031E01D0012273
:1033CC0000E000220E23FB181A707B681800FEF731
:1033DC008DFF03001A0001235340DBB2002B02D0F7
:1033EC007B6800221A737B681B6848331C00684B8F
:1033FC001B681800FEF78CFC031E0CD07B681800B1
:10340C00FEF774FF031E06D00E23FB181B78002B4F
:10341C0001D0012300E0002319002000FDF75DFA24
:10342C000F23FB1800221A700E23FB181B78002B9D
:10343C0000D187E07B689B68352B00D23523353B68
:10344C001A007B689A607B689B68002B00D085E033
:10345C007B681800FFF764FF031E2FD07B681B7975
:10346C00022B21D07B6802221A71494B1B68180071
:10347C00FDF745F9031E0DD00720FEF73DF80200BD
:10348C0013005B019B1A9B009B18DB00F533FF3389
:10349C001A0001E0FA235A007B689A603C4B1B68C7
:1034AC001800FEF7C7FC59E0394B1B681800FFF7F2
:1034BC00C5FE0F23FB1801221A704FE07B68180021
:1034CC00FFF7EEFE031E30D07B681B79012B22D058
:1034DC007B681800FEF70AFF031E0ED07B681B7B6F
:1034EC00002B03D07B6800221A7109E07B68012253
:1034FC001A737B6801221A7102E07B6801221A712F
:10350C007B68FA2252009A60214B1B681800FEF768
:10351C0091FCC04622E01E4B1B681800FFF775FE9D
:10352C000F23FB1801221A7018E07B6800221A7115
:10353C00174B1B681800FEF77DFC7B68FA225200C3
:10354C009A600BE07B6800221A71114B1B68180003
:10355C00FEF770FC7B68FA2252009A600D4BBB6040
:10356C007B689B680B4A934202D97B68094A9A6034
:10357C00074B1A680F23FB181B7819001000FFF774
:10358C000EFE7B68180000F007F8BD4605B090BD34
:10359C0034000020B4D6010080B582B000AF786052
:1035AC00344B1B681800FDF784F8031E08D07B68A9
:1035BC001B686133FF3304211800FDF7A1F917E0F4
:1035CC002C4B1B681800FDF787F8031E08D07B688E
:1035DC001B686133FF3302211800FDF791F907E0F6
:1035EC007B681B686133FF3301211800FDF788F9F4
:1035FC00204B1B681800FEF7C6FB031E08D07B6827
:10360C001B687133FF3302211800FDF779F907E0CD
:10361C007B681B687133FF3301211800FDF770F9CB
:10362C007B681800FEF762FE031E08D07B681B68DF
:10363C008133FF3305211800FDF762F917E00D4BBC
:10364C001B681800FFF7BFFD031E08D07B681B68C2
:10365C008133FF3302211800FDF752F907E07B6834
:10366C001B688133FF3300211800FDF749F9BD4673
:10367C0002B080BD3400002080B500AF034B1B6846
:10368C001800FFF787FEBD4680BDC04648000020ED
:10369C0080B582B000AF786039607B68012B09D1AE
:1036AC003B68064A934205D1054A06483523022158
:1036BC0002F03EF9BD4602B080BDC046FFFF0000DF
:1036CC00853600081401002080B500AF034B1900AB
:1036DC000120FFF7DDFFBD4680BDC046FFFF0000A7
:1036EC0080B582B000AF0200FB1D1A70034BFA1DAF
:1036FC0012781A70BD4602B080BDC0464C00002046
:10370C0080B582B000AF7860034A7B681A607B6832
:10371C001800BD4602B080BD5078000880B584B05A
:10372C0000AF78600A00FB1C1A707B681A68FB1CDF
:10373C001B785B00DA401300FB60FB68DBB20322F2
:10374C001340DBB21800BD4604B080BD80B584B018
:10375C0000AF78600A00FB1C1A707B68DA68FB1CEF
:10376C001B785B00DA401300FB60FB68DBB20322C2
:10377C001340DBB21800BD4604B080BD80B584B0E8
:10378C0000AF78600A00FB1C1A707B689A68FB1CFF
:10379C001B785B00DA401300FB60FB68DBB2032292
:1037AC001340DBB21800BD4604B080BD80B584B0B8
:1037BC0000AF78600A00FB1C1A707B689B889BB278
:1037CC001A00FB1C1B781A411300FB60FB68DBB270
:1037DC0001221340DBB21800BD4604B080BDB0B569
:1037EC0084B000AFF86008007A6019000B243B1914
:1037FC00021C1A700A257B190A1C1A707B191A787C
:10380C007B6811001800FFF789FF03001A003B19B1
:10381C001978FB681800FDF77DFB7B191A787B681B
:10382C0011001800FFF7C2FF03001A003B191978AA
:10383C00FB681800FDF7E4FB7B191A787B68110014
:10384C001800FFF783FF03001A003B191978FB6877
:10385C001800FDF7AEFB7B191A787B681100180075
:10386C00FFF78CFF03001A003B191978FB6818004E
:10387C00FDF777FBBD4604B0B0BD80B588B000AF96
:10388C00786008001100FB1C021C1A70BB1C0A1C7F
:10389C001A70BB1C1B78072B01D900234DE00723A2
:1038AC00FB61BB1C1B78BB61FB1C1B78072B1CD85A
:1038BC0017217B18FA1C127892001A707B681B6A0D
:1038CC003B617B181B7807229A401300DA433B6953
:1038DC0013403B617B181B78BA699A4013003A6914
:1038EC0013433B617B683A691A62FB1C1B78072BFC
:1038FC0022D9FB1C1B780F2B1ED8FB1C1B783833D2
:10390C00DAB20F217B1892001A707B685B6ABB607D
:10391C007B181B7807229A401300DA43BB681340CC
:10392C00BB607B181B78BA699A401300BA681343C2
:10393C00BB607B68BA685A6201231800BD4608B0A8
:10394C0080BD90B583B000AF78600C0010001900FA
:10395C00FB1C221C1A70BB1C021C1A707B1C0A1C40
:10396C001A70FB1C1A787B6811001800FDF773FBAA
:10397C00BB1C1A787B6811001800FDF7A5FB7B1C9B
:10398C001A787B6811001800FDF78BFB1823FB18C5
:10399C001A787B6811001800FDF770FBBD4603B068
:1039AC0090BD80B582B000AF786039607B681868D4
:1039BC007B6819793B681A683B681B79FFF70FFF26
:1039CC00BD4602B080BD000080B500AF024B1B6845
:1039DC001800BD4680BDC0460C00002080B582B0EA
:1039EC0000AF124B5B681B090F2213407B607B6896
:1039FC000822134013D07B68072213407B607B683E
:103A0C0001337B607B68032B02D97B6801337B60BD
:103A1C00FFF7DAFF02007B68DA40130002E0FFF7E1
:103A2C00D3FF03001800BD4602B080BD0010024059
:103A3C0080B582B000AF0F4B5B681B0A07221340A6
:103A4C007B607B68042213400DD07B6803221340FB
:103A5C007B607B6801337B60FFF7C0FF02007B68F3
:103A6C00DA40130002E0FFF7B9FF03001800BD466F
:103A7C0002B080BD0010024080B582B000AF02F0F1
:103A8C00B5FC01F0A7FF03001A00FB1D043A5142DC
:103A9C004A411A7002F0C0FCFB1D1B781800BD4691
:103AAC0002B080BD80B582B000AF7860034A7B68FD
:103ABC001A607B681800BD4602B080BD34780008DF
:103ACC0080B582B000AF7860054A7B681A607B686D
:103ADC0001221A717B681800BD4602B080BDC04639
:103AEC003478000880B584B000AFF860B9607A60B3
:103AFC00FB681800FFF7E4FF084AFB681A60FB68D4
:103B0C0002221A74FB68BA689A60FB687A68DA60F9
:103B1C00FB681800BD4604B080BDC046187800088C
:103B2C0080B582B000AF78607B689B681800FCF7AA
:103B3C00C5FE7B68DB681800FCF7C0FEBD4602B012
:103B4C0080BD80B582B000AF78600A00FB1C1A7093
:103B5C007B681B681B687A680221100098477B6899
:103B6C00FA1C12781A7101231800BD4602B080BDF0
:103B7C0080B582B000AF78600A00FB1C1A707B68BD
:103B8C001B79002B02D0FB1C02221A707B68FA1CDA
:103B9C0012781A747B681B7C002B02D0012B0BD083
:103BAC0015E07B689B681800FCF788FE7B68DB6877
:103BBC001800FCF774FE14E07B68DB681800FCF757
:103BCC007DFE7B689B681800FCF769FE09E07B684A
:103BDC009B681800FCF772FE7B68DB681800FCF72A
:103BEC006DFEBD4602B080BD80B582B000AF78607E
:103BFC007B681B7C1800BD4602B080BD80B582B0CE
:103C0C0000AF7860034A7B681A607B681800BD4679
:103C1C0002B080BDFC77000880B584B002AF78603C
:103C2C001A48032301930023009300230222082146
:103C3C00FFF7D0F9786803230093002300220121B9
:103C4C00FFF77FFE11480323019300230093002309
:103C5C0002220A21FFF7BEF97B6808331800032300
:103C6C000093002300220121FFF76BFE074B00227B
:103C7C0008211800FFF701FE044B00220A2118004E
:103C8C00FFF7FBFDBD4602B080BDC04600100048EA
:103C9C0080B584B000AF78602A4B9A69294B80219B
:103CAC0009010A439A61284BFB60FFF7C1FE030030
:103CBC002649180003F048FB0300013BBB60BB68BE
:103CCC009AB2FB681A85FB68C822DA62FB6800228C
:103CDC005A63FB6800229A63FB681B8B9BB21C4ADD
:103CEC0013439AB2FB681A83FB681B8C9BB211229C
:103CFC0013439AB2FB681A84FB681B8C9BB2CC22D0
:103D0C0013439AB2FB681A84FB6844229B5A9BB2F9
:103D1C00104A134399B2FB6844229952FB681B88E2
:103D2C009BB2612213439AB2FB681A80FB689B8A90
:103D3C009BB2012213439AB2FB689A82BD4604B02F
:103D4C0080BDC04600100240002C014000127A00D9
:103D5C00686800000080FFFF80B582B000AF78601B
:103D6C007B681800FFF794FF7B681800FFF754FF7F
:103D7C00BD4602B080BD80B582B000AF78607B6874
:103D8C001800FDF7EBFB03001800BD4602B080BD28
:103D9C0080B582B000AF78607B6808331800FDF7FF
:103DAC00DDFB03001800BD4602B080BD80B584B0B9
:103DBC0000AF786039603B68FB603B68002B07D034
:103DCC007B681800FFF7D7FF031E01D0012300E02A
:103DDC000023002B01D00023FB60074BFA685A63C9
:103DEC00054B9B8A9BB2044A02210B439BB29382E4
:103DFC00BD4604B080BDC046002C014080B582B0E9
:103E0C0000AF7860024B5B6B1800BD4602B080BD02
:103E1C00002C014080B584B000AF786039603B68FD
:103E2C00FB603B68002B07D07B681800FFF7B0FFE6
:103E3C00031E01D0012300E00023002B01D000233E
:103E4C00FB60074BFA689A63054B9B8A9BB2044A4A
:103E5C0004210B439BB29382BD4604B080BDC04687
:103E6C00002C014080B582B000AF7860024B9B6B98
:103E7C001800BD4602B080BD002C014080B584B056
:103E8C0000AF78600A00FB1C1A700F23FB18FA1C99
:103E9C0012781A70FB1C1B78002B07D07B6818005B
:103EAC00FDF75CFB031E01D0012300E00023002B77
:103EBC0003D00F23FB1800221A700F23FB181B785A
:103ECC00002B01D0C92300E000237A6819001000F0
:103EDC00FFF76CFFBD4604B080BD80B584B000AF69
:103EEC0078600A00FB1C1A700F23FB18FA1C12785E
:103EFC001A70FB1C1B78002B08D07B680833180049
:103F0C00FDF72CFB031E01D0012300E00023002B46
:103F1C0003D00F23FB1800221A700F23FB181B78F9
:103F2C00002B01D0C92300E000237A68190010008F
:103F3C00FFF770FFBD4604B080BD80B582B000AF06
:103F4C0078600A00FB1C1A70FB1C1B78002B07D036
:103F5C007B681800FFF752FF031E01D0012300E01D
:103F6C000023002B05D07B6800211800FCF7B5FC62
:103F7C0006E07A68FB1C1B7819001000FCF7ADFCFE
:103F8C00BD4602B080BD80B582B000AF78600A003B
:103F9C00FB1C1A70FB1C1B78002B07D07B681800CD
:103FAC00FFF760FF031E01D0012300E00023002B6C
:103FBC0006D07B68083300211800FCF78EFC08E063
:103FCC007B6808331A00FB1C1B7819001000FCF7E7
:103FDC0084FCBD4602B080BD80B582B000AF786075
:103FEC007B68084909221800FDF781F87B680833C3
:103FFC0004490B221800FDF77AF87B681800BD46BF
:10400C0002B080BD0010004880B582B000AF78606F
:10401C00034A7B681A607B681800BD4602B080BDFD
:10402C00FC77000880B582B000AF78607B68180020
:10403C00FFF7EAFF144A7B681A607B68043310228E
:10404C000021180003F00CFA7B6804331800FFF70A
:10405C00C3FF7B68143318009023DB050F22190073
:10406C00FDF745F87B6800229A837B6800221A6270
:10407C007B6800225A627B682822022199547B6853
:10408C001800BD4602B080BDE077000880B584B052
:10409C0002AF78607B68143318000323009300236D
:1040AC0001220021FFF74DFC7B6804331800FFF759
:1040BC0053FE7B681B6808331B687A68022110006A
:1040CC009847BD4602B080BD80B582B000AF786025
:1040DC007B6814331800FCF76BFA03001A000123F9
:1040EC005340DBB21800BD4602B080BD80B582B033
:1040FC0000AF78600A00FB1C1A707B6828229B5C5E
:10410C00FA1C12789A4263D07B68FA1C2821127828
:10411C005A547B68043300211800FFF7AFFE7B680C
:10412C00043300211800FFF7D8FE7B68043300210C
:10413C001800FFF702FF7B68043300211800FFF71B
:10414C0022FF7B6800229A837B6800225A627B687C
:10415C0028229B5C012B15D002DC002B05D037E00C
:10416C00032B1CD0042B27D032E07B680433322184
:10417C001800FFF74FFE7B68043301211800FFF78E
:10418C00DCFE25E07B68043332211800FFF70EFEBD
:10419C007B68043301211800FFF7F5FE18E07B68FB
:1041AC00043301211800FFF7C8FE7B68043301219A
:1041BC001800FFF7E8FE0BE07B68043301211800C0
:1041CC00FFF75CFE7B68043301211800FFF785FEC6
:1041DC00BD4602B080BD80B582B000AF78607B6810
:1041EC0028229B5C1800BD4602B080BD80B584B00F
:1041FC0000AF78607B6828229B5C002B05D07B6825
:10420C0028229B5C012B00D06CE07B689B8BC72B1E
:10421C0000D967E07B681B6A5A1C7B681A627B6852
:10422C005B6A5A1C7B685A627B685A6AFA231B01C8
:10423C009A4208D97B681B6808331B687A6804218A
:10424C00100098474EE00E23FB187A68928B1A8068
:10425C000A23BB607B681800FFF736FF031E0CD0E7
:10426C000E23FB181B889AB2022A00D202239AB2A0
:10427C000E23FB18023A1A800FE07B681B6A092B8D
:10428C000BD97B681B6A0A3B1A007B681A620E21E9
:10429C007B181A887B1801321A807B689B8B0E2244
:1042AC00BA1812889A421DD07B680E22BA1812884E
:1042BC009A837B6828229B5C002B02D0012B09D0AF
:1042CC0010E07B681A1D7B689B8B19001000FFF7B0
:1042DC00A1FD07E07B681A1D7B689B8B1900100001
:1042EC00FFF764FDBD4604B080BD80B582B000AF61
:1042FC0078600A00FB1C1A707B68FA1C12781A751D
:10430C00FB1C1B78002B02D0012B0BD015E07B681B
:10431C009B681800FCF7D2FA7B685B681800FCF706
:10432C00BEFA14E07B685B681800FCF7C7FA7B6880
:10433C009B681800FCF7B3FA09E07B685B6818000F
:10434C00FCF7BCFA7B689B681800FCF7B7FABD4613
:10435C0002B080BD80B582B000AF78600A00FB1C53
:10436C001A707B68FA1C12785A75FB1C1B78002B90
:10437C0002D0012B0BD015E07B681B691800FCF7F1
:10438C009DFA7B68DB681800FCF789FA14E07B68FF
:10439C00DB681800FCF792FA7B681B691800FCF7C5
:1043AC007EFA09E07B68DB681800FCF787FA7B680B
:1043BC001B691800FCF782FABD4602B080BD0000F4
:1043CC0080B584B000AFF860B9607A603B60FB6880
:1043DC001800FFF719FE114AFB681A60FB680122EE
:1043EC001A75FB6801225A75FB6802229A75FB68E4
:1043FC000222DA75FB6804221A76FB68BA685A60E6
:10440C00FB687A689A60FB683A68DA60FB68BA699C
:10441C001A61FB681800BD4604B080BDC077000867
:10442C0080B584B002AF78607B6858680223009333
:10443C00002300220121FFF784FA7B689A687B68CD
:10444C005B6819001000FFF7ACFA7B68DA687B68D0
:10445C005B6819001000FFF7A4FA7B681A697B6887
:10446C005B6819001000FFF79CFA7B6802211800AA
:10447C00FFF770FF7B6802211800FFF736FF7B689F
:10448C001B6808331B687A68022110009847BD46E8
:10449C0002B080BD80B582B000AF78600A00FB1C12
:1044AC001A707B68FA1C12781A767B681B7E012BBB
:1044BC000FD002DC002B05D020E0032B10D0042BF6
:1044CC0015D01BE07B680122DA757B6800229A7597
:1044DC001AE07B6801229A757B680022DA7513E07A
:1044EC007B6800229A757B680022DA750CE07B6889
:1044FC0001229A757B680122DA7505E07B6802223D
:10450C009A757B680222DA75BD4602B080BD80B513
:10451C0082B000AF78607B681B7E1800BD4602B08D
:10452C0080BD80B582B000AF78607B685A7D7B68B7
:10453C00DB7D9A4205D17B681A7D7B689B7D9A4214
:10454C0020D07B685B7D022B12D17B681B7D022BFC
:10455C000ED17B68DA7D7B6811001800FFF7FAFE3C
:10456C007B689A7D7B6811001800FFF7BEFE09E09E
:10457C007B6802211800FFF7EDFE7B680221180012
:10458C00FFF7B3FEBD4602B080BD000080B584B01D
:10459C0000AFF860B9607A60FB681800FFF790FA1A
:1045AC00094AFB681A60FB6802221A74FB68002235
:1045BC005A74FB68BA689A60FB687A68DA60FB68C0
:1045CC001800BD4604B080BDA477000880B582B049
:1045DC0000AF78607B689A687B689B681B681033B7
:1045EC001B68100098477B68DA687B68DB681B687F
:1045FC0010331B6810009847BD4602B080BD80B5D3
:10460C0082B000AF78600A00FB1C1A707B681B68D4
:10461C001B687A680221100098477B68FA1C127894
:10462C001A717B681B791800BD4602B080BD80B53D
:10463C0082B000AF78600A00FB1C1A707B681B7993
:10464C00002B02D0FB1C02221A707B68FA1C127819
:10465C001A747B685B7C002B45D07B681B7C002B21
:10466C0002D0012B15D029E07B689A687B689B6887
:10467C001B6808331B680021100098477B68DA68B8
:10468C007B68DB681B6808331B68012110009847A6
:10469C006CE07B689A687B689B681B6808331B68B6
:1046AC000121100098477B68DA687B68DB681B681F
:1046BC0008331B6801211000984757E07B689A6803
:1046CC007B689B681B6808331B68042110009847A3
:1046DC007B68DA687B68DB681B6808331B6804211D
:1046EC001000984742E07B681B7C012B13D002DC46
:1046FC00002B05D030E0032B18D0042B21D02BE05D
:10470C007B68DA687B68DB681B6808331B680021F0
:10471C00100098472AE07B68DA687B68DB681B68C6
:10472C0008331B680121100098471FE07B68DA688A
:10473C007B68DB681B6808331B68032110009847F3
:10474C0014E07B68DA687B68DB681B6808331B68DD
:10475C0004211000984709E07B68DA687B68DB6805
:10476C001B6808331B68022110009847BD4602B035
:10477C0080BD80B582B000AF78607B681B7C180070
:10478C00BD4602B080BD80B582B000AF78603960A4
:10479C007B6800221A717B6801225A717B680222A5
:1047AC009A717B683A681A607B681800BD4602B043
:1047BC0080BD80B582B000AF78607B681A687B687A
:1047CC001B681B6810331B68100098477B6801211D
:1047DC001800FDF7B4F8BD4602B080BD80B582B0BC
:1047EC0000AF78607B6800225A737B6801221A73D1
:1047FC007B6800229A60BD4602B080BD80B584B053
:10480C0000AFF860B960FB1D1A70F868FB1D1A78D0
:10481C00BB681900FCF76BFCFB681800FFF7DEFFA8
:10482C00FB681800BD4604B080BD80B584B002AFF3
:10483C00786008001100FB1C021C1A70BB1C0A1CBF
:10484C001A707B68FA1C12785A737B68BA1C12783F
:10485C001A737B6800229A60786800230093002307
:10486C0000220121FFF76DF8BD4602B080BD0000AB
:10487C0080B586B002AF78608C4B5A698B4BFC21AB
:10488C00C9030A435A61894B5B69FB60FB68786812
:10489C0000230093002300220121FFF752F87B68CC
:1048AC0008337A6811001800FFF77BF87B68103327
:1048BC007A6811001800FFF774F87B6818337A686F
:1048CC0011001800FFF76DF87B6820337A6811002F
:1048DC001800FFF766F87B6828337A681100180017
:1048EC00FFF75FF87B6830337A6811001800FFF728
:1048FC0058F87B6838337A6811001800FFF751F8C4
:10490C007B6840337A6811001800FFF74AF87B681F
:10491C0048337A6811001800FFF743F87B6890332E
:10492C00180000230093012301220021FFF709F84E
:10493C007B6898331A007B68903319001000FFF7DE
:10494C0030F87B68A0331A007B6890331900100094
:10495C00FFF727F87B68A8331A007B68903319009F
:10496C001000FFF71EF87B68B0331A007B68903399
:10497C0019001000FFF715F87B68B8331A007B6834
:10498C00903319001000FFF70CF87B68C0331A0045
:10499C007B68903319001000FFF703F87B68C8336D
:1049AC001A007B68903319001000FEF7FAFF7B6841
:1049BC00D0331A007B68903319001000FEF7F1FF1A
:1049CC007B68D8331A007B68903319001000FEF70F
:1049DC00E8FF7B68E0331A007B6890331900100005
:1049EC00FEF7DFFF7B68E8331A007B689033190011
:1049FC001000FEF7D6FF7B68F0331A007B6890330B
:104A0C0019001000FEF7CDFF7B68F8331A007B68A5
:104A1C00903319001000FEF7C4FF7B685A1CFF325C
:104A2C007B68903319001000FEF7BBFF7B680933DD
:104A3C00FF331A007B68903319001000FEF7B1FFAA
:104A4C007B689133FF331A007B6890331900100098
:104A5C00FEF7A7FF7B689933FF331A007B6890330E
:104A6C0019001000FEF79DFF7B68A133FF331A007D
:104A7C007B68903319001000FEF793FF7B68A93315
:104A8C00FF331A007B68903319001000FEF789FF82
:104A9C007B68B133FF3318000323009301230122F9
:104AAC000021FEF74EFFBD4604B080BD0010024051
:104ABC0080B584B000AFF860B9607A603B60FB6889
:104ACC000022DA60FB6800221A74FB6800225A7418
:104ADC00FB6800229A74FB680022DA74FB68BA68DF
:104AEC001A60FB687A685A60FB683A689A60FB68DF
:104AFC001800BD4604B080BD80B582B000AF7860B0
:104B0C00114B1A687B68DA607B681B681800FFF72A
:104B1C005DFD7B685B681800FFF702F87B689B689B
:104B2C001800FFF746FE0320FCF7E6FC0300DAB2A0
:104B3C007B681A747B681800FDF784F80123180051
:104B4C00BD4602B080BDC0462000002080B586B0B6
:104B5C0000AFF860B9607A603B60FB680433F968B9
:104B6C000422180000F088FDFB68BA68DA61FB6863
:104B7C007A681A62FB683A685A62FB683A6A9A6207
:104B8C001623FB1800221A801623FB181B88032BF4
:104B9C000BD816203B181B88FA680021D1543B18FF
:104BAC001A883B1801321A80EEE7FB681800BD46E4
:104BBC0006B080BD80B584B002AF78607B68D869E0
:104BCC0000230093012301220021FEF7BAFE7B682B
:104BDC001A6A7B68DB6919001000FEF7E2FE7B683D
:104BEC005A6A7B68DB6919001000FEF7DAFE7B68F5
:104BFC009A6A7B68DB6919001000FEF7D2FEBD468D
:104C0C0002B080BD80B584B000AF78600023FB603B
:104C1C007B681B69FA689A4209D87B685A69FB68F9
:104C2C00D31820221A70FB680133FB60F0E77B6815
:104C3C001800FCF7F4FCBD4604B080BD80B582B012
:104C4C0000AF78607B6800225A807B6805221A804E
:104C5C007B6800221A717B681800BD4602B080BDCB
:104C6C0080B584B000AF78600420FCF745FC0200EE
:104C7C000E217B181A807B181B88002B05D00E2365
:104C8C00FB181B88064A934203D1064B1800FDF70C
:104C9C0064FA7B681800FDF76FFABD4604B080BD5E
:104CAC00FFFF00001915000080B584B000AFF8605C
:104CBC00B9607A603B60FB68BA681A60FB687A6816
:104CCC005A60FB683A689A60FB680C331800FFF76F
:104CDC00C7FFFB6800221A77BD4604B080BD0000F8
:104CEC0080B582B000AF7860034A7B681A607B683D
:104CFC001800BD4602B080BD5078000880B582B067
:104D0C0000AF78607B681800FFF7EAFF0C4A7B68FD
:104D1C001A607B6800225A607B6800229A607B686C
:104D2C000022DA607B6800221A617B6800225A61DB
:104D3C007B6800221A767B681800BD4602B080BDE5
:104D4C009077000880B582B000AF7860054A7B6828
:104D5C001A607B681800FEF7D3FC7B681800BD4610
:104D6C0002B080BD9077000880B582B000AF78604B
:104D7C007B681800FFF7E6FF7B681C21180002F027
:104D8C007DFA7B681800BD4602B080BD80B582B04C
:104D9C0000AF7860BD4602B080BD80B582B000AF78
:104DAC0078607B685B681800BD4602B080BD80B53A
:104DBC0082B000AF78607B681B691800BD4602B0FA
:104DCC0080BD80B584B000AFF860B9607A603B609C
:104DDC00FB68BA681A60FB687A685A60FB683A68C4
:104DEC009A60FB68BA69DA60FB6804221A74FB6883
:104DFC001800BD4604B080BD80B584B000AFF8602B
:104E0C00B9607A603B60FB68BA689A60BB6918004D
:104E1C00FFF7C3FF0200FB68DA60FB687A681A616F
:104E2C00FB683A685A61BB691800FFF7C0FF0200C3
:104E3C00FB689A62FB683A6ADA61FB687A6A1A6202
:104E4C00FB68BA6A5A62FB681B691800FFF7B2FE6E
:104E5C00FB68FA699A61FB689869FB689968FB685A
:104E6C001A69FB68DB68FFF71FFFFB68DB69002230
:104E7C0000211800FFF7D9FCFB681B6A00220021F7
:104E8C001800FFF7D2FCFB685B6A002200211800B7
:104E9C00FFF7CBFCBD4604B080BD000080B582B0EE
:104EAC0000AF7860064B1A687B681A60054B1B686C
:104EBC0000211800FDF76CF8BD4602B080BDC0465D
:104ECC00200000203400002080B582B000AF786054
:104EDC007B68CC4909221800FCF709F97B68083378
:104EEC00C84903221800FCF702F97B681033C54946
:104EFC0002221800FCF7FBF87B681833C249052224
:104F0C001800FCF7F4F87B682033BF490422180022
:104F1C00FCF7EDF87B68283318009023DB050B2297
:104F2C001900FCF7E4F87B683033B8490722180005
:104F3C00FCF7DDF87B683833B44906221800FCF71F
:104F4C00D6F87B684033B14909221800FCF7CFF83A
:104F5C007B68483318009023DB0508221900FCF706
:104F6C00C6F87B685033AA490F221800FCF7BFF82B
:104F7C007B685833A6490E221800FCF7B8F87B68FA
:104F8C006033A14909221800FCF7B1F87B6868333B
:104F9C009D490B221800FCF7AAF87B6870339C49DA
:104FAC000D221800FCF7A3F87B68783398490C2283
:104FBC001800FCF79CF87B68803393490822180092
:104FCC00FCF795F87B6888338F490A221800FCF7A8
:104FDC008EF87B6890338D4904221800FCF787F813
:104FEC007B6898338B4900221800FCF780F87B68AB
:104FFC00A033884901221800FCF779F87B68A833A4
:10500C00844902221800FCF772F87B68B03381499E
:10501C000F221800FCF76BF87B68B8337D490E2221
:10502C001800FCF764F87B68C0337A490D2218002D
:10503C00FCF75DF87B68C83376490C221800FCF746
:10504C0056F87B68D03370490F221800FCF74FF8E4
:10505C007B68D8336C490E221800FCF748F87B6843
:10506C00E03369490D221800FCF741F87B68E833FE
:10507C0065490C221800FCF73AF87B68F0331800ED
:10508C009023DB0507221900FCF731F87B68F83315
:10509C0018009023DB0506221900FCF728F87B6822
:1050AC00581CFF309023DB0505221900FCF71FF874
:1050BC007B680933FF3318009023DB0504221900A9
:1050CC00FCF715F87B681133FF33504905221800A3
:1050DC00FCF70DF87B681933FF334B49022218009B
:1050EC00FCF705F87B682133FF3318009023DB05B0
:1050FC000C221900FBF7FBFF7B682933FF33454972
:10510C0006221800FBF7F3FF7B683133FF3341496C
:10511C0007221800FBF7EBFF7B683933FF333C4960
:10512C0004221800FBF7E3FF7B684133FF33384957
:10513C0005221800FBF7DBFF7B684933FF3334494A
:10514C0006221800FBF7D3FF7B685133FF3331493C
:10515C000A221800FBF7CBFF7B685933FF332D492C
:10516C000B221800FBF7C3FF7B686133FF33180079
:10517C009023DB0500221900FFF740FB7B6871339D
:10518C00FF3318009023DB0501221900FFF736FBD3
:10519C007B688133FF3318009023DB050222190052
:1051AC00FFF72CFB7B689133FF3319490822180059
:1051BC00FBF79DFF7B689933FF33154909221800D3
:1051CC00FBF795FF7B68A133FF3311490A221800C6
:1051DC00FBF78DFF7B68A933FF330D490B221800B9
:1051EC00FBF785FF7B68B133FF3318009023DB0599
:1051FC000F221900FBF77BFF7B681800BD4602B03D
:10520C0080BDC0460014004800100048000800484B
:10521C00000C00480004004880B582B000AF7860F4
:10522C007B680C331800FFF709FD7B6800225A617C
:10523C007B680022DA837B682022002199547B68EA
:10524C001800BD4602B080BD80B500AF044B1800FD
:10525C00FFF767F9034B1800FEF7C8FFBD4680BD8A
:10526C00200300203C030020F0B589B006AF0120DC
:10527C00FEF736FAFCF76CF83C4B1B681800FFF78E
:10528C00F7FA6420FBF782FFFEF7F6FB384B394A3E
:10529C001A60374B6422DA60344B1B685933FF3386
:1052AC001A00334B5A60314B1B685133FF331A00D1
:1052BC002F4B9A60304B1B682D4A1100180001F0DF
:1052CC008DFA2D4B1968294B1B681933FF331A00C3
:1052DC00264B1B681133FF33284801F0D9FDFBF72F
:1052EC004BFD03007B60264B1C68204B1B68613315
:1052FC00FF331A001D4B1B687133FF3319001B4B16
:10530C001B688133FF331F4E1F4D78680493039144
:10531C0002921E4B0193194B009333002A0021007B
:10532C00FFF76AFD7B68DB681800FFF76BFC7B6896
:10533C00DB6800211800FCF783FA114B1B6818007E
:10534C00FFF7DAFB124B1B681800FFF7A7FD7B6811
:10535C009B6900211800FCF78FFF0020FEF7C0F9B5
:10536C00FCF726F800F0B0FAFAE7C046200000205F
:10537C002400002000580040980300209C030020CB
:10538C00340000200C030020E0020020CC0300209D
:10539C004800002080B582B000AF7860054A7B6879
:1053AC001A607B681800FEF77DFB7B681800BD4611
:1053BC0002B080BDA477000880B582B000AF7860E1
:1053CC007B681800FFF7E6FF7B681421180001F0DA
:1053DC0055FF7B681800BD4602B080BD80B582B019
:1053EC0000AF7860054A7B681A607B681800FEF78E
:1053FC0005FC7B681800BD4602B080BDC077000874
:10540C0080B582B000AF78607B681800FFF7E6FFCC
:10541C007B681C21180001F031FF7B681800BD4629
:10542C0002B080BD80B582B000AF7860054A7B6861
:10543C001A607B681800FEF7E1FB7B681800BD461C
:10544C0002B080BDE077000880B582B000AF786014
:10545C007B681800FFF7E6FF7B682C21180001F031
:10546C000DFF7B681800BD4602B080BD80B582B0D0
:10547C0000AF7860054A7B681A607B681800FEF7FD
:10548C0011FB7B681800BD4602B080BD187800087F
:10549C0080B582B000AF78607B681800FFF7E6FF3C
:1054AC007B681421180001F0E9FE7B681800BD46EA
:1054BC0002B080BD90B585B002AF786039607B6872
:1054CC00012B6FD13B68464A93426BD1454B180078
:1054DC00DC235B001A00002101F0C2FF414B1800D5
:1054EC00FFF7F2FC404C414A41494248424B009381
:1054FC002300FFF72BFB414B1B68A933FF3319002B
:10550C003E4B1B68A133FF331A003C4B1B6899338D
:10551C00FF331C00394B1B689133FF333848009321
:10552C002300FFF74EFC374C374A38493848394B83
:10553C0000932300FEF744FF374B1800FEF772FD73
:10554C00334A364B11001800FFF71DF9324A304927
:10555C00334B1800FFF71AF8324A3349334B180013
:10556C00FEF7C0FA01F032F90200314B1A60314BF0
:10557C001800FFF7C3FB294B2C4A29492E48FFF78B
:10558C0097FA2E4B180024231A00002101F068FF13
:10559C002A4B1800FFF740FE294A2A480123022112
:1055AC0000F0C6F97B68002B17D13B680C4A93427C
:1055BC0013D1204B1800FFF7C5FB1C4B1800FFF74D
:1055CC0055FF174B1800FFF7E5FE134B1800FFF7BC
:1055DC0029FF0F4B1800FFF701FFBD4603B090BD2C
:1055EC00FFFF000028010020C8010020C00100209E
:1055FC00B8010020E0020020D00100202000002093
:10560C000C0300208001002098010020780100206C
:10561C0020030020A00100203C0300206803002090
:10562C00700300206001002068010020840300202A
:10563C00980300209C030020B8030020CC0300201A
:10564C0055520008F003002080B500AF034B190041
:10565C000120FFF72FFFBD4680BDC046FFFF0000B5
:10566C0080B500AF034B19000020FFF723FFBD46A8
:10567C0080BDC046FFFF000080B584B000AFF8606D
:10568C00B9607A60FB680B4A1A61FB68094A9A8216
:10569C00FB687A681A60FB68BA68DA60FB680022FB
:1056AC009A60FB6800225A60FB681800BD4604B083
:1056BC0080BDC04600FFFFFF80B584B000AF7860AE
:1056CC000A00FB1C1A707B685B68FB607B689B683C
:1056DC00BB60FB680133BA689A4201D100231EE01B
:1056EC00BB68002B07D17B681B68013BFA689A42A8
:1056FC0001D1002313E07B68DA68FB68591CF96060
:10570C00D318FA1C12781A707B681B68FA689A42D4
:10571C0001D2FA6800E000227B685A60012318006D
:10572C00BD4604B080BD80B586B000AF78607B68A4
:10573C009B687B617B685B683B617A693B699A42D9
:10574C0002D17B689B8A17E07B68DA687B69591CFD
:10575C007961D2180F23FB1812781A707B681B68BA
:10576C007A699A4201D27A6900E000227B689A60D9
:10577C000F23FB181B789BB21800BD4606B080BDEA
:10578C0080B584B000AF786039603B68002B01D1E4
:10579C00002323E00F23FB1801221A703B6818002A
:1057AC00FBF7FDFE031E16D03B681800FFF7BBFF8E
:1057BC000300DAB27B6811001800FFF77DFF0300CD
:1057CC001A0001235340DBB2002BE7D00F23FB1848
:1057DC0000221A70E2E70F23FB181B781800BD4655
:1057EC0004B080BD80B584B000AF78607B689B68E6
:1057FC00FB607B685B68BB60BA68FB689A4203D34A
:10580C00BA68FB68D31A05E07B681A68FB68D21A81
:10581C00BB68D3181800BD4604B080BD80B582B0FB
:10582C0000AF7860034A7B681A607B681800BD463D
:10583C0002B080BD6478000880B582B000AF78609B
:10584C007B681800FFF7EAFF7B681C21180001F049
:10585C0015FD7B681800BD4602B080BD80B584B0D4
:10586C0000AF7860164B1A687B68D218144B1A601C
:10587C00144B1B68FB60FB68002B1DD0FB685B7C2A
:10588C00022B15D1FB681B687A689A429B415B42DC
:10589C00DBB2002B06D0FB681A687B68D21AFB6857
:1058AC001A6005E0FB6801225A74FB6800221A603A
:1058BC00FB689B68FB60DEE7BD4604B080BDC0465C
:1058CC00080400200404002080B582B000AF164B01
:1058DC001B78DBB2002B24D1144B1B687B607B68DC
:1058EC00002B1ED07B685B7C012B16D17B681B7C4C
:1058FC00012B0CD0022B10D17B685A687B681A6084
:10590C007B6802225A747B68DB68984705E07B68E9
:10591C0000225A747B68DB6898477B689B687B60C5
:10592C00DDE7BD4602B080BD4C0000200404002021
:10593C0080B586B000AFF8607A603B600B203B18F6
:10594C000A1C1A70FB6800225A74FB683A18127809
:10595C001A74FB687A68DA60FB683A685A60184B0C
:10596C001B68002B0AD1164BFA681A60144B1B6883
:10597C0000229A60FB6802225A741BE0104B1B68D1
:10598C007B617B699B68002B07D07A69FB689A4224
:10599C0010D07B699B687B61F3E77A69FB689A425C
:1059AC0008D0FB6800229A607B69FA689A60FB68F1
:1059BC0002225A74FB681800BD4606B080BDC04672
:1059CC000404002080B500AF0120FFF747FFBD465F
:1059DC0080BD000090B585B000AF0A217B1806226F
:1059EC001A8008203B1806221A800E23FB1800226E
:1059FC001A80BB1D00221A803B1D00221A800C232A
:105A0C00FB18012252421A80BC4A7B1812881A8059
:105A1C00BB4A3B1812881A807B181B88B94A9342E0
:105A2C004FD0B94A934203D0002B00D1F5E09FE14F
:105A3C000823FB181B88002B0FD1B04B180000F06B
:105A4C00F7FC03001A00BB1C1A80BB1C1B88042B20
:105A5C0000D19AE1BB1C1B889DE10823FB181B8815
:105A6C00A84A93421FD1A54B180000F0E1FC03009B
:105A7C001A00BB1C1A80BB1C1B88042B02D0BB1C3D
:105A8C001B8888E19E4B0021180000F00DFD0300DF
:105A9C001A00BB1C1A80BB1C1B88042B00D174E1A0
:105AAC00BB1C1B8877E100F013FA03001A00BB1C27
:105ABC001A80BB1C1B88042B00D166E1BB1C1B8805
:105ACC0069E10823FB181B88002B00D071E00E2322
