:020000040800F2
:100000000040002041020008490200085102000897
:1000100000000000000000000000000000000000E0
:10002000000000000000000000000000770200084F
:1000300000000000000000007F020008B13B000843
:10004000870200088702000887020008870200086C
:10005000870200088702000887020008870200085C
:10006000870200088702000887020008870200084C
:10007000870200088702000887020008870200083C
:10008000870200088702000887020008870200082C
:100090008702000887020008870200084D43000815
:1000A00061430008870200088702000887020008F1
:1000B00087020008870200088702000887020008FC
:1000C0005FF808F180B58EB000AF00F031F94A4B0F
:1000D0004A4A1A604A4B494A1A604A4B3B634A4BA8
:1000E000FB624A4BBB62FB6A7B6207E03A6B131D03
:1000F0003B637B6A191D796212681A60BA6A7B6A6F
:100100009A42F3D83C4B1B68414A934204D13C4B82
:100110001B68404A934200D0FEE73F4B374A1A60C3
:100120003E4B364A1A603E4B3B623E4BFB613B6A9C
:10013000BB6104E0BB691A1DBA6100221A60FA694A
:10014000BB699A42F6D8344B1B68002B03D1334B62
:100150001B68002B00D0FEE700F0F0F83A003B1DD2
:100160001100180000F0D4F82F4A304BD31A9B101E
:10017000FB600023BB6007E02C4BBA689200D358A9
:100180009847BB680133BB60FA68BB689A42F3DCEE
:10019000274A284BD31A9B10FB600023BB6007E063
:1001A000244BBA689200D3589847BB680133BB60B0
:1001B000FA68BB689A42F3DC7B683A681100180061
:1001C00003F0A0F903007B631B4A1C4BD31A9B105E
:1001D0007B617B693B6108E03B695A1E174B9200CB
:1001E000D35898473B69013B3B613B69002BF3DCEB
:1001F0007B6B180000F07CF800000020BABADECA61
:10020000A0000020544E000800000020A4000020A0
:100210007856341232547698A4000020CC04002082
:10022000A4000020D0040020BC020008BC0200088A
:10023000D4020008BC020008DC020008D402000856
:1002400080B500AFFFF73EFF80B500AF00BEFEE710
:1002500004207146084202D0EFF3098001E0EFF379
:10026000088071460A4A104780B582B000AF7860B6
:10027000396000BEFEE780B500AF00BEFEE780B586
:1002800000AF00BEFEE780B500AF00BEFEE7000095
:0402900069020008F7
:10029400544E000800000020A4000020544E000822
:1002A4000000000000000000A4000020D004002092
:1002B4000000000000000000210A000805100008EA
:1002C4004D25000835380008B9430008314A0008B4
:0802D4004D380008494A0008FA
:1002DC0080B582B000AF024B7B6000F009F8C046DD
:1002EC00544C000880B582B000AF7860FEE7000087
:1002FC0080B582B000AF024B7B600120FFF7F2FFAC
:10030C00684C000880B582B000AF786039607B68BB
:10031C0001221A603B68024A1A60BD4602B080BDD9
:10032C000400002080B500AF00F008F8BD4680BD89
:10033C0080B500AF00F048F8BD4680BD80B500AF79
:10034C001B4B1A681A4B01210A431A60184B5A6846
:10035C00174B18490A405A60154B1A68144B16492A
:10036C000A401A60124B1A68114B14490A401A6061
:10037C000F4B5A680E4B12490A405A600C4BDA6A02
:10038C000B4B0F218A43DA62094B1A6B084B0D4950
:10039C000A401A63064B5A6B054B01218A435A6378
:1003AC00034B00229A6000F07DF8BD4680BDC0462C
:1003BC00001002400CB8FF08FFFFF6FEFFFFFBFF2A
:1003CC00FFFFC0FFACFEFFFF80B584B000AF002381
:1003DC00FB600023BB6000237B6000233B602D4B44
:1003EC005B680C221340FB60FB68042B07D0082BC6
:1003FC0009D0002B38D1284B284A1A6037E0264BFD
:10040C00264A1A6033E0234B5A68F0239B031340AF
:10041C00BB60204B5A68C0235B0213407B60BB68F7
:10042C009B0C0233BB607B68002B0CD1B9680A00B3
:10043C005201521A93019B1ADB005B181B021A0023
:10044C00154B1A6013E0134BDB6A0F221340013378
:10045C003B603968114804F063FB03001A00BB6869
:10046C005A430D4B1A6002E00B4B0C4A1A60094BB5
:10047C005B681B090F221340094AD35CDBB2FB609B
:10048C00054B1A68FB68DA40034B1A60BD4604B092
:10049C0080BDC046001002400C00002000127A0003
:1004AC001000002080B582B000AF00237B600023D9
:1004BC003B60304B1A682F4B802149020A431A606B
:1004CC002C4B1A6880239B0213403B607B680133E2
:1004DC007B603B68002B04D17A68A023DB019A4235
:1004EC00EED1244B1A6880239B02134002D00123C7
:1004FC003B6001E000233B603B68012B36D11E4B77
:10050C0011221A601B4A1B4B52685A60194A194B2C
:10051C0052685A60174B5A68164B18490A405A6071
:10052C00144B5A68134B882149030A435A60114BE8
:10053C001A68104B802149040A431A600D4B1A6843
:10054C0080239B041340F9D00A4B5A68094B0321B2
:10055C008A435A60074B5A68064B02210A435A6079
:10056C00044B5B680C221340082BF9D1BD4602B03A
:10057C0080BDC0460010024000200240FF7FC0FF3B
:10058C0080B582B000AF78607B689B881A0001232D
:10059C0093401A007B681B689A61BD4602B080BD0F
:1005AC0080B582B000AF78607B689B8810330122E5
:1005BC009A407B681B689A61BD4602B080BD80B5CD
:1005CC0082B000AF78600A00FB1C1A70FB1C1B7811
:1005DC00002B04D07B681800FFF7D2FF03E07B6888
:1005EC001800FFF7DDFFBD4602B080BD80B582B0BC
:1005FC0000AF78607B681B681B8A9BB21A007B6813
:10060C009B881A411300012213405A1E9341DBB2FE
:10061C001800BD4602B080BD80B582B000AF7860D6
:10062C000A00FB1C1A707B68FA1C12781A73BD4600
:10063C0002B080BD90B585B000AF786039607B6842
:10064C009A683B68D2187B689A607B689B68404AC2
:10065C00934209D97B689B686421180004F0E6FA80
:10066C000B001A007B689A607B689B6864211800F9
:10067C0004F056FA03001A000F23FB181A707B685B
:10068C001B7B062B5ED89A00324BD3181B689F46F7
:10069C007B681800FFF774FF57E07B681800FFF7C2
:1006AC007FFF52E078680F23FB181A78042100238F
:1006BC0091425B41DBB21900FFF781FF45E07A689C
:1006CC000F23FB181B785B10190001230B40591EDC
:1006DC008B41DBB219001000FFF771FF35E0786831
:1006EC000F23FB181B78012213405A1E9341DBB2D7
:1006FC001900FFF764FF28E07A680F23FB181B78BA
:10070C0059424B41DBB219001000FFF758FF1CE0B7
:10071C007C680F23FB181B78032213400AD00F238D
:10072C00FB181B780321180004F080FA0B00DBB2D5
:10073C00002B01D1012300E0002319002000FFF75A
:10074C003EFF02E07B6803221A73BD4605B090BDE4
:10075C00E70300007C4C000880B584B000AF7860E3
:10076C000F23FB1800221A707B685B6A1800FFF7D6
:10077C003DFF03001A0001235340DBB2002B03D0D2
:10078C000F23FB1803221A707B689B6A1800FFF773
:10079C002DFF03001A0001235340DBB2002B03D0C2
:1007AC000F23FB1801221A707B68DB691800FFF716
:1007BC001DFF03001A0001235340DBB2002B03D0B2
:1007CC000F23FB1802221A707B681B6A1800FFF7B4
:1007DC000DFF03001A0001235340DBB2002B03D0A2
:1007EC000F23FB1804221A707B685B6A1800FFF752
:1007FC00FDFE03001A0001235340DBB2002B0DD089
:10080C007B681B6A1800FFF7F1FE03001A00012336
:10081C005340DBB2002B01D0012300E00023002B5E
:10082C0003D00F23FB1806221A707B689B6A1800F2
:10083C00FFF7DCFE03001A0001235340DBB2002B50
:10084C000DD07B68DB691800FFF7D0FE03001A009F
:10085C0001235340DBB2002B01D0012300E0002325
:10086C00002B03D00F23FB1805221A700F23FB1843
:10087C001B781800BD4604B080BD80B582B000AFB7
:10088C0078607B681800FFF767FF03001800BD460F
:10089C0002B080BD80B582B000AF78607B6800226A
:1008AC001A607B6800225A607B6800229A607B6821
:1008BC000022DA607B6800221A617B6800225A6190
:1008CC007B6800229A617B680022DA617B680022D7
:1008DC001A627B681800BD4602B080BD80B582B03C
:1008EC0000AF78600A00FB1C1A707B681A6AFB1C4C
:1008FC001B7819001000FFF762FEBD4602B080BDE8
:10090C0080B582B000AF78607B681B68254A934243
:10091C0010D87B681B685A1D7B681A607B689B69C2
:10092C0006211800FFF778FE7B68DB6906211800AA
:10093C00FFF772FE7B681B691800FFF79EFF030030
:10094C005A1E9341DBB2002B02D07B6800225A6006
:10095C007B685B68144A93420AD87B685B685A1DB3
:10096C007B685A607B6801211800FFF7B7FF04E031
:10097C007B6800211800FFF7B1FF7B689B6905219C
:10098C001800FFF757FE7B68DB6905211800FFF79D
:10099C0051FE7B685B69180001F094F9BD4602B00A
:1009AC0080BDC046871300000F27000080B500AF44
:1009BC00024B1800FFF7A4FFBD4680BDAC00002021
:1009CC0080B500AF014B1800BD4680BDAC000020C7
:1009DC0080B582B000AF786039607B68012B0DD197
:1009EC003B68084A934209D1074B1800FFF752FFA6
:1009FC00064A07480523022103F08AF8BD4602B0D7
:100A0C0080BDC046FFFF0000AC000020B909000803
:100A1C00D000002080B500AF034B19000120FFF778
:100A2C00D7FFBD4680BDC046FFFF000090B583B028
:100A3C0000AF02003960FB1D1A70FB1D1B785BB206
:100A4C00002B36DA314AFB1D1B785BB219000F23E1
:100A5C000B40083B9B0806339B00D31804331B68E0
:100A6C00FA1D127852B2110003220A40D200FF2163
:100A7C0091400A00D2431A4011003B689B01FF22AF
:100A8C001A40FB1D1B785BB2180003230340DB00EC
:100A9C009A401E48FB1D1B785BB21C000F232340A1
:100AAC00083B9B080A4306339B00C31804331A60A7
:100ABC0029E0174AFB1D1B785BB29B08C0339B00D7
:100ACC009B58FA1D127852B2110003220A40D20030
:100ADC00FF2191400A00D2431A4011003B689B0150
:100AEC00FF221A40FB1D1B785BB218000323034046
:100AFC00DB009A400648FB1D1B785BB29B080A433F
:100B0C00C0339B001A50BD4603B090BD00ED00E011
:100B1C0000E100E080B582B000AF78607B68013BFB
:100B2C000C4A934201D9012310E00B4B7A68013A2D
:100B3C005A6001235B4203211800FFF777FF064B35
:100B4C0000229A60044B07221A6000231800BD464D
:100B5C0002B080BDFFFFFF0010E000E080B582B066
:100B6C0000AF78600A00FB1C1A707B681B681A685F
:100B7C007B689B885B00032199400B00D9437B6801
:100B8C001B680A401A607B681B681968FB1C1A7882
:100B9C007B689B885B009A407B681B680A431A60E1
:100BAC00BD4602B080BD80B582B000AF78600A004F
:100BBC00FB1C1A707B681B689A687B689B885B00BF
:100BCC00032199400B00D9437B681B680A409A604B
:100BDC007B681B689968FB1C1B781A007B689B88D8
:100BEC005B009A407B681B680A439A60BD4602B062
:100BFC0080BD80B582B000AF78600A00FB1C1A7013
:100C0C007B681B68DA687B689B885B0003219940D2
:100C1C000B00D9437B681B680A40DA607B681B6851
:100C2C00D968FB1C1A787B689B885B009A407B68B0
:100C3C001B680A43DA60BD4602B080BD80B582B045
:100C4C0000AF78600A00FB1C1A707B681B689B88DD
:100C5C009AB27B689B88190001238B409BB2DB43C3
:100C6C0099B27B681B680A4092B29A807B681B68B9
:100C7C009B8899B2FB1C1B787A68928893409AB235
:100C8C007B681B680A4392B29A80BD4602B080BD55
:100C9C0080B584B000AFF860B960BB1D1A80FB68EA
:100CAC00BA681A60FB68BA1D12889A80FB68032127
:100CBC001800FFF753FFFB6800211800FFF799FF9E
:100CCC00FB6800211800FFF76EFFFB68012118007C
:100CDC00FFF7B4FFFB681800BD4604B080BD0000F0
:100CEC0080B582B000AF0200FB1D1A70FB1D1B7893
:100CFC00042B0CD89A00074BD3181B689F46FEE7B1
:100D0C00054B01221A7002E0034B01221A70BD46FA
:100D1C0002B080BD984C0008F400002080B500AFF4
:100D2C00024B1B681800BD4680BDC046A0030020C6
:100D3C0080B584B000AF7860FFF7F0FF0300FB6074
:100D4C00FFF7ECFF0200FB68D21A7B689A429B41CA
:100D5C005B42DBB2002B02D002F0A6FEF0E7BD46F0
:100D6C0004B080BD80B584B000AF7860FFF7D6FFCB
:100D7C000300FB60FFF7D2FF0200FB68D21A7B680E
:100D8C009A429B415B42DBB2002BF3D1BD4604B0CF
:100D9C0080BD000080B584B000AF78607B68084AE5
:100DAC009A429B415B42DBB2FB60064BFA681A60CD
:100DBC00044BFA6810210A431A60BD4604B080BD8A
:100DCC0000366E010020024080B582B000AF786022
:100DDC0039603A4B1A68394B01210A431A60374B78
:100DEC001B68022213405A425341DBB2002BF6D14E
:100DFC00324B5A68314B03218A435A602F4B5B6844
:100E0C000C2213405A1E9341DBB2002BF6D12B4B14
:100E1C001A682A4B802149020A431A60274B1A6828
:100E2C0080239B0213405A425341DBB2002BF5D175
:100E3C003B681800FFF7AEFF204B214A5A601F4B4E
:100E4C000022DA621D4B1A681C4B802149040A43AC
:100E5C001A601A4B1A6880239B0413405A42534160
:100E6C00DBB2002BF5D1154B5A68144B02210A4307
:100E7C005A60124B5B680C221340083B5A1E93417C
:100E8C00DBB2002BF5D10D4B5A680C4B02210A43F7
:100E9C005A600A4B5B680C221340083B5A1E934164
:100EAC00DBB2002BF5D1054B5A68044B01210A40EB
:100EBC005A6001231800BD4602B080BD00100240EC
:100ECC000000118080B582B000AF00237B60154B11
:100EDC005A69144BFC21C9030A435A61114B5B69D3
:100EEC007B607B680F4BDA690E4B802189030A43C8
:100EFC00DA610C4BDA6980239B0313407B607B68BF
:100F0C00084B9A69074B802189000A439A61054B6B
:100F1C009A6980239B0013407B607B68BD4602B0BE
:100F2C0080BDC0460010024080B500AF114A124B84
:100F3C0011001800FFF748FFFFF746FAFFF7C2FF52
:100F4C000E4B1A68FA239900100003F0E9FD030018
:100F5C001800FFF7DFFD03005A1E9341DBB2002B94
:100F6C0002D00220FFF7BCFE00F012F800F008F8E7
:100F7C00BD4680BD0048E80100127A000C0000203C
:100F8C0080B500AFBD4680BD80B500AFBD4680BD0D
:100F9C0080B500AFBD4680BD80B582B000AF786033
:100FAC007B681800FFF7DEFEBD4602B080BD000076
:100FBC0080B582B000AF786039607B68012B0FD1AF
:100FCC003B68094A93420BD10849094B002218008F
:100FDC00FFF75EFE0549074B01221800FFF758FE8C
:100FEC00BD4602B080BDC046FFFF000000080048AF
:100FFC00E4000020EC00002080B500AF034B19008A
:10100C000120FFF7D5FFBD4680BDC046FFFF0000A5
:10101C0080B582B000AF78607B685A687B689B684B
:10102C00D31A5A425341DBB21800BD4602B080BD00
:10103C0080B582B000AF78607B681800FFF7E8FFDE
:10104C0003001A0001235340DBB21800BD4602B066
:10105C0080BD80B584B000AF78607B680433180025
:10106C00FFF7E6FF031E11D07B680433180002F073
:10107C004AFC03001A000F217B181A707B181B788E
:10108C00002BEAD00F23FB181B7800E0002318007C
:10109C00BD4604B080BD80B582B000AF78607B687F
:1010AC001800FFF7D6FF03001800BD4602B080BD44
:1010BC0080B582B000AF78607B685A687B681B692A
:1010CC001900100003F0B2FD0B001A007B685A6087
:1010DC00BD4602B080BD80B582B000AF78607B6841
:1010EC00DB681800BD4602B080BD80B582B000AF91
:1010FC0078607B689B681800BD4602B080BD80B5E7
:10110C0082B000AF78607B685B685A1C7B685A6061
:10111C007B6859687B681A69002391425B41DBB29A
:10112C00002B02D07B6800225A60BD4602B080BD05
:10113C0080B584B000AFF860B9607A60FB68DB689A
:10114C007A689A4201D300230FE0FB689B68BA6867
:10115C009A4201D3002308E0FB689B687A685A43E3
:10116C00BB68D218FB685A6001231800BD4604B056
:10117C0080BD80B582B000AF78600A00FB1C1A708D
:10118C007B681800FFF794FF7B685A697B685B6883
:10119C00D318FA1C12781A707B681800FFF7AFFF8F
:1011AC00BD4602B080BD80B582B000AF78603960BA
:1011BC003B681B785BB2002B0AD03B685A1C3A6028
:1011CC0000229A567B6811001800FFF7D2FFEFE758
:1011DC00BD4602B080BD80B584B000AFF860B96088
:1011EC007A603B607A68B968FB681800FFF7A0FF6B
:1011FC003A68FB6811001800FFF7D5FFBD4604B034
:10120C0080BD90B585B000AF78600A00BB1C1A8019
:10121C00BB1C1C887B681800FFF75DFF02000023D5
:10122C0094425B41DBB2002B22D1BB1C1C887B6837
:10123C001800FFF75AFF03006343BB600023FB60F9
:10124C007B681800FFF751FF0100FA6800239142F8
:10125C005B41DBB2002B0BD07B685A69F968BB6829
:10126C00CB18D31820221A70FB680133FB60E7E718
:10127C00BD4605B090BD80B582B000AF78600A0065
:10128C00FB1C1A707B68FA1C12781A76BD4602B0E9
:10129C0080BDF0B59FB000AFF860B9607A60BB68F4
:1012AC00180003F033FC0200632393429B415B4222
:1012BC00DBB2002B01D0002312E077257C1910261D
:1012CC00BA197968BB68180002F00AFD0300237094
:1012DC00BA19FB6811001800FFF765FF7B191B7822
:1012EC001800BD461FB0F0BD80B582B000AF78606D
:1012FC000A00FB1C1A707B68FA1C12781A757B6842
:10130C001B7D012B0FD002DC002B05D020E0032B22
:10131C0010D0042B15D01BE07B680122DA747B689B
:10132C0000229A741AE07B6801229A747B6800226E
:10133C00DA7413E07B6800229A747B680022DA74FA
:10134C000CE07B6801229A747B680122DA7405E058
:10135C007B6802229A747B680222DA74BD4602B062
:10136C0080BD80B582B000AF78600A00FB1C1A709B
:10137C007B68FA1C12785A74BD4602B080BD80B5E9
:10138C0082B000AF78600A00FB1C1A707B68FA1CF4
:10139C0012785A717B685B79002B04D07B68022130
:1013AC00180000F006F87B685B791800BD4602B0A7
:1013BC0080BD80B582B000AF78600A00FB1C1A704B
:1013CC007B68FA1C12789A717B689B79022B05D189
:1013DC007B681B6802211800FFF786FFBD4602B030
:1013EC0080BD80B582B000AF786008001100FB1C96
:1013FC00021C1A70BB1C0A1C1A70FB1C1A787B6826
:10140C0011001800FFF7D5FFBB1C1A787B68110080
:10141C00180000F003F8BD4602B080BD80B584B062
:10142C0000AF78600A00FB1C1A707B68FA1C1278FB
:10143C001A710F23FB187A6892791A707B685B79A2
:10144C00002B03D00F23FB1802221A700F23FB185A
:10145C001B78012B15D0022B25D0002B24D17B68B7
:10146C001B79002B06D07B681B6800211800FFF746
:10147C003BFF19E07B681B6804211800FFF734FF61
:10148C0012E07B681B79002B06D07B681B6804215B
:10149C001800FFF729FF07E07B681B680021180084
:1014AC00FFF722FF00E0C046BD4604B080BD00003F
:1014BC0080B584B000AF0200FB1D1A700F23FB181F
:1014CC0000221A700F23FB181B78022B17D80F233E
:1014DC00FB181A780C4BD200D35CFA1D12789A4286
:1014EC0006D10F23FB181B78DA00074BD31807E043
:1014FC000F217B181A787B1801321A70E2E700234F
:10150C001800BD4604B080BD744D000880B582B093
:10151C0000AF0200FB1D1A70FB1D1B78180000F0B9
:10152C002DFE03001800BD4602B080BD90B583B0FF
:10153C0000AF0200FB1D1A703B1D0A1C1A803B1DDC
:10154C001A883C1DFB1D1B781100180000F00FF8C9
:10155C00030023803B1D1A88FB1D1B78110018000B
:10156C0000F0E4FD03001800BD4603B090BD80B54B
:10157C0084B000AF02003960FB1D1A70FB1D1B7894
:10158C001800FFF795FF0300FB60FB68002B01D1EF
:10159C00632313E0FB68DB881A003B68934202D993
:1015AC00FB68DB883B60FB685B881A003B689342F6
:1015BC0002D2FB685B883B603B689BB21800BD465F
:1015CC0004B080BD80B584B000AF78607B68180033
:1015DC0000F09EF9031E03D07B685B68FB6002E0A1
:1015EC007B681B68FB60FB681800BD4604B080BDBF
:1015FC0080B582B000AF78607B68DB6810331A006E
:10160C007B685B7C013B59424B41DBB219001000FB
:10161C00FEF7D5FF7B68DB6808331A007B685B7CC0
:10162C00023B59424B41DBB219001000FEF7C7FFD9
:10163C007B689B7C022B03D17B685B7C022B07D1E4
:10164C007B689B7C012B05D17B685B7C012B01D0DB
:10165C00012300E000237A681900100000F0C4F99F
:10166C007B685B7C032B03D17B680122DA7402E07C
:10167C007B680022DA74BD4602B080BD80B582B0B2
:10168C0000AF78607B68180000F05FF9031E07D08C
:10169C007B68180000F068F9031E01D0012300E0FC
:1016AC000023002B03D07B6803225A7416E07B685E
:1016BC00180000F04AF9031E03D07B6801225A740B
:1016CC000CE07B68180000F04FF9031E03D07B6818
:1016DC0002225A7402E07B6800225A747B6818005C
:1016EC00FFF786FF7B685B7C1800BD4602B080BDAF
:1016FC0080B582B000AF78607B681800FFF7BEFF42
:10170C007B689B7C012B02D0022B48D084E07B6849
:10171C00180000F01AF903001A0001235340DBB241
:10172C00002B17D07B68180000F02DF903001A006D
:10173C0001235340DBB2002B0CD07B68180000F067
:10174C0040F903001A0001235340DBB2002B01D0F7
:10175C00012300E00023002B10D07B689B68002144
:10176C001800FFF75BFE7B681800FFF72BFF0200E9
:10177C0013681B6800211000984760E07B68180014
:10178C00FFF720FF020013681B6804211000984724
:10179C007B689B6801211800FFF740FE4FE07B68D7
:1017AC00180000F0E1F803001A0001235340DBB2EB
:1017BC00002B0CD07B68180000F0F4F803001A0022
:1017CC0001235340DBB2002B01D0012300E00023A6
:1017DC00002B10D07B689B6800211800FFF71EFEC1
:1017EC007B681800FFF7EEFE020013681B680121EE
:1017FC001000984723E07B681800FFF7E3FE020017
:10180C0013681B680421100098477B689B680121B2
:10181C001800FFF703FE12E07B6800229A747B68C5
:10182C001800FFF7CFFE020013681B68042110009C
:10183C0098477B689B6801211800FFF7EFFDBD46B8
:10184C0002B080BD80B582B000AF78607B681B7C35
:10185C00052B4AD89A002D4BD3181B689F467B68E2
:10186C001B6800211800FFF77CFD7B689B68002239
:10187C0000211800FFF7B5FD44E07B681B680021D0
:10188C001800FFF76EFD7B689B6800220221180090
:10189C00FFF7A7FD36E07B681B6800211800FFF7F7
:1018AC0060FD7B689B68002201211800FFF799FD01
:1018BC0028E07B689B68002202211800FFF791FD4D
:1018CC007B681B6801211800FFF74BFD1AE07B6851
:1018DC009B68002202211800FFF783FD7B681B68C0
:1018EC0000211800FFF73DFD0CE07B681B68002110
:1018FC001800FFF736FD7B689B6800220221180058
:10190C00FFF76FFDBD4602B080BDC046AC4C000871
:10191C0080B582B000AF78607B68180000F00BF8DF
:10192C000300013B012B01D8012300E00023180028
:10193C00BD4602B080BD80B582B000AF78607B68D8
:10194C001B7C1800BD4602B080BD80B582B000AFD4
:10195C0078607B68DB68B8331800FEF747FE03003D
:10196C001800BD4602B080BD80B582B000AF786073
:10197C007B68DB68B0331800FEF738FE03001800F4
:10198C00BD4602B080BD80B582B000AF78607B6888
:10199C00DB68C8331800FEF729FE03001800BD46AB
:1019AC0002B080BD80B582B000AF78607B68DB6828
:1019BC00C0331800FEF71AFE03001800BD4602B033
:1019CC0080BD80B582B000AF78607B68DB68E8339F
:1019DC001800FEF70BFE03001A0001235340DBB284
:1019EC001800BD4602B080BD80B582B000AF7860F3
:1019FC000A00FB1C1A707B68DB6820331A00FB1C86
:101A0C001B7819001000FEF7DAFDBD4602B080BD50
:101A1C0080B582B000AF78607B6800229A747B68D6
:101A2C001800FFF765FE7B685B7C1800BD4602B0B2
:101A3C0080BD80B582B000AF78600A00FB1C1A70C4
:101A4C007B681800FFF7E4FF7B68FA1C12781A74A5
:101A5C007B681B7C9BB219000120FFF767FD7B683C
:101A6C001800FFF7EFFEBD4602B080BD80B584B014
:101A7C0000AF78607B681800FFF75DFF03005AB277
:101A8C000F217B181A707B181B785BB2DBB2013B01
:101A9C00DBB25AB27B181A707B181B785BB25A1ED9
:101AAC001343DB0FDBB2002B03D00F23FB180522F3
:101ABC001A700F23FB181B785BB2DAB27B6811002B
:101ACC001800FFF7B6FFBD4604B080BD80B584B0EA
:101ADC0000AF78607B681800FFF72DFF03005AB247
:101AEC000F217B181A707B181B785BB2DBB20133A9
:101AFC00DBB25AB27B181A707B181B785BB20122CE
:101B0C00052B01DC00231A1CD3B2002B03D00F23AE
:101B1C00FB1801221A700F23FB181B785BB2DAB288
:101B2C007B6811001800FFF784FFBD4604B080BD30
:101B3C0080B582B000AF78607B681A7C7B6811003E
:101B4C00180000F005F803001800BD4602B080BD77
:101B5C0080B582B000AF78600A00FB1C1A70FB1CC9
:101B6C001B78052B0ED89A00094BD3181B689F467F
:101B7C00084B08E0084B06E0084B04E0084B02E079
:101B8C00084B00E0084B1800BD4602B080BDC046B3
:101B9C00104D0008C44C0008D04C0008DC4C000868
:101BAC00E84C0008F44C0008004D000880B582B0E9
:101BBC0000AF78600A00FB1C1A707B6818687B68A1
:101BCC001B681B6808331B68FA1C127811009847B5
:101BDC007B6858687B685B681B6808331B68FA1C59
:101BEC001278110098477B689A68FB1C1B781900C7
:101BFC001000FFF7C4FBFB1C1B78002B06D07B6886
:101C0C001A7C7B6811001800FFF713FF01231800E2
:101C1C00BD4602B080BD000080B582B000AF7860D8
:101C2C000A00FB1C1A707B68FA1C12781A747B6809
:101C3C001B7C002B05D10D4B1B6800211800FFF7F6
:101C4C00B5FF7B681B7C022B05D1084B1B6801215F
:101C5C001800FFF7ABFF7B6800221A757B68180031
:101C6C0000F006F8BD4602B080BDC0463000002032
:101C7C0080B584B000AF78607B6800221A750E23A3
:101C8C00FB1801221A807B681B7C012B0BD0022BCA
:101C9C000BD0002B0AD10020FFF738FC02000E23DA
:101CAC00FB181A8002E0C04600E0C0460E23FB1869
:101CBC001A887B681100180000F086F8BD4604B045
:101CCC0080BD000090B585B000AF78607B685B6824
:101CDC000F22BC181800FFF7DEF9030023707B6895
:101CEC001B7C012B35D0022B47D0002B00D062E09F
:101CFC000F23FB181B78032B1FD002DC012B05D004
:101D0C0059E0042B0DD0052B06D054E07B68022142
:101D1C001800FFF781FF4EE000210020FFF706FCC2
:101D2C0049E00020FFF7F2FB03009BB2013B9BB2A2
:101D3C0019000020FFF7FAFB3DE00020FFF7E6FB5F
:101D4C0003009BB201339BB219000020FFF7EEFB9E
:101D5C0031E00F23FB181B78012B02D0022B06D08D
:101D6C0029E07B6802211800FFF756FF23E07B680F
:101D7C0000211800FFF750FF1DE00F23FB181B7804
:101D8C00032B12D002DC012B14DB02E0042B06D057
:101D9C0010E07B6800211800FFF73EFF0AE0094BBA
:101DAC001B681800FFF762FE04E0064B1B68180066
:101DBC00FFF78CFEC0467B681800FFF759FFBD4645
:101DCC0005B090BD30000020B0B584B000AF786095
:101DDC000A00BB1C1A807B681B7C012B34D0022BA5
:101DEC0059D0002B00D089E07B689B680022002131
:101DFC001800FFF79DF97B689868BB1C1A88414B4B
:101E0C001900FFF746FA7B689B6801211800FFF761
:101E1C00F8F97B6898683C4B01220021FFF7DBF94D
:101E2C007B689C68394B1B681800FFF781FE030028
:101E3C0019002000FFF7B7F97B689B68344A110042
:101E4C001800FFF7B0F959E07B689868314B002215
:101E5C000021FFF7C0F92D4B1B680E257C191800CB
:101E6C00FFF769FD030023707B689B680121180054
:101E7C00FFF7C7F97B689C68244B1A687B191B78A1
:101E8C0019001000FFF764FE03000122002120005E
:101E9C00FFF7A1F932E07B6898681F4B0022002104
:101EAC00FFF799F9194B1B680F257C191800FFF7E0
:101EBC0042FD030023707B689B6801211800FFF72B
:101ECC00A0F97B689868154B01220021FFF783F974
:101EDC007B689C680D4B1A687B191B7819001000E5
:101EEC00FFF736FE030019002000FFF75CF97B6852
:101EFC009B680B4A11001800FFF755F9BD4604B05A
:101F0C00B0BDC046284D00083C4D000830000020F4
:101F1C00404D0008444D0008584D00086C4D000819
:101F2C00704D000880B584B000AF0200FB1D1A7024
:101F3C00FB1D1B781800FFF7BBFA0300FB60FB6866
:101F4C00002B01D10A2301E0FB689B881800BD46D9
:101F5C0004B080BD80B582B000AF02003960FB1DBB
:101F6C001A70FB1D1B781B01034A944663443A68A4
:101F7C001A60BD4602B080BD5028004080B582B0CA
:101F8C0000AF0200FB1D1A70FB1D1B781B01044ADD
:101F9C00944663441B681800BD4602B080BDC04621
:101FAC005028004080B582B000AF02003960FB1DA4
:101FBC001A70FB1D1B78022B01D9012309E03B6829
:101FCC001B881A00FB1D1B7811001800FFF7C2FFBD
:101FDC0002231800BD4602B080BD80B582B000AFB0
:101FEC0002003960FB1D1A70FB1D1B78022B01D9F6
:101FFC00012309E0FB1D1B781800FFF7BFFF03004E
:10200C009AB23B681A8002231800BD4602B080BD0C
:10201C00F0B585B000AF0F23FB1801221A700C230A
:10202C00FB1800221A800C23FB181B88022B4CD89F
:10203C000B217B180C22BA1812881A70BB1D0022B7
:10204C001A8008257C19BA1D7B181B781100180002
:10205C00FFF7C3FF030023807B191B88012B1DD1C5
:10206C000B257B191B781800FFF75CFF03001A0087
:10207C00BB1D1A800826BC19BA1D7B191B781100D0
:10208C001800FFF78FFF03002380BB191B88022B5E
:10209C000DD00F23FB1800221A7008E00823FB1840
:1020AC001B88022B03D00F23FB1800221A700C2064
:1020BC003B181A88BB1D1988074B5200D1523B188C
:1020CC001A883B1801321A80ADE70F23FB181B78D6
:1020DC001800BD4605B0F0BDF800002080B582B0F8
:1020EC0000AFFB1D01221A700E4BDA690D4B8021DB
:1020FC0049050A43DA610C4B1A680B4B80214900E5
:10210C000A431A60074B5A6A064B802149040A435A
:10211C005A62FFF77DFFFB1D1B781800BD4602B00D
:10212C0080BDC0460010024000700040B0B584B0C5
:10213C0000AF0200FB1D1A703B1D0A1C1A80FB1D10
:10214C001A783B1D19880C4B5200D1520E257C1964
:10215C003A1DFB1D1B7811001800FFF723FF03002D
:10216C0023807B191B88023B5A425341DBB2180077
:10217C00BD4604B0B0BDC046F800002080B582B0AA
:10218C0000AF0200FB1D1A70FB1D1B78022B02D93D
:10219C0001235B4204E0FB1D1A78034B5200D35A17
:1021AC001800BD4602B080BDF800002080B582B09A
:1021BC0000AF78607B681800FFF7BDFB0300013BA4
:1021CC005A425341DBB21800BD4602B080BD80B507
:1021DC0082B000AF78607B68DB68F0331800FEF7E4
:1021EC0005FA03001A0001235340DBB21800BD4668
:1021FC0002B080BD80B582B000AF78607B68DB7CBC
:10220C001800BD4602B080BDB0B584B000AF786098
:10221C007B681800FFF7D6F90200136804331B68BB
:10222C000F257C1910009847030023707B191B782D
:10223C00012B04D00F23FB181B78002B01D1012399
:10224C0000E000231800BD4604B0B0BD80B584B0DA
:10225C0000AF78607B689B7C012B0CD00020FFF7D3
:10226C0055F90300FB60FB689BB201339BB219006C
:10227C000020FFF75BF97B6801229A747B681800D9
:10228C00FFF736FA7B685B7C1800BD4604B080BD56
:10229C0080B584B000AF78607B689B7C022B0CD03F
:1022AC000020FFF733F90300FB60FB689BB201339E
:1022BC009BB219000020FFF739F97B6802229A744F
:1022CC007B681800FFF714FA7B685B7C1800BD462E
:1022DC0004B080BD80B582B000AF78607B68180018
:1022EC00FFF706FABD4602B080BD80B582B000AFE4
:1022FC0078607B681B68F8331800FEF777F90300E9
:10230C001A0001235340DBB21800BD4602B080BD59
:10231C0090B583B000AF7860744B1B681800FFF762
:10232C00D9FF724B1B681800FFF76EFF031E06D116
:10233C006E4B1B681800FFF739FF031E01D00123F9
:10234C0000E00023002B1ED07B681B68483318006C
:10235C00FEF716F97B681B6840331C00634B1B6847
:10236C001800FFF7D5FA031E07D07B681800FFF79B
:10237C00BCFF031E01D0012300E000231900200044
:10238C00FEF71DF90BE07B681B6848331800FEF75D
:10239C0007F97B681B6840331800FEF701F97B686E
:1023AC001B681C00514B1B681800FFF70AFB03004D
:1023BC0019002000FEF703F97B681B6818331C001A
:1023CC004A4B1B681800FFF702FF03001A00012399
:1023DC005340DBB2002B08D0444B1B681800FFF7AE
:1023EC00F0FA031E01D0012300E0002319002000A5
:1023FC00FEF7E5F87B681B68D0331800FEF7F6F89B
:10240C0003001A0001235340DBB2002B0CD17B6874
:10241C001B68E0331800FEF7E9F803001A000123EB
:10242C005340DBB2002B01D0012300E00023002B32
:10243C0005D02E4B1B681800FFF708FF23E07B68C4
:10244C001B68D8331800FEF7D1F803001A000123DB
:10245C005340DBB2002B06D1244B1B681800FFF74E
:10246C00B0FA031E01D0012300E00023002B05D09D
:10247C001E4B1B681800FFF70BFF04E01B4B1B687F
:10248C001800FFF7C5FA194B1B681800FFF7B2FECE
:10249C00031E08D07B681B686133FF3304211800CE
:1024AC00FEF7BAF807E07B681B686133FF33012144
:1024BC001800FEF7B1F87B681800FFF716FF031E33
:1024CC0008D07B681B687133FF3302211800FEF7BC
:1024DC00A3F807E07B681B687133FF3301211800F8
:1024EC00FEF79AF8BD4603B090BDC0463000002000
:1024FC0080B500AF034B1B681800FFF709FFBD4602
:10250C0080BDC0463400002080B582B000AF78603A
:10251C0039607B68012B09D13B68064A934205D18F
:10252C00054A06483523022101F0F2FABD4602B0F5
:10253C0080BDC046FFFF0000FD2400080001002004
:10254C0080B500AF034B19000120FFF7DDFFBD463E
:10255C0080BDC046FFFF000080B582B000AF020016
:10256C00FB1D1A70034BFA1D12781A70BD4602B08F
:10257C0080BDC0463800002080B584B000AF7860C4
:10258C007B681B681A687B689B885B00DA401300C9
:10259C00FB60FB68DBB203221340DBB21800BD46C4
:1025AC0004B080BD80B584B000AF78607B681B68D8
:1025BC00DA687B689B885B00DA401300FB60FB6881
:1025CC00DBB203221340DBB21800BD4604B080BD61
:1025DC0080B584B000AF78607B681B689A687B68B4
:1025EC009B885B00DA401300FB60FB68DBB20322C4
:1025FC001340DBB21800BD4604B080BD80B584B07A
:10260C0000AF78607B681B689B889BB21A007B6864
:10261C009B881A411300FB60FB68DBB2012213405C
:10262C00DBB21800BD4604B080BD90B583B000AFDE
:10263C0078600C0010001900FB1C221C1A70BB1CCB
:10264C00021C1A707B1C0A1C1A70FB1C1A787B6803
:10265C0011001800FEF782FABB1C1A787B68110077
:10266C001800FEF7EBFA7B1C1A787B681100180037
:10267C00FEF7BFFA1823FB181A787B6811001800B4
:10268C00FEF791FABD4603B090BD80B582B000AFA5
:10269C00786039603B681800FFF76EFF03001A0082
:1026AC007B6811001800FEF759FA3B681800FFF719
:1026BC00A5FF03001A007B6811001800FEF7BEFA94
:1026CC003B681800FFF76EFF03001A007B681100CF
:1026DC001800FEF78EFA3B681800FFF779FF03002D
:1026EC001A007B6811001800FEF75DFABD4602B0B7
:1026FC0080BD000080B582B000AF7860034A7B6873
:10270C001A607B681800BD4602B080BDFC4D000805
:10271C0080B582B000AF7860054A7B681A607B6830
:10272C0001221A717B681800BD4602B080BDC046FC
:10273C00FC4D000880B584B000AFF860B9607A60D9
:10274C00FB681800FFF7E4FF084AFB681A60FB6897
:10275C0002221A74FB68BA689A60FB687A68DA60BD
:10276C00FB681800BD4604B080BDC046E04D0008B3
:10277C0080B582B000AF78607B689B681800FDF76D
:10278C000FFF7B68DB681800FDF70AFFBD4602B03F
:10279C0080BD80B582B000AF78600A00FB1C1A7057
:1027AC007B681B681B687A680221100098477B685D
:1027BC00FA1C12781A7101231800BD4602B080BDB4
:1027CC0080B582B000AF78600A00FB1C1A707B6881
:1027DC001B79002B02D0FB1C02221A707B68FA1C9E
:1027EC0012781A747B681B7C002B02D0012B0BD047
:1027FC0015E07B689B681800FDF7D2FE7B68DB68F0
:10280C001800FDF7BDFE14E07B68DB681800FDF7CF
:10281C00C7FE7B689B681800FDF7B2FE09E07B6879
:10282C009B681800FDF7BCFE7B68DB681800FDF7A1
:10283C00B7FEBD4602B080BD80B582B000AF7860F7
:10284C007B681B7C1800BD4602B080BD80B582B091
:10285C0000AF78600A00FB1C1A707B68FA1C1278B7
:10286C001A74FB1C1B78002B02D0012B0BD015E02B
:10287C007B685B681800FDF793FE7B681B6818008B
:10288C00FDF77EFE14E07B681B681800FDF788FEE0
:10289C007B685B681800FDF773FE09E07B681B68BA
:1028AC001800FDF77DFE7B685B681800FDF778FE6D
:1028BC00BD4602B080BD80B582B000AF78600A0022
:1028CC00FB1C1A707B68FA1C12785A74FB1C1B7860
:1028DC00002B02D0012B0BD015E07B68DB681800B5
:1028EC00FDF75EFE7B689B681800FDF749FE14E05F
:1028FC007B689B681800FDF753FE7B68DB6818004B
:10290C00FDF73EFE09E07B689B681800FDF748FE6A
:10291C007B68DB681800FDF743FEBD4602B080BD46
:10292C0080B584B000AFF860B9607A603B60FB683A
:10293C0001221A74FB6801225A74FB6802229A74F1
:10294C00FB680222DA74FB6804221A75FB68BA6809
:10295C001A60FB687A685A60FB683A689A60FB6890
:10296C00BA69DA60FB681800BD4604B080BD80B55A
:10297C0082B000AF78607B6802211800FFF79BFFE4
:10298C007B6802211800FFF761FF7B6802211800A9
:10299C00FEF7AAFCBD4602B080BD80B582B000AF88
:1029AC0078607B685A7C7B68DB7C9A4205D17B68BB
:1029BC001A7C7B689B7C9A4220D07B685B7C022BC8
:1029CC0012D17B681B7C022B0ED17B68DA7C7B6876
:1029DC0011001800FFF76FFF7B689A7C7B68110071
:1029EC001800FFF733FF09E07B6802211800FFF79E
:1029FC0062FF7B6802211800FFF728FFBD4602B07A
:102A0C0080BD000080B584B000AFF860B9607A601A
:102A1C00FB681800FFF77CFE094AFB681A60FB682C
:102A2C0002221A74FB6800225A74FB68BA689A6016
:102A3C00FB687A68DA60FB681800BD4604B080BD9C
:102A4C00C44D000880B582B000AF78607B689B688D
:102A5C001800FFF78CFF7B68DB681800FFF787FF17
:102A6C00BD4602B080BD80B582B000AF78600A0070
:102A7C00FB1C1A707B681B681B687A6802211000AB
:102A8C0098477B68FA1C12781A717B681B791800BE
:102A9C00BD4602B080BD80B582B000AF78600A0040
:102AAC00FB1C1A707B681B79002B02D0FB1C0222CA
:102ABC001A707B68FA1C12781A747B685B7C002B8A
:102ACC002DD07B681B7C002B02D0012B0DD019E084
:102ADC007B689B6800211800FEF706FC7B68DB68AE
:102AEC0000211800FEF700FC48E07B689B68012180
:102AFC001800FEF7F9FB7B68DB6800211800FEF775
:102B0C00F3FB3BE07B689B6804211800FEF7ECFBB1
:102B1C007B68DB6804211800FEF7E6FB2EE07B687F
:102B2C001B7C012B0FD002DC002B05D020E0032BEB
:102B3C0010D0042B15D01BE07B68DB68002118003B
:102B4C00FEF7D2FB1AE07B68DB6801211800FEF768
:102B5C00CBFB13E07B68DB6803211800FEF7C4FB9A
:102B6C000CE07B68DB6804211800FEF7BDFB05E078
:102B7C007B68DB6802211800FEF7B6FBBD4602B08D
:102B8C0080BD80B582B000AF78607B681B7C18007C
:102B9C00BD4602B080BD80B582B000AF78603960B0
:102BAC007B6800221A717B6801225A717B680222B1
:102BBC009A717B683A681A607B681800BD4602B04F
:102BCC0080BD80B582B000AF78607B681B68180050
:102BDC00FFF7CDFE7B6801211800FEF7D0FBBD4648
:102BEC0002B080BD80B582B000AF78607B680022F7
:102BFC005A737B6801221A737B6800229A60BD4667
:102C0C0002B080BD80B584B000AFF860B960FB1D28
:102C1C001A70F868FB1D1B789AB2BB681900FEF796
:102C2C0037F8FB681800FFF7DDFFFB681800BD469E
:102C3C0004B080BD80B584B002AF7860080011008C
:102C4C00FB1C021C1A70BB1C0A1C1A707B68FA1C39
:102C5C0012785A737B68BA1C12781A737B6800223C
:102C6C009A60786800230093002300220121FFF76B
:102C7C00DCFCBD4602B080BD80B586B002AF78608A
:102C8C009F4B5A699E4BFC21C9030A435A619C4BCA
:102C9C005B69FB60FB6878680023009300230022CB
:102CAC000121FFF7C2FC7B6808337A681100180019
:102CBC00FFF7EBFC7B6810337A6811001800FFF704
:102CCC00E4FC7B6818337A6811001800FFF7DDFC10
:102CDC007B6820337A6811001800FFF7D6FC7B68FC
:102CEC0028337A6811001800FFF7CFFC7B6830336B
:102CFC007A6811001800FFF7C8FC7B6838337A68D3
:102D0C0011001800FFF7C1FC7B6840337A68110092
:102D1C001800FFF7BAFC7B6848337A68110018007A
:102D2C00FFF7B3FC7B685033180002230093002399
:102D3C0000220121FFF779FC7B6858331A007B686D
:102D4C00503319001000FFF7A0FC7B6860331A00A9
:102D5C007B68503319001000FFF797FC7B686833D1
:102D6C001A007B68503319001000FFF78EFC7B684B
:102D7C0070331A007B68503319001000FFF785FC84
:102D8C007B6878331A007B68503319001000FFF70A
:102D9C007CFC7B6880331A007B6850331900100070
:102DAC00FFF773FC7B6888331A007B68503319007B
:102DBC001000FFF76AFC7B68903318000023009327
:102DCC00012301220021FFF730FC7B6898331A00A5
:102DDC007B68903319001000FFF757FC7B68A03319
:102DEC001A007B68903319001000FFF74EFC7B68CB
:102DFC00A8331A007B68903319001000FFF745FCCC
:102E0C007B68B0331A007B68903319001000FFF711
:102E1C003CFC7B68B8331A007B68903319001000B7
:102E2C00FFF733FC7B68C0331A007B6890331900C2
:102E3C001000FFF72AFC7B68C8331A007B689033BC
:102E4C0019001000FFF721FC7B68D0331A007B6857
:102E5C00903319001000FFF718FC7B68D8331A0068
:102E6C007B68903319001000FFF70FFC7B68E03390
:102E7C001A007B68903319001000FFF706FC7B6882
:102E8C00E8331A007B68903319001000FFF7FDFB44
:102E9C007B68F0331A007B68903319001000FFF741
:102EAC00F4FB7B68F8331A007B6890331900100030
:102EBC00FFF7EBFB7B685A1CFF327B6890331900E1
:102ECC001000FFF7E2FB7B680933FF331A007B68C5
:102EDC00903319001000FFF7D8FB7B686133FF3388
:102EEC00002200211800FFF7A5FE7B687133FF3329
:102EFC00002200211800FFF79DFEBD4604B080BDE6
:102F0C000010024080B584B000AFF860B9607A6000
:102F1C003B60FB680022DA60FB6800221A74FB68D5
:102F2C0000225A74FB6800229A74FB680022DA743F
:102F3C00FB68BA681A60FB687A685A60FB683A6882
:102F4C009A60FB681800BD4604B080BD80B582B0A5
:102F5C0000AF78607B68104ADA607B681B681800E9
:102F6C00FFF770FD7B685B681800FFF701FC7B685E
:102F7C009B681800FFF725FE0120FEF7C7FA030037
:102F8C00DAB27B681A747B681800FEF75BFC0123CD
:102F9C001800BD4602B080BD1801002080B582B07B
:102FAC0000AF78600A00FB1C1A70FB1C1B78002B0E
:102FBC0007D07B681A1DFB1C1B781900100000F051
:102FCC006BFCBD4602B080BD80B586B000AFF8602A
:102FDC00B9607A603B60FB680433F968042218001E
:102FEC0000F03AFCFB68BA68DA61FB687A681A622E
:102FFC00FB683A685A62FB683A6A9A621623FB18B5
:10300C0000221A801623FB181B88032B0BD81620C2
:10301C003B181B88FA680021D1543B181A883B18BE
:10302C0001321A80EEE7FB681800BD4606B080BD81
:10303C00B0B584B000AF78600F257C197B681800A0
:10304C00FDF71BFC030023700C4B1B787A191278CC
:10305C009A4210D0094B0F217A1812781A707B18EB
:10306C001B78002B07D00F23FB181A787B681100F4
:10307C001800FFF793FFBD4604B0B0BD140100204B
:10308C0080B584B000AF78600023FB607B681B695F
:10309C00FA689A4209D87B685A69FB68D3182022CF
:1030AC001A70FB680133FB60F0E7BD4604B080BDCD
:1030BC0080B584B000AFF860B9607A603B60FB68A3
:1030CC00BA681A60FB687A685A60FB683A689A605A
:1030DC00FB6800221A74BD4604B080BD80B584B074
:1030EC0000AFF860B9607A603B60FB68BA689A60C0
:1030FC00FB683A68DA60FB687A681A61FB68BA693F
:10310C001A62FB683A6A9A61FB687A6ADA61FB6850
:10311C00FA695A61FB685869FB689968FB681A6917
:10312C00FB68DB68FFF7C4FFBD4604B080BD000040
:10313C0080B582B000AF78600C4A7B681A607B68FF
:10314C0000225A607B6800229A607B680022DA6059
:10315C007B6800221A617B6800225A617B6800221E
:10316C001A767B681800BD4602B080BD4C4E000834
:10317C0080B582B000AF78607B685B681800BD4694
:10318C0002B080BD80B582B000AF78607B68084A21
:10319C001A60084B1B681800FFF7D8FE054B1B681C
:1031AC0000211800FEF702FDBD4602B080BDC046EE
:1031BC00180100203000002080B582B000AF78608C
:1031CC0078689023DB0500221900FDF761FD7B6810
:1031DC00083318009023DB0501221900FDF758FD78
:1031EC007B68103318009023DB0502221900FDF7D1
:1031FC004FFD7B68183318009023DB050322190060
:10320C00FDF746FD7B682033A14904221800FDF729
:10321C003FFD7B68283318009023DB05082219003A
:10322C00FDF736FD7B683033994906221800FDF70F
:10323C002FFD7B683833964909221800FDF728FDCD
:10324C007B684033924907221800FDF721FD7B680B
:10325C0048338F4908221800FDF71AFD7B6850335C
:10326C008C490F221800FDF713FD7B6858338949F0
:10327C000E221800FDF70CFD7B68603385490D228A
:10328C001800FDF705FD7B68683382490C22180095
:10329C00FDF7FEFC7B6870337E490B221800FDF7AE
:1032AC00F7FC7B6878337B490A221800FDF7F0FCA9
:1032BC007B688033774909221800FDF7E9FC7B68AD
:1032CC008833744908221800FDF7E2FC7B689033C0
:1032DC0018009023DB0507221900FDF7D9FC7B6849
:1032EC0098336D4900221800FDF7D2FC7B68A0339F
:1032FC00694901221800FDF7CBFC7B68A8336649AD
:10330C0002221800FDF7C4FC7B68B0331800902330
:10331C00DB0504221900FDF7BBFC7B68B8331800F1
:10332C009023DB0505221900FDF7B2FC7B68C03346
:10333C0018009023DB0506221900FDF7A9FC7B6819
:10334C00C833564907221800FDF7A2FC7B68D0331E
:10335C00524908221800FDF79BFC7B68D8334F4973
:10336C0009221800FDF794FC7B68E0334B490A22D4
:10337C001800FDF78DFC7B68E83348490B221800D8
:10338C00FDF786FC7B68F03344490C221800FDF7EE
:10339C007FFC7B68F83341490D221800FDF778FC5F
:1033AC007B680133FF333D490E221800FDF770FC9A
:1033BC007B680933FF3339490F221800FDF768FC8D
:1033CC007B681133FF33324905221800FDF760FC8E
:1033DC007B681933FF33314902221800FDF758FC82
:1033EC007B682133FF3318009023DB050C22190076
:1033FC00FDF74EFC7B682933FF3327490622180062
:10340C00FDF746FC7B683133FF3323490722180054
:10341C00FDF73EFC7B683933FF331E49062218004A
:10342C00FDF736FC7B684133FF331A49052218003F
:10343C00FDF72EFC7B684933FF3316490422180034
:10344C00FDF726FC7B685133FF3313490A22180021
:10345C00FDF71EFC7B685933FF330F490B22180014
:10346C00FDF716FC7B686133FF330D49022218000F
:10347C00FFF7C8FB7B687133FF330949032218003F
:10348C00FFF7C0FB7B681800BD4602B080BDC0468C
:10349C0000080048000C00480004004800100048D8
:1034AC000014004880B582B000AF78607B680022C1
:1034BC005A827B6800221A757B681800BD4602B0E0
:1034CC0080BD000080B500AF044B1800FFF765FA13
:1034DC00034B1800FFF761FABD4680BDC402002003
:1034EC00DC02002080B500AF024B1800FFF7A0FDF6
:1034FC00BD4680BD9802002090B587B004AF012076
:10350C00FFF72AF8FDF710FD334B1800FFF7B4FB5B
:10351C006420FDF727FCFEF7E1FD304B304A1A60C2
:10352C002E4B6422DA602D4B2E4A5A602B4B2E4ABE
:10353C009A602E4B1B68294A1100180000F024FDDC
:10354C002A4B19682A4B2B4A2B4801F085F8FDF7BA
:10355C0037FA03007B60294B1C68274B1800FFF7D8
:10356C0007FE0100264A7868264B0393264B0293EC
:10357C00264B01931F4B00930B002100FFF7AEFD70
:10358C007B68DB681800FFF77BFD7B68DB6800213C
:10359C001800FDF770FE1E4B1B681800FFF7F2FDBC
:1035AC007B68D8681B4B00220021FDF714FE7B685A
:1035BC00D868194B01220021FDF70DFEFA23DB0020
:1035CC001800FDF7B5FB0020FEF7C6FFFDF7DCFC8D
:1035DC0000F06AFAFAE7C04618010020200000202B
:1035EC0000580040700200206802002024030020D4
:1035FC002802002030020020280300203000002088
:10360C009802002088020020780200205C03002031
:10361C0034000020944D0008A84D000880B582B0FD
:10362C0000AF7860054A7B681A607B681800FFF76A
:10363C0061F87B681800BD4602B080BDC44D00081F
:10364C0080B582B000AF78607B681800FFF7E6FFAA
:10365C007B681421180001F0FDF97B681800BD4649
:10366C0002B080BD80B582B000AF7860054A7B683F
:10367C001A607B681800FFF73DF87B681800BD46A0
:10368C0002B080BDE04D000880B582B000AF78601C
:10369C007B681800FFF7E6FF7B681421180001F027
:1036AC00D9F97B681800BD4602B080BD90B585B0D5
:1036BC0002AF786039607B68012B62D13B683C4A71
:1036CC0093425ED13B4B1800C0235B001A000021D3
:1036DC0001F0B2FA374B1800FFF76EFD364C374A43
:1036EC0037493848384B00932300FFF76DFC374CB3
:1036FC00374A38493848394B00932300FFF710F903
:10370C00374C384A38493948394B00932300FFF776
:10371C0007F9314A374B11001800FFF73CFA334ACE
:10372C002D49354B1800FFF76DF9344A3449354BA8
:10373C001800FEF7FFFF00F01FFC0200324B1A606E
:10374C00324B1800FFF7F4FC2A4B2E4A2A4930481A
:10375C00FFF7D8FB2F4B180018231A00002101F09B
:10376C006BFA2C4B1800FFF79DFE2B4A2B480A23B3
:10377C00022100F0CDF92A4A2A480123022100F047
:10378C00C7F97B68002B0FD13B68094A93420BD1D8
:10379C001E4B180000F034FF1A4B1800FFF762FFA5
:1037AC00154B1800FFF73AFFBD4603B090BDC0465D
:1037BC00FFFF000018010020B8010020B00100201C
:1037CC00A801002098020020C001002070010020F8
:1037DC008801002068010020C40200209001002014
:1037EC00800100209801002078010020DC020020DC
:1037FC00A0010020F4020020FC020020480100205F
:10380C005001002010030020240300202803002076
:10381C00440300205C030020F134000874030020F2
:10382C00D13400088803002080B500AF034B190089
:10383C000120FFF73BFFBD4680BDC046FFFF0000E7
:10384C0080B500AF034B19000020FFF72FFFBD46DA
:10385C0080BDC046FFFF000080B584B000AFF860AB
:10386C00B9607A60FB680B4A1A61FB68094A9A8254
:10387C00FB687A681A60FB68BA68DA60FB68002239
:10388C009A60FB6800225A60FB681800BD4604B0C1
:10389C0080BDC04600FFFFFF80B584B000AF7860EC
:1038AC000A00FB1C1A707B685B68FB607B689B687A
:1038BC00BB60FB680133BA689A4201D100231EE059
:1038CC00BB68002B07D17B681B68013BFA689A42E6
:1038DC0001D1002313E07B68DA68FB68591CF9609E
:1038EC00D318FA1C12781A707B681B68FA689A4213
:1038FC0001D2FA6800E000227B685A6001231800AC
:10390C00BD4604B080BD80B586B000AF78607B68E2
:10391C009B687B617B685B683B617A693B699A4217
:10392C0002D17B689B8A17E07B68DA687B69591C3B
:10393C007961D2180F23FB1812781A707B681B68F8
:10394C007A699A4201D27A6900E000227B689A6017
:10395C000F23FB181B789BB21800BD4606B080BD28
:10396C0080B584B000AF786039603B68002B01D122
:10397C00002323E00F23FB1801221A703B68180068
:10398C00FDF756FB031E16D03B681800FFF7BBFF74
:10399C000300DAB27B6811001800FFF77DFF03000B
:1039AC001A0001235340DBB2002BE7D00F23FB1886
:1039BC0000221A70E2E70F23FB181B781800BD4693
:1039CC0004B080BD80B584B000AF78607B689B6824
:1039DC00FB607B685B68BB60BA68FB689A4203D388
:1039EC00BA68FB68D31A05E07B681A68FB68D21AC0
:1039FC00BB68D3181800BD4604B080BD80B582B03A
:103A0C0000AF7860034A7B681A607B681800BD467B
:103A1C0002B080BD184E000880B582B000AF78604F
:103A2C007B681800FFF7EAFF7B681C21180001F087
:103A3C0011F87B681800BD4602B080BD80B584B01B
:103A4C0000AF7860164B1A687B68D218144B1A605A
:103A5C00144B1B68FB60FB68002B1DD0FB685B7C68
:103A6C00022B15D1FB681B687A689A429B415B421A
:103A7C00DBB2002B06D0FB681A687B68D21AFB6895
:103A8C001A6005E0FB6801225A74FB6800221A6078
:103A9C00FB689B68FB60DEE7BD4604B080BDC0469A
:103AAC00A00300209C03002080B582B000AF164B11
:103ABC001B78DBB2002B24D1144B1B687B607B681A
:103ACC00002B1ED07B685B7C012B16D17B681B7C8A
:103ADC00012B0CD0022B10D17B685A687B681A60C2
:103AEC007B6802225A747B68DB68984705E07B6828
:103AFC0000225A747B68DB6898477B689B687B6004
:103B0C00DDE7BD4602B080BD380000209C030020DC
:103B1C0080B586B000AFF8607A603B600B203B1834
:103B2C000A1C1A70FB6800225A74FB683A18127847
:103B3C001A74FB687A68DA60FB683A685A60184B4A
:103B4C001B68002B0AD1164BFA681A60144B1B68C1
:103B5C0000229A60FB6802225A741BE0104B1B680F
:103B6C007B617B699B68002B07D07A69FB689A4262
:103B7C0010D07B699B687B61F3E77A69FB689A429A
:103B8C0008D0FB6800229A607B69FA689A60FB682F
:103B9C0002225A74FB681800BD4606B080BDC046B0
:103BAC009C03002080B500AF0120FFF747FFBD4606
:103BBC0080BD90B585B000AF786039600B23FB18E1
:103BCC0030221A700A23FB1823221A707B68FB60C0
:103BDC0002E0FB680133FB60FB681B785BB2002BD7
:103BEC00F7D143E0FB68013BFB60FB681B785BB2E1
:103BFC000B22BA18127852B29A4208D0FB681B7882
:103C0C005BB20A22BA18127852B29A422ED13B6891
:103C1C000A21180001F00AF80B001A0009243B19BC
:103C2C001A703B680A21180000F07AFF03003B6011
:103C3C003B191B78002B0FD13B68002B0CD1FB6878
:103C4C001B785BB20A22BA18127852B29A420CD183
:103C5C00FB6820221A7009E00923FB181B7830330B
:103C6C00DBB25AB2FB681A7000E0C046FA687B6897
:103C7C009A42B7D83B685A425341DBB21800BD4652
:103C8C0005B090BD80B586B000AFF860B960FB1D83
:103C9C001A70BB685A1CBA6000229A5617217B18FE
:103CAC001A707B181B78002B0DD1FB1D1B78002B79
:103CBC0007D0FB685A1CFA601722BA18127852B255
:103CCC001A70FB6808E0FB685A1CFA601722BA18D5
:103CDC00127852B21A70DCE71800BD4606B080BDEF
:103CEC0080B584B000AFF860B9607A60F9687B6821
:103CFC0001221800FFF7C6FFBA687B681100180094
:103D0C00FFF757FF03001800BD4604B080BD00004C
:103D1C0080B582B000AF0200FB1D1A70FB1D1B7832
:103D2C005BB21F221A40044B012191400A001A6019
:103D3C00BD4602B080BDC04600E100E090B583B046
:103D4C0000AF02003960FB1D1A70FB1D1B785BB2C3
:103D5C00002B36DA314AFB1D1B785BB219000F239E
:103D6C000B40083B9B0806339B00D31804331B689D
:103D7C00FA1D127852B2110003220A40D200FF2120
:103D8C0091400A00D2431A4011003B689B01FF226C
:103D9C001A40FB1D1B785BB2180003230340DB00A9
:103DAC009A401E48FB1D1B785BB21C000F2323405E
:103DBC00083B9B080A4306339B00C31804331A6064
:103DCC0029E0174AFB1D1B785BB29B08C0339B0094
:103DDC009B58FA1D127852B2110003220A40D200ED
:103DEC00FF2191400A00D2431A4011003B689B010D
:103DFC00FF221A40FB1D1B785BB218000323034003
:103E0C00DB009A400648FB1D1B785BB29B080A43FB
:103E1C00C0339B001A50BD4603B090BD00ED00E0CE
:103E2C0000E100E080B588B000AF78600A00FB1CB0
:103E3C001A70FB1C1B78072B01D9002352E00723B7
:103E4C00FB61FB1C1B78BB617B689B88072B1FD815
:103E5C007B689B88DAB217217B1892001A707B68FA
:103E6C001B681B6A3B617B181B7807229A40130066
:103E7C00DA433B6913403B617B181B78BA699A4063
:103E8C0013003A6913433B617B681B683A691A62F9
:103E9C007B689B88072B24D97B689B880F2B20D8A9
:103EAC007B689B88083BDAB20F217B1892001A7052
:103EBC007B681B685B6ABB607B181B7807229A4087
:103ECC001300DA43BB681340BB607B181B78BA69DC
:103EDC009A401300BA681343BB607B681B68BA68CE
:103EEC005A6201231800BD4608B080BD80B582B06F
:103EFC0000AF78607B6800225A607B6800229A6071
:103F0C00BD4602B080BD80B582B000AF78607B68E2
:103F1C0000221A607B6800225A607B6800221A819A
:103F2C007B6800229A727B681800BD4602B080BD87
:103F3C0080B582B000AF78600A00FB1C1A70FB1CC5
:103F4C001B78002B03D17B6800229A7203E07B68FC
:103F5C00FA1C12789A72BD4602B080BD80B582B050
:103F6C0000AF78607B689B7ADBB25A1E9341DBB260
:103F7C001800BD4602B080BD80B500AF014B1800E3
:103F8C00BD4680BDA403002080B582B000AF786030
:103F9C0039607B683A681A607B681B681B685A42F8
:103FAC005341DBB2002B01D000231CE03B685B6863
:103FBC00002B01D1002316E03B689B68002B01D13C
:103FCC00002310E07B681B68DB685A425341DBB26C
:103FDC00002B03D07B681B686422DA607B681800B6
:103FEC0000F006F803001800BD4602B080BD0000CA
:103FFC0080B586B002AF78607B685C4A5A607B689B
:10400C0000211800FFF794FF80239B03FB607B6863
:10401C001B681B68564A944663445A425341DBB2B0
:10402C00002B02D08023DB03FB60524BD969FA686A
:10403C00504B0A43DA614F4BDB69FA681340BB60A3
:10404C00BB687B681B681B681A6801218A431A606D
:10405C007B681B681B681B68012213405A1E934126
:10406C00DBB2002BF4D17B681B68986803230093A8
:10407C00012301220221FEF7D8FA7B681B685868DD
:10408C0003230093012301220221FEF7CEFA7B6861
:10409C001B689B6801211800FFF7C4FE7B681B6836
:1040AC005B6801211800FFF7BDFE7B681B681B686D
:1040BC001A68802149010A431A607B681B681B68D7
:1040CC001B682D4A1A407B681B681B6880214900BD
:1040DC000A431A607B681B681B68284A9446634431
:1040EC005A425341DBB2002B07D003211720FFF7B4
:1040FC0025FE1720FFF70CFE14E07B681B681B687D
:10410C001B4A944663445A425341DBB2002B07D0FE
:10411C0003211820FFF712FE1820FFF7F9FD01E02C
:10412C0000231EE07B681B681B681A6814490A4050
:10413C001A607B681B681B68124A1A617B681B68D3
:10414C001B681A6801210A431A607B681B681B688C
:10415C001B68012213405A425341DBB2002BF4D1AD
:10416C0001231800BD4604B080BDC04614040020D5
:10417C0000A8FFBF00100240FFF0FFFF00ACFFBF24
:10418C00FFFFFDFF271A106080B584B000AF786088
:10419C007B681B681B68FB607B685B68BB60FB68AB
:1041AC009B69102213405A1E9341DBB2002B0AD09C
:1041BC007B6805211800FFF7BBFEFB68DB6910224A
:1041CC001A43FB68DA61FB689B69042213405A1E90
:1041DC009341DBB2002B09D07B681B681B685B6AC0
:1041EC00DAB2BB6811001800FFF756FBFB689B693D
:1041FC00022213405A1E9341DBB2002B09D0BB683C
:10420C001800FFF780FB0300DAB27B681B681B68A1
:10421C009A62FB689B69202213405A1E9341DBB2C1
:10422C00002B0AD0FB68DB6920221A43FB68DA6199
:10423C007B6800211800FFF77BFEBD4604B080BDF3
:10424C0080B584B000AF786039607B681800FFF7E8
:10425C0085FE031E01D0002366E07B680121180057
:10426C00FFF766FE7B685B681800FFF73FFE7B6814
:10427C005B683A6811001800FFF772FB7B681B68DB
:10428C001B685A682A490A405A607B681B681B687D
:10429C005A6828490A405A607B681B681B685B682F
:1042AC009B0A9A027B681B899BB219007B681B686E
:1042BC001B680A435A607B681B681B685A681E4956
:1042CC000A405A607B681B681B685A688021890405
:1042DC000A435A607B685B681800FFF773FB0300A6
:1042EC00FB60FB68FF2B01D9FF23FB607B681B681D
:1042FC001B685B68114A13401900FB681A047B6841
:10430C001B681B680A435A607B681B681B681A6829
:10431C0022210A431A607B681B681B685A6880213B
:10432C0089010A435A6001231800BD4604B080BDC0
:10433C00FFFBFFFFFFF7FFFFFFEFFFFFFFFF00FF9C
:10434C0080B500AF024B1800FFF71EFFBD4680BDC5
:10435C00A403002080B500AF024B1800FFF714FF38
:10436C00BD4680BDA403002080B582B000AF78604C
:10437C0039607B68012B0DD13B68084A934209D107
:10438C00074B1800FFF7BFFD0649074B64221800C6
:10439C00FFF762FABD4602B080BDC046FFFF0000C9
:1043AC00A4030020B00300201404002080B500AF4B
:1043BC00034B19000120FFF7D7FFBD4680BDC04657
:1043CC00FFFF000080B584B000AFF860B9607A6080
:1043DC003B600F4AFB681A60FB68BA689A60FB681E
:1043EC007A68DA60FB683A685A61FB68DA68FB68DD
:1043FC009B685A43FB681A61FB6800225A60FB6891
:10440C0000221A76FB681800BD4604B080BDC04679
:10441C00184E000880B582B000AF78607B685B698D
:10442C001800BD4602B080BD80B588B000AFF86002
:10443C00B9607A60FB681800FCF757FE0300BB619B
:10444C00FB681800FCF747FE0100BA6800238A429B
:10445C005B41DBB2002B01D000231DE0BB68BA69C5
:10446C0053437B610023FB61FA69BB699A4212D208
:10447C00FB681800FFF7CEFF01007A69FB69D318BF
:10448C00CB181A787B6811001800FFF705FAFB6946
:10449C000133FB61E8E701231800BD4608B080BD7D
:1044AC0080B582B000AF78600A00BB1C1A807B68B4
:1044BC00BA1C12881A81BD4602B080BD80B582B08C
:1044CC0000AF786039603A687B6811001800FFF71C
:1044DC00B7FE03001800BD4602B080BD80B582B0A7
:1044EC0000AF78600A00FB1C1A70FB1C1A787B6802
:1044FC001100180000F097F903001800BD4602B037
:10450C0080BD80B582B000AF78607B68DB68180036
:10451C00FFF724FD03001800BD4602B080BD80B536
:10452C0082B000AF78600A00FB1C1A707B685A6975
:10453C00FB1C1B7819001000FCF741F8BD4602B0BB
:10454C0080BD80B582B000AF78600A00FB1C1A7089
:10455C007B681A69FB1C1B7819001000FCF72FF8FC
:10456C00BD4602B080BD80B584B000AF7860080055
:10457C001100FB1C021C1A70BB1C0A1C1A70FB1CC1
:10458C001B78102B01D9002324E00023FB60BB1CFB
:10459C001B78022B06D0032B07D0012B08D140230C
:1045AC00FB6007E01023FB6004E05023FB6001E09C
:1045BC000023FB60FB68DAB2FB1C1B781343DBB2F5
:1045CC00802252421343DAB27B681100180000F0CB
:1045DC002AF903001800BD4604B080BD80B500AFB9
:1045EC0000F002F8BD4680BD80B500AF034B1B68E0
:1045FC00180000F059F9BD4680BDC0462C040020BF
:10460C0080B582B000AF7860034A7B681A607B6823
:10461C001800BD4602B080BD4C4E000880B582B07B
:10462C0000AF78607B681800FFF7EAFF7B681C21FD
:10463C00180000F00FFA7B681800BD4602B080BD70
:10464C0080B582B000AF786039603B681800FCF729
:10465C00A3FCBD4602B080BD80B586B002AFF86049
:10466C00B9607A603B60534BFA681A60FB687A68F1
:10467C001A61FB683A685A61FB6818690223009357
:10468C00002300220121FDF7D0FFFB6858690223AB
:10469C000093002301220121FDF7C7FFFB68464A66
:1046AC005A60FB68454A9A60FB6800221A76FB68E0
:1046BC00BA68DA60FB68DB687C211800FFF7F0FE53
:1046CC00FB6801211800FFF73CFFFB680021180074
:1046DC00FFF725FFFB6832211800FFF7B1FFFB68DD
:1046EC0001211800FFF71BFFFB6864211800FFF77E
:1046FC00A7FFFB683821180000F095F896235A00A4
:10470C00FB6811001800FFF79BFFFB6839211800AC
:10471C0000F089F896235A00FB6811001800FFF787
:10472C008FFFFB681421180000F07DF8FB686421F2
:10473C001800FFF785FFFB687921180000F073F86B
:10474C00FB6864211800FFF77BFFFB685021180001
:10475C0000F069F8FB6864211800FFF771FFFB6833
:10476C006C21180000F05FF8FB6864211800FFF75B
:10477C0067FFFB680C21180000F055F8FB686421FA
:10478C001800FFF75DFFFB680121180000F04BF8E3
:10479C00FB6864211800FFF753FFFB6838211800F1
:1047AC0000F041F8FB6864211800FFF749FFBD4693
:1047BC0004B080BD2C0400206C040020B004002048
:1047CC0080B582B000AF786008001100FB1C021CA1
:1047DC001A70BB1C0A1C1A707B689B681800FFF7C8
:1047EC0085FB7B689A68FB1C1B78002B01D000238F
:1047FC0000E0402319001000FFF74EF87B689A6820
:10480C00BB1C1B7819001000FFF746F87B68DA68B0
:10481C007B689B6819001000FFF712FD030018005D
:10482C00BD4602B080BD80B582B000AF78600A0092
:10483C00FB1C1A70FB1C1A787B6801211800FFF70F
:10484C00BFFF03001800BD4602B080BD80B582B02A
:10485C0000AF786039607B689B681800FFF746FBF7
:10486C007B689B6840211800FFF716F87B68586836
:10487C007B689A683B681900FFF7D6FD03001A00A5
:10488C0001235340DBB2002B01D0002308E07B68EE
:10489C00DA687B689B6819001000FFF70FFE0300B5
:1048AC001800BD4602B080BD80B584B000AF786002
:1048BC000F217B187A68127E1A707B181B78082BD4
:1048CC0065D89A00394BD3181B689F467B68022227
:1048DC001A7667E07B681800FFF713FE03001A00D6
:1048EC0001235340DBB2002B55D07B68022118000A
:1048FC00FFF7F4FD7B6803221A7653E07B680422F1
:10490C001A764FE07B681800FFF7FBFD03001A00D6
:10491C0001235340DBB2002B3FD07B6800211800F1
:10492C00FFF794FF7B6805221A763BE07B68062232
:10493C001A7637E07B681800FFF7E3FD03001A00D6
:10494C0001235340DBB2002B29D07B6801220021CC
:10495C001800FFF708FE7B6807221A7622E07B68B6
:10496C0008221A761EE07B681800FFF7CAFD0300C8
:10497C001A0001235340DBB2002B12D07B680121BB
:10498C001800FFF763FF7B6800221A760AE07B6849
:10499C0000221A7606E0C04604E0C04602E0C0469B
:1049AC0000E0C046BD4604B080BDC046204E0008A5
:1049BC0080B582B000AF786039607B68012B15D16F
:1049CC003B68114A934211D1104A11489623022197
:1049DC00FFF79EF80F4B104802221021FFF7F2FC54
:1049EC000E490F4B25221800FEF736FF7B68002B73
:1049FC0007D13B68044A934203D1074B1800FEF7DA
:104A0C00FDFFBD4602B080BDFFFF0000E945000878
:104A1C0030040020440400206C0400208804002092
:104A2C00B004002080B500AF034B19000120FFF744
:104A3C00BFFFBD4680BDC046FFFF000080B500AF84
:104A4C00034B19000020FFF7B3FFBD4680BDC046E5
:104A5C00FFFF000010B500F001F810BD10B500F01C
:104A6C0001F810BD10B5034B0100186800F004F8F4
:104A7C0010BDC0463C00002070B50500002910D0C8
:104A8C000C1F2368002B00DAE418280000F045F80E
:104A9C001D4A1368002B05D163601460280000F0D8
:104AAC003DF870BDA34209D9216860188342F3D147
:104ABC0018685B6841182160EEE713005A68002AF9
:104ACC0001D0A242F9D919685818A0420BD120681C
:104ADC000918581819608242E0D1106852684118C0
:104AEC0019605A60DAE7A04202D90C232B60D5E793
:104AFC0021686018824203D1106852684118216005
:104B0C0062605C60CAE7C046C80400200023C25C37
:104B1C000133002AFBD1581E7047704770470000C4
:104B2C00002243088B4274D303098B425FD3030AE0
:104B3C008B4244D3030B8B4228D3030C8B420DD3F3
:104B4C00FF22090212BA030C8B4202D31212090281
:104B5C0065D0030B8B4219D300E0090AC30B8B42BF
:104B6C0001D3CB03C01A5241830B8B4201D38B036D
:104B7C00C01A5241430B8B4201D34B03C01A524112
:104B8C00030B8B4201D30B03C01A5241C30A8B4255
:104B9C0001D3CB02C01A5241830A8B4201D38B0240
:104BAC00C01A5241430A8B4201D34B02C01A5241E4
:104BBC00030A8B4201D30B02C01A5241CDD2C30956
:104BCC008B4201D3CB01C01A524183098B4201D3D2
:104BDC008B01C01A524143098B4201D34B01C01ABD
:104BEC00524103098B4201D30B01C01A5241C30835
:104BFC008B4201D3CB00C01A524183088B4201D3A4
:104C0C008B00C01A524143088B4201D34B00C01A8F
:104C1C005241411A00D20146524110467047FFE7FB
:104C2C0001B5002000F006F802BDC0460029F7D0FF
:104C3C0076E770477047C04603001218934200D1C4
:104C4C00704719700133F9E75F5F6378615F7075C6
:104C5C0072655F7669727475616C000061626F7267
:104C6C007428292C2065786974696E672E2E2E00A5
:104C7C009C060008A6060008B0060008CA06000834
:104C8C00EA060008040700081C0700081A0D0008B3
:104C9C001A0D00080A0D00080C0D0008140D000870
:104CAC00F61800086A18000886180008BE180008D4
:104CBC00DA180008A21800085649432D3031327812
:104CCC00000000005649432D303730310000000001
:104CDC005649432D30343278000000005649432D9C
:104CEC0030313078000000005649432D3034307894
:104CFC00000000004E49454F4B5245534C4F4E5906
:104D0C0000000000901B00087C1B0008841B00089E
:104D1C00881B00088C1B0008801B00084C49435A58
:104D2C004E494B3A203030303030302000000000FB
:104D3C005B0000005D000000203C5779626F722020
:104D4C006E61706564753E2020000000205779620A
:104D5C006965727A206E617065643A20000000000B
:104D6C003C0000003E000000000000000000FFFFBF
:104D7C00010000000100FFFF020000000000FFFF27
:104D8C00030000000000010020537465726F776E01
:104D9C00696B206272616D2000000000706F7A6197
:104DAC00726F7779636820762E312E300000000008
:104DBC000000000000000000A32A00088F2B000850
:104DCC00732A0008293600084D3600080000000040
:104DDC0000000000CD270008452800089F27000888
:104DEC007136000895360008000000000000000035
:104DFC00DD020008DD020008DD02000800000000F2
:104E0C00000000000000000000000000093A00084B
:104E1C00253A0008D8480008D8480008E04800089F
:104E2C0008490008104900083849000840490008A2
:104E3C006A490008724900080000000000000000E8
:084E4C000D460008294600088C
:104E540078563412A800002000000000006CDC0228
:104E64000000000000000000010203040607080916
:104E740000000000000000000000000064000000CA
:104E8400440300205803002001FFFFFF40000020DE
:104E9400000000000000000000000000000000000E
:104EA40000000000000000000000000000000000FE
:104EB40000000000000000000000000000000000EE
:104EC40000000000000000000000000000000000DE
:104ED40000000000000000000000000000000000CE
:104EE40000000000000000000000000000000000BE
:044EF4003254769826
:04000005080000C52A
:00000001FF
