:020000040800F2
:100000000040002041020008490200085102000897
:1000100000000000000000000000000000000000E0
:10002000000000000000000000000000770200084F
:1000300000000000000000007F0200084D3F0008A3
:10004000870200088702000887020008870200086C
:10005000870200088702000887020008870200085C
:10006000870200088702000887020008870200084C
:10007000870200088702000887020008870200083C
:10008000870200088702000887020008870200082C
:10009000870200088702000887020008ED51000867
:1000A0000152000887020008870200088702000842
:1000B00087020008870200088702000887020008FC
:1000C0005FF808F180B58EB000AF00F031F94A4B0F
:1000D0004A4A1A604A4B494A1A604A4B3B634A4BA8
:1000E000FB624A4BBB62FB6A7B6207E03A6B131D03
:1000F0003B637B6A191D796212681A60BA6A7B6A6F
:100100009A42F3D83C4B1B68414A934204D13C4B82
:100110001B68404A934200D0FEE73F4B374A1A60C3
:100120003E4B364A1A603E4B3B623E4BFB613B6A9C
:10013000BB6104E0BB691A1DBA6100221A60FA694A
:10014000BB699A42F6D8344B1B68002B03D1334B62
:100150001B68002B00D0FEE700F0F0F83A003B1DD2
:100160001100180000F0D4F82F4A304BD31A9B101E
:10017000FB600023BB6007E02C4BBA689200D358A9
:100180009847BB680133BB60FA68BB689A42F3DCEE
:10019000274A284BD31A9B10FB600023BB6007E063
:1001A000244BBA689200D3589847BB680133BB60B0
:1001B000FA68BB689A42F3DC7B683A681100180061
:1001C00003F06EFB03007B631B4A1C4BD31A9B108E
:1001D0007B617B693B6108E03B695A1E174B9200CB
:1001E000D35898473B69013B3B613B69002BF3DCEB
:1001F0007B6B180000F07CF800000020BABADECA61
:10020000AC000020A85C000800000020B000002026
:100210007856341232547698B00000202005002021
:10022000B000002024050020BC020008BC02000829
:10023000D4020008BC020008DC020008D402000856
:1002400080B500AFFFF73EFF80B500AF00BEFEE710
:1002500004207146084202D0EFF3098001E0EFF379
:10026000088071460A4A104780B582B000AF7860B6
:10027000396000BEFEE780B500AF00BEFEE780B586
:1002800000AF00BEFEE780B500AF00BEFEE7000095
:0402900069020008F7
:10029400A85C000800000020B0000020A85C000852
:1002A4000000000000000000B00000202405002031
:1002B4000000000000000000CD0A000855110008ED
:1002C400E9260008D13B0008595200089D5800084F
:0802D400E93B0008B5580008E1
:1002DC0080B582B000AF024B7B6000F009F8C046DD
:1002EC00C05A000880B582B000AF7860FEE700000D
:1002FC0080B582B000AF024B7B600120FFF7F2FFAC
:10030C00D45A000880B582B000AF786039607B6841
:10031C0001221A603B68024A1A60BD4602B080BDD9
:10032C000400002080B500AF00F008F8BD4680BD89
:10033C0080B500AF00F048F8BD4680BD80B500AF79
:10034C001B4B1A681A4B01210A431A60184B5A6846
:10035C00174B18490A405A60154B1A68144B16492A
:10036C000A401A60124B1A68114B14490A401A6061
:10037C000F4B5A680E4B12490A405A600C4BDA6A02
:10038C000B4B0F218A43DA62094B1A6B084B0D4950
:10039C000A401A63064B5A6B054B01218A435A6378
:1003AC00034B00229A6000F07DF8BD4680BDC0462C
:1003BC00001002400CB8FF08FFFFF6FEFFFFFBFF2A
:1003CC00FFFFC0FFACFEFFFF80B584B000AF002381
:1003DC00FB600023BB6000237B6000233B602D4B44
:1003EC005B680C221340FB60FB68042B07D0082BC6
:1003FC0009D0002B38D1284B284A1A6037E0264BFD
:10040C00264A1A6033E0234B5A68F0239B031340AF
:10041C00BB60204B5A68C0235B0213407B60BB68F7
:10042C009B0C0233BB607B68002B0CD1B9680A00B3
:10043C005201521A93019B1ADB005B181B021A0023
:10044C00154B1A6013E0134BDB6A0F221340013378
:10045C003B603968114805F099FA03001A00BB6833
:10046C005A430D4B1A6002E00B4B0C4A1A60094BB5
:10047C005B681B090F221340094AD35CDBB2FB609B
:10048C00054B1A68FB68DA40034B1A60BD4604B092
:10049C0080BDC046001002400C00002000127A0003
:1004AC001000002080B582B000AF00237B600023D9
:1004BC003B60304B1A682F4B802149020A431A606B
:1004CC002C4B1A6880239B0213403B607B680133E2
:1004DC007B603B68002B04D17A68A023DB019A4235
:1004EC00EED1244B1A6880239B02134002D00123C7
:1004FC003B6001E000233B603B68012B36D11E4B77
:10050C0011221A601B4A1B4B52685A60194A194B2C
:10051C0052685A60174B5A68164B18490A405A6071
:10052C00144B5A68134B882149030A435A60114BE8
:10053C001A68104B802149040A431A600D4B1A6843
:10054C0080239B041340F9D00A4B5A68094B0321B2
:10055C008A435A60074B5A68064B02210A435A6079
:10056C00044B5B680C221340082BF9D1BD4602B03A
:10057C0080BDC0460010024000200240FF7FC0FF3B
:10058C0080B582B000AF78600A00FB1C1A70FB1CAF
:10059C001B7801229A4013001A007B689A61BD46B1
:1005AC0002B080BD80B582B000AF78600A00FB1C41
:1005BC001A70FB1C1B78103301229A4013001A008E
:1005CC007B689A61BD4602B080BD80B582B000AF39
:1005DC00786008001100FB1C021C1A70BB1C0A1C62
:1005EC001A70BB1C1B78002B07D0FB1C1A787B687D
:1005FC0011001800FFF7C4FF06E0FB1C1A787B689B
:10060C0011001800FFF7CEFFBD4602B080BD80B5CB
:10061C0082B000AF78600A00FB1C1A707B681B8AE2
:10062C009BB21A00FB1C1B781A41130001221340C9
:10063C005A1E9341DBB21800BD4602B080BD80B596
:10064C0082B000AF78607B681A687B681B791900F0
:10065C001000FFF795FFBD4602B080BD80B582B09B
:10066C0000AF78607B681A687B681B7919001000F2
:10067C00FFF798FFBD4602B080BD80B582B000AFD9
:10068C0078600A00FB1C1A707B6818687B68197903
:10069C00FB1C1B781A00FFF798FFBD4602B080BD0B
:1006AC0080B582B000AF78607B681A687B681B7974
:1006BC0019001000FFF7ABFF03001800BD4602B095
:1006CC0080BD80B582B000AF78600A00FB1C1A7048
:1006DC007B68FA1C12781A73BD4602B080BD00000C
:1006EC0090B585B000AF786039607B689A683B68DC
:1006FC00D2187B689A607B689B68404A934209D900
:10070C007B689B686421180005F0C6F90B001A0081
:10071C007B689A607B689B686421180005F036F949
:10072C0003001A000F23FB181A707B681B7B062B27
:10073C005ED89A00324BD3181B689F467B68180012
:10074C00FFF77DFF57E07B681800FFF787FF52E04B
:10075C0078680F23FB181A780421002391425B411F
:10076C00DBB21900FFF789FF45E07A680F23FB180D
:10077C001B785B10190001230B40591E8B41DBB217
:10078C0019001000FFF779FF35E078680F23FB188C
:10079C001B78012213405A1E9341DBB21900FFF75C
:1007AC006CFF28E07A680F23FB181B7859424B41E9
:1007BC00DBB219001000FFF760FF1CE07C680F2310
:1007CC00FB181B78032213400AD00F23FB181B784D
:1007DC000321180005F060F90B00DBB2002B01D1EE
:1007EC00012300E0002319002000FFF746FF02E080
:1007FC007B6803221A73BD4605B090BDE703000069
:10080C00E85A000880B584B000AF78600F23FB185D
:10081C0000221A707B685B6A1800FFF741FF030027
:10082C001A0001235340DBB2002B03D00F23FB181B
:10083C0003221A707B689B6A1800FFF731FF0300D4
:10084C001A0001235340DBB2002B03D00F23FB18FB
:10085C0001221A707B68DB691800FFF721FF030087
:10086C001A0001235340DBB2002B03D00F23FB18DB
:10087C0002221A707B681B6A1800FFF711FF030035
:10088C001A0001235340DBB2002B03D00F23FB18BB
:10089C0004221A707B685B6A1800FFF701FF0300E3
:1008AC001A0001235340DBB2002B0DD07B681B6A6E
:1008BC001800FFF7F5FE03001A0001235340DBB2CA
:1008CC00002B01D0012300E00023002B03D00F23C9
:1008DC00FB1806221A707B689B6A1800FFF7E0FE73
:1008EC0003001A0001235340DBB2002B0DD07B68B0
:1008FC00DB691800FFF7D4FE03001A0001235340F4
:10090C00DBB2002B01D0012300E00023002B03D02D
:10091C000F23FB1805221A700F23FB181B781800E5
:10092C00BD4604B080BD80B582B000AF78607B68F6
:10093C001800FFF767FF03001800BD4602B080BD2A
:10094C0080B582B000AF78607B6800221A607B684B
:10095C0000225A607B6800229A607B680022DA6071
:10096C007B6800221A617B6800225A617B68002236
:10097C009A617B680022DA617B6800221A627B68CC
:10098C001800BD4602B080BD80B582B000AF786063
:10099C000A00FB1C1A707B681A6AFB1C1B78190076
:1009AC001000FFF76AFEBD4602B080BD80B582B074
:1009BC0000AF78607B681B68254A934210D87B682F
:1009CC001B685A1D7B681A607B689B69062118009E
:1009DC00FFF777FE7B68DB6906211800FFF771FED5
:1009EC007B681B691800FFF79EFF03005A1E93419A
:1009FC00DBB2002B02D07B6800225A607B685B68FC
:100A0C00144A93420AD87B685B685A1D7B685A600B
:100A1C007B6801211800FFF7B7FF04E07B68002119
:100A2C001800FFF7B1FF7B689B6905211800FFF7E1
:100A3C0057FE7B68DB6905211800FFF751FE7B68C8
:100A4C005B69180001F092FABD4602B080BDC04649
:100A5C00871300000F27000080B500AF024B180071
:100A6C00FFF7A4FFBD4680BDB800002080B500AFE5
:100A7C00014B1800BD4680BDB800002080B582B087
:100A8C0000AF786039607B68012B0DD13B68084A58
:100A9C00934209D1074B1800FFF752FF064A07484B
:100AAC000523022103F002FABD4602B080BDC04608
:100ABC00FFFF0000B8000020650A0008DC000020E1
:100ACC0080B500AF034B19000120FFF7D7FFBD46DF
:100ADC0080BDC046FFFF000090B583B000AF0200A0
:100AEC003960FB1D1A70FB1D1B785BB2002B36DACC
:100AFC00314AFB1D1B785BB219000F230B40083BDE
:100B0C009B0806339B00D31804331B68FA1D12781C
:100B1C0052B2110003220A40D200FF2191400A0078
:100B2C00D2431A4011003B689B01FF221A40FB1D67
:100B3C001B785BB2180003230340DB009A401E486D
:100B4C00FB1D1B785BB21C000F232340083B9B084A
:100B5C000A4306339B00C31804331A6029E0174A72
:100B6C00FB1D1B785BB29B08C0339B009B58FA1D86
:100B7C00127852B2110003220A40D200FF21914098
:100B8C000A00D2431A4011003B689B01FF221A4015
:100B9C00FB1D1B785BB2180003230340DB009A405B
:100BAC000648FB1D1B785BB29B080A43C0339B00B5
:100BBC001A50BD4603B090BD00ED00E000E100E02E
:100BCC0080B582B000AF78607B68013B0C4A9342E1
:100BDC0001D9012310E00B4B7A68013A5A600123CA
:100BEC005B4203211800FFF777FF064B00229A6047
:100BFC00044B07221A6000231800BD4602B080BDCA
:100C0C00FFFFFF0010E000E080B582B000AF78601D
:100C1C0008001100FB1C021C1A70BB1C0A1C1A7069
:100C2C007B681B68FA1C12785200032191400A0061
:100C3C00D2431A407B681A607B681A68BB1C19780F
:100C4C00FB1C1B785B0099400B001A437B681A60F5
:100C5C00BD4602B080BD80B582B000AF78600800A0
:100C6C001100FB1C021C1A70BB1C0A1C1A707B683E
:100C7C009B68FA1C12785200032191400A00D2435F
:100C8C001A407B689A607B689A68BB1C1B781900B9
:100C9C00FB1C1B785B0099400B001A437B689A6025
:100CAC00BD4602B080BD80B582B000AF7860080050
:100CBC001100FB1C021C1A70BB1C0A1C1A707B68EE
:100CCC00DB68FA1C12785200032191400A00D243CF
:100CDC001A407B68DA607B68DA68BB1C1978FB1CED
:100CEC001B785B0099400B001A437B68DA60BD46A9
:100CFC0002B080BD80B582B000AF786008001100F2
:100D0C00FB1C021C1A70BB1C0A1C1A707B689B888B
:100D1C009BB2FA1C1278110001228A4092B2D24383
:100D2C0092B213409AB27B689A807B689B889AB285
:100D3C00BB1C1B78F91C09788B409BB213439AB2ED
:100D4C007B689A80BD4602B080BD80B582B000AF92
:100D5C0078600A00FB1C1A707B6818687B6819792C
:100D6C00FB1C1B781A00FFF74FFFBD4602B080BD7D
:100D7C0080B582B000AF78600A00FB1C1A707B68EB
:100D8C0018687B681979FB1C1B781A00FFF763FF46
:100D9C00BD4602B080BD80B582B000AF78600A005D
:100DAC00FB1C1A707B6818687B681979FB1C1B7814
:100DBC001A00FFF778FFBD4602B080BD80B582B047
:100DCC0000AF78600A00FB1C1A707B6818687B689F
:100DDC001979FB1C1B781A00FFF78CFFBD4602B07B
:100DEC0080BD80B584B000AFF860B960FB1D1A708F
:100DFC00FB68BA681A60FB68FA1D12781A71FB68F6
:100E0C0003211800FFF7A1FFFB6800211800FFF772
:100E1C00C2FFFB6800211800FFF7AAFFFB68012145
:100E2C001800FFF7CBFFFB681800BD4604B080BD6F
:100E3C0080B582B000AF0200FB1D1A70FB1D1B7841
:100E4C00042B0CD89A00074BD3181B689F46FEE75F
:100E5C00054B01221A7002E0034B01221A70BD46A9
:100E6C0002B080BD045B00080001002080B500AF1B
:100E7C00024B1B681800BD4680BDC046D80300203D
:100E8C0080B584B000AF7860FFF7F0FF0300FB6023
:100E9C00FFF7ECFF0200FB68D21A7B689A429B4179
:100EAC005B42DBB2002B02D002F0CCFFF0E7BD4678
:100EBC0004B080BD80B584B000AF7860FFF7D6FF7A
:100ECC000300FB60FFF7D2FF0200FB68D21A7B68BD
:100EDC009A429B415B42DBB2002BF3D1BD4604B07E
:100EEC0080BD000080B584B000AF78607B68084A94
:100EFC009A429B415B42DBB2FB60064BFA681A607C
:100F0C00044BFA6810210A431A60BD4604B080BD38
:100F1C0000366E010020024080B582B000AF7860D0
:100F2C0039603A4B1A68394B01210A431A60374B26
:100F3C001B68022213405A425341DBB2002BF6D1FC
:100F4C00324B5A68314B03218A435A602F4B5B68F2
:100F5C000C2213405A1E9341DBB2002BF6D12B4BC3
:100F6C001A682A4B802149020A431A60274B1A68D7
:100F7C0080239B0213405A425341DBB2002BF5D124
:100F8C003B681800FFF7AEFF204B214A5A601F4BFD
:100F9C000022DA621D4B1A681C4B802149040A435B
:100FAC001A601A4B1A6880239B0413405A4253410F
:100FBC00DBB2002BF5D1154B5A68144B02210A43B6
:100FCC005A60124B5B680C221340083B5A1E93412B
:100FDC00DBB2002BF5D10D4B5A680C4B02210A43A6
:100FEC005A600A4B5B680C221340083B5A1E934113
:100FFC00DBB2002BF5D1054B5A68044B01210A409A
:10100C005A6001231800BD4602B080BD001002409A
:10101C000000118080B582B000AF00237B60154BBF
:10102C005A69144BFC21C9030A435A61114B5B6981
:10103C007B607B680F4BDA690E4B802189030A4376
:10104C00DA610C4BDA6980239B0313407B607B686D
:10105C00084B9A69074B802189000A439A61054B1A
:10106C009A6980239B0013407B607B68BD4602B06D
:10107C0080BDC0460010024080B500AF114A124B33
:10108C0011001800FFF748FFFFF79EF9FFF7C2FFAA
:10109C000E4B1A68FA239900100004F077FC030039
:1010AC001800FFF78DFD03005A1E9341DBB2002B95
:1010BC0002D00220FFF7BCFE00F012F800F008F896
:1010CC00BD4680BD0048E80100127A000C000020EB
:1010DC0080B500AFBD4680BD80B500AFBD4680BDBC
:1010EC0080B500AFBD4680BD80B582B000AF7860E2
:1010FC007B681800FFF7DEFEBD4602B080BD000025
:10110C0080B582B000AF786039607B68012B0FD15D
:10111C003B68094A93420BD10849094B002218003D
:10112C00FFF75FFE0549074B01221800FFF759FE38
:10113C00BD4602B080BDC046FFFF0000000800485D
:10114C00F0000020F800002080B500AF034B190020
:10115C000120FFF7D5FFBD4680BDC046FFFF000054
:10116C00B0B584B000AF0200FB1D1A703B1D0A1C09
:10117C001A80FB1D1B780A2B01D9002316E003F003
:10118C00F3FBFB1D1B789AB20E257C193B1D1B88AB
:10119C001900100003F02AF90300238003F0FAFB76
:1011AC007B191B88043B5A425341DBB21800BD46E5
:1011BC0004B0B0BDB0B584B000AF02003960FB1D07
:1011CC001A70FB1D1B780A2B01D9002324E0FB1D90
:1011DC001B789BB20E257C193A681100180003F09D
:1011EC00A1F8030023807B191B88002B01D101235C
:1011FC0012E00E23FB181B88012B0CD13B6800223C
:10120C001A803B681A88FB1D1B7811001800FFF729
:10121C00A7FF030000E000231800BD4604B0B0BDDA
:10122C0080B584B000AF0200FB1D1A700E23FA18B3
:10123C00FB1D1B7811001800FFF7BCFF031E03D029
:10124C000E23FB181B8801E001235B421800BD46EE
:10125C0004B080BD80B584B000AF0200FB1D1A70D5
:10126C003B1D0A1C1A800E23FA18FB1D1B7811005B
:10127C001800FFF79FFF03001A0001235340DBB255
:10128C00002B01D0002316E00E23FB181A883B1DFF
:10129C001B88D3189AB2FB1D1B7811001800FFF79E
:1012AC005FFF03001A0001235340DBB2002B01D077
:1012BC00002300E001231800BD4604B080BD80B5BA
:1012CC0084B000AF0200FB1D1A703B1D0A1C1A8073
:1012DC000E23FA18FB1D1B7811001800FFF76AFF8C
:1012EC0003001A0001235340DBB2002B01D0002372
:1012FC0016E00E23FB181A883B1D1B88D31A9AB2D2
:10130C00FB1D1B7811001800FFF72AFF03001A00C1
:10131C0001235340DBB2002B01D0002300E001235A
:10132C001800BD4604B080BD80B582B000AF7860B7
:10133C007B685A687B689B68D31A5A425341DBB26C
:10134C001800BD4602B080BD80B582B000AF786099
:10135C007B681800FFF7E8FF03001A0001235340D5
:10136C00DBB21800BD4602B080BD80B584B000AFC2
:10137C0078607B6804331800FFF7E6FF031E11D07A
:10138C007B680433180002F08CFC03001A000F2158
:10139C007B181A707B181B78002BEAD00F23FB18D4
:1013AC001B7800E000231800BD4604B080BD80B55A
:1013BC0082B000AF78607B681800FFF7D6FF03009F
:1013CC001800BD4602B080BD80B582B000AF786019
:1013DC007B6801225A76BD4602B080BD80B584B0D0
:1013EC0000AF78607B685B68FB607B685A687B68E1
:1013FC001B691900100004F04FFB0B001A007B68EE
:10140C005A607B685B68FA689A4203D07B68180064
:10141C00FFF7DAFFBD4604B080BD80B582B000AFE7
:10142C0078607B68DB681800BD4602B080BD80B573
:10143C0082B000AF78607B689B681800BD4602B034
:10144C0080BD80B582B000AF78607B681800FFF774
:10145C00BBFF7B685B685A1C7B685A607B68596869
:10146C007B681A69002391425B41DBB2002B02D0EE
:10147C007B6800225A60BD4602B080BD80B586B044
:10148C0000AFF860B9607A60FB68DB687A689A42F2
:10149C0001D300231BE0FB689B68BA689A4201D316
:1014AC00002314E0FB685B687B61FB689B687A68CF
:1014BC005A43BB68D218FB685A60FB685B687A6950
:1014CC009A4203D0FB681800FFF77EFF0123180037
:1014DC00BD4606B080BD80B582B000AF78600A0012
:1014EC00FB1C1A707B681800FFF778FF7B685A6941
:1014FC007B685B68D318FA1C12781A707B6818002A
:10150C00FFF79FFF7B681800FFF75EFFBD4602B038
:10151C0080BD80B582B000AF786039603B681B78C5
:10152C005BB2002B0AD03B685A1C3A6000229A56D8
:10153C007B6811001800FFF7CEFFEFE7BD4602B045
:10154C0080BD80B584B000AFF860B9607A603B6054
:10155C007A68B968FB681800FFF790FF3A68FB6877
:10156C0011001800FFF7D5FFBD4604B080BD90B543
:10157C0085B000AF78600A00BB1C1A80BB1C1C88AD
:10158C007B681800FFF749FF0200002394425B417F
:10159C00DBB2002B26D1BB1C1C887B681800FFF724
:1015AC0046FF03006343BB600023FB607B681800AD
:1015BC00FFF73DFF0100FA68002391425B41DBB26B
:1015CC00002B0BD07B685A69F968BB68CB18D31811
:1015DC0020221A70FB680133FB60E7E77B68180078
:1015EC00FFF7F2FEBD4605B090BD80B582B000AFEE
:1015FC0078600A00FB1C1A707B68FA1C12781A7649
:10160C00BD4602B080BDF0B59FB000AFF860B960C8
:10161C007A60BB68180004F0AFF9020063239342B0
:10162C009B415B42DBB2002B01D0002312E07725FB
:10163C007C191026BA197968BB68180003F07DF97B
:10164C0003002370BA19FB6811001800FFF761FF43
:10165C007B191B781800BD461FB0F0BD80B582B059
:10166C0000AF78600A00FB1C1A707B68FA1C1278B9
:10167C001A757B681B7D012B0FD002DC002B05D06B
:10168C0020E0032B10D0042B15D01BE07B6801222B
:10169C00DA747B6800229A741AE07B6801229A74CF
:1016AC007B680022DA7413E07B6800229A747B68F2
:1016BC000022DA740CE07B6801229A747B680122A8
:1016CC00DA7405E07B6802229A747B680222DA7471
:1016DC00BD4602B080BD80B582B000AF78600A0014
:1016EC00FB1C1A707B68FA1C12785A74BD4602B047
:1016FC0080BD80B582B000AF78600A00FB1C1A7008
:10170C007B68FA1C12785A717B685B79002B04D0C9
:10171C007B680221180000F006F87B685B791800E2
:10172C00BD4602B080BD80B582B000AF78600A00C3
:10173C00FB1C1A707B68FA1C12789A717B689B7977
:10174C00022B05D17B681B6802211800FFF786FF6E
:10175C00BD4602B080BD80B582B000AF7860080095
:10176C001100FB1C021C1A70BB1C0A1C1A70FB1CFF
:10177C001A787B6811001800FFF7D5FFBB1C1A788C
:10178C007B681100180000F003F8BD4602B080BD64
:10179C0080B584B000AF78600A00FB1C1A707B68BF
:1017AC00FA1C12781A710F23FB187A6892791A7046
:1017BC007B685B79002B03D00F23FB1802221A7075
:1017CC000F23FB181B78012B15D0022B25D0002BD7
:1017DC0024D17B681B79002B06D07B681B68002109
:1017EC001800FFF73BFF19E07B681B680421180009
:1017FC00FFF734FF12E07B681B79002B06D07B6867
:10180C001B6804211800FFF729FF07E07B681B68A1
:10181C0000211800FFF722FF00E0C046BD4604B0CF
:10182C0080BD80B584B000AF78607B68180000F094
:10183C0051F9031E03D07B685B68FB6002E07B6898
:10184C001B68FB60FB681800BD4604B080BD80B50A
:10185C0082B000AF78607B68DB6810331A007B685D
:10186C005B7C013B59424B41DBB219001000FEF787
:10187C0004FF7B68DB6808331A007B685B7C023BE7
:10188C0059424B41DBB219001000FEF7F6FE7B68A3
:10189C005B7C032B03D17B680122DA7402E07B684A
:1018AC000022DA74BD4602B080BD80B582B000AFB4
:1018BC0078607B68180000F02AF9031E07D07B685B
:1018CC00180000F033F9031E01D0012300E00023BF
:1018DC00002B03D07B6803225A7416E07B68180037
:1018EC0000F015F9031E03D07B6801225A740CE03A
:1018FC007B68180000F01AF9031E03D07B680222E3
:10190C005A7402E07B6800225A747B681800FFF757
:10191C009EFF7B685B7C1800BD4602B080BD80B525
:10192C0082B000AF78607B681800FFF7BEFF7B6861
:10193C009B7C012B02D0022B28D04FE07B68180037
:10194C0000F051F9031E10D07B689B680021180031
:10195C00FFF71EFF7B681800FFF763FF0200136898
:10196C001B680021100098474BE07B681800FFF7BC
:10197C0058FF020013681B680421100098477B680D
:10198C009B6801211800FFF703FF3AE07B68180001
:10199C0000F055F9031E10D07B689B6800211800DD
:1019AC00FFF7F6FE7B681800FFF73BFF0200136899
:1019BC001B6801211000984723E07B681800FFF793
:1019CC0030FF020013681B680421100098477B68E5
:1019DC009B6801211800FFF7DBFE12E07B680022F8
:1019EC009A747B681800FFF71CFF020013681B68D1
:1019FC000421100098477B689B6801211800FFF7B1
:101A0C00C7FEBD4602B080BD80B582B000AF786025
:101A1C007B681B7C052B4AD89A002D4BD3181B686E
:101A2C009F467B681B6800211800FFF754FE7B68FB
:101A3C009B68002200211800FFF78DFE44E07B68B4
:101A4C001B6800211800FFF746FE7B689B6800228C
:101A5C0002211800FFF77FFE36E07B681B6800212F
:101A6C001800FFF738FE7B689B68002201211800E4
:101A7C00FFF771FE28E07B689B68002202211800AA
:101A8C00FFF769FE7B681B6801211800FFF723FE36
:101A9C001AE07B689B68002202211800FFF75BFEAE
:101AAC007B681B6800211800FFF715FE0CE07B68B3
:101ABC001B6800211800FFF70EFE7B689B68002254
:101ACC0002211800FFF747FEBD4602B080BDC0469C
:101ADC00185B000880B582B000AF78607B68180096
:101AEC0000F00BF80300013B012B01D8012300E0AF
:101AFC0000231800BD4602B080BD80B582B000AF97
:101B0C0078607B681B7C1800BD4602B080BD80B538
:101B1C0082B000AF78607B68DB68B8331800FEF7E2
:101B2C00BFFD03001800BD4602B080BD80B582B079
:101B3C0000AF78607B68DB68B0331800FEF7B0FD4F
:101B4C0003001800BD4602B080BD80B582B000AF66
:101B5C0078607B68DB68C8331800FEF7A1FD0300D2
:101B6C001800BD4602B080BD80B582B000AF786071
:101B7C007B68DB68C0331800FEF792FD0300180089
:101B8C00BD4602B080BD80B582B000AF78607B6886
:101B9C00DB68E8331800FEF783FD03001A0001230D
:101BAC005340DBB21800BD4602B080BD80B582B098
:101BBC0000AF78607B68DB68F0331800FEF770FDCF
:101BCC0003001A0001235340DBB21800BD4602B0DB
:101BDC0080BD80B582B000AF78607B68DB7C18007C
:101BEC00BD4602B080BD80B582B000AF78607B6826
:101BFC001800FFF78CFF03001A0001235340DBB2DF
:101C0C00002B17D07B681800FFF79FFF03001A000A
:101C1C0001235340DBB2002B0CD07B681800FFF77C
:101C2C00B2FF03001A0001235340DBB2002B01D09A
:101C3C00012300E000231800BD4602B080BD80B532
:101C4C0082B000AF78607B681800FFF76FFF03006D
:101C5C001A0001235340DBB2002B0CD07B68180018
:101C6C00FFF782FF03001A0001235340DBB2002B65
:101C7C0001D0012300E000231800BD4602B080BD56
:101C8C0080B582B000AF78607B6800229A747B6864
:101C9C001800FFF744FE7B685B7C1800BD4602B061
:101CAC0080BD80B582B000AF78600A00FB1C1A7052
:101CBC007B681800FFF7E4FF7B68FA1C12781A7433
:101CCC007B681B7C9BB219000320FFF749FA7B68E9
:101CDC001800FFF799FEBD4602B080BD80B584B0F8
:101CEC0000AF78607B681800FFF707FF03005AB25B
:101CFC000F217B181A707B181B785BB2DBB2013B8F
:101D0C00DBB25AB27B181A707B181B785BB25A1E66
:101D1C001343DB0FDBB2002B03D00F23FB18052280
:101D2C001A700F23FB181B785BB2DAB27B681100B8
:101D3C001800FFF7B6FFBD4604B080BD80B584B077
:101D4C0000AF78607B681800FFF7D7FE03005AB22B
:101D5C000F217B181A707B181B785BB2DBB2013336
:101D6C00DBB25AB27B181A707B181B785BB201225B
:101D7C00052B01DC00231A1CD3B2002B03D00F233C
:101D8C00FB1801221A700F23FB181B785BB2DAB216
:101D9C007B6811001800FFF784FFBD4604B080BDBE
:101DAC0080B582B000AF78607B681A7C7B681100CC
:101DBC00180000F005F803001800BD4602B080BD05
:101DCC0080B582B000AF78600A00FB1C1A70FB1C57
:101DDC001B78052B0ED89A00094BD3181B689F460D
:101DEC00084B08E0084B06E0084B04E0084B02E007
:101DFC00084B00E0084B1800BD4602B080BDC04641
:101E0C007C5B0008305B00083C5B0008485B00080A
:101E1C00545B0008605B00086C5B000880B582B006
:101E2C0000AF78600A00FB1C1A707B6818687B682E
:101E3C001B681B6808331B68FA1C12781100984742
:101E4C007B6858687B685B681B6808331B68FA1CE6
:101E5C001278110098477B689A68FB1C1B78190054
:101E6C001000FFF746FCFB1C1B78002B06D07B6890
:101E7C001A7C7B6811001800FFF713FF0123180070
:101E8C00BD4602B080BD000080B582B000AF786066
:101E9C000A00FB1C1A707B68FA1C12781A747B6897
:101EAC001B7C002B05D10D4B1B6800211800FFF784
:101EBC00B5FF7B681B7C022B05D1084B1B680121ED
:101ECC001800FFF7ABFF7B6800221A757B681800BF
:101EDC0000F006F8BD4602B080BDC04630000020C0
:101EEC0080B584B000AF78607B6800221A750E2331
:101EFC00FB1801221A807B681B7C012B0BD0022B58
:101F0C000BD0002B0AD10320FFF78AF902000E2315
:101F1C00FB181A8002E0C04600E0C0460E23FB18F6
:101F2C001A887B681100180000F0B2F8BD4604B0A6
:101F3C0080BD80B582B000AF78607B681B68F833D9
:101F4C001800FEF7ADFB03001A0001235340DBB26F
:101F5C001800BD4602B080BD80B582B000AF78607D
:101F6C007B681B791800BD4602B080BD90B585B06A
:101F7C0000AF78607B685B680F22BC181800FFF715
:101F8C0016FA030023707B681B7C012B26D0022BD6
:101F9C0038D0002B54D10F23FB181B78032B18D0EF
:101FAC0002DC012B05D04BE0042B0DD0052B06D009
:101FBC0046E07B6802211800FFF766FF40E0002135
:101FCC000220FFF7CDF83BE001210220FFF777F963
:101FDC0036E001210220FFF73DF931E00F23FB1819
:101FEC001B78012B02D0022B06D029E07B68022142
:101FFC001800FFF749FF23E07B6800211800FFF76A
:10200C0043FF1DE00F23FB181B78032B12D002DCBF
:10201C00012B14DB02E0042B06D010E07B680021BE
:10202C001800FFF731FF0AE0094B1B681800FFF797
:10203C0055FE04E0064B1B681800FFF77FFEC046F8
:10204C007B681800FFF74CFFBD4605B090BDC0463D
:10205C003000002090B583B000AF0C4B1B68FC1D0A
:10206C001800FFF779FF03002370FB1D1B78012B71
:10207C0002D0022B02D003E04F2302E05A2300E0EF
:10208C002D231800BD4603B090BDC0464000002073
:10209C00B0B584B000AF78600A00BB1C1A807B68B6
:1020AC001B7C012B00D185E0022B00D1A9E0002B79
:1020BC0000D0D9E07B689B68002200211800FFF754
:1020CC00DDF97B689868BB1C1A88694B1900FFF70F
:1020DC009AFA7B689B6801211800FFF748FA7B6825
:1020EC009868644B01220021FFF72BFA7B689C68EF
:1020FC00614B1B681800FFF753FE0300190020000A
:10210C00FFF707FA7B689B685C4A11001800FFF721
:10211C0000FA7B689B6801220B211800FFF7AEF9CF
:10212C007B689C68FFF796FF030019002000FFF7FF
:10213C00D2F97B689C68504B1B681800FFF723FD95
:10214C00031E01D0502300E02D2319002000FFF7BF
:10215C00C2F97B689C68484B1B681800FFF726FD8A
:10216C00031E01D0532300E02D2319002000FFF79C
:10217C00B2F97B689C68404B1B681800FFF729FD7F
:10218C00031E01D0412300E02D2319002000FFF78E
:10219C00A2F97B689C683A4B1B681800FFF7C9FED4
:1021AC00031E01D0562300E02D2319002000FFF759
:1021BC0092F959E07B689868324B00220021FFF7B6
:1021CC00C0F92D4B1B680E257C191800FFF795FCE8
:1021DC00030023707B689B6801211800FFF7C7F987
:1021EC007B689C68244B1A687B191B7819001000BB
:1021FC00FFF7E6FD0300012200212000FFF7A1F903
:10220C0032E07B689868204B00220021FFF799F997
:10221C00194B1B680F257C191800FFF76EFC030087
:10222C0023707B689B6801211800FFF7A0F97B687D
:10223C009868164B01220021FFF783F97B689C6894
:10224C000D4B1A687B191B7819001000FFF7B8FDAD
:10225C00030019002000FFF75CF97B689B680C4AAF
:10226C0011001800FFF755F9BD4604B0B0BDC046CB
:10227C00945B0008A85B000830000020AC5B0008F1
:10228C0040000020B05B0008C45B0008D85B00086D
:10229C00DC5B000880B582B000AF78607B6818000A
:1022AC00FFF72BFC0300013B5A425341DBB21800F1
:1022BC00BD4602B080BD80B582B000AF78600A0028
:1022CC00FB1C1A707B68DB6828331A00FB1C1B781C
:1022DC0019001000FEF7D1F9BD4602B080BD80B5E3
:1022EC0084B000AF78607B689B7C012B0CD0022003
:1022FC00FEF796FF0300FB60FB689BB201339BB2B9
:10230C0019000220FEF72CFF7B6801229A747B686F
:10231C001800FFF704FB7B685B7C1800BD4604B01B
:10232C0080BD80B584B000AF78607B689B7C022B4D
:10233C000CD00220FEF774FF0300FB60FB689BB21D
:10234C0001339BB219000220FEF70AFF7B680222C0
:10235C009A747B681800FFF7E2FA7B685B7C1800C4
:10236C00BD4604B080BD80B582B000AF78607B689C
:10237C001800FFF7D4FABD4602B080BD80B582B01C
:10238C0000AF7860174B1B681800FFF72CFC03009C
:10239C001A0001235340DBB2002B01D000231CE0B8
:1023AC007B681B68D0331800FEF77AF903001A001B
:1023BC0001235340DBB2002B0CD17B681B68E0334C
:1023CC001800FEF76DF903001A0001235340DBB22D
:1023DC00002B01D0012300E000231800BD4602B001
:1023EC0080BDC0463000002080B582B000AF786060
:1023FC00144B1B681800FFF722FC03001A00012382
:10240C005340DBB2002B01D0002316E07B681B6825
:10241C00D8331800FEF744F903001A000123534087
:10242C00DBB2002B06D1074B1B681800FFF7ABFB88
:10243C00031E01D0012300E000231800BD4602B0AA
:10244C0080BDC0463000002090B585B000AF7860EC
:10245C008D4B1B681800FFF786FF7B681800FFF791
:10246C008DFF031E0CD17B681800FFF7BDFF031E08
:10247C0006D1854B1B681800FFF70CFF031E01D01B
:10248C00012200E000220E217B181A707B681B6869
:10249C0048331C007B181B78002B0ED07A4B1B6822
:1024AC001800FFF717FB031E07D07B681800FFF717
:1024BC0040FD031E01D0012300E000231900200081
:1024CC00FEF7DBF80F23FB1800221A700E23FB1803
:1024DC001B78002B5CD07B689B68352B00D2352396
:1024EC00353B1A007B689A607B689B68002B5BD13C
:1024FC007B681800FFF778FF031E1AD07B681B79E6
:10250C00022B0CD07B6802221A717B68FA225200D3
:10251C009A605D4B1B681800FFF7B2FB44E05A4B06
:10252C001B681800FFF7FDFE0F23FB1801221A7021
:10253C003AE07B681800FFF721FF031E1BD07B6875
:10254C001B79012B0DD07B6801221A717B68FA2252
:10255C0052009A604C4B1B681800FFF791FBC04669
:10256C0022E0494B1B681800FFF7B9FE0F23FB183C
:10257C0001221A7018E07B6800221A71424B1B680A
:10258C001800FFF77DFB7B68FA2252009A600BE083
:10259C007B6800221A713C4B1B681800FFF770FB1C
:1025AC007B68FA2252009A607B689A68FA235B0077
:1025BC009A4203D97B68FA2252009A60324B1A680D
:1025CC000F23FB181B7819001000FFF774FE7B68B3
:1025DC001B681C002C4B1B681800FFF7D4FA030077
:1025EC0019002000FEF749F87B681B6820331C009B
:1025FC00254B1B681800FFF7D9FA03001A000123BA
:10260C005340DBB2002B08D01F4B1B681800FFF7A0
:10261C00BAFA031E01D0012300E0002319002000A8
:10262C00FEF72BF8184B1B681800FFF7D2FA031EA5
:10263C0008D07B681B686133FF3304211800FEF758
:10264C0040F807E07B681B686133FF3301211800F9
:10265C00FEF737F87B681800FFF76BFC031E08D0F9
:10266C007B681B688133FF3302211800FEF729F8C1
:10267C0007E07B681B688133FF3301211800FEF7EC
:10268C0020F8BD4605B090BD3000002080B500AFED
:10269C00034B1B681800FFF7D7FEBD4680BDC04634
:1026AC004000002080B582B000AF786039607B6854
:1026BC00012B09D13B68064A934205D1054A0648CD
:1026CC003523022101F0F2FBBD4602B080BDC046AD
:1026DC00FFFF0000992600080401002080B500AF20
:1026EC00034B19000120FFF7DDFFBD4680BDC0463E
:1026FC00FFFF000080B582B000AF0200FB1D1A7016
:10270C00034BFA1D12781A70BD4602B080BDC0464C
:10271C004400002080B582B000AF7860034A7B682B
:10272C001A607B681800BD4602B080BD785C00085A
:10273C0080B584B000AF78600A00FB1C1A707B680F
:10274C001A68FB1C1B785B00DA401300FB60FB680B
:10275C00DBB203221340DBB21800BD4604B080BDCF
:10276C0080B584B000AF78600A00FB1C1A707B68DF
:10277C00DA68FB1C1B785B00DA401300FB60FB681B
:10278C00DBB203221340DBB21800BD4604B080BD9F
:10279C0080B584B000AF78600A00FB1C1A707B68AF
:1027AC009A68FB1C1B785B00DA401300FB60FB682B
:1027BC00DBB203221340DBB21800BD4604B080BD6F
:1027CC0080B584B000AF78600A00FB1C1A707B687F
:1027DC009B889BB21A00FB1C1B781A411300FB60F0
:1027EC00FB68DBB201221340DBB21800BD4604B01B
:1027FC0080BDB0B584B000AFF86008007A601900F5
:10280C000B243B19021C1A700A257B190A1C1A701E
:10281C007B191A787B6811001800FFF789FF0300F9
:10282C001A003B191978FB681800FEF7EDF97B19B3
:10283C001A787B6811001800FFF7C2FF03001A001A
:10284C003B191978FB681800FEF754FA7B191A78B3
:10285C007B6811001800FFF783FF03001A003B1977
:10286C001978FB681800FEF71EFA7B191A787B683A
:10287C0011001800FFF78CFF03001A003B191978A0
:10288C00FB681800FEF7E7F9BD4604B0B0BD90B583
:10289C0083B000AF78600C0010001900FB1C221CE8
:1028AC001A70BB1C021C1A707B1C0A1C1A70FB1CB5
:1028BC001A787B6811001800FEF747FABB1C1A78CF
:1028CC007B6811001800FEF779FA7B1C1A787B687C
:1028DC0011001800FEF75FFA1823FB181A787B68B2
:1028EC0011001800FEF744FABD4603B090BD80B548
:1028FC0082B000AF786039607B6818687B681979A2
:10290C003B681A683B681B79FFF773FFBD4602B042
:10291C0080BD80B500AF02F027F801F019FB030071
:10292C00043B5A425341DBB21800BD4680BD000047
:10293C0080B582B000AF7860034A7B681A607B6810
:10294C001800BD4602B080BD5C5C000880B582B04A
:10295C0000AF7860054A7B681A607B6801221A71A7
:10296C007B681800BD4602B080BDC0465C5C0008A8
:10297C0080B584B000AFF860B9607A60FB6818006D
:10298C00FFF7E4FF084AFB681A60FB6802221A741E
:10299C00FB68BA689A60FB687A68DA60FB681800B2
:1029AC00BD4604B080BDC046405C000880B582B016
:1029BC0000AF78607B689B681800FDF74FFE7B6862
:1029CC00DB681800FDF74AFEBD4602B080BD80B53D
:1029DC0082B000AF78600A00FB1C1A707B681B6821
:1029EC001B687A680221100098477B68FA1C1278E1
:1029FC001A7101231800BD4602B080BD80B582B0AB
:102A0C0000AF78600A00FB1C1A707B681B79002BE6
:102A1C0002D0FB1C02221A707B68FA1C12781A7402
:102A2C007B681B7C002B02D0012B0BD015E07B6844
:102A3C009B681800FDF712FE7B68DB681800FDF739
:102A4C00FEFD14E07B68DB681800FDF707FE7B6871
:102A5C009B681800FDF7F3FD09E07B689B68180084
:102A6C00FDF7FCFD7B68DB681800FDF7F7FDBD4644
:102A7C0002B080BD80B582B000AF78607B681B7CF3
:102A8C001800BD4602B080BD80B582B000AF786042
:102A9C000A00FB1C1A707B68FA1C12781A74FB1C57
:102AAC001B78002B02D0012B0BD015E07B685B68E8
:102ABC001800FDF7D3FD7B681B681800FDF7BFFD00
:102ACC0014E07B681B681800FDF7C8FD7B685B6829
:102ADC001800FDF7B4FD09E07B681B681800FDF7D2
:102AEC00BDFD7B685B681800FDF7B8FDBD4602B004
:102AFC0080BD80B582B000AF78600A00FB1C1A70F4
:102B0C007B68FA1C12785A74FB1C1B78002B02D0C1
:102B1C00012B0BD015E07B68DB681800FDF79EFDE0
:102B2C007B689B681800FDF78AFD14E07B689B6846
:102B3C001800FDF793FD7B68DB681800FDF77FFD3F
:102B4C0009E07B689B681800FDF788FD7B68DB68F3
:102B5C001800FDF783FDBD4602B080BD80B584B082
:102B6C0000AFF860B9607A603B60FB6801221A74B0
:102B7C00FB6801225A74FB6802229A74FB680222D9
:102B8C00DA74FB6804221A75FB68BA681A60FB6871
:102B9C007A685A60FB683A689A60FB68BA69DA60CE
:102BAC00FB681800BD4604B080BD80B582B000AF94
:102BBC0078607B6802211800FFF79BFF7B6802217D
:102BCC001800FFF761FF7B6802211800FEF746FD35
:102BDC00BD4602B080BD80B582B000AF78607B6826
:102BEC005A7C7B68DB7C9A4205D17B681A7C7B68BB
:102BFC009B7C9A4220D07B685B7C022B12D17B6839
:102C0C001B7C022B0ED17B68DA7C7B6811001800D0
:102C1C00FFF76FFF7B689A7C7B6811001800FFF749
:102C2C0033FF09E07B6802211800FFF762FF7B6825
:102C3C0002211800FFF728FFBD4602B080BD00003E
:102C4C0080B584B000AFF860B9607A60FB6818009A
:102C5C00FFF77CFE094AFB681A60FB6802221A74B3
:102C6C00FB6800225A74FB68BA689A60FB687A6841
:102C7C00DA60FB681800BD4604B080BD245C000817
:102C8C0080B582B000AF78607B689B681800FFF756
:102C9C008CFF7B68DB681800FFF787FFBD4602B02E
:102CAC0080BD80B582B000AF78600A00FB1C1A7042
:102CBC007B681B681B687A680221100098477B6848
:102CCC00FA1C12781A717B681B791800BD4602B089
:102CDC0080BD80B582B000AF78600A00FB1C1A7012
:102CEC007B681B79002B02D0FB1C02221A707B68BC
:102CFC00FA1C12781A747B685B7C002B2DD07B68D5
:102D0C001B7C002B02D0012B0DD019E07B689B683B
:102D1C0000211800FEF7A2FC7B68DB68002118007C
:102D2C00FEF79CFC48E07B689B6801211800FEF7CD
:102D3C0095FC7B68DB6800211800FEF78FFC3BE0FC
:102D4C007B689B6804211800FEF788FC7B68DB68B5
:102D5C0004211800FEF782FC2EE07B681B7C012B03
:102D6C000FD002DC002B05D020E0032B10D0042B5D
:102D7C0015D01BE07B68DB6800211800FEF76EFCA9
:102D8C001AE07B68DB6801211800FEF767FC13E092
:102D9C007B68DB6803211800FEF760FC0CE07B68A5
:102DAC00DB6804211800FEF759FC05E07B68DB6842
:102DBC0002211800FEF752FCBD4602B080BD80B562
:102DCC0082B000AF78607B681B7C1800BD4602B0F7
:102DDC0080BD80B582B000AF786039607B6800221E
:102DEC001A717B6801225A717B6802229A717B6886
:102DFC003A681A607B681800BD4602B080BD80B589
:102E0C0082B000AF78607B681B681800FFF7CDFEBE
:102E1C007B6801211800FEF76CFCBD4602B080BD3A
:102E2C0080B582B000AF78607B6800225A737B68F3
:102E3C0001221A737B6800229A60BD4602B080BDE5
:102E4C0080B584B000AFF860B960FB1D1A70F868EB
:102E5C00FB1D1A78BB681900FDF7C3FFFB6818004F
:102E6C00FFF7DEFFFB681800BD4604B080BD80B5DF
:102E7C0084B002AF786008001100FB1C021C1A70B1
:102E8C00BB1C0A1C1A707B68FA1C12785A737B687C
:102E9C00BA1C12781A737B6800229A607868002337
:102EAC000093002300220121FFF7F1FCBD4602B084
:102EBC0080BD000080B586B002AF7860BD4B5A690A
:102ECC00BC4BFC21C9030A435A61BA4B5B69FB60DA
:102EDC00FB68786800230093002300220121FFF790
:102EEC00D6FC7B6808337A6811001800FFF7FFFCEA
:102EFC007B6810337A6811001800FFF7F8FC7B68C8
:102F0C0018337A6811001800FFF7F1FC7B68203346
:102F1C007A6811001800FFF7EAFC7B6828337A689E
:102F2C0011001800FFF7E3FC7B6830337A6811005E
:102F3C001800FFF7DCFC7B6838337A681100180046
:102F4C00FFF7D5FC7B6840337A6811001800FFF757
:102F5C00CEFC7B6848337A6811001800FFF7C7FC79
:102F6C007B685033180002230093002300220121B8
:102F7C00FFF78DFC7B6858331A007B6850331900BF
:102F8C001000FFF7B4FC7B6860331A007B68503389
:102F9C0019001000FFF7ABFC7B6868331A007B68E4
:102FAC00503319001000FFF7A2FC7B6870331A0035
:102FBC007B68503319001000FFF799FC7B6878335D
:102FCC001A007B68503319001000FFF790FC7B68E7
:102FDC0080331A007B68503319001000FFF787FC10
:102FEC007B6888331A007B68503319001000FFF798
:102FFC007EFC7B6890331800002300930123012290
:10300C000021FFF744FC7B6898331A007B689033EF
:10301C0019001000FFF76BFC7B68A0331A007B686B
:10302C00903319001000FFF762FC7B68A8331A007C
:10303C007B68903319001000FFF759FC7B68B033A4
:10304C001A007B68903319001000FFF750FC7B6866
:10305C00B8331A007B68903319001000FFF747FC57
:10306C007B68C0331A007B68903319001000FFF79F
:10307C003EFC7B68C8331A007B6890331900100043
:10308C00FFF735FC7B68D0331A007B68903319004E
:10309C001000FFF72CFC7B68D8331A007B68903348
:1030AC0019001000FFF723FC7B68E0331A007B68E3
:1030BC00903319001000FFF71AFC7B68E8331A00F4
:1030CC007B68903319001000FFF711FC7B68F0331C
:1030DC001A007B68903319001000FFF708FC7B681E
:1030EC00F8331A007B68903319001000FFF7FFFBD0
:1030FC007B685A1CFF327B68903319001000FFF775
:10310C00F6FB7B680933FF331A007B689033190098
:10311C001000FFF7ECFB7B689133FF331A007B68E0
:10312C00903319001000FFF7E2FB7B689933FF33F3
:10313C001A007B68903319001000FFF7D8FB7B68EE
:10314C00A133FF331A007B68903319001000FFF78E
:10315C00CEFB7B68A933FF331A007B6890331900D0
:10316C001000FFF7C4FB7B68B133FF331800032357
:10317C000093012301220021FFF789FB7B68613357
:10318C00FF33002200211800FFF771FE7B688133AA
:10319C00FF33002200211800FFF769FE7B687133B2
:1031AC00FF33002200211800FFF761FEBD4604B07A
:1031BC0080BDC0460010024080B584B000AFF860FE
:1031CC00B9607A603B60FB680022DA60FB68002221
:1031DC001A74FB6800225A74FB6800229A74FB680C
:1031EC000022DA74FB68BA681A60FB687A685A6065
:1031FC00FB683A689A60FB681800BD4604B080BD55
:10320C0080B582B000AF78607B68104ADA607B686A
:10321C001B681800FFF734FD7B685B681800FFF72C
:10322C00C5FB7B689B681800FFF7E9FD0320FDF7E1
:10323C00F7FF0300DAB27B681A747B681800FEF79C
:10324C00E3FB01231800BD4602B080BD1C01002029
:10325C0080B582B000AF78600A00FB1C1A70FB1CB2
:10326C001B78002B07D07B681A1DFB1C1B781900E0
:10327C00100000F0DFFCBD4602B080BD80B586B00A
:10328C0000AFF860B9607A603B60FB680433F968A2
:10329C000422180000F0AEFCFB68BA68DA61FB6827
:1032AC007A681A62FB683A685A62FB683A6A9A62F0
:1032BC001623FB1800221A801623FB181B88032BDD
:1032CC000BD816203B181B88FA680021D1543B18E8
:1032DC001A883B1801321A80EEE7FB681800BD46CD
:1032EC0006B080BDB0B584B000AF78600F257C19F6
:1032FC007B681800FDF717FB030023700C4B1B7841
:10330C007A1912789A4210D0094B0F217A18127838
:10331C001A707B181B78002B07D00F23FB181A7818
:10332C007B6811001800FFF793FFBD4604B0B0BDD9
:10333C001801002080B584B000AF78600023FB60DA
:10334C007B681B69FA689A4209D87B685A69FB68E2
:10335C00D31820221A70FB680133FB60F0E77B68FE
:10336C001800FEF731F8BD4604B080BD80B584B0BE
:10337C0000AFF860B9607A603B60FB68BA681A60AD
:10338C00FB687A685A60FB683A689A60FB680022AE
:10339C001A74BD4604B080BD80B584B000AFF8602F
:1033AC00B9607A603B60FB68BA689A60FB683A68FF
:1033BC00DA60FB687A681A61FB68BA691A62FB68A2
:1033CC003A6A9A61FB687A6ADA61FB68FA695A614F
:1033DC00FB685869FB689968FB681A69FB68DB68CD
:1033EC00FFF7C4FFBD4604B080BD000080B582B0BD
:1033FC0000AF7860034A7B681A607B681800BD4692
:10340C0002B080BD785C000880B582B000AF7860F7
:10341C007B681800FFF7EAFF0C4A7B681A607B6830
:10342C0000225A607B6800229A607B680022DA6076
:10343C007B6800221A617B6800225A617B6800223B
:10344C001A767B681800BD4602B080BD105C00087F
:10345C0080B582B000AF7860054A7B681A607B68E3
:10346C001800FFF757F97B681800BD4602B080BD05
:10347C00105C000880B582B000AF78607B681800E3
:10348C00FFF7E6FF7B681C21180002F019FA7B6835
:10349C001800BD4602B080BD80B582B000AF786028
:1034AC00BD4602B080BD80B582B000AF78607B684D
:1034BC005B681800BD4602B080BD000080B582B0CC
:1034CC0000AF78607B68084A1A60084B1B681800CC
:1034DC00FFF796FE054B1B6800211800FEF79EFCBB
:1034EC00BD4602B080BDC0461C010020300000204B
:1034FC0080B582B000AF78607B68CC490922180097
:10350C00FDF76FFC7B680833C84903221800FDF7F0
:10351C0068FC7B681033C54902221800FDF761FC7A
:10352C007B681833C24905221800FDF75AFC7B68EA
:10353C002033BF4904221800FDF753FC7B68283365
:10354C0018009023DB050B221900FDF74AFC7B6861
:10355C003033B84907221800FDF743FC7B68383339
:10356C00B44906221800FDF73CFC7B684033B14996
:10357C0009221800FDF735FC7B68483318009023AE
:10358C00DB0508221900FDF72CFC7B685033AA4997
:10359C000F221800FDF725FC7B685833A6490E2234
:1035AC001800FDF71EFC7B686033A1490922180046
:1035BC00FDF717FC7B6868339D490B221800FDF75B
:1035CC0010FC7B6870339C490D221800FDF709FC38
:1035DC007B68783398490C221800FDF702FC7B6855
:1035EC008033934908221800FDF7FBFB7B68883376
:1035FC008F490A221800FDF7F4FB7B6890338D4944
:10360C0004221800FDF7EDFB7B6898338B490022F0
:10361C001800FDF7E6FB7B68A033884901221800EF
:10362C00FDF7DFFB7B68A833844902221800FDF705
:10363C00D8FB7B68B03381490F221800FDF7D1FB12
:10364C007B68B8337D490E221800FDF7CAFB7B68F6
:10365C00C0337A490D221800FDF7C3FB7B68C833D1
:10366C0076490C221800FDF7BCFB7B68D0337049FF
:10367C000F221800FDF7B5FB7B68D8336C490E227E
:10368C001800FDF7AEFB7B68E03369490D2218008A
:10369C00FDF7A7FB7B68E83365490C221800FDF7A2
:1036AC00A0FB7B68F03318009023DB050722190080
:1036BC00FDF797FB7B68F83318009023DB05062297
:1036CC001900FDF78EFB7B68581CFF309023DB053F
:1036DC0005221900FDF785FB7B680933FF331800C1
:1036EC009023DB0504221900FDF77BFB7B6811336B
:1036FC00FF33504905221800FDF773FB7B68193323
:10370C00FF334B4902221800FDF76BFB7B6821331A
:10371C00FF3318009023DB050C221900FDF761FB29
:10372C007B682933FF33454906221800FDF759FB06
:10373C007B683133FF33414907221800FDF751FBF9
:10374C007B683933FF333C4904221800FDF749FBF1
:10375C007B684133FF33384905221800FDF741FBE4
:10376C007B684933FF33344906221800FDF739FBD7
:10377C007B685133FF3331490A221800FDF731FBC6
:10378C007B685933FF332D490B221800FDF729FBB9
:10379C007B686133FF3318009023DB05002219008E
:1037AC00FFF74EFB7B687133FF3318009023DB056A
:1037BC0001221900FFF744FB7B688133FF331800AB
:1037CC009023DB0502221900FFF73AFB7B6891334B
:1037DC00FF33194908221800FDF703FB7B68993366
:1037EC00FF33154909221800FDF7FBFA7B68A1335A
:1037FC00FF3311490A221800FDF7F3FA7B68A9334D
:10380C00FF330D490B221800FDF7EBFA7B68B1333F
:10381C00FF3318009023DB050F221900FDF7E1FAA6
:10382C007B681800BD4602B080BDC046001400483D
:10383C000010004800080048000C00480004004834
:10384C0080B582B000AF78607B6800225A827B68BA
:10385C0000221A757B681800BD4602B080BD0000BE
:10386C0080B500AF044B1800FFF7B5F9034B1800F7
:10387C00FFF7B1F9BD4680BD0003002018030020FE
:10388C0080B500AF024B1800FFF72CFDBD4680BD84
:10389C00D402002090B587B004AF0120FEF72AFFB8
:1038AC00FDF7EAFB334B1800FFF704FB6420FDF730
:1038BC0001FBFFF72EF8304B304A1A602E4B642276
:1038CC00DA602D4B2E4A5A602B4B2E4A9A602E4BA7
:1038DC001B68294A1100180001F0A2FA2A4B19683A
:1038EC002A4B2B4A2B4801F0F5FDFDF7BFF80300DE
:1038FC007B60294B1C68274B1800FFF7D4FD010097
:10390C00264A7868264B0393264B0293264B019349
:10391C001F4B00930B002100FFF73EFD7B68DB681B
:10392C001800FFF707FD7B68DB6800211800FDF726
:10393C005CFE1E4B1B681800FFF7C0FD7B68D86847
:10394C001B4B00220021FDF7FCFD7B68D868194B4E
:10395C0001220021FDF7F5FDFA23DB001800FDF72D
:10396C008FFA0020FEF7C6FEFDF7B6FB00F06AFAF0
:10397C00FAE7C0461C01002020000020005800403F
:10398C00740200206C020020600300202C02002036
:10399C00340200206403002030000020D4020020F8
:1039AC009C0200207C020020940300204000002098
:1039BC00E05B0008F45B000880B582B000AF786073
:1039CC00054A7B681A607B681800FEF7B1FF7B68BC
:1039DC001800BD4602B080BD245C000880B582B0E2
:1039EC0000AF78607B681800FFF7E6FF7B68142156
:1039FC00180001F065FF7B681800BD4602B080BD61
:103A0C0080B582B000AF7860054A7B681A607B682D
:103A1C001800FEF78DFF7B681800BD4602B080BD14
:103A2C00405C000880B582B000AF78607B681800FD
:103A3C00FFF7E6FF7B681421180001F041FF7B685B
:103A4C001800BD4602B080BD90B585B002AF78605D
:103A5C0039607B68012B62D13B683C4A93425ED152
:103A6C003B4B1800DC235B001A00002102F01AF813
:103A7C00374B1800FFF73CFD364C374A374938486E
:103A8C00384B00932300FFF7F9FB374C374A384982
:103A9C003848394B00932300FFF760F8374C384A0D
:103AAC0038493948394B00932300FFF757F8314A0E
:103ABC00374B11001800FFF78CF9334A2D49354B61
:103ACC001800FFF7BDF8344A3449354B1800FEF79F
:103ADC004FFF01F09DF90200324B1A60324B180077
:103AEC00FFF792FC2A4B2E4A2A493048FFF764FB19
:103AFC002F4B180018231A00002101F0D3FF2C4B78
:103B0C001800FFF79DFE2B4A2B480A23022100F0D8
:103B1C00CDF92A4A2A480123022100F0C7F97B6813
:103B2C00002B0FD13B68094A93420BD11E4B180056
:103B3C00FFF78EFC1A4B1800FFF762FF154B1800AD
:103B4C00FFF73AFFBD4603B090BDC046FFFF000033
:103B5C001C010020BC010020B4010020AC0100209D
:103B6C00D4020020C4010020740100208C0100202C
:103B7C006C0100200003002094010020840100202F
:103B8C009C0100207C01002018030020A4010020CF
:103B9C003003002038030020540100205C01002079
:103BAC004C030020600300206403002080030020ED
:103BBC00940300208D380008AC0300206D380008F9
:103BCC00C003002080B500AF034B19000120FFF7A4
:103BDC003BFFBD4680BDC046FFFF000080B500AF77
:103BEC00034B19000020FFF72FFFBD4680BDC046D8
:103BFC00FFFF000080B584B000AFF860B9607A6058
:103C0C00FB680B4A1A61FB68094A9A82FB687A685E
:103C1C001A60FB68BA68DA60FB6800229A60FB687D
:103C2C0000225A60FB681800BD4604B080BDC04637
:103C3C0000FFFFFF80B584B000AF78600A00FB1C6A
:103C4C001A707B685B68FB607B689B68BB60FB6879
:103C5C000133BA689A4201D100231EE0BB68002BE5
:103C6C0007D17B681B68013BFA689A4201D100239B
:103C7C0013E07B68DA68FB68591CF960D318FA1CEE
:103C8C0012781A707B681B68FA689A4201D2FA683B
:103C9C0000E000227B685A6001231800BD4604B086
:103CAC0080BD80B586B000AF78607B689B687B6117
:103CBC007B685B683B617A693B699A4202D17B689D
:103CCC009B8A17E07B68DA687B69591C7961D2188A
:103CDC000F23FB1812781A707B681B687A699A425A
:103CEC0001D27A6900E000227B689A600F23FB18EE
:103CFC001B789BB21800BD4606B080BD80B584B061
:103D0C0000AF786039603B68002B01D1002323E0C1
:103D1C000F23FB1801221A703B681800FDF714FBE7
:103D2C00031E16D03B681800FFF7BBFF0300DAB286
:103D3C007B6811001800FFF77DFF03001A000123B8
:103D4C005340DBB2002BE7D00F23FB1800221A7074
:103D5C00E2E70F23FB181B781800BD4604B080BDAA
:103D6C0080B584B000AF78607B689B68FB607B6833
:103D7C005B68BB60BA68FB689A4203D3BA68FB689D
:103D8C00D31A05E07B681A68FB68D21ABB68D31893
:103D9C001800BD4604B080BD80B582B000AF78601D
:103DAC00034A7B681A607B681800BD4602B080BD70
:103DBC008C5C000880B582B000AF78607B6818001E
:103DCC00FFF7EAFF7B681C21180001F079FD7B6886
:103DDC001800BD4602B080BD80B584B000AF7860DD
:103DEC00164B1A687B68D218144B1A60144B1B685C
:103DFC00FB60FB68002B1DD0FB685B7C022B15D194
:103E0C00FB681B687A689A429B415B42DBB2002BD1
:103E1C0006D0FB681A687B68D21AFB681A6005E04A
:103E2C00FB6801225A74FB6800221A60FB689B68CD
:103E3C00FB60DEE7BD4604B080BDC046D803002061
:103E4C00D403002080B582B000AF164B1B78DBB2D8
:103E5C00002B24D1144B1B687B607B68002B1ED07D
:103E6C007B685B7C012B16D17B681B7C012B0CD0F7
:103E7C00022B10D17B685A687B681A607B6802221F
:103E8C005A747B68DB68984705E07B6800225A749B
:103E9C007B68DB6898477B689B687B60DDE7BD4689
:103EAC0002B080BD44000020D403002080B586B051
:103EBC0000AFF8607A603B600B203B180A1C1A704C
:103ECC00FB6800225A74FB683A1812781A74FB6863
:103EDC007A68DA60FB683A685A60184B1B68002BEA
:103EEC000AD1164BFA681A60144B1B6800229A60B0
:103EFC00FB6802225A741BE0104B1B687B617B69C8
:103F0C009B68002B07D07A69FB689A4210D07B69BA
:103F1C009B687B61F3E77A69FB689A4208D0FB687F
:103F2C0000229A607B69FA689A60FB6802225A74D4
:103F3C00FB681800BD4606B080BDC046D403002007
:103F4C0080B500AF0120FFF747FFBD4680BD0000E4
:103F5C0090B585B000AF0A217B1806221A80082084
:103F6C003B1806221A800E23FB1800221A80BB1D58
:103F7C0000221A803B1D00221A800C23FB18012200
:103F8C0052421A80BC4A7B1812881A80BB4A3B18D2
:103F9C0012881A807B181B88B94A93424FD0B94AB1
:103FAC00934203D0002B00D1F5E09FE10823FB18CE
:103FBC001B88002B0FD1B04B180000F0F7FC03004E
:103FCC001A00BB1C1A80BB1C1B88042B00D19AE165
:103FDC00BB1C1B889DE10823FB181B88A84A934235
:103FEC001FD1A54B180000F0E1FC03001A00BB1C0C
:103FFC001A80BB1C1B88042B02D0BB1C1B8888E1BD
:10400C009E4B0021180000F00DFD03001A00BB1C94
:10401C001A80BB1C1B88042B00D174E1BB1C1B88B1
:10402C0077E100F013FA03001A00BB1C1A80BB1CCA
:10403C001B88042B00D166E1BB1C1B8869E108239B
:10404C00FB181B88002B00D071E00E23FB180022FC
:10405C001A8047E08C4B1B889AB20E23FB181988E8
:10406C008A4B4900CB5A9A4205D10C23FB180E22DD
:10407C00BA1812881A800E23FB181A880C23FB1806
:10408C0000215B5E9A4227D00E23FB181A887F4BC7
:10409C005200D35A3C1D7E4A1100180000F042F920
:1040AC00030023803B1D1B88012B15D00E23FB180E
:1040BC001A88764B5200D25A754B1B88BC1D1900BE
:1040CC00100000F04FFA03002380BB1D1B88042B4B
:1040DC0002D0BB1D1B881CE10E217B181A887B1893
:1040EC0001321A800E23FB181B88092BB2D9624BA4
:1040FC000021180000F096FC03001A00BB1C1A806B
:10410C00BB1C1B88042B02D0BB1C1B8801E15B4B26
:10411C00180000F04BFC03001A00BB1C1A80BB1CDF
:10412C001B88042B00D1F0E0BB1C1B88F1E008239A
:10413C00FB181B88534A93421FD1504B180000F0B8
:10414C0035FC03001A00BB1C1A80BB1C1B88042BFB
:10415C0002D0BB1C1B88DCE0474B0021180000F090
:10416C0061FC03001A00BB1C1A80BB1C1B88042BAF
:10417C0000D1CAE0BB1C1B88CBE000F067F9030040
:10418C001A00BB1C1A80BB1C1B88042B00D1BCE082
:10419C00BB1C1B88BDE00823FB181B88002B0DD112
:1041AC0000F054F903001A00BB1C1A80BB1C1B88BE
:1041BC00042B00D1ABE0BB1C1B88AAE00823FB1826
:1041CC001B88304A93420FD12C4B180000F0EEFBA9
:1041DC0003001A00BB1C1A80BB1C1B88042B00D1CB
:1041EC0095E0BB1C1B8894E00E23FB1800221A8060
:1041FC0058E0284B1B889AB20E23FB181988234BC6
:10420C004900CB5A9A4205D10C23FB180E22BA183E
:10421C0012881A800E23FB181A880C23FB18002115
:10422C005B5E9A4238D00E23FB181A88174B52004B
:10423C00D35A3C1D164A1100180000F073F8030005
:10424C0023803B1D1B88012B26D00E23FB181A88BC
:10425C000E4B5200D25A0E4B1B88BC1D190010007D
:10426C0000F080F903002380BB1D1B88042B13D0A6
:10427C00BB1D1B884DE0C04600F8000800FC000880
:10428C00EEEE0000FFFF000006F80008DC03002043
:10429C00F003002006FC00080E217B181A887B18FE
:1042AC0001321A800E23FB181B88092BA1D91B4B3A
:1042BC000021180000F0B6FB03001A00BB1C1A808A
:1042CC00BB1C1B88042B02D0BB1C1B8821E0144B8D
:1042DC00180000F06BFB03001A00BB1C1A80BB1CFF
:1042EC001B88042B13D0BB1C1B8812E000F0AEF80B
:1042FC0003001A00BB1C1A80BB1C1B88042B07D0A4
:10430C00BB1C1B8805E0C04602E0C04600E0C0466E
:10431C0004231800BD4605B090BDC04600FC000843
:10432C0000F80008B0B586B000AF02003960BB1DC4
:10433C001A800E217B1800221A800C23FB18274AA6
:10434C001A801623FB1801221A80254B3B61244B43
:10435C00BB600D007C18002000F0ACF8030023803B
:10436C0029007B181B88AB2B01D1AB2331E00E222B
:10437C00BB181B881B498C4663449B02BB60BB1853
:10438C001B8801339B02184A944663443B6118E036
:10439C003A690C217B1812881A807A18BB1D128876
:1043AC001B889A420AD13B69023B1B889AB23B6834
:1043BC001A801623FB1800221A8007E03B69043B85
:1043CC003B61BB6802333A699A42E1D81623FB1869
:1043DC001B881800BD4606B0B0BDC0465555000040
:1043EC00000001083E000200FEF70008B0B584B0E2
:1043FC0000AF0200BB1D1A803B1D0A1C1A800E2543
:10440C007B1900221A807C193B1D1A88BB1D1B8846
:10441C001100180000F0A6F8030023807B191B88FC
:10442C00802B0BD10E23FC183B1D1A88BB1D1B883F
:10443C001100180000F006F9030023800E23FB186E
:10444C001B881800BD4604B0B0BD000090B583B009
:10445C0000AFFB1D04221A70FC1D144B180000F059
:10446C00A5FA03002370FB1D1B78042B02D0FB1D47
:10447C001B7817E0FC1D0D4B0021180000F0D2FA40
:10448C0003002370FB1D1B78042B02D0FB1D1B7833
:10449C0008E0FC1D064B180000F088FA030023709E
:1044AC00FB1D1B781800BD4603B090BD00F800083A
:1044BC0000FC000880B584B000AF0200FB1D1A7030
:1044CC000E217B1806221A800C203B1806221A801B
:1044DC00214A7B1812881A80204A3B1812881A80AD
:1044EC00FB1D1B78002B21D0012B2FD10C23FB188B
:1044FC001B88002B09D10E23FB181B88184A9342EA
:10450C0001D1002323E0012321E00E23FB181B889B
:10451C00002B09D10C23FB181B88114A934201D1A3
:10452C00012314E0002312E0AB2310E00E23FB1850
:10453C001B88002B01D1002309E00C23FB181B88DE
:10454C00002B01D1012302E0AB2300E00023180073
:10455C00BD4604B080BDC04600F8000800FC000851
:10456C00EEEE0000B0B586B000AF0200BB1D1A80A5
:10457C003B1D0A1C1A801323FB1804221A701021ED
:10458C007B1800221A802B4B7B612B4BFB600D00A0
:10459C007C180120FFF78EFF0300238029007B1875
:1045AC001B88AB2B01D1AB2340E01022BB181B881E
:1045BC0022498C4663449B027B61BB181B880133E8
:1045CC009B021F4A94466344FB602AE07B691B688C
:1045DC00013323D113257C193B1D1A887B691100EB
:1045EC00180000F01FFA030023707B191B78042BB2
:1045FC0004D01323FB181B789BB217E07B699A1C21
:10460C0013257C19BB1D1B881900100000F00AFA39
:10461C00030023707B191B789BB207E07B69043382
:10462C007B617A69FB689A42D0D380231800BD461F
:10463C0006B0B0BD00000108FF0701083E000200F3
:10464C00FEF70008B0B588B000AF0200BB1D1A80A1
:10465C003B1D0A1C1A801523FB1804221A70644B8C
:10466C00FB61644BBB6112217B1800221A8016235C
:10467C00FB1800221A801023FB1800221A800E232C
:10468C00FB1800221A800D007C180020FFF712FF87
:10469C000300238029007B181B88012B04D1564B67
:1046AC00FB61564BBB610BE01223FB181B88002BE4
:1046BC0004D1524BFB61504BBB6101E0AB2392E048
:1046CC0015257C194E4AFB691100180000F0AAF957
:1046DC00030023707B191B78042B04D01523FB18C3
:1046EC001B789BB27FE010257C193B1D1A88BB1DE3
:1046FC001B8811001800FFF735FF030023807B197E
:10470C001B88042B03D01023FB181B886BE016238B
:10471C00FB1800221A803AE01623FB181A88394B32
:10472C005200D35ABA1D12889A422AD01623FB186B
:10473C001A88344B5200D35A0E257C19324A110078
:10474C001800FFF7EFFD030023807B191B88012B5A
:10475C0017D01623FB181A882A4B5200D25A2A4B10
:10476C001B8810257C1919001000FFF7FBFE0300B5
:10477C0023807B191B88042B03D01023FB181B8868
:10478C0031E016217B181A887B1801321A80162307
:10479C00FB181B88092BBFD915257C19BB69180080
:1047AC0000F004F9030023707B191B78042B04D050
:1047BC001523FB181B789BB215E015257C19FB699A
:1047CC000021180000F02EF9030023707B191B78D0
:1047DC00042B04D01523FB181B789BB203E0152384
:1047EC00FB181B789BB21800BD4608B0B0BDC04684
:1047FC00FF0301080000010800F8000800FC000895
:10480C00EEEE0000DC030020F003002090B585B034
:10481C0000AF786039600B23FB1830221A700A2322
:10482C00FB1823221A707B68FB6002E0FB680133E3
:10483C00FB60FB681B785BB2002BF7D143E0FB6895
:10484C00013BFB60FB681B785BB20B22BA18127839
:10485C0052B29A4208D0FB681B785BB20A22BA1893
:10486C00127852B29A422ED13B680A21180001F0FC
:10487C0013F90B001A0009243B191A703B680A2122
:10488C00180001F083F803003B603B191B78002BE8
:10489C000FD13B68002B0CD1FB681B785BB20A2252
:1048AC00BA18127852B29A420CD1FB6820221A70B4
:1048BC0009E00923FB181B783033DBB25AB2FB68D2
:1048CC001A7000E0C046FA687B689A42B7D83B6819
:1048DC005A425341DBB21800BD4605B090BD80B5BD
:1048EC0086B000AFF860B960FB1D1A70BB685A1C2B
:1048FC00BA6000229A5617217B181A707B181B7805
:10490C00002B0DD1FB1D1B78002B07D0FB685A1C0C
:10491C00FA601722BA18127852B21A70FB6808E0C3
:10492C00FB685A1CFA601722BA18127852B21A7025
:10493C00DCE71800BD4606B080BD80B584B000AF82
:10494C00F860B9607A60F9687B6801221800FFF79B
:10495C00C6FFBA687B6811001800FFF757FF030009
:10496C001800BD4604B080BD80B500AF064B1B6976
:10497C008022134005D0044B044A5A60024B044A6F
:10498C005A60BD4680BDC0460020024023016745E9
:10499C00AB89EFCD80B500AF034B1A69024B802178
:1049AC000A431A61BD4680BD00200240B0B584B0F8
:1049BC0000AF78600F257B1904221A707C19B02384
:1049CC001B03180000F096F8030023707B191B786A
:1049DC00042B1DD1124B1A69114B02210A431A6187
:1049EC000F4B7A685A610E4B1A690D4B40210A43E2
:1049FC001A610F23FC18B0231B03180000F07AF87F
:104A0C0003002370064B1A69054B02218A431A6175
:104A1C000F23FB181B781800BD4604B0B0BDC04670
:104A2C0000200240B0B584B000AF78600A00BB1C17
:104A3C001A800F257B1904221A707C19B0231B03D2
:104A4C00180000F057F8030023707B191B78042B17
:104A5C0018D1104B1A690F4B01210A431A617B685C
:104A6C00BA1C12881A800F23FC18B0231B031800E1
:104A7C0000F040F803002370064B1A69054B012126
:104A8C008A431A610F23FB181B781800BD4604B02B
:104A9C00B0BDC0460020024080B582B000AFFB1D07
:104AAC0004221A70124BDB6801221340012B03D134
:104ABC00FB1D01221A7014E00D4BDB681022134011
:104ACC0003D0FB1D02221A700BE0094BDB68042299
:104ADC00134003D0FB1D03221A7002E0FB1D0422BD
:104AEC001A70FB1D1B781800BD4602B080BDC04675
:104AFC000020024090B585B000AF78600F217B1884
:104B0C0004221A707C18FFF7C7FF0300237008E01B
:104B1C000F23FC18FFF7C0FF030023707B68013BD9
:104B2C007B600F23FB181B78012B02D17B68002BB9
:104B3C00EED17B68002B03D10F23FB1805221A70D2
:104B4C000F23FB181B781800BD4605B090BD000064
:104B5C0080B582B000AF0200FB1D1A70FB1D1B78E4
:104B6C005BB21F221A40044B012191400A001A60CB
:104B7C00BD4602B080BDC04600E100E090B583B0F8
:104B8C0000AF02003960FB1D1A70FB1D1B785BB275
:104B9C00002B36DA314AFB1D1B785BB219000F2350
:104BAC000B40083B9B0806339B00D31804331B684F
:104BBC00FA1D127852B2110003220A40D200FF21D2
:104BCC0091400A00D2431A4011003B689B01FF221E
:104BDC001A40FB1D1B785BB2180003230340DB005B
:104BEC009A401E48FB1D1B785BB21C000F23234010
:104BFC00083B9B080A4306339B00C31804331A6016
:104C0C0029E0174AFB1D1B785BB29B08C0339B0045
:104C1C009B58FA1D127852B2110003220A40D2009E
:104C2C00FF2191400A00D2431A4011003B689B01BE
:104C3C00FF221A40FB1D1B785BB2180003230340B4
:104C4C00DB009A400648FB1D1B785BB29B080A43AD
:104C5C00C0339B001A50BD4603B090BD00ED00E080
:104C6C0000E100E080B588B000AF7860080011006A
:104C7C00FB1C021C1A70BB1C0A1C1A70BB1C1B7878
:104C8C00072B01D900234DE00723FB61BB1C1B78CC
:104C9C00BB61FB1C1B78072B1CD817217B18FA1C3B
:104CAC00127892001A707B681B6A3B617B181B7828
:104CBC0007229A401300DA433B6913403B617B188F
:104CCC001B78BA699A4013003A6913433B617B68BD
:104CDC003A691A62FB1C1B78072B22D9FB1C1B7828
:104CEC000F2B1ED8FB1C1B783833DAB20F217B1824
:104CFC0092001A707B685B6ABB607B181B7807227A
:104D0C009A401300DA43BB681340BB607B181B78D6
:104D1C00BA699A401300BA681343BB607B68BA68DF
:104D2C005A6201231800BD4608B080BD80B582B020
:104D3C0000AF78600A00FB1C1A707B6818687B68EF
:104D4C001979FB1C1B781A00FFF78CFF0300180065
:104D5C00BD4602B080BD80B582B000AF78607B6884
:104D6C0000225A607B6800229A60BD4602B080BD6A
:104D7C0080B582B000AF78607B6800221A607B68D7
:104D8C0000225A607B6800229A607B6800229A811C
:104D9C007B6800229A737B681800BD4602B080BD08
:104DAC0080B582B000AF78607B689B68002B07D021
:104DBC007B689A687B689B681B681B681000984727
:104DCC00BD4602B080BD80B582B000AF78600A00ED
:104DDC00FB1C1A70FB1C1B78002B03D17B68002278
:104DEC009A7303E07B68FA1C12789A73BD4602B082
:104DFC0080BD80B582B000AF78607B689B7BDBB2F6
:104E0C005A1E9341DBB21800BD4602B080BD0000B3
:104E1C0080B500AF014B1800BD4680BDF4030020E7
:104E2C0080B582B000AF786039607B683A681A60F0
:104E3C007B681B681B685A425341DBB2002B01D0C4
:104E4C0000231CE03B685B68002B01D1002316E0BB
:104E5C003B689B68002B01D1002310E07B681B682A
:104E6C00DB685A425341DBB2002B03D07B681B68D2
:104E7C006422DA607B68180000F006F80300180062
:104E8C00BD4602B080BD000080B586B002AF786030
:104E9C007B685C4A5A607B6800211800FFF793FF1F
:104EAC0080239B03FB607B681B681B68564A9446F7
:104EBC0063445A425341DBB2002B02D08023DB0304
:104ECC00FB60524BD969FA68504B0A43DA614F4B7D
:104EDC00DB69FA681340BB60BB687B681B681B68A6
:104EEC001A6801218A431A607B681B681B681B685F
:104EFC00012213405A1E9341DBB2002BF4D17B6884
:104F0C001B68986803230093012301220221FDF7FB
:104F1C00BEFC7B681B6858680323009301230122A5
:104F2C000221FDF7B4FC7B681B689B68012118000B
:104F3C00FFF7FCFE7B681B685B6801211800FFF71C
:104F4C00F5FE7B681B681B681A68802149010A43BF
:104F5C001A607B681B681B681B682D4A1A407B68AB
:104F6C001B681B68802149000A431A607B681B6818
:104F7C001B68284A944663445A425341DBB2002BC7
:104F8C0007D003211720FFF7F9FD1720FFF7E0FDED
:104F9C0014E07B681B681B681B4A944663445A42A6
:104FAC005341DBB2002B07D003211820FFF7E6FD9D
:104FBC001820FFF7CDFD01E000231EE07B681B6885
:104FCC001B681A6814490A401A607B681B681B68C6
:104FDC00124A1A617B681B681B681A6801210A4314
:104FEC001A607B681B681B681B68012213405A42BD
:104FFC005341DBB2002BF4D101231800BD4604B0A1
:10500C0080BDC0466804002000A8FFBF001002400D
:10501C00FFF0FFFF00ACFFBFFFFFFDFF271A106082
:10502C0080B584B000AF78607B681B681B68FB6040
:10503C007B685B68BB60FB689B69102213405A1E3F
:10504C009341DBB2002B0AD07B6805211800FFF7D7
:10505C00BAFEFB68DB6910221A43FB68DA61FB6855
:10506C009B69042213405A1E9341DBB2002B09D0DA
:10507C007B681B681B685B6ADAB2BB68110018009E
:10508C00FEF7D8FDFB689B69022213405A1E934120
:10509C00DBB2002B09D0BB681800FEF702FE030040
:1050AC00DAB27B681B681B689A62FB689B692022DA
:1050BC0013405A1E9341DBB2002B0ED0FB68DB6908
:1050CC0020221A43FB68DA617B6800211800FFF785
:1050DC007AFE7B681800FFF763FEBD4604B080BD06
:1050EC0080B584B000AF786039607B681800FFF73A
:1050FC0080FE031E01D0002366E07B6801211800AE
:10510C00FFF761FE7B685B681800FFF724FE7B6885
:10511C005B683A6811001800FEF7F0FD7B681B68AD
:10512C001B685A682A490A405A607B681B681B68CE
:10513C005A6828490A405A607B681B681B685B6880
:10514C009B0A9A027B689B899BB219007B681B683F
:10515C001B680A435A607B681B681B685A681E49A7
:10516C000A405A607B681B681B685A688021890456
:10517C000A435A607B685B681800FEF7F1FD030078
:10518C00FB60FB68FF2B01D9FF23FB607B681B686E
:10519C001B685B68114A13401900FB681A047B6892
:1051AC001B681B680A435A607B681B681B681A687B
:1051BC0022210A431A607B681B681B685A6880218D
:1051CC0089010A435A6001231800BD4604B080BD12
:1051DC00FFFBFFFFFFF7FFFFFFEFFFFFFFFF00FFEE
:1051EC0080B500AF024B1800FFF71AFFBD4680BD1B
:1051FC00F403002080B500AF024B1800FFF710FF3E
:10520C00BD4680BDF403002080B582B000AF78604D
:10521C0039607B68012B0DD13B68084A934209D158
:10522C00074B1800FFF7A4FD0649074B6422180032
:10523C00FEF7E0FCBD4602B080BDC046FFFF00009B
:10524C00F4030020040400206804002080B500AFA3
:10525C00034B19000120FFF7D7FFBD4680BDC046A8
:10526C00FFFF000080B584B000AFF860B9607A60D1
:10527C003B60104AFB681A60FB68BA689A60FB686E
:10528C007A68DA60FB683A685A61FB68DA68FB682E
:10529C009B685A43FB681A61FB6800225A60FB68E2
:1052AC0000221A76FB6800225A76FB681800BD466D
:1052BC0004B080BD8C5C000880B582B000AF786013
:1052CC007B685B691800BD4602B080BD80B588B0B4
:1052DC0000AFF860B9607A60FB681800FCF79DF8C5
:1052EC000100BA6800238A425B41DBB2002B01D07B
:1052FC00002323E0FB681800FCF799F80300BB615E
:10530C00BB68BA6953437B610023FB61FA69BB69D3
:10531C009A4212D2FB681800FFF7CEFF01007A699F
:10532C00FB69D318CB181A787B6811001800FEF7AC
:10533C0081FCFB690133FB61E8E701231800BD46E2
:10534C0008B080BD80B582B000AF78600A00BB1C8D
:10535C001A807B68BA1C12889A81BD4602B080BD47
:10536C0080B582B000AF786039603A687B68110014
:10537C001800FFF7B5FE03001800BD4602B080BD53
:10538C0080B582B000AF786039607B683A689A600B
:10539C00BD4602B080BD80B582B000AF78600A0017
:1053AC00FB1C1A70FB1C1A787B681100180000F0AB
:1053BC0080F903001800BD4602B080BD80B582B0F4
:1053CC0000AF78607B68DB681800FFF712FD030004
:1053DC001800BD4602B080BD80B582B000AF7860C9
:1053EC000A00FB1C1A707B685A69FB1C1B7819009D
:1053FC001000FBF742F9BD4602B080BD80B582B00B
:10540C0000AF78600A00FB1C1A707B681A69FB1CE1
:10541C001B7819001000FBF730F9BD4602B080BDB7
:10542C0080B584B000AF786008001100FB1C021C32
:10543C001A70BB1C0A1C1A70FB1C1B78102B01D990
:10544C00002324E00023FB60BB1C1B78022B06D03E
:10545C00032B07D0012B08D14023FB6007E010235E
:10546C00FB6004E05023FB6001E00023FB60FB6861
:10547C00DAB2FB1C1B781343DBB28022524213437B
:10548C00DAB27B681100180000F013F90300180061
:10549C00BD4604B080BD80B500AF00F003F8BD463A
:1054AC0080BD000080B500AF034B1B68180000F0F6
:1054BC0041F9BD4680BDC0468004002080B582B055
:1054CC0000AF786039603B681800FBF70DFEBD46F5
:1054DC0002B080BD80B586B002AFF860B9607A606A
:1054EC003B60574BFA681A60FB687A681A61FB6874
:1054FC003A685A61FB681869022300930023002262
:10550C000121FDF7C4F9FB685869022300930023BD
:10551C0001220121FDF7BBF9FB684A4A5A60FB687E
:10552C00494A9A60FB6800221A76FB68BA68DA600E
:10553C00FB68DB68FA6811001800FFF721FFFB68B5
:10554C00DB687C211800FFF7FDFEFB6801211800C9
:10555C00FFF754FFFB6800211800FFF73DFFFB68C5
:10556C0032211800FFF7AAFFFB6801211800FFF792
:10557C0033FFFB6864211800FFF7A0FFFB6838219C
:10558C00180000F096F896235A00FB6811001800DA
:10559C00FFF794FFFB683921180000F08AF8962376
:1055AC005A00FB6811001800FFF788FFFB681421F4
:1055BC00180000F07EF8FB6864211800FFF77EFFEE
:1055CC00FB687921180000F074F8FB68642118005E
:1055DC00FFF774FFFB685021180000F06AF8FB68B5
:1055EC0064211800FFF76AFFFB686C21180000F0BB
:1055FC0060F8FB6864211800FFF760FFFB680C2162
:10560C00180000F056F8FB6864211800FFF756FFED
:10561C00FB680121180000F04CF8FB6864211800AD
:10562C00FFF74CFFFB683821180000F042F8FB68CC
:10563C0064211800FFF742FFBD4604B080BDC04690
:10564C0080040020C00400200405002080B582B036
:10565C0000AF786008001100FB1C021C1A70BB1C08
:10566C000A1C1A707B689B681800FFF774FB7B6838
:10567C009A68FB1C1B78002B01D0002300E0402310
:10568C0019001000FEF7D6FA7B689A68BB1C1B78D1
:10569C0019001000FEF7CEFA7B68DA687B689B680D
:1056AC0019001000FFF71CFD03001800BD4602B0E6
:1056BC0080BD80B582B000AF78600A00FB1C1A7008
:1056CC00FB1C1A787B6801211800FFF7BFFF030051
:1056DC001800BD4602B080BD80B582B000AF7860C6
:1056EC0039607B689B681800FFF735FB7B689B680B
:1056FC0040211800FEF79EFA7B6858687B689A6810
:10570C003B681900FFF7E2FD03001A000123534028
:10571C00DBB2002B01D0002308E07B68DA687B68E1
:10572C009B6819001000FFF71BFE03001800BD4614
:10573C0002B080BD80B584B000AF78600F217B18BB
:10574C007A68127E1A707B181B78042B55D89A0035
:10575C00314BD3181B689F467B681800FFF72EFE51
:10576C0003001A0001235340DBB2002B49D07B68A5
:10577C0002211800FFF70FFE7B6802221A7647E021
:10578C007B681800FFF71AFE03001A000123534030
:10579C00DBB2002B37D07B6800211800FFF79CFF91
:1057AC007B6803221A7633E07B681800FFF706FE4D
:1057BC0003001A0001235340DBB2002B25D07B6879
:1057CC00012200211800FFF72BFE7B6804221A76B9
:1057DC001EE07B681800FFF7F1FD03001A0001239F
:1057EC005340DBB2002B12D07B6801211800FFF76D
:1057FC0073FF7B6800221A760AE07B6800221A7617
:10580C0006E0C04604E0C04602E0C04600E0C046E8
:10581C00BD4604B080BDC046945C000880B582B023
:10582C0000AF786039607B68012B15D13B68114A59
:10583C00934211D1104A114896230221FEF736FBF0
:10584C000F4B104802221021FFF70CFD0E490F4B95
:10585C0025221800FEF7CEF97B68002B07D13B6898
:10586C00044A934203D1074B1800FEF795FABD4644
:10587C0002B080BDFFFF0000A35400088404002088
:10588C0098040020C0040020DC0400200405002043
:10589C0080B500AF034B19000120FFF7BFFFBD46D9
:1058AC0080BDC046FFFF000080B500AF034B190060
:1058BC000020FFF7B3FFBD4680BDC046FFFF0000D0
:1058CC0010B500F001F810BD10B500F001F810BDD6
:1058DC0010B5034B0100186800F004F810BDC04669
:1058EC004800002070B50500002910D00C1F23685B
:1058FC00002B00DAE418280000F045F81D4A136864
:10590C00002B05D163601460280000F03DF870BDD9
:10591C00A34209D9216860188342F3D118685B68E7
:10592C0041182160EEE713005A68002A01D0A24208
:10593C00F9D919685818A0420BD1206809185818C1
:10594C0019608242E0D110685268411819605A609F
:10595C00DAE7A04202D90C232B60D5E72168601846
:10596C00824203D1106852684118216062605C6009
:10597C00CAE7C0461C0500200023C25C0133002A84
:10598C00FBD1581E70477047704700000022430837
:10599C008B4274D303098B425FD3030A8B4244D3EB
:1059AC00030B8B4228D3030C8B420DD3FF2209022D
:1059BC0012BA030C8B4202D31212090265D0030BEC
:1059CC008B4219D300E0090AC30B8B4201D3CB03E2
:1059DC00C01A5241830B8B4201D38B03C01A524124
:1059EC00430B8B4201D34B03C01A5241030B8B4226
:1059FC0001D30B03C01A5241C30A8B4201D3CB0211
:105A0C00C01A5241830A8B4201D38B02C01A5241F5
:105A1C00430A8B4201D34B02C01A5241030A8B42F8
:105A2C0001D30B02C01A5241CDD2C3098B4201D310
:105A3C00CB01C01A524183098B4201D38B01C01A8E
:105A4C00524143098B4201D34B01C01A5241030905
:105A5C008B4201D30B01C01A5241C3088B4201D3B4
:105A6C00CB00C01A524183088B4201D38B00C01A61
:105A7C00524143088B4201D34B00C01A5241411A88
:105A8C0000D20146524110467047FFE701B5002095
:105A9C0000F006F802BDC0460029F7D076E7704743
:105AAC007047C04603001218934200D1704719701A
:105ABC000133F9E75F5F6378615F707572655F76DC
:105ACC0069727475616C000061626F727428292CA4
