:020000040800F2
:100000000040002041020008490200085102000897
:1000100000000000000000000000000000000000E0
:10002000000000000000000000000000770200084F
:1000300000000000000000007F020008B94F000827
:10004000870200088702000887020008870200086C
:10005000870200088702000887020008870200085C
:10006000870200088702000887020008870200084C
:10007000870200088702000887020008870200083C
:10008000870200088702000887020008870200082C
:1000900087020008870200088702000859620008EA
:1000A0006D620008870200088702000887020008C6
:1000B00087020008870200088702000887020008FC
:1000C0005FF808F180B58EB000AF00F031F94A4B0F
:1000D0004A4A1A604A4B494A1A604A4B3B634A4BA8
:1000E000FB624A4BBB62FB6A7B6207E03A6B131D03
:1000F0003B637B6A191D796212681A60BA6A7B6A6F
:100100009A42F3D83C4B1B68414A934204D13C4B82
:100110001B68404A934200D0FEE73F4B374A1A60C3
:100120003E4B364A1A603E4B3B623E4BFB613B6A9C
:10013000BB6104E0BB691A1DBA6100221A60FA694A
:10014000BB699A42F6D8344B1B68002B03D1334B62
:100150001B68002B00D0FEE700F0F0F83A003B1DD2
:100160001100180000F0D4F82F4A304BD31A9B101E
:10017000FB600023BB6007E02C4BBA689200D358A9
:100180009847BB680133BB60FA68BB689A42F3DCEE
:10019000274A284BD31A9B10FB600023BB6007E063
:1001A000244BBA689200D3589847BB680133BB60B0
:1001B000FA68BB689A42F3DC7B683A681100180061
:1001C00004F08EFB03007B631B4A1C4BD31A9B106D
:1001D0007B617B693B6108E03B695A1E174B9200CB
:1001E000D35898473B69013B3B613B69002BF3DCEB
:1001F0007B6B180000F07CF800000020BABADECA61
:10020000B4000020D86E000800000020B8000020D4
:100210007856341232547698B80000203805002001
:10022000B80000203C050020BC020008BC02000809
:10023000D4020008BC020008DC020008D402000856
:1002400080B500AFFFF73EFF80B500AF00BEFEE710
:1002500004207146084202D0EFF3098001E0EFF379
:10026000088071460A4A104780B582B000AF7860B6
:10027000396000BEFEE780B500AF00BEFEE780B586
:1002800000AF00BEFEE780B500AF00BEFEE7000095
:0402900069020008F7
:10029400D86E000800000020B8000020D86E0008C6
:1002A4000000000000000000B80000203C05002011
:1002B4000000000000000000D90D00082D14000803
:1002C400C13600083D4C0008C562000809690008F1
:0802D400554C000821690008E7
:1002DC0080B582B000AF024B7B6000F009F8C046DD
:1002EC002C6B000880B582B000AF7860FEE7000090
:1002FC0080B582B000AF024B7B600120FFF7F2FFAC
:10030C00406B000880B582B000AF786039607B68C4
:10031C0001221A603B68024A1A60BD4602B080BDD9
:10032C000400002080B500AF00F008F8BD4680BD89
:10033C0080B500AF00F048F8BD4680BD80B500AF79
:10034C001B4B1A681A4B01210A431A60184B5A6846
:10035C00174B18490A405A60154B1A68144B16492A
:10036C000A401A60124B1A68114B14490A401A6061
:10037C000F4B5A680E4B12490A405A600C4BDA6A02
:10038C000B4B0F218A43DA62094B1A6B084B0D4950
:10039C000A401A63064B5A6B054B01218A435A6378
:1003AC00034B00229A6000F07DF8BD4680BDC0462C
:1003BC00001002400CB8FF08FFFFF6FEFFFFFBFF2A
:1003CC00FFFFC0FFACFEFFFF80B584B000AF002381
:1003DC00FB600023BB6000237B6000233B602D4B44
:1003EC005B680C221340FB60FB68042B07D0082BC6
:1003FC0009D0002B38D1284B284A1A6037E0264BFD
:10040C00264A1A6033E0234B5A68F0239B031340AF
:10041C00BB60204B5A68C0235B0213407B60BB68F7
:10042C009B0C0233BB607B68002B0CD1B9680A00B3
:10043C005201521A93019B1ADB005B181B021A0023
:10044C00154B1A6013E0134BDB6A0F221340013378
:10045C003B603968114806F0CFFA03001A00BB68FC
:10046C005A430D4B1A6002E00B4B0C4A1A60094BB5
:10047C005B681B090F221340094AD35CDBB2FB609B
:10048C00054B1A68FB68DA40034B1A60BD4604B092
:10049C0080BDC046001002400C00002000127A0003
:1004AC001000002080B582B000AF00237B600023D9
:1004BC003B60304B1A682F4B802149020A431A606B
:1004CC002C4B1A6880239B0213403B607B680133E2
:1004DC007B603B68002B04D17A68A023DB019A4235
:1004EC00EED1244B1A6880239B02134002D00123C7
:1004FC003B6001E000233B603B68012B36D11E4B77
:10050C0011221A601B4A1B4B52685A60194A194B2C
:10051C0052685A60174B5A68164B18490A405A6071
:10052C00144B5A68134B882149030A435A60114BE8
:10053C001A68104B802149040A431A600D4B1A6843
:10054C0080239B041340F9D00A4B5A68094B0321B2
:10055C008A435A60074B5A68064B02210A435A6079
:10056C00044B5B680C221340082BF9D1BD4602B03A
:10057C0080BDC0460010024000200240FF7FC0FF3B
:10058C0080B582B000AF78600A00FB1C1A707B68E3
:10059C001B8A9BB21A00FB1C1B781A411300012208
:1005AC0013405A1E9341DBB21800BD4602B080BD09
:1005BC0080B582B000AF78607B681A687B681B7965
:1005CC0019001000FFF7DCFF03001800BD4602B055
:1005DC0080BD80B582B000AF78607B68180000F0F9
:1005EC0038F803001A0001235340DBB2002B01D072
:1005FC0000232AE07B681B681800FFF7D9FF030073
:10060C001A0001235340DBB2002B01D001231CE064
:10061C007B689B681800FFF7CBFF03001A000123CF
:10062C005340DBB2002B01D002230EE07B685B68E9
:10063C001800FFF7BDFF03001A0001235340DBB283
:10064C00002B01D0032300E004231800BD4602B0A8
:10065C0080BD80B582B000AF78607B68DB68180025
:10066C00FFF7A6FF03001A0001235340DBB218006A
:10067C00BD4602B080BD80B582B000AF78607B68AB
:10068C00DB68B8331800FFF793FF03001800BD4672
:10069C0002B080BD80B582B000AF78607B68DB684B
:1006AC00B0331800FFF784FF03001800BD4602B0FA
:1006BC0080BD80B582B000AF78607B68DB68E833C2
:1006CC001800FFF775FF03001A0001235340DBB23B
:1006DC001800BD4602B080BD80B582B000AF786016
:1006EC007B68DB68F0331800FFF762FF03001A0029
:1006FC0001235340DBB21800BD4602B080BD80B56B
:10070C0082B000AF78607B681800FFF7D2FF031E41
:10071C0005D17B681800FFF7DFFF031E01D0012312
:10072C0000E000231800BD4602B080BDB0B584B017
:10073C0000AF7860344B1B681800FFF7E0FF031E16
:10074C0003D07B6800221A745AE00F257C197B6851
:10075C001800FFF73EFF030023707B191B78042B56
:10076C004ED89A00294BD3181B689F46264B1B6802
:10077C001800FFF780FF031E01D0032202E00F23B5
:10078C00FB181A787B681A743AE01F4B1B68180028
:10079C00FFF780FF031E01D0032202E00F23FB189A
:1007AC001A787B681A742BE07B680F22BA181278BF
:1007BC001A7425E07B681B7C012B04D0022B0DD016
:1007CC00002B16D01CE0104B1B681800FFF753FFD2
:1007DC00031E12D07B6803221A7411E00A4B1B68AB
:1007EC001800FFF757FF031E09D07B6803221A7409
:1007FC0006E07B6803221A7402E0C04600E0C046A3
:10080C00BD4604B0B0BDC04634000020546B000897
:10081C0080B582B000AF78600A00FB1C1A70FB1C1C
:10082C001B7801229A4013001A007B689A61BD461E
:10083C0002B080BD80B582B000AF78600A00FB1CAE
:10084C001A70FB1C1B78103301229A4013001A00FB
:10085C007B689A61BD4602B080BD80B582B000AFA6
:10086C00786008001100FB1C021C1A70BB1C0A1CCF
:10087C001A70BB1C1B78002B07D0FB1C1A787B68EA
:10088C0011001800FFF7C4FF06E0FB1C1A787B6808
:10089C0011001800FFF7CEFFBD4602B080BD80B539
:1008AC0082B000AF78607B681A687B681B7919008E
:1008BC001000FFF7ADFFBD4602B080BD80B582B021
:1008CC0000AF78607B681A687B681B791900100090
:1008DC00FFF7B0FFBD4602B080BD80B582B000AF5F
:1008EC0078600A00FB1C1A707B6818687B681979A1
:1008FC00FB1C1B781A00FFF7B0FFBD4602B080BD91
:10090C0080B582B000AF78600A00FB1C1A707B685F
:10091C00FA1C12781A73BD4602B080BD90B585B032
:10092C0000AF786039607B689A683B68D2187B6846
:10093C009A607B689B68404A934209D97B689B68A4
:10094C006421180006F0DEF80B001A007B689A6030
:10095C007B689B686421180006F04EF803001A00AF
:10096C000F23FB181A707B681B7B062B5ED89A0032
:10097C00324BD3181B689F467B681800FFF78FFF1C
:10098C0057E07B681800FFF799FF52E078680F2357
:10099C00FB181A780421002391425B41DBB2190049
:1009AC00FFF79BFF45E07A680F23FB181B785B1061
:1009BC00190001230B40591E8B41DBB219001000AA
:1009CC00FFF78BFF35E078680F23FB181B780122AB
:1009DC0013405A1E9341DBB21900FFF77EFF28E04B
:1009EC007A680F23FB181B7859424B41DBB2190074
:1009FC001000FFF772FF1CE07C680F23FB181B78BC
:100A0C00032213400AD00F23FB181B780321180074
:100A1C0006F078F80B00DBB2002B01D1012300E0CB
:100A2C00002319002000FFF758FF02E07B68032227
:100A3C001A73BD4605B090BDE7030000686B000853
:100A4C0080B582B000AF78600A00FB1C1A70FB1CEA
:100A5C001B78002B07D07B681A1DFB1C1B78190018
:100A6C00100004F01DF9BD4602B080BD80B584B005
:100A7C0000AF78600F23FB1800221A707B685B6A4A
:100A8C001800FFF795FD03001A0001235340DBB259
:100A9C00002B03D00F23FB1803221A707B689B6A70
:100AAC001800FFF785FD03001A0001235340DBB249
:100ABC00002B03D00F23FB1801221A707B68DB6913
:100ACC001800FFF775FD03001A0001235340DBB239
:100ADC00002B03D00F23FB1802221A707B681B6AB1
:100AEC001800FFF765FD03001A0001235340DBB229
:100AFC00002B03D00F23FB1804221A707B685B6A4F
:100B0C001800FFF755FD03001A0001235340DBB218
:100B1C00002B0DD07B681B6A1800FFF749FD030002
:100B2C001A0001235340DBB2002B01D0012300E05B
:100B3C000023002B03D00F23FB1806221A707B68AE
:100B4C009B6A1800FFF734FD03001A000123534081
:100B5C00DBB2002B0DD07B68DB691800FFF728FD9A
:100B6C0003001A0001235340DBB2002B01D00123F8
:100B7C0000E00023002B03D00F23FB1805221A7072
:100B8C000F23FB181B781800BD4604B080BD000075
:100B9C00B0B584B000AF78600F257C197B68180065
:100BAC0000F01EF8030023700C4B1B787A19127896
:100BBC009A4210D0094B0F217A1812781A707B18B0
:100BCC001B78002B07D00F23FB181A787B681100B9
:100BDC001800FFF735FFBD4604B0B0BDBD000020C6
:100BEC0080B582B000AF78607B681800FFF73EFFDD
:100BFC0003001800BD4602B080BD80B582B000AFC6
:100C0C0078607B6800221A607B6800225A607B68DF
:100C1C0000229A607B680022DA607B6800221A61ED
:100C2C007B6800229A617B680022DA617B68002273
:100C3C001A627B6800225A627B6800229A627B6887
:100C4C001800BD4602B080BD80B582B000AF7860A0
:100C5C000A00FB1C1A707B689A6AFB1C1B78190033
:100C6C001000FFF73AFEBD4602B080BD80B582B0E1
:100C7C0000AF78607B68180000F062F8031E16D095
:100C8C007B681B685A1D7B681A607B68DB690621D0
:100C9C001800FFF735FE7B681B6A06211800FFF76A
:100CAC002FFE7B685B6A06211800FFF729FE7B6824
:100CBC001B691800FFF794FF03005A1E9341DBB227
:100CCC00002B02D07B6800225A607B685B681B4A51
:100CDC0093420AD87B685B685A1D7B685A607B68B4
:100CEC0001211800FFF7B0FF04E07B680021180019
:100CFC00FFF7AAFF7B68DB6905211800FFF70EFEE2
:100D0C007B681B6A05211800FFF708FE7B685B6A8D
:100D1C0005211800FFF702FE7B681B691800FFF71E
:100D2C0037FF7B685B691800FFF700FD7B689B69E8
:100D3C00180001F023FBBD4602B080BDBFD40100FA
:100D4C0080B582B000AF78607B681A6804490023D4
:100D5C0091425B41DBB21800BD4602B080BDC0467B
:100D6C008713000080B500AF024B1800FFF77EFF21
:100D7C00BD4680BDC000002080B500AF014B1800FF
:100D8C00BD4680BDC000002080B582B000AF786049
:100D9C0039607B68012B0DD13B68084A934209D11D
:100DAC00074B1800FFF729FF064A074805230221C5
:100DBC0004F0B2F8BD4602B080BDC046FFFF000093
:100DCC00C0000020710D0008EC00002080B500AFC1
:100DDC00034B19000120FFF7D7FFBD4680BDC0466D
:100DEC00FFFF000090B583B000AF02003960FB1D1F
:100DFC001A70FB1D1B785BB2002B36DA314AFB1DD7
:100E0C001B785BB219000F230B40083B9B08063381
:100E1C009B00D31804331B68FA1D127852B21100D0
:100E2C0003220A40D200FF2191400A00D2431A400B
:100E3C0011003B689B01FF221A40FB1D1B785BB223
:100E4C00180003230340DB009A401E48FB1D1B784F
:100E5C005BB21C000F232340083B9B080A4306335C
:100E6C009B00C31804331A6029E0174AFB1D1B783A
:100E7C005BB29B08C0339B009B58FA1D127852B290
:100E8C00110003220A40D200FF2191400A00D243F4
:100E9C001A4011003B689B01FF221A40FB1D1B7876
:100EAC005BB2180003230340DB009A400648FB1D8D
:100EBC001B785BB29B080A43C0339B001A50BD469B
:100ECC0003B090BD00ED00E000E100E080B582B021
:100EDC0000AF78607B68013B0C4A934201D9012337
:100EEC0010E00B4B7A68013A5A6001235B420321F4
:100EFC001800FFF777FF064B00229A60044B07227D
:100F0C001A6000231800BD4602B080BDFFFFFF0031
:100F1C0010E000E080B582B000AF786008001100EE
:100F2C00FB1C021C1A70BB1C0A1C1A707B681B6809
:100F3C00FA1C12785200032191400A00D2431A4045
:100F4C007B681A607B681A68BB1C1978FB1C1B78C1
:100F5C005B0099400B001A437B681A60BD4602B0D7
:100F6C0080BD80B582B000AF786008001100FB1C1A
:100F7C00021C1A70BB1C0A1C1A707B689B68FA1C3A
:100F8C0012785200032191400A00D2431A407B6828
:100F9C009A607B689A68BB1C1B781900FB1C1B7839
:100FAC005B0099400B001A437B689A60BD4602B007
:100FBC0080BD80B582B000AF786008001100FB1CCA
:100FCC00021C1A70BB1C0A1C1A707B68DB68FA1CAA
:100FDC0012785200032191400A00D2431A407B68D8
:100FEC00DA607B68DA68BB1C1978FB1C1B785B0029
:100FFC0099400B001A437B68DA60BD4602B080BD95
:10100C0080B582B000AF786008001100FB1C021C98
:10101C001A70BB1C0A1C1A707B689B889BB2FA1C4A
:10102C001278110001228A4092B2D24392B213403C
:10103C009AB27B689A807B689B889AB2BB1C1B789F
:10104C00F91C09788B409BB213439AB27B689A8047
:10105C00BD4602B080BD80B582B000AF78600A009A
:10106C00FB1C1A707B6818687B681979FB1C1B7851
:10107C001A00FFF74FFFBD4602B080BD80B582B0AD
:10108C0000AF78600A00FB1C1A707B6818687B68DC
:10109C001979FB1C1B781A00FFF763FFBD4602B0E1
:1010AC0080BD80B582B000AF78600A00FB1C1A705E
:1010BC007B6818687B681979FB1C1B781A00FFF792
:1010CC0078FFBD4602B080BD80B582B000AF7860BD
:1010DC000A00FB1C1A707B6818687B681979FB1C6A
:1010EC001B781A00FFF78CFFBD4602B080BD80B59F
:1010FC0084B000AFF860B960FB1D1A70FB68BA6869
:10110C001A60FB68FA1D12781A71FB68032118002B
:10111C00FFF7A1FFFB6800211800FFF7C2FFFB6877
:10112C0000211800FFF7AAFFFB6801211800FFF748
:10113C00CBFFFB681800BD4604B080BD80B582B003
:10114C0000AF0200FB1D1A70FB1D1B78042B0CD882
:10115C009A00074BD3181B689F46FEE7054B0122EC
:10116C001A7002E0034B01221A70BD4602B080BD1A
:10117C00846B00081001002080B500AF024B1B6887
:10118C001800BD4680BDC046F003002080B584B079
:10119C0000AF7860FFF7F0FF0300FB60FFF7ECFF98
:1011AC000200FB68D21A7B689A429B415B42DBB21D
:1011BC00002BF3D1BD4604B080BD000080B584B0D7
:1011CC0000AF78607B68084A9A429B415B42DBB275
:1011DC00FB60064BFA681A60044BFA6810210A434C
:1011EC001A60BD4604B080BD00366E01002002407E
:1011FC0080B582B000AF786039603A4B1A68394BD1
:10120C0001210A431A60374B1B68022213405A42D1
:10121C005341DBB2002BF6D1324B5A68314B0321D0
:10122C008A435A602F4B5B680C2213405A1E934121
:10123C00DBB2002BF6D12B4B1A682A4B80214902CA
:10124C000A431A60274B1A6880239B0213405A42A8
:10125C005341DBB2002BF5D13B681800FFF7AEFF12
:10126C00204B214A5A601F4B0022DA621D4B1A6830
:10127C001C4B802149040A431A601A4B1A688023BC
:10128C009B0413405A425341DBB2002BF5D1154B52
:10129C005A68144B02210A435A60124B5B680C22A9
:1012AC001340083B5A1E9341DBB2002BF5D10D4B7A
:1012BC005A680C4B02210A435A600A4B5B680C2299
:1012CC001340083B5A1E9341DBB2002BF5D1054B62
:1012DC005A68044B01210A405A6001231800BD468C
:1012EC0002B080BD001002400000118080B582B0B9
:1012FC0000AF00237B60154B5A69144BFC21C903CA
:10130C000A435A61114B5B697B607B680F4BDA694E
:10131C000E4B802189030A43DA610C4BDA69802376
:10132C009B0313407B607B68084B9A69074B8021B9
:10133C0089000A439A61054B9A6980239B001340EC
:10134C007B607B68BD4602B080BDC0460010024089
:10135C0080B500AF114A124B11001800FFF748FF7F
:10136C00FFF732F8FFF7C2FF0E4B1A68FA23990009
:10137C00100005F041FB03001800FFF7A7FD030068
:10138C005A1E9341DBB2002B02D00220FFF7D6FE8F
:10139C0000F012F800F008F8BD4680BD0048E801E6
:1013AC0000127A000C00002080B500AFBD4680BD55
:1013BC0080B500AFBD4680BD80B500AFBD4680BDD9
:1013CC0080B582B000AF78607B681800FFF7DEFE56
:1013DC00BD4602B080BD000080B582B000AF786021
:1013EC0039607B68012B0FD13B68094A93420BD1C2
:1013FC000849094B00221800FFF779FE0549074BF5
:10140C0001221800FFF773FEBD4602B080BDC04636
:10141C00FFFF000000080048000100200801002028
:10142C0080B500AF034B19000120FFF7D5FFBD4677
:10143C0080BDC046FFFF0000B0B584B000AF020015
:10144C00FB1D1A703B1D0A1C1A80FB1D1B780A2BF6
:10145C0001D9002316E004F0BDFAFB1D1B789AB2EB
:10146C000E257C193B1D1B881900100003F0F4FF9E
:10147C000300238004F0C4FA7B191B88043B5A42F6
:10148C005341DBB21800BD4604B0B0BDB0B584B05A
:10149C0000AF02003960FB1D1A70FB1D1B780A2B74
:1014AC0001D9002324E0FB1D1B789BB20E257C196F
:1014BC003A681100180003F06BFF030023807B19BE
:1014CC001B88002B01D1012312E00E23FB181B8873
:1014DC00012B0CD13B6800221A803B681A88FB1D3B
:1014EC001B7811001800FFF7A7FF030000E0002392
:1014FC001800BD4604B0B0BD80B584B000AF02008A
:10150C00FB1D1A700E23FA18FB1D1B781100180016
:10151C00FFF7BCFF031E03D00E23FB181B8801E052
:10152C0001235B421800BD4604B080BD80B582B07B
:10153C0000AF78600A00FB1C1A707B689B8A9BB218
:10154C001A00FB1C1B781A411300012213405A1E6F
:10155C009341DBB21800BD4602B080BD80B582B0AD
:10156C0000AF78607B681A687B681B7919001000E3
:10157C00FFF7DCFF03001800BD4602B080BD80B54C
:10158C0082B000AF78607B685A687B689B68D31A1E
:10159C005A425341DBB21800BD4602B080BD80B543
:1015AC0082B000AF78607B681800FFF7E8FF03009B
:1015BC001A0001235340DBB21800BD4602B080BDB7
:1015CC0080B584B000AF78607B6804331800FFF7F7
:1015DC00E6FF031E11D07B680433180003F097FB61
:1015EC0003001A000F217B181A707B181B78002B34
:1015FC00EAD00F23FB181B7800E000231800BD462F
:10160C0004B080BD80B582B000AF78607B681800F4
:10161C00FFF7D6FF03001800BD4602B080BD80B5B1
:10162C0082B000AF78607B6801225A76BD4602B06A
:10163C0080BD80B584B000AF78607B685B68FB6070
:10164C007B685A687B681B691900100005F05AFA10
:10165C000B001A007B685A607B685B68FA689A42D8
:10166C0003D07B681800FFF7DAFFBD4604B080BDDD
:10167C0080B582B000AF78607B68DB681800BD462F
:10168C0002B080BD80B582B000AF78607B689B688B
:10169C001800BD4602B080BD80B582B000AF786046
:1016AC007B681800FFF7BBFF7B685B685A1C7B6884
:1016BC005A607B6859687B681A69002391425B41C8
:1016CC00DBB2002B02D07B6800225A60BD4602B010
:1016DC0080BD80B586B000AFF860B9607A60FB68F9
:1016EC00DB687A689A4201D300231BE0FB689B6895
:1016FC00BA689A4201D3002314E0FB685B687B61F3
:10170C00FB689B687A685A43BB68D218FB685A60BE
:10171C00FB685B687A699A4203D0FB681800FFF794
:10172C007EFF01231800BD4606B080BD80B582B097
:10173C0000AF78600A00FB1C1A707B681800FFF77A
:10174C0078FF7B685A697B685B68D318FA1C12783F
:10175C001A707B681800FFF79FFF7B681800FFF773
:10176C005EFFBD4602B080BD80B582B000AF786030
:10177C0039603B681B785BB2002B0AD03B685A1C63
:10178C003A6000229A567B6811001800FFF7CEFFD2
:10179C00EFE7BD4602B080BD80B584B000AFF86005
:1017AC00B9607A603B607A68B968FB681800FFF72B
:1017BC0090FF3A68FB6811001800FFF7D5FFBD4693
:1017CC0004B080BD90B585B000AF78600A00BB1C3A
:1017DC001A80BB1C1C887B681800FFF749FF0200AD
:1017EC00002394425B41DBB2002B26D1BB1C1C882E
:1017FC007B681800FFF746FF03006343BB600023C0
:10180C00FB607B681800FFF73DFF0100FA680023BE
:10181C0091425B41DBB2002B0BD07B685A69F968B3
:10182C00BB68CB18D31820221A70FB680133FB60FD
:10183C00E7E77B681800FFF7F2FEBD4605B090BDE8
:10184C0080B582B000AF78600A00FB1C1A707B6810
:10185C00FA1C12781A76BD4602B080BDF0B59FB066
:10186C0000AFF860B9607A60BB68180005F0BAF890
:10187C000200632393429B415B42DBB2002B01D0FD
:10188C00002312E077257C191026BA197968BB68F9
:10189C00180004F088F803002370BA19FB681100D3
:1018AC001800FFF761FF7B191B781800BD461FB0AD
:1018BC00F0BD80B586B000AFF860B9607A601A00F0
:1018CC00FB1C1A7000237B61BB681B785BB2002B7E
:1018DC0022D013217B18BA6812781A707A18FB1C64
:1018EC00127852B21B785BB29A4208D17B695A1CAF
:1018FC007A617A68D2181323FB1812781A701323A2
:10190C00FB1800229A56FB6811001800FFF70EFF17
:10191C00BB680133BB60D7E701231800BD4606B096
:10192C0080BD80B582B000AF78600A00FB1C1A70D5
:10193C007B68FA1C12781A757B681B7D012B0FD003
:10194C0002DC002B05D020E0032B10D0042B15D08B
:10195C001BE07B680122DA747B6800229A741AE01F
:10196C007B6801229A747B680022DA7413E07B682E
:10197C0000229A747B680022DA740CE07B680122E6
:10198C009A747B680122DA7405E07B6802229A74EF
:10199C007B680222DA74BD4602B080BD80B582B08D
:1019AC0000AF78600A00FB1C1A707B68FA1C127876
:1019BC005A74BD4602B080BD80B582B000AF78606D
:1019CC000A00FB1C1A707B68FA1C12785A717B682F
:1019DC005B79002B04D07B680221180000F006F81C
:1019EC007B685B791800BD4602B080BD80B582B0C3
:1019FC0000AF78600A00FB1C1A707B68FA1C127826
:101A0C009A717B689B79022B05D17B681B6802213C
:101A1C001800FFF786FFBD4602B080BD80B582B0CE
:101A2C0000AF786008001100FB1C021C1A70BB1C74
:101A3C000A1C1A70FB1C1A787B6811001800FFF73F
:101A4C00D5FFBB1C1A787B681100180000F003F856
:101A5C00BD4602B080BD80B584B000AF78600A008E
:101A6C00FB1C1A707B68FA1C12781A710F23FB1876
:101A7C007A6892791A707B685B79002B03D00F23FC
:101A8C00FB1802221A700F23FB181B78012B15D0A0
:101A9C00022B25D0002B24D17B681B79002B06D080
:101AAC007B681B6800211800FFF73BFF19E07B687F
:101ABC001B6804211800FFF734FF12E07B681B79C8
:101ACC00002B06D07B681B6804211800FFF729FF48
:101ADC0007E07B681B6800211800FFF722FF00E07D
:101AEC00C046BD4604B080BD80B584B000AF786000
:101AFC007B68180000F036F9031E03D07B685B6826
:101B0C00FB6002E07B681B68FB60FB681800BD464D
:101B1C0004B080BD80B582B000AF78607B685B7C20
:101B2C00032B03D17B680122DA7402E07B6800226C
:101B3C00DA74BD4602B080BD80B582B000AF78606B
:101B4C007B681800FEF797FD031E07D07B68180012
:101B5C00FEF7A0FD031E01D0012300E00023002BA3
:101B6C0003D07B6803225A7416E07B681800FEF7DA
:101B7C0082FD031E03D07B6801225A740CE07B6843
:101B8C001800FEF787FD031E03D07B6802225A74EF
:101B9C0002E07B6800225A747B681800FFF7BAFFDA
:101BAC007B685B7C1800BD4602B080BD80B582B0FE
:101BBC0000AF78607B681800FFF7BEFF7B689B7CEA
:101BCC00012B02D0022B28D04FE07B68180000F0CC
:101BDC000EF9031E10D07B689B6800211800FFF7DC
:101BEC003AFF7B681800FFF77FFF020013681B6841
:101BFC000021100098474BE07B681800FFF774FF3A
:101C0C00020013681B680421100098477B689B68CE
:101C1C0001211800FFF71FFF3AE07B68180000F065
:101C2C0012F9031E10D07B689B6800211800FFF787
:101C3C0012FF7B681800FFF757FF020013681B6840
:101C4C0001211000984723E07B681800FFF74CFF38
:101C5C00020013681B680421100098477B689B687E
:101C6C0001211800FFF7F7FE12E07B6800229A743E
:101C7C007B681800FFF738FF020013681B6804210B
:101C8C00100098477B689B6801211800FFF7E3FE62
:101C9C00BD4602B080BD000080B582B000AF786058
:101CAC007B681B7C052B4AD89A002D4BD3181B68DC
:101CBC009F467B681B6800211800FFF76FFE7B684E
:101CCC009B68002200211800FFF7A8FE44E07B6807
:101CDC001B6800211800FFF761FE7B689B680022DF
:101CEC0002211800FFF79AFE36E07B681B68002182
:101CFC001800FFF753FE7B689B6800220121180037
:101D0C00FFF78CFE28E07B689B68002202211800FC
:101D1C00FFF784FE7B681B6801211800FFF73EFE6D
:101D2C001AE07B689B68002202211800FFF776FE00
:101D3C007B681B6800211800FFF730FE0CE07B6805
:101D4C001B6800211800FFF729FE7B689B680022A6
:101D5C0002211800FFF762FEBD4602B080BDC046EE
:101D6C00986B000880B582B000AF78607B68180073
:101D7C0000F00BF80300013B012B01D8012300E01C
:101D8C0000231800BD4602B080BD80B582B000AF04
:101D9C0078607B681B7C1800BD4602B080BD80B5A6
:101DAC0082B000AF78607B68DB68C8331800FEF740
:101DBC00FFFB03001800BD4602B080BD80B582B0A9
:101DCC0000AF78607B68DB68C0331800FEF7F0FB6F
:101DDC0003001800BD4602B080BD80B582B000AFD4
:101DEC0078607B68DB7C1800BD4602B080BD80B596
:101DFC0082B000AF78607B681800FEF73CFC0300F3
:101E0C001A0001235340DBB2002B17D07B6818005B
:101E1C00FFF7C5FF03001A0001235340DBB2002B70
:101E2C000CD07B681800FEF76AFC03001A00012333
:101E3C005340DBB2002B01D0012300E0002318003B
:101E4C00BD4602B080BD80B582B000AF78607B68C3
:101E5C001800FEF71FFC03001A0001235340DBB2ED
:101E6C00002B0CD07B681800FFF7A8FF03001A00AA
:101E7C0001235340DBB2002B01D0012300E00023EF
:101E8C001800BD4602B080BD80B582B000AF78604E
:101E9C007B6800229A747B681800FFF787FE7B68CA
:101EAC005B7C1800BD4602B080BD80B582B000AF2F
:101EBC0078600A00FB1C1A707B681800FFF7E4FFBF
:101ECC007B68FA1C12781A747B681B7C9BB2190015
:101EDC000320FFF7B1FA7B681800FFF7DDFEBD4663
:101EEC0002B080BD80B584B000AF0200FB1D1A703B
:101EFC000F217B18FA1D12781A707B187A18127839
:101F0C00013A1A707B181B785A425341DBB2002BF2
:101F1C0003D00F23FB1805221A700F23FB181B7814
:101F2C001800BD4604B080BD80B584B000AF02007F
:101F3C00FB1D1A700F217B18FA1D12781A707B1872
:101F4C007A18127801321A707B181B7805229A4283
:101F5C009B415B42DBB2002B03D00F23FB18012209
:101F6C001A700F23FB181B781800BD4604B080BDF7
:101F7C0080B582B000AF78607B681B7C180000F0E5
:101F8C0005F803001800BD4602B080BD80B582B0D4
:101F9C0000AF0200FB1D1A70FB1D1B78052B0ED821
:101FAC009A00094BD3181B689F46084B08E0084B56
:101FBC0006E0084B04E0084B02E0084B00E0084B3D
:101FCC001800BD4602B080BDFC6B0008B06B000869
:101FDC00BC6B0008C86B0008D46B0008E06B0008F1
:101FEC00EC6B000880B582B000AF78600A00FB1C77
:101FFC001A707B6818687B681B681B6808331B6841
:10200C00FA1C1278110098477B6858687B685B68EB
:10201C001B6808331B68FA1C1278110098477B6800
:10202C009A68FB1C1B7819001000FFF7C5FCFB1C01
:10203C001B78002B06D07B681A7C7B68110018007B
:10204C00FFF733FF01231800BD4602B080BD80B5F9
:10205C0084B000AF78600A00FB1C1A707B681B7997
:10206C001A007B681B889A422BDA7B681B790F203D
:10207C003A18191C0B1CDB185B1813707B685B88F7
:10208C003A181278072191400A0092B2D24392B2C8
:10209C0013409AB27B685A807B685A88FB1C1B7869
:1020AC00072119403B181B7899400B009BB2134336
:1020BC009AB27B685A807B681B790133DAB27B68F1
:1020CC001A71BD4604B080BD80B584B000AF786095
:1020DC000A00FB1C1A70FB1C1B787A68128893424E
:1020EC0001DB2D232AE00F203918FB1C1B781A1C4E
:1020FC009218D3180B707B685B881A003B181B78FE
:10210C001A411300DAB20E203B1807210A401A704C
:10211C003B181B78022B0AD002DC012B05D00CE0FB
:10212C00032B08D0042B04D007E0452306E0422300
:10213C0004E03C2302E03E2300E02D231800BD46C2
:10214C0004B080BD80B582B000AF78607B681B792D
:10215C001A007B681B88D017D90F9A42484103009C
:10216C00DBB21800BD4602B080BD80B584B000AFB4
:10217C0078607B681800FFF7E5FF03001A00012365
:10218C005340DBB2002B01D000230CE00420FFF7FE
:10219C00B3F90300FB607B685A88FB689BB2D31AC7
:1021AC005A425341DBB21800BD4604B080BD80B525
:1021BC0082B000AF0200BB1D1A80BB1D1B8819002A
:1021CC000420FFF739F9BD4602B080BD80B582B05E
:1021DC0000AF78607B6800225A807B6800221A71FD
:1021EC00BD4602B080BD80B582B000AF78607B6820
:1021FC005B881800FFF7DBFFBD4602B080BD80B5E1
:10220C0082B000AF78607B681800FFF79BFF031E5D
:10221C0009D07B681800FFF7A8FF031E01D002232A
:10222C0002E0012300E000231800BD4602B080BD8F
:10223C0080B582B000AF78600A00FB1C1A70FB1CE2
:10224C001B78002B06D0FB1C1A787B681100180039
:10225C00FFF7FDFE7B681800FFF7D1FF03001800A5
:10226C00BD4602B080BDB0B584B000AF78603960B7
:10227C000F23FB1800221A700F23FB181B787A68A7
:10228C001288934213DA0F257B191B783A68D418FD
:10229C007B191A787B6811001800FFF715FF0300F3
:1022AC0023707B191A787B1901321A70E4E7BD464A
:1022BC0004B0B0BD80B500AF02231800BD4680BD90
:1022CC0080B500AF01231800BD4680BD80B582B03B
:1022DC0000AF78600A00FB1C1A707B68FA1C12783D
:1022EC001A777B681B7F002B05D10D4B1B680021D7
:1022FC001800FFF777FE7B681B7F062B05D1084B78
:10230C001B6801211800FFF76DFE7B68202200215D
:10231C0099547B68180000F0C5FABD4602B080BD28
:10232C003400002080B582B000AF78607B689B6A77
:10233C001800FFF713F903001800BD4602B080BD6A
:10234C0080B582B000AF78607B681B68F8331800EA
:10235C00FEF72EF903001A0001235340DBB21800DC
:10236C00BD4602B080BD80B582B000AF78607B689E
:10237C001B791800BD4602B080BD0000B0B584B01A
:10238C0000AF78607B685B680F257C191800FFF73D
:10239C0039F9030023707B191B78002B12D1FEF73F
:1023AC00EBFC03001800FFF7BDFF03001A0001232C
:1023BC005340DBB2002B05D07B681B7F012B01D077
:1023CC00012300E00023002B04D07B6801211800BE
:1023DC00FFF77CFF7B681B7F0E2B00D93DE29A0038
:1023EC00BF4BD3181B689F460F23FB181B78002B81
:1023FC0004D07B6801211800FFF768FFFEF7BCFCD6
:10240C0003001800FEF79CFC03001A000123534044
:10241C00DBB2002B00D119E27B6801211800FFF719
:10242C0055FF1AE20F23FB181B78032B0FD0042B3C
:10243C0013D0012B00D010E27B680C331800FFF78F
:10244C00C5FE7B6805211800FFF740FF05E27B689D
:10245C0002211800FFF73AFFFFE17B680421180006
:10246C00FFF734FFF9E10F23FB181B78032B04D083
:10247C00042B08D0022B0CD0EFE17B680321180051
:10248C00FFF724FFE9E17B6801211800FFF71EFF2D
:10249C00E3E17B6801211800FFF718FFDDE10F2352
:1024AC00FB181B78032B04D0042B08D0022B0CD068
:1024BC00D3E17B6804211800FFF708FFCDE17B68AE
:1024CC0002211800FFF702FFC7E17B680121180009
:1024DC00FFF7FCFEC1E10F23FB181B78032B04D084
:1024EC00042B08D0022B0CD0B7E17B68012118001B
:1024FC00FFF7ECFEB1E17B6803211800FFF7E6FE65
:10250C00ABE17B6801211800FFF7E0FEA5E10F238A
:10251C00FB181B78002B00D19FE17B680C331A0051
:10252C000C257C190F23FB181B7819001000FFF7E2
:10253C007FFE030023707B191B78012B08D0022B24
:10254C0000D08AE17B6806211800FFF7BFFE84E10A
:10255C007B6801211800FFF7B9FE7EE10F23FB1801
:10256C001B78022B17D002DC012B05D075E1032B55
:10257C001DD0042B15D070E15A4B1B681800FFF7C7
:10258C0004FC03001A007B685A617B680721180061
:10259C00FFF79CFE61E17B6801211800FFF796FEB6
:1025AC005BE17B680D211800FFF790FE55E17B681D
:1025BC0008211800FFF78AFE4FE10F23FB181B7848
:1025CC00022B1BD002DC012B05D046E1032B26D0BD
:1025DC00042B19D041E17B685A690D217B181A70C4
:1025EC00404B1A687B181B7819001000FFF75DFC34
:1025FC007B6801211800FFF769FE2EE17B68012141
:10260C001800FFF763FE28E17B685B69DBB21800FA
:10261C00FFF768FC03001A007B685A611DE17B68B8
:10262C005B69DBB21800FFF77FFC03001A007B68C4
:10263C005A6112E10F23FB181B78022B12D002DC1B
:10264C00012B05D009E1032B18D0042B10D004E189
:10265C0000210220FEF7F0FE7B6801211800FFF735
:10266C0035FEFAE07B6801211800FFF72FFEF4E03D
:10267C007B6806211800FFF729FEEEE07B68092134
:10268C001800FFF723FEE8E00F23FB181B78022B42
:10269C000ED002DC012B05D0DFE0032B14D0042B71
:1026AC000CD0DAE07B680A211800FFF70FFED4E0AB
:1026BC007B6801211800FFF709FECEE07B6808213A
:1026CC001800FFF703FEC8E07B680B211800FFF72A
:1026DC00FDFDC2E07B6801211800FFF7F7FDBCE0AF
:1026EC00146C0008340000200F23FB181B78022BFD
:1026FC0013D002DC012B05D0AFE0032B19D0042B37
:10270C0011D0AAE07B680C331800FFF75FFD7B68E3
:10271C000C211800FFF7DAFD9FE07B6801211800FF
:10272C00FFF7D4FD99E07B6809211800FFF7CEFD77
:10273C0093E07B680D211800FFF7C8FD8DE07B68E6
:10274C000C331A000E257C190F23FB181B7819006B
:10275C001000FFF76DFD030023707B191B78013B04
:10276C00012B00D974E07B680C331800FFF73BFD9C
:10277C007B6801211800FFF7A9FD69E00F23FB1806
:10278C001B78022B1BD002DC012B05D065E0032B40
:10279C0021D0042B19D060E00720FEF7ADFE02001B
:1027AC007B685A617B685B69782B02D97B68012254
:1027BC005A617B680E211800FFF788FD4DE07B689D
:1027CC0001211800FFF782FD47E07B680B21180000
:1027DC00FFF77CFD41E07B6806211800FFF776FDD2
:1027EC003BE00F23FB181B78022B15D002DC012BCE
:1027FC0005D032E0032B1FD0042B13D02DE07B68C7
:10280C005B699BB219000720FEF716FE7B6801215D
:10281C001800FFF75BFD20E07B6801211800FFF733
:10282C0055FD1AE07B685B69002B13D07B685B69F4
:10283C005A1E7B685A6110E07B685B69772B0BD85A
:10284C007B685B695A1C7B685A6106E0C04604E0F1
:10285C00C04602E0C04600E0C0467B68180000F0AD
:10286C0021F8BD4604B0B0BD90B583B000AF0C4BA1
:10287C001B68FC1D1800FFF776FD03002370FB1D81
:10288C001B78012B02D0022B02D003E04F2302E075
:10289C005A2300E02D231800BD4603B090BDC0465E
:1028AC004800002090B587B000AF78607B681B7F34
:1028BC000E2B01D900F0B0FB9A00D24BD3181B6839
:1028CC009F467B689868D04B00220021FEF764FF7E
:1028DC007B689B68012200211800FEF7FAFE7B68DA
:1028EC009C68FFF7E7FC03001A00C84B1900200096
:1028FC00FEF7B4FF7B689C68FFF7E2FC03001A004C
:10290C00C34B19002000FEF7A9FF85E37B689B6889
:10291C00002200211800FEF7DCFE7B689C68022078
:10292C00FEF7EAFD0200BB4B19002000FEF796FFF4
:10293C007B689B6801211800FEF744FF7B68986850
:10294C00B54B01220021FEF727FF7B689C68B34B37
:10295C001B681800FFF70CFB030019002000FEF7A2
:10296C0003FF7B689B68AE4A11001800FEF7FCFE63
:10297C007B689B6801220B211800FEF7AAFE7B687E
:10298C009C68FFF771FF030019002000FEF7CEFED4
:10299C007B689C68A14B1B681800FDF78AFE031E20
:1029AC0001D0502300E02D2319002000FEF7BEFEBD
:1029BC007B689C68994B1B681800FDF78DFE031E05
:1029CC0001D0532300E02D2319002000FEF7AEFEAA
:1029DC007B689C68914B1B681800FFF7FEF9031E7F
:1029EC0001D0412300E02D2319002000FEF79EFEAC
:1029FC007B689C688B4B1B681800FFF7A1FC031EBF
:102A0C0001D0562300E02D2319002000FEF78EFE86
:102A1C0002E37B689868844B00220021FEF7BCFE21
:102A2C007B689B68012200211800FEF752FE7B6830
:102A3C009B687E4A11001800FEF796FE7B689C6826
:102A4C007B4B1B68B0331800FDF7B2FD031E01D0A1
:102A5C002D2300E02A2319002000FEF767FE7B6877
:102A6C009C68734B1B68B8331800FDF7A1FD031E5F
:102A7C0001D02D2300E02A2319002000FEF756FE7A
:102A8C007B689C686A4B1B68C0331800FDF790FD8F
:102A9C00031E01D02D2300E02A2319002000FEF78D
:102AAC0045FE7B689C68624B1B68C8331800FDF7B9
:102ABC007FFD031E01D02D2300E02A2319002000E6
:102ACC00FEF734FE7B689B68584A11001800FEF72D
:102ADC004BFE7B689C68564B1B68D0331800FDF787
:102AEC0067FD031E01D02D2300E02A2319002000CE
:102AFC00FEF71CFE7B689C684D4B1B68D833180096
:102B0C00FDF756FD031E01D02D2300E02A231900EA
:102B1C002000FEF70BFE7B689C68454B1B68E0337E
:102B2C001800FDF745FD031E01D02D2300E02A23DC
:102B3C0019002000FEF7FAFD7B689C683C4B1B6873
:102B4C00E8331800FDF734FD031E01D02D2300E0FF
:102B5C002A2319002000FEF7E9FD7B689B68334AA5
:102B6C0011001800FEF700FE7B689C68304B1B6858
:102B7C00F0331800FDF71CFD031E01D02D2300E0DF
:102B8C002A2319002000FEF7D1FD7B689C68284B96
:102B9C001B68F8331800FDF70BFD031E01D02D2325
:102BAC0000E02A2319002000FEF7C0FD7B689C681A
:102BBC001F4B1B680133FF331800FDF7F9FC031E94
:102BCC0001D02D2300E02A2319002000FEF7AEFDD2
:102BDC007B689C68164B1B680933FF331800FDF7A4
:102BEC00E7FC031E01D02D2300E02A23190020004E
:102BFC00FEF79CFD7B689B680C4A11001800FEF7E1
:102C0C00B3FD09E2FC6D0008506C0008646C000810
:102C1C00806C0008746C0008886C0008340000207C
:102C2C008C6C000848000020906C0008A46C000814
:102C3C00200000207B689868D34B00220021FEF70F
:102C4C00ABFD7B689B68012200211800FEF741FD5B
:102C5C007B689B68CD4A11001800FEF785FD7B68E8
:102C6C009C68CB4B1B6808331800FEF777FC031EDF
:102C7C0001D02D2300E02A2319002000FEF756FD79
:102C8C007B689C68C24B1B6810331800FEF766FC0F
:102C9C00031E01D02D2300E02A2319002000FEF78B
:102CAC0045FD7B689C68BA4B1B681800FEF756FC08
:102CBC00031E01D02D2300E02A2319002000FEF76B
:102CCC0035FD7B689C68B24B1B6818331800FEF707
:102CDC0045FC031E01D02D2300E02A2319002000FF
:102CEC00FEF724FD7B689B68AA4A11001800FEF7CA
:102CFC003BFD7B689C68A64B1B6820331800FEF7D5
:102D0C002DFC031E01D02D2300E02A2319002000E6
:102D1C00FEF70CFD7B689B689F4A11001800FEF7BC
:102D2C0023FD79E17B6898689C4B00220021FEF71B
:102D3C0033FD7B689B68012200211800FEF7C9FC5B
:102D4C007B689B68964A11001800FEF70DFD7B68A6
:102D5C009C688F4B1B689133FF331800FDF728FCE0
:102D6C00031E01D02D2300E02A2319002000FEF7BA
:102D7C00DDFC7B689B688B4A11001800FEF7F4FCA5
:102D8C007B689C68824B1B68A933FF331800FDF7E6
:102D9C000FFC031E01D02D2300E02A231900200074
:102DAC00FEF7C4FC7B689B687F4A11001800FEF795
:102DBC00DBFC7B689C68764B1B68A133FF331800E7
:102DCC00FDF7F6FB031E01D02D2300E02A2319008A
:102DDC002000FEF7ABFC7B689B68744A110018005E
:102DEC00FEF7C2FC7B689C68694B1B689933FF3308
:102DFC001800FDF7DDFB031E01D02D2300E02A2374
:102E0C0019002000FEF792FC06E17B689868684B7D
:102E1C0000220021FEF7C0FC7B680C3308243A1911
:102E2C0011001800FFF71FFA7B689B680122002134
:102E3C001800FEF74EFC7B6898683A195D492D2303
:102E4C00FEF737FDE8E07B6898685B4B00220021B9
:102E5C00FEF7A2FC7B689868584B01220021FEF714
:102E6C009BFCD9E07B689868554B00220021FEF74B
:102E7C0093FC7B689B6801211800FEF7A3FC7B6820
:102E8C009868504B01220021FEF786FC7B689C68F9
:102E9C007B685B69DBB21800FFF778F80300190058
:102EAC002000FEF761FC7B689B68474A1100180004
:102EBC00FEF75AFCB0E07B689868444B0022002176
:102ECC00FEF76AFC7B689B68012200211800FEF764
:102EDC0000FC7B689B683E4A11001800FEF744FC1E
:102EEC009AE07B6898683B4B00220021FEF754FC6B
:102EFC007B689B68012200211800FEF7EAFB7B68C7
:102F0C009B68354A11001800FEF72EFC84E07B68A4
:102F1C009868324B00220021FEF73EFC7B689868D3
:102F2C002D4B01220021FEF737FC75E07B68986879
:102F3C002B4B00220021FEF72FFC7B680C33102456
:102F4C003A1911001800FFF78EF97B689B68012273
:102F5C0000211800FEF7BDFB7B6898683A191549EB
:102F6C002D23FEF7A6FC57E07B6898681D4B0022CA
:102F7C000021FEF711FC7B689868174B0122002199
:102F8C00FEF70AFC48E0C046A86C0008BC6C0008C0
:102F9C0020000020C46C0008A46C0008CC6C000855
:102FAC00E06C0008E46C0008E86C0008EC6C0008AD
:102FBC00F06C0008046D0008186D00082C6D0008FA
:102FCC00406D0008546D0008586D00085C6D0008D9
:102FDC00706D0008846D0008986D0008AC6D0008D9
:102FEC00C06D0008D46D00087B6898680C4B0022FB
:102FFC000021FEF7D1FB7B689B68012200211800A1
:10300C00FEF767FB7B6898687B685B691B041A0C8E
:10301C00044B1900FEF722FCBD4607B090BDC0461C
:10302C00D46D0008E86D000880B584B000AF0200D4
:10303C00FB1D1A703B1D0A1C1A800E23FA18FB1D6F
:10304C001B7811001800FEF721FA03001A00012367
:10305C005340DBB2002B01D0002316E00E23FB18EB
:10306C001A883B1D1B88D3189AB2FB1D1B781100C4
:10307C001800FEF7E1F903001A0001235340DBB2FC
:10308C00002B01D0002300E001231800BD4604B042
:10309C0080BD90B585B000AF78607B68DB6810337D
:1030AC001C007B681800FDF7E6FA03001A000123E8
:1030BC005340DBB219002000FDF70FFC7B68DB6886
:1030CC0008331C007B681800FDF7E4FA03001A00B3
:1030DC0001235340DBB219002000FDF7FEFB7B6897
:1030EC00DB6818331C007B681800FEF776FE0300C3
:1030FC001A0001235340DBB219002000FDF7EDFB51
:10310C007B68DB681C007B68DB68E8331800FDF724
:10311C004FFA030019002000FDF7DFFB0F23FB180B
:10312C0000221A707B681800FDF7C3FA031E03D047
:10313C000F23FB1801221A707B681800FDF7CCFADC
:10314C00031E0CD07B681800FDF7A4FA03001A00CC
:10315C0001235340DBB2002B01D0012300E00023FC
:10316C00002B03D00F23FB1801221A707B68DB683D
:10317C0020331A000F23FB181B7819001000FDF7E1
:10318C00ACFBBD4605B090BD80B582B000AF786099
:10319C000A00FB1C1A707B68DB6828331A00FB1CC6
:1031AC001B7819001000FDF798FBBD4602B080BDDE
:1031BC00B0B584B000AF78607B681800FEF794FC63
:1031CC000200136804331B680F257C191000984704
:1031DC00030023707B191B78012B04D00F23FB18E1
:1031EC001B78002B01D1012300E000231800BD4601
:1031FC0004B0B0BD80B582B000AF78607B689B7CBA
:10320C00012B03D001210220FFF70EFF7B68012266
:10321C009A747B681800FEF7C9FC7B685B7C18000D
:10322C00BD4602B080BD80B582B000AF78607B68CF
:10323C009B7C022B03D001210220FFF7F5FE7B685B
:10324C0002229A747B681800FEF7B0FC7B685B7CEA
:10325C001800BD4602B080BD80B582B000AF78606A
:10326C007B681800FEF7A2FC7B681800FFF711FFC3
:10327C00BD4602B080BD80B582B000AF78607B687F
:10328C001B7C1800BD4602B080BD000080B582B02A
:10329C0000AF78601C4B1B681800FEF7A8FD0300FC
:1032AC001A0001235340DBB2002B01D0002326E08F
:1032BC007B681B68D0331800FDF77AF903001A00FD
:1032CC0001235340DBB2002B16D17B681B68E03323
:1032DC001800FDF76DF903001A0001235340DBB20F
:1032EC00002B09D1FDF748FD03005B691800FFF7BF
:1032FC00C2FF0300012B01D1012300E000231800C1
:10330C00BD4602B080BDC0463400002080B582B0FE
:10331C0000AF7860194B1B681800FEF794FD030092
:10332C001A0001235340DBB2002B01D0002320E014
:10333C007B681B68D8331800FDF73AF903001A00B4
:10334C0001235340DBB2002B10D10C4B1B6818002F
:10335C00FDF7D5F9031E09D1FDF70EFD03005B69DE
:10336C001800FFF788FF0300022B01D1012300E0B6
:10337C0000231800BD4602B080BDC04634000020BA
:10338C0090B585B000AF78607C4B1B681800FFF7D8
:10339C0063FF7B681800FFF779FF031E05D17B687C
:1033AC001800FFF7B3FF031E01D0012200E000223A
:1033BC000E23FB181A707B681800FEF7C1FF030080
:1033CC001A0001235340DBB2002B02D07B68002291
:1033DC001A737B681B6848331C00684B1B68180009
:1033EC00FEF7C0FC031E0CD07B681800FEF7A8FF8C
:1033FC00031E06D00E23FB181B78002B01D00123D3
:10340C0000E0002319002000FDF767FA0F23FB18DA
:10341C0000221A700E23FB181B78002B00D187E0BA
:10342C007B689B68352B00D23523353B1A007B68B3
:10343C009A607B689B68002B00D085E07B68180045
:10344C00FFF764FF031E2FD07B681B79022B21D062
:10345C007B6802221A71494B1B681800FDF74FF963
:10346C00031E0DD00720FEF747F8020013005B0186
:10347C009B1A9B009B18DB00F533FF331A0001E00D
:10348C00FA235A007B689A603C4B1B681800FEF7C5
:10349C00FBFC59E0394B1B681800FFF7C4FE0F23E7
:1034AC00FB1801221A704FE07B681800FFF7EEFE44
:1034BC00031E30D07B681B79012B22D07B6818004F
:1034CC00FEF73EFF031E0ED07B681B7B002B03D048
:1034DC007B6800221A7109E07B6801221A737B68F1
:1034EC0001221A7102E07B6801221A717B68FA22B0
:1034FC0052009A60214B1B681800FEF7C5FCC046B1
:10350C0022E01E4B1B681800FFF774FE0F23FB18FC
:10351C0001221A7018E07B6800221A71174B1B6885
:10352C001800FEF7B1FC7B68FA2252009A600BE09F
:10353C007B6800221A71114B1B681800FEF7A4FC63
:10354C007B68FA2252009A600D4BBB607B689B68CB
:10355C000B4A934202D97B68094A9A60074B1A6856
:10356C000F23FB181B7819001000FFF70DFE7B686A
:10357C00180000F007F8BD4605B090BD34000020DF
:10358C00B4D6010080B582B000AF7860344B1B68B4
:10359C001800FDF78EF8031E08D07B681B6861339A
:1035AC00FF3304211800FDF7ABF917E02C4B1B6817
:1035BC001800FDF791F8031E08D07B681B68613377
:1035CC00FF3302211800FDF79BF907E07B681B68AD
:1035DC006133FF3301211800FDF792F9204B1B6872
:1035EC001800FEF7FAFB031E08D07B681B687133CA
:1035FC00FF3302211800FDF783F907E07B681B6895
:10360C007133FF3301211800FDF77AF97B6818003C
:10361C00FEF796FE031E08D07B681B688133FF33D0
:10362C0005211800FDF76CF917E00D4B1B6818000D
:10363C00FFF7BEFD031E08D07B681B688133FF3388
:10364C0002211800FDF75CF907E07B681B688133E9
:10365C00FF3300211800FDF753F9BD4602B080BDC1
:10366C003400002080B500AF034B1B681800FFF737
:10367C0087FEBD4680BDC0464800002080B582B0A4
:10368C0000AF786039607B68012B09D13B68064A32
:10369C00934205D1054A06483523022101F03CFC32
:1036AC00BD4602B080BDC046FFFF00007136000869
:1036BC001401002080B500AF034B19000120FFF767
:1036CC00DDFFBD4680BDC046FFFF000080B582B067
:1036DC0000AF0200FB1D1A70034BFA1D12781A7012
:1036EC00BD4602B080BDC0464C00002080B582B003
:1036FC0000AF7860034A7B681A607B681800BD468F
:10370C0002B080BDA86E000880B584B000AF7860B0
:10371C000A00FB1C1A707B681A68FB1C1B785B0088
:10372C00DA401300FB60FB68DBB203221340DBB210
:10373C001800BD4604B080BD80B584B000AF786081
:10374C000A00FB1C1A707B68DA68FB1C1B785B0098
:10375C00DA401300FB60FB68DBB203221340DBB2E0
:10376C001800BD4604B080BD80B584B000AF786051
:10377C000A00FB1C1A707B689A68FB1C1B785B00A8
:10378C00DA401300FB60FB68DBB203221340DBB2B0
:10379C001800BD4604B080BD80B584B000AF786021
:1037AC000A00FB1C1A707B689B889BB21A00FB1CDE
:1037BC001B781A411300FB60FB68DBB2012213403B
:1037CC00DBB21800BD4604B080BDB0B584B000AF0C
:1037DC00F86008007A6019000B243B19021C1A705F
:1037EC000A257B190A1C1A707B191A787B68110040
:1037FC001800FFF789FF03001A003B191978FB68C2
:10380C001800FDF787FB7B191A787B6811001800EC
:10381C00FFF7C2FF03001A003B191978FB68180068
:10382C00FDF7EEFB7B191A787B6811001800FFF787
:10383C0083FF03001A003B191978FB681800FDF789
:10384C00B8FB7B191A787B6811001800FFF78CFF06
:10385C0003001A003B191978FB681800FDF781FB6F
:10386C00BD4604B0B0BD90B583B000AF78600C001D
:10387C0010001900FB1C221C1A70BB1C021C1A70B5
:10388C007B1C0A1C1A70FB1C1A787B681100180030
:10389C00FDF7E1FBBB1C1A787B6811001800FDF7E3
:1038AC0013FC7B1C1A787B6811001800FDF7F9FBE0
:1038BC001823FB181A787B6811001800FDF7DEFB43
:1038CC00BD4603B090BD80B582B000AF7860396062
:1038DC007B6818687B6819793B681A683B681B79A8
:1038EC00FFF773FFBD4602B080BD80B582B000AF5C
:1038FC0002F070F801F062FB03001A00FB1D043AA1
:10390C0051424A411A7002F07BF8FB1D1B781800DB
:10391C00BD4602B080BD000080B582B000AF7860BB
:10392C00034A7B681A607B681800BD4602B080BDF4
:10393C008C6E000880B582B000AF7860054A7B6859
:10394C001A607B6801221A717B681800BD4602B0B0
:10395C0080BDC0468C6E000880B584B000AFF860A6
:10396C00B9607A60FB681800FFF7E4FF084AFB684F
:10397C001A60FB6802221A74FB68BA689A60FB68CA
:10398C007A68DA60FB681800BD4604B080BDC0469A
:10399C00706E000880B582B000AF78607B689B6861
:1039AC001800FCF78BFF7B68DB681800FCF786FFC0
:1039BC00BD4602B080BD80B582B000AF78600A0011
:1039CC00FB1C1A707B681B681B687A68022110004C
:1039DC0098477B68FA1C12781A7101231800BD46AF
:1039EC0002B080BD80B582B000AF78600A00FB1CCD
:1039FC001A707B681B79002B02D0FB1C02221A70F8
:103A0C007B68FA1C12781A747B681B7C002B02D022
:103A1C00012B0BD015E07B689B681800FCF74EFF60
:103A2C007B68DB681800FCF73AFF14E07B68DB6806
:103A3C001800FCF743FF7B689B681800FCF72FFF0E
:103A4C0009E07B689B681800FCF738FF7B68DB6833
:103A5C001800FCF733FFBD4602B080BD80B582B0C4
:103A6C0000AF78607B681B7C1800BD4602B080BD3F
:103A7C0080B582B000AF78600A00FB1C1A707B68BE
:103A8C00FA1C12781A74FB1C1B78002B02D0012B29
:103A9C000BD015E07B685B681800FCF70FFF7B68A8
:103AAC001B681800FCF7FBFE14E07B681B68180011
:103ABC00FCF704FF7B685B681800FCF7F0FE09E07C
:103ACC007B681B681800FCF7F9FE7B685B681800C4
:103ADC00FCF7F4FEBD4602B080BD80B582B000AFED
:103AEC0078600A00FB1C1A707B68FA1C12785A74F6
:103AFC00FB1C1B78002B02D0012B0BD015E07B6834
:103B0C00DB681800FCF7DAFE7B689B681800FCF792
:103B1C00C6FE14E07B689B681800FCF7CFFE7B6840
:103B2C00DB681800FCF7BBFE09E07B689B6818009B
:103B3C00FCF7C4FE7B68DB681800FCF7BFFEBD46D3
:103B4C0002B080BD80B584B000AFF860B9607A6017
:103B5C003B60FB6801221A74FB6801225A74FB68F3
:103B6C0002229A74FB680222DA74FB6804221A752A
:103B7C00FB68BA681A60FB687A685A60FB683A6836
:103B8C009A60FB68BA69DA60FB681800BD4604B03D
:103B9C0080BD80B584B002AF78607B681868022362
:103BAC000093002300220121FFF75DFE7B685A6819
:103BBC007B681B6819001000FFF785FE7B689A680C
:103BCC007B681B6819001000FFF77DFE7B68DA68C4
:103BDC007B681B6819001000FFF775FE7B680221DB
:103BEC001800FFF77AFF7B6802211800FFF740FFEF
:103BFC007B6802211800FDF794FEBD4602B080BD23
:103C0C0080B582B000AF78607B685A7C7B68DB7CC7
:103C1C009A4205D17B681A7C7B689B7C9A4220D0A7
:103C2C007B685B7C022B12D17B681B7C022B0ED138
:103C3C007B68DA7C7B6811001800FFF74EFF7B680D
:103C4C009A7C7B6811001800FFF712FF09E07B6873
:103C5C0002211800FFF741FF7B6802211800FFF7D3
:103C6C0007FFBD4602B080BD80B584B000AFF860E0
:103C7C00B9607A60FB681800FFF75CFE094AFB68C4
:103C8C001A60FB6802221A74FB6800225A74FB68E3
:103C9C00BA689A60FB687A68DA60FB681800BD46FF
:103CAC0004B080BD546E000880B582B000AF78605F
:103CBC007B689B681800FFF76CFF7B68DB6818005B
:103CCC00FFF767FFBD4602B080BD80B582B000AF84
:103CDC0078600A00FB1C1A707B681B681B687A688A
:103CEC000221100098477B68FA1C12781A717B68C5
:103CFC001B791800BD4602B080BD80B582B000AF04
:103D0C0078600A00FB1C1A707B681B79002B02D0B0
:103D1C00FB1C02221A707B68FA1C12781A747B68DE
:103D2C005B7C002B2DD07B681B7C002B02D0012BE5
:103D3C000DD019E07B689B6800211800FDF7F1FDA0
:103D4C007B68DB6801211800FDF7EBFD48E07B6820
:103D5C009B6801211800FDF7E4FD7B68DB680121FD
:103D6C001800FDF7DEFD3BE07B689B680421180022
:103D7C00FDF7D7FD7B68DB6804211800FDF7D1FD4A
:103D8C002EE07B681B7C012B0FD002DC002B05D0B6
:103D9C0020E0032B10D0042B15D01BE07B68DB68D4
:103DAC0000211800FDF7BDFD1AE07B68DB680121DE
:103DBC001800FDF7B6FD13E07B68DB6803211800E3
:103DCC00FDF7AFFD0CE07B68DB6804211800FDF704
:103DDC00A8FD05E07B68DB6802211800FDF7A1FD5A
:103DEC00BD4602B080BD80B582B000AF78607B6804
:103DFC001B7C1800BD4602B080BD80B582B000AF00
:103E0C00786039607B6800221A717B6801225A71D4
:103E1C007B6802229A717B683A681A607B6818008A
:103E2C00BD4602B080BD80B582B000AF78607B68C3
:103E3C001B681800FFF7ADFE7B6801211800FDF729
:103E4C00BBFDBD4602B080BD80B582B000AF7860CE
:103E5C007B6800225A737B6801221A737B680022EC
:103E6C009A60BD4602B080BD80B584B000AFF860EA
:103E7C00B960FB1D1A70F868FB1D1A78BB68190035
:103E8C00FDF735F9FB681800FFF7DEFFFB6818003B
:103E9C00BD4604B080BD80B584B002AF7860080028
:103EAC001100FB1C021C1A70BB1C0A1C1A707B68CC
:103EBC00FA1C12785A737B68BA1C12781A737B68D6
:103ECC0000229A60786800230093002300220121CD
:103EDC00FFF7C9FCBD4602B080BD000080B586B0BE
:103EEC0002AF78608C4B5A698B4BFC21C9030A4397
:103EFC005A61894B5B69FB60FB687868002300930F
:103F0C00002300220121FFF7AEFC7B6808337A689E
:103F1C0011001800FFF7D7FC7B6810337A6811008A
:103F2C001800FFF7D0FC7B6818337A681100180072
:103F3C00FFF7C9FC7B6820337A6811001800FFF783
:103F4C00C2FC7B6828337A6811001800FFF7BBFCB1
:103F5C007B6830337A6811001800FFF7B4FC7B687B
:103F6C0038337A6811001800FFF7ADFC7B684033DA
:103F7C007A6811001800FFF7A6FC7B6848337A6852
:103F8C0011001800FFF79FFC7B689033180000238A
:103F9C000093012301220021FFF765FC7B68983315
:103FAC001A007B68903319001000FFF78CFC7B68BB
:103FBC00A0331A007B68903319001000FFF783FCC4
:103FCC007B68A8331A007B68903319001000FFF748
:103FDC007AFC7B68B0331A007B68903319001000B0
:103FEC00FFF771FC7B68B8331A007B6890331900BB
:103FFC001000FFF768FC7B68C0331A007B689033B5
:10400C0019001000FFF75FFC7B68C8331A007B684F
:10401C00903319001000FFF756FC7B68D0331A0060
:10402C007B68903319001000FFF74DFC7B68D83388
:10403C001A007B68903319001000FFF744FC7B6872
:10404C00E0331A007B68903319001000FFF73BFC3B
:10405C007B68E8331A007B68903319001000FFF777
:10406C0032FC7B68F0331A007B6890331900100027
:10407C00FFF729FC7B68F8331A007B689033190032
:10408C001000FFF720FC7B685A1CFF327B689033D2
:10409C0019001000FFF717FC7B680933FF331A0077
:1040AC007B68903319001000FFF70DFC7B6891338F
:1040BC00FF331A007B68903319001000FFF703FCE4
:1040CC007B689933FF331A007B689033190010001A
:1040DC00FFF7F9FB7B68A133FF331A007B68903341
:1040EC0019001000FFF7EFFB7B68A933FF331A00B0
:1040FC007B68903319001000FFF7E5FB7B68B13348
:10410C00FF33180003230093012301220021FFF742
:10411C00AAFBBD4604B080BD0010024080B584B03F
:10412C0000AFF860B9607A603B60FB680022DA602F
:10413C00FB6800221A74FB6800225A74FB68002288
:10414C009A74FB680022DA74FB68BA681A60FB6820
:10415C007A685A60FB683A689A60FB681800BD463A
:10416C0004B080BD80B582B000AF7860114B1A6886
:10417C007B68DA607B681B681800FFF795FD7B682D
:10418C005B681800FFF706FC7B689B681800FFF75C
:10419C004AFE0320FDF7B0F90300DAB27B681A740B
:1041AC007B681800FDF778FD01231800BD4602B0AE
:1041BC0080BDC0462000002080B586B000AFF860FE
:1041CC00B9607A603B60FB680433F968042218001C
:1041DC0000F046FDFB68BA68DA61FB687A681A621F
:1041EC00FB683A685A62FB683A6A9A621623FB18B3
:1041FC0000221A801623FB181B88032B0BD81620C1
:10420C003B181B88FA680021D1543B181A883B18BC
:10421C0001321A80EEE7FB681800BD4606B080BD7F
:10422C0080B584B002AF78607B68D86900230093B6
:10423C00012301220021FFF716FB7B681A6A7B68B9
:10424C00DB6919001000FFF73EFB7B685A6A7B683C
:10425C00DB6919001000FFF736FB7B689A6A7B68F4
:10426C00DB6919001000FFF72EFBBD4602B080BDC4
:10427C0080B584B000AF78600023FB607B681B695D
:10428C00FA689A4209D87B685A69FB68D3182022CD
:10429C001A70FB680133FB60F0E77B681800FDF7D0
:1042AC00BEF9BD4604B080BD80B582B000AF786069
:1042BC007B6800225A807B6805221A807B6800226A
:1042CC001A717B681800BD4602B080BD80B584B001
:1042DC0000AF78600420FDF70FF902000E217B1867
:1042EC001A807B181B88002B05D00E23FB181B880B
:1042FC00064A934203D1064B1800FDF758FF7B6822
:10430C001800FDF763FFBD4604B080BDFFFF000041
:10431C001915000080B584B000AFF860B9607A6000
:10432C003B60FB68BA681A60FB687A685A60FB6885
:10433C003A689A60FB680C331800FFF7C7FFFB68FC
:10434C0000221A77BD4604B080BD000080B582B053
:10435C0000AF7860034A7B681A607B681800BD4622
:10436C0002B080BDA86E000880B582B000AF786046
:10437C007B681800FFF7EAFF0C4A7B681A607B68C1
:10438C0000225A607B6800229A607B680022DA6007
:10439C007B6800221A617B6800225A617B680022CC
:1043AC001A767B681800BD4602B080BD406E0008CE
:1043BC0080B582B000AF7860054A7B681A607B6874
:1043CC001800FFF793F97B681800BD4602B080BD5A
:1043DC00406E000880B582B000AF78607B68180032
:1043EC00FFF7E6FF7B681C21180002F09FFA7B6840
:1043FC001800BD4602B080BD80B582B000AF7860B9
:10440C00BD4602B080BD80B582B000AF78607B68DD
:10441C005B681800BD4602B080BD80B582B000AFAD
:10442C0078607B681B691800BD4602B080BD80B502
:10443C0084B000AFF860B9607A603B60FB68BA6822
:10444C001A60FB687A685A60FB683A689A60FB6885
:10445C00BA69DA60FB6804221A74FB681800BD465E
:10446C0004B080BD80B584B000AFF860B9607A60EC
:10447C003B60FB68BA689A60BB691800FFF7C3FF22
:10448C000200FB68DA60FB687A681A61FB683A68BC
:10449C005A61BB691800FFF7C0FF0200FB689A6203
:1044AC00FB683A6ADA61FB687A6A1A62FB68BA6A74
:1044BC005A62FB681B691800FFF7B2FEFB68FA69C9
:1044CC009A61FB689869FB689968FB681A69FB68D4
:1044DC00DB68FFF71FFFFB68DB6900220021180077
:1044EC00FFF7D9FCFB681B6A002200211800FFF7BC
:1044FC00D2FCFB685B6A002200211800FFF7CBFCA2
:10450C00BD4604B080BD000080B582B000AF7860BD
:10451C00064B1A687B681A60054B1B680021180053
:10452C00FDF760FDBD4602B080BDC04620000020F6
:10453C003400002080B582B000AF78607B68CC4935
:10454C0009221800FCF7D3FD7B680833C849032205
:10455C001800FCF7CCFD7B681033C549022218000B
:10456C00FCF7C5FD7B681833C24905221800FCF71F
:10457C00BEFD7B682033BF4904221800FCF7B7FD51
:10458C007B68283318009023DB050B221900FCF7FD
:10459C00AEFD7B683033B84907221800FCF7A7FD45
:1045AC007B683833B44906221800FCF7A0FD7B6801
:1045BC004033B14909221800FCF799FD7B68483358
:1045CC0018009023DB0508221900FCF790FD7B688E
:1045DC005033AA490F221800FCF789FD7B68583329
:1045EC00A6490E221800FCF782FD7B686033A149B6
:1045FC0009221800FCF77BFD7B6868339D490B2270
:10460C001800FCF774FD7B6870339C490D22180070
:10461C00FCF76DFD7B68783398490C221800FCF789
:10462C0066FD7B688033934908221800FCF75FFD18
:10463C007B6888338F490A221800FCF758FD7B6889
:10464C0090338D4904221800FCF751FD7B68983398
:10465C008B4900221800FCF74AFD7B68A03388497F
:10466C0001221800FCF743FD7B68A8338449022221
:10467C001800FCF73CFD7B68B03381490F22180011
:10468C00FCF735FD7B68B8337D490E221800FCF72A
:10469C002EFD7B68C0337A490D221800FCF727FDEC
:1046AC007B68C83376490C221800FCF720FD7B6828
:1046BC00D03370490F221800FCF719FD7B68D833F2
:1046CC006C490E221800FCF712FD7B68E033694937
:1046DC000D221800FCF70BFD7B68E83365490C22B2
:1046EC001800FCF704FD7B68F03318009023DB0501
:1046FC0007221900FCF7FBFC7B68F83318009023A9
:10470C00DB0506221900FCF7F2FC7B68581CFF3015
:10471C009023DB0505221900FCF7E9FC7B680933C3
:10472C00FF3318009023DB0504221900FCF7DFFC93
:10473C007B681133FF33504905221800FCF7D7FC76
:10474C007B681933FF334B4902221800FCF7CFFC6E
:10475C007B682133FF3318009023DB050C221900F2
:10476C00FCF7C5FC7B682933FF334549062218004A
:10477C00FCF7BDFC7B683133FF334149072218003D
:10478C00FCF7B5FC7B683933FF333C490422180035
:10479C00FCF7ADFC7B684133FF3338490522180028
:1047AC00FCF7A5FC7B684933FF333449062218001B
:1047BC00FCF79DFC7B685133FF3331490A2218000A
:1047CC00FCF795FC7B685933FF332D490B221800FD
:1047DC00FCF78DFC7B686133FF3318009023DB05FD
:1047EC0000221900FFF740FB7B687133FF33180080
:1047FC009023DB0501221900FFF736FB7B68813320
:10480C00FF3318009023DB0502221900FFF72CFB65
:10481C007B689133FF33194908221800FCF767FCB9
:10482C007B689933FF33154909221800FCF75FFCAC
:10483C007B68A133FF3311490A221800FCF757FC9F
:10484C007B68A933FF330D490B221800FCF74FFC92
:10485C007B68B133FF3318009023DB050F2219005E
:10486C00FCF745FC7B681800BD4602B080BDC04615
:10487C00001400480010004800080048000C0048D4
:10488C000004004880B582B000AF78607B680C33C0
:10489C001800FFF709FD7B6800225A617B68002233
:1048AC00DA837B682022002199547B681800BD466E
:1048BC0002B080BD80B500AF044B1800FFF7A0F923
:1048CC00034B1800FFF79CF9BD4680BD2003002068
:1048DC0038030020F0B589B006AF0120FEF7F6FED4
:1048EC00FCF736FD3C4B1B681800FFF7F7FA642009
:1048FC00FCF74CFCFEF7F9FF384B394A1A60374B82
:10490C006422DA60344B1B685933FF331A00334B83
:10491C005A60314B1B685133FF331A002F4B9A608E
:10492C00304B1B682D4A1100180001F0AFFA2D4BCB
:10493C001968294B1B681933FF331A00264B1B6867
:10494C001133FF33284801F0FBFDFCF715FA030087
:10495C007B60264B1C68204B1B686133FF331A00AD
:10496C001D4B1B687133FF3319001B4B1B688133C4
:10497C00FF331F4E1F4D78680493039102921E4B18
:10498C000193194B009333002A002100FFF76AFDB5
:10499C007B68DB681800FFF76BFC7B68DB68002129
:1049AC001800FCF74DFF114B1B681800FFF7DAFBE2
:1049BC00124B1B681800FFF7A7FD7B689B69002151
:1049CC001800FDF783FC0020FEF780FEFCF7F0FCDE
:1049DC0000F06EFAFAE7C046200000202400002008
:1049EC000058004080030020840300203400002085
:1049FC000C030020E0020020B4030020480000203B
:104A0C0080B582B000AF7860054A7B681A607B681D
:104A1C001800FEF781FF7B681800BD4602B080BD10
:104A2C00546E000880B582B000AF78607B681800C7
:104A3C00FFF7E6FF7B681421180001F077FF7B6815
:104A4C001800BD4602B080BD80B582B000AF786062
:104A5C00054A7B681A607B681800FEF75DFF7B686F
:104A6C001800BD4602B080BD706E000880B582B0E3
:104A7C0000AF78607B681800FFF7E6FF7B681421B5
:104A8C00180001F053FF7B681800BD4602B080BDD2
:104A9C0090B585B002AF786039607B68012B74D11A
:104AAC003B68454A934270D1444B1800DC235B00B1
:104ABC001A00002102F02CF8404B1800FFF73AFDC9
:104ACC003F4C404A40494148414B00932300FFF77B
:104ADC0073FB404B1B68A933FF3319003D4B1B681C
:104AEC00A133FF331A003B4B1B689933FF331C0077
:104AFC00384B1B689133FF33374800932300FFF783
:104B0C0096FC364C364A37493748384B00932300CD
:104B1C00FFF718F8364C374A37493848384B00936A
:104B2C002300FFF70FF8304A364B11001800FFF73F
:104B3C0064F9324A2C49344B1800FFF795F8334A84
:104B4C003349344B1800FEF707FF01F097F90200C8
:104B5C00314B1A60314B1800FFF706FC294B2D4ADC
:104B6C0029492F48FFF7DAFA2E4B180024231A0094
:104B7C00002101F0CDFF2B4B1800FFF783FE2A4AD2
:104B8C002A480123022100F0C7F97B68002B0FD1C2
:104B9C003B68094A93420BD1204B1800FFF708FCE5
:104BAC001C4B1800FFF750FF174B1800FFF728FF9E
:104BBC00BD4603B090BDC046FFFF00002801002099
:104BCC00C8010020C0010020B8010020E002002034
:104BDC00D0010020200000200C03002080010020C8
:104BEC00980100207801002020030020A001002063
:104BFC0090010020A801002088010020380300202B
:104C0C00B001002050030020580300206001002058
:104C1C00680100206C030020800300208403002026
:104C2C00A0030020B4030020C1480008D8030020D2
:104C3C0080B500AF034B19000120FFF729FFBD46DB
:104C4C0080BDC046FFFF000080B500AF034B1900CC
:104C5C000020FFF71DFFBD4680BDC046FFFF0000D2
:104C6C0080B584B000AFF860B9607A60FB680B4A1D
:104C7C001A61FB68094A9A82FB687A681A60FB68B9
:104C8C00BA68DA60FB6800229A60FB6800225A60FE
:104C9C00FB681800BD4604B080BDC04600FFFFFF96
:104CAC0080B584B000AF78600A00FB1C1A707B687A
:104CBC005B68FB607B689B68BB60FB680133BA6810
:104CCC009A4201D100231EE0BB68002B07D17B6800
:104CDC001B68013BFA689A4201D1002313E07B6800
:104CEC00DA68FB68591CF960D318FA1C12781A7030
:104CFC007B681B68FA689A4201D2FA6800E00022CD
:104D0C007B685A6001231800BD4604B080BD80B595
:104D1C0086B000AF78607B689B687B617B685B6862
:104D2C003B617A693B699A4202D17B689B8A17E0A6
:104D3C007B68DA687B69591C7961D2180F23FB18E0
:104D4C0012781A707B681B687A699A4201D27A6968
:104D5C0000E000227B689A600F23FB181B789BB243
:104D6C001800BD4606B080BD80B584B000AF786039
:104D7C0039603B68002B01D1002323E00F23FB1883
:104D8C0001221A703B681800FCF709FC031E16D0B0
:104D9C003B681800FFF7BBFF0300DAB27B68110019
:104DAC001800FFF77DFF03001A0001235340DBB20C
:104DBC00002BE7D00F23FB1800221A70E2E70F2319
:104DCC00FB181B781800BD4604B080BD80B584B0BC
:104DDC0000AF78607B689B68FB607B685B68BB603E
:104DEC00BA68FB689A4203D3BA68FB68D31A05E029
:104DFC007B681A68FB68D21ABB68D3181800BD46CA
:104E0C0004B080BD80B582B000AF7860034A7B6887
:104E1C001A607B681800BD4602B080BDBC6E0008ED
:104E2C0080B582B000AF78607B681800FFF7EAFFAE
:104E3C007B681C21180001F079FD7B681800BD46C9
:104E4C0002B080BD80B584B000AF7860164B1A6894
:104E5C007B68D218144B1A60144B1B68FB60FB6800
:104E6C00002B1DD0FB685B7C022B15D1FB681B68EB
:104E7C007A689A429B415B42DBB2002B06D0FB68FE
:104E8C001A687B68D21AFB681A6005E0FB6801227D
:104E9C005A74FB6800221A60FB689B68FB60DEE7B3
:104EAC00BD4604B080BDC046F0030020EC030020DA
:104EBC0080B582B000AF164B1B78DBB2002B24D12F
:104ECC00144B1B687B607B68002B1ED07B685B7C63
:104EDC00012B16D17B681B7C012B0CD0022B10D123
:104EEC007B685A687B681A607B6802225A747B68FC
:104EFC00DB68984705E07B6800225A747B68DB68A6
:104F0C0098477B689B687B60DDE7BD4602B080BD3F
:104F1C004C000020EC03002080B586B000AFF86098
:104F2C007A603B600B203B180A1C1A70FB6800224D
:104F3C005A74FB683A1812781A74FB687A68DA604B
:104F4C00FB683A685A60184B1B68002B0AD1164B49
:104F5C00FA681A60144B1B6800229A60FB680222E4
:104F6C005A741BE0104B1B687B617B699B68002BA0
:104F7C0007D07A69FB689A4210D07B699B687B6189
:104F8C00F3E77A69FB689A4208D0FB6800229A60C2
:104F9C007B69FA689A60FB6802225A74FB681800F5
:104FAC00BD4606B080BDC046EC03002080B500AF06
:104FBC000120FFF747FFBD4680BD000090B585B0CE
:104FCC0000AF0A217B1806221A8008203B18062203
:104FDC001A800E23FB1800221A80BB1D00221A8097
:104FEC003B1D00221A800C23FB18012252421A800E
:104FFC00BC4A7B1812881A80BB4A3B1812881A804C
:10500C007B181B88B94A93424FD0B94A934203D0BC
:10501C00002B00D1F5E09FE10823FB181B88002B27
:10502C000FD1B04B180000F0F7FC03001A00BB1CAA
:10503C001A80BB1C1B88042B00D19AE1BB1C1B885B
:10504C009DE10823FB181B88A84A93421FD1A54B4E
:10505C00180000F0E1FC03001A00BB1C1A80BB1CFA
:10506C001B88042B02D0BB1C1B8888E19E4B0021A3
:10507C00180000F00DFD03001A00BB1C1A80BB1CAD
:10508C001B88042B00D174E1BB1C1B8877E100F05A
:10509C0013FA03001A00BB1C1A80BB1C1B88042BC0
:1050AC0000D166E1BB1C1B8869E10823FB181B8837
:1050BC00002B00D071E00E23FB1800221A8047E071
:1050CC008C4B1B889AB20E23FB1819888A4B49000B
:1050DC00CB5A9A4205D10C23FB180E22BA1812880F
:1050EC001A800E23FB181A880C23FB1800215B5E18
:1050FC009A4227D00E23FB181A887F4B5200D35AA2
:10510C003C1D7E4A1100180000F042F90300238078
:10511C003B1D1B88012B15D00E23FB181A88764BD0
:10512C005200D25A754B1B88BC1D1900100000F0A0
:10513C004FFA03002380BB1D1B88042B02D0BB1D20
:10514C001B881CE10E217B181A887B1801321A80EF
:10515C000E23FB181B88092BB2D9624B00211800B7
:10516C0000F096FC03001A00BB1C1A80BB1C1B88A9
:10517C00042B02D0BB1C1B8801E15B4B180000F018
:10518C004BFC03001A00BB1C1A80BB1C1B88042B95
:10519C0000D1F0E0BB1C1B88F1E00823FB181B8836
:1051AC00534A93421FD1504B180000F035FC0300BA
:1051BC001A00BB1C1A80BB1C1B88042B02D0BB1C06
:1051CC001B88DCE0474B0021180000F061FC030059
:1051DC001A00BB1C1A80BB1C1B88042B00D1CAE014
:1051EC00BB1C1B88CBE000F067F903001A00BB1C4A
:1051FC001A80BB1C1B88042B00D1BCE0BB1C1B8879
:10520C00BDE00823FB181B88002B0DD100F054F9CE
:10521C0003001A00BB1C1A80BB1C1B88042B00D17A
:10522C00ABE0BB1C1B88AAE00823FB181B88304A88
:10523C0093420FD12C4B180000F0EEFB03001A0028
:10524C00BB1C1A80BB1C1B88042B00D195E0BB1C1B
:10525C001B8894E00E23FB1800221A8058E0284B80
:10526C001B889AB20E23FB181988234B4900CB5A82
:10527C009A4205D10C23FB180E22BA1812881A80F8
:10528C000E23FB181A880C23FB1800215B5E9A4234
:10529C0038D00E23FB181A88174B5200D35A3C1DDA
:1052AC00164A1100180000F073F8030023803B1D10
:1052BC001B88012B26D00E23FB181A880E4B52008C
:1052CC00D25A0E4B1B88BC1D1900100000F080F93F
:1052DC0003002380BB1D1B88042B13D0BB1D1B8814
:1052EC004DE0C04600F0000800F80008EEEE0000AB
:1052FC00FFFF000006F00008F40300200804002063
:10530C0006F800080E217B181A887B1801321A80C7
:10531C000E23FB181B88092BA1D91B4B002118004D
:10532C0000F0B6FB03001A00BB1C1A80BB1C1B88C8
:10533C00042B02D0BB1C1B8821E0144B180000F07E
:10534C006BFB03001A00BB1C1A80BB1C1B88042BB4
:10535C0013D0BB1C1B8812E000F0AEF803001A003F
:10536C00BB1C1A80BB1C1B88042B07D0BB1C1B88C6
:10537C0005E0C04602E0C04600E0C0460423180029
:10538C00BD4605B090BDC04600F8000800F000080E
:10539C00B0B586B000AF02003960BB1D1A800E217B
:1053AC007B1800221A800C23FB18274A1A8016231C
:1053BC00FB1801221A80254B3B61244BBB600D006E
:1053CC007C18002000F0ACF80300238029007B1827
:1053DC001B88AB2B01D1AB2331E00E22BB181B88F1
:1053EC001B498C466344DB02BB60BB181B88013332
:1053FC00DB02184A944663443B6118E03A690C217D
:10540C007B1812881A807A18BB1D12881B889A4246
:10541C000AD13B69023B1B889AB23B681A8016235F
:10542C00FB1800221A8007E03B69043B3B61BB6818
:10543C0002333A699A42E1D81623FB181B881800EC
:10544C00BD4606B0B0BDC046555500000000010871
:10545C001E000100FEEF0008B0B584B000AF0200E2
:10546C00BB1D1A803B1D0A1C1A800E257B190022BD
:10547C001A807C193B1D1A88BB1D1B881100180053
:10548C0000F0A6F8030023807B191B88802B0BD11E
:10549C000E23FC183B1D1A88BB1D1B88110018001D
:1054AC0000F006F9030023800E23FB181B8818005C
:1054BC00BD4604B0B0BD000090B583B000AFFB1D7D
:1054CC0004221A70FC1D144B180000F0A5FA0300FE
:1054DC002370FB1D1B78042B02D0FB1D1B7817E0DF
:1054EC00FC1D0D4B0021180000F0D2FA03002370B4
:1054FC00FB1D1B78042B02D0FB1D1B7808E0FC1D48
:10550C00064B180000F088FA03002370FB1D1B7873
:10551C001800BD4603B090BD00F0000800F800086C
:10552C0080B584B000AF0200FB1D1A700E217B18F1
:10553C0006221A800C203B1806221A80214A7B185E
:10554C0012881A80204A3B1812881A80FB1D1B787F
:10555C00002B21D0012B2FD10C23FB181B88002BE7
:10556C0009D10E23FB181B88184A934201D1002342
:10557C0023E0012321E00E23FB181B88002B09D10B
:10558C000C23FB181B88114A934201D1012314E010
:10559C00002312E0AB2310E00E23FB181B88002B1A
:1055AC0001D1002309E00C23FB181B88002B01D12F
:1055BC00012302E0AB2300E000231800BD4604B039
:1055CC0080BDC04600F0000800F80008EEEE0000B8
:1055DC00B0B586B000AF0200BB1D1A803B1D0A1C83
:1055EC001A801323FB1804221A7010217B18002236
:1055FC001A802B4B7B612B4BFB600D007C18012020
:10560C00FFF78EFF0300238029007B181B88AB2B30
:10561C0001D1AB2340E01022BB181B8822498C46D9
:10562C006344DB027B61BB181B880133DB021F4A1E
:10563C0094466344FB602AE07B691B68013323D1E9
:10564C0013257C193B1D1A887B691100180000F08A
:10565C001FFA030023707B191B78042B04D013232F
:10566C00FB181B789BB217E07B699A1C13257C19DD
:10567C00BB1D1B881900100000F00AFA03002370F0
:10568C007B191B789BB207E07B6904337B617A69D9
:10569C00FB689A42D0D380231800BD4606B0B0BD3B
:1056AC0000000108FF0701081E000100FEEF0008C2
:1056BC00B0B588B000AF0200BB1D1A803B1D0A1CA0
:1056CC001A801523FB1804221A70644BFB61644B7F
:1056DC00BB6112217B1800221A801623FB180022B2
:1056EC001A801023FB1800221A800E23FB180022AC
:1056FC001A800D007C180020FFF712FF0300238096
:10570C0029007B181B88012B04D1564BFB61564B8F
:10571C00BB610BE01223FB181B88002B04D1524BEE
:10572C00FB61504BBB6101E0AB2392E015257C196A
:10573C004E4AFB691100180000F0AAF9030023700F
:10574C007B191B78042B04D01523FB181B789BB2F8
:10575C007FE010257C193B1D1A88BB1D1B8811008E
:10576C001800FFF735FF030023807B191B88042BDF
:10577C0003D01023FB181B886BE01623FB180022A8
:10578C001A803AE01623FB181A88394B5200D35A68
:10579C00BA1D12889A422AD01623FB181A88344B49
:1057AC005200D35A0E257C19324A11001800FFF70B
:1057BC00EFFD030023807B191B88012B17D01623C8
:1057CC00FB181A882A4B5200D25A2A4B1B881025D8
:1057DC007C1919001000FFF7FBFE030023807B19D6
:1057EC001B88042B03D01023FB181B8831E01621D7
:1057FC007B181A887B1801321A801623FB181B8819
:10580C00092BBFD915257C19BB69180000F004F9C8
:10581C00030023707B191B78042B04D01523FB1871
:10582C001B789BB215E015257C19FB69002118002B
:10583C0000F02EF9030023707B191B78042B04D085
:10584C001523FB181B789BB203E01523FB181B7860
:10585C009BB21800BD4608B0B0BDC046FF0301089E
:10586C000000010800F0000800F80008EEEE00004F
:10587C00F40300200804002090B585B000AF7860D8
:10588C0039600B23FB1830221A700A23FB182322D1
:10589C001A707B68FB6002E0FB680133FB60FB68FD
:1058AC001B785BB2002BF7D143E0FB68013BFB603C
:1058BC00FB681B785BB20B22BA18127852B29A4270
:1058CC0008D0FB681B785BB20A22BA18127852B265
:1058DC009A422ED13B680A21180001F013F90B00F3
:1058EC001A0009243B191A703B680A21180001F0B0
:1058FC0083F803003B603B191B78002B0FD13B68EE
:10590C00002B0CD1FB681B785BB20A22BA181278F8
:10591C0052B29A420CD1FB6820221A7009E009237A
:10592C00FB181B783033DBB25AB2FB681A7000E0FC
:10593C00C046FA687B689A42B7D83B685A425341D2
:10594C00DBB21800BD4605B090BD80B586B000AF87
:10595C00F860B960FB1D1A70BB685A1CBA60002253
:10596C009A5617217B181A707B181B78002B0DD1B7
:10597C00FB1D1B78002B07D0FB685A1CFA60172202
:10598C00BA18127852B21A70FB6808E0FB685A1CFD
:10599C00FA601722BA18127852B21A70DCE71800A3
:1059AC00BD4606B080BD80B584B000AFF860B9606C
:1059BC007A60F9687B6801221800FFF7C6FFBA68A5
:1059CC007B6811001800FFF757FF03001800BD4655
:1059DC0004B080BD80B500AF064B1B69802213401C
:1059EC0005D0044B044A5A60024B044A5A60BD4627
:1059FC0080BDC0460020024023016745AB89EFCD36
:105A0C0080B500AF034B1A69024B80210A431A611F
:105A1C00BD4680BD00200240B0B584B000AF7860B8
:105A2C000F257B1904221A707C19B0231B03180054
:105A3C0000F096F8030023707B191B78042B1DD102
:105A4C00124B1A69114B02210A431A610F4B7A68E7
:105A5C005A610E4B1A690D4B40210A431A610F23F0
:105A6C00FC18B0231B03180000F07AF80300237015
:105A7C00064B1A69054B02218A431A610F23FB1846
:105A8C001B781800BD4604B0B0BDC04600200240D3
:105A9C00B0B584B000AF78600A00BB1C1A800F252B
:105AAC007B1904221A707C19B0231B03180000F018
:105ABC0057F8030023707B191B78042B18D1104B5B
:105ACC001A690F4B01210A431A617B68BA1C1288B0
