:020000040800F2
:100000000040002041020008490200085102000897
:1000100000000000000000000000000000000000E0
:10002000000000000000000000000000770200084F
:1000300000000000000000007F02000831280008D6
:10004000870200088702000887020008870200086C
:10005000870200088702000887020008870200085C
:10006000870200088702000887020008870200084C
:10007000870200088702000887020008870200083C
:10008000870200088702000887020008870200082C
:10009000870200088702000887020008CD2F0008A9
:1000A000E12F000887020008870200088702000885
:1000B00087020008870200088702000887020008FC
:1000C0005FF808F180B58EB000AF00F02FF94A4B11
:1000D0004A4A1A604A4B494A1A604A4B3B634A4BA8
:1000E000FB624A4BBB62FB6A7B6207E03A6B131D03
:1000F0003B637B6A191D796212681A60BA6A7B6A6F
:100100009A42F3D83C4B1B68414A934204D13C4B82
:100110001B68404A934200D0FEE73F4B374A1A60C3
:100120003E4B364A1A603E4B3B623E4BFB613B6A9C
:10013000BB6104E0BB691A1DBA6100221A60FA694A
:10014000BB699A42F6D8344B1B68002B03D1334B62
:100150001B68002B00D0FEE700F0EEF83A003B1DD4
:100160001100180000F0D2F82F4A304BD31A9B1020
:10017000FB600023BB6007E02C4BBA689200D358A9
:100180009847BB680133BB60FA68BB689A42F3DCEE
:10019000274A284BD31A9B10FB600023BB6007E063
:1001A000244BBA689200D3589847BB680133BB60B0
:1001B000FA68BB689A42F3DC7B683A681100180061
:1001C00002F00AF803007B631B4A1C4BD31A9B10F6
:1001D0007B617B693B6108E03B695A1E174B9200CB
:1001E000D35898473B69013B3B613B69002BF3DCEB
:1001F0007B6B180000F07AF800000020BABADECA63
:1002000098000020643A0008000000209C000020B4
:1002100078563412325476989C0000206C040020EA
:100220009C00002070040020BC020008BC020008F2
:10023000D0020008BC020008D8020008D002000862
:1002400080B500AFFFF73EFF80B500AF00BEFEE710
:1002500004207146084202D0EFF3098001E0EFF379
:10026000088071460A4A104780B582B000AF7860B6
:10027000396000BEFEE780B500AF00BEFEE780B586
:1002800000AF00BEFEE780B500AF00BEFEE7000095
:0402900069020008F7
:10029400643A0008000000209C000020643A000832
:1002A40000000000000000009C00002070040020FA
:1002B4000000000000000000390600081D0C0008C2
:1002C400C12400083930000809370008D92400087F
:0402D40021370008C6
:1002D80080B582B000AF024B7B6000F009F8C046E1
:1002E8002C39000880B582B000AF7860FEE70000C6
:1002F80080B582B000AF024B7B600120FFF7F2FFB0
:100308004039000880B582B000AF786039607B68FA
:1003180001221A603B68024A1A60BD4602B080BDDD
:100328000400002080B500AF00F008F8BD4680BD8D
:1003380080B500AF00F048F8BD4680BD80B500AF7D
:100348001B4B1A681A4B01210A431A60184B5A684A
:10035800174B18490A405A60154B1A68144B16492E
:100368000A401A60124B1A68114B14490A401A6065
:100378000F4B5A680E4B12490A405A600C4BDA6A06
:100388000B4B0F218A43DA62094B1A6B084B0D4954
:100398000A401A63064B5A6B054B01218A435A637C
:1003A800034B00229A6000F07DF8BD4680BDC04630
:1003B800001002400CB8FF08FFFFF6FEFFFFFBFF2E
:1003C800FFFFC0FFACFEFFFF80B584B000AF002385
:1003D800FB600023BB6000237B6000233B602D4B48
:1003E8005B680C221340FB60FB68042B07D0082BCA
:1003F80009D0002B38D1284B284A1A6037E0264B01
:10040800264A1A6033E0234B5A68F0239B031340B3
:10041800BB60204B5A68C0235B0213407B60BB68FB
:100428009B0C0233BB607B68002B0CD1B9680A00B7
:100438005201521A93019B1ADB005B181B021A0027
:10044800154B1A6013E0134BDB6A0F22134001337C
:100458003B603968114803F0D1F903001A00BB6802
:100468005A430D4B1A6002E00B4B0C4A1A60094BB9
:100478005B681B090F221340094AD35CDBB2FB609F
:10048800054B1A68FB68DA40034B1A60BD4604B096
:1004980080BDC046001002400C00002000127A0007
:1004A8001000002080B582B000AF00237B600023DD
:1004B8003B60304B1A682F4B802149020A431A606F
:1004C8002C4B1A6880239B0213403B607B680133E6
:1004D8007B603B68002B04D17A68A023DB019A4239
:1004E800EED1244B1A6880239B02134002D00123CB
:1004F8003B6001E000233B603B68012B36D11E4B7B
:1005080011221A601B4A1B4B52685A60194A194B30
:1005180052685A60174B5A68164B18490A405A6075
:10052800144B5A68134B882149030A435A60114BEC
:100538001A68104B802149040A431A600D4B1A6847
:1005480080239B041340F9D00A4B5A68094B0321B6
:100558008A435A60074B5A68064B02210A435A607D
:10056800044B5B680C221340082BF9D1BD4602B03E
:1005780080BDC0460010024000200240FF7FC0FF3F
:1005880080B582B000AF78607B6801221A707B6802
:1005980000225A607B6800229A607B680022DA6039
:1005A8007B6800221A617B681800BD4602B080BDD6
:1005B80080B582B000AF78607B681B69180000F0D6
:1005C800C7FCBD4602B080BD80B500AF024B180025
:1005D800FFF7EEFFBD4680BDA400002080B500AF48
:1005E800014B1800BD4680BDA400002080B582B034
:1005F80000AF786039607B68012B0DD13B68084AF1
:10060800934209D1074B1800FFF7BAFF064A07487B
:100618000523022102F0BEF8BD4602B080BDC046E7
:10062800FFFF0000A4000020D1050008B80000204A
:1006380080B500AF034B19000120FFF7D7FFBD4677
:1006480080BDC046FFFF000090B583B000AF020038
:100658003960FB1D1A70FB1D1B785BB2002B36DA64
:10066800314AFB1D1B785BB219000F230B40083B76
:100678009B0806339B00D31804331B68FA1D1278B5
:1006880052B2110003220A40D200FF2191400A0011
:10069800D2431A4011003B689B01FF221A40FB1D00
:1006A8001B785BB2180003230340DB009A401E4806
:1006B800FB1D1B785BB21C000F232340083B9B08E3
:1006C8000A4306339B00C31804331A6029E0174A0B
:1006D800FB1D1B785BB29B08C0339B009B58FA1D1F
:1006E800127852B2110003220A40D200FF21914031
:1006F8000A00D2431A4011003B689B01FF221A40AE
:10070800FB1D1B785BB2180003230340DB009A40F3
:100718000648FB1D1B785BB29B080A43C0339B004D
:100728001A50BD4603B090BD00ED00E000E100E0C6
:1007380080B582B000AF78607B68013B0C4A934279
:1007480001D9012310E00B4B7A68013A5A60012362
:100758005B4203211800FFF777FF064B00229A60DF
:10076800044B07221A6000231800BD4602B080BD62
:10077800FFFFFF0010E000E080B582B000AF7860B6
:100788000A00FB1C1A707B681B681A687B689B88C8
:100798005B00032199400B00D9437B681B680A4022
:1007A8001A607B681B681968FB1C1A787B689B8831
:1007B8005B009A407B681B680A431A60BD4602B01A
:1007C80080BD80B582B000AF78600A00FB1C1A704B
:1007D8007B681B689A687B689B885B00032199404B
:1007E8000B00D9437B681B680A409A607B681B68CA
:1007F8009968FB1C1B781A007B689B885B009A40F1
:100808007B681B680A439A60BD4602B080BD80B50C
:1008180082B000AF78600A00FB1C1A707B681B6806
:10082800DA687B689B885B00032199400B00D943F9
:100838007B681B680A40DA607B681B68D968FB1C08
:100848001A787B689B885B009A407B681B680A4320
:10085800DA60BD4602B080BD80B582B000AF786076
:100868000A00FB1C1A707B681B689B889AB27B681D
:100878009B88190001238B409BB2DB4399B27B68AC
:100888001B680A4092B29A807B681B689B8899B261
:10089800FB1C1B787A68928893409AB27B681B6825
:1008A8000A4392B29A80BD4602B080BD80B584B03A
:1008B80000AFF860B960BB1D1A80FB68BA681A609F
:1008C800FB68BA1D12889A80FB6803211800FFF79D
:1008D80053FFFB6800211800FFF799FFFB68002110
:1008E8001800FFF76EFFFB6801211800FFF7B4FF3F
:1008F800FB681800BD4604B080BD000080B582B01A
:1009080000AF0200FB1D1A70FB1D1B78042B0CD8CE
:100918009A00074BD3181B689F46FEE7054B012238
:100928001A7002E0034B01221A70BD4602B080BD66
:1009380054390008DC00002080B500AF024B1B686A
:100948001800BD4680BDC0464003002080B584B075
:1009580000AF7860FFF7F0FF0300FB60FFF7ECFFE4
:100968000200FB68D21A7B689A429B415B42DBB269
:10097800002B02D001F0E0FEF0E7BD4604B080BDD8
:1009880080B584B000AF7860FFF7D6FF0300FB6046
:10099800FFF7D2FF0200FB68D21A7B689A429B419C
:1009A8005B42DBB2002BF3D1BD4604B080BD000032
:1009B80080B584B000AF78607B68084A9A429B4152
:1009C8005B42DBB2FB60064BFA681A60044BFA68BC
:1009D80010210A431A60BD4604B080BD00366E017E
:1009E8000020024080B582B000AF786039603A4B91
:1009F8001A68394B01210A431A60374B1B680222D7
:100A080013405A425341DBB2002BF6D1324B5A689D
:100A1800314B03218A435A602F4B5B680C221340E9
:100A28005A1E9341DBB2002BF6D12B4B1A682A4B86
:100A3800802149020A431A60274B1A6880239B02C7
:100A480013405A425341DBB2002BF5D13B681800E2
:100A5800FFF7AEFF204B214A5A601F4B0022DA6293
:100A68001D4B1A681C4B802149040A431A601A4B13
:100A78001A6880239B0413405A425341DBB2002B6F
:100A8800F5D1154B5A68144B02210A435A60124B90
:100A98005B680C221340083B5A1E9341DBB2002BC3
:100AA800F5D10D4B5A680C4B02210A435A600A4B88
:100AB8005B680C221340083B5A1E9341DBB2002BA3
:100AC800F5D1054B5A68044B01210A405A600123AD
:100AD8001800BD4602B080BD001002400000118021
:100AE80080B582B000AF00237B60154B5A69144B68
:100AF800FC21C9030A435A61114B5B697B607B681F
:100B08000F4BDA690E4B802189030A43DA610C4BDB
:100B1800DA6980239B0313407B607B68084B9A69E2
:100B2800074B802189000A439A61054B9A69802303
:100B38009B0013407B607B68BD4602B080BDC04609
:100B48000010024080B500AF114A124B1100180086
:100B5800FFF748FFFFF738FCFFF7C2FF0E4B1A6894
:100B6800FA239900100002F049FE03001800FFF76D
:100B7800DFFD03005A1E9341DBB2002B02D0022096
:100B8800FFF7BCFE00F012F800F008F8BD4680BD83
:100B98000048E80100127A000C00002080B500AF80
:100BA800BD4680BD80B500AFBD4680BD80B500AFF5
:100BB800BD4680BD80B582B000AF78607B68180004
:100BC800FFF7DEFEBD4602B080BD000080B582B0F2
:100BD80000AF786039607B68012B0FD13B68094A08
:100BE80093420BD10849094B00221800FFF75EFE1B
:100BF8000549074B01221800FFF758FEBD4602B011
:100C080080BDC046FFFF000000080048CC0000205F
:100C1800D400002080B500AF034B19000120FFF776
:100C2800D5FFBD4680BDC046FFFF000080B582B03D
:100C380000AF78607B685A687B689B68D31A5A4211
:100C48005341DBB21800BD4602B080BD80B582B00A
:100C580000AF78607B681800FFF7E8FF03001A0010
:100C680001235340DBB21800BD4602B080BD80B5F9
:100C780084B000AF78607B6804331800FFF7E6FFA4
:100C8800031E11D07B680433180001F084FC0300B4
:100C98001A000F217B181A707B181B78002BEAD0DA
:100CA8000F23FB181B7800E000231800BD4604B092
:100CB80080BD80B582B000AF78607B681800FFF710
:100CC800D6FF03001800BD4602B080BD80B582B0D3
:100CD80000AF78607B685A687B681B691900100050
:100CE80002F012FE0B001A007B685A60BD4602B083
:100CF80080BD80B582B000AF78607B685B685A1CA5
:100D08007B685A607B6859687B681A69002391423E
:100D18005B41DBB2002B02D07B6800225A60BD46E3
:100D280002B080BD80B584B000AFF860B9607A6069
:100D3800FB68DB687A689A4201D300230FE0FB68FE
:100D48009B68BA689A4201D3002308E0FB689B6855
:100D58007A685A43BB68D218FB685A6001231800A6
:100D6800BD4604B080BD80B582B000AF78600A008F
:100D7800FB1C1A707B681800FFF7A8FF7B685A698C
:100D88007B685B68D318FA1C12781A707B681800A5
:100D9800FFF7AFFFBD4602B080BD80B582B000AF9F
:100DA800786039603B681B785BB2002B0AD03B68DF
:100DB8005A1C3A6000229A567B6811001800FFF707
:100DC800D2FFEFE7BD4602B080BD80B582B000AF6C
:100DD80078600A00FB1C1A707B68FA1C12781A7675
:100DE800BD4602B080BDF0B59FB000AFF860B960F5
:100DF8007A60BB68180002F0F7FC02006323934294
:100E08009B415B42DBB2002B01D0002312E0772527
:100E18007C191026BA197968BB68180001F0A2FD80
:100E280003002370BA19FB6811001800FFF7B5FF1B
:100E38007B191B781800BD461FB0F0BD80B584B083
:100E480000AF0200FB1D1A700F23FB1800221A7056
:100E58000F23FB181B78022B17D80F23FB181A78BF
:100E68000C4BD200D35CFA1D12789A4206D10F239C
:100E7800FB181B78DA00074BD31807E00F217B1803
:100E88001A787B1801321A70E2E700231800BD4671
:100E980004B080BD9039000880B582B000AF020070
:100EA800FB1D1A70FB1D1B78180000F00FFA0300D9
:100EB8001800BD4602B080BD90B583B000AF0200F7
:100EC800FB1D1A703B1D0A1C1A803B1D1A883C1D0D
:100ED800FB1D1B781100180000F00FF80300238099
:100EE8003B1D1A88FB1D1B781100180000F0C6F97D
:100EF80003001800BD4603B090BD80B584B000AFB4
:100F080002003960FB1D1A70FB1D1B781800FFF7E3
:100F180095FF0300FB60FB68002B01D1632313E0FE
:100F2800FB68DB881A003B68934202D9FB68DB88C0
:100F38003B60FB685B881A003B68934202D2FB68FF
:100F48005B883B603B689BB21800BD4604B080BD1F
:100F5800B0B584B000AF78607B685B680F257C19FA
:100F68001800FFF7A6FE030023707B191B78022BDD
:100F780017D002DC012B05D02FE0032B22D0042B45
:100F880014D02AE0FFF7D8FC0200FA2399001000D9
:100F980002F0BAFC0B009BB219000020FFF78CFF8F
:100FA8001BE000210020FFF787FF16E00020FFF775
:100FB80073FF03009BB2013B9BB219000020FFF7AF
:100FC8007BFF0AE00020FFF767FF03009BB20133B5
:100FD8009BB219000020FFF76FFF7B681B7C002B7A
:100FE80019D17B68DB685A1D7B68DA607B68DA6830
:100FF800A9235B009A420DD90020FFF74DFF03009B
:101008009AB27B681100180000F008F87B6800228B
:10101800DA6000E0C046BD4604B0B0BD80B582B01D
:1010280000AF78600A00BB1C1A807B681B7C002B11
:101038001CD17B689B68002200211800FFF772FE14
:101048007B689868BB1C1A880A4B1900FFF7CBFE0F
:101058007B689B68012200211800FFF763FE7B680C
:101068009B68054A11001800FFF797FEBD4602B0BD
:1010780080BDC046683900087C39000880B584B056
:1010880000AF0200FB1D1A70FB1D1B781800FFF74C
:10109800D5FE0300FB60FB68002B01D10A2301E0A9
:1010A800FB689B881800BD4604B080BD80B582B03F
:1010B80000AF02003960FB1D1A70FB1D1B78022B64
:1010C80001D9012323E0FB1D1B78012B0DD002DC85
:1010D800002B05D018E0022B0CD0032B0FD013E007
:1010E8003B681A880C4B1A6510E03B681A880A4B53
:1010F8005A650BE03B681A88074B9A6506E03B681F
:101108001A88054BDA6501E0012300E00223180084
:10111800BD4602B080BDC0460028004080B582B000
:1011280000AF02003960FB1D1A70FB1D1B78022BF3
:1011380001D9012327E0FB1D1B78012B0ED002DC0F
:10114800002B05D01CE0022B0ED0032B12D017E089
:101158000F4B1B6D9AB23B681A8013E00C4B5B6D0A
:101168009AB23B681A800DE0094B9B6D9AB23B68B6
:101178001A8007E0064BDB6D9AB23B681A8001E0E3
:10118800012300E002231800BD4602B080BDC0461E
:1011980000280040F0B585B000AF0F23FB180122EE
:1011A8001A700C23FB1801221A800C23FB181B88C9
:1011B800022B4CD80B217B180C22BA1812881A70F3
:1011C800BB1D00221A8008257C19BA1D7B181B78C4
:1011D80011001800FFF7A2FF030023807B191B886A
:1011E800012B1DD10B257B191B781800FFF746FF33
:1011F80003001A00BB1D1A800826BC19BA1D7B19EA
:101208001B7811001800FFF751FF03002380BB195A
:101218001B88022B0DD00F23FB1800221A7008E040
:101228000823FB181B88002B03D00F23FB18002270
:101238001A700C203B181A88BB1D1988074B5200DE
:10124800D1523B181A883B1801321A80ADE70F2398
:10125800FB181B781800BD4605B0F0BDE000002063
:1012680080B582B000AFFB1D01221A70FFF792FF14
:10127800FB1D1B781800BD4602B080BDB0B584B018
:1012880000AF0200FB1D1A703B1D0A1C1A80FB1DD3
:101298001A783B1D19880C4B5200D1520E257C1927
:1012A8003A1DFB1D1B7811001800FFF7FFFE030015
:1012B80023807B191B88023B5A425341DBB218003A
:1012C800BD4604B0B0BDC046E000002080B584B083
:1012D80000AF0200FB1D1A70FB1D1B78022B02D900
:1012E80001235B4204E0FB1D1A78034B5200D35ADA
:1012F8001800BD4604B080BDE000002080B584B071
:1013080000AF78607B681B681A687B689B885B0005
:10131800DA401300FB60FB68DBB203221340DBB248
:101328001800BD4604B080BD80B584B000AF7860B9
:101338007B681B68DA687B689B885B00DA4013006F
:10134800FB60FB68DBB203221340DBB21800BD462A
:1013580004B080BD80B584B000AF78607B681B683E
:101368009A687B689B885B00DA401300FB60FB6827
:10137800DBB203221340DBB21800BD4604B080BDC7
:1013880080B584B000AF78607B681B689B889BB28F
:101398001A007B689B881A411300FB60FB68DBB26C
:1013A80001221340DBB21800BD4604B080BD80B5F1
:1013B80082B000AF78607B689B881A000123934055
:1013C8001A007B681B689A61BD4602B080BD80B573
:1013D80082B000AF78607B689B88103301229A4006
:1013E8007B681B689A61BD4602B080BD80B582B03B
:1013F80000AF78607B681B681B8A9BB21A007B6809
:101408009B881A411300012213405A1E9341DBB2F4
:101418001800BD4602B080BD90B583B000AF7860BB
:101428000C0010001900FB1C221C1A70BB1C021CAB
:101438001A707B1C0A1C1A70FB1C1A787B68110036
:101448001800FFF799F9BB1C1A787B68110018007F
:10145800FFF702FA7B1C1A787B6811001800FFF767
:10146800D6F91823FB181A787B6811001800FFF7C3
:10147800A8F9BD4603B090BD80B582B000AF7860D2
:1014880039603B681800FFF739FF03001A007B68D2
:1014980011001800FFF770F93B681800FFF770FF9C
:1014A80003001A007B6811001800FFF7D5F93B68A4
:1014B8001800FFF739FF03001A007B6811001800B5
:1014C800FFF7A5F93B681800FFF744FF03001A006F
:1014D8007B6811001800FFF774F9BD4602B080BDA3
:1014E80080B582B000AF7860034A7B681A607B6879
:1014F8001800BD4602B080BD103A000880B582B021
:1015080000AF7860034A7B681A607B681800BD46A4
:1015180002B080BD103A000880B584B000AFF86012
:10152800B9607A60FB681800FFF7E8FF084AFB68B3
:101538001A60FB6802221A73FB68BA685A60FB6873
:101548007A689A60FB681800BD4604B080BDC04642
:10155800F839000880B582B000AF78600A00FB1C3B
:101568001A707B68FA1C12781A737B681B7B002B35
:1015780002D0012B0BD015E07B685B681800FFF7E1
:1015880026FF7B689B681800FFF711FF14E07B6853
:101598009B681800FFF71BFF7B685B681800FFF764
:1015A80006FF09E07B685B681800FFF710FF7B689F
:1015B8009B681800FFF70BFFBD4602B080BD80B5E1
:1015C80082B000AF78607B681B7B1800BD4602B014
:1015D80080BD80B584B000AF786008001100FB1CA6
:1015E800021C1A70BB1C0A1C1A70FB1C1B78002BEF
:1015F8000AD17B68BA1C12781A747B681B68FB6076
:101608007B685B68BB6009E07B68BA1C12785A7417
:101618007B689B68FB607B68DB68BB60BB1C1B78D6
:10162800002B02D0012B09D011E0BB681800FFF78E
:10163800CEFEFB681800FFF7BAFE10E0FB68180042
:10164800FFF7C5FEBB681800FFF7B1FE07E0FB68AF
:101658001800FFF7BCFEBB681800FFF7B8FEBD46D0
:1016680004B080BD80B584B000AFF860B9607A601E
:101678003B60FB6802221A74FB6802225A74FB68FA
:1016880002229A74FB68BA681A60FB687A685A6022
:10169800FB683A689A60FB68BA69DA60FB68180008
:1016A800BD4604B080BD80B582B000AF78600A0046
:1016B800FB1C1A70FB1C1A787B6800211800FFF7C6
:1016C80088FFBD4602B080BD80B582B000AF7860AB
:1016D8000A00FB1C1A70FB1C1A787B680121180091
:1016E800FFF777FFBD4602B080BD80B582B000AF7E
:1016F80078600A00FB1C1A707B68FA1C12789A74CE
:101708007B689B7C012B18D002DC002B05D04EE0B7
:10171800032B22D0042B35D049E07B680221180026
:10172800FFF7C1FF7B6801211800FFF7CDFF7B6839
:1017380000211800FFF7B7FF43E07B68022118007B
:10174800FFF7C2FF7B6801211800FFF7ACFF7B6839
:1017580000211800FFF7B8FF33E07B68022118006A
:10176800FFF7B2FF7B6802211800FFF79CFF7B6838
:1017780000211800FFF7A8FF7B6800211800FFF779
:1017880092FF1EE07B6802211800FFF79DFF7B682F
:1017980002211800FFF787FF7B6801211800FFF777
:1017A80093FF7B6801211800FFF77DFF09E07B6844
:1017B80002211800FFF788FF7B6802211800FFF755
:1017C80072FFBD4602B080BD80B582B000AF7860C0
:1017D80039607B681800FFF791FE074A7B681A603A
:1017E8007B6802221A727B683A685A607B68180024
:1017F800BD4602B080BDC046E039000880B582B061
:1018080000AF78600A00FB1C1A707B68FA1C12781B
:101818001A727B681B7A012B0FD002DC002B05D0D3
:1018280020E0032B10D0042B15D01BE07B685B68ED
:1018380000211800FFF759FF1AE07B685B68012157
:101848001800FFF752FF13E07B685B68032118005C
:10185800FFF74BFF0CE07B685B6804211800FFF77B
:1018680044FF05E07B685B6802211800FFF73DFF35
:10187800BD4602B080BD80B582B000AF78607B689D
:101888001B7A1800BD4602B080BD80B582B000AF9B
:10189800786039607B6800221A717B6800225A716F
:1018A8007B683A681A607B681800BD4602B080BD44
:1018B80080B582B000AF78607B6800221A727B68BE
:1018C8000122DA717B6800229A71BD4602B080BDA0
:1018D80080B584B000AFF860B960FB1D1A70F86875
:1018E800FB1D1B789AB2BB681900FEF7DFFFFB6887
:1018F8001800FFF7DDFFFB681800BD4604B080BD87
:1019080080B584B002AF786008001100FB1C021C8F
:101918001A70BB1C0A1C1A707B68FA1C12781A729F
:101928007B68BA1C1278DA717B6800229A71786831
:1019380000230093002300220121FFF76DFDBD461F
:1019480002B080BD80B586B002AF78609F4B5A69FF
:101958009E4BFC21C9030A435A619C4B5B69FB609F
:10196800FB68786800230093002300220121FFF719
:1019780053FD7B6808337A6811001800FFF77CFD77
:101988007B6810337A6811001800FFF775FD7B68D3
:1019980018337A6811001800FFF76EFD7B68203352
:1019A8007A6811001800FFF767FD7B6828337A68AA
:1019B80011001800FFF760FD7B6830337A6811006A
:1019C8001800FFF759FD7B6838337A681100180052
:1019D800FFF752FD7B6840337A6811001800FFF763
:1019E8004BFD7B6848337A6811001800FFF744FD07
:1019F8007B68503318000223009300230022012142
:101A0800FFF70AFD7B6858331A007B6850331900CA
:101A18001000FFF731FD7B6860331A007B68503394
:101A280019001000FFF728FD7B6868331A007B68EF
:101A3800503319001000FFF71FFD7B6870331A0040
:101A48007B68503319001000FFF716FD7B68783368
:101A58001A007B68503319001000FFF70DFD7B68F2
:101A680080331A007B68503319001000FFF704FD1B
:101A78007B6888331A007B68503319001000FFF721
:101A8800FBFC7B689033180000230093012301229C
:101A98000021FFF7C1FC7B6898331A007B689033FC
:101AA80019001000FFF7E8FC7B68A0331A007B6878
:101AB800903319001000FFF7DFFC7B68A8331A0089
:101AC8007B68903319001000FFF7D6FC7B68B033B1
:101AD8001A007B68903319001000FFF7CDFC7B6873
:101AE800B8331A007B68903319001000FFF7C4FC64
:101AF8007B68C0331A007B68903319001000FFF729
:101B0800BBFC7B68C8331A007B689033190010004F
:101B1800FFF7B2FC7B68D0331A007B68903319005A
:101B28001000FFF7A9FC7B68D8331A007B68903354
:101B380019001000FFF7A0FC7B68E0331A007B68EF
:101B4800903319001000FFF797FC7B68E8331A0000
:101B58007B68903319001000FFF78EFC7B68F03328
:101B68001A007B68903319001000FFF785FC7B682A
:101B7800F8331A007B68903319001000FFF77CFCDB
:101B88007B685A1CFF327B68903319001000FFF7FE
:101B980073FC7B680933FF331A007B6890331900A4
:101BA8001000FFF769FC7B686133FF3300220021D6
:101BB8001800FFF7A5FE7B686D33FF330022002174
:101BC8001800FFF79DFEBD4604B080BD001002401E
:101BD80080B584B000AFF860B9607A603B60FB689C
:101BE8000022DA60FB6800221A74FB6800225A742B
:101BF800FB68BA681A60FB687A685A60FB683A68DA
:101C08009A60FB681800BD4604B080BD80B582B0FC
:101C180000AF78600A00FB1C1A70FB1C1B78002BB5
:101C280007D07B681A1DFB1C1B781900100000F0F8
:101C38007BFCBD4602B080BD80B582B000AF786045
:101C48007B685B6A1800FFF7D1FB03001A000123C9
:101C58005340DBB2002B01D003232AE07B689B6A48
:101C68001800FFF7C3FB03001A0001235340DBB23F
:101C7800002B01D001231CE07B68DB691800FFF70B
:101C8800B5FB03001A0001235340DBB2002B01D03F
:101C980002230EE07B681B6A1800FFF7A7FB03000E
:101CA8001A0001235340DBB2002B01D0042300E0CB
:101CB80000231800BD4602B080BD80B586B000AFD5
:101CC800F860B9607A603B60FB680433F968042205
:101CD800180000F009FCFB68BA68DA61FB687A68EA
:101CE8001A62FB683A685A62FB683A6A9A62162373
:101CF800FB1800221A801623FB181B88032B0BD80D
:101D080016203B181B88FA680021D1543B181A8802
:101D18003B1801321A80EEE7FB681800BD4606B092
:101D280080BD0000B0B584B000AF78600F257C1985
:101D38007B68180000F01EF8030023700C4B1B781A
:101D48007A1912789A4210D0094B0F217A18127812
:101D58001A707B181B78002B07D00F23FB181A78F2
:101D68007B6811001800FFF751FFBD4604B0B0BDF5
:101D7800E800002080B582B000AF78607B6818006A
:101D8800FFF75AFF03001800BD4602B080BD80B5BA
:101D980084B000AFF860B9607A603B607A68B9686F
:101DA800FB681800FEF7BEFF3A68FB6811001800D0
:101DB800FEF7F3FFBD4604B080BD80B584B000AF28
:101DC80078600023FB607B681B69FA689A4209D82F
:101DD8007B685A69FB68D31820221A70FB680133A4
:101DE800FB60F0E7BD4604B080BD80B584B000AFAD
:101DF800F860B9607A603B60FB68BA681A60FB6893
:101E08007A685A60FB683A689A60FB6800221A741C
:101E1800BD4604B080BD80B584B000AFF860B9603D
:101E28007A603B60FB68BA685A60FB683A689A60F7
:101E3800FB687A68DA60FB68BA691A61FB68186936
:101E4800FB685968FB68DA68FB689B68FFF7CDFF99
:101E5800FB6800221A70BD4604B080BD80B582B010
:101E680000AF78600C4A7B681A607B6800225A6071
:101E78007B6800229A607B680022DA607B68002217
:101E88001A617B6800225A617B6800221A767B6897
:101E98001800BD4602B080BD5C3A000880B582B02B
:101EA80000AF78607B685B681800BD4602B080BDF3
:101EB80080B582B000AF786078689023DB05002297
:101EC8001900FEF7F3FC7B68083318009023DB0544
:101ED80001221900FEF7EAFC7B68103318009023F2
:101EE800DB0502221900FEF7E1FC7B6818331800B5
:101EF8009023DB0503221900FEF7D8FC7B6820330A
:101F0800A14904221800FEF7D1FC7B682833180089
:101F18009023DB0508221900FEF7C8FC7B683033E4
:101F2800994906221800FEF7C1FC7B6838339649A8
:101F380009221800FEF7BAFC7B6840339249072251
:101F48001800FEF7B3FC7B6848338F490822180055
:101F5800FEF7ACFC7B6850338C490F221800FEF763
:101F6800A5FC7B68583389490E221800FEF79EFCB1
:101F78007B68603385490D221800FEF797FC7B6863
:101F8800683382490C221800FEF790FC7B68703396
:101F98007E490B221800FEF789FC7B6878337B4961
:101FA8000A221800FEF782FC7B68803377490922F1
:101FB8001800FEF77BFC7B688833744908221800F8
:101FC800FEF774FC7B68903318009023DB0507222A
:101FD8001900FEF76BFC7B6898336D4900221800E6
:101FE800FEF764FC7B68A033694901221800FEF7FC
:101FF8005DFC7B68A833664902221800FEF756FC90
:102008007B68B03318009023DB0504221900FEF723
:102018004DFC7B68B83318009023DB0505221900B6
:10202800FEF744FC7B68C03318009023DB050622CA
:102038001900FEF73BFC7B68C83356490722180095
:10204800FEF734FC7B68D033524908221800FEF7AB
:102058002DFC7B68D8334F4909221800FEF726FC6F
:102068007B68E0334B490A221800FEF71FFC7B68A7
:10207800E83348490B221800FEF718FC7B68F03358
:1020880044490C221800FEF711FC7B68F8334149DB
:102098000D221800FEF70AFC7B680133FF333D4927
:1020A8000E221800FEF702FC7B680933FF3339491A
:1020B8000F221800FEF7FAFB7B681133FF33324911
:1020C80005221800FEF7F2FB7B681933FF3331490C
:1020D80002221800FEF7EAFB7B682133FF33180061
:1020E8009023DB050C221900FEF7E0FB7B682933FF
:1020F800FF33274906221800FEF7D8FB7B683133E7
:10210800FF33234907221800FEF7D0FB7B683933D9
:10211800FF331E4906221800FEF7C8FB7B684133CF
:10212800FF331A4905221800FEF7C0FB7B684933C4
:10213800FF33164904221800FEF7B8FB7B685133B9
:10214800FF3313490A221800FEF7B0FB7B685933A6
:10215800FF330F490B221800FEF7A8FB7B68613399
:10216800FF330D4902221800FFF7B2FB7B686D337D
:10217800FF33094903221800FFF7AAFB7B68180000
:10218800BD4602B080BDC04600080048000C0048AB
:1021980000040048001000480014004880B582B0D0
:1021A80000AF78607B6800225A827B6800221A752B
:1021B8007B681800BD4602B080BD000080B500AF46
:1021C800024B1800FFF7AEFDBD4680BD640200203B
:1021D80090B585B002AFFEF7B5FC2B4B1800FFF7A2
:1021E800B1FBFFF73DF8294B294A1A60274B6422B7
:1021F800DA60264B274A5A60244B274A9A60274BB5
:102208001B68224A1100180000F000FD234B1968D2
:10221800234B244A244801F08DF8FEF7DFF9030028
:102228007B60224B1C68204B1800FFF737FE01002B
:102238001F4A78681F4B00930B002100FFF7EBFD46
:102248007B689B681800FFF7B8FD7B689B680021D6
:102258001800FEF7BAFD7B689868174B002200212A
:10226800FFF795FD7B689868144B01220021FFF762
:102278008EFDFA23DB001800FEF768FBFEF792FCE0
:1022880000F05AFAFAE7C046EC00002020000020CF
:1022980000580040440200203C020020DC020020DC
:1022A800FC01002004020020E00200203000002091
:1022B8006402002010030020B0390008C439000867
:1022C80080B582B000AF7860054A7B681A607B6889
:1022D8001800FFF705F97B681800BD4602B080BDFD
:1022E800E039000880B582B000AF78607B681800DC
:1022F800FFF7E6FF7B680C21180001F019FA7B68EC
:102308001800BD4602B080BD80B582B000AF7860CD
:10231800054A7B681A607B681800FFF7E1F87B685C
:102328001800BD4602B080BDF839000880B582B0FB
:1023380000AF78607B681800FFF7E6FF7B68102124
:10234800180001F0F5F97B681800BD4602B080BDA1
:1023580090B585B002AF786039607B68012B5CD19D
:102368003B68394A934258D1384B1800BC235B006C
:102378001A00002101F0CEFA344B1800FFF798FD3F
:10238800334C344A34493548354B00932300FFF722
:1023980094FC344C344A35493548364B0093230075
:1023A800FFF760F9344C354A35493648364B0093C7
:1023B8002300FFF757F92E4A344B11001800FFF796
:1023C80064FA304A324B11001800FFF7FDF9314A20
:1023D8003149324B1800FFF79FF800F00FFC02005C
:1023E8002F4B1A602F4B1800FFF738FD274B2B4A4D
:1023F80027492D48FFF7ECFB2C4B180018231A002F
:10240800002101F087FA294B1800FFF7C7FE284A78
:1024180028480A23022100F0BDF97B68002B0FD160
:102428003B68094A93420BD11E4B180000F056FF37
:102438001A4B1800FFF768FF154B1800FFF740FF0D
:10244800BD4603B090BDC046FFFF0000EC00002071
:102458008C010020840100207C01002064020020FF
:1024680094010020440100205C0100203C01002070
:102478009002002064010020540100206C0100201B
:102488004C010020A402002074010020B8020020A2
:10249800C00200201C01002024010020CC020020E2
:1024A800DC020020E0020020FC02002010030020D3
:1024B800C52100082803002080B500AF034B190090
:1024C8000120FFF745FFBD4680BDC046FFFF000065
:1024D80080B500AF034B19000020FFF739FFBD4658
:1024E80080BDC046FFFF000080B584B000AFF86033
:1024F800B9607A60FB680B4A1A61FB68094A9A82DC
:10250800FB687A681A60FB68BA68DA60FB680022C0
:102518009A60FB6800225A60FB681800BD4604B048
:1025280080BDC04600FFFFFF80B584B000AF786073
:102538000A00FB1C1A707B685B68FB607B689B6801
:10254800BB60FB680133BA689A4201D100231EE0E0
:10255800BB68002B07D17B681B68013BFA689A426D
:1025680001D1002313E07B68DA68FB68591CF96025
:10257800D318FA1C12781A707B681B68FA689A429A
:1025880001D2FA6800E000227B685A600123180033
:10259800BD4604B080BD80B586B000AF78607B686A
:1025A8009B687B617B685B683B617A693B699A429F
:1025B80002D17B689B8A17E07B68DA687B69591CC3
:1025C8007961D2180F23FB1812781A707B681B6880
:1025D8007A699A4201D27A6900E000227B689A609F
:1025E8000F23FB181B789BB21800BD4606B080BDB0
:1025F80080B584B000AF786039603B68002B01D1AA
:10260800002323E00F23FB1801221A703B681800EF
:10261800FEF71CFB031E16D03B681800FFF7BBFF34
:102628000300DAB27B6811001800FFF77DFF030092
:102638001A0001235340DBB2002BE7D00F23FB180D
:1026480000221A70E2E70F23FB181B781800BD461A
:1026580004B080BD80B584B000AF78607B689B68AB
:10266800FB607B685B68BB60BA68FB689A4203D30F
:10267800BA68FB68D31A05E07B681A68FB68D21A47
:10268800BB68D3181800BD4604B080BD80B582B0C1
:1026980000AF7860034A7B681A607B681800BD4603
:1026A80002B080BD283A000880B582B000AF7860DB
:1026B8007B681800FFF7EAFF7B681C21180001F00F
:1026C80037F87B681800BD4602B080BD80B584B07D
:1026D80000AF7860164B1A687B68D218144B1A60E2
:1026E800144B1B68FB60FB68002B1DD0FB685B7CF0
:1026F800022B15D1FB681B687A689A429B415B42A2
:10270800DBB2002B06D0FB681A687B68D21AFB681C
:102718001A6005E0FB6801225A74FB6800221A60FF
:10272800FB689B68FB60DEE7BD4604B080BDC04621
:10273800400300203C03002080B582B000AF144B5A
:102748001B687B607B68002B1ED07B685B7C012B41
:1027580016D17B681B7C012B0CD0022B10D17B6817
:102768005A687B681A607B6802225A747B68DB6847
:10277800984705E07B6800225A747B68DB689847B5
:102788007B689B687B60DDE7BD4602B080BDC046C4
:102798003C03002080B586B000AFF8607A603B60EB
:1027A8000B203B180A1C1A70FB6800225A74FB683D
:1027B8003A1812781A74FB687A68DA60FB683A6823
:1027C8005A60184B1B68002B0AD1164BFA681A601E
:1027D800144B1B6800229A60FB6802225A741BE0A3
:1027E800104B1B687B617B699B68002B07D07A695B
:1027F800FB689A4210D07B699B687B61F3E77A6932
:10280800FB689A4208D0FB6800229A607B69FA68E4
:102818009A60FB6802225A74FB681800BD4606B02D
:1028280080BDC0463C03002080B500AF0120FFF703
:102838004DFFBD4680BD90B585B000AF786039606A
:102848000B23FB1830221A700A23FB1823221A7054
:102858007B68FB6002E0FB680133FB60FB681B7868
:102868005BB2002BF7D143E0FB68013BFB60FB68E0
:102878001B785BB20B22BA18127852B29A4208D06F
:10288800FB681B785BB20A22BA18127852B29A42D5
:102898002ED13B680A21180001F036F80B001A0007
:1028A80009243B191A703B680A21180000F0A6FF9A
:1028B80003003B603B191B78002B0FD13B68002BB2
:1028C8000CD1FB681B785BB20A22BA18127852B294
:1028D8009A420CD1FB6820221A7009E00923FB18E0
:1028E8001B783033DBB25AB2FB681A7000E0C0467E
:1028F800FA687B689A42B7D83B685A425341DBB2C0
:102908001800BD4605B090BD80B586B000AFF86030
:10291800B960FB1D1A70BB685A1CBA6000229A562F
:1029280017217B181A707B181B78002B0DD1FB1D03
:102938001B78002B07D0FB685A1CFA601722BA18BC
:10294800127852B21A70FB6808E0FB685A1CFA60E9
:102958001722BA18127852B21A70DCE71800BD466E
:1029680006B080BD80B584B000AFF860B9607A6009
:10297800F9687B6801221800FFF7C6FFBA687B6810
:1029880011001800FFF757FF03001800BD4604B0F8
:1029980080BD000080B582B000AF0200FB1D1A7038
:1029A800FB1D1B785BB21F221A40044B012191408A
:1029B8000A001A60BD4602B080BDC04600E100E0D2
:1029C80090B583B000AF02003960FB1D1A70FB1D83
:1029D8001B785BB2002B36DA314AFB1D1B785BB2E1
:1029E80019000F230B40083B9B0806339B00D318A4
:1029F80004331B68FA1D127852B2110003220A40F0
:102A0800D200FF2191400A00D2431A4011003B68CE
:102A18009B01FF221A40FB1D1B785BB218000323A1
:102A28000340DB009A401E48FB1D1B785BB21C006C
:102A38000F232340083B9B080A4306339B00C31817
:102A480004331A6029E0174AFB1D1B785BB29B0808
:102A5800C0339B009B58FA1D127852B21100032212
:102A68000A40D200FF2191400A00D2431A401100C7
:102A78003B689B01FF221A40FB1D1B785BB21800C4
:102A880003230340DB009A400648FB1D1B785BB21A
:102A98009B080A43C0339B001A50BD4603B090BD43
:102AA80000ED00E000E100E080B588B000AF78609C
:102AB8000A00FB1C1A70FB1C1B78072B01D900238A
:102AC80052E00723FB61FB1C1B78BB617B689B887A
:102AD800072B1FD87B689B88DAB217217B189200D6
:102AE8001A707B681B681B6A3B617B181B7807227E
:102AF8009A401300DA433B6913403B617B181B780B
:102B0800BA699A4013003A6913433B617B681B68B2
:102B18003A691A627B689B88072B24D97B689B8853
:102B28000F2B20D87B689B88083BDAB20F217B18D3
:102B380092001A707B681B685B6ABB607B181B7805
:102B480007229A401300DA43BB681340BB607B1826
:102B58001B78BA699A401300BA681343BB607B6854
:102B68001B68BA685A6201231800BD4608B080BDC8
:102B780080B582B000AF78607B6800225A607B68BD
:102B880000229A60BD4602B080BD80B582B000AF19
:102B980078607B6800221A607B6800225A607B6834
:102BA80000221A817B6800229A727B681800BD4651
:102BB80002B080BD80B582B000AF78600A00FB1C0F
:102BC8001A70FB1C1B78002B03D17B6800229A72B9
:102BD80003E07B68FA1C12789A72BD4602B080BD89
:102BE80080B582B000AF78607B689B7ADBB25A1EF2
:102BF8009341DBB21800BD4602B080BD80B500AF7E
:102C0800014B1800BD4680BD4403002080B582B04A
:102C180000AF786039607B683A681A607B681B6827
:102C28001B685A425341DBB2002B01D000231CE041
:102C38003B685B68002B01D1002316E03B689B686A
:102C4800002B01D1002310E07B681B68DB685A4227
:102C58005341DBB2002B03D07B681B686422DA6027
:102C68007B68180000F006F803001800BD4602B0A3
:102C780080BD000080B586B002AF78607B685C4A92
:102C88005A607B6800211800FFF794FF80239B039C
:102C9800FB607B681B681B68564A944663445A422B
:102CA8005341DBB2002B02D08023DB03FB60524B85
:102CB800D969FA68504B0A43DA614F4BDB69FA6805
:102CC8001340BB60BB687B681B681B681A680121DE
:102CD8008A431A607B681B681B681B6801221340C3
:102CE8005A1E9341DBB2002BF4D17B681B689868AD
:102CF80003230093012301220221FEF78DFB7B6849
:102D08001B68586803230093012301220221FEF760
:102D180083FB7B681B689B6801211800FFF7C4FED2
:102D28007B681B685B6801211800FFF7BDFE7B68A4
:102D38001B681B681A68802149010A431A607B686E
:102D48001B681B681B682D4A1A407B681B681B6838
:102D5800802149000A431A607B681B681B68284A5F
:102D6800944663445A425341DBB2002B07D00321F7
:102D78001720FFF725FE1720FFF70CFE14E07B68ED
:102D88001B681B681B4A944663445A425341DBB292
:102D9800002B07D003211820FFF712FE1820FFF799
:102DA800F9FD01E000231EE07B681B681B681A68B8
:102DB80014490A401A607B681B681B68124A1A612A
:102DC8007B681B681B681A6801210A431A607B68C4
:102DD8001B681B681B68012213405A425341DBB22F
:102DE800002BF4D101231800BD4604B080BDC046B5
:102DF800B403002000A8FFBF00100240FFF0FFFF4F
:102E080000ACFFBFFFFFFDFF271A106080B584B03C
:102E180000AF78607B681B681B68FB607B685B6839
:102E2800BB60FB689B69102213405A1E9341DBB2BA
:102E3800002B0AD07B6805211800FFF7BBFEFB6852
:102E4800DB6910221A43FB68DA61FB689B6904227C
:102E580013405A1E9341DBB2002B09D07B681B68D4
:102E68001B685B6ADAB2BB6811001800FFF75CFBED
:102E7800FB689B69022213405A1E9341DBB2002B68
:102E880009D0BB681800FFF786FB0300DAB27B683D
:102E98001B681B689A62FB689B69202213405A1EB4
:102EA8009341DBB2002B0AD0FB68DB6920221A436E
:102EB800FB68DA617B6800211800FFF77BFEBD46DE
:102EC80004B080BD80B584B000AF786039607B689D
:102ED8001800FFF785FE031E01D0002366E07B681B
:102EE80001211800FFF766FE7B685B681800FFF792
:102EF8003FFE7B685B683A6811001800FFF778FBB3
:102F08007B681B681B685A682A490A405A607B68B4
:102F18001B681B685A6828490A405A607B681B6806
:102F28001B685B689B0A9A027B681B899BB2190025
:102F38007B681B681B680A435A607B681B681B68B0
:102F48005A681E490A405A607B681B681B685A68A1
:102F5800802189040A435A607B685B681800FFF780
:102F680079FB0300FB60FB68FF2B01D9FF23FB60A3
:102F78007B681B681B685B68114A13401900FB6873
:102F88001A047B681B681B680A435A607B681B68C5
:102F98001B681A6822210A431A607B681B681B6831
:102FA8005A68802189010A435A6001231800BD46E6
:102FB80004B080BDFFFBFFFFFFF7FFFFFFEFFFFF40
:102FC800FFFF00FF80B500AF024B1800FFF71EFFA0
:102FD800BD4680BD4403002080B500AF024B1800F9
:102FE800FFF714FFBD4680BD4403002080B582B0C2
:102FF80000AF786039607B68012B0DD13B68084AC7
:10300800934209D1074B1800FFF7BFFD0649074B4C
:1030180064221800FFF768FABD4602B080BDC046BA
:10302800FFFF00004403002050030020B4030020E9
:1030380080B500AF034B19000120FFF7D7FFBD464D
:1030480080BDC046FFFF000080B584B000AFF860C7
:10305800B9607A603B600F4AFB681A60FB68BA681F
:103068009A60FB687A68DA60FB683A685A61FB68BC
:10307800DA68FB689B685A43FB681A61FB680022A0
:103088005A60FB6800221A76FB681800BD4604B037
:1030980080BDC046283A000880B582B000AF78608D
:1030A8007B68DB681800BD4602B080BD80B582B081
:1030B80000AF78607B689B681800BD4602B080BD91
:1030C80080B582B000AF78607B685B691800BD4648
:1030D80002B080BD80B588B000AFF860B9607A6092
:1030E800FB681800FFF7E2FF0300BB61FB681800EC
:1030F800FFF7D2FF0100BA6800238A425B41DBB2C6
:10310800002B01D000231DE0BB68BA6953437B61E3
:103118000023FB61FA69BB699A4212D2FB68180066
:10312800FFF7CEFF01007A69FB69D318CB181A782C
:103138007B6811001800FFF7F7F9FB690133FB61A1
:10314800E8E701231800BD4608B080BD80B582B00D
:1031580000AF78600A00FB1C1A70FB1C1B78002B60
:1031680004D07B681800FEF722F903E07B6818009A
:10317800FEF72DF9BD4602B080BD80B582B000AF24
:1031880078600A00BB1C1A807B68BA1C12881A81F6
:10319800BD4602B080BD80B582B000AF78603960AE
:1031A8003A687B6811001800FFF78CFE03001800CE
:1031B800BD4602B080BD80B582B000AF78600A001D
:1031C800FB1C1A70FB1C1A787B681100180000F0B1
:1031D80098F903001800BD4602B080BD80B582B0E2
:1031E80000AF78607B68DB681800FFF7F9FC030024
:1031F8001800BD4602B080BD80B582B000AF7860CF
:103208000A00FB1C1A707B685A69FB1C1B781900A2
:103218001000FFF79BFFBD4602B080BD80B582B0AD
:1032280000AF78600A00FB1C1A707B681A69FB1CE7
:103238001B7819001000FFF789FFBD4602B080BD5A
:1032480080B584B000AF786008001100FB1C021C38
:103258001A70BB1C0A1C1A70FB1C1B78102B01D996
:10326800002324E00023FB60BB1C1B78022B06D044
:10327800032B07D0012B08D14023FB6007E0102364
:10328800FB6004E05023FB6001E00023FB60FB6867
:10329800DAB2FB1C1B781343DBB280225242134381
:1032A800DAB27B681100180000F02BF9030018004F
:1032B800BD4604B080BD80B500AF00F003F8BD4640
:1032C80080BD000080B500AF034B1B68180000F0FC
:1032D80059F9BD4680BDC046CC03002080B582B0F8
:1032E80000AF7860034A7B681A607B681800BD46A7
:1032F80002B080BD5C3A000880B582B000AF78604B
:103308007B681800FFF7EAFF7B681C21180000F0B3
:103318000FFA7B681800BD4602B080BD80B582B048
:1033280000AF786039603B681800FDF743FCBD4684
:1033380002B080BD80B586B002AFF860B9607A602F
:103348003B60534BFA681A60FB687A681A61FB683D
:103358003A685A61FB681869022300930023002227
:103368000121FEF759F8FB685869022300930023EE
:1033780001220121FEF750F8FB68464A5A60FB68B3
:10338800454A9A60FB6800221A76FB68BA68DA60D8
:10339800FB68DB687C211800FFF7EFFEFB68012162
:1033A8001800FFF73BFFFB6800211800FFF724FF18
:1033B800FB6832211800FFF7B1FFFB6801211800F4
:1033C800FFF71AFFFB6864211800FFF7A7FFFB68E7
:1033D8003821180000F095F896235A00FB68110070
:1033E8001800FFF79BFFFB683921180000F089F8E7
:1033F80096235A00FB6811001800FFF78FFFFB683F
:103408001421180000F07DF8FB6864211800FFF70C
:1034180085FFFB687921180000F073F8FB686421C8
:103428001800FFF77BFFFB685021180000F069F8CF
:10343800FB6864211800FFF771FFFB686C21180016
:1034480000F05FF8FB6864211800FFF767FFFB686E
:103458000C21180000F055F8FB6864211800FFF7EC
:103468005DFFFB680121180000F04BF8FB68642140
:103478001800FFF753FFFB683821180000F041F8E7
:10348800FB6864211800FFF749FFBD4604B080BD02
:10349800CC0300200C0400205004002080B582B02A
:1034A80000AF786008001100FB1C021C1A70BB1CDE
:1034B8000A1C1A707B689B681800FFF759FB7B6829
:1034C8009A68FB1C1B78002B01D0002300E04023E6
:1034D80019001000FFF728F87B689A68BB1C1B7856
:1034E80019001000FFF720F87B68DA687B689B6892
:1034F80019001000FFF7E6FC03001800BD4602B0F3
:1035080080BD80B582B000AF78600A00FB1C1A70DD
:10351800FB1C1A787B6801211800FFF7BFFF030026
:103528001800BD4602B080BD80B582B000AF78609B
:1035380039607B689B681800FFF71AFB7B689B68FB
:1035480040211800FEF7F0FF7B6858687B689A688E
:103558003B681900FFF7BEFD03001A000123534022
:10356800DBB2002B01D0002308E07B68DA687B68B7
:103578009B6819001000FFF70EFE03001800BD46F7
:1035880002B080BD80B584B000AF78600F217B1891
:103598007A68127E1A707B181B78082B65D89A00F7
:1035A800394BD3181B689F467B6802221A7667E05E
:1035B8007B681800FFF712FE03001A00012353402E
:1035C800DBB2002B55D07B6802211800FFF7F3FD12
:1035D8007B6803221A7653E07B6804221A764FE050
:1035E8007B681800FFF7FAFD03001A000123534017
:1035F800DBB2002B3FD07B6800211800FFF794FF57
:103608007B6805221A763BE07B6806221A7637E04B
:103618007B681800FFF7E2FD03001A0001235340FE
:10362800DBB2002B29D07B68012200211800FFF7AC
:1036380007FE7B6807221A7622E07B6808221A7642
:103648001EE07B681800FFF7C9FD03001A0001237C
:103658005340DBB2002B12D07B6801211800FFF722
:1036680063FF7B6800221A760AE07B6800221A76DC
:1036780006E0C04604E0C04602E0C04600E0C0469E
:10368800BD4604B080BDC046303A000880B582B05F
:1036980000AF786039607B68012B15D13B68114A0F
:1036A800934211D1104A114896230221FFF772F86C
:1036B8000F4B104802221021FFF7C6FC0E490F4B92
:1036C80025221800FEF710FF7B68002B07D13B6806
:1036D800044A934203D1074B1800FEF7D7FFBD46B3
:1036E80002B080BDFFFF0000BF320008D0030020F9
:1036F800E40300200C0400202804002050040020CB
:1037080080B500AF034B19000120FFF7BFFFBD468E
:1037180080BDC046FFFF000080B500AF034B190015
:103728000020FFF7B3FFBD4680BDC046FFFF000085
:1037380010B500F001F810BD10B500F001F810BD8B
:1037480010B5034B0100186800F004F810BDC0461E
:103758003400002070B50500002910D00C1F236824
:10376800002B00DAE418280000F045F81D4A136819
:10377800002B05D163601460280000F03DF870BD8F
:10378800A34209D9216860188342F3D118685B689D
:1037980041182160EEE713005A68002A01D0A242BE
:1037A800F9D919685818A0420BD120680918581877
:1037B80019608242E0D110685268411819605A6055
:1037C800DAE7A04202D90C232B60D5E721686018FC
:1037D800824203D1106852684118216062605C60BF
:1037E800CAE7C046680400200023C25C0133002AEF
:1037F800FBD1581E704770477047000000224308ED
:103808008B4274D303098B425FD3030A8B4244D3A0
:10381800030B8B4228D3030C8B420DD3FF220902E2
:1038280012BA030C8B4202D31212090265D0030BA1
:103838008B4219D300E0090AC30B8B4201D3CB0397
:10384800C01A5241830B8B4201D38B03C01A5241D9
:10385800430B8B4201D34B03C01A5241030B8B42DB
:1038680001D30B03C01A5241C30A8B4201D3CB02C6
:10387800C01A5241830A8B4201D38B02C01A5241AB
:10388800430A8B4201D34B02C01A5241030A8B42AE
:1038980001D30B02C01A5241CDD2C3098B4201D3C6
:1038A800CB01C01A524183098B4201D38B01C01A44
:1038B800524143098B4201D34B01C01A52410309BB
:1038C8008B4201D30B01C01A5241C3088B4201D36A
:1038D800CB00C01A524183088B4201D38B00C01A17
:1038E800524143088B4201D34B00C01A5241411A3E
:1038F80000D20146524110467047FFE701B500204B
:1039080000F006F802BDC0460029F7D076E77047F8
:103918007047C04603001218934200D170471970CF
:103928000133F9E75F5F6378615F707572655F7691
:1039380069727475616C000061626F727428292C59
:103948002065786974696E672E2E2E00320900088A
:103958003209000822090008240900082C09000877
:103968004C49435A4E494B3A2030303030303020A1
:1039780000000000202020204D415254454348209B
:103988002020202000000000000000000000FFFFB1
:10399800010000000000FFFF020000000100FFFF1F
:1039A800030000000000010020537465726F776EF9
:1039B800696B206272616D2000000000706F7A618F
:1039C800726F7779636820762E312E300000000000
:1039D8000000000000000000051800087F1800081B
:1039E800C9220008ED2200080000000000000000C5
:1039F8005D150008C71500081123000835230008C5
:103A08000000000000000000D9020008D9020008E8
:103A1800000000000000000000000000000000009E
:103A280095260008B1260008B0350008B035000812
:103A3800B8350008E0350008E835000810360008F9
:103A480018360008423600084A3600080000000010
:0C3A580000000000E53200080133000807
:103A640078563412A000002000000000006CDC0234
:103A7400000000000000000001020304060708091A
:103A840000000000000000000000000064000000CE
:103A9400FC020020380000200000000000000000AC
:103AA4000000000000000000000000000000000012
:103AB4000000000000000000000000000000000002
:103AC40000000000000000000000000000000000F2
:103AD40000000000000000000000000000000000E2
:103AE40000000000000000000000000000000000D2
:0C3AF40000000000000000003254769832
:04000005080000C52A
:00000001FF
