:020000040800F2
:100000000040002041020008490200085102000897
:1000100000000000000000000000000000000000E0
:10002000000000000000000000000000770200084F
:1000300000000000000000007F020008DD3300081F
:10004000870200088702000887020008870200086C
:10005000870200088702000887020008870200085C
:10006000870200088702000887020008870200084C
:10007000870200088702000887020008870200083C
:10008000870200088702000887020008870200082C
:10009000870200088702000887020008793B0008F1
:1000A0008D3B0008870200088702000887020008CD
:1000B00087020008870200088702000887020008FC
:1000C0005FF808F180B58EB000AF00F031F94A4B0F
:1000D0004A4A1A604A4B494A1A604A4B3B634A4BA8
:1000E000FB624A4BBB62FB6A7B6207E03A6B131D03
:1000F0003B637B6A191D796212681A60BA6A7B6A6F
:100100009A42F3D83C4B1B68414A934204D13C4B82
:100110001B68404A934200D0FEE73F4B374A1A60C3
:100120003E4B364A1A603E4B3B623E4BFB613B6A9C
:10013000BB6104E0BB691A1DBA6100221A60FA694A
:10014000BB699A42F6D8344B1B68002B03D1334B62
:100150001B68002B00D0FEE700F0F0F83A003B1DD2
:100160001100180000F0D4F82F4A304BD31A9B101E
:10017000FB600023BB6007E02C4BBA689200D358A9
:100180009847BB680133BB60FA68BB689A42F3DCEE
:10019000274A284BD31A9B10FB600023BB6007E063
:1001A000244BBA689200D3589847BB680133BB60B0
:1001B000FA68BB689A42F3DC7B683A681100180061
:1001C00002F0BEFD03007B631B4A1C4BD31A9B103D
:1001D0007B617B693B6108E03B695A1E174B9200CB
:1001E000D35898473B69013B3B613B69002BF3DCEB
:1001F0007B6B180000F07CF800000020BABADECA61
:10020000A00000204446000800000020A4000020B8
:100210007856341232547698A4000020A4040020AA
:10022000A4000020A8040020BC020008BC020008B2
:10023000D4020008BC020008DC020008D402000856
:1002400080B500AFFFF73EFF80B500AF00BEFEE710
:1002500004207146084202D0EFF3098001E0EFF379
:10026000088071460A4A104780B582B000AF7860B6
:10027000396000BEFEE780B500AF00BEFEE780B586
:1002800000AF00BEFEE780B500AF00BEFEE7000095
:0402900069020008F7
:100294004446000800000020A40000204446000852
:1002A4000000000000000000A4000020A8040020BA
:1002B400000000000000000081090008650F00082C
:1002C4001120000861300008E53B00088542000861
:0802D400793000089D4200088A
:1002DC0080B582B000AF024B7B6000F009F8C046DD
:1002EC00A844000880B582B000AF7860FEE700003B
:1002FC0080B582B000AF024B7B600120FFF7F2FFAC
:10030C00BC44000880B582B000AF786039607B686F
:10031C0001221A603B68024A1A60BD4602B080BDD9
:10032C000400002080B500AF00F008F8BD4680BD89
:10033C0080B500AF00F048F8BD4680BD80B500AF79
:10034C001B4B1A681A4B01210A431A60184B5A6846
:10035C00174B18490A405A60154B1A68144B16492A
:10036C000A401A60124B1A68114B14490A401A6061
:10037C000F4B5A680E4B12490A405A600C4BDA6A02
:10038C000B4B0F218A43DA62094B1A6B084B0D4950
:10039C000A401A63064B5A6B054B01218A435A6378
:1003AC00034B00229A6000F07DF8BD4680BDC0462C
:1003BC00001002400CB8FF08FFFFF6FEFFFFFBFF2A
:1003CC00FFFFC0FFACFEFFFF80B584B000AF002381
:1003DC00FB600023BB6000237B6000233B602D4B44
:1003EC005B680C221340FB60FB68042B07D0082BC6
:1003FC0009D0002B38D1284B284A1A6037E0264BFD
:10040C00264A1A6033E0234B5A68F0239B031340AF
:10041C00BB60204B5A68C0235B0213407B60BB68F7
:10042C009B0C0233BB607B68002B0CD1B9680A00B3
:10043C005201521A93019B1ADB005B181B021A0023
:10044C00154B1A6013E0134BDB6A0F221340013378
:10045C003B603968114803F08DFF03001A00BB683C
:10046C005A430D4B1A6002E00B4B0C4A1A60094BB5
:10047C005B681B090F221340094AD35CDBB2FB609B
:10048C00054B1A68FB68DA40034B1A60BD4604B092
:10049C0080BDC046001002400C00002000127A0003
:1004AC001000002080B582B000AF00237B600023D9
:1004BC003B60304B1A682F4B802149020A431A606B
:1004CC002C4B1A6880239B0213403B607B680133E2
:1004DC007B603B68002B04D17A68A023DB019A4235
:1004EC00EED1244B1A6880239B02134002D00123C7
:1004FC003B6001E000233B603B68012B36D11E4B77
:10050C0011221A601B4A1B4B52685A60194A194B2C
:10051C0052685A60174B5A68164B18490A405A6071
:10052C00144B5A68134B882149030A435A60114BE8
:10053C001A68104B802149040A431A600D4B1A6843
:10054C0080239B041340F9D00A4B5A68094B0321B2
:10055C008A435A60074B5A68064B02210A435A6079
:10056C00044B5B680C221340082BF9D1BD4602B03A
:10057C0080BDC0460010024000200240FF7FC0FF3B
:10058C0080B582B000AF78607B689B881A0001232D
:10059C0093401A007B681B689A61BD4602B080BD0F
:1005AC0080B582B000AF78607B689B8810330122E5
:1005BC009A407B681B689A61BD4602B080BD80B5CD
:1005CC0082B000AF78600A00FB1C1A70FB1C1B7811
:1005DC00002B04D07B681800FFF7D2FF03E07B6888
:1005EC001800FFF7DDFFBD4602B080BD80B582B0BC
:1005FC0000AF78607B681B681B8A9BB21A007B6813
:10060C009B881A411300012213405A1E9341DBB2FE
:10061C001800BD4602B080BD80B582B000AF7860D6
:10062C000A00FB1C1A707B68FA1C12781A73BD4600
:10063C0002B080BD90B585B000AF786039607B6842
:10064C009A683B68D2187B689A607B689B68404AC2
:10065C00934209D97B689B686421180003F010FF52
:10066C000B001A007B689A607B689B6864211800F9
:10067C0003F080FE03001A000F23FB181A707B682E
:10068C001B7B062B5ED89A00324BD3181B689F46F7
:10069C007B681800FFF774FF57E07B681800FFF7C2
:1006AC007FFF52E078680F23FB181A78042100238F
:1006BC0091425B41DBB21900FFF781FF45E07A689C
:1006CC000F23FB181B785B10190001230B40591EDC
:1006DC008B41DBB219001000FFF771FF35E0786831
:1006EC000F23FB181B78012213405A1E9341DBB2D7
:1006FC001900FFF764FF28E07A680F23FB181B78BA
:10070C0059424B41DBB219001000FFF758FF1CE0B7
:10071C007C680F23FB181B78032213400AD00F238D
:10072C00FB181B780321180003F0AAFE0B00DBB2A8
:10073C00002B01D1012300E0002319002000FFF75A
:10074C003EFF02E07B6803221A73BD4605B090BDE4
:10075C00E7030000D044000880B582B000AF786099
:10076C007B685B6A1800FFF741FF03001A00012346
:10077C005340DBB2002B01D003232AE07B689B6A39
:10078C001800FFF733FF03001A0001235340DBB2BC
:10079C00002B01D001231CE07B68DB691800FFF7FC
:1007AC0025FF03001A0001235340DBB2002B01D0BC
:1007BC0002230EE07B681B6A1800FFF717FF03008B
:1007CC001A0001235340DBB2002B01D0042300E0BC
:1007DC0000231800BD4602B080BD80B582B000AFCA
:1007EC0078607B681800FFF7B7FF03001800BD4660
:1007FC0002B080BD80B582B000AF78607B6800220B
:10080C001A607B6800225A607B6800229A607B68C1
:10081C000022DA607B6800221A617B6800225A6130
:10082C007B6800229A617B680022DA617B68002277
:10083C001A627B681800BD4602B080BD80B582B0DC
:10084C0000AF78600A00FB1C1A707B681A6AFB1CEC
:10085C001B7819001000FFF7B2FEBD4602B080BD38
:10086C0080B582B000AF78607B681B68254A9342E4
:10087C0010D87B681B685A1D7B681A607B689B6963
:10088C0006211800FFF7C8FE7B68DB6906211800FB
:10089C00FFF7C2FE7B681B691800FFF79EFF030081
:1008AC005A1E9341DBB2002B02D07B6800225A60A7
:1008BC007B685B68144A93420AD87B685B685A1D54
:1008CC007B685A607B6801211800FFF7B7FF04E0D2
:1008DC007B6800211800FFF7B1FF7B689B6905213D
:1008EC001800FFF7A7FE7B68DB6905211800FFF7EE
:1008FC00A1FE7B685B69180000F0CCFCBD4602B021
:10090C0080BDC046871300000F27000080B500AFE4
:10091C00024B1800FFF7A4FFBD4680BDAC000020C1
:10092C0080B500AF014B1800BD4680BDAC00002067
:10093C0080B582B000AF786039607B68012B0DD137
:10094C003B68084A934209D1074B1800FFF752FF46
:10095C00064A07480523022102F0F0FCBD4602B00E
:10096C0080BDC046FFFF0000AC0000201909000844
:10097C00D000002080B500AF034B19000120FFF719
:10098C00D7FFBD4680BDC046FFFF000090B583B0C9
:10099C0000AF02003960FB1D1A70FB1D1B785BB2A7
:1009AC00002B36DA314AFB1D1B785BB219000F2382
:1009BC000B40083B9B0806339B00D31804331B6881
:1009CC00FA1D127852B2110003220A40D200FF2104
:1009DC0091400A00D2431A4011003B689B01FF2250
:1009EC001A40FB1D1B785BB2180003230340DB008D
:1009FC009A401E48FB1D1B785BB21C000F23234042
:100A0C00083B9B080A4306339B00C31804331A6047
:100A1C0029E0174AFB1D1B785BB29B08C0339B0077
:100A2C009B58FA1D127852B2110003220A40D200D0
:100A3C00FF2191400A00D2431A4011003B689B01F0
:100A4C00FF221A40FB1D1B785BB2180003230340E6
:100A5C00DB009A400648FB1D1B785BB29B080A43DF
:100A6C00C0339B001A50BD4603B090BD00ED00E0B2
:100A7C0000E100E080B582B000AF78607B68013B9C
:100A8C000C4A934201D9012310E00B4B7A68013ACE
:100A9C005A6001235B4203211800FFF777FF064BD6
:100AAC0000229A60044B07221A6000231800BD46EE
:100ABC0002B080BDFFFFFF0010E000E080B582B007
:100ACC0000AF78600A00FB1C1A707B681B681A6800
:100ADC007B689B885B00032199400B00D9437B68A2
:100AEC001B680A401A607B681B681968FB1C1A7823
:100AFC007B689B885B009A407B681B680A431A6082
:100B0C00BD4602B080BD80B582B000AF78600A00EF
:100B1C00FB1C1A707B681B689A687B689B885B005F
:100B2C00032199400B00D9437B681B680A409A60EB
:100B3C007B681B689968FB1C1B781A007B689B8878
:100B4C005B009A407B681B680A439A60BD4602B002
:100B5C0080BD80B582B000AF78600A00FB1C1A70B3
:100B6C007B681B68DA687B689B885B000321994073
:100B7C000B00D9437B681B680A40DA607B681B68F2
:100B8C00D968FB1C1A787B689B885B009A407B6851
:100B9C001B680A43DA60BD4602B080BD80B582B0E6
:100BAC0000AF78600A00FB1C1A707B681B689B887E
:100BBC009AB27B689B88190001238B409BB2DB4364
:100BCC0099B27B681B680A4092B29A807B681B685A
:100BDC009B8899B2FB1C1B787A68928893409AB2D6
:100BEC007B681B680A4392B29A80BD4602B080BDF6
:100BFC0080B584B000AFF860B960BB1D1A80FB688B
:100C0C00BA681A60FB68BA1D12889A80FB680321C7
:100C1C001800FFF753FFFB6800211800FFF799FF3E
:100C2C00FB6800211800FFF76EFFFB68012118001C
:100C3C00FFF7B4FFFB681800BD4604B080BD000090
:100C4C0080B582B000AF0200FB1D1A70FB1D1B7833
:100C5C00042B0CD89A00074BD3181B689F46FEE751
:100C6C00054B01221A7002E0034B01221A70BD469B
:100C7C0002B080BDEC440008F400002080B500AF49
:100C8C00024B1B681800BD4680BDC046780300208F
:100C9C0080B584B000AF7860FFF7F0FF0300FB6015
:100CAC00FFF7ECFF0200FB68D21A7B689A429B416B
:100CBC005B42DBB2002B02D002F00CFBF0E7BD462E
:100CCC0004B080BD80B584B000AF7860FFF7D6FF6C
:100CDC000300FB60FFF7D2FF0200FB68D21A7B68AF
:100CEC009A429B415B42DBB2002BF3D1BD4604B070
:100CFC0080BD000080B584B000AF78607B68084A86
:100D0C009A429B415B42DBB2FB60064BFA681A606D
:100D1C00044BFA6810210A431A60BD4604B080BD2A
:100D2C0000366E010020024080B582B000AF7860C2
:100D3C0039603A4B1A68394B01210A431A60374B18
:100D4C001B68022213405A425341DBB2002BF6D1EE
:100D5C00324B5A68314B03218A435A602F4B5B68E4
:100D6C000C2213405A1E9341DBB2002BF6D12B4BB5
:100D7C001A682A4B802149020A431A60274B1A68C9
:100D8C0080239B0213405A425341DBB2002BF5D116
:100D9C003B681800FFF7AEFF204B214A5A601F4BEF
:100DAC000022DA621D4B1A681C4B802149040A434D
:100DBC001A601A4B1A6880239B0413405A42534101
:100DCC00DBB2002BF5D1154B5A68144B02210A43A8
:100DDC005A60124B5B680C221340083B5A1E93411D
:100DEC00DBB2002BF5D10D4B5A680C4B02210A4398
:100DFC005A600A4B5B680C221340083B5A1E934105
:100E0C00DBB2002BF5D1054B5A68044B01210A408B
:100E1C005A6001231800BD4602B080BD001002408C
:100E2C000000118080B582B000AF00237B60154BB1
:100E3C005A69144BFC21C9030A435A61114B5B6973
:100E4C007B607B680F4BDA690E4B802189030A4368
:100E5C00DA610C4BDA6980239B0313407B607B685F
:100E6C00084B9A69074B802189000A439A61054B0C
:100E7C009A6980239B0013407B607B68BD4602B05F
:100E8C0080BDC0460010024080B500AF114A124B25
:100E9C0011001800FFF748FFFFF796FAFFF7C2FFA3
:100EAC000E4B1A68FA239900100003F063FA030042
:100EBC001800FFF7DFFD03005A1E9341DBB2002B35
:100ECC0002D00220FFF7BCFE00F012F800F008F888
:100EDC00BD4680BD0048E80100127A000C000020DD
:100EEC0080B500AFBD4680BD80B500AFBD4680BDAE
:100EFC0080B500AFBD4680BD80B582B000AF7860D4
:100F0C007B681800FFF7DEFEBD4602B080BD000016
:100F1C0080B582B000AF786039607B68012B0FD14F
:100F2C003B68094A93420BD10849094B002218002F
:100F3C00FFF75EFE0549074B01221800FFF758FE2C
:100F4C00BD4602B080BDC046FFFF0000000800484F
:100F5C00E4000020EC00002080B500AF034B19002A
:100F6C000120FFF7D5FFBD4680BDC046FFFF000046
:100F7C0080B582B000AF78607B685A687B689B68EC
:100F8C00D31A5A425341DBB21800BD4602B080BDA1
:100F9C0080B582B000AF78607B681800FFF7E8FF7F
:100FAC0003001A0001235340DBB21800BD4602B007
:100FBC0080BD80B584B000AF78607B6804331800C6
:100FCC00FFF7E6FF031E11D07B680433180002F014
:100FDC00B0F803001A000F217B181A707B181B78CD
:100FEC00002BEAD00F23FB181B7800E0002318001D
:100FFC00BD4604B080BD80B582B000AF78607B6820
:10100C001800FFF7D6FF03001800BD4602B080BDE4
:10101C0080B582B000AF78607B685A687B681B69CA
:10102C001900100003F02CFA0B001A007B685A60B0
:10103C00BD4602B080BD80B582B000AF78607B68E1
:10104C005B685A1C7B685A607B6859687B681A69B4
:10105C00002391425B41DBB2002B02D07B68002263
:10106C005A60BD4602B080BD80B584B000AFF86058
:10107C00B9607A60FB68DB687A689A4201D3002316
:10108C000FE0FB689B68BA689A4201D3002308E022
:10109C00FB689B687A685A43BB68D218FB685A6035
:1010AC0001231800BD4604B080BD80B582B000AFEE
:1010BC0078600A00FB1C1A707B681800FFF7A8FF09
:1010CC007B685A697B685B68D318FA1C12781A70B3
:1010DC007B681800FFF7AFFFBD4602B080BD80B53E
:1010EC0082B000AF786039603B681B785BB2002B34
:1010FC000AD03B685A1C3A6000229A567B68110051
:10110C001800FFF7D2FFEFE7BD4602B080BD80B5F7
:10111C0082B000AF78600A00FB1C1A707B68FA1C66
:10112C0012781A76BD4602B080BDF0B59FB000AF04
:10113C00F860B9607A60BB68180003F011F902001E
:10114C00632393429B415B42DBB2002B01D0002313
:10115C0012E077257C191026BA197968BB6818003B
:10116C0002F0D4F903002370BA19FB6811001800BF
:10117C00FFF7B5FF7B191B781800BD461FB0F0BDFB
:10118C0080B584B000AF0200FB1D1A700F23FB1852
:10119C0000221A700F23FB181B78022B17D80F2371
:1011AC00FB181A780C4BD200D35CFA1D12789A42B9
:1011BC0006D10F23FB181B78DA00074BD31807E076
:1011CC000F217B181A787B1801321A70E2E7002382
:1011DC001800BD4604B080BD2845000880B582B01B
:1011EC0000AF0200FB1D1A70FB1D1B78180000F0ED
:1011FC000FFA03001800BD4602B080BD90B583B055
:10120C0000AF0200FB1D1A703B1D0A1C1A803B1D0F
:10121C001A883C1DFB1D1B781100180000F00FF8FC
:10122C00030023803B1D1A88FB1D1B78110018003E
:10123C0000F0C6F903001800BD4603B090BD80B5A0
:10124C0084B000AF02003960FB1D1A70FB1D1B78C7
:10125C001800FFF795FF0300FB60FB68002B01D122
:10126C00632313E0FB68DB881A003B68934202D9C6
:10127C00FB68DB883B60FB685B881A003B68934229
:10128C0002D2FB685B883B603B689BB21800BD4692
:10129C0004B080BDB0B584B000AF78607B685B688B
:1012AC000F257C191800FFF7A6FE030023707B198D
:1012BC001B78022B17D002DC012B05D02FE0032B5F
:1012CC0022D0042B14D02AE0FFF7D8FC0200FA231A
:1012DC009900100003F0D4F80B009BB21900002009
:1012EC00FFF78CFF1BE000210020FFF787FF16E0C3
:1012FC000020FFF773FF03009BB2013B9BB2190068
:10130C000020FFF77BFF0AE00020FFF767FF0300D8
:10131C009BB201339BB219000020FFF76FFF7B6873
:10132C001B7C002B19D17B68DB685A1D7B68DA604B
:10133C007B68DA68A9235B009A420DD90020FFF77D
:10134C004DFF03009AB27B681100180000F008F8FA
:10135C007B680022DA6000E0C046BD4604B0B0BD38
:10136C0080B582B000AF78600A00BB1C1A807B6825
:10137C001B7C002B1CD17B689B6800220021180071
:10138C00FFF772FE7B689868BB1C1A880A4B190021
:10139C00FFF7CBFE7B689B68012200211800FFF74A
:1013AC0063FE7B689B68054A11001800FFF797FEE7
:1013BC00BD4602B080BDC04600450008144500087B
:1013CC0080B584B000AF0200FB1D1A70FB1D1B78AA
:1013DC001800FFF7D5FE0300FB60FB68002B01D162
:1013EC000A2301E0FB689B881800BD4604B080BD51
:1013FC0080B582B000AF02003960FB1D1A70FB1D76
:10140C001B78022B01D9012323E0FB1D1B78012B38
:10141C000DD002DC002B05D018E0022B0CD0032BD6
:10142C000FD013E03B681A880C4B1A6510E03B6830
:10143C001A880A4B5A650BE03B681A88074B9A6569
:10144C0006E03B681A88054BDA6501E0012300E0F1
:10145C0002231800BD4602B080BDC04600280040E3
:10146C0080B582B000AF02003960FB1D1A70FB1D05
:10147C001B78022B01D9012327E0FB1D1B78012BC4
:10148C000ED002DC002B05D01CE0022B0ED0032B5F
:10149C0012D017E00F4B1B6D9AB23B681A8013E009
:1014AC000C4B5B6D9AB23B681A800DE0094B9B6D3F
:1014BC009AB23B681A8007E0064BDB6D9AB23B6828
:1014CC001A8001E0012300E002231800BD4602B09F
:1014DC0080BDC04600280040F0B585B000AF0F239A
:1014EC00FB1801221A700C23FB1801221A800C2302
:1014FC00FB181B88022B4CD80B217B180C22BA181A
:10150C0012881A70BB1D00221A8008257C19BA1D7E
:10151C007B181B7811001800FFF7A2FF0300238033
:10152C007B191B88012B1DD10B257B191B781800EF
:10153C00FFF746FF03001A00BB1D1A800826BC19D2
:10154C00BA1D7B191B7811001800FFF751FF03001F
:10155C002380BB191B88022B0DD00F23FB180022F4
:10156C001A7008E00823FB181B88002B03D00F23EC
:10157C00FB1800221A700C203B181A88BB1D198806
:10158C00074B5200D1523B181A883B1801321A8073
:10159C00ADE70F23FB181B781800BD4605B0F0BD56
:1015AC00F800002080B582B000AFFB1D01221A703C
:1015BC00FFF792FFFB1D1B781800BD4602B080BDE3
:1015CC00B0B584B000AF0200FB1D1A703B1D0A1CA5
:1015DC001A80FB1D1A783B1D19880C4B5200D152F6
:1015EC000E257C193A1DFB1D1B7811001800FFF706
:1015FC00FFFE030023807B191B88023B5A42534198
:10160C00DBB21800BD4604B0B0BDC046F8000020E7
:10161C0080B584B000AF0200FB1D1A70FB1D1B7857
:10162C00022B02D901235B4204E0FB1D1A78034B09
:10163C005200D35A1800BD4604B080BDF8000020FB
:10164C0080B584B000AF786008001100FB1C021C50
:10165C001A70BB1C0A1C1A70FB1C1B78002B0AD1BD
:10166C007B68BA1C12781A747B681B68FB607B68F9
:10167C005B68BB6009E07B68BA1C12785A747B68A3
:10168C009B68FB607B68DB68BB60BB1C1B78002B1A
:10169C0002D0012B09D011E0BB681800FEF780FFC7
:1016AC00FB681800FEF76CFF10E0FB681800FEF7F3
:1016BC0077FFBB681800FEF763FF07E0FB681800B4
:1016CC00FEF76EFFBB681800FEF76AFFBD4604B05C
:1016DC0080BD80B582B000AF78600A00FB1C1A7028
:1016EC00FB1C1A787B6800211800FFF7A9FFBD4688
:1016FC0002B080BD80B582B000AF78600A00FB1CE0
:10170C001A70FB1C1A787B6801211800FFF798FFF0
:10171C00BD4602B080BD80B582B000AF78600A00D3
:10172C00FB1C1A707B68FA1C12789A747B689B7C81
:10173C00012B18D002DC002B05D04EE0032B22D05D
:10174C00042B35D049E07B6802211800FFF7C1FF5C
:10175C007B6801211800FFF7CDFF7B680021180082
:10176C00FFF7B7FF43E07B6802211800FFF7C2FFC9
:10177C007B6801211800FFF7ACFF7B680021180083
:10178C00FFF7B8FF33E07B6802211800FFF7B2FFC8
:10179C007B6802211800FFF79CFF7B680021180072
:1017AC00FFF7A8FF7B6800211800FFF792FF1EE0EF
:1017BC007B6802211800FFF79DFF7B68022118004F
:1017CC00FFF787FF7B6801211800FFF793FF7B6809
:1017DC0001211800FFF77DFF09E07B68022118004A
:1017EC00FFF788FF7B6802211800FFF772FFBD46E8
:1017FC0002B080BD80B582B000AF78600A00FB1CDF
:10180C001A707B68FA1C12781A717B685B79002B52
:10181C0002D0012B12D022E07B681B79002B06D062
:10182C007B681B6800211800FFF775FF17E07B68C9
:10183C001B6802211800FFF76EFF10E07B681B7914
:10184C00002B06D07B681B6802211800FFF763FF92
:10185C0005E07B681B6800211800FFF75CFFBD46A4
:10186C0002B080BD80B584B000AF78607B68180092
:10187C0000F02AF9031E03D07B685B68FB6002E072
:10188C007B681B68FB60FB681800BD4604B080BD1C
:10189C0080B582B000AF78607B68DB6810331A00CB
:1018AC007B685B7C013B59424B41DBB21900100059
:1018BC00FEF785FE7B68DB6808331A007B685B7C6F
:1018CC00023B59424B41DBB219001000FEF777FE88
:1018DC007B685B7C042B03D07B685B7C032B01D186
:1018EC00012300E000237A681900100000F073F95E
:1018FC007B685B7C052B02D17B6801229A74BD4608
:10190C0002B080BD80B582B000AF78607B681800F3
:10191C0000F0F7F8031E02D07B6801225A747B6832
:10192C00180000F0FDF8031E02D07B6802225A74E6
:10193C007B68180000F0E5F8031E07D07B681800E0
:10194C0000F0EEF8031E01D0012300E00023002B71
:10195C0003D07B6805225A7406E07B685B7C052B00
:10196C0002D17B6800225A747B685B7C052B00D902
:10197C0087E09A00534BD3181B689F467B6818006E
:10198C00FFF770FF020013681B68042110009847D2
:10199C007B689B6801211800FFF72CFF7B681800FF
:1019AC0000F0AFF803001A0001235340DBB2002B08
:1019BC0000D17AE07B6800225A7479E07B681800C9
:1019CC00FFF750FF020013681B68042110009847B2
:1019DC007B689B6801211800FFF70CFF7B681800DF
:1019EC0000F09EF803001A0001235340DBB2002BD9
:1019FC005DD07B6800225A745AE07B689B6800219A
:101A0C001800FFF7F7FE7B681800FFF72BFF0200AA
:101A1C0013681B6800211000984749E07B689B689D
:101A2C0000211800FFF7E6FE7B681800FFF71AFF8D
:101A3C00020013681B6801211000984738E07B688E
:101A4C001800FFF70FFF020013681B680421100039
:101A5C0098477B689B6801211800FFF7CBFE27E0B5
:101A6C007B681800FFF7FEFE020013681B68042158
:101A7C00100098477B689B6801211800FFF7BAFE9D
:101A8C0016E07B6800225A747B681800FFF7EAFEA8
:101A9C00020013681B680421100098477B689B6840
:101AAC0001211800FFF7A6FE02E0C04600E0C04688
:101ABC007B681800FFF7ECFE7B685B7C1800BD466A
:101ACC0002B080BD4845000880B582B000AF786098
:101ADC007B68180000F00BF80300013B012B01D8C8
:101AEC00012300E000231800BD4602B080BD80B584
:101AFC0082B000AF78607B681B7C1800BD4602B0DA
:101B0C0080BD80B582B000AF78607B68DB68B8338D
:101B1C001800FEF76BFD03001800BD4602B080BD37
:101B2C0080B582B000AF78607B68DB68B03318009A
:101B3C00FEF75CFD03001800BD4602B080BD80B509
:101B4C0082B000AF78607B68DB68C8331800FEF7A2
:101B5C004DFD03001A0001235340DBB21800BD46B3
:101B6C0002B080BD80B582B000AF78607B68DB6866
:101B7C00C0331800FEF73AFD03001A00012353404E
:101B8C00DBB21800BD4602B080BD80B582B000AF9C
:101B9C0078607B68DB68E8331800FEF727FD0300EC
:101BAC001A0001235340DBB21800BD4602B080BDC1
:101BBC0080B582B000AF78607B68DB68F0331800CA
:101BCC00FEF714FD03001A0001235340DBB218008A
:101BDC00BD4602B080BD80B582B000AF78600A000F
:101BEC00FB1C1A707B68DB6820331A00FB1C1B780B
:101BFC0019001000FEF7E3FCBD4602B080BD80B5B5
:101C0C0082B000AF78607B689B7C1800BD4602B048
:101C1C0080BD000080B584B000AF78607B68180090
:101C2C00FFF76FFF03001A0001235340DBB2002BB8
:101C3C0017D07B681800FFF782FF03001A000123FE
:101C4C005340DBB2002B0CD07B681800FFF79DFFD4
:101C5C0003001A0001235340DBB2002B01D00122F8
:101C6C0000E000220F23FB181A707B685B7C052BAD
:101C7C002AD89A00204BD3181B689F460F23FB18B9
:101C8C001B78002B26D07B6803225A740020FFF7A8
:101C9C00A5FA0300BB60BB689BB201339BB2190071
:101CAC000020FFF7ABFA18E00F23FB181B7801227A
:101CBC005340DBB2002B0FD07B6800225A740CE02F
:101CCC007B6800225A7408E07B6800225A7404E096
:101CDC00C04602E0C04600E0C0467B681800FFF733
:101CEC0011FE7B681800FFF7D3FD7B685B7C180046
:101CFC00BD4604B080BDC0466045000880B584B0C8
:101D0C0000AF78607B681800FFF70AFF03001A0029
:101D1C0001235340DBB2002B0CD07B681800FFF77B
:101D2C0021FF03001A0001235340DBB2002B01D02A
:101D3C00012200E000220F23FB181A707B685B7CE9
:101D4C00052B2AD89A00204BD3181B689F460F23CB
:101D5C00FB181B78002B26D07B6804225A740020B9
:101D6C00FFF73CFA0300BB60BB689BB201339BB22C
:101D7C0019000020FFF742FA18E07B6800225A7421
:101D8C0014E00F23FB181B7801225340DBB2002B0D
:101D9C000BD07B6800225A7408E07B6800225A74CE
:101DAC0004E0C04602E0C04600E0C0467B68180074
:101DBC00FFF7A8FD7B681800FFF76AFD7B685B7C6A
:101DCC001800BD4604B080BD7845000880B582B0CF
:101DDC0000AF78607B685B7C1800BD4602B080BDAC
:101DEC0080B582B000AF78607B681B68F833180050
:101DFC00FEF7FCFB03001A0001235340DBB2180072
:101E0C00BD4602B080BD000090B585B000AF7860D3
:101E1C00674B1B680F22BC181800FFF7D7FF030095
:101E2C0023707B681800FFF7DBFF031E2ED07B6846
:101E3C001B687133FF3302211800FEF7EDFB0F23F3
:101E4C00FB181B78033B012B13D87B681B684833AA
:101E5C001800FEF795FB564B1B681800FFF734FE75
:101E6C00031E28D07B681B6840331800FEF788FBE4
:101E7C0022E07B681B6848331800FEF791FB7B68F7
:101E8C001B6840331800FEF78BFB15E07B681B6862
:101E9C007133FF3305211800FEF7BEFB7B681B680E
:101EAC0048331800FEF77CFB7B681B684033180036
:101EBC00FEF776FB00E0C0467B681B681C003C4BC1
:101ECC001B681800FFF761FE030019002000FEF7E5
:101EDC0076FB7B681B6818331C00354B1B6818009D
:101EEC00FFF766FE03001A0001235340DBB2002B00
:101EFC0008D02F4B1B681800FFF747FE031E01D0BC
:101F0C00012300E0002319002000FEF758FB7B683A
:101F1C001B68D0331800FEF769FB03001A0001237D
:101F2C005340DBB2002B04D0214B1B681800FFF789
:101F3C0071FE7B681B68E0331800FEF757FB03004B
:101F4C001A0001235340DBB2002B04D0184B1B6842
:101F5C001800FFF75FFE7B681B68D8331800FEF78C
:101F6C0045FB03001A0001235340DBB2002B04D0C5
:101F7C000F4B1B681800FFF7C1FE0D4B1B681800B8
:101F8C00FFF73DFE031E08D07B681B686133FF33EF
:101F9C0004211800FEF740FB07E07B681B686133E7
:101FAC00FF3301211800FEF737FBBD4605B090BD8D
:101FBC003000002080B500AF034B1B681800FFF702
:101FCC0023FFBD4680BDC0463400002080B582B0E2
:101FDC0000AF786039607B68012B09D13B68064AF9
:101FEC00934205D1054A06483523022101F0A6F992
:101FFC00BD4602B080BDC046FFFF0000C11F0008F7
:10200C000001002080B500AF034B19000120FFF741
:10201C00DDFFBD4680BDC046FFFF000080B582B02D
:10202C0000AF0200FB1D1A70034BFA1D12781A70D8
:10203C00BD4602B080BDC0463800002080B584B0DB
:10204C0000AF78607B681B681A687B689B885B00B4
:10205C00DA401300FB60FB68DBB203221340DBB2F7
:10206C001800BD4604B080BD80B584B000AF786068
:10207C007B681B68DA687B689B885B00DA4013001E
:10208C00FB60FB68DBB203221340DBB21800BD46D9
:10209C0004B080BD80B584B000AF78607B681B68ED
:1020AC009A687B689B885B00DA401300FB60FB68D6
:1020BC00DBB203221340DBB21800BD4604B080BD76
:1020CC0080B584B000AF78607B681B689B889BB23E
:1020DC001A007B689B881A411300FB60FB68DBB21B
:1020EC0001221340DBB21800BD4604B080BD90B590
:1020FC0083B000AF78600C0010001900FB1C221C90
:10210C001A70BB1C021C1A707B1C0A1C1A70FB1C5C
:10211C001A787B6811001800FEF7D0FCBB1C1A78EB
:10212C007B6811001800FEF739FD7B1C1A787B6860
:10213C0011001800FEF70DFD1823FB181A787B68A8
:10214C0011001800FEF7DFFCBD4603B090BD80B552
:10215C0082B000AF786039603B681800FFF76EFF03
:10216C0003001A007B6811001800FEF7A7FC3B68FF
:10217C001800FFF7A5FF03001A007B681100180078
:10218C00FEF70CFD3B681800FFF76EFF03001A000A
:10219C007B6811001800FEF7DCFC3B681800FFF7A9
:1021AC0079FF03001A007B6811001800FEF7ABFCE6
:1021BC00BD4602B080BD000080B582B000AF786033
:1021CC00034A7B681A607B681800BD4602B080BD6C
:1021DC00F045000880B582B000AF7860034A7B6898
:1021EC001A607B681800BD4602B080BDF04500083F
:1021FC0080B584B000AFF860B9607A60FB681800F5
:10220C00FFF7E8FF084AFB681A60FB6802221A73A2
:10221C00FB68BA685A60FB687A689A60FB681800B9
:10222C00BD4604B080BDC046D845000880B582B01C
:10223C0000AF78607B685B681800FEF7B1F97B68CB
:10224C009B681800FEF7ACF9BD4602B080BD80B5A6
:10225C0082B000AF78600A00FB1C1A707B68FA1C15
:10226C0012781A737B681B7B002B02D0012B0BD0CE
:10227C0015E07B685B681800FEF792F97B689B6839
:10228C001800FEF77DF914E07B689B681800FEF7D8
:10229C0087F97B685B681800FEF772F909E07B68C8
:1022AC005B681800FEF77CF97B689B681800FEF7EA
:1022BC0077F9BD4602B080BD80B582B000AF7860C2
:1022CC007B681B7B1800BD4602B080BD80B584B016
:1022DC0000AFF860B9607A603B60FB6802221A7448
:1022EC00FB6802225A74FB6802229A74FB68BA6873
:1022FC001A60FB687A685A60FB683A689A60FB68F7
:10230C00BA69DA60FB681800BD4604B080BD80B5C0
:10231C0082B000AF78607B6802211800FFF7D9F912
:10232C007B6802211800FFF7E5F9BD4602B080BDBD
:10233C0080B582B000AF786039607B681800FFF719
:10234C0049FF074A7B681A607B6802221A727B6815
:10235C003A685A607B681800BD4602B080BDC04622
:10236C00C045000880B582B000AF78607B685B68C0
:10237C001800FFF7CCFFBD4602B080BD80B582B01F
:10238C0000AF78600A00FB1C1A707B68FA1C12788C
:10239C001A727B681B7A012B0FD002DC002B05D044
:1023AC0020E0032B10D0042B15D01BE07B685B685E
:1023BC0000211800FFF7AFF91AE07B685B68012178
:1023CC001800FFF7A8F913E07B685B68032118007D
:1023DC00FFF7A1F90CE07B685B6804211800FFF79C
:1023EC009AF905E07B685B6802211800FFF793F906
:1023FC00BD4602B080BD80B582B000AF78607B680E
:10240C001B7A1800BD4602B080BD80B582B000AF0B
:10241C00786039607B6800221A717B6800225A71DF
:10242C007B683A681A607B681800BD4602B080BDB4
:10243C0080B582B000AF78607B681B681800FFF72E
:10244C0066FFBD4602B080BD80B582B000AF78603B
:10245C007B6800225A737B6801221A737B68002206
:10246C009A60BD4602B080BD80B584B000AFF86004
:10247C00B960FB1D1A70F868FB1D1B789AB2BB681B
:10248C001900FEF7B5FBFB681800FFF7DDFFFB68D2
:10249C001800BD4604B080BD80B584B002AF786032
:1024AC0008001100FB1C021C1A70BB1C0A1C1A70C1
:1024BC007B68FA1C12785A737B68BA1C12781A73F0
:1024CC007B6800229A607868002300930023002226
:1024DC000121FFF70CFEBD4602B080BD80B586B071
:1024EC0002AF78609F4B5A699E4BFC21C9030A438B
:1024FC005A619C4B5B69FB60FB6878680023009316
:10250C00002300220121FFF7F2FD7B6808337A6873
:10251C0011001800FFF71BFE7B6810337A6811005E
:10252C001800FFF714FE7B6818337A681100180046
:10253C00FFF70DFE7B6820337A6811001800FFF757
:10254C0006FE7B6828337A6811001800FFF7FFFD40
:10255C007B6830337A6811001800FFF7F8FD7B6850
:10256C0038337A6811001800FFF7F1FD7B684033AF
:10257C007A6811001800FFF7EAFD7B6848337A6827
:10258C0011001800FFF7E3FD7B685033180002239D
:10259C000093002300220121FFF7A9FD7B6858332B
:1025AC001A007B68503319001000FFF7D0FD7B68D0
:1025BC0060331A007B68503319001000FFF7C7FD19
:1025CC007B6868331A007B68503319001000FFF7E2
:1025DC00BEFD7B6870331A007B6850331900100005
:1025EC00FFF7B5FD7B6878331A007B685033190010
:1025FC001000FFF7ACFD7B6880331A007B6850330A
:10260C0019001000FFF7A3FD7B6888331A007B6864
:10261C00503319001000FFF79AFD7B6890331800B7
:10262C0000230093012301220021FFF760FD7B684A
:10263C0098331A007B68903319001000FFF787FD60
:10264C007B68A0331A007B68903319001000FFF7E9
:10265C007EFD7B68A8331A007B689033190010004C
:10266C00FFF775FD7B68B0331A007B689033190057
:10267C001000FFF76CFD7B68B8331A007B68903351
:10268C0019001000FFF763FD7B68C0331A007B68EC
:10269C00903319001000FFF75AFD7B68C8331A00FD
:1026AC007B68903319001000FFF751FD7B68D03325
:1026BC001A007B68903319001000FFF748FD7B6807
:1026CC00D8331A007B68903319001000FFF73FFDD8
:1026DC007B68E0331A007B68903319001000FFF719
:1026EC0036FD7B68E8331A007B68903319001000C4
:1026FC00FFF72DFD7B68F0331A007B6890331900CF
:10270C001000FFF724FD7B68F8331A007B689033C8
:10271C0019001000FFF71BFD7B685A1CFF327B6809
:10272C00903319001000FFF712FD7B680933FF335B
:10273C001A007B68903319001000FFF708FD7B68C6
:10274C006133FF33002200211800FFF7A5FE7B68E0
:10275C007133FF33002200211800FFF79DFEBD46A8
:10276C0004B080BD0010024080B584B000AFF860AA
:10277C00B9607A603B60FB680022DA60FB6800227B
:10278C001A74FB6800225A74FB6800229A74FB6866
:10279C00BA681A60FB687A685A60FB683A689A6093
:1027AC00FB681800BD4604B080BD000080B582B047
:1027BC0000AF78607B680B4ADA607B681B68180096
:1027CC00FFF7D0FD7B685B681800FFF72FFD7B6877
:1027DC009B681800FFF72CFE01231800BD4602B0C1
:1027EC0080BDC0461801002080B582B000AF786073
:1027FC000A00FB1C1A70FB1C1B78002B07D07B6893
:10280C001A1DFB1C1B781900100000F05BFCBD4668
:10281C0002B080BD80B586B000AFF860B9607A6058
:10282C003B60FB680433F9680422180000F02AFCB2
:10283C00FB68BA68DA61FB687A681A62FB683A6806
:10284C005A62FB683A6A9A621623FB1800221A80B5
:10285C001623FB181B88032B0BD816203B181B8840
:10286C00FA680021D1543B181A883B1801321A809F
:10287C00EEE7FB681800BD4606B080BDB0B584B06D
:10288C0000AF78600F257C197B681800FDF7A5FF59
:10289C00030023700C4B1B787A1912789A4210D0D3
:1028AC00094B0F217A1812781A707B181B78002BA1
:1028BC0007D00F23FB181A787B6811001800FFF75C
:1028CC0093FFBD4604B0B0BD1401002080B584B0A8
:1028DC0000AFF860B9607A603B607A68B968FB68F1
:1028EC001800FEF7C1FB3A68FB6811001800FEF7F0
:1028FC00F6FBBD4604B080BD80B584B000AF7860F7
:10290C000023FB607B681B69FA689A4209D87B68D4
:10291C005A69FB68D31820221A70FB680133FB60DC
:10292C00F0E7BD4604B080BD80B584B000AFF86060
:10293C00B9607A603B60FB68BA681A60FB687A68B9
:10294C005A60FB683A689A60FB6800221A74BD46AC
:10295C0004B080BD80B584B000AFF860B9607A6017
:10296C003B60FB68BA689A60FB683A68DA60FB689F
:10297C007A681A61FB68BA691A62FB683A6A9A61EA
:10298C00FB687A6ADA61FB68FA695A61FB68586914
:10299C00FB689968FB681A69FB68DB68FFF7C4FF82
:1029AC00BD4604B080BD000080B582B000AF786039
:1029BC000C4A7B681A607B6800225A607B68002294
:1029CC009A607B680022DA607B6800221A617B685F
:1029DC0000225A617B6800221A767B681800BD467B
:1029EC0002B080BD3C46000880B582B000AF786074
:1029FC007B685B681800BD4602B080BD80B582B0B4
:102A0C0000AF78607B68024A1A60BD4602B080BD98
:102A1C001801002080B582B000AF786078689023F0
:102A2C00DB0500221900FEF7E3F87B680833180079
:102A3C009023DB0501221900FEF7DAF87B681033CE
:102A4C0018009023DB0502221900FEF7D1F87B68F1
:102A5C00183318009023DB0503221900FEF7C8F881
:102A6C007B682033A14904221800FEF7C1F87B686B
:102A7C00283318009023DB0508221900FEF7B8F85C
:102A8C007B683033994906221800FEF7B1F87B6851
:102A9C003833964909221800FEF7AAF87B684033B0
:102AAC00924907221800FEF7A3F87B6848338F4938
:102ABC0008221800FEF79CF87B6850338C490F22D3
:102ACC001800FEF795F87B68583389490E221800D8
:102ADC00FEF78EF87B68603385490D221800FEF7EF
:102AEC0087F87B68683382490C221800FEF780F85F
:102AFC007B6870337E490B221800FEF779F87B68EF
:102B0C0078337B490A221800FEF772F87B68803311
:102B1C00774909221800FEF76BF87B6888337449F3
:102B2C0008221800FEF764F87B6890331800902395
:102B3C00DB0507221900FEF75BF87B6898336D49BB
:102B4C0000221800FEF754F87B68A0336949012273
:102B5C001800FEF74DF87B68A8336649022218006E
:102B6C00FEF746F87B68B03318009023DB0504228F
:102B7C001900FEF73DF87B68B83318009023DB058D
:102B8C0005221900FEF734F87B68C0331800902337
:102B9C00DB0506221900FEF72BF87B68C833564973
:102BAC0007221800FEF724F87B68D033524908221C
:102BBC001800FEF71DF87B68D8334F49092218001E
:102BCC00FEF716F87B68E0334B490A221800FEF733
:102BDC000FF87B68E83348490B221800FEF708F819
:102BEC007B68F03344490C221800FEF701F87B682F
:102BFC00F83341490D221800FDF7FAFF7B680133C9
:102C0C00FF333D490E221800FDF7F2FF7B680933B4
:102C1C00FF3339490F221800FDF7EAFF7B681133A7
:102C2C00FF33324905221800FDF7E2FF7B681933A8
:102C3C00FF33314902221800FDF7DAFF7B6821339C
:102C4C00FF3318009023DB050C221900FDF7D0FF91
:102C5C007B682933FF33274906221800FDF7C8FF8C
:102C6C007B683133FF33234907221800FDF7C0FF7F
:102C7C007B683933FF331E4906221800FDF7B8FF75
:102C8C007B684133FF331A4905221800FDF7B0FF6A
:102C9C007B684933FF33164904221800FDF7A8FF5F
:102CAC007B685133FF3313490A221800FDF7A0FF4C
:102CBC007B685933FF330F490B221800FDF798FF3F
:102CCC007B686133FF330D4902221800FFF7CCFB00
:102CDC007B687133FF33094903221800FFF7C4FBEB
:102CEC007B681800BD4602B080BDC0460008004895
:102CFC00000C004800040048001000480014004874
:102D0C0080B582B000AF78607B6800225A827B6805
:102D1C0000221A757B681800BD4602B080BD000009
:102D2C0080B500AF024B1800FFF7A8FDBD4680BD73
:102D3C009802002090B587B004AF0120FFF76EF920
:102D4C00FEF7A2F8344B1800FFF7C8FBFEF72AFC7D
:102D5C00324B334A1A60314B6422DA602F4B314AC2
:102D6C005A602E4B304A9A60304B1B682B4A11002C
:102D7C00180000F01FFD2D4B19682D4B2D4A2E48C5
:102D8C0001F094F82D4B1B681800FFF737FEFDF788
:102D9C00C7FD03007B602A4B1C68274B1800FFF70C
:102DAC0023FE0100274A7868274B0393274B029395
:102DBC00274B01931F4B00930B002100FFF7CAFD1B
:102DCC007B68DB681800FFF797FD7B68DB680021E8
:102DDC001800FEF79CF91A4B1B681800FFF7E6FC6D
:102DEC007B68D8681B4B00220021FFF76FFD7B68C6
:102DFC00D868194B01220021FFF768FDFA23DB008C
:102E0C001800FDF745FF0020FFF708F9FEF76CF8F6
:102E1C0000F060FAFAE7C0461801002020000020FC
:102E2C0000580040700200206802002010030020AF
:102E3C00280200203002002014030020340000205F
:102E4C003000002098020020880200207802002028
:102E5C004803002090450008A445000880B582B0C6
:102E6C0000AF7860054A7B681A607B681800FFF732
:102E7C00A3F97B681800BD4602B080BDC0450008B0
:102E8C0080B582B000AF78607B681800FFF7E6FF72
:102E9C007B680C21180001F007FA7B681800BD460E
:102EAC0002B080BD80B582B000AF7860054A7B6807
:102EBC001A607B681800FFF77FF97B681800BD4625
:102ECC0002B080BDD845000880B582B000AF7860F4
:102EDC007B681800FFF7E6FF7B681021180001F0F3
:102EEC00E3F97B681800BD4602B080BD90B585B093
:102EFC0002AF786039607B68012B5CD13B68394A42
:102F0C00934258D1384B1800C0235B001A000021A3
:102F1C0001F0BCFA344B1800FFF77CFD334C344AFB
:102F2C0034493548354B00932300FFF773FC344C80
:102F3C00344A35493548364B00932300FFF7C6F920
:102F4C00344C354A35493648364B00932300FFF74D
:102F5C00BDF92E4A344B11001800FFF756FA304ACF
:102F6C00324B11001800FFF7E3F9314A3149324B6B
:102F7C001800FFF73DF900F015FC02002F4B1A600A
:102F8C002F4B1800FFF710FD274B2B4A27492D48D4
:102F9C00FFF7EAFB2C4B180018231A00002101F054
:102FAC0075FA294B1800FFF7ABFE284A28480A236C
:102FBC00022100F0C3F97B68002B0FD13B68094A52
:102FCC0093420BD11E4B180000F044FF1A4B180013
:102FDC00FFF768FF154B1800FFF740FFBD4603B025
:102FEC0090BDC046FFFF000018010020B801002072
:102FFC00B0010020A801002098020020C001002090
:10300C00700100208801002068010020C40200200B
:10301C009001002080010020980100207801002000
:10302C00D8020020A0010020EC020020F4020020B5
:10303C004801002050010020000300201003002054
:10304C001403002030030020480300202D2D00081D
:10305C006003002080B500AF034B19000120FFF77F
:10306C0045FFBD4680BDC046FFFF000080B500AFE8
:10307C00034B19000020FFF739FFBD4680BDC04649
:10308C00FFFF000080B584B000AFF860B9607A60D3
:10309C00FB680B4A1A61FB68094A9A82FB687A68DA
:1030AC001A60FB68BA68DA60FB6800229A60FB68F9
:1030BC0000225A60FB681800BD4604B080BDC046B3
:1030CC0000FFFFFF80B584B000AF78600A00FB1CE6
:1030DC001A707B685B68FB607B689B68BB60FB68F5
:1030EC000133BA689A4201D100231EE0BB68002B61
:1030FC0007D17B681B68013BFA689A4201D1002317
:10310C0013E07B68DA68FB68591CF960D318FA1C69
:10311C0012781A707B681B68FA689A4201D2FA68B6
:10312C0000E000227B685A6001231800BD4604B001
:10313C0080BD80B586B000AF78607B689B687B6192
:10314C007B685B683B617A693B699A4202D17B6818
:10315C009B8A17E07B68DA687B69591C7961D21805
:10316C000F23FB1812781A707B681B687A699A42D5
:10317C0001D27A6900E000227B689A600F23FB1869
:10318C001B789BB21800BD4606B080BD80B584B0DC
:10319C0000AF786039603B68002B01D1002323E03D
:1031AC000F23FB1801221A703B681800FDF7F0FE84
:1031BC00031E16D03B681800FFF7BBFF0300DAB202
:1031CC007B6811001800FFF77DFF03001A00012334
:1031DC005340DBB2002BE7D00F23FB1800221A70F0
:1031EC00E2E70F23FB181B781800BD4604B080BD26
:1031FC0080B584B000AF78607B689B68FB607B68AF
:10320C005B68BB60BA68FB689A4203D3BA68FB6818
:10321C00D31A05E07B681A68FB68D21ABB68D3180E
:10322C001800BD4604B080BD80B582B000AF786098
:10323C00034A7B681A607B681800BD4602B080BDEB
:10324C000846000880B582B000AF78607B68180033
:10325C00FFF7EAFF7B681C21180001F025F87B685A
:10326C001800BD4602B080BD80B584B000AF786058
:10327C00164B1A687B68D218144B1A60144B1B68D7
:10328C00FB60FB68002B1DD0FB685B7C022B15D10F
:10329C00FB681B687A689A429B415B42DBB2002B4D
:1032AC0006D0FB681A687B68D21AFB681A6005E0C6
:1032BC00FB6801225A74FB6800221A60FB689B6849
:1032CC00FB60DEE7BD4604B080BDC046780300203D
:1032DC007403002080B582B000AF164B1B78DBB2B4
:1032EC00002B24D1144B1B687B607B68002B1ED0F9
:1032FC007B685B7C012B16D17B681B7C012B0CD073
:10330C00022B10D17B685A687B681A607B6802229A
:10331C005A747B68DB68984705E07B6800225A7416
:10332C007B68DB6898477B689B687B60DDE7BD4604
:10333C0002B080BD380000207403002080B586B038
:10334C0000AFF8607A603B600B203B180A1C1A70C7
:10335C00FB6800225A74FB683A1812781A74FB68DE
:10336C007A68DA60FB683A685A60184B1B68002B65
:10337C000AD1164BFA681A60144B1B6800229A602B
:10338C00FB6802225A741BE0104B1B687B617B6943
:10339C009B68002B07D07A69FB689A4210D07B6936
:1033AC009B687B61F3E77A69FB689A4208D0FB68FB
:1033BC0000229A607B69FA689A60FB6802225A7450
:1033CC00FB681800BD4606B080BDC04674030020E3
:1033DC0080B500AF0120FFF747FFBD4680BD90B51B
:1033EC0085B000AF786039600B23FB1830221A705F
:1033FC000A23FB1823221A707B68FB6002E0FB682F
:10340C000133FB60FB681B785BB2002BF7D143E008
:10341C00FB68013BFB60FB681B785BB20B22BA18A4
:10342C00127852B29A4208D0FB681B785BB20A221F
:10343C00BA18127852B29A422ED13B680A2118005F
:10344C0001F01EF80B001A0009243B191A703B6896
:10345C000A21180000F08EFF03003B603B191B781B
:10346C00002B0FD13B68002B0CD1FB681B785BB297
:10347C000A22BA18127852B29A420CD1FB68202256
:10348C001A7009E00923FB181B783033DBB25AB2EF
:10349C00FB681A7000E0C046FA687B689A42B7D89D
:1034AC003B685A425341DBB21800BD4605B090BD93
:1034BC0080B586B000AFF860B960FB1D1A70BB68B0
:1034CC005A1CBA6000229A5617217B181A707B1866
:1034DC001B78002B0DD1FB1D1B78002B07D0FB6834
:1034EC005A1CFA601722BA18127852B21A70FB687A
:1034FC0008E0FB685A1CFA601722BA18127852B20C
:10350C001A70DCE71800BD4606B080BD80B584B0EB
:10351C0000AFF860B9607A60F9687B680122180026
:10352C00FFF7C6FFBA687B6811001800FFF757FF5A
:10353C0003001800BD4604B080BD000080B582B009
:10354C0000AF0200FB1D1A70FB1D1B785BB21F2223
:10355C001A40044B012191400A001A60BD4602B08A
:10356C0080BDC04600E100E090B583B000AF020022
:10357C003960FB1D1A70FB1D1B785BB2002B36DA11
:10358C00314AFB1D1B785BB219000F230B40083B23
:10359C009B0806339B00D31804331B68FA1D127862
:1035AC0052B2110003220A40D200FF2191400A00BE
:1035BC00D2431A4011003B689B01FF221A40FB1DAD
:1035CC001B785BB2180003230340DB009A401E48B3
:1035DC00FB1D1B785BB21C000F232340083B9B0890
:1035EC000A4306339B00C31804331A6029E0174AB8
:1035FC00FB1D1B785BB29B08C0339B009B58FA1DCC
:10360C00127852B2110003220A40D200FF219140DD
:10361C000A00D2431A4011003B689B01FF221A405A
:10362C00FB1D1B785BB2180003230340DB009A40A0
:10363C000648FB1D1B785BB29B080A43C0339B00FA
:10364C001A50BD4603B090BD00ED00E000E100E073
:10365C0080B588B000AF78600A00FB1C1A70FB1CA8
:10366C001B78072B01D9002352E00723FB61FB1CBD
:10367C001B78BB617B689B88072B1FD87B689B885A
:10368C00DAB217217B1892001A707B681B681B6AD0
:10369C003B617B181B7807229A401300DA433B6985
:1036AC0013403B617B181B78BA699A4013003A6946
:1036BC0013433B617B681B683A691A627B689B8881
:1036CC00072B24D97B689B880F2B20D87B689B8881
:1036DC00083BDAB20F217B1892001A707B681B68CA
:1036EC005B6ABB607B181B7807229A401300DA4395
:1036FC00BB681340BB607B181B78BA699A401300F7
:10370C00BA681343BB607B681B68BA685A620123B2
:10371C001800BD4608B080BD80B582B000AF78609F
:10372C007B6800225A607B6800229A60BD4602B01A
:10373C0080BD80B582B000AF78607B6800221A60D3
:10374C007B6800225A607B6800221A817B68002209
:10375C009A727B681800BD4602B080BD80B582B0FD
:10376C0000AF78600A00FB1C1A70FB1C1B78002B46
:10377C0003D17B6800229A7203E07B68FA1C1278F2
:10378C009A72BD4602B080BD80B582B000AF786041
:10379C007B689B7ADBB25A1E9341DBB21800BD46A4
:1037AC0002B080BD80B500AF014B1800BD4680BD96
:1037BC007C03002080B582B000AF786039607B68F4
:1037CC003A681A607B681B681B685A425341DBB22B
:1037DC00002B01D000231CE03B685B68002B01D15F
:1037EC00002316E03B689B68002B01D1002310E0FE
:1037FC007B681B68DB685A425341DBB2002B03D059
:10380C007B681B686422DA607B68180000F006F89D
:10381C0003001800BD4602B080BD000080B586B024
:10382C0002AF78607B685C4A5A607B6800211800A4
:10383C00FFF794FF80239B03FB607B681B681B686E
:10384C00564A944663445A425341DBB2002B02D091
:10385C008023DB03FB60524BD969FA68504B0A4357
:10386C00DA614F4BDB69FA681340BB60BB687B685D
:10387C001B681B681A6801218A431A607B681B68E5
:10388C001B681B68012213405A1E9341DBB2002BAC
:10389C00F4D17B681B6898680323009301230122F1
:1038AC000221FEF724FC7B681B68586803230093F5
:1038BC00012301220221FEF71AFC7B681B689B681E
:1038CC0001211800FFF7C4FE7B681B685B680121AF
:1038DC001800FFF7BDFE7B681B681B681A68802107
:1038EC0049010A431A607B681B681B681B682D4AD8
:1038FC001A407B681B681B68802149000A431A60C8
:10390C007B681B681B68284A944663445A4253419F
:10391C00DBB2002B07D003211720FFF725FE172061
:10392C00FFF70CFE14E07B681B681B681B4A94466F
:10393C0063445A425341DBB2002B07D003211820B9
:10394C00FFF712FE1820FFF7F9FD01E000231EE03F
:10395C007B681B681B681A6814490A401A607B68EC
:10396C001B681B68124A1A617B681B681B681A6803
:10397C0001210A431A607B681B681B681B680122C3
:10398C0013405A425341DBB2002BF4D101231800EF
:10399C00BD4604B080BDC046EC03002000A8FFBFAC
:1039AC0000100240FFF0FFFF00ACFFBFFFFFFDFF68
:1039BC00271A106080B584B000AF78607B681B68F4
:1039CC001B68FB607B685B68BB60FB689B691022B3
:1039DC0013405A1E9341DBB2002B0AD07B680521A1
:1039EC001800FFF7BBFEFB68DB6910221A43FB686B
:1039FC00DA61FB689B69042213405A1E9341DBB2C7
:103A0C00002B09D07B681B681B685B6ADAB2BB6849
:103A1C0011001800FFF756FBFB689B69022213404C
:103A2C005A1E9341DBB2002B09D0BB681800FFF77C
:103A3C0080FB0300DAB27B681B681B689A62FB6828
:103A4C009B69202213405A1E9341DBB2002B0AD0F3
:103A5C00FB68DB6920221A43FB68DA617B68002172
:103A6C001800FFF77BFEBD4604B080BD80B584B066
:103A7C0000AF786039607B681800FFF785FE031E85
:103A8C0001D0002366E07B6801211800FFF766FE79
:103A9C007B685B681800FFF73FFE7B685B683A68E1
:103AAC0011001800FFF772FB7B681B681B685A68D3
:103ABC002A490A405A607B681B681B685A68284967
:103ACC000A405A607B681B681B685B689B0A9A02F9
:103ADC007B681B899BB219007B681B681B680A43B7
:103AEC005A607B681B681B685A681E490A405A60FA
:103AFC007B681B681B685A68802189040A435A60DA
:103B0C007B685B681800FFF773FB0300FB60FB68C6
:103B1C00FF2B01D9FF23FB607B681B681B685B686C
:103B2C00114A13401900FB681A047B681B681B6858
:103B3C000A435A607B681B681B681A6822210A4377
:103B4C001A607B681B681B685A68802189010A43CC
:103B5C005A6001231800BD4604B080BDFFFBFFFF77
:103B6C00FFF7FFFFFFEFFFFFFFFF00FF80B500AF88
:103B7C00024B1800FFF71EFFBD4680BD7C030020E2
:103B8C0080B500AF024B1800FFF714FFBD4680BD97
:103B9C007C03002080B582B000AF786039607B6810
:103BAC00012B0DD13B68084A934209D1074B1800F1
:103BBC00FFF7BFFD0649074B64221800FFF762FAB6
:103BCC00BD4602B080BDC046FFFF00007C03002054
:103BDC0088030020EC03002080B500AF034B1900D4
:103BEC000120FFF7D7FFBD4680BDC046FFFF000098
:103BFC0080B584B000AFF860B9607A603B600F4A62
:103C0C00FB681A60FB68BA689A60FB687A68DA60CD
:103C1C00FB683A685A61FB68DA68FB689B685A4330
:103C2C00FB681A61FB6800225A60FB6800221A7656
:103C3C00FB681800BD4604B080BDC04608460008AD
:103C4C0080B582B000AF78607B68DB681800BD4639
:103C5C0002B080BD80B582B000AF78607B689B6895
:103C6C001800BD4602B080BD80B582B000AF786050
:103C7C007B685B691800BD4602B080BD80B588B01A
:103C8C0000AFF860B9607A60FB681800FFF7E2FFDC
:103C9C000300BB61FB681800FFF7D2FF0100BA6894
:103CAC0000238A425B41DBB2002B01D000231DE0D4
:103CBC00BB68BA6953437B610023FB61FA69BB693A
:103CCC009A4212D2FB681800FFF7CEFF01007A6906
:103CDC00FB69D318CB181A787B6811001800FFF712
:103CEC00F1F9FB690133FB61E8E701231800BD46DC
:103CFC0008B080BD80B582B000AF78600A00BB1CF4
:103D0C001A807B68BA1C12881A81BD4602B080BD2D
:103D1C0080B582B000AF786039603A687B6811007A
:103D2C001800FFF7A3FE03001800BD4602B080BDCB
:103D3C0080B582B000AF78600A00FB1C1A70FB1CC7
:103D4C001A787B681100180000F097F9030018002E
:103D5C00BD4602B080BD80B582B000AF78607B6894
:103D6C00DB681800FFF710FD03001800BD4602B019
:103D7C0080BD80B582B000AF78600A00FB1C1A7061
:103D8C007B685A69FB1C1B7819001000FCF717FCA8
:103D9C00BD4602B080BD80B582B000AF78600A002D
:103DAC00FB1C1A707B681A69FB1C1B78190010002D
:103DBC00FCF705FCBD4602B080BD80B584B000AFF9
:103DCC00786008001100FB1C021C1A70BB1C0A1C3A
:103DDC001A70FB1C1B78102B01D9002324E0002344
:103DEC00FB60BB1C1B78022B06D0032B07D0012BCE
:103DFC0008D14023FB6007E01023FB6004E0502354
:103E0C00FB6001E00023FB60FB68DAB2FB1C1B7853
:103E1C001343DBB2802252421343DAB27B681100A7
:103E2C00180000F02AF903001800BD4604B080BD4C
:103E3C0080B500AF00F002F8BD4680BD80B500AF84
:103E4C00034B1B68180000F059F9BD4680BDC046F5
:103E5C000404002080B582B000AF7860034A7B6810
:103E6C001A607B681800BD4602B080BD3C46000855
:103E7C0080B582B000AF78607B681800FFF7EAFF6E
:103E8C007B681C21180000F00FFA7B681800BD46F7
:103E9C0002B080BD80B582B000AF786039603B68FD
:103EAC001800FDF729F8BD4602B080BD80B586B07C
:103EBC0002AFF860B9607A603B60534BFA681A60E5
:103ECC00FB687A681A61FB683A685A61FB68186982
:103EDC0002230093002300220121FEF708F9FB685E
:103EEC00586902230093002301220121FEF7FFF8F9
:103EFC00FB68464A5A60FB68454A9A60FB68002298
:103F0C001A76FB68BA68DA60FB68DB687C211800FB
:103F1C00FFF7F0FEFB6801211800FFF73CFFFB6880
:103F2C0000211800FFF725FFFB6832211800FFF76E
:103F3C00B1FFFB6801211800FFF71BFFFB68642130
:103F4C001800FFF7A7FFFB683821180000F095F860
:103F5C0096235A00FB6811001800FFF79BFFFB68C3
:103F6C003921180000F089F896235A00FB681100DB
:103F7C001800FFF78FFFFB681421180000F07DF884
:103F8C00FB6864211800FFF785FFFB687921180096
:103F9C0000F073F8FB6864211800FFF77BFFFB68E7
:103FAC005021180000F069F8FB6864211800FFF735
:103FBC0071FFFB686C21180000F05FF8FB6864214E
:103FCC001800FFF767FFFB680C21180000F055F88C
:103FDC00FB6864211800FFF75DFFFB6801211800E6
:103FEC0000F04BF8FB6864211800FFF753FFFB68E7
:103FFC003821180000F041F8FB6864211800FFF725
:10400C0049FFBD4604B080BD0404002044040020D8
:10401C008804002080B582B000AF786008001100E1
:10402C00FB1C021C1A70BB1C0A1C1A707B689B6858
:10403C001800FFF771FB7B689A68FB1C1B78002B40
:10404C0001D0002300E0402319001000FFF73AF8DC
:10405C007B689A68BB1C1B7819001000FFF732F8BC
:10406C007B68DA687B689B6819001000FFF7FEFC20
:10407C0003001800BD4602B080BD80B582B000AF11
:10408C0078600A00FB1C1A70FB1C1A787B680121F3
:10409C001800FFF7BFFF03001800BD4602B080BD3B
:1040AC0080B582B000AF786039607B689B6818007F
:1040BC00FFF732FB7B689B6840211800FFF702F882
:1040CC007B6858687B689A683B681900FFF7D6FDD7
:1040DC0003001A0001235340DBB2002B01D0002354
:1040EC0008E07B68DA687B689B6819001000FFF7B2
:1040FC000FFE03001800BD4602B080BD80B584B031
:10410C0000AF78600F217B187A68127E1A707B18CA
:10411C001B78082B65D89A00394BD3181B689F461F
:10412C007B6802221A7667E07B681800FFF713FEA3
:10413C0003001A0001235340DBB2002B55D07B68DF
:10414C0002211800FFF7F4FD7B6803221A7653E076
:10415C007B6804221A764FE07B681800FFF7FBFDA2
:10416C0003001A0001235340DBB2002B3FD07B68C5
:10417C0000211800FFF794FF7B6805221A763BE0BC
:10418C007B6806221A7637E07B681800FFF7E3FDA0
:10419C0003001A0001235340DBB2002B29D07B68AB
:1041AC00012200211800FFF708FE7B6807221A760F
:1041BC0022E07B6808221A761EE07B681800FFF765
:1041CC00CAFD03001A0001235340DBB2002B12D0AE
:1041DC007B6801211800FFF763FF7B6800221A76C9
:1041EC000AE07B6800221A7606E0C04604E0C0466E
:1041FC0002E0C04600E0C046BD4604B080BDC046EB
:10420C001046000880B582B000AF786039607B68DA
:10421C00012B15D13B68114A934211D1104A114818
:10422C0096230221FFF78AF80F4B10480222102127
:10423C00FFF7DEFC0E490F4B25221800FEF722FF7C
:10424C007B68002B07D13B68044A934203D1074B90
:10425C001800FEF7E9FFBD4602B080BDFFFF00006D
:10426C003D3E0008080400201C04002044040020EB
:10427C00600400208804002080B500AF034B1900B7
:10428C000120FFF7BFFFBD4680BDC046FFFF000009
:10429C0080B500AF034B19000020FFF7B3FFBD46FC
:1042AC0080BDC046FFFF000010B500F001F810BD46
:1042BC0010B500F001F810BD10B5034B01001868E3
:1042CC0000F004F810BDC0463C00002070B505009D
:1042DC00002910D00C1F2368002B00DAE4182800EA
:1042EC0000F045F81D4A1368002B05D1636014607B
:1042FC00280000F03DF870BDA34209D92168601870
:10430C008342F3D118685B6841182160EEE7130013
:10431C005A68002A01D0A242F9D919685818A0424B
:10432C000BD120680918581819608242E0D1106826
:10433C005268411819605A60DAE7A04202D90C237E
:10434C002B60D5E721686018824203D1106852684F
:10435C004118216062605C60CAE7C046A00400207E
:10436C000023C25C0133002AFBD1581E70477047F2
:10437C0070470000002243088B4274D303098B4220
:10438C005FD3030A8B4244D3030B8B4228D3030C19
:10439C008B420DD3FF22090212BA030C8B4202D3BB
:1043AC001212090265D0030B8B4219D300E0090AE3
:1043BC00C30B8B4201D3CB03C01A5241830B8B42EC
:1043CC0001D38B03C01A5241430B8B4201D34B03D5
:1043DC00C01A5241030B8B4201D30B03C01A52413A
:1043EC00C30A8B4201D3CB02C01A5241830A8B42BF
:1043FC0001D38B02C01A5241430A8B4201D34B02A8
:10440C00C01A5241030A8B4201D30B02C01A52410B
:10441C00CDD2C3098B4201D3CB01C01A52418309BF
:10442C008B4201D38B01C01A524143098B4201D3F9
:10443C004B01C01A524103098B4201D30B01C01A24
:10444C005241C3088B4201D3CB00C01A524183089E
:10445C008B4201D38B00C01A524143088B4201D3CB
:10446C004B00C01A5241411A00D20146524110462B
:10447C007047FFE701B5002000F006F802BDC0460A
:10448C000029F7D076E770477047C0460300121832
:10449C00934200D1704719700133F9E75F5F63787D
:1044AC00615F707572655F7669727475616C00001E
:1044BC0061626F727428292C2065786974696E6743
:1044CC002E2E2E009C060008A6060008B00600083A
:1044DC00CA060008EA060008040700081C070008C2
:1044EC007A0C00087A0C00086A0C00086C0C0008A6
:1044FC00740C00084C49435A4E494B3A203030302A
:10450C003030302000000000202020204D4152543B
:10451C00454348202020202000000000000000001F
:10452C000000FFFF010000000000FFFF0200000080
:10453C000100FFFF03000000000001004A1A000800
:10454C0088190008C8190008061A0008281A00085B
:10455C006C1A0008881C0008DC1C0008881C000869
:10456C00B41C0008CC1C0008DC1C00085A1D0008F8
:10457C005A1D0008AE1D0008861D00088E1D00087F
:10458C00AE1D000820537465726F776E696B2062E4
:10459C0072616D2000000000706F7A61726F777924
:1045AC00636820762E312E300000000000000000E1
:1045BC00000000008923000803240008692E00086D
:1045CC008D2E000800000000000000005B22000897
:1045DC00C5220008B12E0008D52E000800000000EE
:1045EC0000000000DD020008DD02000800000000F1
:1045FC000000000000000000000000003532000840
:10460C00513200082C4100082C41000834410008AC
:10461C005C410008644100088C410008944100088A
:10462C00BE410008C6410008000000000000000068
:08463C00613E00087D3E00080C
:1046440078563412A800002000000000006CDC0240
:10465400000000000000000001020304060708092E
:1046640000000000000000000000000064000000E2
:10467400300300204403002001FFFFFF400000201E
:104684000000000000000000000000000000000026
:104694000000000000000000000000000000000016
:1046A4000000000000000000000000000000000006
:1046B40000000000000000000000000000000000F6
:1046C40000000000000000000000000000000000E6
:1046D40000000000000000000000000000000000D6
:0446E400325476983E
:04000005080000C52A
:00000001FF
