:020000040800F2
:100000000040002001020008070200080B0200085F
:1000100000000000000000000000000000000000E0
:10002000000000000000000000000000270200089F
:1000300000000000000000002B020008D12300088F
:100040002F0200082F0200082F0200082F020008CC
:100050002F0200082F0200082F0200082F020008BC
:100060002F0200082F0200082F0200082F020008AC
:100070002F0200082F0200082F0200082F0200089C
:100080002F0200082F0200082F0200082F0200088C
:100090002F0200082F0200082F0200082F0200087C
:1000A0002F0200082F0200082F0200082F0200086C
:1000B0002F0200082F0200082F0200082F0200085C
:1000C0005FF808F130B583B000F0F0F8384B394AEA
:1000D0001360394A1360394A394B9A420DD20333BF
:1000E000384A9B1A9B0801339B00002236498858E6
:1000F0003249885004329A42F8D12E4B1A68334B59
:100100009A4200D0FEE72C4B1A68314B9A42F9D143
:10011000274B304A1360304A1360304A304B9A42C2
:1001200009D2304903335B1A032083435B18002153
:1001300002C29A42FBD1274B1B68002B03D1264BEE
:100140001B68002B00D0FEE700F0B4F8694601A858
:1001500000F0A4F8244C254BE41AA4100025AC426E
:1001600014DC234C234BE41AA4100025AC4213DC0E
:100170000099019801F0F6FD05001F4C1F4BE41A91
:10018000A410002C0EDC280000F082F8AB00174A07
:10019000D35898470135E2E7AB00164AD358984741
:1001A0000135E3E7013CA300144AD3589847E8E738
:1001B000BABADECA0000002098000020000000202B
:1001C0009C000020040000201832000878563412E9
:1001D000325476989C000020640400209C0000208B
:1001E00068040020A00000206002000860020008EF
:1001F00074020008600200087C0200087402000813
:1002000010B5FFF75FFF00BEFEE70420714608420D
:1002100002D0EFF3098001E0EFF308807146054A50
:10022000104700BEFEE700BEFEE700BEFEE700BED0
:08023000FEE7000023020008B4
:1002380018320008000000209C0000201832000836
:1002480000000000000000009C000020680400205E
:10025800000000000000000019050008C90A000895
:1002680061200008E12900080D2F00087920000806
:04027800252F000826
:10027C0080B582B000AF024B7B6000F004F8C04642
:10028C0030310008FEE710B50120FFF7FBFF00003E
:10029C0001230360014B0B607047C0462C0000200B
:1002AC0010B500F005F810BD10B500F033F810BD16
:1002BC0010B5124B1A6801210A431A605A6810488B
:1002CC0002405A601A680F4802401A601A680E48B9
:1002DC0002401A605A680D4802405A60DA6A0F20D0
:1002EC008243DA621A6B0A4802401A635A6B8A43D9
:1002FC005A6300229A6000F057F810BD00100240BB
:10030C000CB8FF08FFFFF6FEFFFFFBFFFFFFC0FF6F
:10031C00ACFEFFFF10B5204B5A680C231340042B86
:10032C0016D0082B18D0002B03D01C4B1C4A1A607B
:10033C0002E01A4B1A4A1A60174B5B681B061B0F1C
:10034C00184AD35CDBB2154A1168D940116010BD54
:10035C00124B134A1A60EFE70F4B5C685A68A40201
:10036C00240F0234C0235B021A4209D163011B1B08
:10037C009801C01AC00004192402084B1C60DBE76A
:10038C00054BDB6A0F2119400131054802F036FE9E
:10039C004443024B1C60CFE70010024004000020D5
:1003AC0000127A000800002082B000230193009311
:1003BC00274A116880235B020B431360244B1B6894
:1003CC008022920213400093019B01330193009B06
:1003DC00002B04D1019AA023DB019A42EED11C4BD5
:1003EC001B689B0306D501230093009B012B04D0B3
:1003FC0002B0704700230093F7E7164B11221A60E6
:10040C00134B5A685A605A685A605A6812490A4023
:10041C005A605968882252030A435A60196880222C
:10042C0052040A431A600A4B1B689B01FBD5084B0C
:10043C005A6803218A435A60596802220A435A6057
:10044C00034B5A680C231340082BF9D1D0E7C04654
:10045C000010024000200240FF7FC0FF80B582B038
:10046C0000AF78607B6801221A707B6800225A60AA
:10047C007B6800229A607B680022DA607B6800222D
:10048C001A617B681800BD4602B080BD80B582B091
:10049C0000AF78607B681B69180000F04FFCBD460C
:1004AC0002B080BD80B500AF024B1800FFF7EEFF25
:1004BC00BD4680BDA400002080B500AF014B1800E4
:1004CC00BD4680BDA400002080B582B000AF78602E
:1004DC0039607B68012B0DD13B68084A934209D1E6
:1004EC00074B1800FFF7BAFF064A074805230221FD
:1004FC0001F01EFFBD4602B080BDC046FFFF0000EC
:10050C00A4000020B1040008B800002080B500AFA2
:10051C00034B19000120FFF7D7FFBD4680BDC04635
:10052C00FFFF000090B583B000AF02003960FB1DE7
:10053C001A70FB1D1B785BB2002B36DA314AFB1D9F
:10054C001B785BB219000F230B40083B9B0806334A
:10055C009B00D31804331B68FA1D127852B2110099
:10056C0003220A40D200FF2191400A00D2431A40D4
:10057C0011003B689B01FF221A40FB1D1B785BB2EC
:10058C00180003230340DB009A401E48FB1D1B7818
:10059C005BB21C000F232340083B9B080A43063325
:1005AC009B00C31804331A6029E0174AFB1D1B7803
:1005BC005BB29B08C0339B009B58FA1D127852B259
:1005CC00110003220A40D200FF2191400A00D243BD
:1005DC001A4011003B689B01FF221A40FB1D1B783F
:1005EC005BB2180003230340DB009A400648FB1D56
:1005FC001B785BB29B080A43C0339B001A50BD4664
:10060C0003B090BD00ED00E000E100E080B582B0E9
:10061C0000AF78607B68013B0C4A934201D90123FF
:10062C0010E00B4B7A68013A5A6001235B420321BC
:10063C001800FFF777FF064B00229A60044B072245
:10064C001A6000231800BD4602B080BDFFFFFF00FA
:10065C0010E000E080B582B000AF78600A00FB1CAF
:10066C001A707B681B681A687B689B885B00032187
:10067C0099400B00D9437B681B680A401A607B6861
:10068C001B681968FB1C1A787B689B885B009A4076
:10069C007B681B680A431A60BD4602B080BD80B5FA
:1006AC0082B000AF78600A00FB1C1A707B681B6874
:1006BC009A687B689B885B00032199400B00D943A7
:1006CC007B681B680A409A607B681B689968FB1CF6
:1006DC001B781A007B689B885B009A407B681B68C0
:1006EC000A439A60BD4602B080BD80B582B000AFAF
:1006FC0078600A00FB1C1A707B681B68DA687B68E0
:10070C009B885B00032199400B00D9437B681B68D5
:10071C000A40DA607B681B68D968FB1C1A787B6816
:10072C009B885B009A407B681B680A43DA60BD4675
:10073C0002B080BD80B582B000AF78600A00FB1CAF
:10074C001A707B681B689B889AB27B689B8819001F
:10075C0001238B409BB2DB4399B27B681B680A4038
:10076C0092B29A807B681B689B8899B2FB1C1B78A1
:10077C007A68928893409AB27B681B680A4392B25B
:10078C009A80BD4602B080BD80B584B000AFF860E1
:10079C00B960BB1D1A80FB68BA681A60FB68BA1D89
:1007AC0012889A80FB6803211800FFF753FFFB683F
:1007BC0000211800FFF799FFFB6800211800FFF7D4
:1007CC006EFFFB6801211800FFF7B4FFFB681800EF
:1007DC00BD4604B080BD000080B582B000AF020001
:1007EC00FB1D1A70FB1D1B78042B0CD89A00074BB1
:1007FC00D3181B689F46FEE7054B01221A7002E0D6
:10080C00034B01221A70BD4602B080BD4431000872
:10081C00DC00002080B500AF024B1B681800BD4601
:10082C0080BDC0463C03002080B584B000AF78602A
:10083C00FFF7F0FF0300FB60FFF7ECFF0200FB6823
:10084C00D21A7B689A429B415B42DBB2002BF3D1FC
:10085C00BD4604B080BD000080B584B000AF7860A8
:10086C007B68084A9A429B415B42DBB2FB60064BB9
:10087C00FA681A60044BFA6810210A431A60BD46E4
:10088C0004B080BD00366E010020024080B582B0FD
:10089C0000AF786039603A4B1A68394B01210A4332
:1008AC001A60374B1B68022213405A425341DBB289
:1008BC00002BF6D1324B5A68314B03218A435A60D4
:1008CC002F4B5B680C2213405A1E9341DBB2002B5A
:1008DC00F6D12B4B1A682A4B802149020A431A6025
:1008EC00274B1A6880239B0213405A425341DBB2B8
:1008FC00002BF5D13B681800FFF7AEFF204B214AC7
:10090C005A601F4B0022DA621D4B1A681C4B802167
:10091C0049040A431A601A4B1A6880239B0413403B
:10092C005A425341DBB2002BF5D1154B5A68144B8C
:10093C0002210A435A60124B5B680C221340083B9D
:10094C005A1E9341DBB2002BF5D10D4B5A680C4B60
:10095C0002210A435A600A4B5B680C221340083B85
:10096C005A1E9341DBB2002BF5D1054B5A68044B50
:10097C0001210A405A6001231800BD4602B080BD17
:10098C00001002400000118080B582B000AF00233F
:10099C007B60154B5A69144BFC21C9030A435A61FD
:1009AC00114B5B697B607B680F4BDA690E4B8021C6
:1009BC0089030A43DA610C4BDA6980239B031340E9
:1009CC007B607B68084B9A69074B802189000A433E
:1009DC009A61054B9A6980239B0013407B607B686E
:1009EC00BD4602B080BDC0460010024080B500AFCD
:1009FC00114A124B11001800FFF748FFFFF78AFC51
:100A0C00FFF7C2FF0E4B1A68FA239900100002F090
:100A1C00F5FA03001800FFF7F9FD03005A1E934185
:100A2C00DBB2002B02D00220FFF7D6FE00F012F84A
:100A3C0000F008F8BD4680BD0048E80100127A00BD
:100A4C000400002080B500AFBD4680BD80B500AF6E
:100A5C00BD4680BD80B500AFBD4680BD80B582B0BF
:100A6C0000AF78607B681800FFF7DEFEBD4602B071
:100A7C0080BD000080B582B000AF786039607B68C3
:100A8C00012B0FD13B68094A93420BD10849094B02
:100A9C0000221800FFF778FE0549074B01221800C9
:100AAC00FFF772FEBD4602B080BDC046FFFF0000DE
:100ABC0000080048CC000020D400002080B500AF16
:100ACC00034B19000120FFF7D5FFBD4680BDC04682
:100ADC00FFFF000080B582B000AF78607B685A6879
:100AEC007B689B68D31A5A425341DBB21800BD464F
:100AFC0002B080BD80B582B000AF78607B68180012
:100B0C00FFF7E8FF03001A0001235340DBB2180083
:100B1C00BD4602B080BD80B584B000AF78607B6804
:100B2C0004331800FFF7E6FF031E11D07B68043373
:100B3C00180001F0FEFA03001A000F217B181A703E
:100B4C007B181B78002BEAD00F23FB181B7800E0D6
:100B5C0000231800BD4604B080BD80B582B000AF44
:100B6C0078607B681800FFF7D6FF03001800BD46BD
:100B7C0002B080BD80B582B000AF78607B685A68E7
:100B8C007B681B691900100002F0BEFA0B001A00FA
:100B9C007B685A60BD4602B080BD80B582B000AFA4
:100BAC0078607B685B685A1C7B685A607B68596804
:100BBC007B681A69002391425B41DBB2002B02D0A7
:100BCC007B6800225A60BD4602B080BD80B584B0FF
:100BDC0000AFF860B9607A60FB68DB687A689A42AB
:100BEC0001D300230FE0FB689B68BA689A4201D3DB
:100BFC00002308E0FB689B687A685A43BB68D218EC
:100C0C00FB685A6001231800BD4604B080BD80B556
:100C1C0082B000AF78600A00FB1C1A707B68180069
:100C2C00FFF7A8FF7B685A697B685B68D318FA1CCE
:100C3C0012781A707B681800FFF7AFFFBD4602B040
:100C4C0080BD80B582B000AF786039603B681B789E
:100C5C005BB2002B0AD03B685A1C3A6000229A56B1
:100C6C007B6811001800FFF7D2FFEFE7BD4602B01A
:100C7C0080BD80B582B000AF78600A00FB1C1A7092
:100C8C007B68FA1C12781A76BD4602B080BDF0B5AE
:100C9C009FB000AFF860B9607A60BB68180002F0D2
:100CAC00A3F90200632393429B415B42DBB2002B0E
:100CBC0001D0002312E077257C191026BA19796827
:100CCC00BB68180001F0D5FB03002370BA19FB6850
:100CDC0011001800FFF7B5FF7B191B781800BD46F3
:100CEC001FB0F0BD80B582B000AF78600A00FB1C6D
:100CFC001A707B68FA1C12781A747B6800221A75B9
:100D0C00C0467B68180000F003F8BD4602B080BDF9
:100D1C0080B584B000AF78607B6800221A750E2114
:100D2C007B1801221A807B181A887B681100180026
:100D3C0000F074F8BD4604B080BD0000B0B584B0BE
:100D4C0000AF78607B685B680F257C191800FFF793
:100D5C0004FF030023707B191B78002B19D17B68CF
:100D6C00DB685A1D7B68DA607B68DA68EC23DB0091
:100D7C009A4247D90C217B1801221A807B181A88B9
:100D8C007B681100180000F049F87B680022DA60DB
:100D9C003FE07B680022DA607B681B7D002B08D06B
:100DAC000F23FB181A787B681100180000F05CF810
:100DBC002FE0194B1B78002B08D00F23FB181B7846
:100DCC00022B03D1144B00221A7022E00F23FB18C4
:100DDC001B78013B5A425341DAB20F4B1A707B68B5
:100DEC001B7C002B15D10F23FB181B78032B0BD06E
:100DFC00042B0BD0012B0BD07B6800211800FFF7C4
:100E0C0071FF06E0C04604E0C04602E0C04600E0C8
:100E1C00C046BD4604B0B0BDDD00002080B582B038
:100E2C0000AF78600A00BB1C1A807B681B7C002B0F
:100E3C0014D17B689B68002200211800FFF7C6FEC6
:100E4C007B689B6807494D221800FFF720FF7B68E1
:100E5C009B68002201211800FFF7B8FEBD4602B0C6
:100E6C0080BDC0465831000880B582B000AF7860B4
:100E7C000A00FB1C1A7001231800BD4602B080BD8D
:100E8C0080B584B000AF78607B681B681A687B689B
:100E9C009B885B00DA401300FB60FB68DBB203222B
:100EAC001340DBB21800BD4604B080BD80B584B0E1
:100EBC0000AF78607B681B68DA687B689B885B0096
:100ECC00DA401300FB60FB68DBB203221340DBB299
:100EDC001800BD4604B080BD80B584B000AF78600A
:100EEC007B681B689A687B689B885B00DA40130000
:100EFC00FB60FB68DBB203221340DBB21800BD467B
:100F0C0004B080BD80B584B000AF78607B681B688E
:100F1C009B889BB21A007B689B881A411300FB606C
:100F2C00FB68DBB201221340DBB21800BD4604B0F3
:100F3C0080BD80B582B000AF78607B689B881A005A
:100F4C00012393401A007B681B689A61BD4602B06E
:100F5C0080BD80B582B000AF78607B689B88103311
:100F6C0001229A407B681B689A61BD4602B080BD25
:100F7C0080B582B000AF78607B681B681B8A9BB21F
:100F8C001A007B689B881A411300012213405A1ED9
:100F9C009341DBB21800BD4602B080BD90B583B062
:100FAC0000AF78600C0010001900FB1C221C1A709A
:100FBC00BB1C021C1A707B1C0A1C1A70FB1C1A78B6
:100FCC007B6811001800FFF745FBBB1C1A787B6887
:100FDC0011001800FFF7AEFB7B1C1A787B68110020
:100FEC001800FFF782FB1823FB181A787B68110096
:100FFC001800FFF754FBBD4603B090BD80B582B01E
:10100C0000AF786039603B681800FFF739FF0300C8
:10101C001A007B6811001800FFF71CFB3B681800D6
:10102C00FFF770FF03001A007B6811001800FFF730
:10103C0081FB3B681800FFF739FF03001A007B683F
:10104C0011001800FFF751FB3B681800FFF744FF35
:10105C0003001A007B6811001800FFF720FBBD4647
:10106C0002B080BD80B582B000AF78607B68002292
:10107C001A607B6800225A607B6800221A817B68A8
:10108C0000229A727B681800BD4602B080BD000039
:10109C0080B582B000AF7860034A7B681A607B68C9
:1010AC001800BD4602B080BDC431000880B582B0C6
:1010BC0000AF7860034A7B681A607B681800BD46F5
:1010CC0002B080BDC431000880B584B000AFF860B8
:1010DC00B9607A60FB681800FFF7E8FF084AFB6804
:1010EC001A60FB6802221A73FB68BA685A60FB68C4
:1010FC007A689A60FB681800BD4604B080BDC04693
:10110C00AC31000880B582B000AF78600A00FB1CDF
:10111C001A707B68FA1C12781A737B681B7B002B85
:10112C0002D0012B0BD015E07B685B681800FFF731
:10113C0010FF7B689B681800FFF7FBFE14E07B68D0
:10114C009B681800FFF705FF7B685B681800FFF7CA
:10115C00F0FE09E07B685B681800FFF7FAFE7B681D
:10116C009B681800FFF7F5FEBD4602B080BD80B548
:10117C0082B000AF78607B681B7B1800BD4602B064
:10118C0080BD80B584B000AF786008001100FB1CF6
:10119C00021C1A70BB1C0A1C1A70FB1C1B78002B3F
:1011AC000AD17B68BA1C12781A747B681B68FB60C6
:1011BC007B685B68BB6009E07B68BA1C12785A7468
:1011CC007B689B68FB607B68DB68BB60BB1C1B7827
:1011DC00002B02D0012B09D011E0BB681800FFF7DF
:1011EC00B8FEFB681800FFF7A4FE10E0FB681800BF
:1011FC00FFF7AFFEBB681800FFF79BFE07E0FB682C
:10120C001800FFF7A6FEBB681800FFF7A2FEBD464C
:10121C0004B080BD80B584B000AFF860B9607A606E
:10122C003B60FB6802221A74FB6802225A74FB684A
:10123C0002229A74FB68BA681A60FB687A685A6072
:10124C00FB683A689A60FB68BA69DA60FB68180058
:10125C00BD4604B080BD80B582B000AF78600A0096
:10126C00FB1C1A70FB1C1A787B6800211800FFF716
:10127C0088FFBD4602B080BD80B582B000AF7860FB
:10128C000A00FB1C1A70FB1C1A787B6801211800E1
:10129C00FFF777FFBD4602B080BD80B582B000AFCE
:1012AC0078600A00FB1C1A707B68FA1C12789A741E
:1012BC007B689B7C012B18D002DC002B05D04EE008
:1012CC00032B22D0042B35D049E07B680221180077
:1012DC00FFF7C1FF7B6801211800FFF7CDFF7B688A
:1012EC0000211800FFF7B7FF43E07B6802211800CC
:1012FC00FFF7C2FF7B6801211800FFF7ACFF7B688A
:10130C0000211800FFF7B8FF33E07B6802211800BA
:10131C00FFF7B2FF7B6802211800FFF79CFF7B6888
:10132C0000211800FFF7A8FF7B6800211800FFF7C9
:10133C0092FF1EE07B6802211800FFF79DFF7B687F
:10134C0002211800FFF787FF7B6801211800FFF7C7
:10135C0093FF7B6801211800FFF77DFF09E07B6894
:10136C0002211800FFF788FF7B6802211800FFF7A5
:10137C0072FFBD4602B080BD80B582B000AF786010
:10138C0039607B681800FFF791FE074A7B681A608A
:10139C007B6802221A727B683A685A607B68180074
:1013AC00BD4602B080BDC0469431000880B582B005
:1013BC0000AF78600A00FB1C1A707B68FA1C12786C
:1013CC001A727B681B7A012B0FD002DC002B05D024
:1013DC0020E0032B10D0042B15D01BE07B685B683E
:1013EC0000211800FFF759FF1AE07B685B680121A8
:1013FC001800FFF752FF13E07B685B6803211800AD
:10140C00FFF74BFF0CE07B685B6804211800FFF7CB
:10141C0044FF05E07B685B6802211800FFF73DFF85
:10142C00BD4602B080BD80B582B000AF78607B68ED
:10143C001B7A1800BD4602B080BD80B582B000AFEB
:10144C00786039607B6800221A717B6800225A71BF
:10145C007B683A681A607B681800BD4602B080BD94
:10146C0080B586B002AFF860B9601900FB1D1A7028
:10147C00BB1D0A1C1A70F868FB1D1B789AB2BB685E
:10148C001900FFF781F9FB68BA1D12781A72FB6814
:10149C001822BA181278DA71FB6800229A71F8686F
:1014AC0000230093002300220121FFF777FDFB6846
:1014BC001800BD4604B080BD80B582B000AF786026
:1014CC000A00FB1C1A707B68FA1C1278DA71BD4694
:1014DC0002B080BD80B586B002AF7860786800231A
:1014EC000093002300220121FFF758FD7B6808338D
:1014FC007A6811001800FFF781FD7B6810337A6859
:10150C0011001800FFF77AFD7B6818337A68110018
:10151C001800FFF773FD7B6820337A681100180000
:10152C00FFF76CFD7B6828337A6811001800FFF711
:10153C0065FD7B6830337A6811001800FFF75EFD9B
:10154C007B6838337A6811001800FFF757FD7B6809
:10155C0040337A6811001800FFF750FD7B68483360
:10156C007A6811001800FFF749FD7B6850331800AA
:10157C0002230093002300220121FFF70FFD7B685B
:10158C0058331A007B68503319001000FFF736FDF2
:10159C007B6860331A007B68503319001000FFF72A
:1015AC002DFD7B6868331A007B68503319001000DE
:1015BC00FFF724FD7B6870331A007B6850331900E9
:1015CC001000FFF71BFD7B6878331A007B685033E3
:1015DC0019001000FFF712FD7B6880331A007B683E
:1015EC00503319001000FFF709FD7B6888331A008F
:1015FC007B68503319001000FFF700FD7B689033B7
:10160C00180000230093012301220021FFF7C6FCE0
:10161C007B6898331A007B68903319001000FFF731
:10162C00EDFC7B68A0331A007B6890331900100026
:10163C00FFF7E4FC7B68A8331A007B689033190031
:10164C001000FFF7DBFC7B68B0331A007B6890332B
:10165C0019001000FFF7D2FC7B68B8331A007B68C6
:10166C00903319001000FFF7C9FC7B68C0331A00D7
:10167C007B68903319001000FFF7C0FC7B68C833FF
:10168C001A007B68903319001000FFF7B7FC7B68D9
:10169C00D0331A007B68903319001000FFF7AEFCB2
:1016AC007B68D8331A007B68903319001000FFF761
:1016BC00A5FC7B68E0331A007B689033190010009E
:1016CC00FFF79CFC7B68E8331A007B6890331900A9
:1016DC001000FFF793FC7B68F0331A007B689033A3
:1016EC0019001000FFF78AFC7B68F8331A007B683E
:1016FC00903319001000FFF781FC7B685A1CFF32F5
:10170C007B68903319001000FFF778FC7B68093375
:10171C00FF331A007B68903319001000FFF76EFC42
:10172C00064B5A69054BFC21C9030A435A61034B0A
:10173C005B69FB60FB68BD4604B080BD00100240D5
:10174C0080B584B000AFF860B9607A603B60FB682C
:10175C000022DA60FB6800221A74FB6800225A74BB
:10176C00FB68BA681A60FB687A685A60FB683A686A
:10177C009A60FB681800BD4604B080BD80B582B08D
:10178C0000AF78600A00FB1C1A70FB1C1B78002B46
:10179C0007D07B681A1DFB1C1B781900100000F089
:1017AC0091FCBD4602B080BD80B582B000AF7860C0
:1017BC007B685B6A1800FFF7DBFB03001A00012350
:1017CC005340DBB2002B01D003232AE07B689B6AD9
:1017DC001800FFF7CDFB03001A0001235340DBB2C6
:1017EC00002B01D001231CE07B68DB691800FFF79C
:1017FC00BFFB03001A0001235340DBB2002B01D0C6
:10180C0002230EE07B681B6A1800FFF7B1FB030094
:10181C001A0001235340DBB2002B01D0042300E05B
:10182C0000231800BD4602B080BD80B586B000AF65
:10183C00F860B9607A603B60FB680433F968042295
:10184C00180000F01FFCFB68BA68DA61FB687A6864
:10185C001A62FB683A685A62FB683A6A9A62162303
:10186C00FB1800221A801623FB181B88032B0BD89D
:10187C0016203B181B88FA680021D1543B181A8893
:10188C003B1801321A80EEE7FB681800BD4606B023
:10189C0080BD0000B0B584B000AF78600F257C1916
:1018AC007B68180000F01EF8030023700C4B1B78AB
:1018BC007A1912789A4210D0094B0F217A181278A3
:1018CC001A707B181B78002B07D00F23FB181A7883
:1018DC007B6811001800FFF751FFBD4604B0B0BD86
:1018EC00DE00002080B582B000AF78607B68180005
:1018FC00FFF75AFF03001800BD4602B080BD80B54B
:10190C0084B000AFF860B9607A603B607A68B968FF
:10191C00FB681800FFF75AF93A68FB6811001800C9
:10192C00FFF78FF9BD4604B080BD80B584B000AF21
:10193C0078600023FB607B681B69FA689A420AD2C4
:10194C007B685A697B685B68D31820221A70FB6825
:10195C000133FB60EFE7BD4604B080BD80B584B0B9
:10196C0000AFF860B9607A603B60FB68BA681A60D7
:10197C00FB687A685A60FB683A689A60FB680022D8
:10198C001A74BD4604B080BD80B584B000AFF86059
:10199C00B9607A603B60FB68BA685A60FB683A6869
:1019AC009A60FB687A68DA60FB68BA691A61FB684E
:1019BC001869FB685968FB68DA68FB689B68FFF775
:1019CC00CDFFFB6800221A70BD4604B080BD00003C
:1019DC0080B582B000AF78600E4A7B681A607B6875
:1019EC0000225A607B6800229A607B680022DA60D1
:1019FC007B6800221A617B6800225A617B68002296
:101A0C001A767B68180001F0F1F87B681800BD4667
:101A1C0002B080BD1032000880B582B000AF786093
:101A2C007B685B681800BD4602B080BD80B584B091
:101A3C0002AF786078689023DB0500221900FEF76E
:101A4C00A3FE7B68083318009023DB0501221900E4
:101A5C00FEF79AFE7B68103318009023DB050222F8
:101A6C001900FEF791FE7B68183318009023DB05F4
:101A7C0003221900FEF788FE7B682033A449042258
:101A8C001800FEF781FE7B68283318009023DB05D5
:101A9C0008221900FEF778FE7B6830339C49062239
:101AAC001800FEF771FE7B6838339949092218003B
:101ABC00FEF76AFE7B684033954907221800FEF753
:101ACC0063FE7B684833924908221800FEF75CFEDF
:101ADC007B6850338F490F221800FEF755FE7B6848
:101AEC0058338C490E221800FEF74EFE7B6860338B
:101AFC0088490D221800FEF747FE7B68683385493C
:101B0C000C221800FEF740FE7B68703381490B22D3
:101B1C001800FEF739FE7B6878337E490A221800DC
:101B2C00FEF732FE7B6880337A4909221800FEF7F3
:101B3C002BFE7B688833774908221800FEF724FEB9
:101B4C007B68903318009023DB0507221900FEF701
:101B5C001BFE7B689833704900221800FEF714FEB8
:101B6C007B68A0336C4901221800FEF70DFE7B68E0
:101B7C00A833694902221800FEF706FE7B68B033D1
:101B8C0018009023DB0504221900FEF7FDFD7B688D
:101B9C00B83318009023DB0505221900FEF7F4FD7D
:101BAC007B68C03318009023DB0506221900FEF772
:101BBC00EBFD7B68C833594907221800FEF7E4FD9A
:101BCC007B68D033554908221800FEF7DDFD7B6891
:101BDC00D833524909221800FEF7D6FD7B68E03352
:101BEC004E490A221800FEF7CFFD7B68E8334B49BB
:101BFC000B221800FEF7C8FD7B68F03347490C2216
:101C0C001800FEF7C1FD7B68F83344490D2218001B
:101C1C00FEF7BAFD7B680133FF3340490E221800F2
:101C2C00FEF7B2FD7B680933FF333C490F221800E5
:101C3C00FEF7AAFD7B681133FF33354905221800E6
:101C4C00FEF7A2FD7B681933FF33344902221800DA
:101C5C00FEF79AFD7B682133FF3318009023DB05D8
:101C6C000C221900FEF790FD7B682933FF332A49BB
:101C7C0006221800FEF788FD7B683133FF332649B6
:101C8C0007221800FEF780FD7B683933FF332149AA
:101C9C0006221800FEF778FD7B684133FF331D499F
:101CAC0005221800FEF770FD7B684933FF33194994
:101CBC0004221800FEF768FD7B685133FF33164988
:101CCC000A221800FEF760FD7B685933FF33124976
:101CDC000B221800FEF758FD7B686133FF331800A8
:101CEC000F490023009300230222FFF7B9FB7B6806
:101CFC006D33FF3318000A4900230093002303229D
:101D0C00FFF7AEFB7B681800BD4602B080BDC04635
:101D1C0000080048000C004800040048001000486F
:101D2C000014004880B582B000AF78607B68002258
:101D3C005A827B6800221A757B681800BD4602B077
:101D4C0080BD000080B500AF024B1800FFF7A2FD6C
:101D5C00BD4680BD5802002090B587B002AF7860B8
:101D6C003960FEF743FE2E4B1800FFF7B3FB2D4BEB
:101D7C002D4A1A602B4B6422DA602A4B2B4A5A608C
:101D8C00284B2B4A9A60274A2A4B1100180000F066
:101D9C009CFC294B294A2749294800F039FFFEF7BA
:101DAC008BFB0300FB60274B1C68254B1800FFF7CF
:101DBC0033FE0100244AF868244B00930B002100E9
:101DCC00FFF7E2FDFB689B681800FFF7AEFDFB68B0
:101DDC009B6800211800FEF74CFF1D4B00211800DA
:101DEC00FFF76AFB1B4B1800FFF7A3F8FB6898681A
:101DFC00194B00220021FFF782FDFB689868174BF6
:101E0C0000220121FFF77BFDFB681B6900211800F4
:101E1C00FEF768FFFEF71AFE00F05CFAFAE7C04620
:101E2C00E000002018000020005400403802002080
:101E3C0030020020D0020020F0010020F801002028
:101E4C00DC02002028000020580200200C03002097
:101E5C00400200204C020020643100087831000858
:101E6C0080B582B000AF7860054A7B681A607B68E9
:101E7C001800FFF70DF97B681800BD4602B080BD55
:101E8C009431000880B582B000AF78607B68180090
:101E9C00FFF7E6FF7B680C21180001F049F87B681E
:101EAC001800BD4602B080BD80B582B000AF78602E
:101EBC00054A7B681A607B681800FFF7E9F87B68B5
:101ECC001800BD4602B080BDAC31000880B582B0B0
:101EDC0000AF78607B681800FFF7E6FF7B68102185
:101EEC00180001F025F87B681800BD4602B080BDD3
:101EFC0090B585B002AF786039607B68012B5BD1FF
:101F0C003B68384A934257D1374B1800BC235B00CF
:101F1C001A00002101F0FEF8334B1800FFF786FD84
:101F2C00324C334A33493448344B00932300FFF787
:101F3C007CFC334C334A34493448354B00932300F2
:101F4C00FFF768F9334C344A34493548354B009324
:101F5C002300FFF75FF92D4A334B11001800FFF7F0
:101F6C006CFA2F4A314B11001800FFF705FA304A72
:101F7C003049314B1800FFF7A7F8304B1800FFF72A
:101F8C0071F82F4B1800FFF723FD274B2A4A2749DE
:101F9C002C48FFF7D5FB2C4B180018231A000021F6
:101FAC0001F0B8F8284B1800FFF7BCFE274A284868
:101FBC000A23022100F0BCF97B68002B0FD13B688F
:101FCC00084A93420BD11E4B180000F0E3FD1A4B4C
:101FDC001800FFF769FF154B1800FFF741FFBD46CE
:101FEC0003B090BDFFFF0000E00000208001002046
:101FFC007801002070010020580200208801002088
:10200C003801002050010020300100208402002003
:10201C0058010020480100206001002040010020F0
:10202C009802002068010020AC020020B4020020BD
:10203C001001002018010020C0020020D002002056
:10204C00DC020020F80200200C030020511D0008C7
:10205C002403002080B500AF034B19000120FFF7CB
:10206C0047FFBD4680BDC046FFFF000080B500AFF6
:10207C00034B19000020FFF73BFFBD4680BDC04657
:10208C00FFFF000080B584B000AFF860B9607A60E3
:10209C00FB680B4A1A61FB68094A9A82FB687A68EA
:1020AC001A60FB68BA68DA60FB6800229A60FB6809
:1020BC0000225A60FB681800BD4604B080BDC046C3
:1020CC0000FFFFFF80B584B000AF78600A00FB1CF6
:1020DC001A707B685B68FB607B689B68BB60FB6805
:1020EC000133BA689A4201D100231EE0BB68002B71
:1020FC0007D17B681B68013BFA689A4201D1002327
:10210C0013E07B68DA68FB68591CF960D318FA1C79
:10211C0012781A707B681B68FA689A4201D2FA68C6
:10212C0000E000227B685A6001231800BD4604B011
:10213C0080BD80B586B000AF78607B689B687B61A2
:10214C007B685B683B617A693B699A4202D17B6828
:10215C009B8A17E07B68DA687B69591C7961D21815
:10216C000F23FB1812781A707B681B687A699A42E5
:10217C0001D27A6900E000227B689A600F23FB1879
:10218C001B789BB21800BD4606B080BD80B584B0EC
:10219C0000AF786039603B68002B01D1002323E04D
:1021AC000F23FB1801221A703B681800FEF7A2FCE3
:1021BC00031E16D03B681800FFF7BBFF0300DAB212
:1021CC007B6811001800FFF77DFF03001A00012344
:1021DC005340DBB2002BE7D00F23FB1800221A7000
:1021EC00E2E70F23FB181B781800BD4604B080BD36
:1021FC0080B584B000AF78607B689B68FB607B68BF
:10220C005B68BB60BA68FB689A4203D3BA68FB6828
:10221C00D31A05E07B681A68FB68D21ABB68D3181E
:10222C001800BD4604B080BD80B582B000AF7860A8
:10223C00034A7B681A607B681800BD4602B080BDFB
:10224C00DC31000880B582B000AF78607B68180084
:10225C00FFF7EAFF7B681C21180000F069FE7B6821
:10226C001800BD4602B080BD80B584B000AF786068
:10227C00164B1A687B68D218144B1A60144B1B68E7
:10228C00FB60FB68002B1DD0FB685B7C022B15D11F
:10229C00FB681B687A689A429B415B42DBB2002B5D
:1022AC0006D0FB681A687B68D21AFB681A6005E0D6
:1022BC00FB6801225A74FB6800221A60FB689B6859
:1022CC00FB60DEE7BD4604B080BDC0463C03002089
:1022DC003803002080B582B000AF144B1B687B60C4
:1022EC007B68002B1ED07B685B7C012B16D17B6836
:1022FC001B7C012B0CD0022B10D17B685A687B689D
:10230C001A607B6802225A747B68DB68984705E088
:10231C007B6800225A747B68DB6898477B689B68F3
:10232C007B60DDE7BD4602B080BDC04638030020AF
:10233C0080B586B000AFF8607A603B600B203B182C
:10234C000A1C1A70FB6800225A74FB683A1812783F
:10235C001A74FB687A68DA60FB683A685A60184B42
:10236C001B68002B0AD1164BFA681A60144B1B68B9
:10237C0000229A60FB6802225A741BE0104B1B6807
:10238C007B617B699B68002B07D07A69FB689A425A
:10239C0010D07B699B687B61F3E77A69FB689A4292
:1023AC0008D0FB6800229A607B69FA689A60FB6827
:1023BC0002225A74FB681800BD4606B080BDC046A8
:1023CC003803002080B500AF0120FFF74DFFBD465C
:1023DC0080BD70B5C64600B583B0804601910378C8
:1023EC005BB2002B07D0040001340023E356002B12
:1023FC00FAD1A0450BD3019846427041C0B203B04C
:10240C0004BC904670BD30352570A045F3D0013C1E
:10241C000026A657302E01D0232EF6D10A21019882
:10242C0000F072FECDB20A21019800F0E7FD019098
:10243C00002DE8D1031EE6D1232EE6D120332370E4
:10244C00E3E710B50023CB560131002B0FD0441C11
:10245C00037001314B1E1B785BB22000002BF6D1B0
:10246C00002A02D0002323700134200010BD040088
:10247C00F6E770B50D001400012201002000FFF7F3
:10248C00E0FF29002000FFF7A4FF70BD80B582B0EB
:10249C0000AF0200FB1D1A70FB1D1B785BB21F22E4
:1024AC001A40044B012191400A001A60BD4602B04B
:1024BC0080BDC04600E100E090B583B000AF0200E3
:1024CC003960FB1D1A70FB1D1B785BB2002B36DAD2
:1024DC00314AFB1D1B785BB219000F230B40083BE4
:1024EC009B0806339B00D31804331B68FA1D127823
:1024FC0052B2110003220A40D200FF2191400A007F
:10250C00D2431A4011003B689B01FF221A40FB1D6D
:10251C001B785BB2180003230340DB009A401E4873
:10252C00FB1D1B785BB21C000F232340083B9B0850
:10253C000A4306339B00C31804331A6029E0174A78
:10254C00FB1D1B785BB29B08C0339B009B58FA1D8C
:10255C00127852B2110003220A40D200FF2191409E
:10256C000A00D2431A4011003B689B01FF221A401B
:10257C00FB1D1B785BB2180003230340DB009A4061
:10258C000648FB1D1B785BB29B080A43C0339B00BB
:10259C001A50BD4603B090BD00ED00E000E100E034
:1025AC0080B588B000AF78600A00FB1C1A70FB1C69
:1025BC001B78072B01D9002352E00723FB61FB1C7E
:1025CC001B78BB617B689B88072B1FD87B689B881B
:1025DC00DAB217217B1892001A707B681B681B6A91
:1025EC003B617B181B7807229A401300DA433B6946
:1025FC0013403B617B181B78BA699A4013003A6907
:10260C0013433B617B681B683A691A627B689B8841
:10261C00072B24D97B689B880F2B20D87B689B8841
:10262C00083BDAB20F217B1892001A707B681B688A
:10263C005B6ABB607B181B7807229A401300DA4355
:10264C00BB681340BB607B181B78BA699A401300B7
:10265C00BA681343BB607B681B68BA685A62012373
:10266C001800BD4608B080BD80B582B000AF786060
:10267C007B6800225A607B6800229A60BD4602B0DB
:10268C0080BD80B582B000AF78600A00FB1C1A7068
:10269C00FB1C1B78002B03D17B6800229A7203E091
:1026AC007B68FA1C12789A72BD4602B080BD80B568
:1026BC0082B000AF78607B689B7ADBB25A1E934184
:1026CC00DBB21800BD4602B080BD80B582B000AF51
:1026DC00786039607B683A681A607B681B681B6895
:1026EC00002B01D1002319E03B685B68002B01D162
:1026FC00002313E03B689B68002B01D100230DE005
:10270C007B681B68DB68002B03D17B681B68642229
:10271C00DA607B68180000F005F803001800BD466D
:10272C0002B080BD80B586B002AF78604A4BDA69E2
:10273C00494B802189030A43DA61474BDA698023CC
:10274C009B031340FB60FB687B681B681B681A6863
:10275C007B681B681B6801218A431A607B681B68B5
:10276C001B681B68012213405A1E9341DBB2002BDD
:10277C00F4D17B681B689868032300930123012222
:10278C000221FEF70BFC7B681B685868032300933F
:10279C00012301220221FEF701FC7B681B689B6868
:1027AC0001211800FFF7FCFE7B681B685B680121A8
:1027BC001800FFF7F5FE7B681B681B681A687B68BE
:1027CC001B681B68802149010A431A607B681B68DF
:1027DC001B681B68214A1A407B681B681B68802198
:1027EC0049000A431A6003211720FFF765FE1720E2
:1027FC00FFF74CFE7B681B681B681A687B681B68BC
:10280C001B6817490A401A607B681B681B68154ACD
:10281C001A617B681B681B681A687B681B681B68DD
:10282C0001210A431A607B681B681B681B68012224
:10283C0013405A425341DBB2002BF4D17B680A4A55
:10284C005A607B6800211800FFF71BFF012318005A
:10285C00BD4604B080BDC04600100240FFF0FFFF33
:10286C00FFFFFDFF271A1060B003002080B584B075
:10287C0000AF786039607B681800FFF718FF031E03
:10288C0001D0002378E07B6801211800FFF7F9FEE6
:10289C007B685B681800FFF7E7FE7B685B683A684B
:1028AC0011001800FFF772FC7B681B681B685A68E4
:1028BC007B681B681B6832490A405A607B681B683E
:1028CC001B685A687B681B681B682E490A405A6053
:1028DC007B681B681B685B689B0A9A027B681B8978
:1028EC009BB219007B681B681B680A435A607B68A3
:1028FC001B681B685A687B681B681B6822490A4066
:10290C005A607B681B681B685A687B681B681B686D
:10291C00802189040A435A607B685B681800FFF7C2
:10292C0067FC0300FB60FB68FF2B01D9FF23FB60F6
:10293C007B681B681B685B68144A13401900FB68B2
:10294C001A047B681B681B680A435A607B681B6807
:10295C001B681A687B681B681B6822210A431A6073
:10296C007B681B681B685A687B681B681B68802126
:10297C0089010A435A6001231800BD4604B080BD8A
:10298C00FFFBFFFFFFF7FFFFFFEFFFFFFFFF00FF66
:10299C0080B582B000AF786039607B68012B0DD1B7
:1029AC003B68084A934209D1074B1800FEF75AFBC3
:1029BC000649074B64221800FFF764FBBD4602B0C2
:1029CC0080BDC046FFFF0000400300204C030020E8
:1029DC00B003002080B500AF034B19000120FFF7B6
:1029EC00D7FFBD4680BDC046FFFF000080B584B058
:1029FC0000AFF860B9607A603B600F4AFB681A6000
:102A0C00FB68BA689A60FB687A68DA60FB683A68B7
:102A1C005A61FB68DA68FB689B685A43FB681A6169
:102A2C00FB6800225A60FB6800221A76FB681800CB
:102A3C00BD4604B080BDC046DC31000880B582B014
:102A4C0000AF78607B68DB681800BD4602B080BDC3
:102A5C0080B582B000AF78607B689B681800BD467B
:102A6C0002B080BD80B582B000AF78607B685B69D6
:102A7C001800BD4602B080BD80B588B000AFF860CC
:102A8C00B9607A60FB681800FFF7E2FF0300BB61D6
:102A9C00FB681800FFF7D2FF0100BA6800238A42D6
:102AAC005B41DBB2002B01D000231DE0BB68BA698F
:102ABC0053437B610023FB61FA69BB699A4212D2D2
:102ACC00FB681800FFF7CEFF01007A69FB69D31889
:102ADC00CB181A787B6811001800FFF7F3FAFB6922
:102AEC000133FB61E8E701231800BD4608B080BD47
:102AFC0080B582B000AF78600A00FB1C1A70FB1C1A
:102B0C001B78002B04D07B681800FEF712FA03E048
:102B1C007B681800FEF71DFABD4602B080BD80B57B
:102B2C0082B000AF78600A00BB1C1A807B68BA1CAC
:102B3C0012881A81BD4602B080BD80B582B000AF4C
:102B4C00786039603A687B6811001800FFF78EFED8
:102B5C001800BD4602B080BD80B582B000AF786071
:102B6C000A00FB1C1A707B685A69FB1C1B78190045
:102B7C001000FFF7BDFFBD4602B080BD80B582B02E
:102B8C0000AF786039607B683A68DA60BD4602B0A5
:102B9C0080BD000080B582B000AF7860034A7B68CE
:102BAC001A607B681800BD4602B080BD1032000868
:102BBC0080B582B000AF78607B681800FFF7EAFF41
:102BCC007B681C21180000F0B3F97B681800BD4627
:102BDC0002B080BD80B582B000AF786039603B68D0
:102BEC001800FDF73BFFBD4602B080BD80B582B03A
:102BFC0000AF7860044A054B11001800FFF7BEFFC8
:102C0C00BD4602B080BDC046592E0008C803002046
:102C1C0080B586B002AFF860B9607A603B60FB6843
:102C2C007A681A61FB683A685A61FB681869022372
:102C3C000093002300220121FEF7B0F9FB685A69CA
:102C4C00FB681B6919001000FEF7D8F9FB68434AB2
:102C5C005A60FB68424A9A60FB6800221A76FB684D
:102C6C00BA68DA60FB68DB683E211800FFF757FF93
:102C7C00FB6800211800FFF76FFFFB68322118007A
:102C8C00FFF7A8FFFB6801211800FFF765FFFB6841
:102C9C000A211800FFF79EFFFB683821180000F08E
:102CAC0094F896235A00FB6811001800FFF792FF66
:102CBC00FB683921180000F088F896235A00FB684D
:102CCC0011001800FFF786FFFB681421180000F0B4
:102CDC007CF8FB6864211800FFF77CFFFB68792106
:102CEC00180000F072F8FB6864211800FFF772FFFF
:102CFC00FB685021180000F068F8FB68642118008C
:102D0C00FFF768FFFB686C21180000F05EF8FB68A9
:102D1C0064211800FFF75EFFFB680C21180000F01F
:102D2C0054F8FB6864211800FFF754FFFB6801217D
:102D3C00180000F04AF8FB6864211800FFF74AFFFE
:102D4C00FB683821180000F040F8FB68642118007B
:102D5C00FFF740FFBD4604B080BDC0460404002010
:102D6C004804002080B582B000AF786008001100E4
:102D7C00FB1C021C1A70BB1C0A1C1A707B689B681B
:102D8C001800FFF771FC7B689A68FB1C1B78002B02
:102D9C0001D0002300E0402319001000FFF792F946
:102DAC007B689A68BB1C1B7819001000FFF78AF926
:102DBC007B68DA687B689B6819001000FFF756FD8A
:102DCC0003001800BD4602B080BD80B582B000AFD4
:102DDC0078600A00FB1C1A70FB1C1A787B680121B6
:102DEC001800FFF7BFFF03001800BD4602B080BDFE
:102DFC0080B582B000AF786039607B689B68180042
:102E0C00FFF732FC7B689B6840211800FFF75AF9EA
:102E1C007B6858687B689A683B681900FFF72CFE42
:102E2C0003001A0001235340DBB2002B01D0002316
:102E3C0008E07B68DA687B689B6819001000FFF774
:102E4C007CFE03001800BD4602B080BD80B582B088
:102E5C0000AF78607B681B7E082B11D89A000A4B58
:102E6C00D3181B689F467B6801211800FFF7C0FF31
:102E7C0006E07B6802211800FFF7BAFF00E0C046AD
:102E8C00BD4602B080BDC046E431000880B582B0BA
:102E9C0000AF786039607B68012B16D13B68124A11
:102EAC00934212D1FA235B00104800220221FFF753
:102EBC003FFA0F4B0F4802221021FFF797FD0E49E6
:102ECC000E4B25221800FFF7DDF87B68002B07D18D
:102EDC003B68054A934203D1064B1800FFF7A4F94F
:102EEC00BD4602B080BDC046FFFF0000C8030020F5
:102EFC00DC030020040400202004002048040020EF
:102F0C0080B500AF034B19000120FFF7BFFFBD4692
:102F1C0080BDC046FFFF000080B500AF034B190019
:102F2C000020FFF7B3FFBD4680BDC046FFFF000089
:102F3C0010B500F001F810BD10B500F001F810BD8F
:102F4C0010B5034B0100186800F004F810BDC04622
:102F5C003400002070B50500002910D00C1F236828
:102F6C00002B00DAE418280000F045F81D4A13681D
:102F7C00002B05D163601460280000F03DF870BD93
:102F8C00A34209D9216860188342F3D118685B68A1
:102F9C0041182160EEE713005A68002A01D0A242C2
:102FAC00F9D919685818A0420BD12068091858187B
:102FBC0019608242E0D110685268411819605A6059
:102FCC00DAE7A04202D90C232B60D5E72168601800
:102FDC00824203D1106852684118216062605C60C3
:102FEC00CAE7C046600400200023C25C0133002AFB
:102FFC00FBD1581E704770477047000000224308F1
:10300C008B4274D303098B425FD3030A8B4244D3A4
:10301C00030B8B4228D3030C8B420DD3FF220902E6
:10302C0012BA030C8B4202D31212090265D0030BA5
:10303C008B4219D300E0090AC30B8B4201D3CB039B
:10304C00C01A5241830B8B4201D38B03C01A5241DD
:10305C00430B8B4201D34B03C01A5241030B8B42DF
:10306C0001D30B03C01A5241C30A8B4201D3CB02CA
:10307C00C01A5241830A8B4201D38B02C01A5241AF
:10308C00430A8B4201D34B02C01A5241030A8B42B2
:10309C0001D30B02C01A5241CDD2C3098B4201D3CA
:1030AC00CB01C01A524183098B4201D38B01C01A48
:1030BC00524143098B4201D34B01C01A52410309BF
:1030CC008B4201D30B01C01A5241C3088B4201D36E
:1030DC00CB00C01A524183088B4201D38B00C01A1B
:1030EC00524143088B4201D34B00C01A5241411A42
:1030FC0000D20146524110467047FFE701B500204F
:10310C0000F006F802BDC0460029F7D076E77047FC
:10311C007047C04603001218934200D170471970D3
:10312C000133F9E75F5F6378615F707572655F7695
:10313C0069727475616C00001208000812080008AE
:10314C0002080008040800080C08000868626A6B92
:10315C0062686A6B4300000020537465726F776E6F
:10316C00696B206272616D2000000000706F7A61E3
:10317C00726F7779636820762E312E300000000054
:10318C000000000000000000B91300083314000810
:10319C006D1E0008911E00080000000000000000D9
:1031AC00111100087B110008B51E0008D91E00087B
:1031BC0000000000000000007D0200087D020008F5
:1031CC0000000000000000000000000000000000F3
:1031DC0035220008512200088A2E0008722E0008A1
:1031EC008A2E00087E2E00088A2E00088A2E0008DF
:1031FC008A2E00088A2E00088A2E00080000000083
:0C320C0000000000A12B0008BD2B0008F2
:1032180078563412006CDC02000000000000000048
:10322800010203040607080900000000000000006E
:103238000000000064000000F8020020A000002048
:10324800000000003800002000000000000000001E
:103258000000000000000000000000000000000066
:103268000000000000000000000000000000000056
:103278000000000000000000000000000000000046
:103288000000000000000000000000000000000036
:103298000000000000000000000000000000000026
:0C32A80000000000000000003254769886
:04000005080000C52A
:00000001FF
