:020000040800F2
:1002CC0070470000012800D070470F4B9942FBD1BA
:1002DC000E4B0F4A08321A6010229A600E3ADA60FE
:1002EC000C4A5A6120221A6100225A601A760A4B73
:1002FC000A49196199822631FF3119600849D96080
:10030C009A605A60E0E7C046FFFF00006C010020D5
:10031C00401A00081C010020EC00002000FFFFFF29
:10032C0044010020704730B50022072921D883886A
:10033C00072B0BD805682A6A9B00DBB207249C406C
:10034C00A2430C009C40230013432B6283881C00A7
:10035C00083CA4B20122072C0BD80468626A083B43
:10036C009B00DBB2072098408243994011436162A5
:10037C000122100030BDF8B54746CE4680B51700B7
:10038C00002282560D00431C3900002A42D0013352
:10039C000A705A1E1278481C52B20100002AF6D17B
:1003AC00002303700023FB56002B28D03C000023B5
:1003BC000134E356002BFAD1A74204D31FE0232EBD
:1003CC0006D0A7421BD00026013CA657302EF6D1F2
:1003DC0028000A2101F01AFB8946CBB228000A2119
:1003EC00984601F08DFA4B460500002B0ED10028E3
:1003FC000CD1232EE5D120332370A742E3D16842E0
:10040C006841C0B20CBC90469946F8BD43463033A7
:10041C002370D6E73800C3E70C4A13680133136026
:10042C000B4B1B68002B07D1704701225A7400221A
:10043C001A609B68002BF7D05A7C022AF9D11A68F3
:10044C00012AF2D91A68013A1A60F2E780000020FA
:10045C003804002010B50D4B1C68002C07D110BDC2
:10046C0000236374E3689847A468002CF7D0637C7E
:10047C00012BF9D1237C012BF2D0022BF4D1636830
:10048C00236002236374E3689847EDE73804002087
:10049C0010B542688468531CA34210D0002C03D1C1
:1004AC000468013C94420CD0C468A44662441170A8
:1004BC0002689342924113404360012010BD00201A
:1004CC00FCE70020FAE7000070B504000D0083681B
:1004DC0000225A609A6000218068FFF7D9FF29003A
:1004EC00A068FFF7D5FFE668B37A0020002B00D098
:1004FC0070BDA4680133B37273685860986084420D
:10050C001DD06368A2689A4219D0756808E0A18A68
:10051C00C9B22800FFF7BCFF6268A3689A420ED0EC
:10052C00A26863689A42F2D0531CE1688C4662441C
:10053C0011782268934292411340A360E8E7336834
:10054C001A68536820490B40536033681A68536823
:10055C001E490B405360336819684B6832899B0AFB
:10056C009B0213434B6033681A68536818490B405D
:10057C00536033681A68516880239B040B435360A3
:10058C0071688A684B689A421CD909685B189B1A77
:10059C00326811684A68FF2B00D9FF231B040D48F1
:1005AC00024013434B6033681A68116822230B43D3
:1005BC00136033681A68516880239B010B435360A6
:1005CC00012095E79B1AE3E7FFFBFFFFFFF7FFFF17
:1005DC00FFEFFFFFFFFF00FF7047704710B51F4B89
:1005EC005A6A13681B8A9BB292881341DB0729D580
:1005FC001A4B9A6A13681B8A9BB292881341DB07C9
:10060C0022D5164BDA6913681B8A9BB29288134168
:10061C00DB071FD5114B1A6A13681B8A9BB2928891
:10062C001341DB0718D50E4B1B78002B11D00C4B4C
:10063C0000221A700DE00A4B197008480430FFF7BD
:10064C0027FF06E0032100E00121054B1B788B42BC
:10065C00F1D110BD0221F8E70421F6E72C020020AD
:10066C008500002070B504001E00C3689A4205D2B4
:10067C008368994202D25A4352184260002575573A
:10068C00002D0FD02169606801F0C0F961606369C9
:10069C005D5463680133636022699342EED3002397
:1006AC006360EBE770BD007A704770B58174012907
:1006BC0055D0002925D0032900D17EE0042900D192
:1006CC00B8E0022141748368C4681D689A881032AE
:1006DC0001231E009640AE612568A28810321C00D2
:1006EC009440AC61017402684168106892881032C1
:1006FC001C009440846108688A881032934083619E
:10070C002CE002230374036841681C689A88103239
:10071C0001231D009540A5610C688A8810321900D0
:10072C009140A16143748268C16814689288103248
:10073C001D009540A5610A6889881C008C40946155
:10074C0000220274016842681068928810321C0002
:10075C00944084610A6889888B40936170BD022340
:10076C0043748368C1681C689A88103201231D0089
:10077C009540A5610C688A88103219009140A161DE
:10078C000374026841681468928810321D00954009
:10079C00A5610A6889881C008C409461002242740F
:1007AC008168C2681068928810321C009440846181
:1007BC000A6889888B409361D0E702214174836871
:1007CC00C4681D689A88103201231E009640AE61E1
:1007DC002568A28810321C009440AC610174026838
:1007EC0041681468928810321D009540A5610C6810
:1007FC008A88103219009140A161002141748468EB
:10080C00C2681568928810321E009640AE6122684C
:10081C00A4881D00A54095610174016842681068A8
:10082C00928810321C00944084610A6889888B403D
:10083C00936193E7022141748368C4681D689A88A8
:10084C00103201231E009640AE612568A28810323A
:10085C001C009440AC610174026841681468928871
:10086C0010321D009540A5610C688A881032190061
:10087C009140A16143748268C168146892881032F7
:10088C001D009540A5610A6889881C008C40946104
:10089C000374026841681068928810321C009440FE
:1008AC0084610A6889888B40936157E770B501723F
:1008BC0001292CD0002925D003292DD0042930D092
:1008CC0043680221997459749A68DC681568908899
:1008DC001030012216008640AE612568A0881030C9
:1008EC0014008440AC6119741868596804688388D2
:1008FC00103310009840A06108688B8810339A4020
:10090C00826103E040680021FFF7CFFE70BD4068B4
:10091C000121FFF7CAFEF9E740680321FFF7C5FE86
:10092C00F4E740680421FFF7C0FEEFE7007B704757
:10093C0010B50173002910D001291CD04368196827
:10094C009A88103201231C0094408C6182681168D3
:10095C009288103293408B610CE0436819689A8836
:10096C00103201231C0094408C61826811689288BB
:10097C0093408B6110BD836819689A8810320123EB
:10098C001C0094408C6142681168928893408B6182
:10099C00F0E7F0B50B681C688B885B00DC40032229
:1009AC0003239C461C4007683D6886887600B3404C
:1009BC009D433D600668376885886D00AC403C43BC
:1009CC0034600B689C88A4B28D882C41012626408B
:1009DC0003689D8884880127A740BD439D800568D6
:1009EC00AC888788BE403443A4B2AC800C68E46801
:1009FC008D886D00EC4063461C400768FD68868856
:100A0C007600B3409D43FD600668F76885886D00ED
:100A1C00AC403C43F4600C68A46889884900CC4025
:100A2C00634623400568A96884886400A24091430A
:100A3C00A96001688C6882885200934023438B60C4
:100A4C00F0BDF0B5C64600B5984606AC24780368F0
:100A5C009C461E6887887F0003252B00BB409E4365
:100A6C0063461E6007683B6886887600B140194370
:100A7C0039600368998886880127B740B943998003
:100A8C000668B1888788BA400A4392B2B280066879
:100A9C00F268818849002B008B409A43F260016810
:100AAC00CE6882885200434693403343CB60016842
:100ABC008B68828852009540AB438B6001688D68CF
:100ACC0082885200230093402B438B6004BC9046D9
:100ADC00F0BD000010B582B00400094B1A680192F9
:100AEC001B68019A9B1A984207D9FFF7B3FC044B79
:100AFC001B68019A9B1A9C42F7D802B010BDC046E5
:100B0C008000002030B5016082800C685200032305
:100B1C001D009540AC430C60046825688188490031
:100B2C001A008A402A4322600468E26881884900DE
:100B3C001D008D40AA43E2600268D168D160046850
:100B4C00A268818849008B409A43A26003689A6826
:100B5C009A6001688B88848801221500A540AB43FC
:100B6C008B8001688B888488A24013439BB28B8056
:100B7C0030BD0000F0B5DE4657464E464546E0B562
:100B8C0083B0012806D003B03CBC90469946A246DF
:100B9C00AB46F0BDD04B9942F5D1D04FBC225200A0
:100BAC000021380000F038FF9025ED0500222900C7
:100BBC003800FFF7A7FF01222900C948FFF7A2FF61
:100BCC0002222900C748FFF79DFF03222900C648CF
:100BDC00FFF798FF0422C549C548FFF793FF082289
:100BEC002900C448FFF78EFFC34B98460622BF4925
:100BFC001800FFF787FF0922BC49C048FFF782FFA6
:100C0C000722BA49BE48FFF77DFF0822B749BD4805
:100C1C00FFF778FFBC4C0F222100BC48FFF772FF96
:100C2C000E222100BA48FFF76DFF0D222100B948B2
:100C3C00FFF768FF0C222100B748FFF763FF0B2278
:100C4C002100B648FFF75EFF0A222100B448FFF7E7
:100C5C0059FF09222100B348FFF754FF0822210055
:100C6C00B148FFF74FFFB14B9B46072229001800F4
:100C7C00FFF748FFAE4B9A460022AE491800FFF72B
:100C8C0041FF0122AB49AC48FFF73CFFAB4B994607
:100C9C000222A8491800FFF735FF04222900A848B2
:100CAC00FFF730FF05222900A648FFF72BFF06228D
:100CBC002900A548FFF726FFA44E07223100A448BF
:100CCC00FFF720FF08223100A248FFF71BFF092283
:100CDC003100A148FFF716FF0A2231009F48FFF7A9
:100CEC0011FF0B2231009E48FFF70CFF0C22310044
:100CFC009C48FFF707FF0D2231009B48FFF702FFCE
:100D0C000E2231009948FFF7FDFE0F223100984862
:100D1C00FFF7F8FE052275499648FFF7F3FE02220D
:100D2C0031009548FFF7EEFE0C2229009348FFF79F
:100D3C00E9FE06227F499248FFF7E4FE07227D492F
:100D4C009048FFF7DFFE062221008F48FFF7DAFEFE
:100D5C00052221008D48FFF7D5FE042221008C4886
:100D6C00FFF7D0FE0A2273498A48FFF7CBFE0B220D
:100D7C0070498948FFF7C6FE884D894C022229002C
:100D8C002000FFF7BFFE0026B4235B00FE5468234F
:100D9C00FF33FE54013BFE54009633003200012118
:100DAC002000FFF74EFE7F4C032229002000FFF7A6
:100DBC00A9FEBA235B00FE547423FF33FE54013B9F
:100DCC00FE5400963300320001212000FFF739FE5B
:100DDC00754B764A5A611A830532FF325A601B6191
:100DEC00DE609E605A46DA6152461A62524A5A6274
:100DFC004A469A621E705E709E70DE706C4A0224C7
:100E0C00147454749474414B1360444B5360404BB2
:100E1C009360434BD360674B1C745C749C743D496A
:100E2C001960404959603C4999603F49D960624911
:100E3C000E714E710A606148614A08320260047298
:100E4C004360604A604B0833136014732B4B536040
:100E5C00434693605D4B1E606425DD605C4B5E60B9
:100E6C001E819E725B4B5C4D08351D605E60DE60C2
:100E7C001E615E611E76594BDE601E745E741860D6
:100E8C005A60996018223100554800F0C5FD554B49
:100E9C005E741C74544ADA600A225A60534B1B6805
:100EAC00B34208D09A68002A0BD04E498B4200D12D
:100EBC0069E61300F6E74B4B4C4A13609E605C747A
:100ECC0061E6484A934200D15DE6002191609A6048
:100EDC000223537457E6C046FFFF00007402002043
:100EEC007C020020840200208C02002000080048B4
:100EFC00940200209C020020A4020020AC020020DE
:100F0C00B4020020BC020020000C0048C4020020E7
:100F1C00CC020020D4020020DC020020E4020020DD
:100F2C00EC020020F4020020FC020020040300204C
:100F3C000C03002000040048140300201C030020B4
:100F4C00240300202C030020340300200010004850
:100F5C003C030020440300204C03002054030020D9
:100F6C005C030020640300206C0300207403002049
:100F7C007C030020840300208C03002094030020B9
:100F8C009C030020A4030020AC030020B403002029
:100F9C00BC030020C4030020CC0300200014004834
:100FAC00D4030020E00300202C02002000FFFFFFF0
:100FBC0098010020AC010020C0010020FC0300209F
:100FCC00501A0008EC030020681A0008FC010020ED
:100FDC00F001002008040020801A000824040020DE
:100FEC005802002018020020E905000838040020EF
:100FFC000C23164A70B551680B40082B0ED10F23E9
:10100C00C02155685068AD0C1D404902023508429C
:10101C0011D10F480F4C4543256002E00D4C0E4B8F
:10102C0023600A4B0D4A5B681B061B0FD35C2268BE
:10103C00DA40226070BDD16A07481940013100F0D6
:10104C005FFC4543034C2560EBE7C04600100240B3
:10105C0000093D001000002000127A000000002062
:10106C0010B504001C2100F0E5FB200010BD10B5EC
:10107C0004001C2100F0DEFB200010BD10B50400A4
:10108C00102100F0D7FB200010BD10B504000C217E
:10109C0000F0D0FB200010BD70B59AB00600037CA8
:1010AC00002B17D18368DA68002A04D09A68002ACA
:1010BC0001D000225A60B468144800F017FC632871
:1010CC000AD9B368DA68002A04D09A68012A01D9CF
:1010DC0001225A601AB070BD01AA4D210B48FFF7CE
:1010EC004AF901AB00255D57002DEAD021696068F3
:1010FC0000F08CFC616063695D546368013363606C
:10110C0022699342EDD300236360EAE7341A0008A6
:10111C00F0B587B0ED4A136801210B431360EB4B1C
:10112C001B689B07FBD5E94A536803218B4353602B
:10113C00E64B5B680C221A42FAD1E44A1168802310
:10114C005B020B431360E14B1B689B03FBD5E04B2D
:10115C0001221A6010321A60DC4BDE4A5A600022FF
:10116C00DA621968802252040A431A60D74B1B6852
:10117C009B01FBD5D54A536802210B435360D34BDB
:10118C005A680C231340082BF9D1D04A536802211A
:10119C000B435360CD4B5A680C231340082BF9D1E9
:1011AC00CA4C6268073B13406360FFF721FF0023C2
:1011BC0004936269FC23DB03134363616369049347
:1011CC00049BE269802189030A43E261E3690B40D5
:1011DC000493049BA269802189000A43A261A3693C
:1011EC000B400493049BBC4B1868E931FF3100F0B1
:1011FC0087FB0138B94B984200D9FEE7B84A5060DA
:10120C00B848036A1B021B0AC02109060B43036280
:10121C000025956007231360B34BB44A1A6006226D
:10122C005A60FA22D2009A60B14A1A60B14C009509
:10123C002B002A0001212000FFF703FC2100AE48FF
:10124C00FFF7A7FB2100AD48FFF7A3FB2100AC483B
:10125C00FFF79FFB2100AB48FFF79BFB2100AA483F
:10126C00FFF797FB2100A948FFF793FB2100A84843
:10127C00FFF78FFB2100A748FFF78BFB2100A64847
:10128C00FFF787FBA54C022300932B002A000121BA
:10129C002000FFF7D6FB2100A148FFF77AFB2100C5
:1012AC00A048FFF776FB21009F48FFF772FB210057
:1012BC009E48FFF76EFB21009D48FFF76AFB21005B
:1012CC009C48FFF766FB21009B48FFF762FB9B4C99
:1012DC00009501231A0029002000FFF7B2FB210022
:1012EC009748FFF756FB21009648FFF752FB210069
:1012FC009548FFF74EFB21009448FFF74AFB21006D
:10130C009348FFF746FB21009248FFF742FB210070
:10131C009148FFF73EFB21009048FFF73AFB210074
:10132C008F48FFF736FB21008E48FFF732FB210078
:10133C008D48FFF72EFB21008C48FFF72AFB21007C
:10134C008B48FFF726FB21008A48FFF722FB210080
:10135C008948FFF71EFB5D4B5969FC22D2030A43F7
:10136C005A615B690393039B844B6422DA60844A61
:10137C005A60844A9A60844A13601B68AB4200D05E
:10138C001CE1824C82482061824B636102230093F2
:10139C0000231A000121FFF754FB21696069FFF754
:1013AC00F8FA7D4B63607D4BA36000252576764B68
:1013BC00E3603E221A8163691A689B881033012608
:1013CC003100994091613220FFF784FB63691A6800
:1013DC009B883100994091610A20FFF77BFB3821F3
:1013EC002000FFF771F896277F003800FFF772FB9B
:1013FC0039212000FFF768F83800FFF76BFB142148
:10140C002000FFF761F86420FFF764FB79212000CE
:10141C00FFF75AF86420FFF75DFB50212000FFF71F
:10142C0053F86420FFF756FB6C212000FFF74CF8B3
:10143C006420FFF74FFB0C212000FFF745F86420D8
:10144C00FFF748FB31002000FFF73EF86420FFF760
:10145C0041FB38212000FFF737F86420FFF73AFBF7
:10146C0063684F4A4F4C546093604F48D0604F496B
:10147C0011610C6048608B600D7415701A69AA427A
:10148C0008D02A00202158695C680155013219697D
:10149C009142F7D8424D0024AB681C76444B220095
:1014AC002100A868FFF7DEF8424B22000121A86852
:1014BC00FFF7D8F82869047404750121FFF7ECFDD7
:1014CC00094B3D4A1A60FEF7C5FFF9E700100240D0
:1014DC00002002400000118010000020FFFFFF00E0
:1014EC0010E000E000ED00E0003000405555000039
:1014FC00CCCC0000740200207C020020840200206E
:10150C008C020020940200209C020020A4020020E7
:10151C00AC020020B4020020BC020020C402002057
:10152C00CC020020D4020020DC020020E4020020C7
:10153C00EC020020F4020020FC0200200403002036
:10154C000C030020140300201C03002024030020A3
:10155C002C030020340300203C0300204403002013
:10156C004C030020540300205C0300206403002083
:10157C006C030020740300207C030020FC0100207D
:10158C00CC030020C4030020F0010020080400203C
:10159C008C030020840300206C010020EC00002050
:1015AC00C8010020240400202C0200205802002036
:1015BC00901A0008A41A0008AAAA00003249C869A7
:1015CC008024A4032043C861CA6922400592059A6D
:1015DC001A6801218A431A602C4B186803681A6830
:1015EC00D207FCD40325009501231A000221806840
:1015FC00FFF727FA254C2068009501231A000221D9
:10160C004068FFF71EFA236801219868FEF78BFEED
:10161C00236801215868FEF786FE23681A68116852
:10162C0080235B010B431360236819680B68184A0D
:10163C001A4080235B0013430B60164AC5208000C0
:10164C0013581B021B0AC02109060B43135080239D
:10165C001B04136023681A6813680F490B4013604E
:10166C0023681A680D4911611A68116801230B432C
:10167C00136023681B681A68D207FCD5034B084A11
:10168C005A6000229A727CE600100240F0010020A1
:10169C00FFF0FFFF00E100E0FFFFFDFF271A1060E5
:1016AC000401002010B5274B1C69636803E01A8BFA
:1016BC00D2B2002A25D19968DA68914219D0DA6839
:1016CC0099688A42F3D0511C186984466244127896
:1016DC005868814280410140D960E9E7012120002E
:1016EC00FFF7DAFC0023E3600AE0174B00221A70C4
:1016FC0006E0E3680533E360EC22D2009342EDD8B8
:10170C0010BD0023E360237D002BF9D10E4B1B7819
:10171C00002B01D0022AE8D0531E59424B410A49F2
:10172C000B70237C002BEBD1012AE9D0002A02D0CC
:10173C00033A012AE4D90023237501212000FFF785
:10174C00ABFCDDE7C80100208400002010B5054C7F
:10175C0021000020FFF70EFA21000020FEF7B2FD59
:10176C0010BDC046FFFF000070B5264D29000120BA
:10177C00FEF7A8FD244B002200241A819C72234BF7
:10178C002349196199826531FF3119602149D9606A
:10179C009A605A6029000120FFF7ECF91E4D0022D7
:1017AC0029001E48FFF7AEF9012229001C48FFF75B
:1017BC00A9F91C4B01221A701B4B5C7401321A7470
:1017CC001A4ADA6005225A60194B1B68002B07D0A5
:1017DC009A68002A0CD014498B4211D01300F7E7F9
:1017EC00114B134A136000229A6002325A7407E0BC
:1017FC000D4A934204D0002191609A6002235374E5
:10180C0070BDC046FFFF00000C0200200401002048
:10181C0000FFFFFF8800002000080048880100201E
:10182C0090010020C8010020DC010020B116000846
:10183C003804002010B500F001F810BD10B500F010
:10184C0001F810BD10B5034B0100186800F004F846
:10185C0010BDC0461C00002070B50500002910D03A
:10186C000C1F2368002B00DAE418280000F045F860
:10187C001D4A1368002B05D163601460280000F02A
:10188C003DF870BDA34209D9216860188342F3D199
:10189C0018685B6841182160EEE713005A68002A4B
:1018AC0001D0A242F9D919685818A0420BD120686E
:1018BC000918581819608242E0D110685268411812
:1018CC0019605A60DAE7A04202D90C232B60D5E7E5
:1018DC0021686018824203D1106852684118216057
:1018EC0062605C60CAE7C0463C0400200023C25C16
:1018FC000133002AFBD1581E704770477047000017
:10190C00002243088B4274D303098B425FD3030A32
:10191C008B4244D3030B8B4228D3030C8B420DD345
:10192C00FF22090212BA030C8B4202D312120902D3
:10193C0065D0030B8B4219D300E0090AC30B8B4211
:10194C0001D3CB03C01A5241830B8B4201D38B03BF
:10195C00C01A5241430B8B4201D34B03C01A524164
:10196C00030B8B4201D30B03C01A5241C30A8B42A7
:10197C0001D3CB02C01A5241830A8B4201D38B0292
:10198C00C01A5241430A8B4201D34B02C01A524136
:10199C00030A8B4201D30B02C01A5241CDD2C309A8
:1019AC008B4201D3CB01C01A524183098B4201D324
:1019BC008B01C01A524143098B4201D34B01C01A0F
:1019CC00524103098B4201D30B01C01A5241C30887
:1019DC008B4201D3CB00C01A524183088B4201D3F6
:1019EC008B00C01A524143088B4201D34B00C01AE2
:1019FC005241411A00D20146524110467047FFE74E
:101A0C0001B5002000F006F802BDC0460029F7D051
:101A1C0076E770477047C04603001218934200D116
:101A2C00704719700133F9E768626A6B62686A6B18
:101A3C00430000000000000000000000CD02000880
:101A4C007B1000080000000000000000B90800082E
:101A5C00B3060008E7050008971000080000000016
:101A6C00000000003D09000839090008E5050008E0
:101A7C00891000080000000000000000310300087D
:101A8C006D10000820537465722E206272616D20F7
:101A9C00706F7A2E00000000202020776572736A28
:0C1AAC006120312E3020202000000000BE
:101AB80000000000000000000102030406070809F6
:101AC800006CDC02700200200000000020000020F2
:101AD80000000000000000000000000000000000FE
:101AE80000000000000000000000000000000000EE
:101AF80000000000000000000000000000000000DE
:101B080000000000000000000000000000000000CD
:101B180000000000000000000000000000000000BD
:101B280000000000000000000000000000000000AD
:04000005080000EB04
:00000001FF
