:020000040800F2
:1000000000400020BD010008C1010008C301000834
:1000100000000000000000000000000000000000E0
:10002000000000000000000000000000DD010008EA
:100030000000000000000000DF01000891440008FB
:10004000ED010008ED010008ED010008ED010008D8
:10005000ED010008ED010008ED010008ED010008C8
:10006000ED010008ED010008ED010008ED010008B8
:10007000ED010008ED010008ED010008ED010008A8
:10008000ED010008ED010008ED010008ED01000898
:10009000ED010008ED010008ED010008ED01000888
:1000A000ED010008ED010008ED010008ED01000878
:1000B000ED010008ED010008ED010008ED01000868
:1000C0005FF808F170B582B000F0C0F82E4A2F4BEF
:1000D0009A420ED21A0003322D4BD21A92080132E4
:1000E000920000232B49C8582749C8500433934233
:1000F000F8D1294A294B9A420BD21300111D274AE5
:100100000332521A032082435218002102C3934241
:10011000FBD100F09FF8694601A800F08FF8204B52
:10012000204A9B1A9D10002B07DD0024A3001D4AC6
:10013000D35898470134A542F8DC1B4B1B4A9B1A45
:100140009D10002B07DD0024A300184AD3589847C0
:100150000134A542F8DC0099019803F0AFFF0500D7
:10016000134B144A9B1A9E10002B09DD124BF418F6
:10017000A400A418013E23689847043C002EF9DC33
:10018000280000F057F8C04600000020940000202E
:10019000040000209C4E0008940000205804002019
:1001A00018020008180200082C02000818020008B3
:1001B000340200082C020008FFFFFF3F09480047F7
:1001C000FEE704207146084202D0EFF3098001E007
:1001D000EFF308807146044A1047FEE7FEE7FEE7AA
:0E01E00070470000C5000008DB010008FEE7C4
:1001F0009C4E000800000020940000209C4E000847
:1002000000000000000000009400002058040020BE
:1002100000000000000000002D0400084506000852
:10022000B541000881480008C54B0008014300089B
:04023000154C000861
:1002340010B500F011F8000001230360014B0B60BE
:100244007047C0460000002010B500F013F810BD40
:1002540010B500F093F810BDBFF34F8F034B044A61
:10026400DA60BFF34F8FC046FDE7C04600ED00E003
:100274000400FA0582B0394B1A6801210A431A6056
:100284005A68374802405A601A68364802401A6071
:100294001A68354802401A605A68344802405A6065
:1002A400DA6A0F208243DA621A6B314802401A6319
:1002B4005A6B8A435A6300229A6000920192196829
:1002C400802252020A431A60244B1B688022920245
:1002D40013400193009B01330093019B002B04D135
:1002E400009AA023DB019A42EED11C4B1B689B03AE
:1002F40006D501230193019B012B04D002B0704762
:1003040000230193F7E71B4B11221A60134B5A6821
:100314005A605A685A605A6817490A405A605968BC
:10032400882252030A435A601968802252040A43FD
:100334001A600A4B1B689B01FBD5084B5A680321C2
:100344008A435A605A6801390A435A60034B5A680F
:100354000C231340082BF9D1D0E7C046001002400B
:100364000CB8FF08FFFFF6FEFFFFFBFFFFFFC0FF17
:10037400ACFEFFFF00200240FF7FC0FF10B5204B02
:100384005A680C231340042B16D0082B18D0002BCA
:1003940003D01C4B1C4A1A6002E01A4B1A4A1A601A
:1003A400174B5B681B061B0F184AD35CDBB2154A5C
:1003B4001168D940116010BD124B134A1A60EFE75F
:1003C4000F4B5C685A68A402240F0234C0235B02FA
:1003D4001A4209D163011B1B9801C01AC0000419F9
:1003E4002402084B1C60DBE7054BDB6A0F21194034
:1003F4000131054804F01CFC4443024B1C60CFE768
:10040400001002401800002000127A0008000020AA
:1004140010B5024B186900F065F910BD9800002072
:10042400004870479800002010B5074B01221A704D
:1004340000225A609A60DA601A610523034A022195
:10044400034804F001F810BD9800002015040008CA
:10045400AC00002030B5016082800C685200032398
:100464001D009540AC430C600468256881884900F0
:100474001A008A402A4322600468E268818849009D
:100484001D008D40AA43E2600268D168D16004680F
:10049400A268818849008B409A43A26003689A68E5
:1004A4009A6001688B88848801221500A540AB43BB
:1004B4008B8001688B888488A24013439BB28B8015
:1004C40030BD0000054B064A1A6006225A60FA2223
:1004D400D2009A60034A1A607047C0460030004058
:1004E40055550000CCCC000010B582B0424A1368C8
:1004F40001210B431360404B1B689B07FBD53E4A0D
:10050400536803218B4353603B4B5B680C221A42B4
:10051400FAD1394A116880235B020B431360364BCE
:100524001B689B03FBD5354B01221A6010321A60FD
:10053400314B334A5A600022DA621968802252042D
:100544000A431A602C4B1B689B01FBD52A4A53684B
:1005540002210B435360284B5A680C231340082B89
:10056400F9D1254A536802210B435360224B5A6840
:100574000C231340082BF9D11F4C6268073B13402E
:100584006360FFF7FBFE002301936269FC23DB0336
:100594001343636163690193019BE26980218903C9
:1005A4000A43E261E3690B400193019BA269802144
:1005B40089000A43A261A3690B400193019B114B7B
:1005C4001868E931FF3104F033FB01380E4B9842CF
:1005D40000D9FEE70D4A50600D48036A1B021B0A4E
:1005E400C02109060B4303620023936007331360A1
:1005F400FFF768FF02B010BD001002400020024067
:100604000000118018000020FFFFFF0010E000E050
:1006140000ED00E0014B024A1A60704700300040D0
:10062400AAAA000082B0054B1B680193034B1B6808
:10063400019A9B1A9842F9D802B070472C03002003
:1006440010B5064C002221000548FFF703FF0122E4
:1006540021000448FFF7FEFE10BDC0460008004814
:10066400C0000020C8000020F0B59BB00700037C48
:10067400002B17D18368DA68002A04D09A68002A0C
:1006840001D000225A60BC68154804F0B9FB632805
:100694000AD9BB68DA68002A04D09A68012A01D909
:1006A40001225A601BB0F0BD01AA4D210C4803F091
:1006B4003EFF01AD0026AE57002EEAD00135216978
:1006C400606804F03BFB616063695E5463680133F6
:1006D400636022699342EDD300236360EAE7C04676
:1006E400184E000870B505004468A268E3689A4291
:1006F40032D0201D03F031FEC0B20028F5D0002313
:10070400EB602B7D002B2ED1174B1B78002B01D0D7
:1007140002281DD0431E5A425341134A13702B7CA6
:10072400002B20D101281ED0002802D00338012834
:1007340019D900232B742B7501212800FFF794FF8E
:1007440011E001212800FFF78FFF0023EB600AE08E
:10075400054B00221A7006E0EB680533EB60EC22CF
:10076400D2009342EDD870BDD000002010B50173C3
:10077400002910D001291CD0436819689A881032C6
:1007840001231C0094408C618268116892881032A5
:1007940093408B610CE0436819689A8810320123F6
:1007A4001C0094408C6182681168928893408B612C
:1007B40010BD836819689A88103201231C00944084
:1007C4008C6142681168928893408B61F0E7007BEA
:1007D4007047007A704770477047000010B51F4B90
:1007E4005A6A13681B8A9BB292881341DB0729D586
:1007F4001A4B9A6A13681B8A9BB292881341DB07CF
:1008040022D5164BDA6913681B8A9BB2928813416E
:10081400DB071FD5114B1A6A13681B8A9BB2928897
:100824001341DB0718D50E4B1B78002B11D00C4B52
:1008340000221A700DE00A4B19700848043003F0C6
:1008440071FD06E0032100E00121054B1B788B427A
:10085400F1D110BD0221F8E70421F6E724010020BC
:10086400D100002010B504000C2104F0D9F92000B7
:1008740010BD10B50400102104F0D2F9200010BD01
:1008840070B50172012959D0002927D0032900D15C
:1008940084E0042900D1C1E04368022199745974A9
:1008A4009A68DC681568908810300122160086402A
:1008B400AE612568A088103014008440AC611974BE
:1008C4001868596804688388103310009840A06140
:1008D40008688B8810339A4082612EE043680020B8
:1008E400987402221A741A685C6815689188103129
:1008F400012216008E40AE612568A18810311400D3
:100904008C40AC615A749968DC680D688988103130
:1009140016008E40AE612168A4881500A5408D6143
:10092400187419685B6818689B88103314009C401D
:1009340084610B6889888A409A6170BD426801238A
:100944009374022151749168D0680C6889881031BD
:100954001D008D40A561046881881031180088400D
:10096400A0611374116850680C68898810311D00E7
:100974008D40A561016880881C0084408C61002141
:1009840051749168D2681068928810321C009440A7
:1009940084610A6889888B409361CEE743680322A7
:1009A4009A74022058749A68DC681568918810312A
:1009B400012216008E40AE612568A1881031140012
:1009C4008C40AC611874196858680C6889881031B7
:1009D40015008D40A561046881881031100088409D
:1009E400A061002058749C68D9680D68898810310A
:1009F40016008E40AE612168A4881500A5408D6163
:100A0400187419685B6818689B88103314009C403C
:100A140084610B6889888A409A618EE7436804225E
:100A24009A74022058749A68DC68156891881031A9
:100A3400012216008E40AE612568A1881031140091
:100A44008C40AC611874196858680C688988103136
:100A540015008D40A561046881881031100088401C
:100A6400A0615A749968D8680C6889881031150097
:100A74008D40A56101688088140084408C611A74DB
:100A84001868596804688388103310009840A0617E
:100A94000B6889888A409A614FE70000F0B5DE460A
:100AA40057464E464546E0B583B0046822688188BF
:100AB400490003231D008D40AA43226005682E6867
:100AC4008488640001229146A24032432A6004686B
:100AD400A28885884E46AE40B243A2800468A288AC
:100AE40092B2A2800568EA68848864001E00A64069
:100AF400B243EA600268D468D4600568AA6884884E
:100B040064001E00A640B243AA6002689468946020
:100B14000268146882885200D44003221440876813
:100B24003D68868976001900B1408D433D60866832
:100B3400376885896D00AC403C43346001688C881B
:100B4400A4B285882C4101273C40260081688C880A
:100B540085894946A9408C4381688C8081688C884A
:100B64008589AE403443A4B28C800468E4688588E7
:100B74006D00EC40144081688C46CD68868976000F
:100B84001900B1408D436146CD608668F16885895E
:100B94006D00AC400C43F4600468A46885886D0063
:100BA400EC40144081688C468D6886897600190073
:100BB400B1408D4361468D608668B16885896D005A
:100BC400AC400C43B4600468246885886D00EC4034
:100BD400144001698C460D68868A76001900B1407C
:100BE4008D4361460D6006693168858A6D00AC40AD
:100BF4000C43346001688C88A4B285882C413C4045
:100C0400260001698C88858A4946A9408C4301697C
:100C14008C8001698C88858AAE403443A4B28C8070
:100C24000468E46885886D00EC40144001698C46D2
:100C3400CD68868A76001900B1408D436146CD6047
:100C44000669F168858A6D00AC400C43F460046861
:100C5400A46885886D00EC40144001698C468D6859
:100C6400868A76001900B1408D4361468D6006691D
:100C7400B168858A6D00AC400C43B4600468246894
:100C840085886D00EC40144081698C460D68868B24
:100C940076001900B1408D4361460D608669316864
:100CA400858B6D00AC400C43346001688C88A4B221
:100CB40085882C413C40260081698C88858B494677
:100CC400A9408C4381698C8081698C88858BAE4076
:100CD4003443A4B28C800468E46885886D00EC40D9
:100CE400144081698C46CD68868B76001900B1402A
:100CF4008D436146CD608669F168858B6D00AC409B
:100D04000C43F4600468A46885886D00EC401440CA
:100D140081698C468D68868B76001900B1408D43BD
:100D240061468D608669B168858B6D00AC400C436B
:100D3400B4600468246885886D00EC401440016A3E
:100D44008C460D68868C76001900B1408D4361464F
:100D54000D60066A3168858C6D00AC400C433460CC
:100D640001688C88A4B285882C413C402600016A25
:100D74008C88858C4946A9408C43016A8C80016A21
:100D84008C88858CAE403443A4B28C800468E468BB
:100D940085886D00EC401440016A8C46CD68868CD1
:100DA40076001900B1408D436146CD60066AF16852
:100DB400858C6D00AC400C43F4600468A46885889D
:100DC4006D00EC401440016A8C468D68868C760078
:100DD4001900B1408D4361468D60066AB168858C07
:100DE4006D00AC400C43B4600468246885886D00D1
:100DF400EC401440816A8C460D68868D760019009B
:100E0400B1408D4361460D60866A3168858D6D0001
:100E1400AC400C43346001688C88A4B285882C41B2
:100E24003C402600816A8C88858D4946A9408C43C4
:100E3400816A8C80816A8C88858DAE403443A4B2EB
:100E44008C800468E46885886D00EC401440816AF5
:100E54008C46CD68868D76001900B1408D4361467D
:100E6400CD60866AF168858D6D00AC400C43F460FA
:100E74000468A46885886D00EC401440816A8C463F
:100E84008D68868D76001900B1408D4361468D6072
:100E9400866AB168858D6D00AC400C43B46004680B
:100EA400246885886D00EC401440016B8C460D6805
:100EB400868E76001900B1408D4361460D60066B45
:100EC4003168858E6D00AC400C43346001688C88B9
:100ED400A4B285882C413C402600016B8C88858E09
:100EE4004946A9408C43016B8C80016B8C88858EAC
:100EF400AE403443A4B28C800468E46885886D00F5
:100F0400EC401440016B8C46CD68868E7600190047
:100F1400B1408D436146CD60066BF168858E6D00EE
:100F2400AC400C43F4600468A46885886D00EC4010
:100F34001440016B8C468D68868E76001900B14092
:100F44008D4361468D60066BB168858E6D00AC4043
:100F54000C43B4600468246885886D00EC40144038
:100F6400816B8C460D68868F76001900B1408D43E5
:100F740061460D60866B3168858F6D00AC400C4313
:100F8400346001688C88A4B285882C413C402600DA
:100F9400816B8C88858F4946A9408C43816B8C80FA
:100FA400816B8C88858FAE403443A4B28C800468F6
:100FB400E46885886D00EC401440816B8C46CD68F4
:100FC400868F76001900B1408D436146CD60866BF3
:100FD400F168858F6D00AC400C43F4600468A5682B
:100FE40084886400E5401540816B8C468C68868F4C
:100FF40076001900B1408C4361468C60866BB16801
:10100400848F6400A5400D43B56004682668848815
:101014006400E6401640016C884609688A4605006B
:101024004035A98849008C4619006446A1405446BD
:101034008C4341460C60016C8C460968AC886400A2
:10104400A6400E4361460E6001688C88A4B286886F
:1010540034413C40016C8F88AE884946B1408F438F
:10106400016C8F80066CB188AF88BC40214389B283
:10107400B1800168C96884886400E1400A40066C54
:10108400F168AC886400A3409943F160016CCC68BA
:10109400AB885B009A402243CA6003689B688288DD
:1010A4005200D340032203218A460B40076CBC68DC
:1010B4002E00AD886D00A9408C43BC60056CAF6800
:1010C400B4886400A3403B43AB6003681B68848816
:1010D4006400E34051460B40876C3C680836B58891
:1010E4006D00A9408C433C60856C2F68B488640013
:1010F400A3403B432B6003689B889BB284882341B5
:1011040001218B465F461F40836C9D88B3889940BC
:101114008D43836C9D80836C9B88B588AF403B4333
:101124009BB2816C8B800368DB6885886D00EB4023
:1011340051460B40816C8846CD68B7887F0011000A
:10114400B9408D434146CD60876CF968B5886D0020
:10115400AB400B43FB6003689B6885886D00EB40E4
:1011640051460B40816C88468D68B7887F0011001A
:10117400B9408D4341468D60876CB968B5886D0070
:10118400AB400B43BB60076D3D68030050339E8842
:1011940076001100B1408D433D60076D39689E882B
:1011A40076005D46B5400D433D60066DB5889F8869
:1011B4005946B9408D43B580066DB588ADB2B5804A
:1011C400076DFD689E8876001100B1408D43FD6077
:1011D400056DEE68EE60076DBD689E8876001100AF
:1011E400B1408D43BD60076DB9689E8876000225C5
:1011F400B5400D43BD60056D2D689E887600F540B1
:1012040051460D40816D89460F6806005836B188F5
:101214004900884611004446A1408F4349460F6067
:10122400816D88460968B7887F00BD400D434146FB
:101234000D60016D8F88BFB29D882F41594639409A
:101244008846816D8F88B5885946A9408F43816D42
:101254008F80816D8F88B5884146A9400F43BFB206
:10126400816D8F80056DED689F887F00FD4051463C
:101274000D40816D8946CF68B188490088461100C8
:101284004446A1408F434946CF60816D8846C96872
:10129400B7887F00BD400D434146CD60056DAD6804
:1012A4009F887F00FD4051460D40816D89468F68BF
:1012B400B1884900884611004446A1408F434946FD
:1012C4008F60876DB968B6887600B5400D43BD6000
:1012D400056D2D689E887600F54051460D40016EDF
:1012E40089460F6806006036B188490088461100B7
:1012F4004446A1408F4349460F60016E8846096801
:10130400B7887F00BD400D4341460D60016D8F8855
:10131400BFB29D882F41594639408846016E8F8857
:10132400B5885946A9408F43016E8F80016E8F881E
:10133400B5884146A9400F43BFB2016E8F80056D49
:10134400ED689F887F00FD4051460D40016E89463F
:10135400CF68B1884900884611004446A1408F43B4
:101364004946CF60016E8846C968B7887F00BD4092
:101374000D434146CD60056DAD689F887F00FD40FB
:1013840051460D40016E89468F68B18849008846F0
:1013940011004446A1408F4349468F60076EB968E7
:1013A400B6887600B5400D43BD60056D2D689E88F6
:1013B4007600F54051460D40816E89460F6806005F
:1013C4006836B1884900884611004446A1408F43DD
:1013D40049460F60816E88460968B7887F00BD4022
:1013E4000D4341460D60016D8F88BFB29D882F412A
:1013F400594639408846816E8F88B5885946A94038
:101404008F43816E8F80816E8F88B5884146A94055
:101414000F43BFB2816E8F80056DED689F887F009A
:10142400FD4051460D40816E8946CF68B188490020
:10143400884611004446A1408F434946CF60816EDF
:101444008846C968B7887F00BD400D434146CD60DA
:10145400056DAD689F887F00FD4051460D40816E4B
:1014640089468F68B1884900884611004446A140E6
:101474008F4349468F60876EB968B6887600B54059
:101484000D43BD60056D2D689E887600F54051467C
:101494000D40016F89460F6806007036B188490017
:1014A400884611004446A1408F4349460F60016FAE
:1014B40088460968B7887F00BD400D4341460D60EA
:1014C400016D8F88BFB29D882F41594639408846A7
:1014D400016F8F88B5885946A9408F43016F8F806B
:1014E400016F8F88B5884146A9400F43BFB2016F91
:1014F4008F80056DED689F887F00FD4051460D404B
:10150400016F8946CF68B188490088461100444676
:10151400A1408F434946CF60016F8846C968B788A8
:101524007F00BD400D434146CD60056DAD689F8889
:101534007F00FD4051460D40016F89468F68B18898
:101544004900884611004446A1408F4349468F60B4
:10155400076FB968B6887600B5400D43BD60056D68
:101564002F689D886D00EF4051460F40816F89467A
:101574000E6805007835A98849008846110044465C
:10158400A1408E4349460E60816F88460968AE8843
:101594007600B7400F4341460F60016D8E88B6B2A6
:1015A4009F883E415F463740816F8E88A9885C469C
:1015B4008C40A643816F8E80816F8C88AE88B74043
:1015C4003C43A4B28C80046DE4689E887600F440A9
:1015D40051460C40816F8C46CE68AF887F00110065
:1015E400B9408E436146CE60876FF968AE88760055
:1015F400B4400C43FC60046DA4689E887600F440FB
:1016040051460C40816F8C468E68AF887F00110074
:10161400B9408E4361468E60866FB768AD886D00B1
:10162400AC403C43B460046D24689D886D00EC407C
:10163400514621408027C459A446246806008036B8
:10164400B5886D00AA40944362461460C459256865
:10165400B2885200914029432160026D928892B26F
:101664009B881A41012398461C0014408026825905
:101674009388010080310D008F880121B9408B438C
:10168400938082599388AF88BC4023439BB2938054
:10169400036DDB6807005037BA885200D340032239
:1016A4000324234081598A46C9688C46A988490085
:1016B400894611004C46A140894661464C46A143E7
:1016C4008C4651466446CC6081598946C9688A462D
:1016D400A98849008B4051460B434946CB60036DB2
:1016E4009B68B9884900CB400324234081598A462A
:1016F40089688C46A9884900894611004C46A14056
:10170400894661464C46A1438C46514664468C60EA
:101714008659B1688C46A98849008B4061460B43C1
:10172400B360036D1B68B9884900CB400324234090
:10173400882681598A4609688C46010088318C883C
:101744006400A14614004D46AC40A14664464D4693
:10175400AC43A4465446654625608459A146246892
:10176400A2468C886400A340544623434C4623601D
:10177400036D9B889BB2BC88234144461C40A14610
:1017840083599B888C88A24601245546AC40A343C8
:101794008459A38083599B889C468B884C469C40E3
:1017A4002300644623439BB28459A380036DDB6802
:1017B400BC886400E340032423408459A246E468BF
:1017C400A4468C886400A14614004D46AC40A14652
:1017D40064464D46AC43A44654466546E560845988
:1017E400A146E468A2468C886400A340544623437F
:1017F4004C46E360036D9B68BF887F00FB40032475
:1018040023408459A146A7688C886400A446140028
:101814006546AC40A7434C46A7608659B76889889B
:1018240049008B403B43B3609023C1588C460E68FB
:10183400010090318F887F001400BC40A6436446A9
:101844002660C65837683760C458A7888E88012434
:10185400B440A743C458A780C458A7888E880124DD
:10186400B4402743BFB2C458A780C458A446E6680E
:101874008F887F001400BC40A6436446E660C458C9
:10188400A446E4688F887F000126BE402643644650
:10189400E660C458A446A6688F887F001400BC4044
:1018A400A6436446A660C658B768B760C65836688B
:1018B4008F887F00FE40032426409534A4460459B3
:1018C400A2462468A14607009837BC886400A34652
:1018D40014005D46AC40A3464C465D46AC43A1466D
:1018E40054464D46256064460459A1462468A246E0
:1018F400BC886400A640544626434C462660C4581F
:10190400A688B6B28C88264144463440A146644633
:101914000459A688BC88A34601245D46AC40A6436E
:1019240064460459A68064460459A488A246BE8825
:101934004C46B440260054462643B6B26446045985
:10194400A680C658F6688C886400E64003242640C6
:1019540064460459A246E468A146BC886400A346D0
:1019640014005D46AC40A3464C465D46AC43A146DC
:1019740054464D46E56064460459A146E468A246CF
:10198400BC886400A640544626434C46E660C658CC
:10199400B6688C886400E6400324264064460459F3
:1019A400A246A468A146BC886400A34614005D4610
:1019B400AC40A3464C465D46AC43A14654464D4616
:1019C400A56064460459A446A468BF887F00BE404D
:1019D40026436446A660C65836688F887F00FE405A
:1019E400032426409D34A4460459A2462468A146F3
:1019F4000700A037BC886400A34614005D46AC40D1
:101A0400A3464C465D46AC43A14654464D4625602C
:101A140064460459A1462468A246BC886400A640D2
:101A2400544626434C462660C458A688B6B28C88D1
:101A3400264144463440A14664460459A688BC88DD
:101A4400A34601245D46AC40A64364460459A680DF
:101A540064460459A488A246BE884C46B440260075
:101A640054462643B6B264460459A680C658F6685E
:101A74008C886400E6400324264064460459A24648
:101A8400E468A146BC886400A34614005D46AC40EB
:101A9400A3464C465D46AC43A14654464D46E560DC
:101AA40064460459A146E468A246BC886400A64082
:101AB400544626434C46E660C658B6688C88640093
:101AC400E6400324264064460459A246A468A1467D
:101AD400BC886400A34614005D46AC40A3464C4653
:101AE4005D46AC43A14654464D46A5606446045940
:101AF400A446A468BF887F00BE4026436446A6600F
:101B0400C65836688F887F00FE4003242640A534DB
:101B1400A4460459A2462468A1460700A837BC88F5
:101B24006400A34614005D46AC40A3464C465D46A3
:101B3400AC43A14654464D46256064460459A1462B
:101B44002468A246BC886400A640544626434C46FA
:101B54002660C458A688B6B28C88264144463440D0
:101B6400A14664460459A688BC88A34601245D4660
:101B7400AC40A64364460459A68064460459A4882C
:101B8400A246BE884C46B440260054462643B6B20C
:101B940064460459A680C658F6688C886400E640FA
:101BA4000324264064460459A246E468A146BC883E
:101BB4006400A34614005D46AC40A3464C465D4613
:101BC400AC43A14654464D46E56064460459A146DB
:101BD400E468A246BC886400A640544626434C46AA
:101BE400E660C658B6688C886400E6400324264044
:101BF40064460459A246A468A146BC886400A3466E
:101C040014005D46AC40A3464C465D46AC43A14639
:101C140054464D46A56064460459A446A468BF884A
:101C24007F00BE4026436446A660C65836688F8847
:101C34007F00FE4003242640AD34A4460459A24646
:101C44002468A1460700B037BC886400A34614008A
:101C54005D46AC40A3464C465D46AC43A146544663
:101C64004D46256064460459A1462468A246BC88B2
:101C74006400A640544626434C462660C458A688B1
:101C8400B6B28C88264144463440A0466446045982
:101C9400A688BC880125A540AE4364460459A680A5
:101CA40064460459A688BD884446AC402643B6B26F
:101CB40064460459A680C558ED688E887600F540C0
:101CC40003262E40B24664460459A146E668BC8801
:101CD4006400A04614004546AC40A6434C46E6606A
:101CE40064460459A046E468BE8876005546B5406B
:101CF40025434446E560C558AD688E887600F540B6
:101D040003262E40B24664460459A146A668BC8800
:101D14006400A04614004546AC40A6434C46A66069
:101D240064460459A446A468BE8876005546B54066
:101D340025436446A560C3581B6889884900CB4085
:101D440003241C40B82687593B680500B835A98888
:101D540049008A4093433B6082591168AB885B0019
:101D64009C400C4314609023C3589C88A4B2030085
:101D7400903399880C410122904616002640B825DC
:101D8400425994880700B837B98801228A4094439D
:101D94004259948042599488B9888E403443A4B2FD
:101DA400948090228158CE6899884900CE400324BB
:101DB400264042599246D2689146BA8852009346C8
:101DC400032259468A4093464A4659468A439146D5
:101DD40052464946D16042599146D2689246BA88E1
:101DE40052009640524616434A46D6609022865880
:101DF400B6689A885200D640264042599246926864
:101E04009146BA8852009346032259468A40934623
:101E14004A4659468A439146524649469160455935
:101E2400AA68BF887F00BE401643AE6090228658E1
:101E340036689F887F00FE402640C025425992465E
:101E4400126891460700C037BA88520093460322AD
:101E540059468A4093464A4659468A4391465246D1
:101E6400494611604259914612689246BA88520016
:101E74009640524616434A461660902282589688E7
:101E8400B6B29A88164142463240914642599688E3
:101E9400BA889346012259468A409643425996800D
:101EA400425992889246BE884A46B240160052462B
:101EB4001643B6B24259968090228658F6689A889C
:101EC4005200D640264042599246D2689146BA887A
:101ED40052009346032259468A4093464A4659463D
:101EE4008A43914652464946D16042599146D26846
:101EF4009246BA8852009640524616434A46D660E5
:101F040090228658B6689A885200D6402640425994
:101F1400924692689146BA885200934603225946E3
:101F24008A4093464A4659468A4391465246494610
:101F340091604559AA68BF887F00BE401643AE60D1
:101F44009022865836689F887F00FE402640C82528
:101F540042599246126891460700C837BA8852001F
:101F64009346032259468A4093464A4659468A4331
:101F7400914652464946116042599146126892462A
:101F8400BA8852009640524616434A46166090223A
:101F940082589688B6B29A88164142463240914693
:101FA40042599688BA889346012259468A409643F4
:101FB40042599680425992889246BE884A46B24017
:101FC400160052461643B6B242599680902286585D
:101FD400F6689A885200D640264042599246D26802
:101FE4009146BA8852009346032259468A40934642
:101FF4004A4659468A43914652464946D160425917
:102004009146D2689246BA88520096405246164388
:102014004A46D66090228658B6689A885200D640BE
:1020240026404259924692689146BA885200934695
:10203400032259468A4093464A4659468A43914662
:102044005246494691604559AA68BF887F00BE4000
:102054001643AE609022865836689F887F00FE4003
:102064002640D02542599246126891460700D0373F
:10207400BA8852009346032259468A4093464A46F8
:1020840059468A43914652464946116042599146FF
:1020940012689246BA8852009640524616434A46FF
:1020A4001660902282589688B6B29A8816414246A3
:1020B4003240914642599688BA889346012259463D
:1020C4008A40964342599680425992889246BE88E5
:1020D4004A46B240160052461643B6B2425996805A
:1020E40090228658F6689A885200D6402640425973
:1020F4009246D2689146BA885200934603225946C2
:102104008A4093464A4659468A439146524649462E
:10211400D16042599146D2689246BA88520096409C
:10212400524616434A46D66090228658B6689A8824
:102134005200D64026404259924692689146BA8847
:1021440052009346032259468A4093464A465946CA
:102154008A4391465246494691604559AA68BF88C8
:102164007F00BE401643AE609022865836689F8832
:102174007F00FE402640D825425992461268914677
:102184000700D837BA8852009346032259468A403A
:1021940093464A4659468A439146524649461160F7
:1021A4004259914612689246BA8852009640524665
:1021B40016434A461660902282589688B6B29A8888
:1021C400164142463240914642599688BA8893460F
:1021D400012259468A409643425996804259928830
:1021E4009246BE884A46B240160052461643B6B2DC
:1021F4004259968090228658F6689A885200D640B2
:10220400264042599246D2689146BA885200934673
:10221400032259468A4093464A4659468A43914680
:1022240052464946D16042599146D2689246BA888C
:1022340052009640524616434A46D660902286582B
:10224400B6689A885200D64026404259924692680F
:102254009146BA8852009346032259468A409346CF
:102264004A4659468A4391465246494691604559E1
:10227400AA68BF887F00BE401643AE60902286588D
:1022840036689F887F00FE402640E02542599246EA
:10229400126891460700E037BA8852009346032239
:1022A40059468A4093464A4659468A43914652467D
:1022B400494611604259914612689246BA885200C2
:1022C4009640524616434A46166090228258968893
:1022D400B6B29A881641424632409146425996888F
:1022E400BA889346012259468A40964342599680B9
:1022F400425992889246BE884A46B24016005246D7
:102304001643B6B24259968090228658F6689A8847
:102314005200D640264042599246D2689146BA8825
:1023240052009346032259468A4093464A465946E8
:102334008A43914652464946D16042599146D268F1
:102344009246BA8852009640524616434A46D66090
:1023540090228658B6689A885200D6402640425940
:10236400924692689146BA8852009346032259468F
:102374008A4093464A4659468A43914652464946BC
:102384009160425994469268BF887F00BE401643CC
:1023940062469660503D465937689E887600F740FD
:1023A4002740E822944682589246126891460600D5
:1023B400E836B28852009346032259468A4093462F
:1023C4004A4659468A4391465246494611606246F6
:1023D4008258914612689246B288520097405246FB
:1023E40017434A461760290042599788BFB29A8812
:1023F400174142463A409046624682589788B288CE
:102404008F3D9540AF43624682589780624682581A
:102414009788B5884246AA401743BFB2624682589D
:1024240097804258D2689B885B00DA401440634628
:10243400C558EB68B288520003269640B343EB605C
:10244400E827C259D1680600E836B3885B009C408F
:102454000C43D460902283589D680300903399887C
:102464004900CD4003210D40C459A146A468A446A7
:10247400B4886400A046032441468C40A0466446C8
:1024840041468C4349468C60C759B968B688760082
:10249400B5400D43BD6085582D689E887600F54093
:1024A40003210D40ED318C46415889460E680700E2
:1024B400F037B988490003248C40A64349460E608E
:1024C4006146415888460968BE887600B5400D4388
:1024D40041460D6081588E88B6B29D882E410121F7
:1024E40088460C003440A146614641588D88BE8818
:1024F4000124B440A543614641588D80614641584A
:102504008E88BD884C46AC4025003543ADB261464B
:1025140041588D808658F6689D886D00EE400321F1
:102524000E4061464558E9688946B9884900032444
:102534008C40A3464C4659468C43EC606146455852
:10254400E9688A46B98849008E4051460E43EE60D8
:102554008658B6689D886D00EE4003210E406146A2
:102564004558A9688946B988490003248C40A34684
:102574004C4659468C43AC6061464558A968BF88AF
:102584007F00BE400E43AE60865836689F887F0049
:10259400FE4003210E40F82541598A4609688946C0
:1025A4000700F837B988490003248C40A3464C46F9
:1025B40059468C4351460C604159894609688A46FC
:1025C400B98849008E4051460E4349460E608158F1
:1025D4008E88B6B299880E4144463440A14641598A
:1025E4008E88B98801248C40A64341598E80415974
:1025F4008988BE884C46B44026000E43B6B2415981
:102604008E808658F66899884900CE4003210E4092
:1026140041598A46C9688946B988490003248C40CF
:10262400A3464C4659468C435146CC604159894691
:10263400C9688A46B98849008E4051460E434946C6
:10264400CE608658B66899884900CE4003210E4072
:1026540041598A4689688946B988490003248C40CF
:10266400A3464C4659468C4351468C604559A9684B
:10267400BF887F00BE400E43AE60865836689F8890
:102684007F00FE4003210E4080256D0041598A469B
:10269400096889464719B988490003248C40A34630
:1026A4004C4659468C4351460C6041598946096849
:1026B4008A46B98849008E4051460E4349460E6009
:1026C40081588E88B6B299880E4144463440A1465A
:1026D40041598E88B98801248C40A64341598E8083
:1026E40041598988BE884C46B44026000E43B6B290
:1026F40041598E808658F66899884900CE40032156
:102704000E4041598A46C9688946B988490003245C
:102714008C40A3464C4659468C435146CC604159A3
:102724008946C9688A46B98849008E4051460E4395
:102734004946CE608658B66899884900CE40032140
:102744000E4041598A4689688946B988490003245C
:102754008C40A3464C4659468C4351468C604159A3
:102764008C468968BF887F00BE400E4361468E60F8
:10277400865837689E887600F74003210F4006315B
:10278400FF318C4641588A460968894606006644EA
:10279400B188490003248C40A3464C4659468C43D7
:1027A40051460C6061464158894609688A46B18899
:1027B40049008F4051460F4349460F6081588F8826
:1027C400BFB299880F4144463C40614641588F88C6
:1027D400B188FF3D8D40AF43614641588F806146CB
:1027E40041588F88B588AC402743BFB261464158F1
:1027F4008F808558ED689F887F00FD4003210D4040
:10280400614641588946CF68B188490003248C4009
:10281400A7434946CF60614641588846C968B7888E
:102824007F00BD400D434146CD60825892689B882D
:102834005B00DA40032414406346C558AB68B28891
:102844005200032191408B43AB606346C2589168A8
:10285400B3885B009C400C439460084B5969FC228C
:10286400D2030A435A615B690193019B03B03CBCE8
:1028740090469946A246AB46F0BDC04600100240C1
:1028840070B504001D00C3689A4205D2836899425A
:1028940002D25A43521842600026AE57002E10D07E
:1028A40001352169606802F049FA616063695E5428
:1028B40063680133636022699342EDD3002363604C
:1028C400EAE770BDF0B5DE4657464E464546E0B5EC
:1028D4009024E405046000238380226803339A4330
:1028E400226005682E68818849001A008A403243B4
:1028F4002A600568EA68818849001E008E40B24358
:10290400EA600268D168D1600568AA6881884900D4
:102914001E008E40B243AA60026891689160056807
:10292400A988868801221700B740B943A9800568A1
:10293400A98886881700B740394389B2A980846082
:10294400828121680C25AA46A943216087683968D9
:102954008C46868976001900B14065462943396062
:102964008768F968868976001D00B540A943F96037
:102974008168CE68CE608768B968868976001D0054
:10298400B540A943B96081688E688E608668B18855
:1029940087891500BD40A943B1808668B1888789BD
:1029A4001500BD40294389B2B180046102218182AE
:1029B40021683026B1432160076939688C46868ACC
:1029C40076001900B1406546294339600769F96802
:1029D400868A76001D00B540A943F9600169CE6876
:1029E400CE600769B968868A76001D00B540A943A0
:1029F400B96001698E688E600669B188878A15009E
:102A0400BD40A943B1800669B188878A1500BD40DD
:102A1400294389B2B180846183832168C026B1438C
:102A24002160876939688C46868B76001900B1402D
:102A34006546294339608769F968868B76001D00ED
:102A4400B540A943F9608169CE68CE608769B968E9
:102A5400868B76001D00B540A943B96081698E68F4
:102A64008E608669B188878B1500BD40A943B1800B
:102A74008669B188878B1500BD40294389B2B1802E
:102A8400E5490162042686840E68E44F3E400E60E8
:102A9400056AAC462D68878C7F001E00BE402E431D
:102AA40065462E60056AAC46EE68878C7F001D0083
:102AB400BD40AE436546EE60066AF768F760056A96
:102AC400AC46AE68878C7F001D00BD40AE436546B2
:102AD400AE60066AB768B760056AAE88878C150071
:102AE400BD40AE43056AAE80056AAE88878C15008A
:102AF400BD402E43B6B2056AAE8084620825AC465A
:102B040085852668C64DAB462E402660846AA0465D
:102B14002468A146868D76001C00B4404D462C43A3
:102B240045462C60846AA046E468868D76001D00C4
:102B3400B540AC434546EC60846AE668E660846A66
:102B4400A046A468868D76001D00B540AC4345467A
:102B5400AC60846AA668A660846AA688848D150021
:102B6400A540AE43846AA680846AA688848D150035
:102B7400A5402E43B6B2846AA680016306248486E7
:102B84000C68A84E34400C60046BA0462468A1462F
:102B9400868E76001C00B4404D462C4345462C607E
:102BA400046BA046E468868E76001D00B540AC43F5
:102BB4004546EC60046BE668E660046BA046A468D6
:102BC400868E76001D00B540AC434546AC60046B70
:102BD400A668A660046BA688848E1500A540AE4343
:102BE400046BA680046BA688848E1500A5402E4332
:102BF400B6B2046BA6808163092484870C688A4E6C
:102C040034400C60846BA0462468A146868F76000D
:102C14001C00B4404D462C4345462C60846BA046B2
:102C2400E468868F76001D00B540AC434546EC60F1
:102C3400846BE668E660846BA046A468868F7600A1
:102C44001D00B540AC434546AC60846BA668A660E5
:102C5400846BA688848F1500A540AE43846BA68040
:102C6400846BA688848F1500A5402E43B6B2846B6E
:102C7400A6800164040040340726A6800E686B4DCC
:102C84002E400E60056CA8462D68A946A6887600DD
:102C94001D00B5402E004D462E4345462E60056C62
:102CA400A946EE68A5886D00A8461D004746BD40AC
:102CB400AE434D46EE60066CF568F560056CA946BA
:102CC400AE68A5886D00A8461D004746BD40AE43CA
:102CD4004D46AE60066CB568B560056CAE88A588D7
:102CE400A94615004F46BD40AE43056CAE80056C49
:102CF400AE88A4881500A5402C003443A4B2056C0A
:102D0400AC808164040048346546A5800E685F4643
:102D140037400F60876C39688C46A68876001900A6
:102D2400B140654629433960876CF968A688760006
:102D34001D00B540A943F960816CCE68CE60876CF4
:102D4400B968A68876001D00B540A943B960816CB6
:102D54008E688E60866CB188A7881500BD40A94333
:102D6400B180866CB188A4881500A540294389B236
:102D7400B1802F490165040050340F26A6800E68E7
:102D8400B600B6080E60056DAC462D68A7887F00B6
:102D94001E00BE402E4365462E60056DAC46EE68AF
:102DA400A7887F001D00BD40AE436546EE60066DFA
:102DB400F768F760056DAC46AE68A7887F001D0014
:102DC400BD40AE436546AE60066DB768B760056D3D
:102DD400AE88A7881500BD40AE43056DAE80066D74
:102DE400B788A4881500A5402C003C43A4B2B48045
:102DF4008165040058340E26A6800E680D4F3E40AF
:102E04000E60856DAC462D68A7887F001E00BE400D
:102E14002E43654610E0C04600080048FFFCFFFF53
:102E2400FFFFFCFFFFCFFFFFFFFFF3FFFF3FFFFFAD
:102E3400000C0048FFFFFFCF2E60856DAC46EE68A6
:102E4400A7887F001D00BD40AE436546EE60866DD9
:102E5400F768F760856DAC46AE68A7887F001D00F3
:102E6400BD40AE436546AE60866DB768B760856D9C
:102E7400AE88A7881500BD40AE43856DAE80866DD3
:102E8400B788A4881500A5402C003C43A4B2B480A4
:102E94000166040060340D26A6800E68E44F3E40AF
:102EA4000E60056EAC462D68A7887F001E00BE40EC
:102EB4002E4365462E60056EAC46EE68A7887F00FB
:102EC4001D00BD40AE436546EE60066EF768F760D0
:102ED400056EAC46AE68A7887F001D00BD40AE43BA
:102EE4006546AE60066EB768B760056EAE88A788A3
:102EF4001500BD40AE43056EAE80066EB788A4884B
:102F0400A2403A4392B2B2808166020068325446CB
:102F140094800C68C74D2C400C60846E25689188A1
:102F240049008B402B432360846EE36891884900F9
:102F340003228A409343E360836EDA68DA60856E25
:102F4400AA6804006834A188490003231E008E4047
:102F5400B243AA60826E91689160856EA988A68842
:102F6400012291461700B740B943A980856EA9880C
:102F7400A4881600A640314389B2A980AE490167EE
:102F8400040070340B25A5800D68AC4E35400D60EF
:102F9400076F3A68A68876001D00B54015433D606A
:102FA400076FFD68A68876001A00B2409543FD605D
:102FB400056FEE68EE60076FBD68A68876001A009C
:102FC400B2409543BD60056FAE68AE60066FB588CC
:102FD400A7884A46BA409543B580056FAE88A48851
:102FE4004A46A24014003443A4B2AC808167040072
:102FF40078340A25A5800D68914E35400D60876FA1
:103004003A68A68876001D00B54015433D60876F79
:10301400FD68A68876001A00B2409543FD60856F6E
:10302400EE68EE60876FBD68A68876001A00B2402D
:103034009543BD60856FAE68AE60866FB588A7881E
:103044004A46BA409543B580856FAE88A4884A46FF
:10305400A24014003443A4B2AC8080240151050082
:1030640080350926AE800E68764F3E400E600259C8
:1030740094461268AF887F001E00BE401643624625
:10308400166002599446D668AF887F001A00BA4089
:1030940096436246D6600659F768F760025994462B
:1030A4009668AF887F001A00BA40964362469660DD
:1030B4000659B768B76002599688AF884A46BA403D
:1030C4009643025996800659B488AD884A46AA4068
:1030D4001443A4B2B480882401510500883508261D
:1030E400AE800E685F463E400E6007593A68AE886F
:1030F40076001900B140114339600759F968AE8868
:1031040076001A00B2409143F9600159CE68CE604E
:103114000759B968AE8876001A00B2409143B96085
:1031240001598E688E600659B188AF884A46BA4004
:103134009143B1800459A188AD884A46AA401143FD
:1031440089B2A18090249021C905015105009035D0
:103154000726AE800E683C4F3E400E6002599446EE
:103164001268AF887F001E00BE4016436246166098
:1031740002599446D668AF887F001A00BA40964335
:103184006246D6600659F768F76002599446966815
:10319400AF887F001A00BA4096436246966006598B
:1031A400B768B76002599688AF884A46BA409643D2
:1031B400025996800659B488AD884A46AA401443F9
:1031C400A4B2B4809825214A92464251060098360A
:1031D4000027B78017689F431760425994461268C6
:1031E4009046B7887F001A00BA401700424617433A
:1031F4006246176042599046D768B2885200944696
:103204001A006446A24097434246D7604759FA6879
:10321400FA60425990469768B288520094461A0060
:103224006446A240974342469760475910E0C0461F
:10323400FFFFFFF3FFFFFFFC000C0048FFFF3FFF11
:10324400FFFFCFFFFFFFF3FFFF3FFFFF0004004836
:10325400BA68BA6042599788B28890464A4644464A
:10326400A2409743425997804759BD88B6884A4639
:10327400B2401543ADB2BD80A0255246425106006E
:10328400A0364A46B280524617680C2297435246EB
:1032940017604259944612689046B7887F001A0016
:1032A400BA40170042461743624617604259904697
:1032B400D768B288520094461A006446A2409743E5
:1032C4004246D7604759FA68FA604259904697686F
:1032D400B288520094461A006446A240974342467C
:1032E40097604759BA68BA6042599788B28890463D
:1032F4004A464446A2409743425997804759BD885D
:10330400B6884A46B2401543ADB2BD80A8255246A0
:1033140042510600A8360227B78017683022974327
:1033240052461760425994461268B7887F001C00C1
:10333400BC4014436246146042599446D468B7882A
:103344007F001A00BA4094436246D4604459E76847
:10335400E760425994469468B7887F001A00BA40DF
:103364009443624694604459A768A760425994887C
:10337400B7884A46BA409443425994804559AC8828
:10338400B6884A46B2401443A4B2AC80B02401517A
:103394000500B0350426AE800E68E54F3E400E6051
:1033A400025994461268AF887F001E00BE4016433F
:1033B4006246166002599446D668AF887F001A00A8
:1033C400BA4096436246D6600659F768F7600259D8
:1033D40094469668AF887F001A00BA4096436246C6
:1033E40096600659B768B76002599688AF884A460E
:1033F400BA409643025996800659B488AD884A4625
:10340400AA401443A4B2B480B82401510500B835CD
:103414000526AE800E68C74F3E400E6002599446A2
:103424001268AF887F001E00BE40164362461660D5
:1034340002599446D668AF887F001A00BA40964372
:103444006246D6600659F768F76002599446966852
:10345400AF887F001A00BA409643624696600659C8
:10346400B768B76002599688AF884A46BA4096430F
:10347400025996800659B488AD884A46AA40224328
:1034840092B2B280C02281500400C0340625A580C7
:103494000D68A94E35400D6086583768A5886D00C3
:1034A4001900A940394331608658F168A5886D0038
:1034B4001F00AF40B943F1608158CD68CD60865894
:1034C400B168A5886D00AB409943B1608358996891
:1034D400996081588B88A488BF3AA24093438B801B
:1034E400C023C25893880100C0318C884D46A54042
:1034F4002B439BB29380C824904A02510500C835DF
:103504000723AB8013688E4E3340136003599C46E7
:103514001B689846AF887F0003231E00BE404146C7
:103524000E4361460E6001598C46CE68AF887F0019
:103534001900B9408E436146CE600659F768F760BA
:1035440001598C468E68AF887F001900B9408E43BC
:1035540061468E600659B768B76001598E88AF8896
:103564004946B9408E4301598E800659B488AD88C6
:103574004946A9400C43A4B2B480D02402510500AA
:10358400D0350826AE8016685F463E401660015965
:103594008C460968AF887F001E00BE400E4361461A
:1035A4000E6001598C46CE68AF887F001900B9407F
:1035B4008E436146CE600659F768F76001598C4620
:1035C4008E68AF887F001900B9408E4361468E60D3
:1035D4000659B768B76001598E88AF884946B94023
:1035E4008E4301598E800659B488AD884946A94056
:1035F4000C43A4B2B480D82402510500D83509265E
:10360400AE8016684F4F3E40166001598C460968DB
:10361400AF887F001E00BE400E4361460E60015914
:103624008C46CE68AF887F001900B9408E4361464E
:10363400CE600659F768F76001598C468E68AF88EA
:103644007F001900B9408E4361468E600659B76801
:10365400B76001598E88AF884946B9408E430159F5
:103664008E800659B488AD884946A9400C43A4B25B
:10367400B480E02402510500E0350A26AE801668C5
:10368400314F3E40166001598C460968AF887F006F
:103694001E00BE400E4361460E6001598C46CE6842
:1036A400AF887F001900B9408E436146CE60065949
:1036B400F768F76001598C468E68AF887F0019005F
:1036C400B9408E4361468E600659B768B7600159A8
:1036D4008E88AF884946B9408E4301598E80065979
:1036E400B488AD884946A9400C43A4B2B480E82408
:1036F40002510500E8350B26AE801668134F3E4094
:10370400166001598C460968AF887F001E00BE40D0
:103714000E4361460E6001598C46CE68AF887F0027
:103724001900B9408E436146CE60065910E0C04688
:10373400FFFCFFFFFFF3FFFFFFCFFFFF0010004878
:10374400FF3FFFFFFFFFF3FFFFFFCFFFFFFF3FFF41
:10375400F768F76001598C468E68AF887F001900BE
:10376400B9408E4361468E600659B768B760015907
:103774008E88AF884946B9408E4301598E800659D8
:10378400B488AD884946A9400C43A4B2B480F0245F
:1037940002510500F0350C26AE801668E44F3E4019
:1037A400166001598C460968AF887F001E00BE4030
:1037B4000E4361460E6001598C46CE68AF887F0087
:1037C4001900B9408E436146CE600659F768F76028
:1037D40001598C468E68AF887F001900B9408E432A
:1037E40061468E600659B768B76001598E88AF8804
:1037F4004946B9408E4301598E800659B488AD8834
:103804004946A9400C43A4B2B480F82402510500EF
:10381400F8350D26AE801668C64F3E401660015935
:103824008C460968AF887F001E00BE400E43614687
:103834000E6001598C46CE68AF887F001900B940EC
:103844008E436146CE600659F768F76001598C468D
:103854008E68AF887F001900B9408E4361468E6040
:103864000659B768B76001598E88AF884946B94090
:103874008E4301598E800659B488AD884946A940C3
:103884000C43A4B2B48080246400025105190E26AE
:10389400AE801668A84F3E40166001598C460968F0
:1038A400AF887F001E00BE400E4361460E60015982
:1038B4008C46CE68AF887F001900B9408E436146BC
:1038C400CE600659F768F76001598C468E68AF8858
:1038D4007F001900B9408E4361468E600659B7686F
:1038E400B76001598E88AF884946B9408E43015963
:1038F4008E800659B488AD884946A9400C43A4B2C9
:10390400B48084246400025105190F26AE80166821
:10391400B600B608166001598C460968AF887F0066
:103924001E00BE400E4361460E6001598C46CE68AF
:10393400AF887F001900B9408E436146CE600659B6
:10394400F768F76001598C468E68AF887F001900CC
:10395400B9408E4361468E600659B768B760015915
:103964008E88AF884946B9408E4301598E800659E6
:10397400B488AD884946A9400C43A4B2B4808824D5
:1039840064006E4E065105190527AF8037686C49EF
:103994000F40376001598C460968AF887F001E00CC
:1039A400BE400E4361460E6001598C46CE68AF8816
:1039B4007F001900B9408E436146CE600659F7680E
:1039C400F76001598C468E68AF887F001900B940B2
:1039D4008E4361468E600659B768B76001598E8878
:1039E400AF884946B9408E4301598E800659B48840
:1039F400AD884946A9400C43A4B2B4808C24640029
:103A0400025105190226AE8016683027BE4316609F
:103A140007593A689446AE8876001A00B240614667
:103A24000A433A600759FA68AE8876001900B14033
:103A34008A43FA600259D668D6600759BA68AE88D4
:103A44007600B3409A43BA6003599A689A6002595F
:103A54009388AD884946A9408B43938001598B884C
:103A640002199488012292461500A5402B439BB26B
:103A74008B80902149009023DB05435044180C258A
:103A8400A5801D682A4E35401D6047583B689C46FA
:103A9400A688760003231D00B540624615433D60A9
:103AA4004758FD68A68876001A00B2409543FD6029
:103AB4004558EE68EE604758BD68A68876001A003F
:103AC400B2409543BD604558AE68AE604658B5886F
:103AD400A7885246BA409543B5804558A988A4881A
:103AE4005246A240114389B2A98094246400154A25
:103AF40093460251061906229446B2805A46156826
:103B0400114F3D4015600259904612689146B588A0
:103B14006D001A00AA4015004A4615434246156036
:103B240002599146D568B288520090461A000DE0B9
:103B3400FFFFFFFCFFFFFFF3FFFFFFCF000800487C
:103B4400FFF3FFFF00040048FFCFFFFF41468A4018
:103B540095434A46D5600559EA68EA600259914698
:103B64009568B288520090461A0041468A409543AF
:103B74004A4695600559AA68AA6002599588B28890
:103B84009146524649468A409543025995800559C3
:103B9400AC88B6885246B2401443A4B2AC80982490
:103BA40064005A46025105190726AE801668E64A93
:103BB40016405A4616600259904612689146AE88DD
:103BC40076001A00B24016004A4616434246166072
:103BD40002599146D668AA88520090461A00414676
:103BE4008A4096434A46D6600659F268F260025902
:103BF40091469668AA88520090461A0041468A4027
:103C040096434A4696600659B268B260025996884D
:103C1400AA889146524649468A409643025996805C
:103C24000659B488AD885246AA401443A4B2B4805D
:103C34009C256D00C54C445146196246B2802268E9
:103C4400174027604259944612689046B7887F000F
:103C54001A00BA4017004246174362461760425999
:103C64009046D768B288520094461A0061468A404A
:103C740097434246D7604759FA68FA6042599046DA
:103C84009768B288520094461A0061468A40974366
:103C9400424697604759BA68BA6042599788B288D1
:103CA4009046524641468A40974342599780475925
:103CB400BD88B6885246B2401543ADB2BD80A0253A
:103CC4006D00445146190527B7802768A04A17405C
:103CD40027604259944612689046B7887F001A00BC
:103CE400BA4017004246174362461760425990464D
:103CF400D768B288520094461A0061468A409743B6
:103D04004246D7604759FA68FA6042599046976824
:103D1400B288520094461A0061468A40974342464C
:103D240097604759BA68BA6042599788B2889046F2
:103D3400524641468A409743425997804759BD8825
:103D4400B6885246B2401543ADB2BD80A4256D007D
:103D5400445146190427B78027687E4A17402760D4
:103D6400425994461268B7887F001C00BC40144333
:103D74006246146042599446D468B7887F001A009A
:103D8400BA4094436246D4604459E768E7604259B4
:103D940094469468B7887F001A00BA4094436246F8
:103DA40094604459A768A76042599488B7885246DA
:103DB400BA409443425994804559AC88B6885246D7
:103DC400B2401443A4B2AC80A82464005A46025101
:103DD40005190A26AE8016685F4F3E4016600259E8
:103DE40094461268AF887F001E00BE4016436246A8
:103DF400166002599446D668AF887F001A00BA400C
:103E040096436246D6600659F768F76002599446AD
:103E14009668AF887F001A00BA409643624696605F
:103E24000659B768B76002599688AF885246BA40B7
:103E34009643025996800659B488AD885246AA40E2
:103E44001443A4B2B480AC2464005A460251051948
:103E54000B26AE801668414F3E40166007593A68FB
:103E6400AE8876001900B140114339600759F968EA
:103E7400AE8876001A00B2409143F9600159CE68C9
:103E8400CE600759B968AE8876001A00B2409143F3
:103E9400B96001598E688E600659B188AF88524660
:103EA400BA409143B1800459A188AD885246AA40D2
:103EB400114389B2A180B0214900294D45504418CD
:103EC4000226A6802E683027BE432E6042589446B0
:103ED4001268A7887F001E00BE4016436246166023
:103EE40042589446D668A7887F001A00BA40964381
:103EF4006246D6604658F768F7604258944696681A
:103F0400A7887F001A00BA409643624696604658D6
:103F1400B768B76042589688A7885246BA40964315
:103F24004258968042589688A7885246BA4016430B
:103F3400B6B24258968000262672E671A67142589F
:103F4400944616680EE0C046FF3FFFFF000C004891
:103F5400FFF3FFFFFFFCFFFFFFFFCFFFFFFF3FFF6C
:103F640000140048A7887F001A00BA4096436246AE
:103F74001660425894461268A7887F005646BE4091
:103F840016436246166042589688A7885246BA403D
:103F94009643425896804758BE88B6B2BE8042586F
:103FA4009446D668A7887F001A00BA4096436246B2
:103FB400D6604658F768F7604758BE68A48864001E
:103FC4001A00A2409643BE6041588C688C60B621AA
:103FD400490045504418A3802E68C027BE432E6074
:103FE40047583A68A68876001D00B54015433D60E1
:103FF4004758FD68A68876001A00B2409543FD60D4
:104004004558EE68EE604758BD68A6887600B34010
:104014009D43BD6043589D689D604558AB88A68804
:104024005246B2409343AB8041588B88A488524691
:10403400A2401A4392B28A80B6235B00C2180021C0
:104044001172D1719171C658346895886D0003312D
:104054000F00AF40BC433460C7583C68A446968800
:10406400760001242500B540664635433D60C558B9
:10407400AE889788BC40A643AE80C558AC88A4B22D
:10408400AC80C658F46895886D000F00AF40BC43FF
:10409400F460C458E568E560C558AC68928852007D
:1040A40091408C43AC60C3589A689A603CBC90467B
:1040B4009946A246AB46F0BD70B5FCF715FA324CF2
:1040C4002000FCF7EBFC3149314B0B606423CB60DF
:1040D40023005933FF334B6023005133FF338B608C
:1040E4002C4D280000F05AFB23001133FF3322002B
:1040F4001932FF32284E2900300000F0FFFBFCF794
:104104008FF90400254B186872686060A260244926
:10411400E160244B2361186059609A6000221A748C
:104124002270A3681A69002A08D000222021586945
:104134005D684155013219699142F7D80025A36899
:104144001D76114B6822FF329D5405329A58B821CE
:104154004900595A01238B409361134B00220021DB
:10416400A068FEF78DFB114B00220121A068FEF729
:1041740087FB2069057405750121FCF775FAFCF7C6
:1041840049FA00F043F9FAE7680100201C00002016
:104194000054004004010020FC0200202C000020F8
:1041A4002401002050010020544E0008684E0008ED
:1041B400F8B5CE46474680B5404CBC22520000219B
:1041C400200000F0CBFD2000FEF77CFB3C4E301DB0
:1041D4000422310000F09AF823009033F3612300A5
:1041E400983333622300A03373622300A833B3628D
:1041F40000250023984635707570B570F570314907
:1042040002230B744B748B74220050320A60220018
:1042140070324A60220058328A6022007832CA60C2
:10422400294A137453749374200060301060200082
:104234008030506020006830906020008830D0606A
:10424400224F3D717D713960214989462149484693
:10425400016003724260204E204A326033732300AF
:10426400383373603034B4601D4B1D605D600022D0
:104274001D819A721B481C4B036045608560C560B4
:1042840005614561027600F015FB184BDD6042467E
:104294001A745A744A461A605E609F60182200219C
:1042A400134800F05BFD0A23124A0221124800F071
:1042B400CBF80CBC90469946F8BDC0466801002076
:1042C40024010020D4000020E8000020FC0000208D
:1042D400F0020020444E0008E00200202C4E0008AA
:1042E40004010020FC020020944E00081803002062
:1042F40050010020E10700081001002010B5024819
:1043040000F0D0FA10BDC046FC020020044B03614B
:1043140083820260C1600023836043607047C046AB
:1043240000FFFFFF10B542688468531CA34210D0FD
:10433400002C03D10468013C94420CD0C468A44608
:104344006244117002689342924113404360012019
:1043540010BD0020FCE70020FAE7826843689A4217
:104364000BD0531CC1688C466244127801688B429E
:1043740089410B40836010007047808AFCE770B568
:1043840004000E1E0FD001257268B3689A420BD048
:104394003000FFF7E2FFC1B22000FFF7C3FF00289F
:1043A400F2D10500F0E70025280070BD836842685B
:1043B400934203D900681018C01A7047D01AFCE75A
:1043C400704710B504001C2100F02AFC200010BD29
:1043D4000C4A13681B1813600B4B1B68002B07D186
:1043E400704701225A7400221A609B68002BF7D090
:1043F4005A7C022AF9D11A688242F2D91A68121A2E
:104404001A60F2E72C0300203003002010B50D4B96
:104414001C68002C07D110BD00236374E36898471F
:10442400A468002CF7D0637C012BF9D1237C012BE9
:10443400F2D0022BF4D16368236002236374E3682F
:104444009847EDE73003002010B50024447401744C
:10445400C26043600C4B1B68002B06D09A68002A8C
:104464000AD083420FD01300F8E7074B18600023EB
:1044740083600233437406E0834204D000228260E6
:1044840098600223437410BD3003002010B501204E
:10449400FFF79EFF10BDF0B583B006000191002325
:1044A400C356002B07D0040001340023E356002B2D
:1044B400FAD1A64209D3019846427041C0B203B072
:1044C400F0BD30352570A642F5D0013C0027E757F2
:1044D400302F01D0232FF6D10A21019800F02EFCB1
:1044E400CDB20A21019800F0A3FB0190002DE8D180
:1044F400031EE6D1232FE6D120332370E3E710B562
:104504000023CB560131002B0FD0441C0370013122
:104514004B1E1B785BB22000002BF6D1002A02D080
:10452400002323700134200010BD0400F6E770B5A9
:104534000D001400012201002000FFF7E0FF290014
:104544002000FFF7A8FF70BDF0B5C64600B582B0E5
:104554008C4AD1698024A4032143D161D3692340C7
:104564000193019B03681A68136801218B4313604C
:1045740001680A681368DB07FCD48B681D68296826
:104584009C88640003221600A640B14329601E687B
:1045940037689D886D0002218846A94039433160FF
:1045A4001E68B5889F8801210C00BC40A543B580D6
:1045B4001E68B5889F880C00BC402543ADB2B58009
:1045C4001F68FD689E8876001400B440A543FD6012
:1045D4001F68FC689E8876000D00B5402543FD6089
:1045E4001F68BD689E8876001400B440A543BD6072
:1045F4001E68B7689D886D001300AB403B43B360F1
:1046040003685B681F683D689E8876001400B440A8
:10461400A5433D601E6837689D886D004446AC40E4
:104624003C4334601D68AC889E880F00B740BC438F
:10463400AC801D68AC889E880F00B7403C43A4B290
:10464400AC801E68F4689D886D001700AF40BC43C1
:10465400F4601D68EE689C886400A1403143E96001
:104664001D68A9689C8864001600A640B143A9602F
:1046740019688C689B885B009A4022438A600368AF
:104684009A689388072B0BD815682C6A9B00DBB2B9
:10469400072199408C43012199400B0023432B624D
:1046A40093881900083989B207290CD81468616AFB
:1046B400083B9B00DBB207229A40914301229A40B7
:1046C40013000B43636203685A689388072B0BD863
:1046D40015682C6A9B00DBB2072199408C430121A9
:1046E40099400B0023432B6293881900083989B23F
:1046F40007290CD81468616A083B9B00DBB20722C7
:104704009A40914301229A4013000B436362036869
:104714001A68116880235B010B43136003681968EE
:104724000B68194A1A4080235B0013430B60174A35
:10473400C524A40013591B021B0AC02109060B43FC
:10474400135180231B04136003681A68136810490B
:104754000B40136003681B680E4A1A6103681A68E9
:10476400136801210B43136003681A681368DB079D
:10477400FCD5094B436000238372012002B004BCC2
:104784009046F0BD00100240FFF0FFFF00E100E0A2
:10479400FFFFFDFF271A10609803002010B5016089
:1047A4000B68002B0DD04B68002B0CD08B68002BB2
:1047B4000BD0CB68002B01D16433CB60FFF7C4FE70
:1047C40010BD0020FCE70020FAE70020F8E7000015
:1047D40010B50400837A0020002B00D010BD0133F3
:1047E400A372636800225A609A606068FFF7C7FD8D
:1047F40023681A6853681D490B40536023681A687C
:1048040053681B490B405360236819684B6822891D
:104814009B0A9B0213434B6023681A68536815492B
:104824000B40536023681A68516880239B040B4330
:1048340053606068FFF7BAFD23681A685368FF285D
:1048440000D9FF2000040C490B4018435060236832
:104854001A68136822210B43136023681A6851688D
:1048640080239B010B4353600120B7E7FFFBFFFF4D
:10487400FFF7FFFFFFEFFFFFFFFF00FF10B5064B41
:1048840000221A605A601A819A7264220349044809
:10489400FFF73CFD10BDC046B003002034030020E8
:1048A40098030020704710B504001C2100F0B8F9EB
:1048B400200010BD014B024ADA607047400400201A
:1048C400A54B000870B504001500836800225A60E7
:1048D4009A604B42594189018068FFF723FD290002
:1048E400A068FFF71FFDA168E068FFF771FF70BDC6
:1048F40010B50A000121FFF7E5FF10BDF8B5DE464B
:1049040057464E464546E0B504008B460261436176
:1049140015682B689088400003273E008640B34307
:104924002B60166833689C469088400001252B0054
:10493400834061460B43336010688388968829005E
:10494400B1408B438380106883889BB28380166850
:10495400F36890884000390081408B43F36013680A
:10496400D868D8601668B3689088400039008140E0
:104974008B43B36010688668928852000223934088
:104984003343836063692269106806689088400035
:10499400C64003218A460E401968894609688C4638
:1049A40099884900884639004046814088466146D6
:1049B400404681438C4649466046086019688846EB
:1049C40009688946998849008E4049460E43414604
:1049D4000E6011688E88B6B291880E410121314073
:1049E4008C4619688E8899888846290040468140FB
:1049F4008E4319688E8019688E8899888846614626
:104A0400404681400E43B6B219688E801668F66837
:104A140091884900CE4051460E4019688946C968BC
:104A24008C4699884900884639004046814088462A
:104A34006146404681438C4649466046C8601968D1
:104A44008846C9688946998849008E4049460E437C
:104A54004146CE601668B66892885200D6405046E9
:104A640030401A68944696689A8852009740BE432C
:104A7400624696601E68B7689A88520003009340A5
:104A84003B43B360314B6360314BA3600023237617
:104A94005B46E3603E235A46138163691A689B8828
:104AA40010332900994091613220FBF7BBFD636903
:104AB4001A689B889D4095610A20FBF7B3FD382155
:104AC4002000FFF715FF96256D002800FBF7AAFDCF
:104AD40039212000FFF70CFF2800FBF7A3FD142168
:104AE4002000FFF705FF6420FBF79CFD79212000DF
:104AF400FFF7FEFE6420FBF795FD50212000FFF731
:104B0400F7FE6420FBF78EFD6C212000FFF7F0FE1A
:104B14006420FBF787FD0C212000FFF7E9FE6420E9
:104B2400FBF780FD01212000FFF7E2FE6420FBF784
:104B340079FD38212000FFF7DBFE6420FBF772FDCE
:104B44003CBC90469946A246AB46F8BD24040020DE
:104B5400BC030020F0B583B006000C00836800227B
:104B64005A609A6040218068FFF7DCFB7768FB6835
:104B74009C4212D2BD686C43002D0AD0B3680193E5
:104B84002D197B69195D0198FFF7CCFB0134AC4208
:104B9400F7D1B168F068FFF71BFE002003B0F0BD49
:104BA40010B5037E012B02D0032B04D010BD0121CC
:104BB400FFF7D0FFFAE70221FFF7CCFFF6E700008A
:104BC40010B5FA235B00002202210B48FFF73CFCDE
:104BD4000A4B0B4A1A6010229A600E3ADA60094AAC
:104BE4005A6120221A6100225A601A762532064937
:104BF4000648FFF78BFB10BD40040020240400206E
:104C0400844E0008D4030020FC030020BC030020D1
:104C140010B50248FFF7D4FB10BDC04624040020A1
:104C240010B500F001F810BD10B500F08DF810BDFE
:104C3400002243088B4274D303098B425FD3030AD7
:104C44008B4244D3030B8B4228D3030C8B420DD3EA
:104C5400FF22090212BA030C8B4202D31212090278
:104C640065D0030B8B4219D300E0090AC30B8B42B6
:104C740001D3CB03C01A5241830B8B4201D38B0364
:104C8400C01A5241430B8B4201D34B03C01A524109
:104C9400030B8B4201D30B03C01A5241C30A8B424C
:104CA40001D3CB02C01A5241830A8B4201D38B0237
:104CB400C01A5241430A8B4201D34B02C01A5241DB
:104CC400030A8B4201D30B02C01A5241CDD2C3094D
:104CD4008B4201D3CB01C01A524183098B4201D3C9
:104CE4008B01C01A524143098B4201D34B01C01AB4
:104CF400524103098B4201D30B01C01A5241C3082C
:104D04008B4201D3CB00C01A524183088B4201D39A
:104D14008B00C01A524143088B4201D34B00C01A86
:104D24005241411A00D20146524110467047FFE7F2
:104D340001B5002000F006F802BDC0460029F7D0F6
:104D440076E770477047C04610B5034B01001868FA
:104D540000F00CF810BDC04630000020030012180B
:104D6400934200D1704719700133F9E770B505001B
:104D7400002910D00C1F2368002B00DAE418280047
:104D840000F045F81D4A1368002B05D163601460D8
:104D9400280000F03DF870BDA34209D921686018CD
:104DA4008342F3D118685B6841182160EEE7130071
:104DB4005A68002A01D0A242F9D919685818A042A9
:104DC4000BD120680918581819608242E0D1106884
:104DD4005268411819605A60DAE7A04202D90C23DC
:104DE4002B60D5E721686018824203D110685268AD
:104DF4004118216062605C60CAE7C0465404002028
:104E04000023C25C0133002AFBD1581E704770474F
:104E14007047000068626A6B62686A6B4300000056
:104E2400000000000000000071070008D30700081C
:104E3400DD070008770800080000000000000000FB
:104E440085080008D7070008DB0700086908000880
:104E540020537465726F776E696B206272616D2086
:104E640000000000706F7A61726F77796368207652
:104E74002E312E3000000000000000000000000071
:104E8400C5430008C74300080000000000000000FC
:084E9400A9480008AB48000822
:104E9C009400002000000000000000000000000052
:104EAC000102030406070809006CDC020000000084
:104EBC000000000000000000640000001803002047
:104ECC003400002000000000000000000000000082
:104EDC0000000000000000000000000000000000C6
:104EEC0000000000000000000000000000000000B6
:104EFC0000000000000000000000000000000000A6
:104F0C000000000000000000000000000000000095
:104F1C000000000000000000000000000000000085
:044F2C000000000081
:04000005080000C52A
:00000001FF
