:020000040800F2
:1000000000400020F5000008EF000008D7000008BD
:1000100000000000000000000000000000000000E0
:10002000000000000000000000000000D1000008F7
:100030000000000000000000CB000008951E000832
:10004000C5000008C5000008C5000008C50000087C
:10005000C5000008C5000008C5000008C50000086C
:10006000C5000008C5000008C5000008C50000085C
:10007000C5000008C5000008C5000008C50000084C
:10008000C5000008C5000008C5000008C50000083C
:10009000C5000008C5000008C5000008C50000082C
:1000A000C5000008C5000008C5000008C50000081C
:1000B000C5000008C5000008C5000008C50000080C
:1000C0005FF808F180B500AFFEE780B500AFFEE74E
:1000D00080B500AFFEE704207146084202D0EFF37E
:1000E000098001E0EFF3088071464E4A104780B561
:1000F00000AFFEE74C48004780B582B000AF7860A3
:100100003960FEE780B58EB000AF02F0CBFF3A4B0E
:100110007B613A4B3B613A4BFB603B69BB6007E05C
:100120007A69131D7B61BB68191DB96012681A607A
:10013000FA68BB689A42F3D8324B3B62324BFB61A0
:100140003B6ABB6104E0BB691A1DBA6100221A60F8
:10015000FA69BB699A42F6D802F09EFF3A003B1D4D
:100160001100180002F0A4FF284A294BD31A9B1053
:10017000BB6200237B6207E0254B7A6A9200D3586A
:1001800098477B6A01337B62BA6A7B6A9A42F3DCE6
:10019000204A214BD31A9B10BB6200237B6207E0ED
:1001A0001D4B7A6A9200D35898477B6A01337B6271
:1001B000BA6A7B6A9A42F3DC7B683A6811001800DD
:1001C00002F09CFE03007B63144A154BD31A9B106C
:1001D0003B633B6BFB6208E0FB6A5A1E104B9200CC
:1001E000D3589847FB6A013BFB62FB6A002BF3DCA8
:1001F0007B6B180002F06CFFF43300080000002055
:1002000094000020940000205C04002054020008A8
:100210005402000858020008540200085C0200085A
:0C02200058020008F90000080501000861
:10022C00F43300080000002094000020F433000890
:10023C000000000000000000940000205C0400207E
:10024C000000000000000000812C0008512500086F
:10025C0080B582B000AF7860034A7B681A607B6817
:10026C001800BD4602B080BDEC33000880B582B0EA
:10027C0000AF786039607B683A68DA60BD4602B0DE
:10028C0080BD80B582B000AF78600A00BB1C1A80BC
:10029C007B68BA1C12881A81BD4602B080BD80B53D
:1002AC0082B000AF78607B685B691800BD4602B015
:1002BC0080BD80B582B000AF78607B689B68180009
:1002CC00BD4602B080BD80B582B000AF78607B685F
:1002DC00DB681800BD4602B080BD000080B584B05C
:1002EC0000AFF860B9607A603B600F4AFB681A6037
:1002FC00FB68BA689A60FB687A68DA60FB683A68EF
:10030C005A61FB68DA68FB689B685A43FB681A61A0
:10031C00FB6800225A60FB6800221A76FB68180002
:10032C00BD4604B080BDC046DC33000880B582B049
:10033C0000AF78607B689B7ADBB25A1E9341DBB2CC
:10034C001800BD4602B080BD80B582B000AF7860A9
:10035C000A00FB1C1A70FB1C1B78002B03D17B685A
:10036C0000229A7203E07B68FA1C12789A72BD46DE
:10037C0002B080BD80B582B000AF78607B6800228F
:10038C005A607B6800229A60BD4602B080BD80B581
:10039C0088B000AF78600A00FB1C1A70FB1C1B783D
:1003AC00072B01D9002352E00723FB61FB1C1B78B0
:1003BC00BB617B689B88072B1FD87B689B88DAB254
:1003CC0017217B1892001A707B681B681B6A3B61B3
:1003DC007B181B7807229A401300DA433B691340C1
:1003EC003B617B181B78BA699A4013003A69134336
:1003FC003B617B681B683A691A627B689B88072B98
:10040C0024D97B689B880F2B20D87B689B88083B62
:10041C00DAB20F217B1892001A707B681B685B6A3A
:10042C00BB607B181B7807229A401300DA43BB6829
:10043C001340BB607B181B78BA699A401300BA68EA
:10044C001343BB607B681B68BA685A6201231800AF
:10045C00BD4608B080BD000090B583B000AF02006F
:10046C003960FB1D1A70FB1D1B785BB2002B36DA52
:10047C00314AFB1D1B785BB219000F230B40083B64
:10048C009B0806339B00D31804331B68FA1D1278A3
:10049C0052B2110003220A40D200FF2191400A00FF
:1004AC00D2431A4011003B689B01FF221A40FB1DEE
:1004BC001B785BB2180003230340DB009A401E48F4
:1004CC00FB1D1B785BB21C000F232340083B9B08D1
:1004DC000A4306339B00C31804331A6029E0174AF9
:1004EC00FB1D1B785BB29B08C0339B009B58FA1D0D
:1004FC00127852B2110003220A40D200FF2191401F
:10050C000A00D2431A4011003B689B01FF221A409B
:10051C00FB1D1B785BB2180003230340DB009A40E1
:10052C000648FB1D1B785BB29B080A43C0339B003B
:10053C001A50BD4603B090BD00ED00E000E100E0B4
:10054C0080B582B000AF0200FB1D1A70FB1D1B783A
:10055C005BB21F221A40044B012191400A001A6021
:10056C00BD4602B080BDC04600E100E080B582B05F
:10057C0000AF7860034A7B681A607B681800BD4640
:10058C0002B080BDDC33000880B582B000AF78606B
:10059C007B6800225A827B6800221A757B681800DF
:1005AC00BD4602B080BD80B582B000AF78607B687C
:1005BC005B681800BD4602B080BD80B584B000AF4A
:1005CC00F860B9607A603B60FB68BA681A60FB68D7
:1005DC007A685A60FB683A689A60FB6800221A7461
:1005EC00BD4604B080BD80B584B000AFF860B96082
:1005FC007A603B60FB68BA685A60FB683A689A603C
:10060C00FB687A68DA60FB68BA691A61FB6818697A
:10061C00FB685968FB68DA68FB689B68FFF7CDFFDD
:10062C00FB6800221A70BD4604B080BD80B584B052
:10063C0000AF78600023FB607B681B69FA689A4204
:10064C000AD27B685A697B685B68D31820221A70BF
:10065C00FB680133FB60EFE7BD4604B080BD80B59D
:10066C0084B000AFF860B9607A603B60FB68002230
:10067C00DA60FB6800221A74FB6800225A74FB686B
:10068C00BA681A60FB687A685A60FB683A689A60C4
:10069C00FB681800BD4604B080BD80B582B000AFC9
:1006AC0078600A00FB1C1A707B68FA1C1278DA71ED
:1006BC00BD4602B080BD80B582B000AF78603960B5
:1006CC007B6800221A717B6800225A717B683A6839
:1006DC001A607B681800BD4602B080BD80B582B040
:1006EC0000AF78607B681B7A1800BD4602B080BDF5
:1006FC0080B584B000AFF860B9607A603B60FB688D
:10070C0002221A74FB6802225A74FB6802229A7441
:10071C00FB68BA681A60FB687A685A60FB683A68CA
:10072C009A60FB68BA69DA60FB681800BD4604B0D1
:10073C0080BD80B582B000AF78607B681B7B1800F1
:10074C00BD4602B080BD000080B582B000AF7860BD
:10075C00034A7B681A607B681800BD4602B080BDF6
:10076C009433000880B582B000AF786039607B6844
:10077C001800FFF7E9FF074A7B681A607B680222C2
:10078C001A727B683A685A607B681800BD4602B0E2
:10079C0080BDC046AC33000880B584B000AFF860B3
:1007AC00B9607A60FB681800FFF7CEFF084AFB6857
:1007BC001A60FB6802221A73FB68BA685A60FB68FD
:1007CC007A689A60FB681800BD4604B080BDC046CC
:1007DC00C433000880B582B000AF7860034A7B68F0
:1007EC001A607B681800BD4602B080BD94330008C7
:1007FC0080B582B000AF7860054A7B681A607B6870
:10080C001800FFF7E7FF7B681800BD4602B080BDFB
:10081C00C433000880B582B000AF7860054A7B68AD
:10082C001A607B681800FFF7D5FF7B681800BD467F
:10083C0002B080BDAC33000880B582B000AF7860E8
:10084C007B6800221A607B6800225A607B68002259
:10085C001A817B6800229A727B681800BD4602B030
:10086C0080BD80B582B000AF78607B681B681B8A46
:10087C009BB21A007B689B881A411300012213401B
:10088C005A1E9341DBB21800BD4602B080BD80B544
:10089C0082B000AF78607B685B6A1800FFF7E1FFFD
:1008AC0003001A0001235340DBB2002B01D00323B9
:1008BC002AE07B689B6A1800FFF7D3FF03001A003D
:1008CC0001235340DBB2002B01D001231CE07B68D9
:1008DC00DB691800FFF7C5FF03001A000123534022
:1008EC00DBB2002B01D002230EE07B681B6A1800E0
:1008FC00FFF7B7FF03001A0001235340DBB2002BB4
:10090C0001D0042300E000231800BD4602B080BDD6
:10091C0080B582B000AF78607B681800FFF7B7FF36
:10092C0003001800BD4602B080BD80B582B000AF98
:10093C0078607B689B88103301229A407B681B6827
:10094C009A61BD4602B080BD80B582B000AF7860C0
:10095C007B689B881A00012393401A007B681B68F4
:10096C009A61BD4602B080BD80B582B000AF7860A0
:10097C000A00FB1C1A70FB1C1B78002B04D07B6834
:10098C001800FFF7E1FF03E07B681800FFF7CDFFCD
:10099C00BD4602B080BD80B582B000AF78600A0061
:1009AC00FB1C1A707B685A69FB1C1B781900100021
:1009BC00FFF7DAFFBD4602B080BD80B584B000AF52
:1009CC00786008001100FB1C021C1A70BB1C0A1C6E
:1009DC001A70FB1C1B78002B0AD17B68BA1C12788E
:1009EC001A747B681B68FB607B685B68BB6009E002
:1009FC007B68BA1C12785A747B689B68FB607B68B6
:100A0C00DB68BB60BB1C1B78002B02D0012B09D010
:100A1C0011E0BB681800FFF788FFFB681800FFF7B0
:100A2C0093FF10E0FB681800FFF77FFFBB6818000E
:100A3C00FFF78AFF07E0FB681800FFF776FFBB683B
:100A4C001800FFF772FFBD4604B080BD80B582B0C0
:100A5C0000AF78600A00FB1C1A70FB1C1A787B68CC
:100A6C0001211800FFF7A9FFBD4602B080BD80B57B
:100A7C0082B000AF78600A00FB1C1A70FB1C1A785D
:100A8C007B6800211800FFF798FFBD4602B080BDBF
:100A9C0080B582B000AF78600A00FB1C1A707B68CE
:100AAC00FA1C12789A747B689B7C012B18D002DCA0
:100ABC00002B05D04EE0032B22D0042B35D049E07F
:100ACC007B6802211800FFF7D2FF7B680121180018
:100ADC00FFF7BCFF7B6800211800FFF7C8FF43E05D
:100AEC007B6802211800FFF7B1FF7B680121180019
:100AFC00FFF7BDFF7B6800211800FFF7A7FF33E06D
:100B0C007B6802211800FFF7A1FF7B680221180007
:100B1C00FFF7ADFF7B6800211800FFF797FF7B689C
:100B2C0000211800FFF7A3FF1EE07B6802211800CC
:100B3C00FFF78CFF7B6802211800FFF798FF7B689A
:100B4C0001211800FFF782FF7B6801211800FFF7D5
:100B5C008EFF09E07B6802211800FFF777FF7B68A6
:100B6C0002211800FFF783FFBD4602B080BD80B59F
:100B7C0082B000AF78600A00FB1C1A707B68FA1C0C
:100B8C0012781A727B681B7A012B0FD002DC002BB7
:100B9C0005D020E0032B10D0042B15D01BE07B6874
:100BAC005B6800211800FFF773FF1AE07B685B6835
:100BBC0001211800FFF76CFF13E07B685B680321D1
:100BCC001800FFF765FF0CE07B685B6804211800D8
:100BDC00FFF75EFF05E07B685B6802211800FFF7FA
:100BEC0057FFBD4602B080BD80B582B000AF7860C3
:100BFC000A00FB1C1A707B68FA1C12781A737B684B
:100C0C001B7B002B02D0012B0BD015E07B685B68A3
:100C1C001800FFF78AFE7B689B681800FFF794FEAC
:100C2C0014E07B689B681800FFF77FFE7B685B68AD
:100C3C001800FFF789FE09E07B685B681800FFF776
:100C4C0074FE7B689B681800FFF76FFEBD4602B010
:100C5C0080BD80B584B000AF78607B681B689B88D2
:100C6C009BB21A007B689B881A411300FB60FB68DF
:100C7C00DBB201221340DBB21800BD4604B080BDCC
:100C8C0080B584B000AF78607B681B689A687B681D
:100C9C009B885B00DA401300FB60FB68DBB203222D
:100CAC001340DBB21800BD4604B080BD80B584B0E3
:100CBC0000AF78607B681B68DA687B689B885B0098
:100CCC00DA401300FB60FB68DBB203221340DBB29B
:100CDC001800BD4604B080BD80B584B000AF78600C
:100CEC007B681B681A687B689B885B00DA40130082
:100CFC00FB60FB68DBB203221340DBB21800BD467D
:100D0C0004B080BD80B582B000AF78600A00FB1CD7
:100D1C001A707B68FA1C12781A76BD4602B080BD38
:100D2C0080B584B000AFF860B9607A60FB68DB68AE
:100D3C007A689A4201D300230FE0FB689B68BA687B
:100D4C009A4201D3002308E0FB689B687A685A43F7
:100D5C00BB68D218FB685A6001231800BD4604B06A
:100D6C0080BD80B582B000AF78607B685B685A1C30
:100D7C007B685A607B6859687B681A6900239142CA
:100D8C005B41DBB2002B02D07B6800225A60BD466F
:100D9C0002B080BD80B582B000AF78607B685A68C5
:100DAC007B681B691900100002F092FA0B001A0004
:100DBC007B685A60BD4602B080BD80B582B000AF82
:100DCC0078600A00FB1C1A707B681800FFF7E2FFC2
:100DDC007B685A697B685B68D318FA1C12781A70A6
:100DEC007B681800FFF7BDFFBD4602B080BD80B523
:100DFC0082B000AF786039603B681B785BB2002B27
:100E0C000AD03B685A1C3A6000229A567B68110043
:100E1C001800FFF7D2FFEFE7BD4602B080BD80B5EA
:100E2C0084B000AFF860B9607A603B607A68B968EA
:100E3C00FB681800FFF774FF3A68FB681100180094
:100E4C00FFF7D5FFBD4604B080BD80B582B000AFC2
:100E5C0078607B685A687B689B68D31A5A42534106
:100E6C00DBB21800BD4602B080BD80B582B000AFC9
:100E7C0078607B681800FFF7E8FF03001A00012375
:100E8C005340DBB21800BD4602B080BD80B500AF48
:100E9C00024B1B681800BD4680BDC0462C030020C9
:100EAC0080B584B000AF7860FFF7F0FF0300FB6003
:100EBC00FFF7ECFF0200FB68D21A7B689A429B4159
:100ECC005B42DBB2002BF3D1BD4604B080BD000009
:100EDC0080B582B000AF0200FB1D1A70FB1D1B78A1
:100EEC00042B0CD89A00074BD3181B689F46FEE7BF
:100EFC00054B01221A7002E0034B01221A70BD4609
:100F0C0002B080BDF8320008BC00002080B582B071
:100F1C0000AF78600A00FB1C1A707B681B689B880A
:100F2C009AB27B689B88190001238B409BB2DB43F0
:100F3C0099B27B681B680A4092B29A807B681B68E6
:100F4C009B8899B2FB1C1B787A68928893409AB262
:100F5C007B681B680A4392B29A80BD4602B080BD82
:100F6C0080B582B000AF78600A00FB1C1A707B68F9
:100F7C001B68DA687B689B885B00032199400B0037
:100F8C00D9437B681B680A40DA607B681B68D968A8
:100F9C00FB1C1A787B689B885B009A407B681B68FB
:100FAC000A43DA60BD4602B080BD80B582B000AFA6
:100FBC0078600A00FB1C1A707B681B689A687B6857
:100FCC009B885B00032199400B00D9437B681B680D
:100FDC000A409A607B681B689968FB1C1B781A0096
:100FEC007B689B885B009A407B681B680A439A600D
:100FFC00BD4602B080BD80B582B000AF78600A00FB
:10100C00FB1C1A707B681B681A687B689B885B00EA
:10101C00032199400B00D9437B681B680A401A6076
:10102C007B681B681968FB1C1A787B689B885B00C3
:10103C009A407B681B680A431A60BD4602B080BDAB
:10104C0080B582B000AF786039603B681800FFF75C
:10105C0043FE03001A007B6811001800FFF7CBFF5A
:10106C003B681800FFF7F5FD03001A007B681100C0
:10107C001800FFF74BFF3B681800FFF717FE030043
:10108C001A007B6811001800FFF76AFF3B68180014
:10109C00FFF7F6FD03001A007B6811001800FFF73C
:1010AC0084FFBD4602B080BD90B583B000AF7860C0
:1010BC000C0010001900FB1C221C1A70BB1C021C1B
:1010CC001A707B1C0A1C1A70FB1C1A787B681100A6
:1010DC001800FFF790FFBB1C1A787B6811001800F2
:1010EC00FFF714FF7B1C1A787B6811001800FFF7C0
:1010FC0037FF1823FB181A787B6811001800FFF7CC
:10110C0054FFBD4603B090BD80B586B002AF786089
:10111C00786800230093002300220121FFF7C4FF0D
:10112C007B6808337A6811001800FFF789FF7B6829
:10113C0010337A6811001800FFF782FF7B681833B0
:10114C007A6811001800FFF77BFF7B6820337A6800
:10115C0011001800FFF774FF7B6828337A681100C0
:10116C001800FFF76DFF7B6830337A6811001800A8
:10117C00FFF766FF7B6838337A6811001800FFF7B9
:10118C005FFF7B6840337A6811001800FFF758FF47
:10119C007B6848337A6811001800FFF751FF7B68B1
:1011AC005033180002230093002300220121FFF783
:1011BC007BFF7B6858331A007B6850331900100092
:1011CC00FFF73EFF7B6860331A007B6850331900D1
:1011DC001000FFF735FF7B6868331A007B685033CB
:1011EC0019001000FFF72CFF7B6870331A007B6826
:1011FC00503319001000FFF723FF7B6878331A0077
:10120C007B68503319001000FFF71AFF7B6880339E
:10121C001A007B68503319001000FFF711FF7B6830
:10122C0088331A007B68503319001000FFF708FF51
:10123C007B689033180000230093012301220021C6
:10124C00FFF732FF7B6898331A007B6890331900E4
:10125C001000FFF7F5FE7B68A0331A007B68903313
:10126C0019001000FFF7ECFE7B68A8331A007B68AE
:10127C00903319001000FFF7E3FE7B68B0331A00BF
:10128C007B68903319001000FFF7DAFE7B68B833E7
:10129C001A007B68903319001000FFF7D1FE7B68B1
:1012AC00C0331A007B68903319001000FFF7C8FE9A
:1012BC007B68C8331A007B68903319001000FFF765
:1012CC00BFFE7B68D0331A007B6890331900100086
:1012DC00FFF7B6FE7B68D8331A007B689033190091
:1012EC001000FFF7ADFE7B68E0331A007B6890338B
:1012FC0019001000FFF7A4FE7B68E8331A007B6826
:10130C00903319001000FFF79BFE7B68F0331A0036
:10131C007B68903319001000FFF792FE7B68F8335E
:10132C001A007B68903319001000FFF789FE7B6868
:10133C005A1CFF327B68903319001000FFF780FEB7
:10134C007B680933FF331A007B6890331900100057
:10135C00FFF776FE064B5A69054BFC21C9030A437D
:10136C005A61034B5B69FB60FB68BD4604B080BDF2
:10137C000010024080B584B000AFF860B960BB1DAE
:10138C001A80FB68BA681A60FB68BA1D12889A80CA
:10139C00FB6803211800FFF72EFEFB6800211800E4
:1013AC00FFF7DEFDFB6800211800FFF7FEFDFB6870
:1013BC0001211800FFF7AAFDFB681800BD4604B018
:1013CC0080BD80B586B002AFF860B9601900FB1D16
:1013DC001A70BB1D0A1C1A70F868FB1D1B789AB298
:1013EC00BB681900FFF7C6FFFB68BA1D12781A72AA
:1013FC00FB681822BA181278DA71FB6800229A710D
:10140C00F86800230093002300220121FFF74CFE13
:10141C00FB681800BD4604B080BD000080B584B0E8
:10142C0002AF786078689023DB0500221900FFF783
:10143C00A1FF7B68083318009023DB0501221900FB
:10144C00FFF798FF7B68103318009023DB0502220E
:10145C001900FFF78FFF7B68183318009023DB050A
:10146C0003221900FFF786FF7B682033A44904226E
:10147C001800FFF77FFF7B68283318009023DB05EB
:10148C0008221900FFF776FF7B6830339C4906224F
:10149C001800FFF76FFF7B68383399490922180051
:1014AC00FFF768FF7B684033954907221800FFF768
:1014BC0061FF7B684833924908221800FFF75AFFF6
:1014CC007B6850338F490F221800FFF753FF7B685E
:1014DC0058338C490E221800FFF74CFF7B686033A1
:1014EC0088490D221800FFF745FF7B686833854952
:1014FC000C221800FFF73EFF7B68703381490B22EA
:10150C001800FFF737FF7B6878337E490A221800F2
:10151C00FFF730FF7B6880337A4909221800FFF708
:10152C0029FF7B688833774908221800FFF722FFD0
:10153C007B68903318009023DB0507221900FFF716
:10154C0019FF7B689833704900221800FFF712FFCF
:10155C007B68A0336C4901221800FFF70BFF7B68F6
:10156C00A833694902221800FFF704FF7B68B033E7
:10157C0018009023DB0504221900FFF7FBFE7B68A3
:10158C00B83318009023DB0505221900FFF7F2FE93
:10159C007B68C03318009023DB0506221900FFF787
:1015AC00E9FE7B68C833594907221800FFF7E2FEB1
:1015BC007B68D033554908221800FFF7DBFE7B68A7
:1015CC00D833524909221800FFF7D4FE7B68E03368
:1015DC004E490A221800FFF7CDFE7B68E8334B49D1
:1015EC000B221800FFF7C6FE7B68F03347490C222C
:1015FC001800FFF7BFFE7B68F83344490D22180032
:10160C00FFF7B8FE7B680133FF3340490E22180008
:10161C00FFF7B0FE7B680933FF333C490F221800FB
:10162C00FFF7A8FE7B681133FF33354905221800FC
:10163C00FFF7A0FE7B681933FF33344902221800F0
:10164C00FFF798FE7B682133FF3318009023DB05EE
:10165C000C221900FFF78EFE7B682933FF332A49D1
:10166C0006221800FFF786FE7B683133FF332649CC
:10167C0007221800FFF77EFE7B683933FF332149C0
:10168C0006221800FFF776FE7B684133FF331D49B5
:10169C0005221800FFF76EFE7B684933FF331949AA
:1016AC0004221800FFF766FE7B685133FF3316499E
:1016BC000A221800FFF75EFE7B685933FF3312498C
:1016CC000B221800FFF756FE7B686133FF331800BE
:1016DC000F490023009300230222FFF772FE7B6860
:1016EC006D33FF3318000A490023009300230322B3
:1016FC00FFF767FE7B681800BD4602B080BDC04690
:10170C0000080048000C0048000400480010004885
:10171C000014004890B583B000AF02003960FB1D87
:10172C001A70FB1D1B785BB2002B36DA314AFB1D9D
:10173C001B785BB219000F230B40083B9B08063348
:10174C009B00D31804331B68FA1D127852B2110097
:10175C0003220A40D200FF2191400A00D2431A40D2
:10176C0011003B689B01FF221A40FB1D1B785BB2EA
:10177C00180003230340DB009A401E48FB1D1B7816
:10178C005BB21C000F232340083B9B080A43063323
:10179C009B00C31804331A6029E0174AFB1D1B7801
:1017AC005BB29B08C0339B009B58FA1D127852B257
:1017BC00110003220A40D200FF2191400A00D243BB
:1017CC001A4011003B689B01FF221A40FB1D1B783D
:1017DC005BB2180003230340DB009A400648FB1D54
:1017EC001B785BB29B080A43C0339B001A50BD4662
:1017FC0003B090BD00ED00E000E100E080B582B0E8
:10180C0000AF78607B68013B0C4A934201D90123FD
:10181C0010E00B4B7A68013A5A6001235B420321BA
:10182C001800FFF777FF064B00229A60044B072243
:10183C001A6000231800BD4602B080BDFFFFFF00F8
:10184C0010E000E080B582B000AF78607B680122C8
:10185C001A707B6800225A607B6800229A607B6851
:10186C000022DA607B6800221A617B681800BD4692
:10187C0002B080BD80B500AFBFF34F8F034B044A5D
:10188C00DA60BFF34F8FC046FDE7C04600ED00E0C5
:10189C000400FA0580B582B000AF78607B68180050
:1018AC00FEF7D6FC7B681C21180001F025FC7B6838
:1018BC001800BD4602B080BD80B582B000AF786024
:1018CC007B681800FEF752FE7B681C21180001F0A3
:1018DC0013FC7B681800BD4602B080BD80B582B099
:1018EC0000AF78607B681800FEF782FF7B681021E0
:1018FC00180001F001FC7B681800BD4602B080BDE9
:10190C0080B582B000AF78607B681800FEF782FF6C
:10191C007B680C21180001F0EFFB7B681800BD46BA
:10192C0002B080BD80B500AF034B1900002000F061
:10193C006DFDBD4680BDC046FFFF000080B500AF09
:10194C00034B1900012000F061FDBD4680BDC0466F
:10195C00FFFF000080B582B000AF7860044A054BF1
:10196C0011001800FEF782FCBD4602B080BDC046D7
:10197C00092300084004002080B582B000AF7860D5
:10198C000E4A7B681A607B6800225A607B680022D2
:10199C009A607B680022DA607B6800221A617B689F
:1019AC0000225A617B6800221A767B681800FFF7C8
:1019BC00D1FF7B681800BD4602B080BDEC33000837
:1019CC0080B500AF034B1900012000F059FDBD4656
:1019DC0080BDC046FFFF000080B586B002AF7860C6
:1019EC004A4BDA69494B802189030A43DA61474B38
:1019FC00DA6980239B031340FB60FB687B681B68E0
:101A0C001B681A687B681B681B6801218A431A6073
:101A1C007B681B681B681B68012213405A1E93418C
:101A2C00DBB2002BF4D17B681B689868032300930E
:101A3C00012301220221FFF737FB7B681B685868E2
:101A4C0003230093012301220221FFF72DFB7B6866
:101A5C001B689B6801211800FEF799FC7B681B68CA
:101A6C005B6801211800FEF792FC7B681B681B6801
:101A7C001A687B681B681B68802149010A431A603D
:101A8C007B681B681B681B68214A1A407B681B68B3
:101A9C001B68802149000A431A6003211720FEF7B6
:101AAC00DBFC1720FEF74CFD7B681B681B681A6873
:101ABC007B681B681B6817490A401A607B681B68A7
:101ACC001B68154A1A617B681B681B681A687B685F
:101ADC001B681B6801210A431A607B681B681B6822
:101AEC001B68012213405A425341DBB2002BF4D144
:101AFC007B680A4A5A607B6800211800FEF724FCB8
:101B0C0001231800BD4604B080BDC0460010024041
:101B1C00FFF0FFFFFFFFFDFF271A10609803002066
:101B2C0080B582B000AF786039607B683A681A6023
:101B3C007B681B681B68002B01D1002319E03B68F4
:101B4C005B68002B01D1002313E03B689B68002BE2
:101B5C0001D100230DE07B681B68DB68002B03D1EF
:101B6C007B681B686422DA607B681800FFF734FF1F
:101B7C0003001800BD4602B080BD80B586B000AF32
:101B8C00F860B960FB1D1A70BB685A1CBA60002261
:101B9C009A5617217B181A707B181B78002B0DD1C5
:101BAC00FB1D1B78002B07D0FB685A1CFA60172210
:101BBC00BA18127852B21A70FB6808E0FB685A1C0B
:101BCC00FA601722BA18127852B21A70DCE71800B1
:101BDC00BD4606B080BD90B585B000AF7860396069
:101BEC000B23FB1830221A700A23FB1823221A70BD
:101BFC007B68FB6002E0FB680133FB60FB681B78D1
:101C0C005BB2002BF7D143E0FB68013BFB60FB6848
:101C1C001B785BB20B22BA18127852B29A4208D0D7
:101C2C00FB681B785BB20A22BA18127852B29A423D
:101C3C002ED13B680A21180001F04AFB0B001A0058
:101C4C0009243B191A703B680A21180001F0BAFAF2
:101C5C0003003B603B191B78002B0FD13B68002B1A
:101C6C000CD1FB681B785BB20A22BA18127852B2FC
:101C7C009A420CD1FB6820221A7009E00923FB1848
:101C8C001B783033DBB25AB2FB681A7000E0C046E6
:101C9C00FA687B689A42B7D83B685A425341DBB228
:101CAC001800BD4605B090BD80B584B000AFF8609B
:101CBC00B9607A60F9687B6801221800FFF75DFF54
:101CCC00BA687B6811001800FFF785FF0300180045
:101CDC00BD4604B080BDF0B59FB000AFF860B960F0
:101CEC007A60BB68180001F063FA02006323934228
:101CFC009B415B42DBB2002B01D0002312E0772525
:101D0C007C191026BA197968BB681800FFF7CCFF4C
:101D1C0003002370BA19FB6811001800FFF767F86D
:101D2C007B191B781800BD461FB0F0BD80B586B07E
:101D3C0000AFF8607A603B600B203B180A1C1A70ED
:101D4C00FB6800225A74FB683A1812781A74FB6804
:101D5C007A68DA60FB683A685A60184B1B68002B8B
:101D6C000AD1164BFA681A60144B1B6800229A6051
:101D7C00FB6802225A741BE0104B1B687B617B6969
:101D8C009B68002B07D07A69FB689A4210D07B695C
:101D9C009B687B61F3E77A69FB689A4208D0FB6821
:101DAC0000229A607B69FA689A60FB6802225A7476
:101DBC00FB681800BD4606B080BDC046300300204D
:101DCC0080B582B000AF144B1B687B607B68002B26
:101DDC001ED07B685B7C012B16D17B681B7C012B96
:101DEC000CD0022B10D17B685A687B681A607B6818
:101DFC0002225A747B68DB68984705E07B680022F6
:101E0C005A747B68DB6898477B689B687B60DDE76E
:101E1C00BD4602B080BDC0463003002080B584B002
:101E2C0000AF7860164B1A687B68D218144B1A6096
:101E3C00144B1B68FB60FB68002B1DD0FB685B7CA4
:101E4C00022B15D1FB681B687A689A429B415B4256
:101E5C00DBB2002B06D0FB681A687B68D21AFB68D1
:101E6C001A6005E0FB6801225A74FB6800221A60B4
:101E7C00FB689B68FB60DEE7BD4604B080BDC046D6
:101E8C002C0300203003002080B500AF0120FFF7A9
:101E9C00C5FFBD4680BD80B584B000AF78607B685F
:101EAC009B68FB607B685B68BB60BA68FB689A42A6
:101EBC0003D3BA68FB68D31A05E07B681A68FB6821
:101ECC00D21ABB68D3181800BD4604B080BD80B5CB
:101EDC0086B000AF78607B689B687B617B685B68D1
:101EEC003B617A693B699A4202D17B689B8A17E015
:101EFC007B68DA687B69591C7961D2180F23FB184F
:101F0C0012781A707B681B687A699A4201D27A69D6
:101F1C0000E000227B689A600F23FB181B789BB2B1
:101F2C001800BD4606B080BD80B584B000AF7860A7
:101F3C007B6804331800FEF798FF031E11D07B68F2
:101F4C0004331800FFF7C3FF03001A000F217B189E
:101F5C001A707B181B78002BEAD00F23FB181B7808
:101F6C0000E000231800BD4604B080BD80B582B0EF
:101F7C0000AF78607B681800FFF7D6FF03001800ED
:101F8C00BD4602B080BD80B584B000AF78600A0059
:101F9C00FB1C1A707B685B68FB607B689B68BB6092
:101FAC00FB680133BA689A4201D100231EE0BB687A
:101FBC00002B07D17B681B68013BFA689A4201D160
:101FCC00002313E07B68DA68FB68591CF960D318AE
:101FDC00FA1C12781A707B681B68FA689A4201D254
:101FEC00FA6800E000227B685A6001231800BD46A5
:101FFC0004B080BD80B588B000AFF860B9607A607D
:10200C00FB681800FEF755F90300BB61FB6818006C
:10201C00FEF759F90100BA6800238A425B41DBB232
:10202C00002B01D000231DE0BB68BA6953437B61D0
:10203C000023FB61FA69BB699A4212D2FB68180053
:10204C00FEF72DF901007A69FB69D318CB181A78C1
:10205C007B6811001800FFF796FFFB690133FB61E9
:10206C00E8E701231800BD4608B080BD80B584B0F8
:10207C0000AF786039603B68002B01D1002323E06E
:10208C000F23FB1801221A703B681800FEF7EDFEB7
:10209C00031E16D03B681800FFF719FF0300DAB2D5
:1020AC007B6811001800FFF76EFF03001A00012374
:1020BC005340DBB2002BE7D00F23FB1800221A7021
:1020CC00E2E70F23FB181B781800BD4604B080BD57
:1020DC0080B584B000AF786039607B681800FEF77B
:1020EC0025F9031E01D0002378E07B68012118003C
:1020FC00FEF72AF97B685B681800FEF73BF97B68F2
:10210C005B683A6811001800FFF7B0FF7B681B682A
:10211C001B685A687B681B681B6832490A405A6006
:10212C007B681B681B685A687B681B681B682E4998
:10213C000A405A607B681B681B685B689B0A9A02A2
:10214C007B681B899BB219007B681B681B680A4360
:10215C005A607B681B681B685A687B681B681B6825
:10216C0022490A405A607B681B681B685A687B6866
:10217C001B681B68802189040A435A607B685B6872
:10218C001800FFF788FE0300FB60FB68FF2B01D9EA
:10219C00FF23FB607B681B681B685B68144A134059
:1021AC001900FB681A047B681B681B680A435A6099
:1021BC007B681B681B681A687B681B681B6822217C
:1021CC000A431A607B681B681B685A687B681B682B
:1021DC001B68802189010A435A6001231800BD46FF
:1021EC0004B080BDFFFBFFFFFFF7FFFFFFEFFFFF1A
:1021FC00FFFF00FF80B582B000AF786008001100CF
:10220C00FB1C021C1A70BB1C0A1C1A707B689B6896
:10221C001800FEF7AFF87B689A68FB1C1B78002B44
:10222C0001D0002300E0402319001000FFF7ABFEA3
:10223C007B689A68BB1C1B7819001000FFF7A3FE83
:10224C007B68DA687B689B6819001000FFF740FF19
:10225C0003001800BD4602B080BD80B582B000AF4F
:10226C0078600A00FB1C1A70FB1C1A787B68012131
:10227C001800FFF7BFFF03001800BD4602B080BD79
:10228C0080B582B000AF786039603A687B68110025
:10229C001800FFF71DFF1800BD4602B080BD80B5C9
:1022AC0082B000AF786039607B689B681800FEF7DD
:1022BC0061F87B689B6840211800FFF764FE7B681F
:1022CC0058687B689A683B681900FFF793FE030017
:1022DC001A0001235340DBB2002B01D0002308E08D
:1022EC007B68DA687B689B6819001000FFF7C8FFF1
:1022FC0003001800BD4602B080BD000080B582B05E
:10230C0000AF78607B681B7E082B11D89A000A4BB3
:10231C00D3181B689F467B6801211800FFF7BFFF8D
:10232C0006E07B6802211800FFF7B9FF00E0C04609
:10233C00BD4602B080BDC0460C33000880B582B0EB
:10234C0000AF78600A00FB1C1A70FB1C1B78002B7A
:10235C0007D07B681A1DFB1C1B7819001000FFF7B7
:10236C0012FEBD4602B080BDB0B584B000AF78603F
:10237C000F257C197B681800FEF7CAFA030023703E
:10238C000C4B1B787A1912789A4210D0094B0F21FA
:10239C007A1812781A707B181B78002B07D00F2331
:1023AC00FB181A787B6811001800FFF7C7FFBD46B1
:1023BC0004B0B0BDD100002080B500AF024B1800B6
:1023CC00FFF7D2FFBD4680BD8801002080B584B0E8
:1023DC0000AFF860B9607A60FB680B4A1A61FB6861
:1023EC00094A9A82FB687A681A60FB68BA68DA60F4
:1023FC00FB6800229A60FB6800225A60FB68180098
:10240C00BD4604B080BDC04600FFFFFF80B582B062
:10241C0000AF786039607B68012B16D13B68124A9B
:10242C00934212D1FA235B00104800220221FFF7DD
:10243C007DFC0F4B0F4802221021FDF74FFF0E4978
:10244C000E4B25221800FFF7C1FF7B68002B07D12C
:10245C003B68054A934203D1064B1800FEF786F8F9
:10246C00BD4602B080BDC046FFFF00004004002006
:10247C00FC03002024040020BC030020E403002003
:10248C0080B582B000AF786039607B68012B0DD1CC
:10249C003B68084A934209D1074B1800FEF7CCF968
:1024AC000649074B64221800FFF790FFBD4602B0A7
:1024BC0080BDC046FFFF0000B003002034030020A5
:1024CC009803002080B586B000AFF860B9607A60E0
:1024DC003B60FB680433F96804221800FFF776FFB1
:1024EC00FB68BA68DA61FB687A681A62FB683A685A
:1024FC005A62FB683A6A9A621623FB1800221A8009
:10250C001623FB181B88032B0BD816203B181B8893
:10251C00FA680021D1543B181A883B1801321A80F2
:10252C00EEE7FB681800BD4606B080BD80B500AF75
:10253C00034B1900002000F017F8BD4680BDC046C3
:10254C00FFFF000010B5FFF7F1FFFFF7EBF910BD2F
:10255C0080B500AF034B1900012000F005F8BD4613
:10256C0080BDC046FFFF000090B585B002AF78601B
:10257C0039607B68012B5BD13B68384A934257D159
:10258C00374B1800BC235B001A00002100F0A6FE9C
:10259C00334B1800FEF742FF324C334A3349344870
:1025AC00344B00932300FFF78DFF334C334A3449EF
:1025BC003448354B00932300FEF79AF8334C344AD9
:1025CC0034493548354B00932300FEF791F82D4ADA
:1025DC00334B11001800FEF76EF82F4A314B1100E7
:1025EC001800FEF7BFF8304A3049314B1800FEF79F
:1025FC00D3F8304B1800FEF71FF92F4B1800FFF7DC
:10260C00BBF9274B2A4A27492C48FEF728F82C4BB4
:10261C00180018231A00002100F060FE284B180047
:10262C00FDF7B2FF274A28480A230221FFF77EFB59
:10263C007B68002B0FD13B68084A93420BD11E4B91
:10264C001800FDF705FE1A4B1800FEF7D1F8154BD4
:10265C001800FEF7DFF8BD4603B090BDFFFF000089
:10266C00B4010020540200204C020020440200203F
:10267C00880100205C0200200C02002024020020B3
:10268C0004020020740100202C0200201C020020F7
:10269C003402002014020020600100203C020020C3
:1026AC00580100204C010020E4010020EC01002026
:1026BC003C0100203001002014010020000100200A
:1026CC00E8000020C5230008D400002080B582B0AB
:1026DC0000AF78600A00FB1C1A7001231800BD467D
:1026EC0002B080BD80B582B000AF78600A00BB1C20
:1026FC001A807B681B7C002B14D17B689B680022A2
:10270C0000211800FEF70CFB7B689B6807494D22E3
:10271C001800FFF7E0FA7B689B6800220121180083
:10272C00FEF7FEFABD4602B080BDC046303300084D
:10273C0080B584B000AF78607B6800221A750E21DA
:10274C007B1801221A807B181A887B6811001800EC
:10275C00FFF7C8FFBD4604B080BD80B582B000AFA6
:10276C0078600A00FB1C1A707B68FA1C12781A74C9
:10277C007B6800221A75C0467B681800FFF7D8FFEB
:10278C00BD4602B080BD0000B0B584B000AF78602B
:10279C007B685B680F257C191800FFF7E7FB0300CB
:1027AC0023707B191B78002B19D17B68DB685A1DB1
:1027BC007B68DA607B68DA68EC23DB009A4247D9E5
:1027CC000C217B1801221A807B181A887B68110057
:1027DC001800FFF787FF7B680022DA603FE07B6818
:1027EC000022DA607B681B7D002B08D00F23FB18BE
:1027FC001A787B6811001800FFF768FF2FE0194B5F
:10280C001B78002B08D00F23FB181B78022B03D14D
:10281C00144B00221A7022E00F23FB181B78013B8B
:10282C005A425341DAB20F4B1A707B681B7C002B57
:10283C0015D10F23FB181B78032B0BD0042B0BD0BB
:10284C00012B0BD07B6800211800FFF786FF06E0F8
:10285C00C04604E0C04602E0C04600E0C046BD46AB
:10286C0004B0B0BDD000002080B582B000AF78605D
:10287C007B681B691800FFF787FFBD4602B080BD5F
:10288C0080B500AF024B1800FFF7EEFFBD4680BDD0
:10289C00A800002080B500AF034B1900012000F008
:1028AC0005F8BD4680BDC046FFFF000080B582B074
:1028BC0000AF786039607B68012B0FD13B68094A07
:1028CC0093420BD10849094B00221800FEF752FD28
:1028DC000549074B01221800FEF74CFDBD4602B01E
:1028EC0080BDC046FFFF000000080048C800002063
:1028FC00C000002080B582B000AF78607B68180003
:10290C00FEF7CEFABD4602B080BD80B582B000AFF6
:10291C00786039603B681800FFF7ECFFBD4602B0E9
:10292C0080BD000080B586B002AFF860B9607A60F7
:10293C003B60FB687A681A61FB683A685A61FB680D
:10294C00186902230093002300220121FEF7ACFB3F
:10295C00FB685A69FB681B6919001000FEF770FBD5
:10296C00FB68434A5A60FB68424A9A60FB68002243
:10297C001A76FB68BA68DA60FB68DB683E211800DF
:10298C00FDF77FFCFB6800211800FEF704F8FB68DC
:10299C0032211800FFF7B9FFFB6801211800FDF781
:1029AC00FAFFFB680A211800FFF7AFFFFB6838211C
:1029BC001800FFF752FC96235A00FB681100180010
:1029CC00FFF7A3FFFB6839211800FFF746FC96239D
:1029DC005A00FB6811001800FFF797FFFB681421E1
:1029EC001800FFF73AFCFB6864211800FFF78DFF15
:1029FC00FB6879211800FFF730FCFB686421180094
:102A0C00FFF783FFFB6850211800FFF726FCFB68DB
:102A1C0064211800FFF779FFFB686C211800FFF7A1
:102A2C001CFCFB6864211800FFF76FFFFB680C218E
:102A3C001800FFF712FCFB6864211800FFF765FF14
:102A4C00FB6801211800FFF708FCFB6864211800E3
:102A5C00FFF75BFFFB6838211800FFF7FEFBFB68F4
:102A6C0064211800FFF751FFBD4604B080BDC0467D
:102A7C0024040020E403002080B500AFBD4680BDD7
:102A8C0080B500AF024B034A1A60BD4680BDC046FC
:102A9C0000300040AAAA000080B500AF074B084ADE
:102AAC001A60064B06225A60044BFA22D2009A6036
:102ABC00024B044A1A60BD4680BDC046003000403F
:102ACC0055550000CCCC000080B582B000AF00237F
:102ADC007B60154B5A69144BFC21C9030A435A619C
:102AEC00114B5B697B607B680F4BDA690E4B802165
:102AFC0089030A43DA610C4BDA6980239B03134088
:102B0C007B607B68084B9A69074B802189000A43DC
:102B1C009A61054B9A6980239B0013407B607B680C
:102B2C00BD4602B080BDC0460010024080B584B0E6
:102B3C0000AF78607B68084A9A429B415B42DBB2EB
:102B4C00FB60064BFA681A60044BFA6810210A43C2
:102B5C001A60BD4604B080BD00366E0100200240F4
:102B6C0080B582B000AF786039603A4B1A68394B47
:102B7C0001210A431A60374B1B68022213405A4248
:102B8C005341DBB2002BF6D1324B5A68314B032147
:102B9C008A435A602F4B5B680C2213405A1E934198
:102BAC00DBB2002BF6D12B4B1A682A4B8021490241
:102BBC000A431A60274B1A6880239B0213405A421F
:102BCC005341DBB2002BF5D13B681800FFF7AEFF89
:102BDC00204B214A5A601F4B0022DA621D4B1A68A7
:102BEC001C4B802149040A431A601A4B1A68802333
:102BFC009B0413405A425341DBB2002BF5D1154BC9
:102C0C005A68144B02210A435A60124B5B680C221F
:102C1C001340083B5A1E9341DBB2002BF5D10D4BF0
:102C2C005A680C4B02210A435A600A4B5B680C220F
:102C3C001340083B5A1E9341DBB2002BF5D1054BD8
:102C4C005A68044B01210A405A6001231800BD4602
:102C5C0002B080BD001002400000118080B500AFB2
:102C6C00034B1900012000F011F8BD4680BDC04691
:102C7C00FFFF000010B5FEF761FEFEF7A1FEFFF7A7
:102C8C0067FCFFF707FEFFF7E9FF10BD80B582B0C8
:102C9C0000AF786039607B68012B0DD13B68084A26
:102CAC00934209D1074B1800FEF7CCFD064A0748A2
:102CBC0005230221FFF73AF8BD4602B080BDC0469D
:102CCC00FFFF0000A80000208D28000894000020C1
:102CDC0080B500AF014B1800BD4680BDA800002098
:102CEC0080B582B000AF00237B6000233B60304B8B
:102CFC001A682F4B802149020A431A602C4B1A6820
:102D0C0080239B0213403B607B6801337B603B68F4
:102D1C00002B04D17A68A023DB019A42EED1244B1C
:102D2C001A6880239B02134002D001233B6001E010
:102D3C0000233B603B68012B36D11E4B11221A60DD
:102D4C001B4A1B4B52685A60194A194B52685A60FD
:102D5C00174B5A68164B18490A405A60144B5A685C
:102D6C00134B882149030A435A60114B1A68104BC4
:102D7C00802149040A431A600D4B1A6880239B0476
:102D8C001340F9D00A4B5A68094B03218A435A6005
:102D9C00074B5A68064B02210A435A60044B5B6886
:102DAC000C221340082BF9D1BD4602B080BDC046A1
:102DBC000010024000200240FF7FC0FF80B584B0AD
:102DCC0000AF0023FB600023BB6000237B6000236B
:102DDC003B602D4B5B680C221340FB60FB68042BA3
:102DEC0007D0082B09D0002B38D1284B284A1A6061
:102DFC0037E0264B264A1A6033E0234B5A68F023FF
:102E0C009B031340BB60204B5A68C0235B021340EA
:102E1C007B60BB689B0C0233BB607B68002B0CD1C6
:102E2C00B9680A005201521A93019B1ADB005B1815
:102E3C001B021A00154B1A6013E0134BDB6A0F22AE
:102E4C00134001333B603968114800F0BBF90300B3
:102E5C001A00BB685A430D4B1A6002E00B4B0C4A2C
:102E6C001A60094B5B681B090F221340094AD35C9B
:102E7C00DBB2FB60054B1A68FB68DA40034B1A6047
:102E8C00BD4604B080BDC0460010024018000020B2
:102E9C0000127A000800002080B500AF114A124BD6
:102EAC0011001800FFF75CFEFFF788FFFFF70CFE20
:102EBC000E4B1A68FA239900100000F083F90300F6
:102ECC001800FEF79BFC03005A1E9341DBB2002B4B
:102EDC0002D00220FDF7FCFFFFF7CEFDFFF7DCFD73
:102EEC00BD4680BD0048E80100127A0018000020A1
:102EFC0090B587B002AF78603960FFF7CDFF2E4BED
:102F0C001800FEF701F92D4B2D4A1A602B4B642249
:102F1C00DA602A4B2B4A5A60284B2B4A9A60274A74
:102F2C002A4B11001800FEF7FBFD294B294A2749B3
:102F3C002948FFF7F7FCFFF7CBFE0300FB60274B9C
:102F4C001C68254B1800FDF72EFB0100244AF8687D
:102F5C00244B00930B002100FDF745FBFB689B689D
:102F6C001800FDF763FBFB689B6800211800FDF758
:102F7C00C9FE1D4B00211800FDF78FFB1B4B1800E1
:102F8C00FDF7E2FCFB689868194B00220021FDF765
:102F9C0046FFFB689868174B00220121FDF73FFFA5
:102FAC00FB681B6900211800FFF7D7FBFFF768FDD2
:102FBC00FEF706FFFAE7C046B4010020200000200F
:102FCC00005400400C0300200403002030010020BA
:102FDC00C4020020CC020020140100201C000020A0
:102FEC0088010020E80000201403002020030020AA
:102FFC003C3300085033000880B500AF1B4B1A68F7
:10300C001A4B01210A431A60184B5A68174B18497E
:10301C000A405A60154B1A68144B16490A401A603C
:10302C00124B1A68114B14490A401A600F4B5A681C
:10303C000E4B12490A405A600C4BDA6A0B4B0F21AB
:10304C008A43DA62094B1A6B084B0D490A401A6322
:10305C00064B5A6B054B01218A435A63034B0022E2
:10306C009A60FFF73DFEBD4680BDC0460010024091
:10307C000CB8FF08FFFFF6FEFFFFFBFFFFFFC0FFD2
:10308C00ACFEFFFF80B500AFFEF7F4FB80B500AFE0
:10309C00FFF794FEBD4680BD80B500AFFFF7ACFFD7
:1030AC00BD4680BD80B582B000AF786039607B686A
:1030BC0001221A603B68024A1A60BD4602B080BD0C
:1030CC000000002080B582B000AF7860FFF7DAFF17
:1030DC0080B582B000AF024B7B600120FFF7F2FF9E
:1030EC006433000880B582B000AF024B7B60FFF701
:1030FC00EFFFC0467833000810B500F001F810BDA2
:10310C0010B500F001F810BD10B5034B01001868A4
:10311C0000F004F810BDC0463000002070B505006A
:10312C00002910D00C1F2368002B00DAE4182800AB
:10313C0000F045F81D4A1368002B05D1636014603C
:10314C00280000F03DF870BDA34209D92168601831
:10315C008342F3D118685B6841182160EEE71300D5
:10316C005A68002A01D0A242F9D919685818A0420D
:10317C000BD120680918581819608242E0D11068E8
:10318C005268411819605A60DAE7A04202D90C2340
:10319C002B60D5E721686018824203D11068526811
:1031AC004118216062605C60CAE7C0465804002088
:1031BC000023C25C0133002AFBD1581E70477047B4
:1031CC0070470000002243088B4274D303098B42E2
:1031DC005FD3030A8B4244D3030B8B4228D3030CDB
:1031EC008B420DD3FF22090212BA030C8B4202D37D
:1031FC001212090265D0030B8B4219D300E0090AA5
:10320C00C30B8B4201D3CB03C01A5241830B8B42AD
:10321C0001D38B03C01A5241430B8B4201D34B0396
:10322C00C01A5241030B8B4201D30B03C01A5241FB
:10323C00C30A8B4201D3CB02C01A5241830A8B4280
:10324C0001D38B02C01A5241430A8B4201D34B0269
:10325C00C01A5241030A8B4201D30B02C01A5241CD
:10326C00CDD2C3098B4201D3CB01C01A5241830981
:10327C008B4201D38B01C01A524143098B4201D3BB
:10328C004B01C01A524103098B4201D30B01C01AE6
:10329C005241C3088B4201D3CB00C01A5241830860
:1032AC008B4201D38B00C01A524143088B4201D38D
:1032BC004B00C01A5241411A00D2014652411046ED
:1032CC007047FFE701B5002000F006F802BDC046CC
:1032DC000029F7D076E770477047C04603001218F4
:1032EC00934200D1704719700133F9E70A0F0008B7
:1032FC000A0F0008FA0E0008FC0E0008040F000864
:10330C003A230008222300083A2300082E23000841
:10331C003A2300083A2300083A2300083A2300080D
:10332C003A23000868626A6B62686A6B43000000AB
:10333C0020537465726F776E696B206272616D20B9
:10334C0000000000706F7A61726F77796368207685
:10335C002E312E300000000061626F727428292C0F
:10336C002065786974696E672E2E2E005F5F637816
:10337C00615F707572655F7669727475616C00005F
:10338C000000000000000000F1300008F1300008DF
:10339C000000000000000000000000000000000021
:1033AC007B0B0008E9060008210800080D1900082D
:1033BC000000000000000000F50B00083F070008AB
:1033CC00FD070008E91800080000000000000000DC
:1033DC0079050008C5180008000000000000000076
:0833EC005D020008A1180008B1
:1033F4005404002000000000000000000000000051
:103404000102030406070809006CDC020001002025
:103414000000000000000000000000006400000044
:103424003400002000000000000000000000000044
:103434000000000000000000000000000000000088
:103444000000000000000000000000000000000078
:103454000000000000000000000000000000000068
:103464000000000000000000000000000000000058
:103474000000000000000000000000000000000048
:043484000000000044
:0400000508000105E9
:00000001FF
