:020000040800F2
:1000000000400020F5000008EF000008D7000008BD
:1000100000000000000000000000000000000000E0
:10002000000000000000000000000000D1000008F7
:100030000000000000000000CB000008895100080B
:10004000C5000008C5000008C5000008C50000087C
:10005000C5000008C5000008C5000008C50000086C
:10006000C5000008C5000008C5000008C50000085C
:10007000C5000008C5000008C5000008C50000084C
:10008000C5000008C5000008C5000008C50000083C
:10009000C5000008C5000008C5000008415400085C
:1000A0002D540008C5000008C5000008C500000860
:1000B000C5000008C5000008C5000008C50000080C
:1000C0005FF808F180B500AFFEE780B500AFFEE74E
:1000D00080B500AFFEE704207146084202D0EFF37E
:1000E000098001E0EFF3088071464E4A104780B561
:1000F00000AFFEE74C48004780B582B000AF7860A3
:100100003960FEE780B58EB000AF07F051FB3A4B87
:100110007B613A4B3B613A4BFB603B69BB6007E05C
:100120007A69131D7B61BB68191DB96012681A607A
:10013000FA68BB689A42F3D8324B3B62324BFB61A0
:100140003B6ABB6104E0BB691A1DBA6100221A60F8
:10015000FA69BB699A42F6D807F024FB3A003B1DC6
:100160001100180007F02AFB284A294BD31A9B10CC
:10017000BB6200237B6207E0254B7A6A9200D3586A
:1001800098477B6A01337B62BA6A7B6A9A42F3DCE6
:10019000204A214BD31A9B10BB6200237B6207E0ED
:1001A0001D4B7A6A9200D35898477B6A01337B6271
:1001B000BA6A7B6A9A42F3DC7B683A6811001800DD
:1001C00007F010FA03007B63144A154BD31A9B10F7
:1001D0003B633B6BFB6208E0FB6A5A1E104B9200CC
:1001E000D3589847FB6A013BFB62FB6A002BF3DCA8
:1001F0007B6B180007F0F2FA5C7E0008000000201C
:10020000B0000020B000002050050020540200087B
:100210005402000858020008540200085C0200085A
:0C02200058020008F90000080501000861
:10022C005C7E000800000020B00000205C7E00080E
:10023C000000000000000000B0000020500500206D
:10024C000000000000000000D1680008995A000866
:10025C0080B582B000AF786039607B683A689A608C
:10026C00BD4602B080BD80B582B000AF78600A0098
:10027C00BB1C1A807B68BA1C12889A81BD4602B0DE
:10028C0080BD80B582B000AF78607B685B69180078
:10029C00BD4602B080BD000080B584B000AFF860F0
:1002AC00B9607A603B60104AFB681A60FB68BA68F8
:1002BC009A60FB687A68DA60FB683A685A61FB6896
:1002CC00DA68FB689B685A43FB681A61FB6800227A
:1002DC005A60FB6800221A76FB6800225A76FB688B
:1002EC001800BD4604B080BD547E000880B582B0B5
:1002FC0000AF78607B689B7BDBB25A1E9341DBB20C
:10030C001800BD4602B080BD80B582B000AF7860E9
:10031C007B68DB681800FFF7E9FF03001800BD4697
:10032C0002B080BD80B582B000AF78600A00FB1CC3
:10033C001A70FB1C1B78002B03D17B6800229A736C
:10034C0003E07B68FA1C12789A73BD4602B080BD3C
:10035C0080B582B000AF78607B689B68002B07D0BB
:10036C007B689A687B689B681B681B6810009847C1
:10037C00BD4602B080BD80B582B000AF78607B68AE
:10038C0000221A607B6800225A607B6800229A6007
:10039C007B6800229A817B6800229A737B68180024
:1003AC00BD4602B080BD80B582B000AF78607B687E
:1003BC0000225A607B6800229A60BD4602B080BD64
:1003CC0090B583B000AF02003960FB1D1A70FB1DA5
:1003DC001B785BB2002B36DA314AFB1D1B785BB203
:1003EC0019000F230B40083B9B0806339B00D318C6
:1003FC0004331B68FA1D127852B2110003220A4012
:10040C00D200FF2191400A00D2431A4011003B68F0
:10041C009B01FF221A40FB1D1B785BB218000323C3
:10042C000340DB009A401E48FB1D1B785BB21C008E
:10043C000F232340083B9B080A4306339B00C31839
:10044C0004331A6029E0174AFB1D1B785BB29B082A
:10045C00C0339B009B58FA1D127852B21100032234
:10046C000A40D200FF2191400A00D2431A401100E9
:10047C003B689B01FF221A40FB1D1B785BB21800E6
:10048C0003230340DB009A400648FB1D1B785BB23C
:10049C009B080A43C0339B001A50BD4603B090BD65
:1004AC0000ED00E000E100E080B582B000AF02009A
:1004BC00FB1D1A70FB1D1B785BB21F221A40044BEC
:1004CC00012191400A001A60BD4602B080BDC046B1
:1004DC0000E100E080B582B000AF7860034A7B6831
:1004EC001A607B681800BD4602B080BD547E0008BF
:1004FC0080B584B000AFF860B9607A603B60FB688F
:10050C00BA681A60FB687A685A60FB683A689A6045
:10051C00FB68BA69DA60FB6804221A74FB6818007D
:10052C00BD4604B080BD80B582B000AF78607B68FA
:10053C001B691800BD4602B080BD80B582B000AF0B
:10054C0078607B685B681800BD4602B080BD80B5E2
:10055C0082B000AF7860BD4602B080BD80B582B07D
:10056C0000AF7860034A7B681A607B681800BD4650
:10057C0002B080BDD47D000880B582B000AF786039
:10058C007B681800FFF7EAFF0C4A7B681A607B68EF
:10059C0000225A607B6800229A607B680022DA6035
:1005AC007B6800221A617B6800225A617B680022FA
:1005BC001A767B681800BD4602B080BDE87D000845
:1005CC0080B582B000AF78607B6800225A807B686F
:1005DC0005221A807B6800221A717B681800BD46C0
:1005EC0002B080BD80B582B000AF78607B680C3300
:1005FC001800FFF7E5FF7B680022DA617B680022B8
:10060C00DA847B682822002199547B681800BD4647
:10061C0002B080BD80B584B000AFF860B9607A607C
:10062C003B60FB680022DA60FB6800221A74FB68EE
:10063C0000225A74FB6800229A74FB680022DA7458
:10064C00FB68BA681A60FB687A685A60FB683A689B
:10065C009A60FB681800BD4604B080BD80B582B0BE
:10066C0000AF78607B6800225A737B6801221A7392
:10067C007B6800229A60BD4602B080BD80B582B016
:10068C0000AF786039607B6800221A717B680122A8
:10069C005A717B6802229A717B683A681A607B688F
:1006AC001800BD4602B080BD80B582B000AF786046
:1006BC000A00FB1C1A707B681B79002B02D0FB1CF8
:1006CC0002221A707B68FA1C12785A717B681B7CA8
:1006DC00002B45D07B685B79002B02D0012B15D009
:1006EC0029E07B689A687B689B681B6808331B68E9
:1006FC000021100098477B68DA687B68DB681B6810
:10070C0008331B680121100098476CE07B689A68DD
:10071C007B689B681B6808331B6801211000984795
:10072C007B68DA687B68DB681B6808331B6801210F
:10073C001000984757E07B689A687B689B681B6839
:10074C0008331B680421100098477B68DA687B68C3
:10075C00DB681B6808331B6804211000984742E0D3
:10076C007B685B79012B13D002DC002B05D030E0C9
:10077C00032B18D0042B21D02BE07B68DA687B6824
:10078C00DB681B6808331B680021100098472AE0BF
:10079C007B68DA687B68DB681B6808331B6801219F
:1007AC00100098471FE07B68DA687B68DB681B6881
:1007BC0008331B6803211000984714E07B68DA6843
:1007CC007B68DB681B6808331B68042110009847A2
:1007DC0009E07B68DA687B68DB681B6808331B6898
:1007EC00022110009847BD4602B080BD80B582B092
:1007FC0000AF78607B689A687B689B681B681433D1
:10080C001B68100098477B68DA687B68DB681B689C
:10081C0014331B6810009847BD4602B080BD80B5EC
:10082C0082B000AF78607B681B7D1800BD4602B0BB
:10083C0080BD000080B582B000AF7860034A7B6851
:10084C001A607B681800BD4602B080BD947D00081C
:10085C0080B584B000AFF860B9607A603B60FB682B
:10086C001800FFF7E7FF0E4AFB681A60FB680422CA
:10087C001A75FB6800225A75FB6800229A61FB68A6
:10088C00BA685A60FB687A689A60FB683A68DA6002
:10089C00FB68BA691A61FB681800BD4604B080BDDC
:1008AC00187E000880B582B000AF7860064A7B687D
:1008BC001A607B6801221A717B6802225A717B686C
:1008CC001800BD4602B080BD787D000880B584B0AC
:1008DC0000AFF860B9607A60FB681800FFF7E2FFC0
:1008EC00084AFB681A60FB6800221A74FB68BA6835
:1008FC009A60FB687A68DA60FB681800BD4604B041
:10090C0080BDC046FC7D000880B584B000AFF860A7
:10091C00B9607A60FB681800FFF7C4FF064AFB68F1
:10092C001A60FB68BA689A60FB687A68DA60FB68E0
:10093C001800BD4604B080BD387E000880B582B07A
:10094C0000AF7860034A7B681A607B681800BD466C
:10095C0002B080BD787D000880B582B000AF7860B1
:10096C00054A7B681A607B681800FFF7E7FF7B6815
:10097C001800BD4602B080BD387E000880B582B03C
:10098C0000AF7860054A7B681A607B681800FFF737
:10099C00D5FF7B681800BD4602B080BDFC7D000809
:1009AC0080B582B000AF78600A00FB1C1A707B68BF
:1009BC00FA1C12781A717B681B79002B06D07B68A5
:1009CC001B681B687A6802211000984701231800E5
:1009DC00BD4602B080BD80B582B000AF78607B6848
:1009EC005B791800BD4602B080BD80B584B000AF05
:1009FC0078600A00FB1C1A707B689B889BB21A00FB
:100A0C00FB1C1B781A411300FB60FB68DBB2012254
:100A1C001340DBB21800BD4604B080BD80B584B075
:100A2C0000AF78600A00FB1C1A707B689A68FB1C8C
:100A3C001B785B00DA401300FB60FB68DBB203221F
:100A4C001340DBB21800BD4604B080BD80B584B045
:100A5C0000AF78600A00FB1C1A707B68DA68FB1C1C
:100A6C001B785B00DA401300FB60FB68DBB20322EF
:100A7C001340DBB21800BD4604B080BD80B584B015
:100A8C0000AF78600A00FB1C1A707B681A68FB1CAC
:100A9C001B785B00DA401300FB60FB68DBB20322BF
:100AAC001340DBB21800BD4604B080BD80B582B0E7
:100ABC0000AF7860034A7B681A607B681800BD46FB
:100ACC0002B080BDD47D000880B582B000AF7860E4
:100ADC00054A7B681A607B681800FFF7E7FF7B68A4
:100AEC001800BD4602B080BDE87D000880B582B01C
:100AFC0000AF0200FB1D1A70034BFA1D12781A701E
:100B0C00BD4602B080BDC0463800002080B582B022
:100B1C0000AF78607B681B7C1800BD4602B080BDBE
:100B2C0080B582B000AF78607B681B791800BD4639
:100B3C0002B080BD90B583B000AF0C4B1B68FC1DA0
:100B4C001800FFF7EDFF03002370FB1D1B78012B32
:100B5C0002D0022B02D003E04F2302E05A2300E024
:100B6C002D231800BD4603B090BDC0461C000020CC
:100B7C0080B500AF01231800BD4680BD80B500AF25
:100B8C0002231800BD4680BD80B584B000AF7860EC
:100B9C007B685B7B072B17D90023FB60FB68072B5B
:100BAC0010DC0C4AFB68D3181A787968FB68CB18F0
:100BBC0005331B789A4201D0012306E0FB68013310
:100BCC00FB60EBE7022300E000231800BD4604B0F5
:100BDC0080BDC046687D000880B584B000AF7860E9
:100BEC000023FB60FB68072B09DC7A68FB68D318D1
:100BFC00053300221A70FB680133FB60F2E77B6857
:100C0C0000225A73BD4604B080BD80B582B000AFDF
:100C1C0078607B6800225A807B6800221A71BD467E
:100C2C0002B080BD80B582B000AF78607B681B7964
:100C3C001A007B681B88D017D90F9A4248410300D1
:100C4C00DBB21800BD4602B080BD80B582B000AFEB
:100C5C0078600A00FB1C1A70FB1C1B78022B0AD054
:100C6C0002DC012B05D00CE0032B08D0042B04D0A4
:100C7C0007E0452306E0422304E03C2302E03E2348
:100C8C0000E02D231800BD4602B080BDB0B584B085
:100C9C0000AF786039600F23FB1800221A700F2305
:100CAC00FB181B78072B15D80F257B191B787A6836
:100CBC00D31859797B191B783A68D4187B681800BB
:100CCC00FFF7C3FF030023707B191A787B190132DD
:100CDC001A70E4E7BD4604B0B0BD80B584B000AF77
:100CEC0078600A00FB1C1A70FB1C1B787A6812884F
:100CFC00934201DB2D231CE00F203918FB1C1B78C1
:100D0C001A1C9218D3180B707B685B881A003B185E
:100D1C001B781A411300DAB20E203B1807210A4047
:100D2C001A703B181A787B6811001800FFF78DFFBA
:100D3C0003001800BD4604B080BDB0B584B000AF50
:100D4C00786039600F23FB1800221A700F23FB18F0
:100D5C001B787A681288934213DA0F257B191B785B
:100D6C003A68D4187B191A787B6811001800FFF7C1
:100D7C00B4FF030023707B191A787B1901321A70A7
:100D8C00E4E7BD4604B0B0BD80B582B000AF78607A
:100D9C000A00FB1C1A707B685B7B072B0BD87B68EB
:100DAC005B7B5A1CD1B27A6851731A007B689B1812
:100DBC00FA1C12785A71BD4602B080BD80B582B063
:100DCC0000AF78600A00FB1C1A70FB1C1B78002B10
:100DDC0006D0FB1C1A787B6811001800FFF7D4FFB3
:100DEC007B681800FFF7D0FE03001800BD4602B068
:100DFC0080BD80B584B000AF78600A00FB1C1A700F
:100E0C007B681B791A007B681B889A422BDA7B68FB
:100E1C001B790F203A18191C0B1CDB185B1813706C
:100E2C007B685B883A181278072191400A0092B2CD
:100E3C00D24392B213409AB27B685A807B685A882C
:100E4C00FB1C1B78072119403B181B7899400B00A1
:100E5C009BB213439AB27B685A807B681B7901332F
:100E6C00DAB27B681A71BD4604B080BD80B582B021
:100E7C0000AF0200FB1D1A70FB1D1B78052B0ED852
:100E8C009A00094BD3181B689F46084B08E0084B87
:100E9C0006E0084B04E0084B02E0084B00E0084B6E
:100EAC001800BD4602B080BD507A0008047A0008D4
:100EBC00107A00081C7A0008287A0008347A000896
:100ECC00407A000880B582B000AF78607B681B7CEC
:100EDC001800FFF7CBFF03001800BD4602B080BD21
:100EEC0080B584B000AF0200FB1D1A700F217B1877
:100EFC00FA1D12781A707B187A18127801321A704F
:100F0C007B181B7805229A429B415B42DBB2002B7B
:100F1C0003D00F23FB1801221A700F23FB181B7828
:100F2C001800BD4604B080BD80B584B000AF02008F
:100F3C00FB1D1A700F217B18FA1D12781A707B1882
:100F4C007A181278013A1A707B181B785A4253415E
:100F5C00DBB2002B03D00F23FB1805221A700F23D2
:100F6C00FB181B781800BD4604B080BD80B582B05C
:100F7C0000AF78607B68DB7C1800BD4602B080BD9A
:100F8C0080B584B000AF78600A00FB1C1A707B68D7
:100F9C00FA1C12781A710F23FB187A6892791A705E
:100FAC007B685B79002B03D00F23FB1802221A708D
:100FBC000F23FB181B78012B1DD0022B35D0002BD7
:100FCC0034D17B681B79002B0AD07B681A687B684C
:100FDC001B681B6808331B6800211000984725E02C
:100FEC007B681A687B681B681B6808331B680421C4
:100FFC00100098471AE07B681B79002B0AD07B689D
:10100C001A687B681B681B6808331B680421100076
:10101C0098470BE07B681A687B681B681B68083371
:10102C001B6800211000984700E0C046BD4604B084
:10103C0080BD80B582B000AF78600A00FB1C1A70CE
:10104C007B68FA1C12789A717B689B79022B09D108
:10105C007B681A687B681B681B6808331B68022155
:10106C0010009847BD4602B080BD80B582B000AF7D
:10107C00786008001100FB1C021C1A70BB1C0A1CB7
:10108C001A70FB1C1A787B6811001800FFF7D1FF4F
:10109C00BB1C1A787B6811001800FFF771FFBD4666
:1010AC0002B080BD80B582B000AF78600A00FB1C36
:1010BC001A707B68FA1C12785A717B685B79002B6A
:1010CC0004D07B6802211800FFF7B3FF7B685B79C3
:1010DC001800BD4602B080BD80B582B000AF78600C
:1010EC007B681A687B681B681B6814331B681000CC
:1010FC0098477B6801211800FFF7D4FFBD4602B06A
:10110C0080BD80B582B000AF78600A00FB1C1A70FD
:10111C007B68FA1C12781A74BD4602B080BD0000C0
:10112C0080B582B000AF78607B681B7C052B4AD8F9
:10113C009A002D4BD3181B689F467B681B680021B7
:10114C001800FFF7DEFF7B689B6800220021180067
:10115C00FFF78BFF44E07B681B6800211800FFF74A
:10116C00D0FF7B689B68002202211800FFF77DFFEF
:10117C0036E07B681B6800211800FFF7C2FF7B6814
:10118C009B68002201211800FFF76FFF28E07B68A5
:10119C009B68002202211800FFF767FF7B681B6821
:1011AC0001211800FFF7ADFF1AE07B689B68002255
:1011BC0002211800FFF759FF7B681B6800211800FB
:1011CC00FFF79FFF0CE07B681B6800211800FFF7FE
:1011DC0098FF7B689B68002202211800FFF745FFEF
:1011EC00BD4602B080BDC046687A000880B582B0AA
:1011FC0000AF78600A00FB1C1A707B68FA1C12782E
:10120C001A76BD4602B080BD80B582B000AF786062
:10121C007B689B681800BD4602B080BD80B582B06B
:10122C0000AF78607B68DB681800BD4602B080BDFB
:10123C0080B582B000AF78607B6801225A76BD46DB
:10124C0002B080BD80B584B000AF78600023FB6035
:10125C007B681B69FA689A4209D87B685A69FB68F3
:10126C00D31820221A70FB680133FB60F0E77B680F
:10127C001800FFF7DDFFBD4604B080BD90B585B00A
:10128C0000AF78600A00BB1C1A80BB1C1C887B68F2
:10129C001800FFF7C3FF0200002394425B41DBB24E
:1012AC00002B26D1BB1C1C887B681800FFF7ACFFF9
:1012BC0003006343BB600023FB607B681800FFF7EF
:1012CC00A3FF0100FA68002391425B41DBB2002BC3
:1012DC000BD07B685A69F968BB68CB18D3182022ED
:1012EC001A70FB680133FB60E7E77B681800FFF7B7
:1012FC009FFFBD4605B090BD80B586B000AFF860CD
:10130C00B9607A60FB68DB687A689A4201D3002383
:10131C001BE0FB689B68BA689A4201D3002314E077
:10132C00FB685B687B61FB689B687A685A43BB68A7
:10133C00D218FB685A60FB685B687A699A4203D0E2
:10134C00FB681800FFF774FF01231800BD4606B0B8
:10135C0080BD80B582B000AF78607B681800FFF765
:10136C0067FF7B685B685A1C7B685A607B685968AE
:10137C007B681A69002391425B41DBB2002B02D0DF
:10138C007B6800225A60BD4602B080BD80B584B037
:10139C0000AF78607B685B68FB607B685A687B6831
:1013AC001B691900100006F019FB0B001A007B6872
:1013BC005A607B685B68FA689A4203D07B681800B5
:1013CC00FFF736FFBD4604B080BD80B582B000AFDC
:1013DC0078600A00FB1C1A707B681800FFF7D6FFB8
:1013EC007B685A697B685B68D318FA1C12781A7090
:1013FC007B681800FFF7ADFF7B681800FFF718FF3C
:10140C00BD4602B080BD80B586B000AFF860B96053
:10141C007A601A00FB1C1A7000237B61BB681B7876
:10142C005BB2002B22D013217B18BA6812781A7089
:10143C007A18FB1C127852B21B785BB29A4208D114
:10144C007B695A1C7A617A68D2181323FB181278BC
:10145C001A701323FB1800229A56FB68110018000F
:10146C00FFF7B3FFBB680133BB60D7E7012318005C
:10147C00BD4606B080BD80B582B000AF78603960E3
:10148C003B681B785BB2002B0AD03B685A1C3A6055
:10149C0000229A567B6811001800FFF796FFEFE7C1
:1014AC00BD4602B080BD80B584B000AFF860B960B5
:1014BC007A603B607A68B968FB681800FFF71CFF1C
:1014CC003A68FB6811001800FFF7D5FFBD4604B061
:1014DC0080BD80B582B000AF78607B685A687B684D
:1014EC009B68D31A5A425341DBB21800BD4602B076
:1014FC0080BD80B582B000AF78607B681800FFF7C4
:10150C00E8FF03001A0001235340DBB21800BD466C
:10151C0002B080BD80B500AF024B1B681800BD4601
:10152C0080BDC0460004002080B584B000AF786058
:10153C00FFF7F0FF0300FB60FFF7ECFF0200FB6816
:10154C00D21A7B689A429B415B42DBB2002BF3D1EF
:10155C00BD4604B080BD000080B582B000AF020073
:10156C00FB1D1A70FB1D1B78042B0CD89A00074B23
:10157C00D3181B689F46FEE7054B01221A7002E048
:10158C00034B01221A70BD4602B080BD807A000860
:10159C00F400002090B583B000AF02003960FB1D51
:1015AC001A70FB1D1B785BB2002B36DA314AFB1D1F
:1015BC001B785BB219000F230B40083B9B080633CA
:1015CC009B00D31804331B68FA1D127852B2110019
:1015DC0003220A40D200FF2191400A00D2431A4054
:1015EC0011003B689B01FF221A40FB1D1B785BB26C
:1015FC00180003230340DB009A401E48FB1D1B7898
:10160C005BB21C000F232340083B9B080A430633A4
:10161C009B00C31804331A6029E0174AFB1D1B7882
:10162C005BB29B08C0339B009B58FA1D127852B2D8
:10163C00110003220A40D200FF2191400A00D2433C
:10164C001A4011003B689B01FF221A40FB1D1B78BE
:10165C005BB2180003230340DB009A400648FB1DD5
:10166C001B785BB29B080A43C0339B001A50BD46E3
:10167C0003B090BD00ED00E000E100E080B582B069
:10168C0000AF78607B68013B0C4A934201D901237F
:10169C0010E00B4B7A68013A5A6001235B4203213C
:1016AC001800FFF777FF064B00229A60044B0722C5
:1016BC001A6000231800BD4602B080BDFFFFFF007A
:1016CC0010E000E080B582B000AF78607B681A68EB
:1016DC000449002391425B41DBB21800BD4602B0C5
:1016EC0080BDC0468713000080B582B000AF786023
:1016FC007B6800221A607B6800225A607B6800229B
:10170C009A607B680022DA607B6800221A617B6831
:10171C0000229A617B680022DA617B6800221A62DF
:10172C007B6800225A627B6800229A627B681800F0
:10173C00BD4602B080BD80B582B000AF78600A00B3
:10174C00FB1C1A707B68FA1C12781A73BD4602B027
:10175C0080BD80B582B000AF78607B6828229B5C2E
:10176C001800BD4602B080BD80B582B000AF786075
:10177C007B681B7C1800BD4602B080BD80B582B072
:10178C0000AF78607B681800FFF7EEFF0300013BA9
:10179C00012B01D8012300E000231800BD4602B044
:1017AC0080BD80B584B000AF78607B681800FFF70F
:1017BC00E5FF031E03D07B685B68FB6002E07B687F
:1017CC001B68FB60FB681800BD4604B080BDB0B55B
:1017DC0084B000AF78607B681800FFF7E2FF02006E
:1017EC00136804331B680F257C19100098470300FD
:1017FC0023707B191B78012B04D00F23FB181B784B
:10180C00002B01D1012300E000231800BD4604B0D9
:10181C00B0BDB0B584B000AF78607B685B7C032B47
:10182C0003D17B680122DA7402E07B680022DA744F
:10183C000F257C197B681800FFF798FB03002370B9
:10184C007B681800FFF7ADFF0200136808331B68B4
:10185C0079190978100098477B689A687B191B786E
:10186C0019001000FFF71EFCBD4604B0B0BD80B5DA
:10187C0082B000AF78607B681800FFF775FF03003B
:10188C00052B01D1012300E000231800BD4602B056
:10189C0080BD000080B582B000AF7860024B9B6BBE
:1018AC001800BD4602B080BD002C014080B582B04E
:1018BC0000AF7860024B5B6B1800BD4602B080BD78
:1018CC00002C014080B500AF024B1B681800BD46D0
:1018DC0080BDC0461800002080B582B000AF124B0E
:1018EC005B681B090F2213407B607B680822134046
:1018FC0013D07B68072213407B607B6801337B60CD
:10190C007B68032B02D97B6801337B60FFF7DAFF1E
:10191C0002007B68DA40130002E0FFF7D3FF0300FC
:10192C001800BD4602B080BD0010024080B582B0E8
:10193C0000AF0F4B5B681B0A072213407B607B6870
:10194C00042213400DD07B68032213407B607B681C
:10195C0001337B60FFF7C0FF02007B68DA401300A5
:10196C0002E0FFF7B9FF03001800BD4602B080BDCE
:10197C000010024080B584B000AF78602A4B9A69A1
:10198C00294B802109010A439A61284BFB60FFF720
:10199C00CDFF03002649180005F09AFF0300013B18
:1019AC00BB60BB689AB2FB681A85FB68C822DA6216
:1019BC00FB6800225A63FB6800229A63FB681B8B4E
:1019CC009BB21C4A13439AB2FB681A83FB681B8CAC
:1019DC009BB2112213439AB2FB681A84FB681B8CCE
:1019EC009BB2CC2213439AB2FB681A84FB68442244
:1019FC009B5A9BB2104A134399B2FB6844229952EA
:101A0C00FB681B889BB2612213439AB2FB681A8055
:101A1C00FB689B8A9BB2012213439AB2FB689A82A1
:101A2C00BD4604B080BDC04600100240002C0140F1
:101A3C0000093D00686800000080FFFF80B582B09F
:101A4C0000AF7860034A7B681A607B681800BD465B
:101A5C0002B080BD947D000880B582B000AF786084
:101A6C00054A7B681A607B681800FFF7E7FF7B6804
:101A7C001800BD4602B080BD187E000880B582B04B
:101A8C0000AF7860054A7B681A607B681800FFF726
:101A9C00D5FF7B681800BD4602B080BDB47D000840
:101AAC0080B588B000AF786008001100FB1C021CE8
:101ABC001A70BB1C0A1C1A70BB1C1B78072B01D993
:101ACC0000234DE00723FB61BB1C1B78BB61FB1C97
:101ADC001B78072B1CD817217B18FA1C1278920044
:101AEC001A707B681B6A3B617B181B7807229A4033
:101AFC001300DA433B6913403B617B181B78BA69CE
:101B0C009A4013003A6913433B617B683A691A6245
:101B1C00FB1C1B78072B22D9FB1C1B780F2B1ED808
:101B2C00FB1C1B783833DAB20F217B1892001A7029
:101B3C007B685B6ABB607B181B7807229A4013009A
:101B4C00DA43BB681340BB607B181B78BA699A40B8
:101B5C001300BA681343BB607B68BA685A620123EE
:101B6C001800BD4608B080BD80B582B000AF78606B
:101B7C000A00FB1C1A707B6818687B681979FB1CBF
:101B8C001B781A00FFF78CFF03001800BD4602B04B
:101B9C0080BD80B582B000AF78600A00FB1C1A7063
:101BAC007B689B8A9BB21A00FB1C1B781A411300A2
:101BBC00012213405A1E9341DBB21800BD4602B0FD
:101BCC0080BD80B582B000AF78607B681A687B6896
:101BDC001B7919001000FFF7DCFF03001800BD464D
:101BEC0002B080BD80B582B000AF78607B689B6A24
:101BFC001800FFF7E6FF03001800BD4602B080BDD9
:101C0C0080B582B000AF78607B6808331800FFF7AE
:101C1C00D8FF03001800BD4602B080BD80B584B06B
:101C2C0000AF786039603B68FB603B68002B07D0E5
:101C3C007B681800FFF7E4FF031E01D0012300E0CE
:101C4C000023002B01D00023FB60074BFA689A633A
:101C5C00054B9B8A9BB2044A04210B439BB2938293
:101C6C00BD4604B080BDC046002C014080B584B098
:101C7C0000AF78600A00FB1C1A700F23FB18FA1CCB
:101C8C0012781A70FB1C1B78002B07D07B6818008D
:101C9C00FFF7B6FF031E01D0012300E00023002B49
:101CAC0003D00F23FB1800221A700F23FB181B788C
:101CBC00002B01D0C92300E000237A681900100022
:101CCC00FFF7ACFFBD4604B080BD80B582B000AF5D
:101CDC0078607B681800FFF774FF03001800BD469E
:101CEC0002B080BD80B584B000AF786039603B68CD
:101CFC00FB603B68002B07D07B681800FFF7E5FF03
:101D0C00031E01D0012300E00023002B01D000238F
:101D1C00FB60074BFA685A63054B9B8A9BB2044ADB
:101D2C0002210B439BB29382BD4604B080BDC046DA
:101D3C00002C014080B584B000AF78600A00FB1C19
:101D4C001A700F23FB18FA1C12781A70FB1C1B78E4
:101D5C00002B07D07B681800FFF7B7FF031E01D0DC
:101D6C00012300E00023002B03D00F23FB180022DB
:101D7C001A700F23FB181B78002B01D0C92300E02D
:101D8C0000237A6819001000FFF7ACFFBD4604B0C1
:101D9C0080BD80B582B000AF78600A00FB1C1A7061
:101DAC00FB1C1B78103301229A4013001A007B682D
:101DBC009A61BD4602B080BD80B582B000AF78603C
:101DCC007B681A687B681B7919001000FFF7E1FF2C
:101DDC00BD4602B080BD80B582B000AF78607B6834
:101DEC009B681800FFF7E8FF7B68DB681800FFF7BB
:101DFC00E3FFBD4602B080BD80B582B000AF786015
:101E0C000A00FB1C1A70FB1C1B7801229A40130061
:101E1C001A007B689A61BD4602B080BD80B582B065
:101E2C0000AF78607B681A687B681B79190010001A
:101E3C00FFF7E2FFBD4602B080BD80B582B000AFB7
:101E4C0078600A00FB1C1A707B68FA1C12785A75B1
:101E5C007B685B7D022B05D0032B56D0012B00D168
:101E6C00A3E0ADE07B681B7D012B3BD0032B02D0A4
:101E7C00002B24D0BAE07B689B681800FFF7A1FE0A
:101E8C0003001A0001235340DBB2002B04D07B6803
:101E9C005B681800FFF7C2FF7B681B691800FFF72F
:101EAC0090FE03001A0001235340DBB2002B00D13B
:101EBC0091E07B68DB681800FFF7B0FF96E07B6869
:101ECC009B681800FFF77DFE03001A0001235340A6
:101EDC00DBB2002B00D180E07B685B681800FFF759
:101EEC009DFF83E07B681B691800FFF76AFE030007
:101EFC001A0001235340DBB2002B00D16FE07B684A
:101F0C00DB681800FFF78AFF70E07B681B7D012BF4
:101F1C0039D0042B02D0002B23D067E07B685B68A0
:101F2C001800FFF74EFE03001A0001235340DBB2EA
:101F3C00002B04D07B689B681800FFF76FFF7B6851
:101F4C00DB681800FFF73DFE03001A000123534025
:101F5C00DBB2002B45D07B681B691800FFF75EFFD6
:101F6C0044E07B68DB681800FFF72BFE03001A00C7
:101F7C0001235340DBB2002B35D07B681B69180062
:101F8C00FFF74CFF32E07B685B681800FFF719FE27
:101F9C0003001A0001235340DBB2002B25D07B68D1
:101FAC009B681800FFF73AFF20E07B685B6818001D
:101FBC00FFF702FF7B68DB681800FFF7FDFE15E0FA
:101FCC007B689B681800FFF7F7FE7B681B6918009D
:101FDC00FFF7F2FE0AE0C04608E0C04606E0C04645
:101FEC0004E0C04602E0C04600E0C046BD4602B078
:101FFC0080BD80B584B000AF78607B689B695A1C4B
:10200C007B689A617B689B69042B30D97B680022C2
:10201C009A610F217B187A68527D1A707B181B7895
:10202C00012B0ED002DC002B05D016E0022B0ED0BB
:10203C00032B1BD011E07B6801211800FFF7FDFE7C
:10204C0015E07B6802211800FFF7F7FE0FE07B68B4
:10205C0003211800FFF7F1FE09E07B681B680833C9
:10206C001B687A6802211000984700E0C046BD4604
:10207C0004B080BD80B582B000AF78600A00FB1C54
:10208C001A707B681B7DFA1C12789A4208D07B6808
:10209C00FA1C12781A757B6800211800FFF7CDFE28
:1020AC00BD4602B080BD80B582B000AF78600A003A
:1020BC00FB1C1A707B681B79002B02D0FB1C0222C4
:1020CC001A707B68FA1C12785A717B685B79002B4A
:1020DC0002D0012B0BD015E07B689B681800FFF732
:1020EC006BFE7B68DB681800FFF798FE14E07B68DA
:1020FC00DB681800FFF760FE7B689B681800FFF731
:10210C008DFE09E07B689B681800FFF755FE7B6825
:10211C00DB681800FFF750FEBD4602B080BD80B5ED
:10212C0082B000AF786008001100FB1C021C1A7012
:10213C00BB1C0A1C1A70BB1C1B78002B07D0FB1C89
:10214C001A787B6811001800FFF756FE06E0FB1C9E
:10215C001A787B6811001800FFF71BFEBD4602B011
:10216C0080BD80B582B000AF78600A00FB1C1A708D
:10217C007B6818687B681979FB1C1B781A00FFF7C1
:10218C00CEFFBD4602B080BD80B582B000AF786096
:10219C000A00FB1C1A707B681A69FB1C1B7819005F
:1021AC001000FFF7DEFFBD4602B080BD80B582B0E7
:1021BC0000AF78600A00FB1C1A707B685A69FB1C24
:1021CC001B7819001000FFF7CCFFBD4602B080BD94
:1021DC0080B582B000AF78600A00FB1C1A707B6877
:1021EC00DB6828331A00FB1C1B7819001000FFF762
:1021FC00B8FFBD4602B080BD80B582B000AF78603C
:10220C000A00FB1C1A707B689A6AFB1C1B7819006D
:10221C001000FFF7A6FFBD4602B080BD90B585B09B
:10222C0000AF786039607B689A683B68D2187B682D
:10223C009A607B689B68404A934209D97B689B688B
:10224C006421180005F0CAFB0B001A007B689A6029
:10225C007B689B686421180005F03AFB03001A00A8
:10226C000F23FB181A707B681B7B062B5ED89A0019
:10227C00324BD3181B689F467B681800FFF7CEFDC6
:10228C0057E07B681800FFF797FD52E078680F2342
:10229C00FB181A780421002391425B41DBB2190030
:1022AC00FFF75FFF45E07A680F23FB181B785B1084
:1022BC00190001230B40591E8B41DBB21900100091
:1022CC00FFF74FFF35E078680F23FB181B780122CE
:1022DC0013405A1E9341DBB21900FFF742FF28E06E
:1022EC007A680F23FB181B7859424B41DBB219005B
:1022FC001000FFF736FF1CE07C680F23FB181B78DF
:10230C00032213400AD00F23FB181B78032118005B
:10231C0005F064FB0B00DBB2002B01D1012300E0C4
:10232C00002319002000FFF71CFF02E07B6803224A
:10233C001A73BD4605B090BDE7030000947A0008FF
:10234C0080B582B000AF78600A00FB1C1A70FB1CD1
:10235C001B78002B07D07B681800FFF79BFA031E35
:10236C0001D0012300E00023002B06D07B6808334A
:10237C0000211800FFF7F5FE08E07B6808331A000F
:10238C00FB1C1B7819001000FFF7EBFEBD4602B0DA
:10239C0080BD80B582B000AF78600A00FB1C1A705B
:1023AC00FB1C1B78002B07D07B681800FFF77EFA0C
:1023BC00031E01D0012300E00023002B05D07B6815
:1023CC0000211800FFF7CDFE06E07A68FB1C1B7895
:1023DC0019001000FFF7C5FEBD4602B080BD80B5E8
:1023EC0082B000AF78600A00FB1C1A707B68FA1C84
:1023FC00292112785A547B6829229B5C022B05D028
:10240C00032B55D0012B00D17DE089E07B6828227D
:10241C009B5C012B3AD0032B02D0002B24D093E0F1
:10242C007B6804331800FFF741FA03005A4253410A
:10243C00DBB2002B05D07B68043301211800FFF7B9
:10244C00A8FF7B6804331800FFF724FA03005A42F4
:10245C005341DBB2002B00D16FE07B6804330121C8
:10246C001800FFF76DFF6FE07B6804331800FFF76F
:10247C001DFA03005A425341DBB2002B5FD07B683C
:10248C00043301211800FFF784FF5DE07B680433FF
:10249C001800FFF7FFF903005A425341DBB2002B3F
:1024AC004FD07B68043301211800FFF749FF4BE044
:1024BC007B6828229B5C042B00D045E07B680433AE
:1024CC001800FFF702FC03001A0001235340DBB293
:1024DC00002B05D07B68043301211800FFF72AFC80
:1024EC007B6804331800FFF78BFB03001A000123F1
:1024FC005340DBB2002B26D07B680433012118003B
:10250C00FFF7B4FB20E07B68043300211800FFF7D1
:10251C0040FF7B68043300211800FFF711FF13E024
:10252C007B68043300211800FFF704FC7B6804333C
:10253C0000211800FFF79AFB06E0C04604E0C046F5
:10254C0002E0C04600E0C046BD4602B080BD80B58A
:10255C0082B000AF78600A00FB1C1A707B682822DE
:10256C009B5CFA1C12789A420CD07B68FA1C2821CE
:10257C0012785A547B6800211800FFF730FF7B68F3
:10258C0000225A62BD4602B080BD80B582B000AF59
:10259C00786008001100FB1C021C1A70BB1C0A1C82
:1025AC001A707B689B889BB2FA1C1278110001226E
:1025BC008A4092B2D24392B213409AB27B689A800C
:1025CC007B689B889AB2BB1C1B78F91C09788B40E2
:1025DC009BB213439AB27B689A80BD4602B080BD11
:1025EC0080B582B000AF78600A00FB1C1A707B6863
:1025FC0018687B681979FB1C1B781A00FFF7C5FF5C
:10260C00BD4602B080BD80B582B000AF78600800D6
:10261C001100FB1C021C1A70BB1C0A1C1A707B6874
:10262C00DB68FA1C12785200032191400A00D24355
:10263C001A407B68DA607B68DA68BB1C1978FB1C73
:10264C001B785B0099400B001A437B68DA60BD462F
:10265C0002B080BD80B582B000AF78600A00FB1C70
:10266C001A707B6818687B681979FB1C1B781A0038
:10267C00FFF7C9FFBD4602B080BD80B582B000AF88
:10268C00786008001100FB1C021C1A70BB1C0A1C91
:10269C001A707B689B68FA1C1278520003219140D7
:1026AC000A00D2431A407B689A607B689A68BB1C0C
:1026BC001B781900FB1C1B785B0099400B001A431C
:1026CC007B689A60BD4602B080BD80B582B000AF19
:1026DC0078600A00FB1C1A707B6818687B68197993
:1026EC00FB1C1B781A00FFF7C8FFBD4602B080BD6B
:1026FC0080B582B000AF786008001100FB1C021C92
:10270C001A70BB1C0A1C1A707B681B68FA1C1278A6
:10271C005200032191400A00D2431A407B681A6090
:10272C007B681A68BB1C1978FB1C1B785B009940F2
:10273C000B001A437B681A60BD4602B080BDB0B571
:10274C0084B000AFF86008007A6019000B243B19C4
:10275C00021C1A700A257B190A1C1A707B191A782C
:10276C007B6811001800FEF789F903001A003B1969
:10277C001978FB681800FFF7BBFF7B191A787B6888
:10278C0011001800FEF731F903001A003B191978F3
:10279C00FB681800FFF7F9FE7B191A787B681100AB
:1027AC001800FEF753F903001A003B191978FB685F
:1027BC001800FFF728FF7B191A787B6811001800A6
:1027CC00FEF72CF903001A003B191978FB68180066
:1027DC00FFF753FFBD4604B0B0BD80B582B000AF6B
:1027EC00786039607B6818687B6819793B681A686F
:1027FC003B681B79FFF7A3FFBD4602B080BD80B5D7
:10280C0082B000AF78600A00FB1C1A707B681868F5
:10281C007B681979FB1C1B781A00FFF769FFBD4612
:10282C0002B080BD80B584B000AFF860B960FB1D0C
:10283C001A70FB68BA681A60FB68FA1D12781A7174
:10284C00FB6803211800FFF7DAFFFB680021180072
:10285C00FFF700FFFB6800211800FFF736FFFB684D
:10286C0001211800FFF7BCFEFB681800BD4604B040
:10287C0080BD000080B582B000AF78607B680849ED
:10288C0009221800FFF7CEFF7B68083304490B229E
:10289C001800FFF7C7FF7B681800BD4602B080BD6B
:1028AC000010004880B582B000AF78607B681800DB
:1028BC00FDF7C0FF184A7B681A607B68043310224E
:1028CC000021180005F090F87B6804331800FFF71E
:1028DC00D1FF7B68143318009023DB050F221900FD
:1028EC00FFF7A0FF7B6800229A837B6800221A62A4
:1028FC007B6800225A627B682822022199547B68EB
:10290C002922002199547B680022DA627B68180026
:10291C00BD4602B080BDC046B47D000880B584B011
:10292C0000AFF860B960FB1D1A70F868FB1D1A78CF
:10293C00BB681900FFF776FFFB681800FDF78EFEE9
:10294C00FB681800BD4604B080BD000080B582B0A5
:10295C0000AF78607B68CC4909221800FFF762FF52
:10296C007B680833C84903221800FFF75BFF7B68BC
:10297C001033C54902221800FFF754FF7B68183347
:10298C00C24905221800FFF74DFF7B682033BF4971
:10299C0004221800FFF746FF7B68283318009023A9
:1029AC00DB050B221900FFF73DFF7B683033B8497C
:1029BC0006221800FFF736FF7B683833B44909222A
:1029CC001800FFF72FFF7B684033B149072218002E
:1029DC00FFF728FF7B68483318009023DB0508229B
:1029EC001900FFF71FFF7B685033AA490F2218000C
:1029FC00FFF718FF7B685833A6490E221800FFF723
:102A0C0011FF7B686033A14909221800FFF70AFF08
:102A1C007B6868339D490B221800FFF703FF7B6826
:102A2C0070339C490D221800FFF7FCFE7B6878334D
:102A3C0098490C221800FFF7F5FE7B688033934908
:102A4C0008221800FFF7EEFE7B6888338F490A22B4
:102A5C001800FFF7E7FE7B6890338D4904221800BD
:102A6C00FFF7E0FE7B6898338B4900221800FFF7D4
:102A7C00D9FE7B68A033884901221800FFF7D2FEEB
:102A8C007B68A833844902221800FFF7CBFE7B68D1
:102A9C00B03381490F221800FFF7C4FE7B68B833AE
:102AAC007D490E221800FFF7BDFE7B68C0337A49C2
:102ABC000D221800FFF7B6FE7B68C83376490C224E
:102ACC001800FFF7AFFE7B68D03370490F22180057
:102ADC00FFF7A8FE7B68D8336C490E221800FFF76D
:102AEC00A1FE7B68E03369490D221800FFF79AFEBE
:102AFC007B68E83365490C221800FFF793FE7B686E
:102B0C00F03318009023DB0507221900FFF78AFE2B
:102B1C007B68F83318009023DB0506221900FFF7B9
:102B2C0081FE7B68581CFF309023DB0505221900C1
:102B3C00FFF778FE7B680933FF3318009023DB0521
:102B4C0004221900FFF76EFE7B681133FF335049E6
:102B5C0005221800FFF766FE7B681933FF334B49DB
:102B6C0002221800FFF75EFE7B682133FF3318004A
:102B7C009023DB050C221900FFF754FE7B682933E8
:102B8C00FF33454906221800FFF74CFE7B683133B2
:102B9C00FF33414907221800FFF744FE7B683933A5
:102BAC00FF333C4904221800FFF73CFE7B6841339D
:102BBC00FF33384905221800FFF734FE7B68493390
:102BCC00FF33344906221800FFF72CFE7B68513383
:102BDC00FF3331490A221800FFF724FE7B68593372
:102BEC00FF332D490B221800FFF71CFE7B68613365
:102BFC00FF3318009023DB0500221900FFF78EFE2F
:102C0C007B687133FF3318009023DB050122190018
:102C1C00FFF784FE7B688133FF3318009023DB05BC
:102C2C0002221900FFF77AFE7B689133FF331949B2
:102C3C0008221800FFF7F6FD7B689933FF3315491E
:102C4C0009221800FFF7EEFD7B68A133FF33114911
:102C5C000A221800FFF7E6FD7B68A933FF330D4904
:102C6C000B221800FFF7DEFD7B68B133FF33180031
:102C7C009023DB050F221900FFF7D4FD7B681800A9
:102C8C00BD4602B080BDC04600140048001000488C
:102C9C0000080048000C00480004004890B583B0C0
:102CAC0000AF78600C0010001900FB1C221C1A707D
:102CBC00BB1C021C1A707B1C0A1C1A70FB1C1A7899
:102CCC007B6811001800FFF79AFDBB1C1A787B6813
:102CDC0011001800FFF784FC7B1C1A787B6811002C
:102CEC001800FFF7B7FC1823FB181A787B68110043
:102CFC001800FFF7EAFCBD4603B090BD80B584B068
:102D0C0002AF78607B68D86900230093012301220D
:102D1C000021FFF7C3FF7B681A6A7B68DB69190027
:102D2C001000FFF75AFD7B685A6A7B68DB69190053
:102D3C001000FFF752FD7B689A6A7B68DB6919000B
:102D4C001000FFF74AFDBD4602B080BD80B586B0CD
:102D5C0002AF78608C4B5A698B4BFC21C9030A4338
:102D6C005A61894B5B69FB60FB68786800230093B0
:102D7C00002300220121FFF791FF7B6808337A685A
:102D8C0011001800FFF729FD7B6810337A681100D9
:102D9C001800FFF722FD7B6818337A6811001800C1
:102DAC00FFF71BFD7B6820337A6811001800FFF7D2
:102DBC0014FD7B6828337A6811001800FFF70DFDAD
:102DCC007B6830337A6811001800FFF706FD7B68CA
:102DDC0038337A6811001800FFF7FFFC7B6840332A
:102DEC007A6811001800FFF7F8FC7B6848337A68A2
:102DFC0011001800FFF7F1FC7B68903318000023DA
:102E0C000093012301220021FFF748FF7B689833D0
:102E1C001A007B68903319001000FFF7DEFC7B680A
:102E2C00A0331A007B68903319001000FFF7D5FC13
:102E3C007B68A8331A007B68903319001000FFF7E9
:102E4C00CCFC7B68B0331A007B68903319001000FF
:102E5C00FFF7C3FC7B68B8331A007B68903319000A
:102E6C001000FFF7BAFC7B68C0331A007B68903304
:102E7C0019001000FFF7B1FC7B68C8331A007B689F
:102E8C00903319001000FFF7A8FC7B68D0331A00B0
:102E9C007B68903319001000FFF79FFC7B68D833D8
:102EAC001A007B68903319001000FFF796FC7B68C2
:102EBC00E0331A007B68903319001000FFF78DFC8B
:102ECC007B68E8331A007B68903319001000FFF719
:102EDC0084FC7B68F0331A007B6890331900100077
:102EEC00FFF77BFC7B68F8331A007B689033190082
:102EFC001000FFF772FC7B685A1CFF327B68903322
:102F0C0019001000FFF769FC7B680933FF331A00C6
:102F1C007B68903319001000FFF75FFC7B689133DE
:102F2C00FF331A007B68903319001000FFF755FC33
:102F3C007B689933FF331A007B68903319001000BB
:102F4C00FFF74BFC7B68A133FF331A007B6890338F
:102F5C0019001000FFF741FC7B68A933FF331A00FE
:102F6C007B68903319001000FFF737FC7B68B13396
:102F7C00FF33180003230093012301220021FFF7E4
:102F8C008DFEBD4604B080BD0010024080B584B0FB
:102F9C0002AF786008001100FB1C021C1A70BB1CED
:102FAC000A1C1A707B68FA1C12785A737B68BA1C5C
:102FBC0012781A737B6800229A6078680023009359
:102FCC00002300220121FFF769FEBD4602B080BD3F
:102FDC0080B584B002AF78607B6858680223009398
:102FEC00002300220121FFF759FE7B685B68180063
:102FFC00FEF7E2FE7B689A687B685B68190010003C
:10300C00FFF7EBFB7B689B681800FEF7D5FE7B682F
:10301C00DA687B685B6819001000FFF7DEFB7B68E1
:10302C00DB681800FEF7C8FE7B681A697B685B6872
:10303C0019001000FFF7D1FB7B681B691800FEF725
:10304C00BBFE7B681B6808331B687A680221100082
:10305C0098477B6800211800FEF7EFFEBD4602B0D2
:10306C0080BD90B583B000AF78600C0010001900E3
:10307C00FB1C221C1A70BB1C021C1A707B1C0A1C29
:10308C001A70BB1C1A78FB1C19787B681800FFF7A8
:10309C002FFB7B1C1A78FB1C19787B681800FFF738
:1030AC0074FA1823FB181A78FB1C19787B68180023
:1030BC00FFF7A9FA1C23FB181A78FB1C19787B68FC
:1030CC001800FFF7DAFABD4603B090BD80B584B0A6
:1030DC0002AF78601A480323019300230093002366
:1030EC0002220821FFF7BDFF786803230093002319
:1030FC0000220121FFF7D2FD114803230193002385
:10310C000093002302220A21FFF7ABFF7B680833F0
:10311C00180003230093002300220121FFF7BEFDBA
:10312C00074B002208211800FEF7BAFC044B0022C2
:10313C000A211800FEF7B4FCBD4602B080BDC046A3
:10314C000010004880B582B000AF78607B68180032
:10315C00FEF710FC7B681800FFF7B8FFBD4602B005
:10316C0080BD80B584B002AF78607B6814331800E2
:10317C0003230093002301220021FFF78FFD7B68BE
:10318C0004331800FFF7DEFF7B681B6808331B68ED
:10319C007A680221100098477B6800211800FFF71D
:1031AC001EF9BD4602B080BD80B582B000AF78601C
:1031BC000A00FB1C1A707B681B8A9BB21A00FB1C52
:1031CC001B781A411300012213405A1E9341DBB2A3
:1031DC001800BD4602B080BD80B582B000AF7860EB
:1031EC007B681A687B681B7919001000FFF7DCFFFD
:1031FC0003001800BD4602B080BD80B582B000AFA0
:10320C0078607B681B68F8331800FFF7E5FF030054
:10321C001A0001235340DBB21800BD4602B080BD3A
:10322C0080B582B000AF78607B68DB68C033180073
:10323C00FFF7D2FF03001800BD4602B080BD80B579
:10324C0082B000AF78607B68DB68C8331800FFF78A
:10325C00C3FF03001800BD4602B080BD80B584B02A
:10326C0000AF78600F23FB1800221A707B685B6A32
:10327C001800FFF7B1FF03001A0001235340DBB223
:10328C00002B03D00F23FB1803221A707B689B6A58
:10329C001800FFF7A1FF03001A0001235340DBB213
:1032AC00002B03D00F23FB1801221A707B68DB69FB
:1032BC001800FFF791FF03001A0001235340DBB203
:1032CC00002B03D00F23FB1802221A707B681B6A99
:1032DC001800FFF781FF03001A0001235340DBB2F3
:1032EC00002B03D00F23FB1804221A707B685B6A37
:1032FC001800FFF771FF03001A0001235340DBB2E3
:10330C00002B0DD07B681B6A1800FFF765FF0300CC
:10331C001A0001235340DBB2002B01D0012300E043
:10332C000023002B03D00F23FB1806221A707B6896
:10333C009B6A1800FFF750FF03001A00012353404B
:10334C00DBB2002B0DD07B68DB691800FFF744FF64
:10335C0003001A0001235340DBB2002B01D00123E0
:10336C0000E00023002B03D00F23FB1805221A705A
:10337C000F23FB181B781800BD4604B080BD80B528
:10338C0082B000AF78607B681800FFF767FF03001E
:10339C001800BD4602B080BD80B582B000AF786029
:1033AC007B6814331800FFF717FF03001A00012382
:1033BC005340DBB21800BD4602B080BD80B584B06E
:1033CC0000AF78607B685B6A5A1C7B685A620D2080
:1033DC003B187A682921525C1A703B181B78012B18
:1033EC0016D002DC002B05D0D5E0022B1ED0032B0F
:1033FC0030D0D0E07B685B6A042B00D8D4E07B68CB
:10340C0001211800FEF7EBFF7B6800225A62D4E022
:10341C007B685B6A042B00D8C8E07B68022118002B
:10342C00FEF7DDFF7B6800225A62C6E07B685B6AB0
:10343C00042B00D8BCE07B6803211800FEF7CFFFFB
:10344C007B6800225A627B6800229A837B68002288
:10345C001A62B2E07B6828229B5C042B00D9A9E09D
:10346C009A00574BD3181B689F467B680433C921BD
:10347C001800FEF737FC7B680433C9211800FEF7EF
:10348C00CDFB97E04F4B1B681800FEF7F0F9031EBD
:10349C0000D167E07B689B8BC72B00D98AE07B68E7
:1034AC001B6A5A1C7B681A627B685A6AFA231B01D6
:1034BC009A4208D97B681B6808331B687A6802211A
:1034CC001000984776E00E23FB187A68928B1A80CE
:1034DC000523BB607B681800FFF75EFF031E0CD052
:1034EC000E23FB181B889AB2022A00D202239AB22E
:1034FC000E23FB18023A1A800EE07B681B6A042B21
:10350C000AD97B681B6A5A1F7B681A620E217B18CA
:10351C001A887B1801321A807B689B8B0E22BA1892
:10352C0012889A4235D07B680E22BA1812889A8378
:10353C007B6828229B5C002B02D0012B09D028E051
:10354C007B681A1D7B689B8B19001000FEF766FBCD
:10355C001FE07B681A1D7B689B8B19001000FEF71F
:10356C00C1FB16E07B6828229B5C002B02D0012B50
:10357C0007D022E07B680433C9211800FEF74EFB0C
:10358C001BE07B680433C9211800FEF7ABFBC04677
:10359C0013E0C0460EE07B681B6808331B687A6832
:1035AC0002211000984708E0C04606E0C04604E03F
:1035BC00C04602E0C04600E0C046BD4604B080BD37
:1035CC00B07A00082000002080B500AF044B180032
:1035DC00FEF70FFD034B1800FFF7F0FEBD4680BD54
:1035EC00EC010020BC01002080B582B000AF7860F7
:1035FC007B68DB68F0331800FFF7EEFD03001A0060
:10360C0001235340DBB21800BD4602B080BD80B52B
:10361C0082B000AF78607B68DB68E8331800FFF796
:10362C00DBFD03001A0001235340DBB21800BD463A
:10363C0002B080BD80B582B000AF7860344B1B689F
:10364C001800FFF7E4FF031E08D07B681B6861338A
:10365C00FF3304211800FEF76EF817E02C4B1B68A3
:10366C001800FFF7C1FF031E08D07B681B6861338D
:10367C00FF3302211800FEF75EF807E07B681B6839
:10368C006133FF3301211800FEF755F8204B1B68FE
:10369C001800FDF76BFC031E08D07B681B687133A8
:1036AC00FF3302211800FEF746F807E07B681B6821
:1036BC007133FF3301211800FEF73DF87B681800C9
:1036CC00FFF79BFD031E08D07B681B688133FF331B
:1036DC0005211800FEF72FF817E00D4B1B6818009A
:1036EC00FEF775F8031E08D07B681B688133FF3327
:1036FC0002211800FEF71FF807E07B681B68813376
:10370C00FF3300211800FEF716F8BD4602B080BD4D
:10371C002000002080B582B000AF78607B68180074
:10372C00FFF775FF031E05D17B681800FFF75CFFE0
:10373C00031E01D0012300E000231800BD4602B097
:10374C0080BD80B582B000AF78607B68DB68B03339
:10375C001800FFF741FD03001800BD4602B080BD04
:10376C0080B582B000AF78607B681800FFF7E9FF86
:10377C0003001A0001235340DBB2002B0CD07B68F2
:10378C001800FFF74DFD03001A0001235340DBB274
:10379C00002B01D0012300E000231800BD4602B02D
:1037AC0080BD80B582B000AF78607B68DB68B833D1
:1037BC001800FFF711FD03001800BD4602B080BDD4
:1037CC0090B585B000AF78607B68DB6810331C0067
:1037DC007B681800FFF7E5FF03001A000123534034
:1037EC00DBB219002000FEF7BCFC7B68DB680833F9
:1037FC001C007B681800FFF7A4FF03001A000123CC
:10380C005340DBB219002000FEF7ABFC7B68DB6891
:10381C0018331C007B681800FDF7A8FB03001A0086
:10382C0001235340DBB219002000FEF79AFC7B68A1
:10383C00DB681C007B68DB68E8331800FFF7CCFC06
:10384C00030019002000FEF78CFC0F23FB1800224C
:10385C001A707B681800FFF7DAFE031E03D00F23E3
:10386C00FB1801221A707B681800FFF7BDFE031EBF
:10387C000CD07B681800FFF764FF03001A000123CB
:10388C005340DBB2002B01D0012300E00023002BBE
:10389C0003D00F23FB1801221A707B68DB682033DE
:1038AC001A000F23FB181B7819001000FEF759FCA7
:1038BC00BD4605B090BD80B582B000AF78607B6826
:1038CC001800FFF76EFF03001A0001235340DBB210
:1038DC00002B17D07B681800FFF7B1FC03001A000F
:1038EC0001235340DBB2002B0CD07B681800FFF790
:1038FC0011FF03001A0001235340DBB2002B01D04F
:10390C00012300E000231800BD4602B080BD80B545
:10391C0082B000AF78607B681800FFF742FF031E8F
:10392C0007D07B681800FFF70CFF031E01D00123A2
:10393C0000E00023002B03D07B6803225A7416E0AE
:10394C007B681800FFF72DFF031E03D07B68012254
:10395C005A740CE07B681800FFF7F3FE031E03D0CB
:10396C007B6802225A7402E07B6800225A747B68DE
:10397C001800FDF74EFF7B685B7C1800BD4602B05B
:10398C0080BD80B582B000AF78607B681800FFF70F
:10399C00BEFF7B689B7C012B02D0022B28D04FE012
:1039AC007B681800FFF787FF031E10D07B689B68AD
:1039BC0000211800FDF7E4FA7B681800FDF7F1FE12
:1039CC00020013681B680021100098474BE07B68CD
:1039DC001800FDF7E6FE020013681B6804211000B6
:1039EC0098477B689B6801211800FDF7C9FA3AE0FB
:1039FC007B681800FFF7B4FE031E10D07B689B6831
:103A0C0000211800FDF7BCFA7B681800FDF7C9FE11
:103A1C00020013681B6801211000984723E07B68A3
:103A2C001800FDF7BEFE020013681B68042110008D
:103A3C0098477B689B6801211800FDF7A1FA12E0FA
:103A4C007B6800229A747B681800FDF7AAFE0200BE
:103A5C0013681B680421100098477B689B68012140
:103A6C001800FDF78DFABD4602B080BD80B582B05E
:103A7C0000AF78607B681800FFF783FF7B68180045
:103A8C00FFF79EFEBD4602B080BD80B582B000AF90
:103A9C0078607B6800229A747B681800FFF771FFCE
:103AAC007B685B7C1800BD4602B080BD80B582B0DF
:103ABC0000AF78607B68DB681800FFF78DFB0300B4
:103ACC001A0001235340DBB21800BD4602B080BD82
:103ADC0080B582B000AF78607B681800FFF7E6FF16
:103AEC0003001A0001235340DBB2002B01D000234A
:103AFC002AE07B681B681800FFF76EFB03001A00B6
:103B0C0001235340DBB2002B01D001231CE07B6866
:103B1C009B681800FFF760FB03001A000123534059
:103B2C00DBB2002B01D002230EE07B685B6818002F
:103B3C00FFF752FB03001A0001235340DBB2002BAA
:103B4C0001D0032300E004231800BD4602B080BD61
:103B5C0080B500AFBFF34F8F034B044ADA60BFF35D
:103B6C004F8FC046FDE7C04600ED00E00400FA05AB
:103B7C0080B582B000AF78607B681800FCF7AAFCB7
:103B8C007B681C21180003F03DFE7B681800BD46C5
:103B9C0002B080BD80B582B000AF78607B68180041
:103BAC00FCF7DAFE7B681021180003F02BFE7B6813
:103BBC001800BD4602B080BD80B582B000AF786001
:103BCC007B681800FDF748FF7B681C21180003F088
:103BDC0019FE7B681800BD4602B080BD80B582B06E
:103BEC0000AF78607B681800FCF7C8FE7B68142176
:103BFC00180003F007FE7B681800BD4602B080BDBC
:103C0C0080B582B000AF78607B681800FCF75CFF71
:103C1C007B681C21180003F0F5FD7B681800BD467D
:103C2C0002B080BD80B582B000AF78607B681800B0
:103C3C00FDF724FF7B683021180003F0E3FD7B685F
:103C4C001800BD4602B080BD80B500AF034B190013
:103C5C00002001F07FFEBD4680BDC046FFFF000086
:103C6C0080B500AF034B1900012001F073FEBD4677
:103C7C0080BDC046FFFF000080B500AF034B1900AC
:103C8C00012001F0A1FEBD4680BDC046FFFF000033
:103C9C0080B586B002AF78607B685C4A5A607B68FE
:103CAC0000211800FCF73EFB80239B03FB607B6824
:103CBC001B681B68564A944663445A425341DBB214
:103CCC00002B02D08023DB03FB60524BD969FA68CE
:103CDC00504B0A43DA614F4BDB69FA681340BB6007
:103CEC00BB687B681B681B681A6801218A431A60D1
:103CFC007B681B681B681B68012213405A1E93418A
:103D0C00DBB2002BF4D17B681B689868032300930B
:103D1C00012301220221FEF7C1FF7B681B68586852
:103D2C0003230093012301220221FEF7B7FF7B68D6
:103D3C001B689B6801211800FDF716FF7B681B6848
:103D4C005B6801211800FDF70FFF7B681B681B687F
:103D5C001A68802149010A431A607B681B681B683A
:103D6C001B682D4A1A407B681B681B688021490020
:103D7C000A431A607B681B681B68284A9446634494
:103D8C005A425341DBB2002B07D003211720FCF71A
:103D9C0017FB1720FCF788FB14E07B681B681B687B
:103DAC001B4A944663445A425341DBB2002B07D062
:103DBC0003211820FCF704FB1820FCF775FB01E02D
:103DCC0000231EE07B681B681B681A6814490A40B4
:103DDC001A607B681B681B68124A1A617B681B6837
:103DEC001B681A6801210A431A607B681B681B68F0
:103DFC001B68012213405A425341DBB2002BF4D111
:103E0C0001231800BD4604B080BDC04684040020C8
:103E1C0000A8FFBF00100240FFF0FFFF00ACFFBF87
:103E2C00FFFFFDFF271A106080B582B000AF7860ED
:103E3C0039607B683A681A607B681B681B685A4259
:103E4C005341DBB2002B01D000231CE03B685B68C4
:103E5C00002B01D1002316E03B689B68002B01D19D
:103E6C00002310E07B681B68DB685A425341DBB2CD
:103E7C00002B03D07B681B686422DA607B68180017
:103E8C00FFF706FF03001800BD4602B080BD00001E
:103E9C0080B500AF014B1800BD4680BD9C040020CE
:103EAC0080B582B000AFFB1D04221A70124BDB6888
:103EBC0001221340012B03D1FB1D01221A7014E0C7
:103ECC000D4BDB681022134003D0FB1D02221A702D
:103EDC000BE0094BDB680422134003D0FB1D0322CB
:103EEC001A7002E0FB1D04221A70FB1D1B781800CF
:103EFC00BD4602B080BDC0460020024090B585B0E2
:103F0C0000AF78600F217B1804221A707C18FFF721
:103F1C00C7FF0300237008E00F23FC18FFF7C0FF56
:103F2C00030023707B68013B7B600F23FB181B781D
:103F3C00012B02D17B68002BEED17B68002B03D1C7
:103F4C000F23FB1805221A700F23FB181B7818007F
:103F5C00BD4605B090BD0000B0B584B000AF786030
:103F6C000A00BB1C1A800F257B1904221A707C19BD
:103F7C00B0231B031800FFF7C1FF030023707B194C
:103F8C001B78042B18D1104B1A690F4B01210A43D3
:103F9C001A617B68BA1C12881A800F23FC18B02394
:103FAC001B031800FFF7AAFF03002370064B1A69C6
:103FBC00054B01218A431A610F23FB181B7818004B
:103FCC00BD4604B0B0BDC04600200240B0B584B0C0
:103FDC0000AF78600F257B1904221A707C19B0236E
:103FEC001B031800FFF78AFF030023707B191B7853
:103FFC00042B1DD1124B1A69114B02210A431A6171
:10400C000F4B7A685A610E4B1A690D4B40210A43CB
:10401C001A610F23FC18B0231B031800FFF76EFF67
:10402C0003002370064B1A69054B02218A431A615F
:10403C000F23FB181B781800BD4604B0B0BDC0465A
:10404C000020024080B500AF034B1A69024B80215F
:10405C000A431A61BD4680BD0020024080B500AF06
:10406C00064B1B698022134005D0044B044A5A604E
:10407C00024B044A5A60BD4680BDC0460020024037
:10408C0023016745AB89EFCD80B586B000AFF860F2
:10409C00B960FB1D1A70BB685A1CBA6000229A5694
:1040AC0017217B181A707B181B78002B0DD1FB1D68
:1040BC001B78002B07D0FB685A1CFA601722BA1821
:1040CC00127852B21A70FB6808E0FB685A1CFA604E
:1040DC001722BA18127852B21A70DCE71800BD46D3
:1040EC0006B080BD90B585B000AF786039600B2309
:1040FC00FB1830221A700A23FB1823221A707B68D3
:10410C00FB6002E0FB680133FB60FB681B785BB271
:10411C00002BF7D143E0FB68013BFB60FB681B788D
:10412C005BB20B22BA18127852B29A4208D0FB68D2
:10413C001B785BB20A22BA18127852B29A422ED16C
:10414C003B680A21180003F049FC0B001A000924F3
:10415C003B191A703B680A21180003F0B9FB0300E5
:10416C003B603B191B78002B0FD13B68002B0CD10B
:10417C00FB681B785BB20A22BA18127852B29A42C8
:10418C000CD1FB6820221A7009E00923FB181B785C
:10419C003033DBB25AB2FB681A7000E0C046FA68E2
:1041AC007B689A42B7D83B685A425341DBB218003D
:1041BC00BD4605B090BD80B584B000AFF860B96065
:1041CC007A60F9687B6801221800FFF75DFFBA6816
:1041DC007B6811001800FFF785FF03001800BD462F
:1041EC0004B080BDF0B59FB000AFF860B9607A60E4
:1041FC00BB68180003F062FB0200632393429B41EF
:10420C005B42DBB2002B01D0002312E077257C1936
:10421C001026BA197968BB681800FFF7CCFF0300A9
:10422C002370BA19FB6811001800FDF724F97B19EB
:10423C001B781800BD461FB0F0BD000080B584B0DF
:10424C0000AF0200FB1D1A700E217B1806221A808B
:10425C000C203B1806221A80214A7B1812881A80DF
:10426C00204A3B1812881A80FB1D1B78002B21D08A
:10427C00012B2FD10C23FB181B88002B09D10E23EB
:10428C00FB181B88184A934201D1002323E0012319
:10429C0021E00E23FB181B88002B09D10C23FB18E3
:1042AC001B88114A934201D1012314E0002312E030
:1042BC00AB2310E00E23FB181B88002B01D100232D
:1042CC0009E00C23FB181B88002B01D1012302E011
:1042DC00AB2300E000231800BD4604B080BDC046EF
:1042EC0000F0000800F80008EEEE0000B0B586B053
:1042FC0000AF0200BB1D1A803B1D0A1C1A80132341
:10430C00FB1804221A7010217B1800221A802B4BE8
:10431C007B612B4BFB600D007C180120FFF78EFF9F
:10432C000300238029007B181B88AB2B01D1AB2306
:10433C0040E01022BB181B8822498C466344DB02E8
:10434C007B61BB181B880133DB021F4A9446634414
:10435C00FB602AE07B691B68013323D113257C1990
:10436C003B1D1A887B6911001800FFF7F5FD03004F
:10437C0023707B191B78042B04D01323FB181B7898
:10438C009BB217E07B699A1C13257C19BB1D1B88FB
:10439C0019001000FFF7E0FD030023707B191B7858
:1043AC009BB207E07B6904337B617A69FB689A42B4
:1043BC00D0D380231800BD4606B0B0BD0000010864
:1043CC00FF0701081E000100FEEF000890B583B046
:1043DC0000AFFB1D04221A70FC1D144B1800FFF7D4
:1043EC00F5FD03002370FB1D1B78042B02D0FB1D75
:1043FC001B7817E0FC1D0D4B00211800FFF7ACFDDE
:10440C0003002370FB1D1B78042B02D0FB1D1B78B3
:10441C0008E0FC1D064B1800FFF7D8FD03002370C5
:10442C00FB1D1B781800BD4603B090BD00F00008C2
:10443C0000F80008B0B586B000AF02003960BB1DB3
:10444C001A800E217B1800221A800C23FB18274A95
:10445C001A801623FB1801221A80254B3B61244B32
:10446C00BB600D007C180020FFF7E8FE03002380E2
:10447C0029007B181B88AB2B01D1AB2331E00E221A
:10448C00BB181B881B498C466344DB02BB60BB1802
:10449C001B880133DB02184A944663443B6118E0E5
:1044AC003A690C217B1812881A807A18BB1D128865
:1044BC001B889A420AD13B69023B1B889AB23B6823
:1044CC001A801623FB1800221A8007E03B69043B74
:1044DC003B61BB6802333A699A42E1D81623FB1858
:1044EC001B881800BD4606B0B0BDC046555500002F
:1044FC00000001081E000100FEEF0008B0B588B0F6
:10450C0000AF0200BB1D1A803B1D0A1C1A8015232C
:10451C00FB1804221A70644BFB61644BBB611221C3
:10452C007B1800221A801623FB1800221A801023F5
:10453C00FB1800221A800E23FB1800221A800D0093
:10454C007C180020FFF77AFE0300238029007B18DB
:10455C001B88012B04D1564BFB61564BBB610BE006
:10456C001223FB181B88002B04D1524BFB61504BC0
:10457C00BB6101E0AB2392E015257C194E4AFB6927
:10458C0011001800FFF7E8FC030023707B191B785F
:10459C00042B04D01523FB181B789BB27FE010254D
:1045AC007C193B1D1A88BB1D1B8811001800FFF7D6
:1045BC009DFE030023807B191B88042B03D0102342
:1045CC00FB181B886BE01623FB1800221A803AE0BC
:1045DC001623FB181A88394B5200D35ABA1D12886D
:1045EC009A422AD01623FB181A88344B5200D35AFD
:1045FC000E257C19324A11001800FFF71BFF03002F
:10460C0023807B191B88012B17D01623FB181A88C3
:10461C002A4B5200D25A2A4B1B8810257C191900A0
:10462C001000FFF763FE030023807B191B88042B0B
:10463C0003D01023FB181B8831E016217B181A8835
:10464C007B1801321A801623FB181B88092BBFD943
:10465C0015257C19BB691800FFF7B8FC0300237003
:10466C007B191B78042B04D01523FB181B789BB2E9
:10467C0015E015257C19FB6900211800FFF76CFC6F
:10468C00030023707B191B78042B04D01523FB1813
:10469C001B789BB203E01523FB181B789BB2180008
:1046AC00BD4608B0B0BDC046FF03010800000108BC
:1046BC0000F0000800F80008EEEE00000C040020EA
:1046CC0008040020B0B584B000AF0200BB1D1A80F6
:1046DC003B1D0A1C1A800E257B1900221A807C199E
:1046EC003B1D1A88BB1D1B8811001800FFF7FEFD2F
:1046FC00030023807B191B88802B0BD10E23FC1805
:10470C003B1D1A88BB1D1B8811001800FFF7F6FE15
:10471C00030023800E23FB181B881800BD4604B031
:10472C00B0BDB0B584B000AF0200FB1D1A703B1DCC
:10473C000A1C1A80FB1D1B780A2B01D9002316E0DA
:10474C00FFF78CFCFB1D1B789AB20E257C193B1DC8
:10475C001B8819001000FFF7B5FF03002380FFF73B
:10476C0071FC7B191B88043B5A425341DBB2180085
:10477C00BD4604B0B0BD80B582B000AF0200BB1D19
:10478C001A80BB1D1B8819000420FFF7CAFFBD4609
:10479C0002B080BD80B582B000AF78607B685B886A
:1047AC001800FFF7E8FFBD4602B080BD80B582B0AF
:1047BC0000AF78600A00FB1C1A707B681800FFF7CA
:1047CC0064F97B68FA1C12781A747B681B7C9BB2A8
:1047DC0019000320FFF7A5FF7B681800FCF7A0FC6D
:1047EC00BD4602B080BD80B582B000AF78600A00D3
:1047FC00FB1C1A707B681B6818007B681B681B68A5
:10480C0008331B68FA1C1278110098477B685B68A8
:10481C0018007B685B681B6808331B68FA1C1278ED
:10482C00110098477B689A68FB1C1B7819001000D4
:10483C00FCF738FCFB1C1B78002B06D07B681A7C21
:10484C007B6811001800FFF7B1FF01231800BD466B
:10485C0002B080BD80B582B000AF7860064B1A689C
:10486C007B681A60054B1B6800211800FFF7BBFF23
:10487C00BD4602B080BDC0463400002020000020A0
:10488C00B0B584B000AF02003960FB1D1A70FB1D7F
:10489C001B780A2B01D9002324E0FB1D1B789BB24B
:1048AC000E257C193A6811001800FFF7C3FD0300B0
:1048BC0023807B191B88002B01D1012312E00E23CE
:1048CC00FB181B88012B0CD13B6800221A803B681B
:1048DC001A88FB1D1B7811001800FFF722FF03003C
:1048EC0000E000231800BD4604B0B0BD80B584B014
:1048FC0000AF0200FB1D1A703B1D0A1C1A800E2310
:10490C00FA18FB1D1B7811001800FFF7B9FF030004
:10491C001A0001235340DBB2002B01D0002316E018
:10492C000E23FB181A883B1D1B88D3189AB2FB1D4B
:10493C001B7811001800FFF7F4FE03001A00012386
:10494C005340DBB2002B01D0002300E00123180000
:10495C00BD4604B080BD80B582B000AF78607B6886
:10496C009B7C022B03D001210220FFF7BFFF7B6849
:10497C0002229A747B681800FFF703F87B685B7C53
:10498C001800BD4602B080BD80B582B000AF786023
:10499C007B689B7C012B03D001210220FFF7A6FF33
:1049AC007B6801229A747B681800FEF7EAFF7B682B
:1049BC005B7C1800BD4602B080BD80B584B000AFF2
:1049CC000200FB1D1A700E23FA18FB1D1B78110038
:1049DC001800FFF755FF031E03D00E23FB181B888E
:1049EC0001E001235B421800BD4604B080BD00000D
:1049FC0080B584B000AF78600420FFF7DEFF0200C2
:104A0C000E217B181A807B181B88002B05D00E23D7
:104A1C00FB181B88064A934203D1064B1800FFF77C
:104A2C00AAFE7B681800FCF7F0F8BD4604B080BD08
:104A3C00FFFF00001915000080B584B000AFF860CE
:104A4C00B9607A603B60FB68BA681A60FB687A6888
:104A5C005A60FB683A689A60FB680C331800FFF7E1
:104A6C00C7FFFB68242200219954BD4604B080BDC9
:104A7C0080B584B000AFF860B9607A603B60FB68C9
:104A8C00BA689A60BB691800FBF757FD0200FB6817
:104A9C00DA60FB687A681A61FB683A685A61BB692C
:104AAC001800FBF740FD0200FB689A62FB683A6A4B
:104ABC00DA61FB687A6A1A62FB68BA6A5A62FB6846
:104ACC001B691800FEF71AF9FB68FA699A61FB6812
:104ADC009869FB689968FB681A69FB68DB68FFF7E3
:104AEC00ABFFFB68DB69002200211800FEF74EFAD1
:104AFC00FB681B6A002200211800FEF747FAFB68CE
:104B0C005B6A002200211800FEF740FABD4604B093
:104B1C0080BD000080B582B000AF7860114B1A6880
:104B2C007B68DA607B681B681800FBF75FFE7B68AC
:104B3C005B681800FDF74FF97B689B681800FCF761
:104B4C00CBFA0320FFF739FF0300DAB27B681A7443
:104B5C007B681800FCF7E4FA01231800BD4602B08C
:104B6C0080BDC0463400002080B584B000AF7860B2
:104B7C007B681800FCF756F803001A000123534019
:104B8C00DBB2002B01D000230CE00420FFF715FF53
:104B9C000300FB607B685A88FB689BB2D31A5A42AD
:104BAC005341DBB21800BD4604B080BD80B582B065
:104BBC0000AF78607B681800FCF734F8031E09D04E
:104BCC007B681800FFF7D0FF031E01D0022302E020
:104BDC00012300E000231800BD4602B080BD80B563
:104BEC0082B000AF78600A00FB1C1A70FB1C1B78AB
:104BFC00002B06D0FB1C1A787B6811001800FCF700
:104C0C00F8F87B681800FFF7D1FF03001800BD46C9
:104C1C0002B080BD90B585B000AF0A217B1806228A
:104C2C001A8008203B1806221A800E23FB1800223B
:104C3C001A80BB1D00221A803B1D00221A800C23F7
:104C4C00FB18012252421A80BC4A7B1812881A8027
:104C5C00BB4A3B1812881A807B181B88B94A9342AE
:104C6C004FD0B94A934203D0002B00D1F5E09FE11D
:104C7C000823FB181B88002B0FD1B04B1800FFF733
:104C8C00A5F903001A00BB1C1A80BB1C1B88042B43
:104C9C0000D19AE1BB1C1B889DE10823FB181B88E3
:104CAC00A84A93421FD1A54B1800FFF78FF90300B8
:104CBC001A00BB1C1A80BB1C1B88042B02D0BB1C0B
:104CCC001B8888E19E4B00211800FFF745F9030073
:104CDC001A00BB1C1A80BB1C1B88042B00D174E16E
:104CEC00BB1C1B8877E1FFF771FB03001A00BB1C90
:104CFC001A80BB1C1B88042B00D166E1BB1C1B88D3
:104D0C0069E10823FB181B88002B00D071E00E23EF
:104D1C00FB1800221A8047E08C4B1B889AB20E239A
:104D2C00FB1819888A4B4900CB5A9A4205D10C239F
:104D3C00FB180E22BA1812881A800E23FB181A8838
:104D4C000C23FB1800215B5E9A4227D00E23FB1824
:104D5C001A887F4B5200D35A3C1D7E4A1100180012
:104D6C00FFF768FB030023803B1D1B88012B15D02C
:104D7C000E23FB181A88764B5200D25A754B1B889F
:104D8C00BC1D19001000FFF7B1FA03002380BB1DF6
:104D9C001B88042B02D0BB1D1B881CE10E217B1829
:104DAC001A887B1801321A800E23FB181B88092BDA
:104DBC00B2D9624B00211800FFF7CEF803001A009D
:104DCC00BB1C1A80BB1C1B88042B02D0BB1C1B8871
:104DDC0001E15B4B1800FFF7F9F803001A00BB1C4C
:104DEC001A80BB1C1B88042B00D1F0E0BB1C1B8859
:104DFC00F1E00823FB181B88534A93421FD1504BF8
:104E0C001800FFF7E3F803001A00BB1C1A80BB1C48
:104E1C001B88042B02D0BB1C1B88DCE0474B0021F9
:104E2C001800FFF799F803001A00BB1C1A80BB1C72
:104E3C001B88042B00D1CAE0BB1C1B88CBE0FFF7FE
:104E4C00C5FA03001A00BB1C1A80BB1C1B88042B60
:104E5C0000D1BCE0BB1C1B88BDE00823FB181B88E1
:104E6C00002B0DD1FFF7B2FA03001A00BB1C1A80FD
:104E7C00BB1C1B88042B00D1ABE0BB1C1B88AAE01D
:104E8C000823FB181B88304A93420FD12C4B180077
:104E9C00FFF79CF803001A00BB1C1A80BB1C1B8874
:104EAC00042B00D195E0BB1C1B8894E00E23FB184F
:104EBC0000221A8058E0284B1B889AB20E23FB184C
:104ECC001988234B4900CB5A9A4205D10C23FB1865
:104EDC000E22BA1812881A800E23FB181A880C237B
:104EEC00FB1800215B5E9A4238D00E23FB181A88FF
:104EFC00174B5200D35A3C1D164A11001800FFF7ED
:104F0C0099FA030023803B1D1B88012B26D00E230E
:104F1C00FB181A880E4B5200D25A0E4B1B88BC1D24
:104F2C0019001000FFF7E2F903002380BB1D1B885A
:104F3C00042B13D0BB1D1B884DE0C04600F00008AD
:104F4C0000F80008EEEE0000FFFF000006F000087D
:104F5C000C0400200804002006F800080E217B1821
:104F6C001A887B1801321A800E23FB181B88092B18
:104F7C00A1D91B4B00211800FEF7EEFF03001A000D
:104F8C00BB1C1A80BB1C1B88042B02D0BB1C1B88AF
:104F9C0021E0144B1800FFF719F803001A00BB1C92
:104FAC001A80BB1C1B88042B13D0BB1C1B8812E063
:104FBC00FFF70CFA03001A00BB1C1A80BB1C1B88E1
:104FCC00042B07D0BB1C1B8805E0C04602E0C04682
:104FDC0000E0C04604231800BD4605B090BDC04695
:104FEC0000F8000800F0000880B582B000AFFFF7B1
:104FFC0035F8FFF70FFE03001A00FB1D043A51426F
:10500C004A411A70FFF71EF8FB1D1B781800BD46AD
:10501C0002B080BD80B586B000AFF8607A603B60AE
:10502C000B203B180A1C1A70FB6800225A74FB6890
:10503C003A1812781A74FB687A68DA60FB683A6876
:10504C005A60184B1B68002B0AD1164BFA681A6071
:10505C00144B1B6800229A60FB6802225A741BE0F6
:10506C00104B1B687B617B699B68002B07D07A69AE
:10507C00FB689A4210D07B699B687B61F3E77A6985
:10508C00FB689A4208D0FB6800229A607B69FA6838
:10509C009A60FB6802225A74FB681800BD4606B081
:1050AC0080BDC0460404002080B582B000AF164B12
:1050BC001B78DBB2002B24D1144B1B687B607B6804
:1050CC00002B1ED07B685B7C012B16D17B681B7C74
:1050DC00012B0CD0022B10D17B685A687B681A60AC
:1050EC007B6802225A747B68DB68984705E07B6812
:1050FC0000225A747B68DB6898477B689B687B60EE
:10510C00DDE7BD4602B080BD38000020040400205D
:10511C0080B584B000AF7860164B1A687B68D218E3
:10512C00144B1A60144B1B68FB60FB68002B1DD0E2
:10513C00FB685B7C022B15D1FB681B687A689A4272
:10514C009B415B42DBB2002B06D0FB681A687B6884
:10515C00D21AFB681A6005E0FB6801225A74FB68DE
:10516C0000221A60FB689B68FB60DEE7BD4604B05A
:10517C0080BDC046000400200404002080B500AFB0
:10518C000120FFF7C5FFBD4680BD80B584B000AFE0
:10519C0078607B689B68FB607B685B68BB60BA6807
:1051AC00FB689A4203D3BA68FB68D31A05E07B68A4
:1051BC001A68FB68D21ABB68D3181800BD4604B035
:1051CC0080BD80B586B000AF78607B689B687B61E2
:1051DC007B685B683B617A693B699A4202D17B6868
:1051EC009B8A17E07B68DA687B69591C7961D21855
:1051FC000F23FB1812781A707B681B687A699A4225
:10520C0001D27A6900E000227B689A600F23FB18B8
:10521C001B789BB21800BD4606B080BD80B584B02B
:10522C0000AF78607B6804331800FCF762F9031E4A
:10523C0011D07B6804331800FFF7C3FF03001A007A
:10524C000F217B181A707B181B78002BEAD00F23C8
:10525C00FB181B7800E000231800BD4604B080BD8D
:10526C0080B582B000AF78607B681800FFF7D6FF7E
:10527C0003001800BD4602B080BD80B584B000AFFD
:10528C0078600A00FB1C1A707B685B68FB607B68AB
:10529C009B68BB60FB680133BA689A4201D100235A
:1052AC001EE0BB68002B07D17B681B68013BFA68CA
:1052BC009A4201D1002313E07B68DA68FB68591C21
:1052CC00F960D318FA1C12781A707B681B68FA689C
:1052DC009A4201D2FA6800E000227B685A600123EE
:1052EC001800BD4604B080BD80B588B000AFF86032
:1052FC00B9607A60FB681800FBF790FF0100BA6890
:10530C0000238A425B41DBB2002B01D0002323E057
:10531C00FB681800FBF778FF0300BB61BB68BA6938
:10532C0053437B610023FB61FA69BB699A4212D239
:10533C00FB681800FAF7A5FF01007A69FB69D3181E
:10534C00CB181A787B6811001800FFF796FFFB69E1
:10535C000133FB61E8E701231800BD4608B080BDAE
:10536C0080B584B000AF78607B681B681B68FB60FD
:10537C007B685B68BB60FB689B69102213405A1EFC
:10538C009341DBB2002B0AD07B6805211800FAF799
:10539C00C9FFFB68DB6910221A43FB68DA61FB6802
:1053AC009B69042213405A1E9341DBB2002B09D097
:1053BC007B681B681B685B6ADAB2BB68110018005B
:1053CC00FFF75BFFFB689B69022213405A1E934157
:1053DC00DBB2002B09D0BB681800FFF7F2FE03000C
:1053EC00DAB27B681B681B689A62FB689B69202297
:1053FC0013405A1E9341DBB2002B0ED0FB68DB69C5
:10540C0020221A43FB68DA617B6800211800FAF746
:10541C0089FF7B681800FAF79BFFBD4604B080BD7E
:10542C0080B500AF024B1800FFF79AFFBD4680BD58
:10543C009C04002080B500AF024B1800FFF790FFD2
:10544C00BD4680BD9C04002080B584B000AF786060
:10545C0039603B68002B01D1002323E00F23FB189C
:10546C0001221A703B681800FCF743F8031E16D093
:10547C003B681800FFF7A5FE0300DAB27B68110049
:10548C001800FFF7FAFE03001A0001235340DBB2A9
:10549C00002BE7D00F23FB1800221A70E2E70F2332
:1054AC00FB181B781800BD4604B080BD80B584B0D5
:1054BC0000AF786039607B681800FAF717FF031E9D
:1054CC0001D0002366E07B6801211800FAF72AFF5F
:1054DC007B685B681800FAF766FF7B685B683A6864
:1054EC0011001800FFF7B0FF7B681B681B685A6837
:1054FC002A490A405A607B681B681B685A6828490D
:10550C000A405A607B681B681B685B689B0A9A029E
:10551C007B689B899BB219007B681B681B680A43DC
:10552C005A607B681B681B685A681E490A405A609F
:10553C007B681B681B685A68802189040A435A607F
:10554C007B685B681800FFF720FE0300FB60FB68BC
:10555C00FF2B01D9FF23FB607B681B681B685B6812
:10556C00114A13401900FB681A047B681B681B68FE
:10557C000A435A607B681B681B681A6822210A431D
:10558C001A607B681B681B685A68802189010A4372
:10559C005A6001231800BD4604B080BDFFFBFFFF1D
:1055AC00FFF7FFFFFFEFFFFFFFFF00FF80B582B0AB
:1055BC0000AF786008001100FB1C021C1A70BB1CA9
:1055CC000A1C1A707B689B681800FAF7ECFE7B6863
:1055DC009A68FB1C1B78002B01D0002300E04023B1
:1055EC0019001000FFF749FE7B689A68BB1C1B78FA
:1055FC0019001000FFF741FE7B68DA687B689B6836
:10560C0019001000FFF752FF03001800BD4602B04E
:10561C0080BD80B582B000AF78600A00FB1C1A70A8
:10562C00FB1C1A787B6801211800FFF7BFFF0300F1
:10563C001800BD4602B080BD80B584B000AF786064
:10564C0008001100FB1C021C1A70BB1C0A1C1A70EF
:10565C00FB1C1B78102B01D9002324E00023FB60DA
:10566C00BB1C1B78022B06D0032B07D0012B08D1B7
:10567C004023FB6007E01023FB6004E05023FB6039
:10568C0001E00023FB60FB68DAB2FB1C1B781343C0
:10569C00DBB2802252421343DAB27B68110018004D
:1056AC00FFF7B7FF03001800BD4604B080BD80B5FE
:1056BC0082B000AF78600A00FB1C1A70FB1C1A78D1
:1056CC007B6811001800FFF7A4FF03001800BD460B
:1056DC0002B080BD80B582B000AF786039603A68A6
:1056EC007B6811001800FFF7E1FE03001800BD46AF
:1056FC0002B080BD80B582B000AF786039607B6845
:10570C009B681800FAF74FFE7B689B6840211800D5
:10571C00FFF7B3FD7B6858687B689A683B68190093
:10572C00FFF7E2FD03001A0001235340DBB2002B0C
:10573C0001D0002308E07B68DA687B689B6819005D
:10574C001000FFF7C7FF03001800BD4602B080BD74
:10575C0080B584B000AF78600F217B187A68127E18
:10576C001A707B181B78042B55D89A00314BD31820
:10577C001B689F467B681800FAF7C6FD03001A00E9
:10578C0001235340DBB2002B49D07B680221180067
:10579C00FFF78DFF7B6802221A7647E07B681800C2
:1057AC00FAF7B2FD03001A0001235340DBB2002BC1
:1057BC0037D07B6800211800FFF79CFF7B68032221
:1057CC001A7633E07B681800FAF79EFD03001A0086
:1057DC0001235340DBB2002B25D07B680122002132
:1057EC001800FFF729FF7B6804221A761EE07B68FD
:1057FC001800FAF789FD03001A0001235340DBB2AD
:10580C00002B12D07B6801211800FFF773FF7B6817
:10581C0000221A760AE07B6800221A7606E0C0465F
:10582C0004E0C04602E0C04600E0C046BD4604B0FD
:10583C0080BDC046C47A000880B500AF034B1B681E
:10584C001800FFF785FFBD4680BDC046AC040020A4
:10585C0080B500AFFFF7F0FFBD4680BD80B582B0CC
:10586C0000AF78600A00FB1C1A70FB1C1B78002B25
:10587C0007D07B681A1DFB1C1B7819001000FFF762
:10588C00FCFCBD4602B080BDB0B584B000AF786002
:10589C000F257C197B681800FDF771FD0300237040
:1058AC001B4B1B787A1912789A422DD0184B1B7807
:1058BC00052B09D10F23FB181B78012B1FD00F23AD
:1058CC00FB181B78022B1AD0114B1B78062B09D115
:1058DC000F23FB181B78042B11D00F23FB181B78FC
:1058EC00032B0CD00F23FB181B78002B07D00F2396
:1058FC00FB181A787B6811001800FFF7AFFF044BF8
:10590C000F22BA1812781A70BD4604B0B0BDC0464A
:10591C00B000002080B584B000AFF860B9607A6048
:10592C00FB680B4A1A61FB68094A9A82FB687A6821
:10593C001A60FB68BA68DA60FB6800229A60FB6840
:10594C0000225A60FB681800BD4604B080BDC046FA
:10595C0000FFFFFF80B582B000AF786039607B68D4
:10596C00012B15D13B68114A934211D1104A1148B1
:10597C0096230221FFF74EFB0F4B104802221021F9
:10598C00FAF78AFC0E490F4B25221800FFF7C2FFCD
:10599C007B68002B07D13B68044A934203D1074B29
:1059AC001800FAF797FDBD4602B080BDFFFF00005E
:1059BC005D58000834050020F00400201805002074
:1059CC00B0040020D804002080B582B000AF78600D
:1059DC0039607B68012B0DD13B68084A934209D191
:1059EC00074B1800FAF7C7FC0649074B642218004E
:1059FC00FFF790FFBD4602B080BDC046FFFF000020
:105A0C009C040020200400208404002080B586B073
:105A1C0000AFF860B9607A603B60FB680433F968EA
:105A2C0004221800FFF776FFFB68BA68DA61FB689E
:105A3C007A681A62FB683A685A62FB683A6A9A6238
:105A4C001623FB1800221A801623FB181B88032B25
:105A5C000BD816203B181B88FA680021D1543B1830
:105A6C001A883B1801321A80EEE7FB681800BD4615
:105A7C0006B080BD80B500AF034B1900002000F0CC
:105A8C0017F8BD4680BDC046FFFF000010B5FFF7FC
:105A9C00F1FFFEF7D9F810BD80B500AF034B19002C
:105AAC00012000F005F8BD4680BDC046FFFF000098
:105ABC0090B585B002AF786039607B68012B6FD1EF
:105ACC003B68464A93426BD1454B1800DC235B0084
