:020000040800F2
:1000000000400020E3000008E1000008C9000008EB
:1000100000000000000000000000000000000000E0
:10002000000000000000000000000000C700000801
:100030000000000000000000C5000008990600084C
:10004000E7000008E7000008E7000008E7000008F4
:10005000E7000008E7000008E7000008E7000008E4
:10006000E7000008E7000008E7000008E7000008D4
:10007000E7000008E7000008E7000008E7000008C4
:10008000E7000008E7000008E7000008E7000008B4
:10009000E7000008E7000008E7000008110B00086F
:1000A000010B0008E7000008E7000008E10700086E
:1000B000E7000008E7000008E7000008E700000884
:1000C0005FF808F1FEE7FEE704207146084202D01F
:1000D000EFF3098001E0EFF3088071466F4A1047A3
:1000E000FEE76F480047FEE7FEE770B582B0594B68
:1000F0001A6801210A431A605A68574802405A6038
:100100001A68564802401A601A68554802401A6038
:100110005A68544802405A60DA6A0F208243DA6211
:100120001A6B514802401A635A6B8A435A63002281
:100130009A60009201921968802252020A431A6062
:10014000444B1B688022920213400193009B0133B1
:100150000093019B002B04D1009AA023DB019A425B
:10016000EED13C4B1B689B0347D501230193019BB8
:10017000012B45D03D4A3E4B9A420ED21A00013A1D
:100180003A4BD21A92080132920000233949C858DA
:100190003649C85004339342F8D1374A374B9A4214
:1001A0000BD2130035490139891A032291431A1DD4
:1001B0008918002204C38B42FBD105F035FE304B79
:1001C000304A9B1A9E10002B06DD1500002408CD36
:1001D00098470134A642FADC2B4B2C4A9B1A9E10FE
:1001E000002B06DD1500002408CD98470134A642F7
:1001F000FADC2749012005F029F800230193B6E72E
:10020000244B11221A60134B5A685A605A685A607C
:100210005A6821490A405A605968882252030A43A1
:100220005A601968802252040A431A60094B1B68FD
:100230009B01FBD5074B5A6803218A435A605968D2
:1002400002220A435A60034B5A680C231340082BBE
:10025000F9D18FE7001002400CB8FF08FFFFF6FE4F
:10026000FFFFFBFFFFFFC0FFACFEFFFF0000002011
:10027000A400002018650008A4000020200500202C
:10028000CC020008CC020008D0020008CC02000812
:100290003800002000200240FF7FC0FFE900000876
:0402A000EB00000867
:1002A4001865000800000020A4000020186500085C
:1002B4000000000000000000A40000202005002031
:1002C4000000000000000000A5510008895100084A
:1002D400704710B5072A1CD807290AD8036A890071
:1002E400C9B207248C40A3438A401A430262012006
:1002F40010E00B00083B072B0DD8436A3831890006
:10030400C9B207248C40A3438A401A4342620120A5
:1003140000E0002010BD0120FCE70000094BDB6871
:100324000120DB070AD4074BDB68DB0607D4054B47
:10033400DB680330184043425841033070470220C1
:10034400FCE7C0460020024010B50400FFF7E6FFBA
:1003540001280AD1002C06D0FFF7E0FF013C012858
:1003640003D1002CF8D1052001E0002C00D010BDF1
:100374000520FCE7F8B504000D00B0200003FFF7EA
:10038400E3FF042800D0F8BD064E336901273B4340
:1003940033612580AC300003FFF7D6FF3369BB43DC
:1003A4003361F0E70020024070B50400B020000380
:1003B400FFF7CAFF042800D070BD094D2B6902263F
:1003C40033432B616C612B69402213432B61AC30A6
:1003D4000003FFF7B9FF2B69B3432B61ECE7C04679
:1003E40000200240024A136980210B4313617047C5
:1003F40000200240044B1B691B0604D5024B034A30
:100404005A60034A5A60704700200240230167453E
:10041400AB89EFCDF0B5C64600B50C00160000223E
:1004240082560023002A1AD0711CC918F2540133D1
:10043400C256002AF8D100230B700023F35635006E
:10044400002B06D001350023EB56002BFAD1AE4227
:100454000CD360426041C0B204BC9046F0BD310090
:10046400E9E730372F700400AE42F2D0013D00239B
:10047400EB569846302B01D0232BF5D10A212000CE
:1004840005F01CFECFB20A21200005F091FD002FDB
:10049400E7D1092CE5D804004346232BE4D1033BE0
:1004A4002B70E1E70200144B188880B2134B1B88B1
:1004B4009BB2002A13D0012A1AD1002B06D1104B6B
:1004C4009C466044431E984180B212E0002811D13A
:1004D4000B4A944663445842584180B209E00028CC
:1004E40007D0584258414042A9239843AB3000E01A
:1004F40000207047AB20FCE700F0000800F800087B
:100504001211FFFF70B505000E000120FFF7CAFFAE
:100514000300AB2820D0124BC418E402C002114BD4
:100524009C466044844219D22368013305D00434C4
:10053400A04210D923680133F9D131002000FFF71C
:1005440019FF042801D083B206E0A01C2900FFF79C
:1005540011FF83B200E08023180070BD8023FBE705
:100564001E000100FEF7000810B50848FFF71CFF45
:10057400042800D010BD00210448FFF7FBFE042826
:10058400F8D10348FFF710FFF4E7C04600F0000875
:1005940000F8000870B505000C000020FFF782FF8A
:1005A4000300AB2818D0C3020E4A94466344C00229
:1005B4000D4A94466044834212D91A8892B29542F5
:1005C40006D0043B834209D91A8892B2AA42F8D1D0
:1005D400023B1B8823800023180070BD0123FBE726
:1005E4000123F9E7FEF7000802F00008F8B504005B
:1005F4000D00FFF787FF802800D0F8BD0020FFF72B
:1006040051FF01280BD0002839D11E4F1E4E1F491F
:100614003000FFF7AFFE042804D080B2EDE71A4F94
:10062400184EF4E729002000FFF76CFF0428E4D1FA
:100634000A2503E0013DADB2002D0FD0002CF9D006
:1006440013490020FFF7A6FF0128F3D0104B1988A7
:100654000020FFF757FF0428ECD0CEE73800FFF75F
:10066400A3FE042801D080B2C7E700213000FFF7C1
:1006740081FE03000420042BBFD098B2BDE7AB2059
:10068400BBE7C04600F0000800F80008EEEE0000EA
:10069400A40000200C4A1368013313600B4B1B6841
:1006A400002B07D1704701225A7400221A609B68FC
:1006B400002BF7D05A7C022AF9D11A68012AF2D900
:1006C4001A68013A1A60F2E7A80000200805002021
:1006D40010B5002444740174C26043600C4B1B6861
:1006E400002B06D09A68002A0AD083420FD0130048
:1006F400F8E7074B1860230084600233437406E074
:10070400834204D00022826098600223437410BDA7
:100714000805002010B5012800D010BD104B9942E7
:10072400FBD196230F4A02210F48FFF7D1FF0F4B4D
:100734000F4A08321A6010229A600E3ADA600D4AA3
:100744005A6120221A6100225A601A765A760A4B9C
:10075400252119600949D9609A605A60DDE7C046CD
:10076400FFFF00001D0A0008C404002088010020C7
:100774009C6400083801002018010020600100205A
:10078400826843689A420BD0531CC1688C46624409
:10079400127801688B4289410B40836010007047D6
:1007A400FF200002FBE710B542688468531CA34293
:1007B40010D0002C03D10468013C94420CD0C468CE
:1007C400A44662441170026893429241134043600C
:1007D400012010BD0020FCE70020FAE770B50023DB
:1007E4005C68E56926686B0703D5236A0422134312
:1007F4002362AB0703D5236A022213432362AB06A9
:1008040005D5A18C89B200231B78022B08D12B06B5
:1008140001D5330609D46B0601D573062BD470BDFC
:10082400C9B2D420FFF7BFFFF1E700231B78022BE6
:100834000AD023688022934323606B0623D4236861
:10084400402213432360EAE7D2335A689B689A42F2
:10085400EFD023684022934323602368403213433C
:100864002360D420FFF78CFF2085D8E710330122C2
:100874009A408A61D3E700231B78022B13D02368A4
:100884008022934323602368402293432360002300
:100894001B709A681878116813790228E6D101222E
:1008A4009A408A61BBE7D4235A689B689A42D0D1A4
:1008B4002368802293432360E5E7000070B50400B9
:1008C4000D00837B0020002B00D070BD0133A37387
:1008D400636800225A609A60666800290ED04B68EB
:1008E4008A689A420AD02800FFF74AFFC1B2300052
:1008F400FFF759FF6A68AB689A42F4D123681A6813
:10090400536823490B40536023681A68536821498C
:100914000B40536023681B685B68A28921680968DF
:100924009B0A9B0213434B6023681A6853681A4955
:100934000B40536023681A68516880239B040B435F
:10094400536061688A684B689A421CD89B1A226873
:100954001268526821680968FF2B00D9FF231B0421
:100964000E48024013434B6023681A68136822211F
:100974000B43136023681A68516880239B010B435F
:1009840053600120A1E709685B189B1ADFE7C046A2
:10099400FFFBFFFFFFF7FFFFFFEFFFFFFFFF00FF7E
:1009A400F0B583B005000C00836800225A609A6099
:1009B40040218068FFF7F7FE6E68F3689C4214D20A
:1009C400B7687C43002F0AD0AB6801933F19736961
:1009D400195D0198FFF7E7FE0134BC42F7D1A9681D
:1009E400E868FFF76BFF03B0F0BD0020FBE770B5CC
:1009F40004000D00836800225A609A600021806818
:100A0400FFF7D1FE2900A068FFF7CDFEA168E068DA
:100A1400FFF754FF70BD000010B51C4B1C68237E0B
:100A2400042B2FD89B001A4AD3589F46E3689B7B1C
:100A3400002B29D102212000FFF7D9FF02232376BE
:100A440022E0E3689B7B002B1ED100212000FFF7EE
:100A5400A7FF0323237617E0E3689B7B002B13D1C6
:100A6400C0212000FFF7C3FF042323760CE0E368D2
:100A74009B7B002B08D101212000FFF791FF00236D
:100A8400237601E00023237610BDC046AC0000208D
:100A9400CC60000870B5050003681C684668A3694B
:100AA400DB0605D505238373E36910221343E36151
:100AB400A3695B0712D4A3699B0717D4A3699B0698
:100AC4000BD5E36920221343E3610023AB73A868C9
:100AD400002802D003681B68984770BD2B681B6808
:100AE400596AC9B23000FFF75EFEE4E73000FFF751
:100AF40047FE2B681B68C0B29862DFE710B5024856
:100B0400FFF7C8FF10BDC0467402002010B50248AC
:100B1400FFF7C0FF10BDC046740200207047704745
:100B2400704770B50400C168B823CA58138A9BB2D1
:100B34000800B83000790341DB070CD5B023CB584B
:100B44001B8A9BB20D00B0352D792B41DB0702D5F2
:100B54000323637406E0128A92B20241D3073FD59D
:100B640001236374667CF51E6B425D41EDB2E5744E
:100B7400237C013B012B42D9206803689B68290030
:100B84009847A3685D71032E06D102229A711868F2
:100B940003689B6802219847A37C012B31D0022B68
:100BA40000D19BE00023A374237C013B012B00D8DC
:100BB400EFE0206803681B6804219847A3680122BA
:100BC4001A715A79002A58D19A79002A00D1E2E0A0
:100BD400012A52D1186803689B68042198474CE0A5
:100BE400B023CB581A8A92B2B0310B791A41D30789
:100BF40002D502236374B5E700236374B2E7606827
:100C0400BBE7E268B823D3581B8A9BB21100B83102
:100C140009790B41DB073FD4C823D3581B8A9BB205
:100C24001100C83109790B41DB0735D4E823D358C7
:100C34001B8A9BB21100E83109790B41DB072BD5E4
:100C4400F023D3581B8A9BB2F03212791341DB078D
:100C540022D5A36800221A715A79002A04D19A79FC
:100C6400002A0BD0012A0FD0237C013B012B11D980
:100C7400206803681B680021984770BD18680368E2
:100C84009B6804219847EFE7186803689B68002174
:100C94009847E9E76068ECE7237C013B012B15D911
:100CA400206803681B6804219847A36801221A710D
:100CB4005A79002AE1D19A79002A09D0012ADCD193
:100CC400186803689B6804219847D6E76068E8E7DA
:100CD400186803689B6800219847CEE7E268B02350
:100CE400D3581B8A9BB21100B03109790B41DB0741
:100CF4002BD4C023D3581B8A9BB2C0321279134120
:100D0400DB0722D4A36800221A715A79002A04D17D
:100D14009A79002A0BD0012A0FD0237C013B012BA6
:100D240011D9206803681B6801219847A5E7186852
:100D340003689B6804219847EFE7186803689B6879
:100D440000219847E9E76068ECE7237C013B012B2D
:100D540017D9206803681B6804219847A3680122F7
:100D64001A715A79002A00D087E79A79002A0AD0A2
:100D7400012A00D081E7186803689B68042198471A
:100D84007BE76068E6E7186803689B68002198477A
:100D940073E760680EE7186803689B68002198474A
:100DA4006BE77047704710B504000379002B48D1F6
:100DB4004171037C002B24D000290AD18068036888
:100DC4009B6800219847E06803689B680121984765
:100DD40010BD01290AD1806803689B6801219847E6
:100DE400E06803689B6801219847F1E7A0680368FD
:100DF4009B6804219847E06803689B68042198472E
:100E0400E6E7012911D0002909D0032913D00429C8
:100E14001CD1C06803689B6804219847D8E7C06860
:100E240003689B6800219847D2E7C06803689B6801
:100E340001219847CCE7C06803689B680321984761
:100E4400C6E702234371037C002BCFD1E06803681B
:100E54009B6802219847BBE710B583690133042BD3
:100E64000FD900238361437D012B1CD0002B0AD0B2
:100E7400022B5CD0032B05D003689B6802219847A2
:100E840000E0836110BD0123437542681168127943
:100E940010321C0094408C61C268116812791032BF
:100EA40093408B61EEE702234375037D012B2FD022
:100EB400002B1ED0032BE5D1826813689B8A9BB25A
:100EC40012791341DB0705D443681A6819790123A1
:100ED4008B409361026913689B8A9BB21279134118
:100EE400DB07CFD4C3681A68197901238B40936157
:100EF400C8E7826813689B8A9BB212791341DB07A7
:100F0400C0D443681A68197901238B409361B9E707
:100F1400026913689B8A9BB212791341DB07B1D42F
:100F2400C3681A68197901238B409361AAE70323E4
:100F34004375037D012B31D0002B1FD0042BA1D18D
:100F4400426813689B8A9BB212791341DB0705D46C
:100F540083681A68197901238B409361C268136806
:100F64009B8A9BB212791341DB0700D58AE7036998
:100F74001A68197901238B40936183E7C268136867
:100F84009B8A9BB212791341DB0700D57AE7036988
:100F94001A68197901238B40936173E742681368D7
:100FA4009B8A9BB212791341DB0700D56AE78368F9
:100FB4001A68197901238B40936163E7007D7047B8
:100FC40010B5037D8B4210D00175002343758368EF
:100FD40019681A79103201231C0094408C6102694B
:100FE40011681279103293408B6110BDF0B5DE4662
:100FF40057464E464546E0B58C4616685900046887
:1010040065466F000325BD40ED432C400460046831
:10101400A046CE400324A2462640BE404446264372
:1010240006609688B4B2A0468488A3460124664626
:10103400B4405E46A6438680868844461C4101230C
:1010440023406446A3401E43B6B28680D368C66874
:101054002E40C660C668CB4054462340BB40334351
:10106400C36093688268154085608268CB401C40E9
:10107400BC40144384603CBC90469946A246AB46AF
:10108400F0BDF0B5DE4657464E464546E0B583B062
:10109400040043681A681068197949000325AB46AF
:1010A4008D40A8431060106801252E008E40310049
:1010B400014311601A68918818792E008640B14363
:1010C4009180918889B291801A68D168187940001A
:1010D4005E468640B143D160D168D1601A68906899
:1010E400197949005B468B409843906090680223CD
:1010F4008B400343936063681A681B79103329009B
:1011040099409161A6686068336807683968027914
:101114009246520094461A683079804646005846F2
:10112400B040C04302401A601A6891466246D140FA
:1011340003221140B1404A4611431960B98889B26B
:1011440001919A8891462A0041468A404946914332
:1011540099809A8891465246019911410122114081
:10116400424691404A46114389B29980F968DA6847
:101174000240DA60DA6890466246D14003221140A8
:10118400B14042461143D960B9689F6838409860BD
:1011940098686746F94003221140B14001439960C1
:1011A400A36819681B791033280098408861E068A7
:1011B40066680368376839683679B2467600B4469B
:1011C4001E68B1460079804646005846B040C04388
:1011D4004A4602401A601A6891466246D140032288
:1011E4001140B1404A4611431960B98889B201914E
:1011F400998889462A0041468A4049469143998004
:10120400998889465146019A0A41110001221140E8
:10121400424691404A46114389B29980F968DA6896
:101224000240DA60DA6890466246D14003221140F7
:10123400B14042461143D960B9689F68384098600C
:1012440098686746F94003221140B1400143996010
:10125400E36819681B791033280098408861216974
:1012640066680B68376838683679B1467600B446E4
:101274001E68B04609798A464E005946B140C943B2
:1012840042460A401A601A6890466246D0400322D9
:101294001040B040424610431860B88880B20190B4
:1012A4009A8890462A0050468240934642465846C1
:1012B40082439A80988880464846019A02411000E9
:1012C40001221040524690404246104380B298801A
:1012D400F868DA680A40DA60DA6890466246D04014
:1012E40003221040B04042461043D860B8689F685B
:1012F400394099609F686246D04003220240B24060
:101304003A439A6023691A681B791033290099407B
:10131400916123689B68022120009847002363752C
:10132400A3681A681B7910332900994091612369D5
:101334001A681B7910339D40956103B03CBC9046FC
:101344009946A246AB46F0BD10B50379002B20D1D7
:10135400417100290DD1836819681A79103201236B
:101364001C0094408C61C2681168127993408B61AF
:1013740010BD01290FD1C36819681A7910320123ED
:101384001C0094408C6182681168127993408B61CF
:10139400EEE702234371836819681A791032012336
:1013A4001C0094408C61C268116812791032934019
:1013B4008B61DDE710B50171002903D003681B6858
:1013C40002219847012010BD4079704770B50D0087
:1013D40000230A2801D9180070BD84B22000FFF749
:1013E400D9F8002811D000230128F4D12B80FFF76D
:1013F40001F800212000FFF7F9F80400FEF7F2FFDE
:10140400043C63426341DBB2E5E70123E3E7000008
:10141400F0B5CE46474680B583B0CF4BD968B823E4
:10142400CA58138A9BB20800B83000790341DB071D
:101434000DD5B023CB581B8A9BB20C00B034247951
:101444002341DB0703D5C44B03225A7407E0128AF5
:1014540092B20241D30747D5BF4B01225A74BE4B07
:101464005D7CEC1E62425441E4B2DC741B7C013BA3
:10147400012B4AD9B84B186803689B682100984728
:10148400B54B9B685C71032D06D102229A711868D2
:1014940003689B6802219847AF4B9B7C012B37D094
:1014A400022B00D11CE1AC4B00229A741B7C013B43
:1014B400012B00D87AE1A84B186803681B68042143
:1014C4009847A54B9B6801221A715A79002A65D165
:1014D4009A79002A00D16CE1012A5FD11868036867
:1014E4009B680421984759E0B023CB581A8A92B2DA
:1014F400B0310B791A41D30703D5974B02225A74A2
:10150400ADE7954B00225A74A9E7934B5868B3E7AB
:10151400914BDA68B823D3581B8A9BB21100B831B7
:1015240009790B41DB0700D5B2E0C823D3581B8AE5
:101534009BB21100C83109790B41DB0700D5A7E044
:10154400E823D3581B8A9BB21100E83109790B4177
:10155400DB0700D49CE0F023D3581B8A9BB2F03203
:1015640012791341DB0700D492E07B4B9B68002285
:101574001A715A79002A05D19A79002A79D0012A58
:1015840000D17CE0744B1B7C013B012B00D87CE038
:10159400714B186803681B68002198476E4BDB6821
:1015A400B8229A58128A92B21869197DB8331B79F5
:1015B4001A41D30700D502E101238B408361664BB6
:1015C400DB68B0229A58128A92B29868197BB033B9
:1015D4001B791A41D30700D5F6E001238B408361C0
:1015E4005D4BDA689169127FDB7C002B00D0F0E060
:1015F400013393408B61584BDB68E8229A58128A76
:1016040092B218681979E8331B791A41D30700D4C8
:10161400E4E001238B4083614F4BDB68E8229A5856
:10162400128A92B21900E83109790A410120024074
:101634001100F0229A58128A92B21C00F0342479D4
:10164400224110420AD1B0229A58128A92B218004A
:10165400B03000790241D20700D40AE31A6A203379
:101664001B79002900D107E31033012199409161CE
:1016740005E3186803689B680421984782E71868A3
:1016840003689B68002198477CE7334B586881E7DF
:10169400314B1B7C013B012B19D92F4B1868036874
:1016A4001B68042198472C4B9B6801221A715A79B4
:1016B400002A00D072E79A79002A0BD0012A00D0C0
:1016C4006CE7186803689B680421984766E7224B17
:1016D4005868E4E7186803689B68002198475DE749
:1016E4001D4BDA68B023D3581B8A9BB21100B0316A
:1016F40009790B41DB0731D4C023D3581B8A9BB231
:10170400C03212791341DB0728D4134B9B680022A3
:101714001A715A79002A04D19A79002A0DD0012A23
:1017240011D00D4B1B7C013B012B12D90A4B1868BD
:1017340003681B680121984730E7186803689B68B1
:1017440004219847EDE7186803689B6800219847CF
:10175400E7E7014B5868EBE7F4040020BC4B1B7C23
:10176400013B012B19D9BA4B186803681B68042183
:101774009847B74B9B6801221A715A79002A00D006
:101784000CE79A79002A0BD0012A00D006E71868E2
:1017940003689B680421984700E7AD4B5868E4E769
:1017A400186803689B6800219847F7E6A84B5868B7
:1017B40083E6186803689B6800219847EEE61031B9
:1017C40001238B408361FAE6103101238B4083614E
:1017D40006E71032012393408B610CE7103101239B
:1017E4008B40836118E79B4A5269127C012A00D11D
:1017F4008AE2B0229A58128A92B21900B031097959
:101804000A410024D20700D57EE2C0229A58128AE7
:1018140092B21900C03109790A41D20700D573E2A6
:101824008D4A1168D8228A58128A92B2D83109791D
:101834000A410134D20700D466E2E8229A58128A97
:1018440092B21900E83109790A41D20700D45BE267
:10185400F0229A58128A92B21900F03109790A4199
:10186400D20700D450E27B4A5269147C023C6242A3
:101874005441E4B248E2328A92B23A41D20700D5E6
:1018840059E2A44657E2B0329A58128A92B2B02072
:1018940080469844404600790241D20700D5DFE0F3
:1018A400C0229A58128A92B2C02080469844404678
:1018B40000790241D20700D5D2E0D8228A58128A90
:1018C40092B2D82080468844404600790241D2072B
:1018D4001DD5E8229A58128A92B2E820804698448C
:1018E400404600790241D20711D5F0229A58128A53
:1018F40092B2F02080469844404600790241D207D3
:1019040005D5544A5269127C022A00D0A8E0524AF2
:101914001279022A46D0504A02211171E8229A58BB
:10192400128A92B21900E83109790A41D20708D51E
:10193400F0229A58128A92B2F0331B791A41D307D3
:101944002DD46B46991D0720FEF724FE002812D0E3
:10195400012802D0012149420FE06B460022DA80BF
:10196400FEF748FD00210720FEF740FE0400FEF7C5
:1019740039FD042C10D16B46D9884B015B1A9B00AE
:101984005B18DB00F533FF33334A936030480023A0
:101994008374FFF7C6F8DCE101214942EDE7FA233D
:1019A4005B00F1E7886C0B0048331B796246002A20
:1019B4001DD0012215009D4085610B6C40310979D1
:1019C4008A409A61224B9B7C022B1CD12048022323
:1019D4008374FFF7A6F8214B1F4A92689A4200D9F4
:1019E400BEE11B4BDB689A6A28331B79C3E11033D1
:1019F400012215009D408561086C40310B7910333C
:101A04009A408261DEE76B46991D0220FEF7C2FD13
:101A140000280FD00128D9D16B460022DA80FEF7C6
:101A2400E9FC00210220FEF7E1FD0500FEF7DAFCE7
:101A3400042DCBD16B46DD880135ADB2FEF7DAFC5F
:101A440029000220FEF7D2FDFEF7CCFCBEE7C0461B
:101A5400F40400203002002018000020B4D6010055
:101A64004A46128A92B22A41D20746D4C8229A58C8
:101A7400128A92B21800C83000790241D2073CD4CD
:101A8400E8229A58128A92B21800E830007902418A
:101A9400D20732D5F0229A58128A92B2F0331B79C7
:101AA4001A41D30729D5D023CB581B8A9BB20A00ED
:101AB400D03212791341DB0709D5E023CB581B8AB6
:101AC4009BB20A00E03212791341DB0710D4C54BF4
:101AD4001B79012B2ED0338A9BB23B41DB071CD4EC
:101AE400C04B1B7B002B13D0BE4B00221A7117E096
:101AF400BD4B5B691B7C012BE9D0BA4C00232371DD
:101B0400BA488374FFF70DF8FA235B00A36065E01D
:101B1400B44B01221A731A7102E0B24B01221A71FA
:101B2400B04BFA2252009A60B04800238374FEF747
:101B3400F8FF0EE1886C0B0048331B796246002ADB
:101B440012D0012215009D4085610B6C403109794A
:101B54008A409A61A54B9B7C012B11D1A348012398
:101B64008374FEF7DEFF36E71033012215009D4033
:101B74008561086C40310B7910339A408261E9E742
:101B84006B46991D0220FEF705FD00280FD00128A1
:101B9400E4D16B460022DA80FEF72CFC00210220FF
:101BA400FEF724FD0500FEF71DFC042DD6D16B467F
:101BB400DD880135ADB2FEF71DFC29000220FEF7D9
:101BC40015FDFEF70FFCC9E7864C002323718748F7
:101BD4008374FEF7A6FFFA235B00A360834BDB68E4
:101BE4009A6A28331B791033012199409161C5E029
:101BF400F023D3581B8A9BB2F03212791341DB07CE
:101C040006D4784B1B686133FF3302221A73C8E091
:101C1400744B1B686133FF3301221A73C1E0714BAB
:101C24001B687133FF3301221A73C5E06F4B1B7CB1
:101C3400013B012B0DD96D4B186803685B6898470D
:101C4400012809D9674B1B688133FF3300221A73BB
:101C5400C3E0664B5868F0E7624B1B688133FF337F
:101C640002221A73B9E0614BDB689A6A28331B7944
:101C7400B9E71A6A20331B790121994091615B4BC2
:101C8400DB68B8229A589146128A92B21900B83188
:101C94000D792A41D20700D5ABE5C8229A58128A99
:101CA40092B2103109790A41D20700D5A1E5E822A0
:101CB4009A58128A92B21900E83109790A41D20776
:101CC40000D496E5F0229A58128A92B21900F031A3
:101CD40009790A41D20700D48BE5424A1168D0221F
:101CE4008A58128A92B20C00D034247922410124F9
:101CF400D20709D5E0228A58128A92B2E0310979D2
:101D04000A41D20700D56EE5364A1168F8228E588A
:101D1400328A92B20F00F8373F793A41D20702D59E
:101D2400304A00201073314A127C013A0020844664
:101D3400012A00D89FE5002C00D145E7294A926882
:101D4400352A00D23522353A26488260002A00D14D
:101D540099E5274B234A926800249A4200D882E7E7
:101D6400204B234A9A60214BDB689A6A28331B79FB
:101D7400002C00D137E70121994091611B4BDA68AF
:101D8400E823D3581B8A9BB21100E83109790B412F
:101D9400DB0700D52CE7134B1B686133FF330422A8
:101DA4001A73124BDB7C002B00D138E70D4B1B68F8
:101DB4007133FF3302221A730A4B1A68F823D3587B
:101DC4001B8A9BB21100F83109790B41DB0700D55E
:101DD4002CE78132FF320523137303B00CBC904609
:101DE4009946F0BD1800002030020020F4040020C1
:101DF400B4D6010082B0054B1B680193034B1B68EA
:101E0400019A9B1A9842F9D802B07047A8000020A2
:101E140030B5016002710C68520003231D00954027
:101E24002A00AC430C600C6822430A600268D16843
:101E3400047964001D00A540A943D160D168D16034
:101E44000268916804796400A3409943916093689F
:101E5400936002689488017901238B4019009C43A4
:101E6400948093880B439BB2938030BDF8B5DE46D3
:101E740057464E464546E0B5012805D03CBC904641
:101E84009946A246AB46F8BDE64B9942F6D1E64DDB
:101E9400DC2252000021280004F082F8E34C0922DD
:101EA40021002800FFF7B4FF03222100E048FFF7D8
:101EB400AFFF02222100DF48FFF7AAFF0522DE4917
:101EC400DE48FFF7A5FF0422DB49DD48FFF7A0FF4A
:101ED4000B229021C905DB48FFF79AFFDA4F06224F
:101EE4003900DA48FFF794FF09223900D848FFF790
:101EF4008FFF07223900D748FFF78AFF0822902175
:101F0400C905D548FFF784FF0F22D449D448FFF709
:101F14007FFFD44E0E22D1493000FFF779FF09220A
:101F2400C549D148FFF774FF0B22C349CF48FFF7D7
:101F34006FFF0D22C949CE48FFF76AFF0C22C7493B
:101F4400CC48FFF765FF0822BB49CB48FFF760FF89
:101F54000A22B949C948FFF75BFF04223900C8487F
:101F6400FFF756FFC74C00222100C748FFF750FF78
:101F740001222100C548FFF74BFF02222100C4487B
:101F8400FFF746FF0F222100C248FFF741FF0E2250
:101F94002100C148FFF73CFF0D222100BF48FFF795
:101FA40037FF0C222100BE48FFF732FF0F22A2495F
:101FB400BC48FFF72DFF0E229F49BB48FFF728FFBF
:101FC4000D229D49B948FFF723FF0C229A49B848CE
:101FD400FFF71EFF07229021C905B648FFF718FF37
:101FE40006229021C905B448FFF712FF052290216B
:101FF400C905B248FFF70CFF04229021C905B04877
:10200400FFF706FF05223900AE48FFF701FF022261
:102014008949AD48FFF7FCFE0C229021C905AB4865
:10202400FFF7F6FE06222100A948FFF7F1FE07227A
:102034002100A848FFF7ECFE04228849A648FFF7D0
:10204400E7FE05228549A548FFF7E2FE06228349FB
:10205400A348FFF7DDFE0A222100A248FFF7D8FEBD
:102064000B222100A048FFF7D3FE00229021C905CE
:102074009E48FFF7CDFE00246E23FF33EC54012766
:10208400013BEF54043BEC503A009021C9059848B9
:10209400FFF7BEFE7E23FF33EC54013BEF54043BB9
:1020A400EC5002229021C9059248FFF7B1FE8E231D
:1020B400FF33EC54013BEF54043BEC508E4B9846F9
:1020C400082266491800FFF7A3FE8C4B99460922A3
:1020D40062491800FFF79CFE894B9A460A225F4921
:1020E4001800FFF795FE874B9B460B225B491800AF
:1020F400FFF78EFE0F229021C9058348FFF788FE63
:10210400824B04225A601B61DC609C605C4959610B
:102114005D4999615D49D9615D4919621C705C70C2
:102124009C70DC707A4B5946196051465960494697
:1021340099604146D9601A74764B9846764B0833B9
:1021440041460B600A754C758C61454A4A60484AA1
:102154008A60CE60474A0A61704E714B350008337D
:1021640008C510222100280003F01AFF0922324971
:102174002800FFF74DFE30000C300B222E49FFF7EC
:1021840047FE300014300F229021C905FFF740FEAE
:10219400B4833462746202252823F5540133F45461
:1021A400F4626048047147718571434603605E4A76
:1021B400177155715D4B0833136014744346936073
:1021C400D6605B490F714D715A4B08330B60204B3D
:1021D4008B601E4BCB60584B584E1E60584B594E6B
:1021E40008361E605C609C60DC601C615C611C766F
:1021F400554BDC601C745C749C74DC741A6059600C
:102204009860524E2C222100300003F0C9FEF48164
:102214000523B38134743B004D4A29004D48FEF731
:1022240057FA2BE6FFFF0000D402002000140048F8
:10223400DC020020E402002000100048EC02002030
:10224400F4020020FC0200200008004804030020DF
:102254000C030020140300201C030020000C004881
:10226400240300202C030020340300203C0300201E
:10227400440300204C030020540300205C0300208E
:1022840064030020000400486C0300207403002051
:102294007C030020840300208C030020940300208E
:1022A4009C030020A4030020AC030020B4030020FE
:1022B400BC030020C4030020CC030020D40300206E
:1022C400DC030020E4030020EC030020F4030020DE
:1022D400FC030020040400200C040020140400204B
:1022E4001C040020240400202C04002034040020BA
:1022F4004404002054040020640400206C040020E2
:10230400740400207C040020840400208402002043
:10231400A4010020C8010020AC640008F8010020DA
:102324007C64000828020020B0040020CC6400086B
:10233400A0040020E8640008700200207402002059
:10234400D804002004650008F4040020A80200203A
:1023540081260008E40100207047000070B5436A3C
:102364005A1C42622923C35C012B1FD0002B0AD0C4
:10237400022B00D17CE0032B00D1C5E003689B68ED
:102384000221984770BD042AFCD9012329228354D1
:102394004168027A10321C0094408C61C168027C4E
:1023A400103293408B6100234362EBE7042AE9D99E
:1023B40029230222C254013BC35C012B43D0002BCE
:1023C4002CD0032B1BD1AB4B5B6B002B09D1A94B3E
:1023D4005B6B002B16D04168027A103201239340C4
:1023E4008B61A44B9B6B002B09D1A24B9B6B002BE5
:1023F4000ED0C168027C1032012393408B6100230C
:102404004362BFE74268017A01238B409361E8E7A6
:10241400C268017C01238B409361F0E7954B5B6BB1
:10242400002BECD1934B5B6B002B06D04168027AF6
:102434001032012393408B61E1E74268017A012362
:102444008B409361DBE78B4B9B6B002BD7D1894B84
:102454009B6B002B06D0C168027C10320123934091
:102464008B61CCE7C268017C01238B409361C6E792
:10247400042A00D886E729230322C254013BC35C03
:10248400042B04D000234362838303627AE7416808
:102494008B8A9BB2027A1341DB0716D48B8A9BB2D8
:1024A40013410024DB070AD48B8A9BB213411A0020
:1024B400012313405A4253415B42C9341C406D4BC3
:1024C4005C639A8A02210A439A82C1688B8A9BB20E
:1024D400027C1341DB07D5D48B8A9BB213410024C1
:1024E400DB070AD48B8A9BB213411A0001231340E1
:1024F4005A4253415B42C9341C405E4B9C639A8AE6
:1025040004210A439A82BDE72823C35C012B29D9FD
:10251400042B00D036E743689B8A9BB2027A1341AE
:102524001A00012313405A4253415B42C92213400B
:10253400504A5363938A02210B439382C3689B8A54
:102544009BB2027C13411A00012313405A425341A7
:102554005B42C9221340474A9363938A04210B4385
:1025640093820FE74449097C052918D0002B6CD0CD
:10257400012B00D006E743689B8A9BB2027A134181
:102584001A00012313405A4253415B42C9221340AB
:10259400384A5363938A02210B439382F2E6818B78
:1025A400C72900D9EEE6046A651C0562FA263601DD
:1025B400B24204D903689B6802219847E2E6426963
:1025C400128A92B2067E3241D20722D40A1C012911
:1025D40000D80222023A92B2914200D1D2E682831A
:1025E400002B1ED0012B00D0CCE6002A0AD0436871
:1025F4009B8A9BB2017A0B4101210B4059424B410A
:102604005B421A401B4B5A639A8A02210A439A82FC
:10261400B8E6042D00D8B5E6043C04624A1C92B224
:10262400DAE7002A0AD0C3689B8A9BB2017C0B417B
:1026340001210B4059424B415B421A400D4B9A63B6
:102644009A8A04210A439A829CE6C3689B8A9BB2B5
:10265400027C13411A00012313405A4253415B4246
:10266400C9221340034A9363938A04210B43938240
:1026740088E6C046002C0140F404002010B5664BE7
:102684009B690133042B12D9634B00229A615B7D51
:10269400012B23D0002B10D0022B00D16BE0032B95
:1026A40007D05D4803689B680221984701E05A4AB5
:1026B40093615A48FFF752FE10BD574A01235375E0
:1026C40051680868097910311C008C408461D26813
:1026D40011681279103293408B61EAE74E4B022263
:1026E4005A751B7D012B35D0002B22D0032BE0D152
:1026F400494B9A6813689B8A9BB212791341DB0792
:1027040006D4454B5B681A68197901238B409361A1
:10271400414B1A6913689B8A9BB212791341DB07F8
:10272400C7D43D4BDB681A68197901238B40936148
:10273400BFE7394B9A6813689B8A9BB2127913419D
:10274400DB07B6D4344B5B681A68197901238B40D4
:102754009361AEE7304B1A6913689B8A9BB2127976
:102764001341DB07A5D42C4BDB681A6819790123C4
:102774008B4093619DE7284B03225A751B7D012BE7
:1027840038D0002B24D0042B00D092E7224B5A6877
:1027940013689B8A9BB212791341DB0706D41E4B44
:1027A4009B681A68197901238B4093611A4BDA6884
:1027B40013689B8A9BB212791341DB0700D578E733
:1027C400154B1B691A68197901238B40936170E7D3
:1027D400114BDA6813689B8A9BB212791341DB07A9
:1027E40000D566E70C4B1B691A68197901238B40E5
:1027F40093615EE7084B5A6813689B8A9BB212790F
:102804001341DB0700D554E7034B9B681A68197919
:1028140001238B4093614CE7C8010020F80100209C
:102824002823C05C7047000010B52823C35C8B428A
:1028340010D02823C15400220133C254064B5A63DA
:10284400998A0224214399829A63998A0424214310
:102854009982426210BDC046002C0140F0B5D646B4
:102864004F464646C0B5040042691168007E4000E8
:1028740003231D008540A94311601168116061693B
:102884008D88207E01228240100095438D808A88A5
:10289400024392B28A806269D168207E40001D00A2
:1028A4008540A943D160D168D16062699168207E76
:1028B400400083409943916091680B4393608C4B33
:1028C4009969802212010A439A615B681B0A5A07BC
:1028D40000D4FBE0032213400133854A52681209F5
:1028E400110700D4EFE007210A40511C032900D945
:1028F400911C804A1068C840D8407F4903F058FBB7
:10290400013880B27D4D2885C823EB6200239946A7
:102914006B63AB632B8B7A4A13432B832B8C11226F
:1029240013432B842B8CCC2213432B844422AB5A89
:10293400802109020B43AB522B88612213432B8065
:10294400AB8A012292461343AB826E4B1A686E48DF
:1029540002401A601F68802292023A431A609A88E1
:102964006A4F3A409A809A8892B29A80DA68024012
:10297400DA60DA68DA609A6802409A609868C0227D
:10298400920202439A60606802689446277A7F0044
:1029940003221600BE40B046664641468E4306609A
:1029A40001685646BE4037000F4307606068878859
:1029B400217A56468E40B74387808788BFB2878086
:1029C4006068C768217A490016008E40B743C76023
:1029D400C768C76060688168277A7F001600BE40B8
:1029E40037000E00BE43866081680F438760186815
:1029F400474F3840186019688020800308431860E6
:102A04009888444908409880988880B29880D8680B
:102A14003840D860D868D8609868384098609F6813
:102A2400C020800338439860E0680168277C7F00F9
:102A34001600BE40B0460E0041468E430660016853
:102A44005646BE4037000F430760E0688788217C04
:102A540056468E40B7438780818889B28180E16879
:102A6400C868277C7F001600BE40B043C860C868B1
:102A7400C860E1688868277C7F00BA40904388601A
:102A8400886802438A605A6A07218A435A625A6AEA
:102A940021490A405A6223689B6802212000984712
:102AA40029234A46E2546A63AB8A02221343AB8267
:102AB4004B46AB63AB8A04221343AB821CBC9046E7
:102AC4009946A246F0BD0B4A106815E7084B5B68AF
:102AD4001B091A0709D5072213405A1C032A00D9D7
:102AE4009A1C044B1868D04007E7024B186804E7A7
:102AF400001002400000002000093D00002C0140AD
:102B04006868000000100048FFFFFCFFFFFEFFFFA5
:102B1400FFFFCFFFFFFBFFFFFFF8FFFF10B504002F
:102B24001C2103F0C7F9200010BD10B504001021CA
:102B340003F0C0F9200010BD10B504001C2103F0FF
:102B4400B9F9200010BD10B50400142103F0B2F946
:102B5400200010BD10B504001C2103F0ABF92000C7
:102B640010BD10B50400302103F0A4F9200010BDFD
:102B7400F0B59BB004002423C25C0F2A01D901F0F4
:102B840027F89300924AD3589F468568EB68002B38
:102B940004D0AB68002B01D000236B6020278D4E3E
:102BA40003E00027F757002F12D00136296968681F
:102BB40003F084FA69606B695F5401236B766B6878
:102BC40001336B602A699342EBD300236B60E8E71F
:102BD400A368DA68012A08D99A68002A05D05968D6
:102BE4005A60914201D001225A76A5687A4803F0CE
:102BF400BDF9632826D9A468784803F0B7F9632897
:102C040001D900F0E5FF01AA01217448FDF702FC97
:102C140001AD0026AE57002E01D100F0D9FF0135D9
:102C24002169606803F04AFA616063695E540123B4
:102C3400637663680133636022699342E9D30023B6
:102C44006360E6E701AA02216348FDF7E3FB01AEF6
:102C54000027F757002FCED001362969686803F0A2
:102C64002DFA69606B695F5401236B766B680133DD
:102C74006B602A699342EBD300236B60E8E78368B7
:102C8400DA68002A09D09A68002A06D05A68002116
:102C94005960002A01D001225A76A56801A90220B0
:102CA400FDF778FC002812D0012802D001267642D4
:102CB4000FE001AB00221A80FDF79CFB00210220EB
:102CC400FDF794FC0600FDF78DFB042E3DD101AB0E
:102CD4001E88434803F04AF9632839D9A568EB688C
:102CE400012B18D9A86800236A6912182021D1542D
:102CF4000133AA689A42F7D201236B76A568EB6880
:102D0400012B08D9AB68002B05D06A686B6093422D
:102D140001D001236B762969686803F0CFF96960F3
:102D24005B236A6953545A3B6B766B6801336B605F
:102D34002A69934201D300236B602A4B1A7C052A2B
:102D440044D89300284AD3589F4601267642C0E7C8
:102D540001AA31002248FDF75DFB01AE0027F757B9
:102D6400002FBBD001362969686803F0A7F96960B0
:102D74006B695F5401236B766B6801336B602A695E
:102D84009342EBD300236B60E8E7184E00E0184E43
:102D9400A5680027F757002F34D0013629696868E1
:102DA40003F08CF969606B695F5401236B766B687F
:102DB40001336B602A699342EBD300236B60E8E72D
:102DC4000C4EE5E70C4EE3E70C4EE1E70C4EDFE773
:102DD400E0600008686200083C6400085864000869
:102DE4004C640008F404002020610008BC62000860
:102DF4007C6200088862000894620008A0620008EF
:102E0400AC620008A5682969686803F057F969602D
:102E14005D236A6953545C3B6B766B6801336B606A
:102E24002A69934201D300236B60A368DA68012AFC
:102E340009D99A680B2A06D959680B325A6091420B
:102E440001D001225A76A568654B1B79012B00D16C
:102E5400A1E0023B5A4253415B422D261E402D36CF
:102E64002969686803F02AF969606B695E54012373
:102E74006B766B6801336B602A69934201D300233C
:102E84006B60A568574BDA68E823D3581B8A9BB25A
:102E9400E832127913411A00012313405A42534174
:102EA4005B4223261E402D362969686803F006F923
:102EB40069606B695E5401236B766B6801336B60E8
:102EC4002A69934201D300236B60A568454BDA68F5
:102ED400F023D3581B8A9BB2F032127913411A00A3
:102EE400012313405A4253415B4226261E402D368D
:102EF4002969686803F0E2F869606B695E5401232C
:102F04006B766B6801336B602A69934201D30023AB
:102F14006B60A568334BDE7C731E9E41734214269E
:102F24001E402D362969686803F0C8F869606B692A
:102F34005E5401236B766B6801336B602A6993429C
:102F440001D300236B60A468254B1A68F823D35877
:102F54001B8A9BB2F832127913411A0001231340E1
:102F64005A4253415B4229251D402D352169606831
:102F740003F0A4F8616063695D54012363766368B8
:102F8400013363602269934201D200F021FE0023E1
:102F9400636000F01DFE4F2662E78568EB68002B36
:102FA40004D0AB68002B01D000236B6020270E4EA9
:102FB40003E00027F757002F18D001362969686805
:102FC40003F07CF869606B695F5401236B766B686E
:102FD40001336B602A699342EBD300236B60E8E70B
:102FE40018000020F4040020C8620008A368DA680E
:102FF400012A08D99A68002A05D059685A608A4279
:1030040001D001225A76A5682969686803F056F848
:1030140069607C236A6953547B3B6B766B6801332C
:103024006B602A69934201D300236B60E04AB023AA
:10303400D3581B8A9BB2B421525C1341DB07DB17C4
:1030440003261E402A36A5682969686803F036F805
:1030540069606B695E5401236B766B6801336B6046
:103064002A69934201D300236B60A568D04AB82330
:10307400D3581B8A9BB2BC21525C1341DB07DB177C
:1030840003261E402A362969686803F017F8696028
:103094006B695E5401236B766B6801336B602A693C
:1030A400934201D300236B60A568C14AC023D3585F
:1030B4001B8A9BB2C421525C1341DB07DB17032636
:1030C4001E402A362969686802F0F8FF69606B6956
:1030D4005E5401236B766B6801336B602A699342FB
:1030E40001D300236B60A568B14AC823D3581B8A57
:1030F4009BB2CC21525C1341DB07DB1703261E4035
:103104002A362969686802F0D9FF69606B695E54E0
:1031140001236B766B6801336B602A69934201D398
:1031240000236B60A5682969686802F0C7FF6960BD
:103134007C236A6953547B3B6B766B6801336B6009
:103144002A69934201D300236B60994AD023D35850
:103154001B8A9BB2D421525C1341DB07DB17032685
:103164001E402A36A5682969686802F0A7FF6960CD
:103174006B695E5401236B766B6801336B602A695B
:10318400934201D300236B60A568894AD823D3589E
:103194001B8A9BB2DC21525C1341DB07DB1703263D
:1031A4001E402A362969686802F088FF69606B69E5
:1031B4005E5401236B766B6801336B602A6993421A
:1031C40001D300236B60A568794AE023D3581B8A96
:1031D4009BB2E421525C1341DB07DB1703261E403C
:1031E4002A362969686802F069FF69606B695E5470
:1031F40001236B766B6801336B602A69934201D3B8
:1032040000236B60A5686A4AE823D3581B8A9BB2E3
:10321400EC21525C1341DB07DB1703261E402A36E0
:103224002969686802F04AFF69606B695E5401238A
:103234006B766B6801336B602A69934201D3002378
:103244006B60A5682969686802F038FF69607C23AF
:103254006A6953547B3B6B766B6801336B602A69F4
:10326400934201D300236B60514AF023D3581B8A45
:103274009BB2F421525C1341DB07DB1703261E408B
:103284002A36A5682969686802F018FF69606B69C5
:103294005E5401236B766B6801336B602A69934239
:1032A40001D300236B60A568414AF823D3581B8AD5
:1032B4009BB2FC21525C1341DB07DB1703261E4043
:1032C4002A362969686802F0F9FE69606B695E5400
:1032D40001236B766B6801336B602A69934201D3D7
:1032E40000236B60A568324A80235B00D3581B8A95
:1032F4009BB282214900525C1341DB07DB17032692
:103304001E402A362969686802F0D8FE69606B6934
:103314005E5401236B766B6801336B602A699342B8
:1033240001D300236B60A568214A84235B00D35832
:103334001B8A9BB286214900525C1341DB07DB17D1
:1033440003261E402A362969686802F0B7FE6960C0
:103354006B695E5401236B766B6801336B602A6979
:10336400934201D300236B60A4682169606802F072
:10337400A5FE61607C23626953547B3B637663687A
:10338400013363602269934201D200F021FC0023DF
:10339400636000F01DFC8568EB68002B04D0AB680B
:1033A400002B01D000236B602027024E08E0C046AA
:1033B400D4020020DC6200080027F757002F12D047
:1033C40001362969686802F079FE69606B695F54A7
:1033D40001236B766B6801336B602A699342EBD3EC
:1033E40000236B60E8E7A368DA68012A08D99A68C1
:1033F400002A05D059685A608A4201D001225A76BF
:10340400A5685727CE4E03E00027F757002F12D0A8
:1034140001362969686802F051FE69606B695F547E
:1034240001236B766B6801336B602A699342EBD39B
:1034340000236B60E8E7A668C24B9A68958AADB230
:103444001B7B1D41ED07ED170A239D435A35316956
:10345400706802F033FE716073695D540123737602
:103464007368013373603269934201D3002373603C
:10347400A668B44B1A69958AADB21B7D1D41ED0750
:10348400ED170A239D435A353169706802F016FE20
:10349400716073695D5401237376736801337360DB
:1034A4003269934201D300237360A668A54B1A685E
:1034B400958AADB21B791D41ED07ED170A239D4393
:1034C4005A353169706802F0F9FD716073695D54B1
:1034D400012373767368013373603269934201D3B5
:1034E40000237360A568974A93699B8A9BB2127FF5
:1034F4001341DB07DB170B261E404F36296968682A
:1035040002F0DCFD69606B695E5401236B766B68C5
:1035140001336B602A69934201D300236B60A56871
:103524007C27894E03E00027F757002F12D001367D
:103534002969686802F0C2FD69606B695F54012300
:103544006B766B6801336B602A699342EBD300237B
:103554006B60E8E7A6687B4B1A6A958AADB22422B1
:103564009B5C1D41ED07ED1702239D432D35316909
:10357400706802F0A3FD716073695D540123737672
:103584007368013373603269934201D3002373601B
:10359400A4682169606802F091FD61607C2362691E
:1035A40053547B3B637663680133636022699342BF
:1035B40000D20DE3002363600AE38568EB68002B07
:1035C40004D0AB68002B01D000236B6020275F4E32
:1035D40003E00027F757002F12D0013629696868E5
:1035E40002F06CFD69606B695F5401236B766B6854
:1035F40001336B602A699342EBD300236B60E8E7E5
:10360400A368DA68012A08D99A68002A05D059689B
:103614005A608A4201D001225A76A5686B274C4E23
:1036240003E00027F757002F12D001362969686894
:1036340002F044FD69606B695F5401236B766B682B
:1036440001336B602A699342EBD300236B60E8E794
:10365400A5683C4AC8235B00D3581B8A9BB2CA2185
:103664004900525C1341DB07DB1703261E402A3650
:103674002969686802F022FD69606B695E54012360
:103684006B766B6801336B602A69934201D3002324
:103694006B60A56820272F4E03E00027F757002F03
:1036A40012D001362969686802F008FD69606B6907
:1036B4005F5401236B766B6801336B602A69934214
:1036C400EBD300236B60E8E7A5681E4AD4235B00B4
:1036D400D3581B8A9BB2D6214900525C1341DB07A5
:1036E400DB1703261E402A362969686802F0E6FCC7
:1036F40069606B695E5401236B766B6801336B60A0
:103704002A69934201D300236B60A5682027124ED7
:1037140003E00027F757002F20D001362969686895
:1037240002F0CCFC69606B695F5401236B766B68B3
:1037340001336B602A699342EBD300236B60E8E7A3
:10374400F0620008D4020020F86200080063000858
:1037540014630008186300081C630008A568C04AC5
:10376400D0235B00D3581B8A9BB2D2214900525C00
:103774001341DB07DB1703261E402A3629696868D4
:1037840002F09CFC69606B695E5401236B766B6884
:1037940001336B602A69934201D300236B60A568EF
:1037A4002027B04E03E00027F757002F12D0013630
:1037B4002969686802F082FC69606B695F540123BF
:1037C4006B766B6801336B602A699342EBD30023F9
:1037D4006B60E8E7A468A24ACC235B00D3581B8A39
:1037E4009BB2CE214900525C1341DB07DB17032552
:1037F4001D402A352169606802F060FC61606369DC
:103804005D540123637663680133636022699342E4
:1038140000D2DDE100236360DAE18568EB68002B08
:1038240004D0AB68002B01D000236B6020278E4EA0
:1038340003E00027F757002F12D001362969686882
:1038440002F03CFC69606B695F5401236B766B6822
:1038540001336B602A699342EBD300236B60E8E782
:10386400A089002827DDE58900220BE0013B5E42A8
:1038740073415B4218261E402D360E700132D2B2BF
:10388400824218DA01AB99185300D318DBB22E0028
:103894001E4107233340022B0BD0E7D93E26032BCE
:1038A400EBD0043B5E4273415B420F261E402D3633
:1038B400E3E74226E1E7A368DA68012A08D99A68AF
:1038C400002A05D059685A608A4201D001225A76EA
:1038D400A468664E202500270BE001ABDD570137B5
:1038E40007E0013600257557002D00D170E12D2D1C
:1038F400F3D02169606802F0E1FB616063695D54A3
:103904000123637663680133636022699342E8D3D9
:1039140000236360E5E78568EB68002B04D0AB689F
:10392400002B01D000236B602027514E03E00027B9
:10393400F757002F12D001362969686802F0BEFBE0
:1039440069606B695F5401236B766B6801336B604C
:103954002A699342EBD300236B60E8E7210011311D
:1039640001A8250019350BE0013B5A4253415B4243
:1039740018221A402D32027001310130A94210D0B0
:103984000B78022B0BD0EFD93E22032BF3D0043B50
:103994005A4253415B420F221A402D32EBE7422236
:1039A400E9E7A368DA68012A08D99A68002A05D0E9
:1039B40059685A608A4201D001225A76A4682D4E71
:1039C400202500270BE001ABDD57013707E0013666
:1039D40000257557002D00D1FAE02D2DF3D0216973
:1039E400606802F06BFB616063695D540123637678
:1039F40063680133636022699342E8D30023636000
:103A0400E5E78568EB68002B04D0AB68002B01D098
:103A140000236B602027184E03E00027F757002F80
:103A240012D001362969686802F048FB69606B6945
:103A34005F5401236B766B6801336B602A69934290
:103A4400EBD300236B60E8E7A468E368012B03D998
:103A5400A368002B00D063602026084D15E0C04603
:103A6400D40200202063000824630008386300089F
:103A74004C630008606300087463000888630008EE
:103A84000026AE57002E00D1A2E0013521696068FE
:103A940002F014FB616063695E540123637663681A
:103AA4000133636022699342EAD300236360E7E74A
:103AB4008568EB68002B04D0AB68002B01D0002391
:103AC4006B602027B84E03E00027F757002F12D071
:103AD40001362969686802F0F1FA69606B695F541C
:103AE40001236B766B6801336B602A699342EBD3D5
:103AF40000236B60E8E7A568EB68012B18D9A86878
:103B040000236A6912182021D1540133AA689A4209
:103B1400F7D201236B76A568EB68012B08D9AB6853
:103B2400002B05D06A686B60934201D001236B7649
:103B34002969686802F0C2FA69603C236A695354CF
:103B44003B3B6B766B6801336B602A69934201D30C
:103B540000236B60E369DAB2052A24D89300934A00
:103B6400D3589F46924E00E0924EA5680027F7571F
:103B7400002F1AD001362969686802F09FFA69603B
:103B84006B695F5401236B766B6801336B602A6940
:103B94009342EBD300236B60E8E7874EE5E7874E5B
:103BA400E3E7874EE1E7874EDFE7A46821696068B1
:103BB40002F084FA61603E23626953543D3B6376AC
:103BC4006368013363602269934201D30023636015
:103BD4001BB0F0BD8568EB68002B04D0AB68002BEC
:103BE40001D000236B602027774E03E00027F757AE
:103BF400002F12D001362969686802F05FFA696003
:103C04006B695F5401236B766B6801336B602A69BF
:103C14009342EBD300236B60E8E7A368DA68012AD8
:103C240008D99A68002A05D059685A608A4201D096
:103C340001225A76A4682026644D03E00026AE577C
:103C4400002EC5D001352169606802F037FA616041
:103C540063695E5401236376636801336360226998
:103C64009342EBD300236360E8E78568EB68002B9D
:103C740004D0AB68002B01D000236B602027544E86
:103C840003E00027F757002F12D00136296968682E
:103C940002F014FA69606B695F5401236B766B68F8
:103CA40001336B602A699342EBD300236B60E8E72E
:103CB400A368DA68012A08D99A68002A05D05968E5
:103CC4005A608A4201D001225A76A4682026414DC6
:103CD40004E00026AE57002E00D179E701352169B2
:103CE400606802F0EBF9616063695E5401236376F6
:103CF40063680133636022699342EAD300236360FB
:103D0400E7E78568EB68002B04D0AB68002B01D093
:103D140000236B602027304E03E00027F757002F65
:103D240012D001362969686802F0C8F969606B69C4
:103D34005F5401236B766B6801336B602A6993428D
:103D4400EBD300236B60E8E7A468E368012B03D995
:103D5400A368002B00D0636020261E4D04E00026DB
:103D6400AE57002E00D133E701352169606802F0B7
:103D7400A5F9616063695E54012363766368013366
:103D8400636022699342EAD300236360E7E78568AE
:103D9400EB68002B04D0AB68002B01D000236B60D0
:103DA40020270E4E20E0C0469C63000838610008BE
:103DB400BC6200087C620008886200089462000803
:103DC400A0620008AC620008B0630008C463000885
:103DD400D8630008EC630008006400081464000859
:103DE4000027F757002F12D001362969686802F0BE
:103DF40065F969606B695F5401236B766B68013305
:103E04006B602A699342EBD300236B60E8E7A089D7
:103E1400002827DDE58900220BE0013B5E42734167
:103E24005B4218261E402D360E700132D2B29042EB
:103E340018DD01AB99185300D318DBB22E001E41D4
:103E440007233340022B0BD0E7D93E26032BEBD0BC
:103E5400043B5E4273415B420F261E402D36E3E76E
:103E64004226E1E7A368DA68012A08D99A68002A99
:103E740005D059685A608A4201D001225A76A46852
:103E84005F4E202500270BE001ABDD57013707E02B
:103E9400013600257557002D00D199E62D2DF3D05C
:103EA4002169606802F00AF9616063695D54012365
:103EB400637663680133636022699342E8D3002325
:103EC4006360E5E78568EB68002B04D0AB68002BE2
:103ED40001D000236B604F274A4E03E00027F757B9
:103EE400002F12D001362969686802F0E7F869608A
:103EF4006B695F5401236B766B6801336B602A69CD
:103F04009342EBD300236B60E8E7A468E368012BDA
:103F140003D9A368002B00D0636020263A4D04E047
:103F24000026AE57002E00D152E6013521696068A3
:103F340002F0C4F8616063695E54012363766368C8
:103F44000133636022699342EAD300236360E7E7A5
:103F54008568EB68002B04D0AB68002B01D00023EC
:103F64006B604F27274E03E00027F757002F12D02E
:103F740001362969686802F0A1F869606B695F54C9
:103F840001236B766B6801336B602A699342EBD330
:103F940000236B60E8E7A368DA68012A08D99A6805
:103FA400002A05D059685A608A4201D001225A7603
:103FB400A568E469154801F0D9FF632800D907E62C
:103FC4002104090C01AA1148FCF724FA01AC0026CB
:103FD400A657002E00D1FBE501342969686802F078
:103FE4006DF869606B695E5401236B766B6801330D
:103FF4006B602A699342EAD300236B60E7E7C0460B
:104004003863000828640008EC6300086064000852
:10401400F8B504002423C15400290AD02423E35C06
:10402400072B14D028230022E2542000FEF7A0FD21
:10403400F8BDC94D286803689B6898476868036899
:104044009B6800219847AB6800225A71E6E7C24D8D
:10405400286803689B6801219847686803689B681F
:1040640001219847AB6801275F7102229A71186891
:1040740003689B68022198472E7C0023AB74E9688F
:10408400B833CA58138A9BB20800B8300079034188
:104094001F420DD0B023CB581B8A9BB20D00B03504
:1040A4002D792B41DB0703D5AB4B03225A7407E070
:1040B400128A92B20241D30746D5A74B01225A7401
:1040C400A54B5F7CFD1E6A425541EDB2DD74731E43
:1040D400012B4AD9A04B186803689B6829009847AC
:1040E4009D4B9B685D71032F06D102229A7118685B
:1040F40003689B6802219847974B9B7C012B37D020
:10410400022B00D1BBE0944B00229A741B7C013B30
:10411400012B00D817E1904B186803681B68042131
:1041240098478D4B9B6801221A715A79002A5FD1F6
:104134009A79002A00D109E1012A59D11868036843
:104144009B680421984753E0B023CB581A8A92B253
:10415400B0310B791A41D30703D57F4B02225A742D
:10416400AEE77D4B00225A74AAE77B4B5868B3E74D
:10417400794BDA68B823D3581B8A9BB21100B83143
:1041840009790B41DB0754D4C823D3581B8A9BB24B
:104194001100C83109790B41DB074AD4E823D3580D
:1041A4001B8A9BB21100E83109790B41DB0740D52A
:1041B400F023D3581B8A9BB2F03212791341DB07E8
:1041C40037D5654B9B6800221A715A79002A04D1AD
:1041D4009A79002A1ED0012A22D05F4B1B7C013B16
:1041E400012B23D95C4B186803681B68002198478E
:1041F400594D2E74FCF7FEF8B1B20320FCF7F6F922
:10420400FCF7F0F82B7C052B00D937E19B00534ACF
:10421400D3589F46186803689B6804219847DCE7D5
:10422400186803689B6800219847D6E74A4B58688A
:10423400DAE7494B1B7C013B012B17D9464B186825
:1042440003681B6804219847434B9B6801221A7139
:104254005A79002ACCD19A79002A0AD0012AC7D1E6
:10426400186803689B6804219847C1E73A4B58686B
:10427400E6E7186803689B6800219847B8E7364B5F
:10428400DA68B023D3581B8A9BB21100B031097984
:104294000B41DB072FD4C023D3581B8A9BB2C032F7
:1042A40012791341DB0726D42B4B9B6800221A7129
:1042B4005A79002A04D19A79002A0DD0012A11D002
:1042C400254B1B7C013B012B12D9234B1868036837
:1042D4001B68012198478BE7186803689B680421D1
:1042E4009847EDE7186803689B6800219847E7E75B
:1042F400194B5868EBE7184B1B7C013B012B19D970
:10430400154B186803681B6804219847124B9B6877
:1043140001221A715A79002A00D069E79A79002A91
:104324000BD0012A00D063E7186803689B68042156
:1043340098475DE7084B5868E4E7186803689B688A
:104344000021984754E7044B5868E6E61868036868
:104354009B68002198474BE7F40400205061000853
:10436400584B002219680A749B689A711A715A7919
:10437400002A00D056E6186803689B680421984711
:1043840050E6504B00261A6816749D680223AB71E0
:10439400286803689B68022198472E716B79002B6B
:1043A40000D03FE6AB79002B08D0012B00D039E6D2
:1043B400286803689B680021984733E628680368E7
:1043C4009B68042198472DE63E4B002219680A7425
:1043D4009B68012199711A715A79002A00D021E64B
:1043E400186803689B68002198471BE6354B9D6855
:1043F4000223AB71286803689B6802219847002355
:104404002B716B79002B04D1AB79002B06D0012BD7
:104414000AD02C4B1B6801221A7403E6286803682F
:104424009B6804219847F4E7286803689B68002187
:104434009847EEE7234B9D680223AB712868036815
:104444009B680221984700232B716B79002B04D1C0
:10445400AB79002B06D0012B0AD01A4B1B68002223
:104464001A74DFE5286803689B6804219847F4E719
:10447400286803689B6800219847EEE7114B0026E3
:104484001A6816749D680223AB71286803689B68D8
:10449400022198472E716B79002B00D0C2E5AB79CD
:1044A400002B08D0012B00D0BCE5286803689B686A
:1044B40000219847B6E5286803689B68042198475B
:1044C400B0E5C046F4040020F0B5DE4657464E463B
:1044D4004546E0B583B0B74B1B68B74A934209D849
:1044E400B44A053313600623D1690B73116A0B7345
:1044F400526A1373AF4B1F69FA6915682B8A9BB212
:1045040014792341DB07DB17022293430333396A0F
:104514000868028A92B209790A41D20700D40123B9
:104524007A6912689146128A92B294467A6912792B
:104534009046664616413200D20700D40223BF6972
:104544003A689446128A92B23F793A41D20700D42B
:1045540004232A8A92B22241D20707D46246128ADD
:1045640092B23A41D20701D400F0FBFD028A92B222
:104574000A41D20706D44A46128A92B241460A41F7
:10458400D2070FD5002B2BD18A4B5B688B4A934201
:1045940009D9884B9B6A19681A7910320123934010
:1045A4008B6109E00023834A05335360936A1A68D8
:1045B400197901238B4093617E4BDC69A368581DF4
:1045C4007F4B98420ED8A0606421A06801F0F0FCF3
:1045D400C5B2237B062B73D89B007A4AD3589F46D7
:1045E4000023E0E7642101F069FDA160ECE72268A3
:1045F400217901238B4093616E4B1C6AA368581D7B
:104604006F4B98425FD8A0606421A06801F0D0FC91
:10461400C5B2237B062B00D9C3E09B006A4AD3585A
:104624009F46216822791032012393408B61E3E78E
:1046340022682379042D03D8012199409161DBE795
:104644001033012199409161D6E7226823798107CB
:1046540003D5012199409161CEE71033012199409E
:104664009161C9E722682379C10703D501219940E3
:104674009161C1E71033012199409161BCE722683F
:104684002379002D03D1012199409161B4E71033BE
:10469400012199409161AFE7830701D100F05AFDF0
:1046A400266824790321280001F008FDC9B20029F5
:1046B40001D100F051FD10340123A340B3619BE705
:1046C4000323237398E7642101F0F8FCA1609BE7BE
:1046D4002268217901238B409361364B5C6AA3687D
:1046E400581D374B98425FD8A0606421A06801F040
:1046F4005FFCC5B2237B062B00D96BE19B00334AD8
:10470400D3589F46216822791032012393408B614C
:10471400E3E722682379042D03D8012199409161AC
:10472400DBE71033012199409161D6E722682379B0
:10473400810703D5012199409161CEE7103301210E
:1047440099409161C9E722682379C10703D5012102
:1047540099409161C1E71033012199409161BCE70F
:1047640022682379002D03D1012199409161B4E796
:104774001033012199409161AFE7830701D100F023
:10478400E2FC266824790321280001F097FCC9B2D1
:10479400002901D100F0D9FC10340123A340B361F6
:1047A4009BE70323237398E7642101F087FCA1604E
:1047B4009BE7C0463002002087130000BFD40100ED
:1047C400E70300006861000884610008A061000834
:1047D4002268217901238B409361C24B1869C36914
:1047E4001A689446148AA4B21D792C41E407E4178C
:1047F40002239C430334026A11680B8A9BB2127928
:104804001341DB0700D40124466937683B8A9BB215
:104814003679B3463341DB0700D4022483691B682D
:1048240098461B8A9BB29A4683691B7999465646D9
:104834001E413300DB0700D4042463461B8A9BB269
:104844002B41DB0707D443461B8A9BB24D462B41C1
:10485400DB0700D406240B8A9BB21341DB0706D482
:104864003B8A9BB25A461341DB0700D4B5E09E4B0A
:104874001B78A3420AD0052B00D1B0E0062B00D14F
:10488400B2E0002C00D0B4E0974B1C70954B5869F3
:10489400964BD968E823CB581B8A9BB20A00E832AE
:1048A40012791341DB0700D4A8E0F023CB581B8A0C
:1048B4009BB20A00F03212791341DB0700D49DE069
:1048C400C26813681B8A9BB212791341DB0701D5B6
:1048D40000F01FFC026813681B8A9BB21279134113
:1048E400DB0701D400F01AFC826813681B8A9BB2B0
:1048F40012791341DB0701D400F0FEFB4268136810
:104904001B8A9BB212791341DB0701D400F004FC2B
:10491400037C012B00D189E0002B00D192E0022B13
:104924006ED1B023CB581B8A9BB2B0310A791341A4
:10493400DB0765D50323037462E021682279103212
:10494400012393408B6148E722682379042D03D81F
:1049540001219940916140E710330121994091610F
:104964003BE722682379810703D5012199409161AE
:1049740033E710330121994091612EE722682379AE
:10498400C10703D501219940916126E71033012124
:104994009940916121E722682379002D03D10121F7
:1049A4009940916119E7103301219940916114E70D
:1049B400830700D1C0E3266824790321280001F08D
:1049C4007DFBC9B2002900D1B8E310340123A34010
:1049D400B36102E703232373FFE6052447E7631E5D
:1049E400012B00D94DE74FE7E31E012B00D948E71F
:1049F4004AE704302100FBF7D6FE45E700230374A1
:104A0400384B9D696C68A268E3689A4200D160E300
:104A1400201DFBF7B5FEC0B20028F4D02423EA5CC5
:104A24000F2A16D89300324AD3589F46B823CB583E
:104A34001B8A9BB2B8310A791341DB07E0D5032303
:104A44000374DDE703230374DAE72423EB5C012B0F
:104A540009D12800FEF78CF803B03CBC9046994677
:104A6400A246AB46F0BD01212800FFF7D1FA3AE394
:104A740001212800FFF7CCFA1E4B1A4A12689A4209
:104A8400E7D901212800FFF7C3FAE2E70020032851
:104A94001DD012D904281FD00528DAD100236B7445
:104AA400AB74EB742B756B75AB75EB752B766B7602
:104AB40006212800FFF7ACFACBE70128C9D100236F
:104AC400EB812B7405212800FFF7A2FAC1E702212C
:104AD4002800FFF79DFABCE704212800FFF798FAA5
:104AE400B7E7C04630020020B0000020F4040020E4
:104AF400BC610008871300000020032808D00428A4
:104B04000BD00228A5D101212800FFF781FAA0E7E4
:104B140003212800FFF77CFA9BE701212800FFF717
:104B240077FA96E70020032809D004280CD002283D
:104B340000D08EE701212800FFF76AFA89E70421F3
:104B44002800FFF765FA84E702212800FFF760FADE
:104B54007FE70020032809D004280CD0022800D0C5
:104B640077E701212800FFF753FA72E701212800B3
:104B7400FFF74EFA6DE703212800FFF749FA68E7CB
:104B84000020431E032B00D963E7002811D02B7C9F
:104B9400AA89934212DA5A009A18D2B2072494408E
:104BA400E989A1430724204090400843E881013368
:104BB4002B742A7CAB899A4200DA4AE76B46991D2A
:104BC4000420FBF7E7FC002812D0012802D00123BF
:104BD4005B4210E000246B46DC80FBF70BFC2100F9
:104BE4000420FBF703FD0400FBF7FCFB042C0CD1B1
:104BF4006B4606331B88EA899BB29A4200D15EE277
:104C040001212800FFF704FA23E701235B42F2E7BE
:104C14000020431E032B00D91BE7002806D06B7E1F
:104C2400072B07D85A1C6A76EB1858746B7E072B2F
:104C340000D80EE76B7C022B00D045E2013BC54A4D
:104C4400995C2A001132D25C914200D03CE20133DB
:104C5400082BF4D10C212800FFF7DAF9F9E600203B
:104C6400022815D009D9032817D0042800D0F0E66B
:104C74000E212800FFF7CCF9EBE6012800D0E8E686
:104C8400B54B1B7CEB6108212800FFF7C1F9E0E676
:104C940001212800FFF7BCF9DBE609212800FFF712
:104CA400B7F9D6E60020022800D1D8E00DD90328B0
:104CB40000D1DBE0042800D0CBE6EB69013BDBB29A
:104CC400002B00D1D0E0EB61C3E6012800D0C0E6A0
:104CD4002E7FA14C0023A3742000FBF722FF26742F
:104CE400FBF788FBB1B20320FBF780FCFBF77AFBF0
:104CF400237C052B00D991E09B00984AD3589F460A
:104D0400954B002219680A749B689A711A715A7932
:104D1400002A4ED1186803689B680421984748E02C
:104D24008D4B00261A6816749C680223A3712068B0
:104D340003689B680221984726716379002B38D158
:104D4400A379B34207D0012B33D1206803689B6851
:104D5400002198472DE0206803689B680421984748
:104D640027E07D4B002219680A749B680121997120
:104D74001A715A79002A1CD1186803689B680021AB
:104D8400984716E0744B9C680223A371206803685B
:104D94009B6802219847002323716379002B04D177
:104DA400A379002B0AD0012B0ED06B4B1B68012278
:104DB4001A7401212800FFF72BF94AE620680368DA
:104DC4009B6804219847F0E7206803689B680021EA
:104DD4009847EAE7604B9C680223A3712068036844
:104DE4009B6802219847002323716379002B04D127
:104DF400A379002B06D0012B0AD0574B1B68002245
:104E04001A74D6E7206803689B6804219847F4E77E
:104E1400206803689B6800219847EEE74E4B002604
:104E24001A6816749C680223A371206803689B683F
:104E34000221984726716379002BBAD1A379B34232
:104E440007D0012BB5D1206803689B6800219847DF
:104E5400AFE7206803689B6804219847A9E701210C
:104E64002800FFF7D5F8F4E505332CE7EB690133A7
:104E7400DBB2052B00D90123EB61EAE5002002280F
:104E84001AD009D903281CD0042800D0E1E5072151
:104E94002800FFF7BDF8DCE5012800D0D9E5FBF7D1
:104EA400A9FA00210220FBF7A1FBFBF79BFA0121E1
:104EB4002800FFF7ADF8CCE501212800FFF7A8F89A
:104EC400C7E50A212800FFF7A3F8C2E5002002285D
:104ED40012D009D9032814D0042800D0B9E5092137
:104EE4002800FFF795F8B4E5012800D0B1E50B21BF
:104EF4002800FFF78DF8ACE501212800FFF788F8BA
:104F0400A7E50C212800FFF783F8A2E5012128007A
:104F1400FFF77EF89DE50020022815D009D9032863
:104F24001ED0042800D094E50A212800FFF770F869
:104F34008FE5012800D08CE50023EB812B740D2133
:104F44002800FFF765F884E501212800FFF760F8E1
:104F54007FE5C04674640008F4040020FC61000886
:104F64000E212800FFF754F873E50020002811D023
:104F74002B7CAA89934212DA5A009A18D2B20724D7
:104F84009440E989A1430724204090400843E881E4
:104F940001332B742A7CAB899A4200DA59E56B46BB
:104FA400991D0420FBF7F6FA002801D001280DD042
:104FB400EC89FBF71FFA21000420FBF717FBFBF732
:104FC40011FA01212800FFF723F842E56B4600227D
:104FD400DA80FBF70FFA00210420FBF707FBFBF74D
:104FE40001FAE5E70020022832D009D9032834D099
:104FF400042800D02DE50C212800FFF709F828E546
:10500400012800D025E56B46991D0720FBF7C2FA5D
:10501400002816D0012806D00123EB610F212800B7
:10502400FEF7F6FF15E56B460022DA80FBF7E2F99E
:1050340000210720FBF7DAFA0400FBF7D3F9042C6C
:10504400EAD16B4606331B88EB61782BE6D9E3E79C
:1050540001212800FEF7DCFFFBE407212800FEF70E
:10506400D7FFF6E4002002281DD00BD903281FD057
:10507400042800D0EDE4EB69002B00D1E9E4013B06
:10508400EB61E6E4012800D0E3E4AC8BFBF7B2F972
:1050940021000720FBF7AAFAFBF7A4F90121280055
:1050A400FEF7B6FFD5E401212800FEF7B1FFD0E4F6
:1050B400EB69772B00D9CCE40133EB61C9E4072118
:1050C4002800FEF7A5FFC4E401212800FEF7A0FF95
:1050D400BFE42A4B9A6A13689B8A9BB212791341E4
:1050E400DB0700D4B1E42423EA5C0F2A00D9B0E43E
:1050F4009300234AD3589F46B023CB581B8A9BB2B4
:10510400B0310A7913411A000123134002330374A6
:1051140076E40023037473E40323FBE7B823CB583A
:105124001B8A9BB2B8310A791341DB07DB170222D1
:1051340013400133037463E4266824790123A340F4
:10514400B361FFF74AFB266824790123A340B361C6
:10515400FFF7C3FA266824790123A340B361FFF75C
:105164004BFA028A92B20A410023D20701D5FFF713
:105174001AFA4B461B8A0023FFF715FA3002002067
:105184001462000810B5054C21000020FCF76EFEE7
:1051940021000020FBF7BEFA10BDC046FFFF00004F
:1051A40070B51D4D29000120FBF7B4FA1B4B0024F8
:1051B4001C605C609C609C8100229A73184B642282
:1051C4001A60184ADA609C605C6029000120FCF7D0
:1051D4004DFE3523144A02211448FBF779FA144D85
:1051E400002229001348FCF713FE0122290012486B
:1051F400FCF70EFE114B1C605C609C60DC601C6163
:105204009C61DC611C625C629C6205230C4A022185
:105214000C48FBF75DFA70BDFFFF0000740200202C
:1052240028010020B4000020151400088C0400207C
:1052340000080048B8010020C0010020300200200E
:10524400CD4400085C020020F0B5CE46474680B548
:1052540089B00121F14B1970F14A13680B431360B3
:10526400EF4B1B689B07FBD5ED4A536803218B4327
:105274005360EB4B5B680C271F40FAD1E84A116876
:1052840080235B020B431360E54B1B689B03FBD538
:10529400E44B01221A6010321A60E14BE24A5A6070
:1052A4000022DA621968802252040A431A60DC4B35
:1052B4001B689B01FBD5DA4A536802210B435360F8
:1052C400D74B5A680C231340082BF9D1D44A53689E
:1052D40002210B435360D24B5A680C231340082B12
:1052E400F9D1CF4C6268073B1340636000F09AFD2C
:1052F400002306936269FC23DB0313436361636940
:105304000693069BE269802189030A43E261E3690B
:105314000B400693069BA269802189000A43A2617F
:10532400A3690B400693069BC04B1868E931FF3113
:1053340000F03EFE0138BE4B984200D94DE3BD4A11
:105344005060BD48036A1B021B0AC02109060B43B7
:10535400036200239846936007331360B74BB84A3F
:105364001A6006225A60FA22D2009A60B54A1A607C
:105374006169FC22D2030A43626163690593059B58
:10538400B14C4346009342460121200000F004FD45
:105394002379217B2268A068FBF728FE2379217DED
:1053A40022682069FBF722FE2379217F2268A06905
:1053B400FBF71CFE23792422A15C2268206AFBF7F8
:1053C40015FE23792C22A15C2268A06AFBF70EFE4D
:1053D40023793422A15C2268206BFBF707FE237932
:1053E4003C22A15C2268A06BFBF700FE23794422D7
:1053F400A15C2268206CFBF7F9FD23794C22A15CA7
:105404002268A06CFBF7F2FD4346009301331A00B7
:1054140041468E4800F0C0FC9426A35D90259C2252
:10542400A15C625998202058FBF7E0FDA35DA422FB
:10543400A15C6259A0202058FBF7D8FDA35DAC22E3
:10544400A15C6259A8202058FBF7D0FDA35DB422CB
:10545400A15C6259B0202058FBF7C8FDA35DBC22B3
:10546400A15C6259B8202058FBF7C0FDA35DC4229B
:10547400A15C6259C0202058FBF7B8FDA35DCC2283
:10548400A15C6259C8202058FBF7B0FDA35DD4226B
:10549400A15C6259D0202058FBF7A8FDA35DDC2253
:1054A400A15C6259D8202058FBF7A0FDA35DE4223B
:1054B400A15C6259E0202058FBF798FDA35DEC2223
:1054C400A15C6259E8202058FBF790FDA35DF4220B
:1054D400A15C6259F0202058FBF788FDA35DFC22F3
:1054E400A15C6259F8202058FBF780FDA35D82225D
:1054F4005200A15C6259802040002058FBF776FDE1
:10550400A35D86225200A15C625984204000205889
:10551400FBF76CFDA35DCA225200A15C6259C8204E
:1055240040002058FBF762FDA35DCE225200A15C2F
:105534006259CC2040002058FBF758FDA35DD222CD
:105544005200A15C6259D02040002058FBF74EFD68
:10555400A35DD6225200A15C6259D4204000205899
:10556400FBF744FD03230093023B1A0041463848ED
:1055740000F012FC374B1B680493364B1B68049AEB
:105584009B1A632BF9D9FAF735FF334B1A8892B279
:10559400324B1B889BB232498A4200D135E23149F1
:1055A4008A4200D11AE2002A00D1A3E2FAF7DCFF12
:1055B400FAF718FF2C4B2D4A1A606422DA602C4A41
:1055C4005A602C4A9A602C4A1468236023681B682A
:1055D400002B00D1C8E0244B5B68002B00D1C3E052
:1055E400214B9B68002B00D1BEE02368DB68002BB5
:1055F40002D123686422DA60204B63600023A37322
:1056040023681B681E4A944663445A1E93415B42B6
:105614005B058022D203944634E0C0460400002097
:105624000010024000200240000011800000002011
:10563400FFFFFF0010E000E000ED00E0003000405C
:1056440055550000CCCC0000D40200206403002097
:1056540084040020A800002000F0000800F80008DE
:10566400EEEE0000FFFF000008000020005800409C
:105674002C040020240400207002002028010020B3
:1056840000A8FFBF6344E54AD1691943D161D269D7
:1056940013400793079B23681A68136801218B43FF
:1056A400136023681B681B68DB07FAD42068032592
:1056B400009501231A000221806800F06DFB206828
:1056C400009501231A000221406800F065FB23685D
:1056D4009B68197901221868FAF7FBFD23685B6857
:1056E400197901221868FAF7F4FD23681A68116819
:1056F40080235B010B43136023681B681B682268CB
:105704001168C74A1A4080235B0013430B60226868
:10571400C44B12689A4200D121E22268C24B12683B
:105724009A4221D1C14BC62080001A58FF218A43D6
:105734001100C0220A431A50802252041A602368BE
:105744001A681368BA490B40136023681B68B94A86
:105754001A6123681A68116801230B4313602368D4
:105764001B681B68DB07FAD5B34B1D68B34CB44BFD
:105774001C60B4482061B44B636102260096002388
:105784001A00012100F008FB0096002301221100F9
:10579400606900F001FBAD4B6360AD4BA360002377
:1057A40099462376E560AC607C33E2689381236993
:1057B4001A681B79012188469940916163691A68C6
:1057C4001B7910334146994091613220FCF712FB5A
:1057D40063691A681B794146994091616420FCF71A
:1057E40009FB38212000FBF702F996256D002800FB
:1057F400FCF700FB39212000FBF7F9F82800FCF73F
:10580400F9FA14212000FBF7F2F86420FCF7F2FA0D
:1058140079212000FBF7EBF86420FCF7EBFA502128
:105824002000FBF7E4F86420FCF7E4FA6C21200084
:10583400FBF7DDF86420FCF7DDFA0C212000FBF710
:10584400D6F86420FCF7D6FA41462000FBF7CFF8DF
:105854006420FCF7CFFA38212000FBF7C8F8642055
:10586400FCF7C8FA7B4D7C4BAB606368EB607B4E06
:105874002E617B4B6B612369AB627A4BEB617A4B94
:105884002B627A4B6B624B46009343464246494631
:10589400706900F081FAB06972691379017912684C
:1058A4000068FBF7A3FBF069726913790179126848
:1058B4000068FBF79BFB306A7269137901791268FF
:1058C4000068FBF793FB6A4BAB612A695A60EA688C
:1058D4009A60AA681A600E2169440420FBF776FDD9
:1058E400484500D149E10E236B441B88013B9BB220
:1058F400604A934200D940E15D4B0024DC811C7472
:1059040024229C54534DE8694473047384600094C6
:1059140023002200012100F03FFA286A4473047333
:105924008460009423002200012100F035FA686AA3
:10593400447304738460009423002200012100F066
:105944002BFAEB6820225969CA5501371A69BA4201
:10595400F8D201255D763F4BDB6800221A763E4C77
:10596400454BE3602668B06803685B699847F06854
:1059740003685B6998476268936819681B791033F8
:10598400280098408861D3681A681B79103329006D
:1059940099409161A468206803685B6998476571C0
:1059A4000221A171206803689B6898470E2169440D
:1059B4000320FBF70BFD002800D1ADE10E236B445F
:1059C4001B78254A1374013BDAB2042A00D9A6E1F4
:1059D400DBB29B00294AD3589F46FEE7002B05D033
:1059E400274A934206D0FAF7BFFDE1E52548FAF7C6
:1059F400DBFCDDE52348FAF7D7FC042800D0D7E523
:105A040000212148FAF7B6FCD2E5002B61D100242D
:105A140001256D423DE025B240E0C0460010024041
:105A2400FFF0FFFF005400400058004000E100E098
:105A3400FFFFFDFF271A106070020020D804002029
:105A4400AC000020EC030020E403002088010020C7
:105A54001801002030020020F404002084020020F9
:105A6400A401002034040020440400205404002035
:105A7400A8020020FDFF0000D402002054620008A8
:105A8400EEEE000000F0000800F8000801340A2CD3
:105A940014D0B14B1B889BB2002BBCD0A542F5D0CF
:105AA400AE490020FAF776FD0128EFD0AB4B1988F8
:105AB4000020FAF727FD0428E8D079E50021A8485A
:105AC400FAF758FC042800D072E5A648FAF76CFCF3
